:100000000C944A010C9467010C9467010C94FB1A40
:100010000C9467010C9467010C9467010C946701C0
:100020000C9467010C9467010C9418160C945216EA
:100030000C9467010C9467010C9467010C946701A0
:100040000C9467010C949C010C9467010C9467015B
:100050000C9467010C9467010C9467010C94670180
:100060000C9467010C9467010C9467010C94670170
:100070000C9467010C948E1E0C9467010C9467011C
:100080000C9467010C9467010C9467010C94670150
:100090000C9467010C9467010C94E11A0C94EE1A0D
:1000A0000C9467010C9467010C946701C015B81596
:1000B000B015A815A01598159015881580157815F8
:1000C00070156815601558155015481540153815E8
:1000D0003015281520151815101508150015F814D9
:1000E000F014E814E014D814D014C814C014B814D0
:1000F000B014A814A01498149014881480147814C0
:1001000070146814601458145014481440143814AF
:100110003014281420141814101408140014F813A0
:10012000F013E813E013D813D013C813C013581AF0
:10013000871AA31AAF1ADC1ADC1ADA1ACE1ED01EDE
:10014000D21ED91EE01EEC1EF81E091F084AD73B1E
:100150003BCE016E84BCBFFDC12F3D6C74319ABD96
:1001600056833DDA3D00C77F11BED9E4BB4C3E91BA
:100170006BAAAABE000000803F05A84CCDB2D44EA9
:10018000B93836A9020C50B9918688083CA6AAAAAB
:100190002ABE000000803F00000100002F02120074
:1001A000020000EC014300030000E8010401030920
:1001B00004D4011202030904CC010603030904C29A
:1001C00001080803340031003000000006034D0030
:1001D0003200000012034A002E0020004600690091
:1001E00065006E0065000000040309040902430075
:1001F000020100C0320904000001020201000524CE
:100200000010010524010101042402060524060052
:10021000010705820310004009040100020A0000E2
:100220000007050302400000070584024000001299
:1002300001000202000010C0167A0400010102034E
:10024000010001C11201803601813609416D6269E8
:10025000656E743A200009446973743A20000941BC
:100260006E676C653A200009443A20000949523A09
:10027000200009494C3A200009544C3A2000094C0E
:100280003A200009423A200009523A20000A54520A
:100290003A20000011241FBECFEFDAE0DEBFCDBF51
:1002A00011E0A0E0B1E0E8E8F7E402C005900D92AB
:1002B000A832B107D9F721E0A8E2B1E001C01D9250
:1002C000AD39B207E1F70E94301F0C94C2230C94A1
:1002D00000001092440110924501109246011092C4
:1002E000470110928500109284000895E1E8F0E043
:1002F00080818B7F80838081826080838081816028
:10030000808380818F7E8083808188608083E0E825
:10031000F0E080818D7F808380818E7F8083EFE617
:10032000F0E08081826080838AEF90E09093890082
:10033000809388000C9469011F920F920FB60F9260
:1003400011248F939F93AF93BF9380914401909119
:100350004501A0914601B09147010196A11DB11D33
:100360008093440190934501A0934601B0934701C7
:10037000BF91AF919F918F910F900FBE0F901F90E3
:100380001895239A08952B9B0E94C101479A46987D
:1003900008952B9B0E94C1014798469A08952B9B74
:1003A0000E94C1012D9A2E9808952B9B0E94C10195
:1003B0002D982E9A0895239808958F929F92AF9228
:1003C000BF92CF92DF92EF92FF920F931F93CF9342
:1003D000DF93379B0CC08091CF0024E6829FC00141
:1003E00011246FEF70E00E94D3229B010DC0809119
:1003F000CF0044E6849FC001112461E07FEF0E949A
:10040000D3229B012C593F4F1D9B00C08091D000EF
:1004100044E6849FC00111246FEF70E00E94D32254
:10042000EB01B901882777FD8095982F0E94D6208F
:100430002DEC3CEC4CE45EE30E94EF216B017C016F
:100440006091740170917501882777FD8095982FD0
:100450000E94D6202DEC3CEC4CE45FE30E94EF219F
:100460009B01AC01C701B6010E946E1F0E94A32030
:100470006B017C01BE01882777FD8095982F0E9433
:10048000D6202DEC3CEC4CE45EE30E94EF214B01C6
:100490005C0160916E0170916F01882777FD8095F6
:1004A000982F0E94D6202DEC3CEC4CE45FE30E9498
:1004B000EF219B01AC01C501B4010E946E1F0E9497
:1004C000A3204B015C01EB011C141D046CF40E9481
:1004D000C3012FEF2C9DC0012D9D900D112464E6CA
:1004E00070E00E94D32210C0C114D10481F00E9498
:1004F000C9012FEF2C9DC0012D9D900D112464E6A4
:1005000070E00E94D32261506093CF0004C00E942B
:10051000C3011092CF001C161D066CF40E94CF017F
:100520002FEF289DC001299D900D112464E670E0F5
:100530000E94D3220FC0CD2B81F00E94D5012FEF56
:10054000289DC001299D900D112464E670E00E9451
:10055000D32261506093D00004C00E94CF0110925A
:10056000D000DF91CF911F910F91FF90EF90DF901E
:10057000CF90BF90AF909F908F90089584E690E0C9
:1005800090937501809374010C94DD0182E390E0F7
:10059000909375018093740190936F0180936E0125
:1005A0000C94DD018CE99FEF9093750180937401A9
:1005B00090936F0180936E010C94DD018EEC9FEFA0
:1005C000909375018093740190936F0180936E01F5
:1005D0000C94DD0182E390E09093750180937401A7
:1005E00089E190E090936F0180936E010C94DD019E
:1005F00089E190E0909375018093740182E390E02B
:1006000090936F0180936E010C94DD0182E390E082
:1006100090937501809374018EEC9FEF90936F011E
:1006200080936E010C94DD018EEC9FEF9093750129
:100630008093740182E390E090936F0180936E0148
:100640000C94DD010E94BE022FEF83ED90E3215058
:1006500080409040E1F700C000000E94DE022FEFD2
:1006600083ED90E3215080409040E1F700C000000E
:100670000E94EA022FEF83ED90E3215080409040EA
:10068000E1F700C000000E94F8022FEF83ED90E335
:10069000215080409040E1F700C000000C94DB0145
:1006A0004F925F926F927F928F929F92AF92BF9282
:1006B000CF92DF92EF92FF92209154013091550139
:1006C00040915601509157010E946D1F6B017C01B2
:1006D0006091340170913501882777FD8095982FBE
:1006E0000E94D6204B015C019B01AC01C701B60101
:1006F0000E94EF212091760130917701409178019D
:10070000509179010E946E1F60937601709377017A
:10071000809378019093790120E030E0A9010E9454
:10072000EF219B01AC01C701B6010E946E1F2B0196
:100730003C01209170013091710140917201509102
:100740007301C701B6010E946D1F20E030E0A901CE
:100750000E94EF21A50194010E943B209B01AC0166
:10076000C301B2010E946E1FC0927001D09271014C
:10077000E0927201F0927301FF90EF90DF90CF90C2
:10078000BF90AF909F908F907F906F905F904F90B1
:1007900008958F929F92AF92BF92CF92DF92EF9285
:1007A000FF924B015C0120E030E0A9010E9434205F
:1007B00087FF0AC029EF3FE049EC50E4C501B401CE
:1007C0000E946E1F4B015C01209154013091550134
:1007D0004091560150915701C501B4010E946E1F0E
:1007E0006B017C0129EF3FE049EC50E40E94E421D9
:1007F000181654F429EF3FE049EC50E4C701B60164
:100800000E946D1F6B017C0129EF3FE049E450E439
:10081000C501B4010E94342087FF40C020915401DB
:10082000309155014091560150915701C701B601D1
:100830000E946D1F0E94A3209B0177FF04C0222706
:100840003327261B370BB901882777FD8095982F12
:100850000E94D620209100013091010140910201B7
:10086000509103010E94E421181674F50E940603BA
:10087000D5CFB901882777FD8095982F0E94D62083
:10088000209100013091010140910201509103013A
:100890000E94E4211816C4F40E941403209154010C
:1008A000309155014091560150915701C701B60151
:1008B0000E946D1F0E94A3209B0177FFDACF2227A1
:1008C0003327261B370BD5CFFF90EF90DF90CF90CB
:1008D000BF90AF909F908F900895CF92DF92EF924C
:1008E000FF926B017C0120E030E0A9010E943420DE
:1008F00087FF0AC029EF3FE049EC50E4C701B60189
:100900000E946E1F6B017C0129EF3FE049E450E437
:10091000C701B6010E94342087FF40C020915401D6
:10092000309155014091560150915701C701B601D0
:100930000E946D1F0E94A3209B0177FF04C0222705
:100940003327261B370BB901882777FD8095982F11
:100950000E94D620209100013091010140910201B6
:10096000509103010E94E421181674F50E940603B9
:10097000D5CFB901882777FD8095982F0E94D62082
:100980002091000130910101409102015091030139
:100990000E94E4211816C4F40E941403209154010B
:1009A000309155014091560150915701C701B60150
:1009B0000E946D1F0E94A3209B0177FFDACF2227A0
:1009C0003327261B370BD5CFFF90EF90DF90CF90CA
:1009D00008950E9406032FEF83ED90E3215080409D
:1009E0009040E1F700C000000C94DB01CF92DF9251
:1009F000EF92FF92C0904C01D0904D01E0904E01DB
:100A0000F0904F012AE037ED43EA5DE3C701B601FC
:100A10000E94342087FD0AC026E636E646EC50E404
:100A2000C701B6010E94E421181634F4FF90EF903C
:100A3000DF90CF900C94BE0229EF3FE049E450E4F0
:100A4000C701B6010E94342087FF06C0FF90EF90D7
:100A5000DF90CF900C940603FF90EF90DF90CF9043
:100A60000C9414036F927F928F929F92AF92BF92D9
:100A7000CF92DF92EF92FF920F931F93CF93DF936A
:100A800000D000D0CDB7DEB700911D0110911E013E
:100A9000081B190B60901B0170901C01661A770AE5
:100AA000B801882777FD8095982F0E94D6209B015A
:100AB000AC01B301882777FD8095982F29833A836D
:100AC0004B835C830E94D62029813A814B815C81D3
:100AD0000E94E11F29EF3FE049EC5FE30E946E1F97
:100AE0006B017C0129EF3FE049E450E40E94E421DE
:100AF000181654F429EF3FE049EC50E4C701B60161
:100B00000E946D1F6B017C018090540190905501F3
:100B1000A0905601B0905701075F1F4F0331110598
:100B200060F489E0680E711CE3E16E16710428F42C
:100B30000E94DB0181E090E026C0A7019601C5017B
:100B4000B4010E946D1F20E030E040E05FE30E94AE
:100B5000E42118161CF40E94EA0213C0A5019401B6
:100B6000C701B6010E946D1F20E030E040E05FE366
:100B70000E94E42118161CF40E94F80202C00E9490
:100B8000BE0280E090E00F900F900F900F90DF91E9
:100B9000CF911F910F91FF90EF90DF90CF90BF907A
:100BA000AF909F908F907F906F900895CF92DF923B
:100BB000EF92FF9280912201909123018130910563
:100BC000A9F5C0903001D0903101E0903201F09051
:100BD000330120E030E0A901C701B6010E94E42101
:100BE00018165CF4809113019091140120911D015D
:100BF00030911E0128173907B4F020E030E0A90138
:100C0000C701B6010E94342018160CF449C0809127
:100C100015019091160120911D0130911E01281798
:100C200039070CF03DC064E170E034C00297C1F5B3
:100C3000C0903001D0903101E0903201F09033014A
:100C400020E030E0A901C701B6010E94E421181696
:100C50005CF4809113019091140120911D01309159
:100C60001E0128173907A4F020E030E0A901C701D0
:100C7000B6010E94342018169CF0809115019091C5
:100C8000160120911D0130911E012817390744F4E7
:100C90006CEE7FEFFF90EF90DF90CF900C943205D9
:100CA000FF90EF90DF90CF90089560E070E080912A
:100CB0001701909118010C9432050E94D8188111E7
:100CC00003C06A9A7298FDCF6A9A729A08954AE0B0
:100CD00060911F0181E00C94BC1180E885BF85BF45
:100CE000ECE7F0E080818F7B808380818068808367
:100CF000EAE7F0E080818B7F80838081826080835F
:100D0000808181608083AEE7B0E08C9181608C93BC
:100D10008C9182608C938C9180618C938C91806299
:100D20008C938C9180648C938C9180688C93ADE7CC
:100D3000B0E08C9181608C938C9182608C938081E7
:100D40008860808380818F7D8083808180688083BC
:100D50008081806480830895539A3E9A269A3F9AB0
:100D6000259AE1ECF0E080818860808380818B7F30
:100D7000808380818D7F808380818E7F8083A3ECC0
:100D8000B0E08C918D7F8C938C918E7F8C93A0ECB6
:100D9000B0E08C9182608C938C9180688C938C9164
:100DA0008F7B8C938081816080838081806280834F
:100DB00080818F7E80838FEF8093D1008093CF00DE
:100DC0008093D00008958091220190912301813079
:100DD000910531F018F0029729F008958AE103C0D7
:100DE00088E101C089E180931F0108950E94B51236
:100DF0000E9414117894219A229A209A0E94E30664
:100E00000E945D060E9467060E94AC060C946D0667
:100E100080912001909121018130910519F0029774
:100E2000A1F0089583E790E0909318018093170153
:100E30008DE89FEF90931A01809319018BEA9FEF41
:100E4000909316018093150108958DE89FEF90937C
:100E500018018093170183E790E090931A01809323
:100E6000190185E590E09093140180931301089592
:100E7000CF92DF92EF92FF92CF93DF93C091440124
:100E8000D09145018091360190913701C81BD90B53
:100E9000D0933501C093340180911D0190911E01C2
:100EA0002091060130910701821B930BBE010E9425
:100EB000D322882777FD8095982F0E94D6206093B3
:100EC000300170933101809332019093330180910E
:100ED0001B0190911C012091040130910501821B9E
:100EE000930BBE010E94D322882777FD8095982F0F
:100EF0000E94D62060932C0170932D0180932E01C7
:100F000090932F0120913A0130913B0140913C0197
:100F100050913D01609154017091550180915601AD
:100F2000909157010E946D1F6B017C01BE018827C3
:100F300077FD8095982F0E94D6209B01AC01C701B8
:100F4000B6010E943B206093280170932901809391
:100F50002A0190932B01DF91CF91FF90EF90DF90CA
:100F6000CF900895AF92BF92CF92DF92EF92FF920F
:100F70000F931F93CF93DF93609106017091070148
:100F80000091040110910501643F81E0780729F484
:100F9000043F81E0180709F4B7C0A0901D01B0908C
:100FA0001E01C501861B970BC196C0911B01D091F4
:100FB0001C018336910540F0CE01801B910BC19638
:100FC0008336910508F07CC0882777FD8095982F9F
:100FD0000E94D6202DEC3CEC4CE45FE30E94EF2114
:100FE0006B017C01B501882777FD8095982F0E94C1
:100FF000D6202CEC3CEC4CE45EE30E94EF219B01FC
:10100000AC01C701B6010E946E1F0E94A32070931D
:101010001E0160931D01B801882777FD8095982FE8
:101020000E94D6202DEC3CEC4CE45FE30E94EF21C3
:101030006B017C01BE01882777FD8095982F0E9467
:10104000D6202CEC3CEC4CE45EE30E94EF219B01AB
:10105000AC01C701B6010E946E1F0E94A3207093CD
:101060001C0160931B012DEC3CEC4CE45FE36091B0
:101070003A0170913B0180913C0190913D010E94A9
:10108000EF216B017C012CEC3CEC4CE45EE36091C5
:1010900054017091550180915601909157010E9421
:1010A000EF219B01AC01C701B6010E946E1F609346
:1010B000540170935501809356019093570124C0B9
:1010C00070931E0160931D0110931C0100931B017E
:1010D00080913A0190913B01A0913C01B0913D017A
:1010E0008093540190935501A0935601B0935701FA
:1010F000DF91CF911F910F91FF90EF90DF90CF90F4
:10110000BF90AF900C943807DF91CF911F910F9152
:10111000FF90EF90DF90CF90BF90AF9008954F92E7
:101120005F926F927F928F929F92AF92BF92CF9277
:10113000DF92EF92FF920F931F93CF93DF93CDB780
:10114000DEB728970FB6F894DEBF0FBECDBF6B0198
:10115000590120911D0130911E0130930701209308
:10116000060120911B0130911C0130930501209351
:1011700004014090540150905501609056017090C8
:10118000570140923A0150923B0160923C017092AB
:101190003D01481B590BBA01882777FD8095982F90
:1011A0000E94D6209B01AC01B5016C197D098827EE
:1011B00077FD8095982F2D833E834F8358870E941B
:1011C000D6202D813E814F8158850E94E11F4B0121
:1011D0005C0129EF3FE049EC5FE30E946D1F2B01AA
:1011E0003C0129EF3FE049E450EC0E94342087FDA8
:1011F00009C040925401509255016092560170927C
:10120000570110C029EF3FE049EC50E4C301B2019F
:101210000E946E1F60935401709355018093560194
:1012200090935701B701882777FD8095982F0E94EA
:10123000D62069837A838B839C83B801882777FDC6
:101240008095982F0E94D6202B013C0129813A815C
:101250004B815C810E94E11F905829EF3FE049ECEF
:101260005FE30E946D1F6B017C0129EF3FE049E4C1
:1012700050EC0E94342087FF0AC029EF3FE049EC80
:1012800050E4C701B6010E946E1F6B017C0120E093
:1012900030E040E251E4C301B2010E943B202B0147
:1012A0003C0120E030E040E251E469817A818B81A9
:1012B0009C810E943B2069837A838B839C83A3015A
:1012C0009201C301B2010E94EF212B013C0129814F
:1012D0003A814B815C81CA01B9010E94EF219B01D7
:1012E000AC01C301B2010E946E1F0E945C2220E08B
:1012F00030E040E251E40E94EF212B013C0129EF54
:101300003FE049E450E460915401709155018091AF
:101310005601909157010E946E1FA70196010E94ED
:101320006D1F6B017C0129EF3FE049E450EC0E9406
:10133000342087FF0AC029EF3FE049EC50E4C701A1
:10134000B6010E946E1F6B017C0129EF3FE049E46A
:1013500050E4C701B6010E94E421181654F429EFA5
:101360003FE049EC50E4C701B6010E946D1F6B01DC
:101370007C01C701B6010E9438209B01AC0180911D
:10138000080190910901A0910A01B0910B01898394
:101390009A83AB83BC83C301B2010E94EF212981F0
:1013A0003A814B815C810E94EF210E94A3207195BC
:1013B0006195710970931E0160931D01C701B6010B
:1013C0000E9452229B01AC01C301B2010E94EF2195
:1013D00029813A814B815C810E94EF210E94A320E8
:1013E00071956195710970931C0160931B0129EF40
:1013F0003FE049E450E4C501B4010E946E1F6B0157
:101400007C0129EF3FE049E450E40E94E4211816F2
:101410004CF0C0925401D0925501E0925601F092E6
:10142000570110C029EF3FE049EC50E4C701B60175
:101430000E946D1F60935401709355018093560173
:101440009093570128960FB6F894DEBF0FBECDBF1C
:10145000DF91CF911F910F91FF90EF90DF90CF9090
:10146000BF90AF909F908F907F906F905F904F90C4
:101470000C94B2072F923F924F925F926F927F929D
:101480008F929F92AF92BF92CF92DF92EF92FF9294
:101490000F931F93CF93DF93CDB7DEB760970FB64F
:1014A000F894DEBF0FBECDBF1C017A876987FC01AF
:1014B000A281B38120813181AD01421B530BFB011D
:1014C0000280F381E02DFE83ED83FB01C080D1809B
:1014D0008D819E818C199D09449F4001459F900CF0
:1014E000900C1124889FA001899F500D500D11244C
:1014F000840E951EAA2497FCA094BA2CF101448175
:1015000055817A01E21AF30AFB010480F581E02D8E
:10151000FC87EB878F010C191D09EE9CB001EF9C35
:10152000700D700D1124009F7001019FF00CF00CE4
:1015300011246E0D7F1D2B01662457FC6094762CC0
:10154000F101668177817B01E21AF30AE985FA8568
:101550002681378189010C191D09EE9CC001EF9C81
:10156000900D900D1124009F7001019FF00CF00C64
:1015700011248E0D9F1D7C010027F7FC0095102F74
:10158000E982FA820B831C837A01EA1AFB0A0B8533
:101590001C858D819E81081B190BEE9C6001EF9CC0
:1015A000D00CD00C1124009F7001019FF00CF00CA6
:1015B0001124CE0CDF1CEE24D7FCE094FE2CFB01A2
:1015C000EA1BFB0BC9010D811E81801B910BEE9F55
:1015D0008001EF9F100D100D1124889FD001899F6D
:1015E000B00DB00D11240A0F1B1FC801AA2797FDCB
:1015F000A095BA2F8D839E83AF83B887641B750B2C
:10160000AB85BC852A1B3B0B669FC001679F900D75
:10161000900D1124229FA001239F500D500D1124E5
:10162000840F951F8C01222717FD2095322F0D87DF
:101630001E872F87388BF42DE52D962D872D481486
:1016400059046A047B0424F4F82DE92D9A2D8B2D7E
:101650004F2F5E2F692F782F89819A81AB81BC81B2
:10166000481759076A077B0714F4AC01BD014C15F4
:101670005D056E057F0514F4B701A6010D811E817D
:101680002F813885401751076207730714F4B90199
:10169000A8018D859E85AF85B889481759076A07C7
:1016A0007B0714F4AC01BD01942D852DF62DE72D9B
:1016B00084149504A604B70424F4982D892DFA2DDA
:1016C000EB2D092F182F2F2F3E2F89819A81AB8167
:1016D000BC8180179107A207B30714F48C019D0108
:1016E000D901C801C016D106E206F30614F4D701E9
:1016F000C6018C019D018D819E81AF81B8858017C7
:101700009107A207B30714F48C019D01D901C80108
:101710000D851E852F853889081719072A073B076D
:1017200014F4D901C801481559056A057B05A1F4CF
:1017300084159505A605B70519F421E030E091C0A0
:1017400029813A814B815C8182179307A407B507F1
:10175000A1F320E030E03EC044155505660577054D
:10176000A1F488159905AA05BB0519F422E030E01B
:1017700078C0E980FA800B811C818E159F05A00737
:10178000B107A1F320E030E05DC009811A812B810F
:101790003C81401751076207730781F48415950552
:1017A000A605B70519F423E030E05BC0881599055C
:1017B000AA05BB05C1F320E030E04EC04C155D0525
:1017C0006E057F05B1F488159905AA05BB0529F4B6
:1017D00022E030E081E090E046C02D813E814F81E3
:1017E000588582179307A407B50791F321E030E0ED
:1017F00029C00D811E812F8138854017510762074E
:10180000730781F488159905AA05BB0519F423E02F
:1018100030E0E0CF8C159D05AE05BF05C1F321E09A
:1018200030E01AC00D851E852F8538894017510775
:1018300062077307A1F484159505A605B70529F479
:1018400023E030E082E090E00EC08C159D05AE05EF
:10185000BF05B1F322E030E083E090E004C020E077
:1018600030E080E090E0BC01660F771FF101E60FE9
:10187000F71F80819181220F331FF101E20FF31FC7
:1018800040815181E985FA85E60FF71F60817181FA
:10189000E985FA85E20FF31F208131817B01E20E99
:1018A000F31EF7FE03C01FEFE11AF10AF594E79467
:1018B0008C01040F151F17FF02C00F5F1F4F1595F6
:1018C00007950E948F0860960FB6F894DEBF0FBE92
:1018D000CDBFDF91CF911F910F91FF90EF90DF90DF
:1018E000CF90BF90AF909F908F907F906F905F90C0
:1018F0004F903F902F9008952F923F924F925F927A
:101900006F927F928F929F92AF92BF92CF92DF920F
:10191000EF92FF920F931F93CF93DF93CDB7DEB774
:1019200060970FB6F894DEBF0FBECDBF8C011B01D0
:10193000DC0112966D917C911397CD90DC90DE8640
:10194000CD86FB01EC19FD09D10112962D913C9138
:101950001397CD90DC90D88ACF86A9014C195D09E8
:10196000EE9FC001EF9F900D900D1124449FF00158
:10197000459FF00DF00D11248E0F9F1F6C01EE247A
:10198000D7FCE094FE2CC982DA82EB82FC82D8017B
:101990001496ED90FC9015976701ED85FE85CE1AA3
:1019A000DF0AD10114964D915C911597DA01EF850C
:1019B000F889AE1BBF0BCC9CC001CD9C900D900D47
:1019C0001124AA9FF001AB9FF00DF00D11248E0F92
:1019D0009F1F2C01662457FC6094762CF701E61BB0
:1019E000F70B421B530BEE9FC001EF9F900D900D24
:1019F0001124449F9001459F300D300D1124820F1A
:101A0000931F6C01EE24D7FCE094FE2CCD82DE8285
:101A1000EF82F886342D252D962D872DC980DA800A
:101A2000EB80FC804C145D046E047F0424F4398147
:101A30002A819B818C81C32ED22EE92EF82E2D81F6
:101A40003E814F815885C216D306E406F50614F48C
:101A500069017A01342D252D962D872D49815A81D2
:101A60006B817C81441555056605770524F4398121
:101A70002A819B818C81832E922EA92EB82E6D8176
:101A80007E818F819885681579058A059B0514F4F8
:101A90004B015C01C701B6010E94D62069877A8795
:101AA0008B879C87C501B4010E94D6209B01AC01A5
:101AB00069857A858B859C850E943B2069877A871A
:101AC0008B879C8720E030E040E050E40E94342087
:101AD00087FF3EC189819A81AB81BC81C816D90636
:101AE000EA06FB0651F484149504A604B70489F5AC
:101AF0001A82198221E030E032C0C414D504E60411
:101B0000F70471F4C980DA80EB80FC808C149D04AA
:101B1000AE04BF0439F51A82198222E030E028C0F1
:101B20002D813E814F815885C216D306E406F50605
:101B300011F5C980DA80EB80FC808C149D04AE0422
:101B4000BF04F1F421E030E03A83298322E030E061
:101B50001DC041E050E05A83498320E030E082E03C
:101B600090E016C062E070E07A83698320E030E0A4
:101B700081E090E00DC01A82198220E030E006C0BA
:101B800082E090E09A83898321E030E080E090E079
:101B90006901CC0CDD1CF801EC0DFD1D608071802D
:101BA0007C01EE0CFF1CB301882777FD8095982FF0
:101BB0000E94D6204B015C01F801EE0DFF1D8081D3
:101BC0009181B301681B790B882777FD8095982F49
:101BD0000E94D62022EA35E446E05FE30E94EF212E
:101BE0009B01AC01C501B4010E946E1F0E94A3209D
:101BF0004B015C01F101EC0DFD1DC080D180B601EF
:101C0000882777FD8095982F0E94D6202B013C01D4
:101C1000F101EE0DFF1D80819181B601681B790BEA
:101C2000882777FD8095982F0E94D62022EA35E4F8
:101C300046E05FE30E94EF219B01AC01C301B201CA
:101C40000E946E1F0E94A3206D837E838F839887DE
:101C5000C980DA80CC0CDD1CDA86C986F601E00F7B
:101C6000F11FC080D180DA82C982B401882777FD54
:101C70008095982F0E94D6206B017C0129813A81A2
:101C8000B901882777FD8095982F0E94D6202B01D7
:101C90003C0169817A8168197909882777FD8095E7
:101CA000982F0E94D62028EA36EC4BE85EE30E948B
:101CB000EF219B01AC01C301B2010E946E1F9B0189
:101CC000AC01C701B6010E946D1F0E94A3204B0109
:101CD0005C01E985FA85E20DF31D208031804D819C
:101CE0005E81BA01882777FD8095982F0E94D620C3
:101CF0006B017C01B101882777FD8095982F0E94A8
:101D0000D6202B013C01B1018D819E81681B790B8E
:101D1000882777FD8095982F0E94D62028EA36ECF8
:101D20004BE85EE30E94EF219B01AC01C301B201CD
:101D30000E946E1F9B01AC01C701B6010E946D1F7E
:101D40000E94A3207B018401910149815A8156C1DF
:101D500020E030E040E850E469857A858B859C85F9
:101D60000E94E42118160CF44CC1A7019601C7018A
:101D7000B6010E94C322A50194010E94E7222839DE
:101D80003840410551050CF03CC129813A814B8115
:101D90005C81C216D306E406F50661F4841495044A
:101DA000A604B704A9F520E030E042E050E05A83F1
:101DB000498347C0C414D504E604F70481F4C980FC
:101DC000DA80EB80FC808C149D04AE04BF0439F5EE
:101DD00020E030E041E050E05A83498316C06D8135
:101DE0007E818F819885C616D706E806F906F1F43C
:101DF000C980DA80EB80FC808C149D04AE04BF04A3
:101E0000E1F421E030E01A82198282E090E01BC008
:101E100021E030E042E050E05A8349830BC022E0E9
:101E200030E061E070E07A83698304C020E030E054
:101E30001A82198280E090E006C022E030E01A8227
:101E4000198281E090E04901880C991CF801E80DA5
:101E5000F91D608071805C01AA0CBB1CB30188274E
:101E600077FD8095982F0E94D6206B017C01F801A8
:101E7000EA0DFB1D80819181681A790AB3018827D8
:101E800077FD8095982F0E94D62022EA35E446E01F
:101E90005FE30E94EF219B01AC01C701B6010E94E4
:101EA0006E1F0E94A3206B017C01F101E80DF91D5A
:101EB00080809180B401882777FD8095982F0E94BB
:101EC000D6202B013C01F101EA0DFB1D808191819F
:101ED000881A990AB401882777FD8095982F0E9467
:101EE000D62022EA35E446E05FE30E94EF219B0121
:101EF000AC01C301B2010E946E1F0E94A3206D833A
:101F00007E838F83988789819A81880F991F9A830E
:101F10008983FC01E00FF11F00811181B601882740
:101F200077FD8095982F0E94D6204B015C01B80167
:101F3000882777FD8095982F0E94D6202B013C01A1
:101F4000B8016C197D09882777FD8095982F0E942C
:101F5000D6202FED3FE44DEC5FE30E94EF219B0183
:101F6000AC01C301B2010E946E1F9B01AC01C5010F
:101F7000B4010E946D1F0E94A3204B015C01A98146
:101F8000BA81A20DB31D0D911C91AD81BE81BD0121
:101F9000882777FD8095982F0E94D6206B017C01C1
:101FA000B801882777FD8095982F0E94D6202B01B5
:101FB0003C01B801ED81FE816E1B7F0B882777FD08
:101FC0008095982F0E94D6202FED3FE44DEC5FE3E3
:101FD0000E94EF219B01AC01C301B2010E946E1F60
:101FE0009B01AC01C701B6010E946D1F0E94A32096
:101FF0007B0184012F8538894D855E85B401C4013C
:1020000070C029813A814B815C81C216D306E406F7
:10201000F50641F484149504A604B70429F521E0DB
:1020200030E02CC0C414D504E604F70461F4C98080
:10203000DA80EB80FC808C149D04AE04BF04B9F4FC
:1020400022E030E01BC02D813E814F815885C216B1
:10205000D306E406F50681F484149504A604B704B7
:1020600081F421E030E005C020E030E00CC020E049
:1020700030E082E090E009C020E030E080E090E0D5
:1020800004C022E030E081E090E0BC01660F771FE1
:10209000F801E60FF71F80819181220F331FF801AD
:1020A000E20FF31F40815181F101E60FF71F6081BC
:1020B0007181F101E20FF31F208131817B01E20E7A
:1020C000F31EF7FE03C0AFEFEA1AFA0AF594E7949D
:1020D0008C01040F151F17FF02C00F5F1F4F1595CE
:1020E00007950E948F0860960FB6F894DEBF0FBE6A
:1020F000CDBFDF91CF911F910F91FF90EF90DF90B7
:10210000CF90BF90AF909F908F907F906F905F9097
:102110004F903F902F900895CF93DF93CDB7DEB7C8
:1021200060970FB6F894DEBF0FBECDBFEBE7F1E0CE
:1021300080E090E0408151814F3F23E05207D1F091
:10214000228133812F3F63E03607A1F0DC01AA0F23
:10215000BB1F61E070E06C0F7D1FA60FB71F4751DA
:10216000524019965C934E931897245531402D9305
:102170003C930196369671E0E339F707D9F684303F
:10218000910541F4BE016F5F7F4FCE0109960E9419
:102190003A0A09C0039751F4BE016F5F7F4FCE0129
:1021A00009960E947C0C6E9A769A02C06E9A769876
:1021B00060960FB6F894DEBF0FBECDBFDF91CF9112
:1021C00008958BE791E00E94BD1980937A018111F7
:1021D0000E948C1080917A01089580911D01909148
:1021E0001E018D589F4F089580911B0190911C01F5
:1021F000CC96089520E030E048EC52E46091540120
:102200007091550180915601909157010E94EF21E4
:102210000E94A820CB01089580911E018095881FFF
:102220008827881F8F5F0895589A599A5A9A8CE088
:102230008093B800E9E6F0E080818062808380814D
:102240008F7E8083EA9A7894089584E88093BC0016
:102250008091BC0087FFFCCF8091BB00089584E98A
:102260008093BC00089520E030E08091BC0087FDA1
:1022700006C02F5F3F4F293E83E03807B1F781E06A
:10228000283E334009F480E008958093BB0084E841
:102290008093BC000E943311882321F08091B90003
:1022A000887F089580E008951F93CF93DF931F9256
:1022B000CDB7DEB7182F84EA8093BC0069830E94F3
:1022C00033116981811104C094E99093BC0014C05A
:1022D000812F880F662331F08F5F0E94451188346B
:1022E00051F404C00E944511803229F484E980939E
:1022F000BC0080E001C081E00F90DF91CF911F9181
:102300000895CF93DF93C82FD62F60E00E94541119
:10231000882391F08D2F0E944511882369F084E96C
:102320008093BC0061E08C2F0E945411882321F01F
:10233000DF91CF910C94251180E0DF91CF9108952A
:10234000CF93DF93D62FC42F60E00E9454118111E8
:1023500002C080E00EC08D2F0E9445118823C9F372
:102360008C2F0E9445118823A1F384E98093BC003F
:1023700081E0DF91CF910895CF93DF9300D01F923A
:10238000CDB7DEB74B836A8389830E94141194EA28
:102390009093BC0089816A814B819091BC0097FF2A
:1023A000FCCF90E59093BB0094E89093BC00909193
:1023B000BC0097FFFCCF9091B900987F903229F430
:1023C00084E98093BC0080E029C091E09093BB0039
:1023D00094E89093BC009091BC0097FFFCCF809351
:1023E000BB0084E88093BC008091BC0087FFFCCFD9
:1023F0006093BB0084E88093BC008091BC0087FFA1
:10240000FCCF4093BB0084E88093BC008091BC006B
:1024100087FFFCCF84E98093BC0081E00F900F9090
:102420000F90DF91CF91089524EA2093BC00209172
:10243000BC0027FFFCCF21E52093BB0024E82093BC
:10244000BC002091BC0027FFFCCF2091B900287F61
:102450002834A9F024EC2093BC002091BC0027FF75
:10246000FCCF2091BB0026130AC0FC0120E030E025
:10247000772767FD70956150710944EC0EC084E9BF
:102480008093BC0080E008955091BC0057FFFCCFC2
:102490005091BB0051932F5F3F4F261737071CF415
:1024A0004093BC00F1CF44E84093BC004091BC0095
:1024B00047FFFCCF4091BB00FC01E20FF31F4083BC
:1024C00084E98093BC0081E00895F89494EA9093A5
:1024D000BC009091BC0097FFFCCF90E59093BB00AF
:1024E00094E89093BC009091BC0097FFFCCF909132
:1024F000B900987F903231F484E98093BC007894DD
:1025000080E0089593E09093BB0094E89093BC0022
:102510009091BC0097FFFCCF8093BB0084E8809330
:10252000BC008091BC0087FFFCCFFB01552747FD15
:10253000509524E8CF01861B970B8417950754F418
:1025400081918093BB002093BC008091BC0087FFE9
:10255000FCCFF0CF84E98093BC00789481E00895AB
:102560008091E80080FFFCCF089581E08093D70040
:1025700080EA8093D80082E189BD09B400FEFDCFD6
:1025800080E98093D8001092E000109241011092EF
:102590003E018CE08093E20078940895809141019F
:1025A00008959FB7F89480914101882339F083E022
:1025B0008093E9008091E80085FD03C09FBF8FEF05
:1025C00008958091F1002091E80025FD03C02BE6DD
:1025D0002093E8009FBF08959FB7F8948091410130
:1025E000882331F083E08093E9008091F20001C0FC
:1025F00080E09FBF089580914101882371F08FB7DB
:10260000F89493E09093E9002BE69091E80095FF11
:1026100003C02093E800F9CF8FBF08959091410146
:10262000992371F09FB7F89424E02093E90020915A
:102630003F01222349F02091E80025FD03C09FBF00
:102640008FEF089510923F012091E400275E34E05F
:102650004091E80045FD12C09FBF9091E4009213A5
:1026600004C081E080933F01EBCF90914101992319
:1026700039F39FB7F8943093E900EACF8093F100E3
:102680008091E80085FD03C08AE38093E80085E03F
:10269000809340019FBF80E008959091410199236C
:1026A000D1F09FB7F89424E02093E9002091E8004E
:1026B00025FD02C09FBF0FC08093F1008091E8000C
:1026C00085FD03C08AE38093E80085E080934001A4
:1026D0009FBF80E008958FEF0895EF92FF921F93C0
:1026E000CF93DF937C01CB0120914101222371F034
:1026F000AFB7F89424E02093E90020913F01222312
:1027000049F02091E80025FD03C0AFBF8FEF42C222
:1027100010923F01B4E0C0E4DAE315E0009709F459
:1027200037C22091E400275E3091E80035FD12C0E9
:10273000AFBF3091E400321304C081E080933F01C9
:10274000E5CF30914101332309F3AFB7F894B0934B
:10275000E900EACF2091F2004C2F421B242F30E0F9
:102760008217930708F4482F841B910950E04134E5
:10277000510508F0FDC14A5A5F4FFA010C94062337
:10278000F70120812093F10097012F5F3F4F7901DE
:10279000F70120812093F10097012F5F3F4F7901CE
:1027A000F70120812093F10097012F5F3F4F7901BE
:1027B000F70120812093F10097012F5F3F4F7901AE
:1027C000F70120812093F10097012F5F3F4F79019E
:1027D000F70120812093F10097012F5F3F4F79018E
:1027E000F70120812093F10097012F5F3F4F79017E
:1027F000F70120812093F10097012F5F3F4F79016E
:10280000F70120812093F10097012F5F3F4F79015D
:10281000F70120812093F10097012F5F3F4F79014D
:10282000F70120812093F10097012F5F3F4F79013D
:10283000F70120812093F10097012F5F3F4F79012D
:10284000F70120812093F10097012F5F3F4F79011D
:10285000F70120812093F10097012F5F3F4F79010D
:10286000F70120812093F10097012F5F3F4F7901FD
:10287000F70120812093F10097012F5F3F4F7901ED
:10288000F70120812093F10097012F5F3F4F7901DD
:10289000F70120812093F10097012F5F3F4F7901CD
:1028A000F70120812093F10097012F5F3F4F7901BD
:1028B000F70120812093F10097012F5F3F4F7901AD
:1028C000F70120812093F10097012F5F3F4F79019D
:1028D000F70120812093F10097012F5F3F4F79018D
:1028E000F70120812093F10097012F5F3F4F79017D
:1028F000F70120812093F10097012F5F3F4F79016D
:10290000F70120812093F10097012F5F3F4F79015C
:10291000F70120812093F10097012F5F3F4F79014C
:10292000F70120812093F10097012F5F3F4F79013C
:10293000F70120812093F10097012F5F3F4F79012C
:10294000F70120812093F10097012F5F3F4F79011C
:10295000F70120812093F10097012F5F3F4F79010C
:10296000F70120812093F10097012F5F3F4F7901FC
:10297000F70120812093F10097012F5F3F4F7901EC
:10298000F70120812093F10097012F5F3F4F7901DC
:10299000F70120812093F10097012F5F3F4F7901CC
:1029A000F70120812093F10097012F5F3F4F7901BC
:1029B000F70120812093F10097012F5F3F4F7901AC
:1029C000F70120812093F10097012F5F3F4F79019C
:1029D000F70120812093F10097012F5F3F4F79018C
:1029E000F70120812093F10097012F5F3F4F79017C
:1029F000F70120812093F10097012F5F3F4F79016C
:102A0000F70120812093F10097012F5F3F4F79015B
:102A1000F70120812093F10097012F5F3F4F79014B
:102A2000F70120812093F10097012F5F3F4F79013B
:102A3000F70120812093F10097012F5F3F4F79012B
:102A4000F70120812093F10097012F5F3F4F79011B
:102A5000F70120812093F10097012F5F3F4F79010B
:102A6000F70120812093F10097012F5F3F4F7901FB
:102A7000F70120812093F10097012F5F3F4F7901EB
:102A8000F70120812093F10097012F5F3F4F7901DB
:102A9000F70120812093F10097012F5F3F4F7901CB
:102AA000F70120812093F10097012F5F3F4F7901BB
:102AB000F70120812093F10097012F5F3F4F7901AB
:102AC000F70120812093F10097012F5F3F4F79019B
:102AD000F70120812093F10097012F5F3F4F79018B
:102AE000F70120812093F10097012F5F3F4F79017B
:102AF000F70120812093F10097012F5F3F4F79016B
:102B0000F70120812093F10097012F5F3F4F79015A
:102B1000F70120812093F10097012F5F3F4F79014A
:102B2000F70120812093F10097012F5F3F4F79013A
:102B3000F70120812093F10097012F5F3F4F79012A
:102B4000F70120812093F10097012F5F3F4F79011A
:102B5000F70120812093F10097012F5F3F4F79010A
:102B6000F70120812093F10097012F5F3F4F7901FA
:102B7000F70120812093F10097012F5F3F4F7901EA
:102B80002091E80025FFD093E80010934001C6CDC6
:102B9000AFBF80E0DF91CF911F91FF90EF9008953C
:102BA0008FB7F89490914001992341F094E090936D
:102BB000E9009AE39093E800109240018FBF0895D6
:102BC0008091100108958091110108958091120162
:102BD000089580913E0108959FB7F8942091410196
:102BE000222339F022E02093E9003091E80035FDFE
:102BF00003C09FBF8FEF089531EA3093F10030E2B8
:102C00003093F1001092F1001092F1001092F10057
:102C10001092F1002093F1001092F1008093F100E6
:102C20001092F1008AE38093E8009FBF80E008954E
:102C30001F920F920FB60F9211248F939F93809142
:102C4000E1001092E10083FF11C01092E90091E0D1
:102C50009093EB001092EC0092E19093ED0098E0DD
:102C60009093F0001092410110923E0182FF13C038
:102C700080914101882379F080914001882359F0A7
:102C8000815080934001811106C084E08093E90067
:102C90008AE38093E8009F918F910F900FBE0F9071
:102CA0001F9018951F920F920FB60F921124EF925A
:102CB000FF920F931F932F933F934F935F936F93C5
:102CC0007F938F939F93AF93BF93EF93FF93CF9394
:102CD000DF931F92CDB7DEB71092E9008091E80034
:102CE00083FF14C19091F1008091F1003091F100C7
:102CF0002091F100E32EF12CF22A0091F1002091B5
:102D0000F10010E0122B2091F1006091F10032EF00
:102D10003093E800863009F046C036E088E991E05B
:102D2000FC01459154914E155F0539F4FC01329632
:102D3000459154914017510721F00796315081F782
:102D4000E5C0FC01349645915491FC01369684917E
:102D500030E0362B2F3F310519F010F02FEF30E027
:102D6000281708F4822F3EEF9091E800292F257054
:102D7000D9F392FDCEC0982F813108F090E1FA018D
:102D8000292F222331F064916093F1002150319674
:102D9000F8CF490F511D891B3093E8008111E4CF12
:102DA000903111F3B6C0853051F48EEF8093E80076
:102DB0000E94B0128E2D80688093E300AAC08930F3
:102DC00059F5911180C0E092410110923E0110929C
:102DD00040018EEF8093E80041E081E492E040936F
:102DE000E9009C012F5F3F4FFC0154915093EB0091
:102DF000552359F0F90124912093EC009C012D5F9B
:102E00003F4F319684918093ED004F5F453011F034
:102E1000C901E5CF8EE175C0883051F4903809F0D2
:102E200052C00E94B012809141018093F10047C0CE
:102E3000813279F4913A09F046C00E94B012ECE078
:102E4000F1E081918093F10081E0E331F807C9F767
:102E500036C0803299F49132B1F58091E80082FF5A
:102E6000FCCFECE0F1E08091F100819381E0E3316F
:102E7000F807C9F78BEF8093E80021C0823241F454
:102E8000913209F043C0E0923E010E94B01217C097
:102E9000811119C099830E94B0129981923851F41E
:102EA0000093E9008091EB0085FB882780F9109260
:102EB000E90001C080E08093F1001092F1008EEFF4
:102EC0008093E80026C0282F2D7F2130F9F492301E
:102ED000E9F4EF28D9F40F779FEF900F9430B0F416
:102EE0009EEF9093E8000093E900833079F089E148
:102EF0008093EB0081E090E0002E01C0880F0A94DF
:102F0000EAF78093EA001092EA0003C081E280931E
:102F1000EB000F90DF91CF91FF91EF91BF91AF91B7
:102F20009F918F917F916F915F914F913F912F91E1
:102F30001F910F91FF90EF900F900FBE0F901F9079
:102F400018951F93CF93DF93EC01FE011491112389
:102F500051F01A3019F48DE00E940E13812F0E9457
:102F60000E132196F2CFDF91CF911F9108958A30F1
:102F700010F490E301C097E3890F0C940E13CF93E4
:102F8000C82F82958F700E94B7178C2F8F70CF91AA
:102F90000C94B717CF93C82F892F0E94BF178C2F7F
:102FA000CF910C94BF170C94BF17EF92FF920F9321
:102FB0001F93CF93DF93CDB7DEB727970FB6F89463
:102FC000DEBF0FBECDBF8E010F5F1F4F27E0F801A0
:102FD00011922A95E9F74AE0B8010E945C237E012C
:102FE000F8E0EF0EF11CF80181918F0181110E9430
:102FF0000E130E151F05B9F727960FB6F894DEBF0E
:103000000FBECDBFDF91CF911F910F91FF90EF9039
:103010000895EF92FF920F931F93CF93DF9300D009
:1030200000D000D0CDB7DEB78E010F5F1F4F26E076
:10303000F80111922A95E9F74AE0B8010E94982315
:103040007E01F6E0EF0EF11CF80181918F018111F4
:103050000E940E130E151F05B9F726960FB6F894A9
:10306000DEBF0FBECDBFDF91CF911F910F91FF90BB
:10307000EF900895EF92FF920F931F93CF93DF93FA
:10308000CDB7DEB72B970FB6F894DEBF0FBECDBF1E
:103090008E010F5F1F4F2BE0F80111922A95E9F77F
:1030A0002AE0A8010E9467237E01FCE0EF0EF11CDC
:1030B000F80181918F0181110E940E130E151F05D9
:1030C000B9F72B960FB6F894DEBF0FBECDBFDF91D8
:1030D000CF911F910F91FF90EF900895EF92FF9283
:1030E0000F931F93CF93DF93CDB7DEB72B970FB618
:1030F000F894DEBF0FBECDBF8E010F5F1F4F2BE0D8
:10310000F80111922A95E9F72AE0A8010E94762396
:103110007E01FBE0EF0EF11CF80181918F0181111E
:103120000E940E130E151F05B9F72B960FB6F894D3
:10313000DEBF0FBECDBFDF91CF911F910F91FF90EA
:10314000EF90089520E030E08091BC0087FD06C03C
:103150002F5F3F4F293E83E03807B1F781E0283EDB
:10316000334009F480E008958093BB0084E88093A5
:10317000BC000E94A218882319F08091B900887FB2
:103180000895CF93C82F84EA8093BC000E94A218B0
:10319000882361F08C2F880F0E94B418803229F4A4
:1031A00084E98093BC0080E001C081E0CF91089564
:1031B0000E94141188E50E94C118811102C080E0AC
:1031C000089580E30E94B4188823C9F381E00E9427
:1031D000B4188823A1F384E98093BC008FE39CE9B1
:1031E0000197F1F700C0000088E50E94C11888230C
:1031F00031F380E00E94B418882309F380E00E9434
:10320000B4188823E1F280E00E94B4188823B9F250
:1032100080E00E94B418882391F280E00E94B418E4
:10322000882369F280E00E94B418882341F280E08C
:103230000E94B418882319F280E90E94B4188823E8
:1032400009F4BDCF84E98093BC008FE39CE901972A
:10325000F1F700C0000088E50E94C118882309F436
:10326000AECF87E00E94B418882309F4A8CF80E08D
:103270000E94B418882309F4A2CF81E40E94B418F4
:10328000882309F49CCF84E98093BC008FE39CE9F8
:103290000197F1F700C0000088E50E94C11888235B
:1032A00009F48DCF8AE10E94B418882309F487CFEE
:1032B00080E40E94B418882309F481CF80E00E9442
:1032C000B418882309F47BCF84E98093BC008FE392
:1032D0009CE90197F1F700C0000088E50E94C11841
:1032E000882309F46CCF83E30E94B418882309F47F
:1032F00066CF83E00E94B418882309F460CF84E984
:103300008093BC008FE39CE90197F1F700C00000B7
:1033100088E50E94C118882309F451CF80E30E94F8
:10332000B418882309F44BCF88E00E94B41888238E
:1033300009F445CF84E98093BC008FE39CE90197B1
:10334000F1F700C0000081E00895CF93C82F84EA10
:103350008093BC000E94A218882369F08C2F880FEC
:103360008F5F0E94B418883429F484E98093BC00EC
:1033700080E001C081E0CF910895EF92FF920F931A
:103380001F93CF93DF93CDB7DEB760970FB6F89456
:10339000DEBF0FBECDBF7C018E010F5F1F4F80E1EE
:1033A000F80111928A95E9F788E50E94C118811108
:1033B00002C080E05EC086E30E94B4188823C9F38F
:1033C00084E98093BC00F5E8FA95F1F7000088E500
:1033D0000E94A519882369F3F8019E01205F3F4FE1
:1033E00094EC9093BC008091BC0087FFFCCF80914F
:1033F000BB008193E217F307A1F784E88093BC0038
:103400008091BC0087FFFCCF8091BB00888B84E952
:103410008093BC00DE01149687016C91762F707347
:10342000AD0142505109FA01808190E0F0E17F9FA7
:10343000800D911D1124F80191838083762F707C7B
:103440004F5F5F4FFA01808190E0F4E07F9F800D35
:10345000911D1124F801938382836F70862F90E071
:103460009583848313960A5F1F4FA217B307A9F6AB
:1034700081E060960FB6F894DEBF0FBECDBFDF913E
:10348000CF911F910F91FF90EF90089584E9809361
:10349000BC0008958091930190E0FC01E05AF1098D
:1034A000E730F10508F08CC0E956FF4F0C94062375
:1034B0000E94E1100E940C11992787FD909590932E
:1034C0002101809320010E940807809120019091A2
:1034D00021018130910561F4299A2FEF80E792E074
:1034E000215080409040E1F700C000002A980895E4
:1034F000029709F065C02A9A2FEF80E792E02150E9
:1035000080409040E1F700C00000299808950E9493
:10351000E1100E940C11992787FD9095909321014D
:1035200080932001019719F4299A2A9802C02A9AB7
:1035300029980E94080782E090E0909343018093CD
:1035400042010C9469014091200150912101809128
:1035500094012091950141305105E9F40BC040914F
:1035600020015091210120919401809195014230D8
:10357000510589F4992787FD909590934B0180938D
:103580004A01332727FD30953093490120934801A4
:103590000E94E90411C0332727FD309530934B0179
:1035A00020934A01992787FD909590934901809334
:1035B000480102C046984798109243011092420178
:1035C00008951F920F920FB60F9211242B982D98E9
:1035D0002E980F900FBE0F901F9018951F920F926C
:1035E0000FB60F9211242B9A2D9A2E9A0F900FBE80
:1035F0000F901F9018951F920F920FB60F921124E3
:103600002F933F934F935F936F937F938F939F93EA
:10361000AF93BF93EF93FF936AE083E991E00E9439
:1036200014120E944A1AFF91EF91BF91AF919F919E
:103630008F917F916F915F914F913F912F910F905B
:103640000FBE0F901F9018958DE892E00E94A11771
:1036500080915C0190915D010E94D51788E892E00D
:103660000E94A11780915E0190915F010E94D51781
:1036700083E892E00E94A11780916001909161011E
:103680000E94D5178EE792E00E94A11780916201F7
:10369000909163010E94D51788E792E00E94A117DC
:1036A00080916401909165010E94D51782E792E0B4
:1036B0000E94A11780916601909167010E94D51721
:1036C0008CE692E00E94A1178091680190916901B7
:1036D0000E94D51787E692E00E94A11780916A01A7
:1036E00090916B010E94D5178EE592E00E94A11780
:1036F00020E030E044E353E460914C0170914D01CF
:1037000080914E0190914F010E94EF2129EF3FE0FF
:1037100049E450E40E943B200E94A320CB010E9478
:10372000D51786E592E00E94A11720E030E048EC32
:1037300052E4609150017091510180915201909139
:1037400053010E94EF210E94A320CB010E94D517B4
:103750008BE492E00E94A117809158019091590149
:103760000C94D5178F929F92AF92BF92CF92DF9217
:10377000EF92FF920F931F93CF93DF936B017C0126
:10378000EA018901BA01882777FD8095982F0E9468
:10379000D6204B015C01BE01600F711F882777FDA9
:1037A0008095982F0E94D6209B01AC01C501B401E1
:1037B0000E943B209B01AC01C701B6010E94EF2192
:1037C000DF91CF911F910F91FF90EF90DF90CF90FD
:1037D000BF90AF909F908F900895209158013091A5
:1037E0005901ECE5F1E080819181821B930B97FFF9
:1037F00003C01182108202C091838083329681E0DF
:10380000EA36F80781F708954F925F926F927F92A0
:103810008F929F92AF92BF92CF92DF92EF92FF92E0
:103820000F931F93CF93DF930E94ED1B80915C0158
:1038300090915D01C0916401D09165018C0F9D1F35
:103840000091660110916701800F911FE09068015F
:10385000F09069018E0D9F1D97FD0396BC01759533
:10386000679575956795882777FD8095982F0E94B5
:10387000D6202B013C0180905E0190905F01B40145
:10388000882777FD8095982F0E94D6209B01AC0158
:10389000C301B2010E946E1F2B013C01C090600168
:1038A000D0906101B601882777FD8095982F0E94FE
:1038B000D6209B01AC01C301B2010E946E1F2B01F7
:1038C0003C01A0906201B0906301B501882777FDAB
:1038D0008095982F0E94D6209B01AC01C301B201B4
:1038E0000E946E1F2B013C016091260170912701FF
:1038F000660F771F660F771F882777FD8095982FB3
:103900000E94D6209B01AC01C301B2010E943B2062
:103910006093500170935101809352019093530131
:103920002DEC3CEC4CEC5DE30E94342087FF04C09E
:10393000289881E090E022C082E090E090934301DB
:1039400080934201289A8091240190912501209131
:103950006A0130916B0182179307ACF480179107CD
:1039600094F48E159F057CF410924C0110924D0139
:1039700010924E0110924F0183E090E0909343012A
:10398000809342016EC160905C0170905D018C1764
:103990009D0754F4861597053CF48017910724F48D
:1039A0008E159F050CF44FC1861597055CF48017A2
:1039B0009107BCF48E159F052CF48DEC9CECACECBF
:1039C000BDE338C18C179D077CF48017910764F420
:1039D0008E159F050CF040C18FE892ECA5ECB0E489
:1039E00029C18C179D0734F32DEC3CEC4CEC5DE3C6
:1039F0006091500170915101809152019091530159
:103A00000E94E42118160CF02CC1AEE5B1E021E0D3
:103A100030E080E090E041E050E06D917D91FC016C
:103A2000EE0FFF1FE45AFE4F0190F081E02DE617E4
:103A3000F7076CF0F901EE0FFF1FE45AFE4F0190FB
:103A4000F081E02DE617F70724F49A0102C09C01EB
:103A5000CA014F5F5F4F47305105F9F6BC01621B49
:103A6000730B6130710569F0A901481B590B413096
:103A7000510539F06630710521F04630510509F0E5
:103A8000B8C0AC01281739070CF4A901411551053C
:103A900061F5069709F4D7C02630310509F4D3C083
:103AA000B301882777FD8095982F0E94D6206B015F
:103AB0007C01B301680D791D882777FD8095982FCB
:103AC0000E94D6209B01AC01C701B6010E943B2099
:103AD00021E230EB42E35FE30E94EF219B01AC0166
:103AE00068EB7EE18DEA90E479C04230510569F1DE
:103AF0004330510509F44EC04130510509F0A3C0CF
:103B0000B401882777FD8095982F0E94D6202B013D
:103B10003C01B4016C0D7D1D882777FD8095982FA1
:103B20000E94D6209B01AC01C301B2010E943B2040
:103B300027E836E149EC5FE30E94EF219B01AC01ED
:103B400064EB78EC86E990E449C0B601882777FDFC
:103B50008095982F0E94D6202B013C01B6016A0D5A
:103B60007B1D882777FD8095982F0E94D6209B018A
:103B7000AC01C301B2010E943B2027E836E149ECC9
:103B80005FE30E94EF219B01AC0167E876E189E4E5
:103B900090E424C0B501882777FD8095982F0E9476
:103BA000D6202B013C01B5016C0F7D1F882777FDC6
:103BB0008095982F0E94D6209B01AC01C301B201D1
:103BC0000E943B2021E230EB42E35FE30E94EF21C1
:103BD0009B01AC0167E876E189EC9FE30E946D1FD1
:103BE00060934C0170934D0180934E0190934F016F
:103BF00038C082309105A9F02CF4009769F0019744
:103C000081F021C08330910589F00497E1F489EFB8
:103C100096E6AFE5BFE30EC08BEF92E2ADEAB0E40B
:103C200009C089EF9FE0A9E4B0E404C089EF9FE0F8
:103C3000A9ECBFE380934C0190934D01A0934E01FA
:103C4000B0934F010EC010924C0110924D01109292
:103C50004E0110924F0105C0861597050CF4BCCE9D
:103C6000C3CEDF91CF911F910F91FF90EF90DF9026
:103C7000CF90BF90AF909F908F907F906F905F900C
:103C80004F90089580916C0190916D01892BD1F036
:103C900080917A008F7780937A000E94041C0E94A2
:103CA000241B10926D0110926C0180917A00806843
:103CB00080937A0080917A00806480937A0081E01A
:103CC00090E0089580E090E008950E94421E892BC4
:103CD000E1F3809162019091630120916001309144
:103CE0006101821793070CF49C0180915E01909111
:103CF0005F01821793070CF49C01309359012093C4
:103D000058018FEF93E0821B930B909327018093D0
:103D10002601909325018093240108951F920F920C
:103D20000FB60F9211242F933F938F939F93EF938E
:103D3000FF9380917A008F7780937A0080915A0167
:103D400090915B012091780030917900FC01EE0F99
:103D5000FF1FE45AFE4F318320838730910559F4C9
:103D600010925B0110925A0181E090E090936D01F6
:103D700080936C0105C0019690935B0180935A017A
:103D8000E0915A01F0915B01E830F10508F053C071
:103D9000E256FF4F80917B000C9406238F7D29C053
:103DA0008F7D38C08F7D80937B0080917C00846004
:103DB00025C08F7D80937B0080917C0084602FC024
:103DC0008F7D80937B0080917C00846080937C0059
:103DD00080917C00826017C08F7D80937B008091F2
:103DE0007C00846080937C0080917C0082601CC099
:103DF000806280937B0080917C008B7F80937C002D
:103E000080917C008D7F80937C0080917C008E7FF0
:103E100010C0806280937B0080917C008B7F8093B8
:103E20007C0080917C008D7F80937C0080917C0061
:103E3000816080937C0080917A00806880937A0012
:103E400080917A00806480937A00FF91EF919F9136
:103E50008F913F912F910F900FBE0F901F9018954B
:103E60000E94F6060E94C10180E8809361001092D2
:103E700061000E94651E0E9476018091420190912E
:103E8000430182309105B1F030F4009781F0813028
:103E90009105E1F0F6CF84309105C1F090F08530C6
:103EA000910579F70E94E1100E94421EE6CF0E9420
:103EB000DB01E3CF0E94E1100E94421E0E94F60443
:103EC000DCCF0E94E1100E945506D7CF0E94E1107E
:103ED0000E94421E0E94D605D0CF5058BB27AA2769
:103EE0000ED027C2F0D130F0F5D120F031F49F3F51
:103EF00011F41EF4C0C10EF4E095E7FBB6C1E92F42
:103F00003AD280F3BA17620773078407950718F04F
:103F100071F49EF552C20EF4E0950B2EBA2FA02D2F
:103F20000B01B90190010C01CA01A0011124FF2766
:103F3000591B99F0593F50F4503E68F11A16F04061
:103F4000A22F232F342F4427585FF3CF4695379560
:103F50002795A795F0405395C9F77EF41F16BA0B25
:103F6000620B730B840BBAF09150A1F0FF0FBB1FD3
:103F7000661F771F881FC2F70EC0BA0F621F731F1C
:103F8000841F48F4879577956795B795F7959E3F79
:103F900008F0B3CF9395880F08F09927EE0F979507
:103FA0008795089590D158F080E891E009F49EEF4C
:103FB00091D128F040E851E059F45EEF09C05BC1AF
:103FC000FCC1E92FE078D7D168F3092E052AC1F3A7
:103FD000261737074807590738F00E2E07F8E0254F
:103FE00069F0E025E0640AC0EF6307F8009407FA7F
:103FF000DB01B9019D01DC01CA01AD01EF934AD09B
:1040000098D10AD05F91552331F02BED3FE049E480
:1040100050FD49EC63CF0895DF93DD27B92FBF77BB
:1040200040E85FE31616170648075B0710F4D92F20
:10403000CFD19F938F937F936F937CD2ECE4F1E089
:104040001DD177D12F913F914F915F91D4D1DD2335
:1040500049F09058A2EA2AED3FE049EC5FE3D078BE
:104060005D274DDFDF9165C1DCD008F481E0089564
:1040700039D1E3956FC10CD05CC12CD140F023D174
:1040800030F021F45F3F19F0F0C0511197C1F3C037
:1040900072D198F39923C9F35523B1F3951B550BAE
:1040A000BB27AA2762177307840738F09F5F5F4F0B
:1040B000220F331F441FAA1FA9F333D00E2E3AF04C
:1040C000E0E830D091505040E695001CCAF729D066
:1040D000FE2F27D0660F771F881FBB1F26173707B5
:1040E0004807AB07B0E809F0BB0B802DBF01FF27E5
:1040F00093585F4F2AF09E3F510568F0B6C05EC1ED
:104100005F3FECF3983EDCF3869577956795B7951E
:10411000F7959F5FC9F7880F911D9695879597F939
:104120000895E1E0660F771F881FBB1F62177307B2
:104130008407BA0720F0621B730B840BBA0BEE1FC7
:1041400088F7E095089504D06894B11137C10895B7
:104150001AD188F09F5790F0B92F9927B751A0F046
:10416000D1F0660F771F881F991F1AF0BA95C9F70B
:1041700012C0B13081F021D1B1E008951EC1672F86
:10418000782F8827B85F39F0B93FCCF386957795BB
:104190006795B395D9F73EF49095809570956195A4
:1041A0007F4F8F4F9F4F0895E89409C097FB3EF4CF
:1041B00090958095709561957F4F8F4F9F4F992374
:1041C000A9F0F92F96E9BB279395F69587957795F2
:1041D0006795B795F111F8CFFAF4BB0F11F460FFB2
:1041E0001BC06F5F7F4F8F4F9F4F16C0882311F00A
:1041F00096E911C0772321F09EE8872F762F05C01E
:10420000662371F096E8862F70E060E02AF09A95B8
:10421000660F771F881FDAF7880F9695879597F9AD
:104220000895990F0008550FAA0BE0E8FEEF161647
:104230001706E807F907C0F012161306E407F5079A
:1042400098F0621B730B840B950B39F40A2661F00E
:10425000232B242B252B21F408950A2609F4A140B1
:10426000A6958FEF811D811D089597F99F6780E8BE
:1042700070E060E008959FEF80EC0895DF93CF93A6
:104280001F930F93FF92EF92DF927B018C01689452
:1042900005C0DA2EEF01AFD0FE01E894A59125917B
:1042A000359145915591AEF3EF0129DEFE0197015D
:1042B000A801DA9479F7DF90EF90FF900F911F91AA
:1042C000CF91DF91089500240A9416161706180658
:1042D0000906089500240A9412161306140605060A
:1042E0000895C9CF50D0E8F3E894E0E0BB279F578A
:1042F000F0F02AED3FE049EC06C0EE0FBB0F661F61
:10430000771F881F28F0B23A62077307840728F0E6
:10431000B25A620B730B840BE3959A9572F780384F
:1043200030F49A95BB0F661F771F881FD2F790480D
:1043300006C1092E0394000C11F4882352F0BB0F20
:1043400040F4BF2B11F460FF04C06F5F7F4F8F4FAD
:104350009F4F0895EF93E0FF06C0A2EA2AED3FE0E9
:1043600049EC5FEBCCDDE5DF0F90039401FC905846
:10437000E9E7F1E0F7C057FD9058440F551F59F099
:104380005F3F71F04795880F97FB991F61F09F3F42
:1043900079F087950895121613061406551FF2CF6B
:1043A0004695F1DF08C0161617061806991FF1CFBB
:1043B00086957105610508940895E894BB276627E2
:1043C0007727CB0197F908952CDF08F48FEF089534
:1043D0009B01AC0160E070E080E89FE34CCE0BD025
:1043E000A8CF71DF28F076DF18F0952309F03DCFD4
:1043F00042CF1124E3CFBFDFA0F3959FD1F3950FF8
:1044000050E0551F629FF001729FBB27F00DB11D58
:10441000639FAA27F00DB11DAA1F649F6627B00DE8
:10442000A11D661F829F2227B00DA11D621F739FD1
:10443000B00DA11D621F839FA00D611D221F749FDF
:104440003327A00D611D231F849F600D211D822F26
:10445000762F6A2F11249F5750408AF0E1F088236D
:104460004AF0EE0FFF1FBB1F661F771F881F91507A
:104470005040A9F79E3F510570F0F7CE9FCF5F3FA8
:10448000ECF3983EDCF3869577956795B795F795AD
:10449000E7959F5FC1F7FE2B880F911D9695879535
:1044A00097F908959F931EDF0F9007FCEE5F52CFA0
:1044B00011F40EF4E0CE41C066DFD0F39923D9F3B6
:1044C000CEF39F57550B87FF46D00024A0E640EA65
:1044D000900180585695979528F4805C660F771F59
:1044E000881F20F026173707480730F4621B730B2C
:1044F000840B202931294A2BA6951794079420254F
:1045000031254A2758F7660F771F881F20F0261796
:104510003707480730F4620B730B840B200D311DF5
:10452000411DA09581F7B901842F9158880F969568
:10453000879508959B01AC0152CF9F3F31F0915078
:1045400020F4879577956795B795880F911D969577
:10455000879597F9089591505040660F771F881FEF
:10456000D2F708959F938F937F936F93FF93EF9369
:104570009B01AC0134DFEF91FF9180DE2F913F91E1
:104580004F915F912CCFDB018F939F930E940C235F
:10459000BF91AF91A29F800D911DA39F900DB29FDF
:1045A000900D1124089597FB072E16F4009407D060
:1045B00077FD09D00E94172307FC05D03EF49095A3
:1045C00081959F4F0895709561957F4F0895052EB1
:1045D00097FB1EF400940E94FE2257FD07D00E9414
:1045E0002B2307FC03D04EF40C94FE2250954095EB
:1045F000309521953F4F4F4F5F4F0895909580958F
:10460000709561957F4F8F4F9F4F0895EE0FFF1F5D
:104610000590F491E02D09940E944D23A59F900DE3
:10462000B49F900DA49F800D911D11240895AA1B85
:10463000BB1B51E107C0AA1FBB1FA617B70710F08D
:10464000A61BB70B881F991F5A95A9F780959095BF
:10465000BC01CD010895A1E21A2EAA1BBB1BFD01CE
:104660000DC0AA1FBB1FEE1FFF1FA217B307E40751
:10467000F50720F0A21BB30BE40BF50B661F771FA9
:10468000881F991F1A9469F7609570958095909589
:104690009B01AC01BD01CF010895A29FB001B39F62
:1046A000C001A39F700D811D1124911DB29F700D3B
:1046B000811D1124911D0895BB274A3031F499239F
:1046C00022F4BDE2909581959F4F0C949923BB27CE
:1046D0002A3051F4992342F4BDE29095809570956B
:1046E00061957F4F8F4F9F4F0C947723BB27FA0123
:1046F000A62F6217710581059105330B30FB66F01B
:10470000AA27660F771F881F991FAA1FA21710F0EC
:10471000A21B63953850A9F7A05DAA3308F0A95DE4
:10472000A19336F7B111B1931082CA010C94B22350
:10473000BB27FB015527AA27880F991FAA1FA4177B
:1047400010F0A41B83955051B9F7A05DAA3308F06F
:10475000A95DA193009779F7B111B1931192CB01A3
:104760000C94B223DC01FC01672F71917723E1F7F0
:10477000329704C07C916D9370836291AE17BF072E
:08478000C8F30895F894FFCF7F
:10478800CDCC4C3EF401F4010AD7A33E00E1000071
:104798000000085700A9FF73008DFFF401F4011809
:0847A80001000100FF03FF0303
:00000001FF
