:100000000C9424010C9441010C9441010C9417169A
:100010000C9441010C9441010C9441010C94410158
:100020000C9441010C9441010C945C110C949611B8
:100030000C9441010C9441010C9441010C94410138
:100040000C9441010C9441010C9441010C94410128
:100050000C9441010C9441010C9441010C94410118
:100060000C9441010C9441010C9441010C94410108
:100070000C9441010C9433170C9441010C944101F0
:100080000C9441010C9441010C9441010C944101E8
:100090000C9441010C9441010C94FD150C940A162A
:1000A0000C9441010C9441010C9441010411FC1089
:1000B000F410EC10E410DC10D410CC10C410BC1000
:1000C000B410AC10A4109C1094108C1084107C10F0
:1000D00074106C1064105C1054104C1044103C10E0
:1000E00034102C1024101C1014100C100410FC0FD1
:1000F000F40FEC0FE40FDC0FD40FCC0FC40FBC0FC8
:10010000B40FAC0FA40F9C0F940F8C0F840F7C0FB7
:10011000740F6C0F640F5C0F540F4C0F440F3C0FA7
:10012000340F2C0F240F1C0F140F0C0F040F084A50
:10013000D73B3BCE016E84BCBFFDC12F3D6C7431FB
:100140009ABD56833DDA3D00C77F11BED9E4BB4C52
:100150003E916BAAAABE000000803F05A84CCDB21C
:10016000D44EB93836A9020C50B9918688083CA6FD
:10017000AAAA2ABE000000803F00686572650000E0
:1001800001000016021200020000D3014300030028
:1001900000CF010401030904BB011202030904B3E7
:1001A000010603030904A9010808033400310030E3
:1001B00000000006034D003200000012034A002E2A
:1001C0000020004600690065006E00650000000424
:1001D00003090409024300020100C03209040000BF
:1001E000010202010005240010010524010101049F
:1001F00024020605240600010705820310004009B9
:10020000040100020A000000070503024000000785
:100210000584024000001201000202000010C01616
:100220007A040001010203010001C11201803601BC
:10023000813609523A20000946523A200009464CBC
:100240003A20000A4C3A200011241FBECFEFDAE01A
:10025000DEBFCDBF11E0A0E0B1E0EEE9F8E302C0FF
:1002600005900D92AC31B107D9F721E0ACE1B1E0D6
:1002700001C01D92AC36B207E1F70E94C4170C947E
:100280004D1C0C940000539A81E080934601089520
:100290002B9B0E944301479A46982D9A2E9881E005
:1002A00090E0909345018093440108952B9B0E9418
:1002B00043014798469A2D982E9A10924501109224
:1002C0004401089553980895CF92DF92EF92FF92E0
:1002D000CF93DF9300D000D0CDB7DEB7809144013B
:1002E00090914501892B59F08091CF0024E6829F9F
:1002F000C00111246FEF70E00E945E1B0CC0809162
:10030000CF00E4E68E9FC001112461E07FEF0E94E0
:100310005E1B6C597F4F882777FD8095982F0E9430
:1003200061192DEC3CEC4CE45EE30E947A1A6B01FF
:100330007C016091470170914801882777FD809585
:10034000982F0E9461192DEC3CEC4CE45FE30E9475
:100350007A1A9B01AC01C701B6010E94F9170E94ED
:100360002E1916161706A4F469837A838B839C834F
:100370000E9448014FEF69817A81469F9001479F13
:10038000300D1124C90164E670E00E945E1B17C0A5
:1003900061157105B9F069837A838B839C830E9410
:1003A00056014FEF69817A81469F9001479F300D3A
:1003B0001124C90164E670E00E945E1B61506093E5
:1003C000CF0004C00E9448011092CF008091CF005E
:1003D00080958093D0000F900F900F900F90DF9139
:1003E000CF91FF90EF90DF90CF9008958091110111
:1003F000909112014A96C59770F484E690E090932C
:100400004801809347018CE99FEF909343018093CB
:1004100042010C9464010C9462018091110190914D
:1004200012014A96C59770F48CE99FEF90934801AA
:100430008093470184E690E09093430180934201CA
:100440000C9464010C94620180911101909112014D
:10045000009711F40C946201209113013091140162
:1004600037FF04C01816190624F005C0232B19F015
:1004700097FD0C94F6010C940D028091130190915C
:10048000140197FF07C080911101909112014B97C1
:1004900054F40DC0892B59F08091110190911201F3
:1004A000863E9F4F24F481E08093460102C0109263
:1004B00046018091460181110C940D020C94F601C5
:1004C0000E940D022FEF89E698E121508040904074
:1004D000E1F700C000000E94F6012FEF89E698E1E5
:1004E000215080409040E1F700C0000008950E9434
:1004F0001C14811107C06A9A72988AE791E00E94E1
:10050000E512F9CF6A9A729A08954AE0609115014E
:1005100081E00C94000D80E885BF85BFECE7F0E03A
:1005200080818F7B8083808180688083EAE7F0E030
:1005300080818B7F808380818260808380818160E5
:100540008083AEE7B0E08C9181608C938C91826067
:100550008C938C9180618C938C9180628C93808140
:100560008860808380818F7D8083808180688083A4
:100570008081806480830895539A3E9A269A3F9A98
:10058000259AE1ECF0E080818860808380818B7F18
:10059000808380818D7F808380818E7F8083A3ECA8
:1005A000B0E08C918D7F8C938C918E7F8C93A0EC9E
:1005B000B0E08C9182608C938C9180688C938C914C
:1005C0008F7B8C9380818160808380818062808337
:1005D00080818F7E80838FEF8093D1008093CF00C6
:1005E0008093D00008950E94F90D0E94580C7894D1
:1005F000219A229A0E9477020E9485020E94BC02E0
:100600000C948B02AF92BF92CF92DF92EF92FF9247
:100610000F931F93CF93DF936091020170910301B9
:100620000091000110910101643F81E0780729F4F5
:10063000043F81E0180709F4ABC0A0901301B0900B
:100640001401C501861B970BC196C0911101D09171
:1006500012018336910540F0CE01801B910BC196AB
:100660008336910508F07CC0882777FD8095982F08
:100670000E9461192DEC3CEC4CE45FE30E947A1A75
:100680006B017C01B501882777FD8095982F0E942A
:1006900061192CEC3CEC4CE45EE30E947A1A9B015D
:1006A000AC01C701B6010E94F9170E942E19709380
:1006B000140160931301B801882777FD8095982F66
:1006C0000E9461192DEC3CEC4CE45FE30E947A1A25
:1006D0006B017C01BE01882777FD8095982F0E94D1
:1006E00061192CEC3CEC4CE45EE30E947A1A9B010D
:1006F000AC01C701B6010E94F9170E942E19709330
:100700001201609311012DEC3CEC4CE45FE360912D
:100710001C0170911D0180911E0190911F010E948A
:100720007A1A6B017C012CEC3CEC4CE45EE36091AA
:100730002E0170912F0180913001909131010E9422
:100740007A1A9B01AC01C701B6010E94F9176093A8
:100750002E0170932F01809330019093310118C0C6
:10076000709314016093130110931201009311010F
:1007700080911C0190911D01A0911E01B0911F015B
:1007800080932E0190932F01A0933001B0933101FB
:10079000DF91CF911F910F91FF90EF90DF90CF905D
:1007A000BF90AF9008954F925F926F927F928F9219
:1007B0009F92AF92BF92CF92DF92EF92FF920F93F0
:1007C0001F93CF93DF93CDB7DEB728970FB6F8947A
:1007D000DEBF0FBECDBF6B015901209113013091D7
:1007E00014013093030120930201209111013091F3
:1007F0001201309301012093000140902E0150908E
:100800002F01609030017090310140921C01509294
:100810001D0160921E0170921F01481B590BBA0105
:10082000882777FD8095982F0E9461199B01AC0164
:10083000B5016C197D09882777FD8095982F2D8348
:100840003E834F8358870E9461192D813E814F81DD
:1008500058850E946C184B015C0129EF3FE049EC80
:100860005FE30E94F8172B013C0129EF3FE049E4C8
:1008700050EC0E94BF1887FD09C040922E01509293
:100880002F01609230017092310110C029EF3FE0DA
:1008900049EC50E4C301B2010E94F91760932E01A4
:1008A00070932F018093300190933101B701882715
:1008B00077FD8095982F0E94611969837A838B83D5
:1008C0009C83B801882777FD8095982F0E94611935
:1008D0002B013C0129813A814B815C810E946C187B
:1008E000905829EF3FE049EC5FE30E94F8176B0155
:1008F0007C0129EF3FE049E450EC0E94BF1887FFDC
:100900000AC029EF3FE049EC50E4C701B6010E945C
:10091000F9176B017C0120E030E040E251E4C301B3
:10092000B2010E94C6182B013C0120E030E040E2F9
:1009300051E469817A818B819C810E94C618698308
:100940007A838B839C83A3019201C301B2010E942D
:100950007A1A2B013C0129813A814B815C81CA01C1
:10096000B9010E947A1A9B01AC01C301B2010E9435
:10097000F9170E94E71A20E030E040E251E40E94BB
:100980007A1A2B013C0129EF3FE049E450E46091E1
:100990002E0170912F0180913001909131010E94C0
:1009A000F917A70196010E94F8176B017C0129EF46
:1009B0003FE049E450EC0E94BF1887FF0AC029EFCE
:1009C0003FE049EC50E4C701B6010E94F9176B0102
:1009D0007C0129EF3FE049E450E4C701B6010E94E1
:1009E0006F1A181654F429EF3FE049EC50E4C701A0
:1009F000B6010E94F8176B017C01C701B6010E9485
:100A0000C3189B01AC018091040190910501A09154
:100A10000601B091070189839A83AB83BC83C3012C
:100A2000B2010E947A1A29813A814B815C810E942D
:100A30007A1A0E942E1971956195710970931401AB
:100A400060931301C701B6010E94DD1A9B01AC013E
:100A5000C301B2010E947A1A29813A814B815C81DB
:100A60000E947A1A0E942E197195619571097093EE
:100A700012016093110129EF3FE049E450E4C50100
:100A8000B4010E94F9176B017C0129EF3FE049E4B2
:100A900050E40E946F1A18164CF0C0922E01D092AA
:100AA0002F01E0923001F092310110C029EF3FE0B8
:100AB00049EC50E4C701B6010E94F81760932E017B
:100AC00070932F01809330019093310128960FB6D7
:100AD000F894DEBF0FBECDBFDF91CF911F910F9174
:100AE000FF90EF90DF90CF90BF90AF909F908F904E
:100AF0007F906F905F904F900C9402032F923F92E3
:100B00004F925F926F927F928F929F92AF92BF921D
:100B1000CF92DF92EF92FF920F931F93CF93DF93C9
:100B2000CDB7DEB760970FB6F894DEBF0FBECDBF6E
:100B30001C017A876987FC01A281B3812081318100
:100B4000AD01421B530BFB010280F381E02DFE83BC
:100B5000ED83FB01C080D1808D819E818C199D0920
:100B6000449F4001459F900C900C1124889FA00148
:100B7000899F500D500D1124840E951EAA2497FCB8
:100B8000A094BA2CF101448155817A01E21AF30A4A
:100B9000FB010480F581E02DFC87EB878F010C19A8
:100BA0001D09EE9CB001EF9C700D700D1124009F8B
:100BB0007001019FF00CF00C11246E0D7F1D2B01B4
:100BC000662457FC6094762CF101668177817B0165
:100BD000E21AF30AE985FA852681378189010C1921
:100BE0001D09EE9CC001EF9C900D900D1124009FFB
:100BF0007001019FF00CF00C11248E0D9F1D7C01E3
:100C00000027F7FC0095102FE982FA820B831C83E2
:100C10007A01EA1AFB0A0B851C858D819E81081BCF
:100C2000190BEE9C6001EF9CD00CD00C1124009F9E
:100C30007001019FF00CF00C1124CE0CDF1CEE248F
:100C4000D7FCE094FE2CFB01EA1BFB0BC9010D81D4
:100C50001E81801B910BEE9F8001EF9F100D100DE8
:100C60001124889FD001899FB00DB00D11240A0F67
:100C70001B1FC801AA2797FDA095BA2F8D839E83BD
:100C8000AF83B887641B750BAB85BC852A1B3B0BF8
:100C9000669FC001679F900D900D1124229FA001B7
:100CA000239F500D500D1124840F951F8C01222776
:100CB00017FD2095322F0D871E872F87388BF42D37
:100CC000E52D962D872D481459046A047B0424F4DD
:100CD000F82DE92D9A2D8B2D4F2F5E2F692F782F10
:100CE00089819A81AB81BC81481759076A077B07C4
:100CF00014F4AC01BD014C155D056E057F0514F4BF
:100D0000B701A6010D811E812F813885401751073B
:100D10006207730714F4B901A8018D859E85AF851C
:100D2000B889481759076A077B0714F4AC01BD015D
:100D3000942D852DF62DE72D84149504A604B70473
:100D400024F4982D892DFA2DEB2D092F182F2F2FF4
:100D50003E2F89819A81AB81BC8180179107A207C0
:100D6000B30714F48C019D01D901C801C016D10646
:100D7000E206F30614F4D701C6018C019D018D81B2
:100D80009E81AF81B88580179107A207B30714F43D
:100D90008C019D01D901C8010D851E852F853889DB
:100DA000081719072A073B0714F4D901C801481589
:100DB00059056A057B05A1F484159505A605B705B7
:100DC00019F421E030E091C029813A814B815C81A6
:100DD00082179307A407B507A1F320E030E03EC0D7
:100DE0004415550566057705A1F488159905AA05EA
:100DF000BB0519F422E030E078C0E980FA800B816D
:100E00001C818E159F05A007B107A1F320E030E0FB
:100E10005DC009811A812B813C814017510762070F
:100E2000730781F484159505A605B70519F423E029
:100E300030E05BC088159905AA05BB05C1F320E029
:100E400030E04EC04C155D056E057F05B1F4881588
:100E50009905AA05BB0529F422E030E081E090E085
:100E600046C02D813E814F81588582179307A40784
:100E7000B50791F321E030E029C00D811E812F815B
:100E80003885401751076207730781F48815990563
:100E9000AA05BB0519F423E030E0E0CF8C159D05D1
:100EA000AE05BF05C1F321E030E01AC00D851E85F7
:100EB0002F8538894017510762077307A1F48415FD
:100EC0009505A605B70529F423E030E082E090E01F
:100ED0000EC08C159D05AE05BF05B1F322E030E0D4
:100EE00083E090E004C020E030E080E090E0BC01CE
:100EF000660F771FF101E60FF71F80819181220FA6
:100F0000331FF101E20FF31F40815181E985FA851A
:100F1000E60FF71F60817181E985FA85E20FF31F03
:100F2000208131817B01E20EF31EF7FE03C01FEF2B
:100F3000E11AF10AF594E7948C01040F151F17FFCD
:100F400002C00F5F1F4F159507950E94D30360964F
:100F50000FB6F894DEBF0FBECDBFDF91CF911F91CA
:100F60000F91FF90EF90DF90CF90BF90AF909F9048
:100F70008F907F906F905F904F903F902F9008954B
:100F80002F923F924F925F926F927F928F929F9299
:100F9000AF92BF92CF92DF92EF92FF920F931F9387
:100FA000CF93DF93CDB7DEB760970FB6F894DEBF6F
:100FB0000FBECDBF8C011B01DC0112966D917C919F
:100FC0001397CD90DC90DE86CD86FB01EC19FD09F0
:100FD000D10112962D913C911397CD90DC90D88A37
:100FE000CF86A9014C195D09EE9FC001EF9F900DBE
:100FF000900D1124449FF001459FF00DF00D112438
:101000008E0F9F1F6C01EE24D7FCE094FE2CC9824A
:10101000DA82EB82FC82D8011496ED90FC90159751
:101020006701ED85FE85CE1ADF0AD10114964D9138
:101030005C911597DA01EF85F889AE1BBF0BCC9C4C
:10104000C001CD9C900D900D1124AA9FF001AB9F83
:10105000F00DF00D11248E0F9F1F2C01662457FCFC
:101060006094762CF701E61BF70B421B530BEE9FA7
:10107000C001EF9F900D900D1124449F9001459F5A
:10108000300D300D1124820F931F6C01EE24D7FC1C
:10109000E094FE2CCD82DE82EF82F886342D252D61
:1010A000962D872DC980DA80EB80FC804C145D047E
:1010B0006E047F0424F439812A819B818C81C32EA4
:1010C000D22EE92EF82E2D813E814F815885C216F1
:1010D000D306E406F50614F469017A01342D252DB2
:1010E000962D872D49815A816B817C814415550548
:1010F0006605770524F439812A819B818C81832EB2
:10110000922EA92EB82E6D817E818F8198856815CB
:1011100079058A059B0514F44B015C01C701B601F2
:101120000E94611969877A878B879C87C501B40102
:101130000E9461199B01AC0169857A858B859C852C
:101140000E94C61869877A878B879C8720E030E0E9
:1011500040E050E40E94BF1887FF3EC189819A8118
:10116000AB81BC81C816D906EA06FB0651F484148B
:101170009504A604B70489F51A82198221E030E0AB
:1011800032C0C414D504E604F70471F4C980DA80CF
:10119000EB80FC808C149D04AE04BF0439F51A82E8
:1011A000198222E030E028C02D813E814F81588590
:1011B000C216D306E406F50611F5C980DA80EB8085
:1011C000FC808C149D04AE04BF04F1F421E030E0F7
:1011D0003A83298322E030E01DC041E050E05A8389
:1011E000498320E030E082E090E016C062E070E0E9
:1011F0007A83698320E030E081E090E00DC01A82BC
:10120000198220E030E006C082E090E09A83898372
:1012100021E030E080E090E06901CC0CDD1CF801B9
:10122000EC0DFD1D608071807C01EE0CFF1CB30194
:10123000882777FD8095982F0E9461194B015C01EA
:10124000F801EE0DFF1D80819181B301681B790BC0
:10125000882777FD8095982F0E94611922EA35E44E
:1012600046E05FE30E947A1A9B01AC01C501B4011C
:101270000E94F9170E942E194B015C01F101EC0D3F
:10128000FD1DC080D180B601882777FD8095982FFD
:101290000E9461192B013C01F101EE0DFF1D8081BF
:1012A0009181B601681B790B882777FD8095982F6F
:1012B0000E94611922EA35E446E05FE30E947A1A4F
:1012C0009B01AC01C301B2010E94F9170E942E19C3
:1012D0006D837E838F839887C980DA80CC0CDD1C78
:1012E000DA86C986F601E00FF11FC080D180DA826C
:1012F000C982B401882777FD8095982F0E946119D3
:101300006B017C0129813A81B901882777FD80959D
:10131000982F0E9461192B013C0169817A8168191B
:101320007909882777FD8095982F0E94611928EA0E
:1013300036EC4BE85EE30E947A1A9B01AC01C301D4
:10134000B2010E94F9179B01AC01C701B6010E94CE
:10135000F8170E942E194B015C01E985FA85E20D10
:10136000F31D208031804D815E81BA01882777FD91
:101370008095982F0E9461196B017C01B10188272B
:1013800077FD8095982F0E9461192B013C01B101D6
:101390008D819E81681B790B882777FD8095982F1A
:1013A0000E94611928EA36EC4BE85EE30E947A1A43
:1013B0009B01AC01C301B2010E94F9179B01AC0172
:1013C000C701B6010E94F8170E942E197B01840103
:1013D000910149815A8156C120E030E040E850E453
:1013E00069857A858B859C850E946F1A18160CF486
:1013F0004CC1A7019601C701B6010E944E1BA50171
:1014000094010E94721B28393840410551050CF0A7
:101410003CC129813A814B815C81C216D306E40626
:10142000F50661F484149504A604B704A9F520E038
:1014300030E042E050E05A83498347C0C414D504E9
:10144000E604F70481F4C980DA80EB80FC808C1418
:101450009D04AE04BF0439F520E030E041E050E0E7
:101460005A83498316C06D817E818F819885C61607
:10147000D706E806F906F1F4C980DA80EB80FC8033
:101480008C149D04AE04BF04E1F421E030E01A8224
:10149000198282E090E01BC021E030E042E050E0A1
:1014A0005A8349830BC022E030E061E070E07A8328
:1014B000698304C020E030E01A82198280E090E065
:1014C00006C022E030E01A82198281E090E04901F2
:1014D000880C991CF801E80DF91D608071805C0191
:1014E000AA0CBB1CB301882777FD8095982F0E941A
:1014F00061196B017C01F801EA0DFB1D808191816E
:10150000681A790AB301882777FD8095982F0E9481
:10151000611922EA35E446E05FE30E947A1A9B01F2
:10152000AC01C701B6010E94F9170E942E196B0188
:101530007C01F101E80DF91D80809180B4018827BC
:1015400077FD8095982F0E9461192B013C01F101D4
:10155000EA0DFB1D80819181881A990AB4018827C0
:1015600077FD8095982F0E94611922EA35E446E0C4
:101570005FE30E947A1A9B01AC01C301B2010E9491
:10158000F9170E942E196D837E838F839887898136
:101590009A81880F991F9A838983FC01E00FF11FBC
:1015A00000811181B601882777FD8095982F0E94D0
:1015B00061194B015C01B801882777FD8095982F50
:1015C0000E9461192B013C01B8016C197D09882723
:1015D00077FD8095982F0E9461192FED3FE44DEC27
:1015E0005FE30E947A1A9B01AC01C301B2010E9421
:1015F000F9179B01AC01C501B4010E94F8170E94C4
:101600002E194B015C01A981BA81A20DB31D0D9168
:101610001C91AD81BE81BD01882777FD8095982FF3
:101620000E9461196B017C01B801882777FD8095C4
:10163000982F0E9461192B013C01B801ED81FE81B8
:101640006E1B7F0B882777FD8095982F0E9461196C
:101650002FED3FE44DEC5FE30E947A1A9B01AC0151
:10166000C301B2010E94F9179B01AC01C701B60189
:101670000E94F8170E942E197B0184012F8538895A
:101680004D855E85B401C40170C029813A814B81CA
:101690005C81C216D306E406F50641F48414950471
:1016A000A604B70429F521E030E02CC0C414D50409
:1016B000E604F70461F4C980DA80EB80FC808C14C6
:1016C0009D04AE04BF04B9F422E030E01BC02D81BC
:1016D0003E814F815885C216D306E406F50681F493
:1016E00084149504A604B70481F421E030E005C019
:1016F00020E030E00CC020E030E082E090E009C063
:1017000020E030E080E090E004C022E030E081E0C2
:1017100090E0BC01660F771FF801E60FF71F80818C
:101720009181220F331FF801E20FF31F4081518195
:10173000F101E60FF71F60817181F101E20FF31FE4
:10174000208131817B01E20EF31EF7FE03C0AFEF73
:10175000EA1AFA0AF594E7948C01040F151F17FF93
:1017600002C00F5F1F4F159507950E94D303609627
:101770000FB6F894DEBF0FBECDBFDF91CF911F91A2
:101780000F91FF90EF90DF90CF90BF90AF909F9020
:101790008F907F906F905F904F903F902F90089523
:1017A000CF93DF93CDB7DEB760970FB6F894DEBF67
:1017B0000FBECDBFEAE4F1E080E090E040815181CE
:1017C0004F3F23E05207D1F0228133812F3F63E066
:1017D0003607A1F0DC01AA0FBB1F61E070E06C0FBF
:1017E0007D1FA60FB71F4751524019965C934E9329
:1017F0001897245531402D933C930196369671E00D
:10180000E236F707D9F68430910541F4BE016F5FE7
:101810007F4FCE0109960E947E0509C0039751F4BF
:10182000BE016F5F7F4FCE0109960E94C0076E9A7E
:10183000769A02C06E9A769860960FB6F894DEBFDC
:101840000FBECDBFDF91CF9108958AE491E00E9451
:1018500001158093490181110E94D00B80914901AB
:10186000089580911301909114018D589F4F089510
:101870008091110190911201CC96089520E030E002
:1018800048EC52E460912E0170912F01809130015B
:10189000909131010E947A1A0E943319CB01089568
:1018A000809114018095881F8827881F8F5F089575
:1018B000589A599A5A9A8CE08093B800E9E6F0E079
:1018C00080818062808380818F7E8083EA9A789491
:1018D000089584E88093BC008091BC0087FFFCCF12
:1018E0008091BB00089584E98093BC00089520E0B6
:1018F00030E08091BC0087FD06C02F5F3F4F293E3E
:1019000083E03807B1F781E0283E334009F480E0F6
:1019100008958093BB0084E88093BC000E94770CFC
:10192000882321F08091B900887F089580E0089590
:101930001F93CF93DF931F92CDB7DEB7182F84EAA2
:101940008093BC0069830E94770C6981811104C077
:1019500094E99093BC0014C0812F880F662331F066
:101960008F5F0E94890C883451F404C00E94890C56
:10197000803229F484E98093BC0080E001C081E0DA
:101980000F90DF91CF911F910895CF93DF93C82FD0
:10199000D62F60E00E94980C882391F08D2F0E9432
:1019A000890C882369F084E98093BC0061E08C2F66
:1019B0000E94980C882321F0DF91CF910C94690C40
:1019C00080E0DF91CF910895CF93DF93D62FC42F7E
:1019D00060E00E94980C811102C080E00EC08D2F43
:1019E0000E94890C8823C9F38C2F0E94890C8823BC
:1019F000A1F384E98093BC0081E0DF91CF91089549
:101A0000CF93DF9300D01F92CDB7DEB74B836A83AD
:101A100089830E94580C94EA9093BC0089816A8162
:101A20004B819091BC0097FFFCCF90E59093BB0059
:101A300094E89093BC009091BC0097FFFCCF9091EC
:101A4000B900987F903229F484E98093BC0080E04B
:101A500029C091E09093BB0094E89093BC009091D2
:101A6000BC0097FFFCCF8093BB0084E88093BC0050
:101A70008091BC0087FFFCCF6093BB0084E880931B
:101A8000BC008091BC0087FFFCCF4093BB0084E882
:101A90008093BC008091BC0087FFFCCF84E98093D9
:101AA000BC0081E00F900F900F90DF91CF910895CF
:101AB00024EA2093BC002091BC0027FFFCCF21E545
:101AC0002093BB0024E82093BC002091BC0027FF9A
:101AD000FCCF2091B900287F2834A9F024EC209372
:101AE000BC002091BC0027FFFCCF2091BB00261337
:101AF0000AC0FC0120E030E0772767FD7095615057
:101B0000710944EC0EC084E98093BC0080E0089524
:101B10005091BC0057FFFCCF5091BB0051932F5FF9
:101B20003F4F261737071CF44093BC00F1CF44E821
:101B30004093BC004091BC0047FFFCCF4091BB00EC
:101B4000FC01E20FF31F408384E98093BC0081E035
:101B50000895F89494EA9093BC009091BC0097FF8C
:101B6000FCCF90E59093BB0094E89093BC009091DB
:101B7000BC0097FFFCCF9091B900987F903231F470
:101B800084E98093BC00789480E0089593E090937A
:101B9000BB0094E89093BC009091BC0097FFFCCFF1
:101BA0008093BB0084E88093BC008091BC0087FFD9
:101BB000FCCFFB01552747FD509524E8CF01861B3C
:101BC000970B8417950754F481918093BB00209361
:101BD000BC008091BC0087FFFCCFF0CF84E98093EC
:101BE000BC00789481E008958091E80080FFFCCFEC
:101BF000089581E08093D70080EA8093D80082E145
:101C000089BD09B400FEFDCF80E98093D800109211
:101C1000E00010922301109220018CE08093E200FA
:101C2000789408958091230108959FB7F894809146
:101C30002301882339F083E08093E9008091E80054
:101C400085FD03C09FBF8FEF08958091F100209123
:101C5000E80025FD03C02BE62093E8009FBF089510
:101C60009FB7F89480912301882331F083E080931B
:101C7000E9008091F20001C080E09FBF089580914B
:101C80002301882371F08FB7F89493E09093E900D3
:101C90002BE69091E80095FF03C02093E800F9CF70
:101CA0008FBF089590912301992371F09FB7F89405
:101CB00024E02093E90020912101222349F0209182
:101CC000E80025FD03C09FBF8FEF0895109221010A
:101CD0002091E400275E34E04091E80045FD12C009
:101CE0009FBF9091E400921304C081E08093210192
:101CF000EBCF90912301992339F39FB7F894309358
:101D0000E900EACF8093F1008091E80085FD03C0EF
:101D10008AE38093E80085E0809322019FBF80E002
:101D20000895909123019923D1F09FB7F89424E06E
:101D30002093E9002091E80025FD02C09FBF0FC05D
:101D40008093F1008091E80085FD03C08AE38093D1
:101D5000E80085E0809322019FBF80E008958FEF27
:101D60000895EF92FF921F93CF93DF937C01CB01F5
:101D700020912301222371F0AFB7F89424E020933F
:101D8000E90020912101222349F02091E80025FD5E
:101D900003C0AFBF8FEF42C210922101B4E0C0E494
:101DA000DAE315E0009709F437C22091E400275EDA
:101DB0003091E80035FD12C0AFBF3091E40032131E
:101DC00004C081E080932101E5CF309123013323CA
:101DD00009F3AFB7F894B093E900EACF2091F2008D
:101DE0004C2F421B242F30E08217930708F4482F12
:101DF000841B910950E04134510508F0FDC14A5A55
:101E00005F4FFA010C94911BF70120812093F100A0
:101E100097012F5F3F4F7901F70120812093F10057
:101E200097012F5F3F4F7901F70120812093F10047
:101E300097012F5F3F4F7901F70120812093F10037
:101E400097012F5F3F4F7901F70120812093F10027
:101E500097012F5F3F4F7901F70120812093F10017
:101E600097012F5F3F4F7901F70120812093F10007
:101E700097012F5F3F4F7901F70120812093F100F7
:101E800097012F5F3F4F7901F70120812093F100E7
:101E900097012F5F3F4F7901F70120812093F100D7
:101EA00097012F5F3F4F7901F70120812093F100C7
:101EB00097012F5F3F4F7901F70120812093F100B7
:101EC00097012F5F3F4F7901F70120812093F100A7
:101ED00097012F5F3F4F7901F70120812093F10097
:101EE00097012F5F3F4F7901F70120812093F10087
:101EF00097012F5F3F4F7901F70120812093F10077
:101F000097012F5F3F4F7901F70120812093F10066
:101F100097012F5F3F4F7901F70120812093F10056
:101F200097012F5F3F4F7901F70120812093F10046
:101F300097012F5F3F4F7901F70120812093F10036
:101F400097012F5F3F4F7901F70120812093F10026
:101F500097012F5F3F4F7901F70120812093F10016
:101F600097012F5F3F4F7901F70120812093F10006
:101F700097012F5F3F4F7901F70120812093F100F6
:101F800097012F5F3F4F7901F70120812093F100E6
:101F900097012F5F3F4F7901F70120812093F100D6
:101FA00097012F5F3F4F7901F70120812093F100C6
:101FB00097012F5F3F4F7901F70120812093F100B6
:101FC00097012F5F3F4F7901F70120812093F100A6
:101FD00097012F5F3F4F7901F70120812093F10096
:101FE00097012F5F3F4F7901F70120812093F10086
:101FF00097012F5F3F4F7901F70120812093F10076
:1020000097012F5F3F4F7901F70120812093F10065
:1020100097012F5F3F4F7901F70120812093F10055
:1020200097012F5F3F4F7901F70120812093F10045
:1020300097012F5F3F4F7901F70120812093F10035
:1020400097012F5F3F4F7901F70120812093F10025
:1020500097012F5F3F4F7901F70120812093F10015
:1020600097012F5F3F4F7901F70120812093F10005
:1020700097012F5F3F4F7901F70120812093F100F5
:1020800097012F5F3F4F7901F70120812093F100E5
:1020900097012F5F3F4F7901F70120812093F100D5
:1020A00097012F5F3F4F7901F70120812093F100C5
:1020B00097012F5F3F4F7901F70120812093F100B5
:1020C00097012F5F3F4F7901F70120812093F100A5
:1020D00097012F5F3F4F7901F70120812093F10095
:1020E00097012F5F3F4F7901F70120812093F10085
:1020F00097012F5F3F4F7901F70120812093F10075
:1021000097012F5F3F4F7901F70120812093F10064
:1021100097012F5F3F4F7901F70120812093F10054
:1021200097012F5F3F4F7901F70120812093F10044
:1021300097012F5F3F4F7901F70120812093F10034
:1021400097012F5F3F4F7901F70120812093F10024
:1021500097012F5F3F4F7901F70120812093F10014
:1021600097012F5F3F4F7901F70120812093F10004
:1021700097012F5F3F4F7901F70120812093F100F4
:1021800097012F5F3F4F7901F70120812093F100E4
:1021900097012F5F3F4F7901F70120812093F100D4
:1021A00097012F5F3F4F7901F70120812093F100C4
:1021B00097012F5F3F4F7901F70120812093F100B4
:1021C00097012F5F3F4F7901F70120812093F100A4
:1021D00097012F5F3F4F7901F70120812093F10094
:1021E00097012F5F3F4F7901F70120812093F10084
:1021F00097012F5F3F4F7901F70120812093F10074
:1022000097012F5F3F4F79012091E80025FFD09380
:10221000E80010932201C6CDAFBF80E0DF91CF91DF
:102220001F91FF90EF9008958FB7F894909122013D
:10223000992341F094E09093E9009AE39093E800A9
:10224000109222018FBF089580910C010895809112
:102250000D01089580910E01089580912001089547
:102260009FB7F89420912301222339F022E0209394
:10227000E9003091E80035FD03C09FBF8FEF08955E
:1022800031EA3093F10030E23093F1001092F10026
:102290001092F1001092F1001092F1002093F100E1
:1022A0001092F1008093F1001092F1008AE3809384
:1022B000E8009FBF80E008951F920F920FB60F9223
:1022C00011248F939F938091E1001092E10083FF8E
:1022D00011C01092E90091E09093EB001092EC0095
:1022E00092E19093ED0098E09093F000109223011A
:1022F0001092200182FF13C080912301882379F07E
:1023000080912201882359F081508093220181110C
:1023100006C084E08093E9008AE38093E8009F91FF
:102320008F910F900FBE0F901F9018951F920F92D4
:102330000FB60F921124EF92FF920F931F932F93DA
:102340003F934F935F936F937F938F939F93AF933D
:10235000BF93EF93FF93CF93DF931F92CDB7DEB779
:102360001092E9008091E80083FF14C19091F10080
:102370008091F1003091F1002091F100E32EF12CD9
:10238000F22A0091F1002091F10010E0122B20912F
:10239000F1006091F10032EF3093E800863009F0EF
:1023A00046C036E08FE791E0FC01459154914E150F
:1023B0005F0539F4FC01329645915491401751075D
:1023C00021F00796315081F7E5C0FC013496459124
:1023D0005491FC013696849130E0362B2F3F310525
:1023E00019F010F02FEF30E0281708F4822F3EEF9D
:1023F0009091E800292F2570D9F392FDCEC0982F37
:10240000813108F090E1FA01292F222331F0649103
:102410006093F10021503196F8CF490F511D891B6F
:102420003093E8008111E4CF903111F3B6C08530CC
:1024300051F48EEF8093E8000E94F40D8E2D806899
:102440008093E300AAC0893059F5911180C0E092D1
:10245000230110922001109222018EEF8093E80058
:1024600041E088E292E04093E9009C012F5F3F4FFA
:10247000FC0154915093EB00552359F0F90124913C
:102480002093EC009C012D5F3F4F31968491809307
:10249000ED004F5F453011F0C901E5CF8EE175C009
:1024A000883051F4903809F052C00E94F40D8091A8
:1024B00023018093F10047C0813279F4913A09F009
:1024C00046C00E94F40DE8E0F1E081918093F100B4
:1024D00081E0EF30F807C9F736C0803299F49132C5
:1024E000B1F58091E80082FFFCCFE8E0F1E0809157
:1024F000F100819381E0EF30F807C9F78BEF80930B
:10250000E80021C0823241F4913209F043C0E092E8
:1025100020010E94F40D17C0811119C099830E94F7
:10252000F40D9981923851F40093E9008091EB0009
:1025300085FB882780F91092E90001C080E0809334
:10254000F1001092F1008EEF8093E80026C0282F52
:102550002D7F2130F9F49230E9F4EF28D9F40F7788
:102560009FEF900F9430B0F49EEF9093E8000093AB
:10257000E900833079F089E18093EB0081E090E01D
:10258000002E01C0880F0A94EAF78093EA001092A7
:10259000EA0003C081E28093EB000F90DF91CF91BE
:1025A000FF91EF91BF91AF919F918F917F916F912B
:1025B0005F914F913F912F911F910F91FF90EF905D
:1025C0000F900FBE0F901F9018951F93CF93DF931E
:1025D000EC01FE011491112351F01A3019F48DE031
:1025E0000E94520E812F0E94520E2196F2CFDF914F
:1025F000CF911F9108958A3010F490E301C097E3C2
:10260000890F0C94520ECF93C82F82958F700E9421
:10261000FB128C2F8F70CF910C94FB12CF93C82F8D
:10262000892F0E9403138C2FCF910C9403130C94C9
:102630000313EF92FF920F931F93CF93DF93CDB7C6
:10264000DEB727970FB6F894DEBF0FBECDBF8E0161
:102650000F5F1F4F27E0F80111922A95E9F74AE032
:10266000B8010E94E71B7E01F8E0EF0EF11CF801B3
:1026700081918F0181110E94520E0E151F05B9F72D
:1026800027960FB6F894DEBF0FBECDBFDF91CF9176
:102690001F910F91FF90EF900895EF92FF920F938B
:1026A0001F93CF93DF9300D000D000D0CDB7DEB71B
:1026B0008E010F5F1F4F26E0F80111922A95E9F76E
:1026C0004AE0B8010E94231C7E01F6E0EF0EF11CE7
:1026D000F80181918F0181110E94520E0E151F0584
:1026E000B9F726960FB6F894DEBF0FBECDBFDF91C7
:1026F000CF911F910F91FF90EF900895EF92FF926D
:102700000F931F93CF93DF93CDB7DEB72B970FB601
:10271000F894DEBF0FBECDBF8E010F5F1F4F2BE0C1
:10272000F80111922A95E9F72AE0A8010E94F21B0C
:102730007E01FCE0EF0EF11CF80181918F01811107
:102740000E94520E0E151F05B9F72B960FB6F8947E
:10275000DEBF0FBECDBFDF91CF911F910F91FF90D4
:10276000EF900895EF92FF920F931F93CF93DF9313
:10277000CDB7DEB72B970FB6F894DEBF0FBECDBF37
:102780008E010F5F1F4F2BE0F80111922A95E9F798
:102790002AE0A8010E94011C7E01FBE0EF0EF11C63
:1027A000F80181918F0181110E94520E0E151F05B3
:1027B000B9F72B960FB6F894DEBF0FBECDBFDF91F1
:1027C000CF911F910F91FF90EF90089520E030E09E
:1027D0008091BC0087FD06C02F5F3F4F293E83E0FC
:1027E0003807B1F781E0283E334009F480E00895CE
:1027F0008093BB0084E88093BC000E94E61388238A
:1028000019F08091B900887F0895CF93C82F84EA8A
:102810008093BC000E94E613882361F08C2F880F00
:102820000E94F813803229F484E98093BC0080E090
:1028300001C081E0CF9108950E94580C88E50E9464
:102840000514811102C080E0089580E30E94F8130E
:102850008823C9F381E00E94F8138823A1F384E957
:102860008093BC008FE39CE90197F1F700C0000062
:1028700088E50E940514882331F380E00E94F81354
:10288000882309F380E00E94F8138823E1F280E0B6
:102890000E94F8138823B9F280E00E94F81388237D
:1028A00091F280E00E94F813882369F280E00E9490
:1028B000F813882341F280E00E94F813882319F26C
:1028C00080E90E94F813882309F4BDCF84E980933E
:1028D000BC008FE39CE90197F1F700C0000088E598
:1028E0000E940514882309F4AECF87E00E94F813F4
:1028F000882309F4A8CF80E00E94F813882309F404
:10290000A2CF81E40E94F813882309F49CCF84E9C4
:102910008093BC008FE39CE90197F1F700C00000B1
:1029200088E50E940514882309F48DCF8AE10E946E
:10293000F813882309F487CF80E40E94F8138823D2
:1029400009F481CF80E00E94F813882309F47BCF3B
:1029500084E98093BC008FE39CE90197F1F700C004
:10296000000088E50E940514882309F46CCF83E3F6
:102970000E94F813882309F466CF83E00E94F813BD
:10298000882309F460CF84E98093BC008FE39CE93D
:102990000197F1F700C0000088E50E940514882324
:1029A00009F451CF80E30E94F813882309F44BCF38
:1029B00088E00E94F813882309F445CF84E98093C6
:1029C000BC008FE39CE90197F1F700C0000081E0B3
:1029D0000895CF93C82F84EA8093BC000E94E61329
:1029E000882369F08C2F880F8F5F0E94F81388343A
:1029F00029F484E98093BC0080E001C081E0CF919C
:102A00000895EF92FF920F931F93CF93DF93CDB76B
:102A1000DEB760970FB6F894DEBF0FBECDBF7C0166
:102A20008E010F5F1F4F80E1F80111928A95E9F73F
:102A300088E50E940514811102C080E05EC086E333
:102A40000E94F8138823C9F384E98093BC00F5E859
:102A5000FA95F1F7000088E50E94E914882369F3EC
:102A6000F8019E01205F3F4F94EC9093BC00809151
:102A7000BC0087FFFCCF8091BB008193E217F30776
:102A8000A1F784E88093BC008091BC0087FFFCCF55
:102A90008091BB00888B84E98093BC00DE01149692
:102AA00087016C91762F7073AD0142505109FA0184
:102AB000808190E0F0E17F9F800D911D1124F8014D
:102AC00091838083762F707C4F5F5F4FFA01808106
:102AD00090E0F4E07F9F800D911D1124F801938315
:102AE00082836F70862F90E09583848313960A5FAC
:102AF0001F4FA217B307A9F681E060960FB6F894AE
:102B0000DEBF0FBECDBFDF91CF911F910F91FF9020
:102B1000EF90089584E98093BC000895809162014C
:102B2000823A09F463C028F4803A69F0813AC9F125
:102B30000895853A09F45AC0863A09F455C0843A92
:102B400009F05AC053C00E94250C0E94500C9927CE
:102B500087FD909590931701809316018130910520
:102B600069F4299A2A982FEF80E792E0215080405B
:102B70009040E1F700C0000029980EC0029761F470
:102B80002A9A29982FEF80E792E0215080409040C8
:102B9000E1F700C000002A98109217011092160168
:102BA00008950E9443010E94250C80911601909186
:102BB0001701009749F40E94500C992787FD9095C2
:102BC0009093170180931601019719F4299A2A9876
:102BD00002C02A9A299883E090E09093250180937F
:102BE0002401249A2C9A089546984798109225011A
:102BF000109224010C94620108951F920F920FB657
:102C00000F9211242B982D982E980F900FBE0F9095
:102C10001F9018951F920F920FB60F9211242B9AA6
:102C20002D9A2E9A0F900FBE0F901F9018951F92FD
:102C30000F920FB60F9211242F933F934F935F93F0
:102C40006F937F938F939F93AF93BF93EF93FF9374
:102C50006AE082E691E00E94580D0E948E15FF9175
:102C6000EF91BF91AF919F918F917F916F915F9104
:102C70004F913F912F910F900FBE0F901F9018957D
:102C800083E492E00E94E51280913801909139012D
:102C90000E9419138DE392E00E94E51280913A019F
:102CA00090913B010E94191387E392E00E94E51284
:102CB00080913C0190913D010E94191382E392E0C2
:102CC0000E94E51280913E0190913F010C941913EE
:102CD0008091400190914101892BC1F080917A004F
:102CE0008F7780937A000E944016109241011092D3
:102CF000400180917A00806880937A0080917A0008
:102D0000806480937A0081E090E0089580E090E014
:102D100008952091340130913501E8E3F1E080819C
:102D20009181821B930B97FF03C01182108202C016
:102D300091838083329681E0E034F80781F708952B
:102D4000CF92DF92EF92FF920F931F93CF93DF9377
:102D50000E948916C0913C01D0913D01E0903A015A
:102D6000F0903B01C0903801D090390100913E01B4
:102D700010913F01CE018E0D9F1D8C0D9D1D800F6A
:102D8000911F97FD0396BC0175956795759567959D
:102D9000882777FD8095982F0E94611960932A01FA
:102DA00070932B0180932C0190932D012DEC3CEC22
:102DB0004CEC5DE30E94BF1887FF08C0289883E0B1
:102DC00090E0909325018093240123C0CE18DF0862
:102DD0008AE0C816D1041CF40E94620119C08091D7
:102DE000180190911901C817D9071CF40C171D0779
:102DF0001CF481E090E008C0081719071CF4C01704
:102E0000D1073CF482E090E0909325018093240167
:102E1000289ADF91CF911F910F91FF90EF90DF9053
:102E2000CF9008950E946816892BE1F380913E01AE
:102E300090913F0120913C0130913D018217930711
:102E40000CF49C0130933501209334018FEF93E013
:102E5000821B930B90931B0180931A01909319018D
:102E60008093180108951F920F920FB60F921124AC
:102E70002F933F938F939F93EF93FF9380917A00CB
:102E80008F7780937A00809136019091370120915D
:102E9000780030917900FC01EE0FFF1FE85CFE4FD7
:102EA000318320838330910559F4109237011092B9
:102EB000360181E090E0909341018093400105C08C
:102EC000019690933701809336018091360190915D
:102ED000370181309105D9F064F4892B09F03FC0A6
:102EE00080917B008F7D80937B0080917C008B7F25
:102EF0001FC082309105A1F0039789F580917B0076
:102F00008F7D80937B0080917C0084601CC08091C9
:102F10007B008F7D80937B0080917C008B7F13C032
:102F200080917B008F7D80937B0080917C0084600A
:102F300080937C0080917C008D7F80937C008091C9
:102F40007C008E7F0AC080937C0080917C008D7F06
:102F500080937C0080917C00816080937C008091D4
:102F60007A00806880937A0080917A0080648093F0
:102F70007A00FF91EF919F918F913F912F910F9048
:102F80000FBE0F901F9018950E94F3020E944301FC
:102F900080E8809361001092610083E090E090935C
:102FA0002501809324010E94250C0E9468160E942E
:102FB0003D0280912401909125018130910561F0BD
:102FC00040F08230910559F0039789F70E943D0245
:102FD00008C00E946201EBCF0E940D0202C00E9455
:102FE000F6010E94250C0E9468160E94A016DFCFF1
:102FF0005058BB27AA270ED027C2F0D130F0F5D108
:1030000020F031F49F3F11F41EF4C0C10EF4E0959E
:10301000E7FBB6C1E92F3AD280F3BA17620773070C
:103020008407950718F071F49EF552C20EF4E095EE
:103030000B2EBA2FA02D0B01B90190010C01CA0172
:10304000A0011124FF27591B99F0593F50F4503E1D
:1030500068F11A16F040A22F232F342F4427585F0F
:10306000F3CF469537952795A795F0405395C9F727
:103070007EF41F16BA0B620B730B840BBAF09150DF
:10308000A1F0FF0FBB1F661F771F881FC2F70EC07E
:10309000BA0F621F731F841F48F487957795679551
:1030A000B795F7959E3F08F0B3CF9395880F08F03A
:1030B0009927EE0F97958795089590D158F080E85D
:1030C00091E009F49EEF91D128F040E851E059F4E5
:1030D0005EEF09C05BC1FCC1E92FE078D7D168F38E
:1030E000092E052AC1F3261737074807590738F074
:1030F0000E2E07F8E02569F0E025E0640AC0EF63D2
:1031000007F8009407FADB01B9019D01DC01CA014F
:10311000AD01EF934AD098D10AD05F91552331F099
:103120002BED3FE049E450FD49EC63CF0895DF9378
:10313000DD27B92FBF7740E85FE31616170648076B
:103140005B0710F4D92FCFD19F938F937F936F9309
:103150007CD2EEE2F1E01DD177D12F913F914F91DA
:103160005F91D4D1DD2349F09058A2EA2AED3FE0E7
:1031700049EC5FE3D0785D274DDFDF9165C1DCD09E
:1031800008F481E0089539D1E3956FC10CD05CC19A
:103190002CD140F023D130F021F45F3F19F0F0C082
:1031A000511197C1F3C072D198F39923C9F35523F4
:1031B000B1F3951B550BBB27AA276217730784072A
:1031C00038F09F5F5F4F220F331F441FAA1FA9F3E0
:1031D00033D00E2E3AF0E0E830D091505040E695D2
:1031E000001CCAF729D0FE2F27D0660F771F881F33
:1031F000BB1F261737074807AB07B0E809F0BB0B22
:10320000802DBF01FF2793585F4F2AF09E3F510545
:1032100068F0B6C05EC15F3FECF3983EDCF3869584
:1032200077956795B795F7959F5FC9F7880F911DBB
:103230009695879597F90895E1E0660F771F881FA7
:10324000BB1F621773078407BA0720F0621B730B5A
:10325000840BBA0BEE1F88F7E095089504D06894AC
:10326000B11137C108951AD188F09F5790F0B92F46
:103270009927B751A0F0D1F0660F771F881F991FCB
:103280001AF0BA95C9F712C0B13081F021D1B1E07E
:1032900008951EC1672F782F8827B85F39F0B93F8E
:1032A000CCF3869577956795B395D9F73EF49095CD
:1032B0008095709561957F4F8F4F9F4F0895E8944B
:1032C00009C097FB3EF490958095709561957F4F6E
:1032D0008F4F9F4F9923A9F0F92F96E9BB2793951C
:1032E000F695879577956795B795F111F8CFFAF42C
:1032F000BB0F11F460FF1BC06F5F7F4F8F4F9F4F5D
:1033000016C0882311F096E911C0772321F09EE8BA
:10331000872F762F05C0662371F096E8862F70E020
:1033200060E02AF09A95660F771F881FDAF7880FFA
:103330009695879597F90895990F0008550FAA0B50
:10334000E0E8FEEF16161706E807F907C0F01216B8
:103350001306E407F50798F0621B730B840B950BBB
:1033600039F40A2661F0232B242B252B21F4089510
:103370000A2609F4A140A6958FEF811D811D0895AD
:1033800097F99F6780E870E060E008959FEF80EC18
:103390000895DF93CF931F930F93FF92EF92DF92E5
:1033A0007B018C01689405C0DA2EEF01AFD0FE01DD
:1033B000E894A5912591359145915591AEF3EF0192
:1033C00029DEFE019701A801DA9479F7DF90EF90EA
:1033D000FF900F911F91CF91DF91089500240A94DF
:1033E0001616170618060906089500240A941216E0
:1033F0001306140605060895C9CF50D0E8F3E894E3
:10340000E0E0BB279F57F0F02AED3FE049EC06C013
:10341000EE0FBB0F661F771F881F28F0B23A6207B6
:103420007307840728F0B25A620B730B840BE39581
:103430009A9572F7803830F49A95BB0F661F771F04
:10344000881FD2F7904806C1092E0394000C11F48E
:10345000882352F0BB0F40F4BF2B11F460FF04C06F
:103460006F5F7F4F8F4F9F4F0895EF93E0FF06C030
:10347000A2EA2AED3FE049EC5FEBCCDDE5DF0F90FF
:10348000039401FC9058EBE5F1E0F7C057FD90582C
:10349000440F551F59F05F3F71F04795880F97FB18
:1034A000991F61F09F3F79F08795089512161306D2
:1034B0001406551FF2CF4695F1DF08C01616170601
:1034C0001806991FF1CF8695710561050894089536
:1034D000E894BB2766277727CB0197F908952CDF5F
:1034E00008F48FEF08959B01AC0160E070E080E884
:1034F0009FE34CCE0BD0A8CF71DF28F076DF18F019
:10350000952309F03DCF42CF1124E3CFBFDFA0F3D5
:10351000959FD1F3950F50E0551F629FF001729F68
:10352000BB27F00DB11D639FAA27F00DB11DAA1F87
:10353000649F6627B00DA11D661F829F2227B00DD4
:10354000A11D621F739FB00DA11D621F839FA00D5F
:10355000611D221F749F3327A00D611D231F849FAF
:10356000600D211D822F762F6A2F11249F57504006
:103570008AF0E1F088234AF0EE0FFF1FBB1F661FA1
:10358000771F881F91505040A9F79E3F510570F05A
:10359000F7CE9FCF5F3FECF3983EDCF386957795AF
:1035A0006795B795F795E7959F5FC1F7FE2B880F55
:1035B000911D9695879597F908959F931EDF0F901B
:1035C00007FCEE5F52CF11F40EF4E0CE41C066DF8F
:1035D000D0F39923D9F3CEF39F57550B87FF46D0ED
:1035E0000024A0E640EA900180585695979528F46B
:1035F000805C660F771F881F20F026173707480763
:1036000030F4621B730B840B202931294A2BA695B9
:1036100017940794202531254A2758F7660F771FFE
:10362000881F20F026173707480730F4620B730B0A
:10363000840B200D311D411DA09581F7B901842F08
:103640009158880F9695879508959B01AC0152CFAC
:103650009F3F31F0915020F4879577956795B79506
:10366000880F911D9695879597F908959150504030
:10367000660F771F881FD2F708959F938F937F93CC
:103680006F93FF93EF939B01AC0134DFEF91FF91B8
:1036900080DE2F913F914F915F912CCFDB018F9373
:1036A0009F930E94971BBF91AF91A29F800D911D88
:1036B000A39F900DB29F900D1124089597FB072EA4
:1036C00016F4009407D077FD09D00E94A21B07FCD6
:1036D00005D03EF4909581959F4F08957095619522
:1036E0007F4F0895052E97FB1EF400940E94891BBE
:1036F00057FD07D00E94B61B07FC03D04EF40C9474
:10370000891B50954095309521953F4F4F4F5F4F06
:10371000089590958095709561957F4F8F4F9F4F3D
:103720000895EE0FFF1F0590F491E02D09940E947B
:10373000D81BA59F900DB49F900DA49F800D911D47
:1037400011240895AA1BBB1B51E107C0AA1FBB1F70
:10375000A617B70710F0A61BB70B881F991F5A951D
:10376000A9F780959095BC01CD010895A1E21A2E8C
:10377000AA1BBB1BFD010DC0AA1FBB1FEE1FFF1F15
:10378000A217B307E407F50720F0A21BB30BE40B65
:10379000F50B661F771F881F991F1A9469F76095AC
:1037A0007095809590959B01AC01BD01CF01089566
:1037B000A29FB001B39FC001A39F700D811D112472
:1037C000911DB29F700D811D1124911D0895BB277D
:1037D0004A3031F4992322F4BDE2909581959F4FB0
:1037E0000C94241CBB272A3051F4992342F4BDE2E7
:1037F00090958095709561957F4F8F4F9F4F0C945A
:10380000021CBB27FA01A62F6217710581059105DD
:10381000330B30FB66F0AA27660F771F881F991FAE
:10382000AA1FA21710F0A21B63953850A9F7A05D3C
:10383000AA3308F0A95DA19336F7B111B1931082B4
:10384000CA010C943D1CBB27FB015527AA27880FF2
:10385000991FAA1FA41710F0A41B83955051B9F704
:10386000A05DAA3308F0A95DA193009779F7B11183
:10387000B1931192CB010C943D1CDC01FC01672F2C
:1038800071917723E1F7329704C07C916D93708337
:0E3890006291AE17BF07C8F30895F894FFCFFA
:10389E00F401F4010AD7A33E00E100000000088DF8
:0C38AE00FFF401F4011A0100FF03FF0306
:00000001FF
