:100000000C9400010C941D010C941D010C94A0098A
:100010000C941D010C941D010C941D010C941D01E8
:100020000C941D010C941D010C9423060C945D0688
:100030000C941D010C941D010C941D010C941D01C8
:100040000C941D010C941D010C941D010C941D01B8
:100050000C941D010C9489090C941D010C941D0134
:100060000C941D010C941D010C941D010C941D0198
:100070000C941D010C941D010C941D010C941D0188
:100080000C94D6090C941D010C941D010C941D01B7
:100090000C941D010C941D010C941D010C941D0168
:1000A0000C941D010C941D010C941D01CB05C3057E
:1000B000BB05B305AB05A3059B0593058B05830520
:1000C0007B0573056B0563055B0553054B05430510
:1000D0003B0533052B0523051B0513050B05030500
:1000E000FB04F304EB04E304DB04D304CB04C304F8
:1000F000BB04B304AB04A3049B0493048B048304E8
:100100007B0473046B0463045B0453044B044304D7
:100110003B0433042B0423041B0413040B040304C7
:10012000FB03F303EB03E303DB03D303CB0305A8D8
:100130004CCDB2D44EB93836A9020C50B99186884C
:10014000083CA6AAAA2ABE000000803F00010000C9
:10015000E3011200020000A00143000300009C0123
:100160000401030904880112020309048001060343
:100170000309047601080803340031003000000050
:1001800006034D003200000012034A002E0020003A
:100190004600690065006E00650000000403090464
:1001A00009024300020100C03209040000010202FA
:1001B00001000524001001052401010104240206A8
:1001C0000524060001070582031000400904010010
:1001D000020A000000070503024000000705840230
:1001E0004000001201000202000010C0167A040054
:1001F00001010203010001C11201803601813600B4
:1002000011241FBECFEFDAE0DEBFCDBF11E0A0E0CA
:10021000B1E0E4E9FAE102C005900D92A830B1071F
:10022000D9F721E0A8E0B1E001C01D92AB37B207D9
:10023000E1F70E94E4090C94480D0C940000589AD0
:10024000599A5A9A8CE08093B800E9E6F0E08081F0
:100250008062808380818F7E8083EA9A789408957B
:1002600084E88093BC008091BC0087FFFCCF809124
:10027000BB00089584E98093BC00089520E030E03D
:100280008091BC0087FD06C02F5F3F4F293E83E071
:100290003807B1F781E0283E334009F480E0089543
:1002A0008093BB0084E88093BC000E943E018823B9
:1002B00021F08091B900887F089580E008951F9310
:1002C000CF93DF931F92CDB7DEB7182F84EA8093C8
:1002D000BC0069830E943E016981811104C094E9D8
:1002E0009093BC0014C0812F880F662331F08F5F7C
:1002F0000E945001883451F404C00E9450018032A1
:1003000029F484E98093BC0080E001C081E00F9073
:10031000DF91CF911F910895CF93DF93C82FD62FF0
:1003200060E00E945F01882391F08D2F0E945001B0
:10033000882369F084E98093BC0061E08C2F0E94DF
:100340005F01882321F0DF91CF910C94300180E090
:10035000DF91CF910895CF93DF93D62FC42F60E024
:100360000E945F01811102C080E00EC08D2F0E94AB
:1003700050018823C9F38C2F0E9450018823A1F3D8
:1003800084E98093BC0081E0DF91CF910895CF9301
:10039000DF9300D01F92CDB7DEB74B836A8389838A
:1003A0000E941F0194EA9093BC0089816A814B816D
:1003B0009091BC0097FFFCCF90E59093BB0094E830
:1003C0009093BC009091BC0097FFFCCF9091B90036
:1003D000987F903229F484E98093BC0080E029C0A2
:1003E00091E09093BB0094E89093BC009091BC0086
:1003F00097FFFCCF8093BB0084E88093BC00809182
:10040000BC0087FFFCCF6093BB0084E88093BC00F6
:100410008091BC0087FFFCCF4093BB0084E88093B1
:10042000BC008091BC0087FFFCCF84E98093BC00B6
:1004300081E00F900F900F90DF91CF91089524EA03
:100440002093BC002091BC0027FFFCCF21E5209326
:10045000BB0024E82093BC002091BC0027FFFCCF08
:100460002091B900287F2834A9F024EC2093BC0007
:100470002091BC0027FFFCCF2091BB0026130AC0AF
:10048000FC0120E030E0772767FD7095615071092D
:1004900044EC0EC084E98093BC0080E00895509144
:1004A000BC0057FFFCCF5091BB0051932F5F3F4FD3
:1004B000261737071CF44093BC00F1CF44E8409363
:1004C000BC004091BC0047FFFCCF4091BB00FC0149
:1004D000E20FF31F408384E98093BC0081E008951C
:1004E000F89494EA9093BC009091BC0097FFFCCFE5
:1004F00090E59093BB0094E89093BC009091BC0071
:1005000097FFFCCF9091B900987F903231F484E945
:100510008093BC00789480E0089593E09093BB00B2
:1005200094E89093BC009091BC0097FFFCCF80931F
:10053000BB0084E88093BC008091BC0087FFFCCFA7
:10054000FB01552747FD509524E8CF01861B970BEB
:100550008417950754F481918093BB002093BC00CD
:100560008091BC0087FFFCCFF0CF84E98093BC0072
:10057000789481E008958091E80080FFFCCF089591
:1005800081E08093D70080EA8093D80082E189BD22
:1005900009B400FEFDCF80E98093D8001092E000FE
:1005A00010920B01109208018CE08093E200789485
:1005B000089580910B0108959FB7F89480910B01E5
:1005C000882339F083E08093E9008091E80085FD7D
:1005D00003C09FBF8FEF08958091F1002091E80044
:1005E00025FD03C02BE62093E8009FBF08959FB729
:1005F000F89480910B01882331F083E08093E90027
:100600008091F20001C080E09FBF089580910B01AE
:10061000882371F08FB7F89493E09093E9002BE66C
:100620009091E80095FF03C02093E800F9CF8FBFB9
:10063000089590910B01992371F09FB7F89424E0ED
:100640002093E90020910901222349F02091E8003C
:1006500025FD03C09FBF8FEF0895109209012091DF
:10066000E400275E34E04091E80045FD12C09FBFE2
:100670009091E400921304C081E080930901EBCFD4
:1006800090910B01992339F39FB7F8943093E900C7
:10069000EACF8093F1008091E80085FD03C08AE3F2
:1006A0008093E80085E080930A019FBF80E0089571
:1006B00090910B019923D1F09FB7F89424E02093F7
:1006C000E9002091E80025FD02C09FBF0FC0809384
:1006D000F1008091E80085FD03C08AE38093E80083
:1006E00085E080930A019FBF80E008958FEF089511
:1006F000EF92FF921F93CF93DF937C01CB01209168
:100700000B01222371F0AFB7F89424E02093E900A5
:1007100020910901222349F02091E80025FD03C022
:10072000AFBF8FEF42C210920901B4E0C0E4DAE338
:1007300015E0009709F437C22091E400275E30915C
:10074000E80035FD12C0AFBF3091E400321304C0A1
:1007500081E080930901E5CF30910B01332309F348
:10076000AFB7F894B093E900EACF2091F2004C2F94
:10077000421B242F30E08217930708F4482F841B74
:10078000910950E04134510508F0FDC14A5A5F4FCC
:10079000FA010C94BA0CF70120812093F100970123
:1007A0002F5F3F4F7901F70120812093F1009701DE
:1007B0002F5F3F4F7901F70120812093F1009701CE
:1007C0002F5F3F4F7901F70120812093F1009701BE
:1007D0002F5F3F4F7901F70120812093F1009701AE
:1007E0002F5F3F4F7901F70120812093F10097019E
:1007F0002F5F3F4F7901F70120812093F10097018E
:100800002F5F3F4F7901F70120812093F10097017D
:100810002F5F3F4F7901F70120812093F10097016D
:100820002F5F3F4F7901F70120812093F10097015D
:100830002F5F3F4F7901F70120812093F10097014D
:100840002F5F3F4F7901F70120812093F10097013D
:100850002F5F3F4F7901F70120812093F10097012D
:100860002F5F3F4F7901F70120812093F10097011D
:100870002F5F3F4F7901F70120812093F10097010D
:100880002F5F3F4F7901F70120812093F1009701FD
:100890002F5F3F4F7901F70120812093F1009701ED
:1008A0002F5F3F4F7901F70120812093F1009701DD
:1008B0002F5F3F4F7901F70120812093F1009701CD
:1008C0002F5F3F4F7901F70120812093F1009701BD
:1008D0002F5F3F4F7901F70120812093F1009701AD
:1008E0002F5F3F4F7901F70120812093F10097019D
:1008F0002F5F3F4F7901F70120812093F10097018D
:100900002F5F3F4F7901F70120812093F10097017C
:100910002F5F3F4F7901F70120812093F10097016C
:100920002F5F3F4F7901F70120812093F10097015C
:100930002F5F3F4F7901F70120812093F10097014C
:100940002F5F3F4F7901F70120812093F10097013C
:100950002F5F3F4F7901F70120812093F10097012C
:100960002F5F3F4F7901F70120812093F10097011C
:100970002F5F3F4F7901F70120812093F10097010C
:100980002F5F3F4F7901F70120812093F1009701FC
:100990002F5F3F4F7901F70120812093F1009701EC
:1009A0002F5F3F4F7901F70120812093F1009701DC
:1009B0002F5F3F4F7901F70120812093F1009701CC
:1009C0002F5F3F4F7901F70120812093F1009701BC
:1009D0002F5F3F4F7901F70120812093F1009701AC
:1009E0002F5F3F4F7901F70120812093F10097019C
:1009F0002F5F3F4F7901F70120812093F10097018C
:100A00002F5F3F4F7901F70120812093F10097017B
:100A10002F5F3F4F7901F70120812093F10097016B
:100A20002F5F3F4F7901F70120812093F10097015B
:100A30002F5F3F4F7901F70120812093F10097014B
:100A40002F5F3F4F7901F70120812093F10097013B
:100A50002F5F3F4F7901F70120812093F10097012B
:100A60002F5F3F4F7901F70120812093F10097011B
:100A70002F5F3F4F7901F70120812093F10097010B
:100A80002F5F3F4F7901F70120812093F1009701FB
:100A90002F5F3F4F7901F70120812093F1009701EB
:100AA0002F5F3F4F7901F70120812093F1009701DB
:100AB0002F5F3F4F7901F70120812093F1009701CB
:100AC0002F5F3F4F7901F70120812093F1009701BB
:100AD0002F5F3F4F7901F70120812093F1009701AB
:100AE0002F5F3F4F7901F70120812093F10097019B
:100AF0002F5F3F4F7901F70120812093F10097018B
:100B00002F5F3F4F7901F70120812093F10097017A
:100B10002F5F3F4F7901F70120812093F10097016A
:100B20002F5F3F4F7901F70120812093F10097015A
:100B30002F5F3F4F7901F70120812093F10097014A
:100B40002F5F3F4F7901F70120812093F10097013A
:100B50002F5F3F4F7901F70120812093F10097012A
:100B60002F5F3F4F7901F70120812093F10097011A
:100B70002F5F3F4F7901F70120812093F10097010A
:100B80002F5F3F4F7901F70120812093F1009701FA
:100B90002F5F3F4F79012091E80025FFD093E800B7
:100BA00010930A01C6CDAFBF80E0DF91CF911F91B6
:100BB000FF90EF9008958FB7F89490910A019923D0
:100BC00041F094E09093E9009AE39093E80010924A
:100BD0000A018FBF08958091040108958091050155
:100BE00008958091060108958091080108959FB7A6
:100BF000F89420910B01222339F022E02093E900A0
:100C00003091E80035FD03C09FBF8FEF089531EAB2
:100C10003093F10030E23093F1001092F100109225
:100C2000F1001092F1001092F1002093F100109267
:100C3000F1008093F1001092F1008AE38093E800C4
:100C40009FBF80E008951F920F920FB60F9211245C
:100C50008F939F938091E1001092E10083FF11C078
:100C60001092E90091E09093EB001092EC0092E179
:100C70009093ED0098E09093F00010920B01109289
:100C8000080182FF13C080910B01882379F08091C5
:100C90000A01882359F0815080930A01811106C00E
:100CA00084E08093E9008AE38093E8009F918F912C
:100CB0000F900FBE0F901F9018951F920F920FB6B6
:100CC0000F921124EF92FF920F931F932F933F9354
:100CD0004F935F936F937F938F939F93AF93BF9344
:100CE000EF93FF93CF93DF931F92CDB7DEB71092B0
:100CF000E9008091E80083FF14C19091F100809198
:100D0000F1003091F1002091F100E32EF12CF22A54
:100D10000091F1002091F10010E0122B2091F100E0
:100D20006091F10032EF3093E800863009F046C060
:100D300036E08CE491E0FC01459154914E155F053D
:100D400039F4FC013296459154914017510721F036
:100D50000796315081F7E5C0FC01349645915491D6
:100D6000FC013696849130E0362B2F3F310519F087
:100D700010F02FEF30E0281708F4822F3EEF90910B
:100D8000E800292F2570D9F392FDCEC0982F81312C
:100D900008F090E1FA01292F222331F06491609349
:100DA000F10021503196F8CF490F511D891B309326
:100DB000E8008111E4CF903111F3B6C0853051F4D1
:100DC0008EEF8093E8000E94BB028E2D8068809396
:100DD000E300AAC0893059F5911180C0E0920B015F
:100DE0001092080110920A018EEF8093E80041E012
:100DF00085EF91E04093E9009C012F5F3F4FFC019C
:100E000054915093EB00552359F0F901249120930C
:100E1000EC009C012D5F3F4F319684918093ED0053
:100E20004F5F453011F0C901E5CF8EE175C08830C4
:100E300051F4903809F052C00E94BB0280910B011E
:100E40008093F10047C0813279F4913A09F046C0AD
:100E50000E94BB02E0E0F1E081918093F10081E02B
:100E6000E730F807C9F736C0803299F49132B1F50E
:100E70008091E80082FFFCCFE0E0F1E08091F1009A
:100E8000819381E0E730F807C9F78BEF8093E800A2
:100E900021C0823241F4913209F043C0E09208014E
:100EA0000E94BB0217C0811119C099830E94BB0226
:100EB0009981923851F40093E9008091EB0085FB11
:100EC000882780F91092E90001C080E08093F1004A
:100ED0001092F1008EEF8093E80026C0282F2D7F1E
:100EE0002130F9F49230E9F4EF28D9F40F779FEF2D
:100EF000900F9430B0F49EEF9093E8000093E900D7
:100F0000833079F089E18093EB0081E090E0002E5E
:100F100001C0880F0A94EAF78093EA001092EA0071
:100F200003C081E28093EB000F90DF91CF91FF919E
:100F3000EF91BF91AF919F918F917F916F915F9151
:100F40004F913F912F911F910F91FF90EF900F9034
:100F50000FBE0F901F9018951F93CF93DF93EC0156
:100F6000FE011491112351F01A3019F48DE00E9402
:100F70001903812F0E9419032196F2CFDF91CF919F
:100F80001F9108958A3010F490E301C097E3890F10
:100F90000C941903CF93C82F82958F700E94C207BB
:100FA0008C2F8F70CF910C94C207CF93C82F892FAD
:100FB0000E94CA078C2FCF910C94CA070C94CA07C1
:100FC000EF92FF920F931F93CF93DF93CDB7DEB7CE
:100FD00027970FB6F894DEBF0FBECDBF8E010F5F0F
:100FE0001F4F27E0F80111922A95E9F74AE0B8016E
:100FF0000E94E20C7E01F8E0EF0EF11CF8018191F5
:101000008F0181110E9419030E151F05B9F727964C
:101010000FB6F894DEBF0FBECDBFDF91CF911F9109
:101020000F91FF90EF900895EF92FF920F931F930F
:10103000CF93DF9300D000D000D0CDB7DEB78E01C4
:101040000F5F1F4F26E0F80111922A95E9F74AE059
:10105000B8010E941E0D7E01F6E0EF0EF11CF801B2
:1010600081918F0181110E9419030E151F05B9F797
:1010700026960FB6F894DEBF0FBECDBFDF91CF919D
:101080001F910F91FF90EF900895EF92FF920F93B1
:101090001F93CF93DF93CDB7DEB72B970FB6F8949E
:1010A000DEBF0FBECDBF8E010F5F1F4F2BE0F801DB
:1010B00011922A95E9F72AE0A8010E94ED0C7E0121
:1010C000FCE0EF0EF11CF80181918F0181110E946B
:1010D00019030E151F05B9F72B960FB6F894DEBF4E
:1010E0000FBECDBFDF91CF911F910F91FF90EF9079
:1010F0000895EF92FF920F931F93CF93DF93CDB795
:10110000DEB72B970FB6F894DEBF0FBECDBF8E01B2
:101110000F5F1F4F2BE0F80111922A95E9F72AE0A3
:10112000A8010E94FC0C7E01FBE0EF0EF11CF8010F
:1011300081918F0181110E9419030E151F05B9F7C6
:101140002B960FB6F894DEBF0FBECDBFDF91CF91C7
:101150001F910F91FF90EF9008950E94C0020E948E
:101160001F017894E1E6F0E080E8808382E08083EC
:1011700081E08093750110920C01819A43E069E44B
:101180000E94C70184E687BD85B58B7F85BD85B587
:101190008D7F85BD85B5816085BD85B5877F85BD22
:1011A00084B5826084BD84B58E7F84BD509A84B539
:1011B0008F7D84BD84B5806184BDEEE6F0E08081E2
:1011C0008260808384E690E0909389008093880019
:1011D000E1E8F0E020812B7F208320812D7F208398
:1011E000208121602083208120612083208128604C
:1011F0002083E0E8F0E020812260208320812160CC
:10120000208320812062208320812F7E2083909361
:101210009B0080939A00E1E9F0E080818460808304
:1012200080818D7F808380818E7F808380818F7E8F
:101230008083808188608083E0E9F0E080818D7F19
:10124000808380818E7F80833E9AE1E7F0E0808119
:10125000826080830895CF93DF93C0E0D0E0BE0129
:10126000882777FD8095982F0E94150B2BED3FE086
:1012700049EC50E40E94A10B20E030E048E452E445
:101280000E947A0A0E94040C20E030E048E452E414
:101290000E94A10B20E030E048E452E40E94160ACC
:1012A0000E94E20AFE01EE0FFF1FEF5EFE4F718308
:1012B00060832196C233D10591F6DF91CF910895D5
:1012C00063E088E791E00E941F028091780190918D
:1012D0007901AA2797FDA095BA2F80930D019093CD
:1012E0000E01A0930F01B093100180917A018093B9
:1012F000770120910D0130910E0140910F01509125
:10130000100160E075E38CE090E00E949B0C27BD2B
:1013100008951F920F920FB60F9211248F93809110
:1013200076018F5F8093760180917601823310F091
:10133000109276018F910F900FBE0F901F9018950D
:101340001F920F920FB60F9211242F933F934F933A
:101350005F936F937F938F939F93AF93BF93EF931D
:10136000FF93269A6E9A7698899A0E9460098091D6
:10137000770120E5829FC00111249093990080930A
:1013800098001092950010929400FF91EF91BF91F8
:10139000AF919F918F917F916F915F914F913F910D
:1013A0002F910F900FBE0F901F9018951F920F92C4
:1013B0000FB60F921124269889986E9A769A0F90FC
:1013C0000FBE0F901F9018950E94AD080E942B0928
:1013D00024E630E0E0917601F0E0EE0FFF1FEF5ED3
:1013E000FE4F608171814091880050918900649F17
:1013F000C001659F900D749F900D1124B9010E944A
:10140000870C70938B0060938A0040918400509108
:10141000850080918A0090918B0084179507D0F603
:101420001092850010928400D5CF5058BB27AA2770
:101430000ED04DC13ED130F043D120F031F49F3F6A
:1014400011F41EF433C10EF4E095E7FB29C1E92F36
:101450004FD180F3BA17620773078407950718F016
:1014600071F49EF567C10EF4E0950B2EBA2FA02DF6
:101470000B01B90190010C01CA01A0011124FF2741
:10148000591B99F0593F50F4503E68F11A16F0403C
:10149000A22F232F342F4427585FF3CF469537953B
:1014A0002795A795F0405395C9F77EF41F16BA0B00
:1014B000620B730B840BBAF09150A1F0FF0FBB1FAE
:1014C000661F771F881FC2F70EC0BA0F621F731FF7
:1014D000841F48F4879577956795B795F7959E3F54
:1014E00008F0B3CF9395880F08F09927EE0F9795E2
:1014F000879508950CD0EBC0E3D040F0DAD030F0FF
:1015000021F45F3F19F0CCC0511115C1CFC0F0D00C
:1015100098F39923C9F35523B1F3951B550BBB27BA
:10152000AA2762177307840738F09F5F5F4F220F67
:10153000331F441FAA1FA9F333D00E2E3AF0E0E860
:1015400030D091505040E695001CCAF729D0FE2FAC
:1015500027D0660F771F881FBB1F2617370748073E
:10156000AB07B0E809F0BB0B802DBF01FF279358F4
:101570005F4F2AF09E3F510568F092C0DCC05F3F8C
:10158000ECF3983EDCF3869577956795B795F795DC
:101590009F5FC9F7880F911D9695879597F90895D4
:1015A000E1E0660F771F881FBB1F62177307840770
:1015B000BA0720F0621B730B840BBA0BEE1F88F77F
:1015C000E095089504D06894B111B5C0089598D0FD
:1015D00088F09F5790F0B92F9927B751A0F0D1F01C
:1015E000660F771F881F991F1AF0BA95C9F712C0A6
:1015F000B13081F09FD0B1E008959CC0672F782F63
:101600008827B85F39F0B93FCCF386957795679511
:10161000B395D9F73EF490958095709561957F4F7D
:101620008F4F9F4F0895E89409C097FB3EF4909523
:101630008095709561957F4F8F4F9F4F9923A9F0AB
:10164000F92F96E9BB279395F6958795779567953A
:10165000B795F111F8CFFAF4BB0F11F460FF1BC07E
:101660006F5F7F4F8F4F9F4F16C0882311F096E911
:1016700011C0772321F09EE8872F762F05C06623BF
:1016800071F096E8862F70E060E02AF09A95660F78
:10169000771F881FDAF7880F9695879597F9089531
:1016A00097F99F6780E870E060E008959FEF80EC15
:1016B000089500240A9416161706180609060895B8
:1016C00000240A9412161306140605060895092E1E
:1016D0000394000C11F4882352F0BB0F40F4BF2B8D
:1016E00011F460FF04C06F5F7F4F8F4F9F4F0895CD
:1016F00057FD9058440F551F59F05F3F71F04795C3
:10170000880F97FB991F61F09F3F79F087950895A7
:10171000121613061406551FF2CF4695F1DF08C0C6
:10172000161617061806991FF1CF869571056105E3
:1017300008940895E894BB2766277727CB0197F98B
:1017400008950BD0C4CFB5DF28F0BADF18F0952389
:1017500009F0A6CFABCF1124EECFCADFA0F3959F3F
:10176000D1F3950F50E0551F629FF001729FBB2788
:10177000F00DB11D639FAA27F00DB11DAA1F649F34
:101780006627B00DA11D661F829F2227B00DA11DE7
:10179000621F739FB00DA11D621F839FA00D611D6D
:1017A000221F749F3327A00D611D231F849F600D8E
:1017B000211D822F762F6A2F11249F5750408AF0C7
:1017C000E1F088234AF0EE0FFF1FBB1F661F771F53
:1017D000881F91505040A9F79E3F510570F060CF8F
:1017E000AACF5F3FECF3983EDCF38695779567953B
:1017F000B795F795E7959F5FC1F7FE2B880F911D71
:101800009695879597F908959F9305D00F9007FCBB
:10181000EE5F28C04BCF74DFE8F3E894E0E0BB272D
:101820009F57F0F02AED3FE049EC06C0EE0FBB0FEA
:10183000661F771F881F28F0B23A62077307840774
:1018400028F0B25A620B730B840BE3959A9572F7EA
:10185000803830F49A95BB0F661F771F881FD2F728
:10186000904813C0EF93E0FF06C0A2EA2AED3FE0E4
:1018700049EC5FEBECDD2BDF0F90039401FC9058FB
:10188000EEE2F1E00EC09F3F31F0915020F48795D9
:1018900077956795B795880F911D9695879597F9D8
:1018A00008959F938F937F936F93FF93EF939B0183
:1018B000AC0147DFEF91FF9105D02F913F914F9100
:1018C0005F913FCFDF93CF931F930F93FF92EF92E0
:1018D000DF927B018C01689405C0DA2EEF013DDFB9
:1018E000FE01E894A5912591359145915591AEF36E
:1018F000EF01ADDDFE019701A801DA9479F7DF90E1
:10190000EF90FF900F911F91CF91DF910895AA1B47
:10191000BB1B51E107C0AA1FBB1FA617B70710F0DA
:10192000A61BB70B881F991F5A95A9F7809590950C
:10193000BC01CD010895052E97FB1EF400940E9472
:10194000B20C57FD07D00E94C00C07FC03D04EF428
:101950000C94B20C50954095309521953F4F4F4FC8
:101960005F4F089590958095709561957F4F8F4F4B
:101970009F4F0895EE0FFF1F0590F491E02D0994FD
:10198000A1E21A2EAA1BBB1BFD010DC0AA1FBB1F83
:10199000EE1FFF1FA217B307E407F50720F0A21BF5
:1019A000B30BE40BF50B661F771F881F991F1A9462
:1019B00069F760957095809590959B01AC01BD018C
:1019C000CF010895BB274A3031F4992322F4BDE2B8
:1019D000909581959F4F0C941F0DBB272A3051F491
:1019E000992342F4BDE290958095709561957F4F63
:1019F0008F4F9F4F0C94FD0CBB27FA01A62F621747
:101A0000710581059105330B30FB66F0AA27660F3F
:101A1000771F881F991FAA1FA21710F0A21B63959A
:101A20003850A9F7A05DAA3308F0A95DA19336F755
:101A3000B111B1931082CA010C94380DBB27FB0180
:101A40005527AA27880F991FAA1FA41710F0A41BB7
:101A500083955051B9F7A05DAA3308F0A95DA19311
:101A6000009779F7B111B1931192CB010C94380D15
:101A7000DC01FC01672F71917723E1F7329704C0F5
:101A80007C916D9370836291AE17BF07C8F3089580
:041A9000F894FFCFF8
:081A940000E100000000080061
:00000001FF
