:100000000C940F010C942C010C942C010C942C01D9
:100010000C942C010C942C010C942C010C942C01AC
:100020000C942C010C942C010C9496040C94D00488
:100030000C942C010C942C010C942C010C942C018C
:100040000C942C010C942C010C942C010C942C017C
:100050000C942C010C942C010C942C010C942C016C
:100060000C942C010C942C010C942C010C942C015C
:100070000C942C010C942C010C942C010C942C014C
:100080000C942C010C942C010C942C010C942C013C
:100090000C942C010C942C010C942C010C942C012C
:1000A0000C942C010C942C010C942C013E0436046D
:1000B0002E0426041E0416040E040604FE03F60392
:1000C000EE03E603DE03D603CE03C603BE03B60388
:1000D000AE03A6039E0396038E0386037E03760378
:1000E0006E0366035E0356034E0346033E03360368
:1000F0002E0326031E0316030E030603FE02F6025A
:10010000EE02E602DE02D602CE02C602BE02B6024F
:10011000AE02A6029E0296028E0286027E0276023F
:100120006E0266025E0256024E0246023E02000166
:100130000000C5011200020000820143000300001C
:100140007E0104010309046A011202030904620129
:100150000603030904580108080334003100300085
:10016000000006034D003200000012034A002E007A
:1001700020004600690065006E0065000000040371
:10018000090409024300020100C032090400000111
:1001900002020100052400100105240101010424CC
:1001A0000206052406000107058203100040090429
:1001B0000100020A000000070503024000000705D5
:1001C00084024000001201000202000010C0167AF2
:1001D000040001010203010001C112018036018106
:1001E000362C002C002C002C002C002C002C002C79
:1001F000002C002C002C002C002C002C002C002C9F
:10020000002C002C002C002C002C002C002C002C8E
:10021000002C002C002C002C002C002C00001124A1
:100220001FBECFEFDAE0DEBFCDBF11E0A0E0B1E04E
:10023000E8E1F2E102C005900D92A434B107D9F7CC
:1002400021E0A4E4B1E001C01D92A834B207E1F7B7
:100250000E9433070C940A090C9400008091E80076
:1002600080FFFCCF089581E08093D70080EA8093DF
:10027000D80082E189BD09B400FEFDCF80E98093FA
:10028000D8001092E00010924701109244018CE0D7
:100290008093E200789408958091470108959FB774
:1002A000F89480914701882339F083E08093E90036
:1002B0008091E80085FD03C09FBF8FEF0895809176
:1002C000F1002091E80025FD03C02BE62093E80013
:1002D0009FBF08959FB7F89480914701882331F01C
:1002E00083E08093E9008091F20001C080E09FBF2D
:1002F000089580914701882371F08FB7F89493E0B7
:100300009093E9002BE69091E80095FF03C02093BD
:10031000E800F9CF8FBF089590914701992371F0BC
:100320009FB7F89424E02093E9002091450122230F
:1003300049F02091E80025FD03C09FBF8FEF08958D
:10034000109245012091E400275E34E04091E800DE
:1003500045FD12C09FBF9091E400921304C081E05C
:1003600080934501EBCF90914701992339F39FB7D3
:10037000F8943093E900EACF8093F1008091E8008F
:1003800085FD03C08AE38093E80085E08093460101
:100390009FBF80E00895909147019923D1F09FB7C6
:1003A000F89424E02093E9002091E80025FD02C0A4
:1003B0009FBF0FC08093F1008091E80085FD03C0CE
:1003C0008AE38093E80085E0809346019FBF80E048
:1003D00008958FEF0895EF92FF921F93CF93DF93CD
:1003E0007C01CB0120914701222371F0AFB7F89433
:1003F00024E02093E90020914501222349F0209137
:10040000E80025FD03C0AFBF8FEF42C21092450147
:10041000B4E0C0E4DAE315E0009709F437C22091B4
:10042000E400275E3091E80035FD12C0AFBF309187
:10043000E400321304C081E080934501E5CF3091A0
:100440004701332309F3AFB7F894B093E900EACF3B
:100450002091F2004C2F421B242F30E0821793078B
:1004600008F4482F841B910950E04134510508F0ED
:10047000FDC14A5A5F4FFA010C949E08F701208192
:100480002093F10097012F5F3F4F7901F701208101
:100490002093F10097012F5F3F4F7901F7012081F1
:1004A0002093F10097012F5F3F4F7901F7012081E1
:1004B0002093F10097012F5F3F4F7901F7012081D1
:1004C0002093F10097012F5F3F4F7901F7012081C1
:1004D0002093F10097012F5F3F4F7901F7012081B1
:1004E0002093F10097012F5F3F4F7901F7012081A1
:1004F0002093F10097012F5F3F4F7901F701208191
:100500002093F10097012F5F3F4F7901F701208180
:100510002093F10097012F5F3F4F7901F701208170
:100520002093F10097012F5F3F4F7901F701208160
:100530002093F10097012F5F3F4F7901F701208150
:100540002093F10097012F5F3F4F7901F701208140
:100550002093F10097012F5F3F4F7901F701208130
:100560002093F10097012F5F3F4F7901F701208120
:100570002093F10097012F5F3F4F7901F701208110
:100580002093F10097012F5F3F4F7901F701208100
:100590002093F10097012F5F3F4F7901F7012081F0
:1005A0002093F10097012F5F3F4F7901F7012081E0
:1005B0002093F10097012F5F3F4F7901F7012081D0
:1005C0002093F10097012F5F3F4F7901F7012081C0
:1005D0002093F10097012F5F3F4F7901F7012081B0
:1005E0002093F10097012F5F3F4F7901F7012081A0
:1005F0002093F10097012F5F3F4F7901F701208190
:100600002093F10097012F5F3F4F7901F70120817F
:100610002093F10097012F5F3F4F7901F70120816F
:100620002093F10097012F5F3F4F7901F70120815F
:100630002093F10097012F5F3F4F7901F70120814F
:100640002093F10097012F5F3F4F7901F70120813F
:100650002093F10097012F5F3F4F7901F70120812F
:100660002093F10097012F5F3F4F7901F70120811F
:100670002093F10097012F5F3F4F7901F70120810F
:100680002093F10097012F5F3F4F7901F7012081FF
:100690002093F10097012F5F3F4F7901F7012081EF
:1006A0002093F10097012F5F3F4F7901F7012081DF
:1006B0002093F10097012F5F3F4F7901F7012081CF
:1006C0002093F10097012F5F3F4F7901F7012081BF
:1006D0002093F10097012F5F3F4F7901F7012081AF
:1006E0002093F10097012F5F3F4F7901F70120819F
:1006F0002093F10097012F5F3F4F7901F70120818F
:100700002093F10097012F5F3F4F7901F70120817E
:100710002093F10097012F5F3F4F7901F70120816E
:100720002093F10097012F5F3F4F7901F70120815E
:100730002093F10097012F5F3F4F7901F70120814E
:100740002093F10097012F5F3F4F7901F70120813E
:100750002093F10097012F5F3F4F7901F70120812E
:100760002093F10097012F5F3F4F7901F70120811E
:100770002093F10097012F5F3F4F7901F70120810E
:100780002093F10097012F5F3F4F7901F7012081FE
:100790002093F10097012F5F3F4F7901F7012081EE
:1007A0002093F10097012F5F3F4F7901F7012081DE
:1007B0002093F10097012F5F3F4F7901F7012081CE
:1007C0002093F10097012F5F3F4F7901F7012081BE
:1007D0002093F10097012F5F3F4F7901F7012081AE
:1007E0002093F10097012F5F3F4F7901F70120819E
:1007F0002093F10097012F5F3F4F7901F70120818E
:100800002093F10097012F5F3F4F7901F70120817D
:100810002093F10097012F5F3F4F7901F70120816D
:100820002093F10097012F5F3F4F7901F70120815D
:100830002093F10097012F5F3F4F7901F70120814D
:100840002093F10097012F5F3F4F7901F70120813D
:100850002093F10097012F5F3F4F7901F70120812D
:100860002093F10097012F5F3F4F7901F70120811D
:100870002093F10097012F5F3F4F79012091E8000D
:1008800025FFD093E80010934601C6CDAFBF80E0AE
:10089000DF91CF911F91FF90EF9008958FB7F8945B
:1008A00090914601992341F094E09093E9009AE3F6
:1008B0009093E800109246018FBF08958091040143
:1008C0000895809105010895809106010895809111
:1008D000440108959FB7F89420914701222339F0ED
:1008E00022E02093E9003091E80035FD03C09FBF6E
:1008F0008FEF089531EA3093F10030E23093F10048
:100900001092F1001092F1001092F1001092F1009B
:100910002093F1001092F1008093F1001092F10009
:100920008AE38093E8009FBF80E008951F920F92B2
:100930000FB60F9211248F939F938091E100109234
:10094000E10083FF11C01092E90091E09093EB0069
:100950001092EC0092E19093ED0098E09093F000FB
:10096000109247011092440182FF13C08091470109
:10097000882379F080914601882359F08150809333
:100980004601811106C084E08093E9008AE38093E8
:10099000E8009F918F910F900FBE0F901F901895B8
:1009A0001F920F920FB60F921124EF92FF920F93A6
:1009B0001F932F933F934F935F936F937F938F93E7
:1009C0009F93AF93BF93EF93FF93CF93DF931F92C8
:1009D000CDB7DEB71092E9008091E80083FF14C123
:1009E0009091F1008091F1003091F1002091F1009F
:1009F000E32EF12CF22A0091F1002091F10010E099
:100A0000122B2091F1006091F10032EF3093E80059
:100A1000863009F046C036E08EE291E0FC01459157
:100A200054914E155F0539F4FC013296459154916D
:100A30004017510721F00796315081F7E5C0FC01BE
:100A4000349645915491FC013696849130E0362BD2
:100A50002F3F310519F010F02FEF30E0281708F480
:100A6000822F3EEF9091E800292F2570D9F392FD57
:100A7000CEC0982F813108F090E1FA01292F22236E
:100A800031F064916093F10021503196F8CF490F15
:100A9000511D891B3093E8008111E4CF903111F38F
:100AA000B6C0853051F48EEF8093E8000E942E018D
:100AB0008E2D80688093E300AAC0893059F591118A
:100AC00080C0E092470110924401109246018EEFDF
:100AD0008093E80041E087ED91E04093E9009C01BC
:100AE0002F5F3F4FFC0154915093EB00552359F079
:100AF000F90124912093EC009C012D5F3F4F31962A
:100B000084918093ED004F5F453011F0C901E5CF2E
:100B10008EE175C0883051F4903809F052C00E94BF
:100B20002E01809147018093F10047C0813279F412
:100B3000913A09F046C00E942E01E0E0F1E0819177
:100B40008093F10081E0E730F807C9F736C08032C2
:100B500099F49132B1F58091E80082FFFCCFE0E09A
:100B6000F1E08091F100819381E0E730F807C9F767
:100B70008BEF8093E80021C0823241F4913209F07A
:100B800043C0E09244010E942E0117C0811119C098
:100B900099830E942E019981923851F40093E900C3
:100BA0008091EB0085FB882780F91092E90001C055
:100BB00080E08093F1001092F1008EEF8093E800C6
:100BC00026C0282F2D7F2130F9F49230E9F4EF2848
:100BD000D9F40F779FEF900F9430B0F49EEF90937D
:100BE000E8000093E900833079F089E18093EB001D
:100BF00081E090E0002E01C0880F0A94EAF780930C
:100C0000EA001092EA0003C081E28093EB000F90AB
:100C1000DF91CF91FF91EF91BF91AF919F918F9114
:100C20007F916F915F914F913F912F911F910F9104
:100C3000FF90EF900F900FBE0F901F9018951F938D
:100C4000CF93DF93EC01FE011491112351F01A3080
:100C500019F48DE00E948C01812F0E948C01219655
:100C6000F2CFDF91CF911F9108958A3010F490E375
:100C700001C097E3890F0C948C01CF93C82F829504
:100C80008F700E9435068C2F8F70CF910C94350693
:100C9000CF93C82F892F0E943D068C2FCF910C94A3
:100CA0003D060C943D06EF92FF920F931F93CF9356
:100CB000DF93CDB7DEB727970FB6F894DEBF0FBE30
:100CC000CDBF8E010F5F1F4F27E0F80111922A95CB
:100CD000E9F74AE0B8010E94A4087E01F8E0EF0EAF
:100CE000F11CF80181918F0181110E948C010E1578
:100CF0001F05B9F727960FB6F894DEBF0FBECDBF1C
:100D0000DF91CF911F910F91FF90EF900895EF9297
:100D1000FF920F931F93CF93DF9300D000D000D0AA
:100D2000CDB7DEB78E010F5F1F4F26E0F80111929D
:100D30002A95E9F74AE0B8010E94E0087E01F6E052
:100D4000EF0EF11CF80181918F0181110E948C013D
:100D50000E151F05B9F726960FB6F894DEBF0FBE25
:100D6000CDBFDF91CF911F910F91FF90EF9008952C
:100D7000EF92FF920F931F93CF93DF93CDB7DEB720
:100D80002B970FB6F894DEBF0FBECDBF8E010F5F5D
:100D90001F4F2BE0F80111922A95E9F72AE0A801EC
:100DA0000E94AF087E01FCE0EF0EF11CF80181917A
:100DB0008F0181110E948C010E151F05B9F72B962A
:100DC0000FB6F894DEBF0FBECDBFDF91CF911F915C
:100DD0000F91FF90EF900895EF92FF920F931F9362
:100DE000CF93DF93CDB7DEB72B970FB6F894DEBF66
:100DF0000FBECDBF8E010F5F1F4F2BE0F801119288
:100E00002A95E9F72AE0A8010E94BE087E01FBE0CE
:100E1000EF0EF11CF80181918F0181110E948C016C
:100E20000E151F05B9F72B960FB6F894DEBF0FBE4F
:100E3000CDBFDF91CF911F910F91FF90EF9008955B
:100E400080E88093610086E0809361000E94330116
:100E50006E9A76980E944C018823E1F36A9A729800
:100E60006E9A769A08950E94200780912F019091A2
:100E700030010E9487068BE192E00E941F060E94CB
:100E80004E0480913101909132010E94870689E1E0
:100E900092E00E941F060E944E04809133019091BF
:100EA00034010E94870687E192E00E941F060E949B
:100EB0004E0480913501909136010E94870685E1AC
:100EC00092E00E941F060E944E048091370190918B
:100ED00038010E94870683E192E00E941F060E946B
:100EE0004E048091390190913A010E94870681E178
:100EF00092E00E941F060E944E0480913B01909157
:100F00003C010E9487068FE092E00E941F060E942B
:100F10004E0480913D0190913E010E9487068DE034
:100F200092E00E941F060E944E0480913F01909122
:100F300040010E9487068BE092E00E941F060E94FB
:100F40004E0480914101909142010E94870689E000
:100F500092E00E941F060E944E0480911B01909116
:100F60001C010E94870687E092E00E941F060E94F3
:100F70004E0480911D0190911E010E94870685E01C
:100F800092E00E941F060E944E0480911F019091E2
:100F900020010E94870683E092E00E941F060E94C3
:100FA0004E0480912101909122010E94870681E0E8
:100FB00092E00E941F060E944E04809123019091AE
:100FC00024010E9487068FEF91E00E941F060E9475
:100FD0004E0480912501909126010E9487068DEF95
:100FE00091E00E941F060E944E048091270190917B
:100FF00028010E9487068BEF91E00E941F060E9445
:101000004E048091290190912A010E94870689EF60
:1010100091E00E941F060E944E0480912B01909146
:101020002C010E94870687EF91E00E941F060E9414
:101030004E0480912D0190912E010E94870685EF2C
:1010400091E00E941F060E944E048091070190913A
:1010500008010E94870683EF91E00E941F060E940C
:101060004E048091090190910A010E94870681EF48
:1010700091E00E941F060E944E0480910B01909106
:101080000C010E9487068FEE91E00E941F060E94CD
:101090004E0480910D0190910E010E9487068DEE05
:1010A00091E00E941F060E944E0480910F019091D2
:1010B00010010E9487068BEE91E00E941F060E949D
:1010C0004E0480911101909112010E94870689EED1
:1010D00091E00E941F060E944E048091130190919E
:1010E00014010E94870687EE91E00E941F060E946D
:1010F0004E0480911501909116010E94870685EE9D
:1011000091E00E941F060E944E0480911701909169
:1011100018010E94870683EE91E00E941F060E943C
:101120004E048091190190911A010E94870681EE68
:1011300091E00E941F060E944E0497CEEE0FFF1F03
:101140000590F491E02D0994BB274A3031F499239E
:1011500022F4BDE2909581959F4F0C94E108BB2746
:101160002A3051F4992342F4BDE290958095709510
:1011700061957F4F8F4F9F4F0C94BF08BB27FA019B
:10118000A62F6217710581059105330B30FB66F0C0
:10119000AA27660F771F881F991FAA1FA21710F092
:1011A000A21B63953850A9F7A05DAA3308F0A95D8A
:1011B000A19336F7B111B1931082CA010C94FA08C9
:1011C000BB27FB015527AA27880F991FAA1FA41721
:1011D00010F0A41B83955051B9F7A05DAA3308F015
:1011E000A95DA193009779F7B111B1931192CB0149
:1011F0000C94FA08DC01FC01672F71917723E1F769
:10120000329704C07C916D9370836291AE17BF07D3
:08121000C8F30895F894FFCF24
:1012180000E10000000008E80303004B001E00780E
:101228000000000000000000000000E80302009633
:10123800004600780000000000000000000000E800
:101248000301003200640078000000000000000084
:041258000000000092
:00000001FF
