:100000000C9410010C942D010C942D010C942D01D5
:100010000C942D010C942D010C942D010C942D01A8
:100020000C942D010C942D010C947F080C94B908AC
:100030000C942D010C942D010C942D010C942D0188
:100040000C942D010C942D010C942D010C942D0178
:100050000C942D010C942D010C942D010C942D0168
:100060000C942D010C942D010C942D010C942D0158
:100070000C942D010C9473010C942D010C942D0102
:100080000C942D010C942D010C942D010C942D0138
:100090000C942D010C942D010C942D010C942D0128
:1000A0000C942D010C942D010C942D01B301B5017C
:1000B000B701BE01C501D101DD01EE0127081F080E
:1000C00017080F080708FF07F707EF07E707DF071D
:1000D000D707CF07C707BF07B707AF07A7079F0710
:1000E00097078F0787077F0777076F0767075F0700
:1000F00057074F0747073F0737072F0727071F07F0
:1001000017070F070707FF06F706EF06E706DF06E4
:10011000D706CF06C706BF06B706AF06A7069F06D7
:1001200097068F0687067F0677066F0667065F06C7
:1001300057064F0647063F0637062F0627060900D3
:1001400009443A20000949523A200009494C3A2012
:100150000009544C3A2000094C3A200009423A2048
:100160000009523A20000A54523A200000010000CF
:1001700003021200020000C0014300030000BC01A2
:100180000401030904A8011202030904A0010603E3
:100190000309049601080803340031003000000010
:1001A00006034D003200000012034A002E0020001A
:1001B0004600690065006E00650000000403090444
:1001C00009024300020100C03209040000010202DA
:1001D0000100052400100105240101010424020688
:1001E00005240600010705820310004009040100F0
:1001F000020A000000070503024000000705840210
:100200004000001201000202000010C0167A040033
:1002100001010203010001C1120180360181360093
:1002200011241FBECFEFDAE0DEBFCDBF11E0A0E0AA
:10023000B1E0E2E5FBE102C005900D92A830B10704
:10024000D9F721E0A8E0B1E001C01D92A032B207C9
:10025000E1F70E94B10C0C94A70D0C940000CF9311
:10026000E1E6F0E0C0E8C08310820E941C05C5BF33
:10027000C5BF7894CF910895ECE7F0E080818F7B43
:100280008083808180688083AAE7B0E08C9184605D
:100290008C938C9182608C938C9181608C93EEE72F
:1002A000F0E08081816080838081826080838081B2
:1002B000806180838081806280838081806480838C
:1002C000808180688083EDE7F0E0808181608083B9
:1002D0008081826080838C9188608C938C918F7DEB
:1002E0008C93089508951F920F920FB60F921124C8
:1002F0002F933F938F939F93EF93FF9380917A0077
:100300008F7780937A008091080190910901209164
:10031000780030917900FC01EE0FFF1FE65FFE4F81
:10032000318320838730910559F41092090110928E
:10033000080181E090E090931B0180931A0105C0B1
:1003400001969093090180930801E0910801F091D2
:100350000901E830F10508F053C0EA5AFF4F8091D7
:100360007C000C943B0D8F7D29C08F7D38C08F7D24
:1003700080937C0080917C00846025C08F7D809379
:100380007C0080917C0084602FC08F7D80937C00F6
:1003900080917C00846080937C0080917C008260EE
:1003A00017C08F7D80937C0080917C008460809357
:1003B0007C0080917C0082601CC0806280937C0005
:1003C00080917C008B7F80937C0080917C008D7F6E
:1003D00080937C0080917C008E7F10C0806280932F
:1003E0007C0080917C008B7F80937C0080917C00DE
:1003F0008D7F80937C0080917C00816080937C0065
:1004000080917A00806880937A0080917A0080647D
:1004100080937A00FF91EF919F918F913F912F915F
:100420000F900FBE0F901F901895589A599A5A9A8C
:100430008CE08093B800E9E6F0E080818062808300
:1004400080818F7E8083EA9A7894089584E88093EF
:10045000BC008091BC0087FFFCCF8091BB00089559
:1004600084E98093BC00089520E030E08091BC00D6
:1004700087FD06C02F5F3F4F293E83E03807B1F765
:1004800081E0283E334009F480E008958093BB006A
:1004900084E88093BC000E943402882321F080917C
:1004A000B900887F089580E008951F93CF93DF936C
:1004B0001F92CDB7DEB7182F84EA8093BC00698302
:1004C0000E9434026981811104C094E99093BC00B8
:1004D00014C0812F880F662331F08F5F0E9446027F
:1004E000883451F404C00E944602803229F484E921
:1004F0008093BC0080E001C081E00F90DF91CF913C
:100500001F910895CF93DF93C82FD62F60E00E94EC
:100510005502882391F08D2F0E944602882369F0AE
:1005200084E98093BC0061E08C2F0E9455028823EF
:1005300021F0DF91CF910C94260280E0DF91CF91E2
:100540000895CF93DF93D62FC42F60E00E94550209
:10055000811102C080E00EC08D2F0E9446028823C8
:10056000C9F38C2F0E9446028823A1F384E980936B
:10057000BC0081E0DF91CF910895CF93DF93D82F16
:10058000C62F843010F080E05BC06430E0F70E943A
:1005900015022FEF85EA9EE0215080409040E1F760
:1005A00000C0000065E789E60E948202883659F79C
:1005B00041E06BE689E60E94A1024D2F440F440FF3
:1005C000440F6CE189E60E94A1024C2F440F440FB6
:1005D000440F6BE189E60E94A10242E067E389E6ED
:1005E0000E94A10240E062E08EE10E94A10240E090
:1005F00067E389E60E94A1024EE164E389E60E9476
:10060000A10241E067E689E60E94A1024DE164E2B1
:1006100089E60E94A1024EE965E289E60E94A102F4
:1006200043E066E289E60E94A10246E967E289E6C4
:100630000E94A10240E26AE689E60E94A10281E0EE
:10064000DF91CF910895EF92FF920F931F93CF9375
:10065000DF93CDB7DEB765970FB6F894DEBF0FBE58
:10066000CDBF8C01CE0101967C019EE4692F89E605
:100670009D8B0E948202F70181937F019D89915099
:100680009A33A1F78F859889F801958384838F81A8
:1006900098859387828789819A81918B808B8989BC
:1006A0009A899383828389859A85918780878B81B4
:1006B0009C81978786878B899C89918380838B8592
:1006C0009C85978386838D819E819587848781E031
:1006D00065960FB6F894DEBF0FBECDBFDF91CF9108
:1006E0001F910F91FF90EF900895EF92FF920F935B
:1006F0001F93CF93DF93CDB7DEB727970FB6F8944C
:10070000DEBF0FBECDBF8C01CE0101967C0190E40F
:10071000692F89E69F830E948202F70181937F01FE
:100720009F8191509A33A1F789819A81F80195832D
:1007300084838B819C81938382838D819E8191832D
:10074000808381E027960FB6F894DEBF0FBECDBF41
:10075000DF91CF911F910F91FF90EF900895EF924D
:10076000FF920F931F93CF93DF93CDB7DEB72797F9
:100770000FB6F894DEBF0FBECDBF8C01CE0101963F
:100780007C0198E4692F89E69F830E948202F70129
:1007900081937F019F8191509234A1F789819A8141
:1007A000F801958384838B819C81938382838D81DF
:1007B0009E819183808381E027960FB6F894DEBFF7
:1007C0000FBECDBFDF91CF911F910F91FF90EF90A2
:1007D0000895EF92FF920F931F93CF93DF93CDB7BE
:1007E000DEB727970FB6F894DEBF0FBECDBF8C01E2
:1007F000CE0101967C019EE4692F89E69F830E94C9
:100800008202F70181937F019F8191509834A1F773
:1008100089819A81F801958384838B819C8193835C
:1008200082838D819E819183808381E027960FB69C
:10083000F894DEBF0FBECDBFDF91CF911F910F9116
:10084000FF90EF900895CF93DF9300D01F92CDB724
:10085000DEB74B836A8389830E94150294EA9093E2
:10086000BC0089816A814B819091BC0097FFFCCFCD
:1008700090E59093BB0094E89093BC009091BC00ED
:1008800097FFFCCF9091B900987F903229F484E9CA
:100890008093BC0080E029C091E09093BB0094E875
:1008A0009093BC009091BC0097FFFCCF8093BB005D
:1008B00084E88093BC008091BC0087FFFCCF6093EC
:1008C000BB0084E88093BC008091BC0087FFFCCF14
:1008D0004093BB0084E88093BC008091BC0087FFFC
:1008E000FCCF84E98093BC0081E00F900F900F90C3
:1008F000DF91CF91089524EA2093BC002091BC00A1
:1009000027FFFCCF21E52093BB0024E82093BC0007
:100910002091BC0027FFFCCF2091B900287F28340C
:10092000A9F024EC2093BC002091BC0027FFFCCF51
:100930002091BB0026130AC0FC0120E030E077279D
:1009400067FD70956150710944EC0EC084E9809395
:10095000BC0080E008955091BC0057FFFCCF50913F
:10096000BB0051932F5F3F4F261737071CF440936E
:10097000BC00F1CF44E84093BC004091BC0047FF6D
:10098000FCCF4091BB00FC01E20FF31F408384E9E0
:100990008093BC0081E00895F89494EA9093BC00A1
:1009A0009091BC0097FFFCCF90E59093BB0094E83A
:1009B0009093BC009091BC0097FFFCCF9091B90040
:1009C000987F903231F484E98093BC00789480E081
:1009D000089593E09093BB0094E89093BC009091AD
:1009E000BC0097FFFCCF8093BB0084E88093BC00E1
:1009F0008091BC0087FFFCCFFB01552747FD509538
:100A000024E8CF01861B970B8417950754F4819136
:100A10008093BB002093BC008091BC0087FFFCCF7B
:100A2000F0CF84E98093BC00789481E008958091B0
:100A3000E80080FFFCCF089581E08093D70080EA32
:100A40008093D80082E189BD09B400FEFDCF80E922
:100A50008093D8001092E00010921F0110921C01A8
:100A60008CE08093E2007894089580911F010895AE
:100A70009FB7F89480911F01882339F083E0809319
:100A8000E9008091E80085FD03C09FBF8FEF0895C6
:100A90008091F1002091E80025FD03C02BE6209312
:100AA000E8009FBF08959FB7F89480911F018823A5
:100AB00031F083E08093E9008091F20001C080E092
:100AC0009FBF089580911F01882371F08FB7F8941C
:100AD00093E09093E9002BE69091E80095FF03C026
:100AE0002093E800F9CF8FBF089590911F019923BB
:100AF00071F09FB7F89424E02093E90020911D0144
:100B0000222349F02091E80025FD03C09FBF8FEF0D
:100B1000089510921D012091E400275E34E0409179
:100B2000E80045FD12C09FBF9091E400921304C0FD
:100B300081E080931D01EBCF90911F01992339F340
:100B40009FB7F8943093E900EACF8093F100809149
:100B5000E80085FD03C08AE38093E80085E0809388
:100B60001E019FBF80E0089590911F019923D1F04D
:100B70009FB7F89424E02093E9002091E80025FD38
:100B800002C09FBF0FC08093F1008091E80085FDF7
:100B900003C08AE38093E80085E080931E019FBF35
:100BA00080E008958FEF0895EF92FF921F93CF9307
:100BB000DF937C01CB0120911F01222371F0AFB79D
:100BC000F89424E02093E90020911D01222349F0AC
:100BD0002091E80025FD03C0AFBF8FEF42C2109205
:100BE0001D01B4E0C0E4DAE315E0009709F437C270
:100BF0002091E400275E3091E80035FD12C0AFBFC0
:100C00003091E400321304C081E080931D01E5CFF0
:100C100030911F01332309F3AFB7F894B093E90083
:100C2000EACF2091F2004C2F421B242F30E0821794
:100C3000930708F4482F841B910950E04134510573
:100C400008F0FDC1425A5F4FFA010C943B0DF701C9
:100C500020812093F10097012F5F3F4F7901F70129
:100C600020812093F10097012F5F3F4F7901F70119
:100C700020812093F10097012F5F3F4F7901F70109
:100C800020812093F10097012F5F3F4F7901F701F9
:100C900020812093F10097012F5F3F4F7901F701E9
:100CA00020812093F10097012F5F3F4F7901F701D9
:100CB00020812093F10097012F5F3F4F7901F701C9
:100CC00020812093F10097012F5F3F4F7901F701B9
:100CD00020812093F10097012F5F3F4F7901F701A9
:100CE00020812093F10097012F5F3F4F7901F70199
:100CF00020812093F10097012F5F3F4F7901F70189
:100D000020812093F10097012F5F3F4F7901F70178
:100D100020812093F10097012F5F3F4F7901F70168
:100D200020812093F10097012F5F3F4F7901F70158
:100D300020812093F10097012F5F3F4F7901F70148
:100D400020812093F10097012F5F3F4F7901F70138
:100D500020812093F10097012F5F3F4F7901F70128
:100D600020812093F10097012F5F3F4F7901F70118
:100D700020812093F10097012F5F3F4F7901F70108
:100D800020812093F10097012F5F3F4F7901F701F8
:100D900020812093F10097012F5F3F4F7901F701E8
:100DA00020812093F10097012F5F3F4F7901F701D8
:100DB00020812093F10097012F5F3F4F7901F701C8
:100DC00020812093F10097012F5F3F4F7901F701B8
:100DD00020812093F10097012F5F3F4F7901F701A8
:100DE00020812093F10097012F5F3F4F7901F70198
:100DF00020812093F10097012F5F3F4F7901F70188
:100E000020812093F10097012F5F3F4F7901F70177
:100E100020812093F10097012F5F3F4F7901F70167
:100E200020812093F10097012F5F3F4F7901F70157
:100E300020812093F10097012F5F3F4F7901F70147
:100E400020812093F10097012F5F3F4F7901F70137
:100E500020812093F10097012F5F3F4F7901F70127
:100E600020812093F10097012F5F3F4F7901F70117
:100E700020812093F10097012F5F3F4F7901F70107
:100E800020812093F10097012F5F3F4F7901F701F7
:100E900020812093F10097012F5F3F4F7901F701E7
:100EA00020812093F10097012F5F3F4F7901F701D7
:100EB00020812093F10097012F5F3F4F7901F701C7
:100EC00020812093F10097012F5F3F4F7901F701B7
:100ED00020812093F10097012F5F3F4F7901F701A7
:100EE00020812093F10097012F5F3F4F7901F70197
:100EF00020812093F10097012F5F3F4F7901F70187
:100F000020812093F10097012F5F3F4F7901F70176
:100F100020812093F10097012F5F3F4F7901F70166
:100F200020812093F10097012F5F3F4F7901F70156
:100F300020812093F10097012F5F3F4F7901F70146
:100F400020812093F10097012F5F3F4F7901F70136
:100F500020812093F10097012F5F3F4F7901F70126
:100F600020812093F10097012F5F3F4F7901F70116
:100F700020812093F10097012F5F3F4F7901F70106
:100F800020812093F10097012F5F3F4F7901F701F6
:100F900020812093F10097012F5F3F4F7901F701E6
:100FA00020812093F10097012F5F3F4F7901F701D6
:100FB00020812093F10097012F5F3F4F7901F701C6
:100FC00020812093F10097012F5F3F4F7901F701B6
:100FD00020812093F10097012F5F3F4F7901F701A6
:100FE00020812093F10097012F5F3F4F7901F70196
:100FF00020812093F10097012F5F3F4F7901F70186
:1010000020812093F10097012F5F3F4F7901F70175
:1010100020812093F10097012F5F3F4F7901F70165
:1010200020812093F10097012F5F3F4F7901F70155
:1010300020812093F10097012F5F3F4F7901F70145
:1010400020812093F10097012F5F3F4F790120917C
:10105000E80025FFD093E80010931E01C6CDAFBF76
:1010600080E0DF91CF911F91FF90EF9008958FB7AF
:10107000F89490911E01992341F094E09093E90037
:101080009AE39093E80010921E018FBF089580911B
:101090000401089580910501089580910601089545
:1010A00080911C0108959FB7F89420911F0122237D
:1010B00039F022E02093E9003091E80035FD03C0CB
:1010C0009FBF8FEF089531EA3093F10030E2309303
:1010D000F1001092F1001092F1001092F1001092C4
:1010E000F1002093F1001092F1008093F100109232
:1010F000F1008AE38093E8009FBF80E008951F928B
:101100000F920FB60F9211248F939F938091E1005D
:101110001092E10083FF11C01092E90091E09093DA
:10112000EB001092EC0092E19093ED0098E0909328
:10113000F00010921F0110921C0182FF13C08091D9
:101140001F01882379F080911E01882359F0815076
:1011500080931E01811106C084E08093E9008AE338
:101160008093E8009F918F910F900FBE0F901F907A
:1011700018951F920F920FB60F921124EF92FF92C3
:101180000F931F932F933F934F935F936F937F938F
:101190008F939F93AF93BF93EF93FF93CF93DF937F
:1011A0001F92CDB7DEB71092E9008091E80083FF6F
:1011B00014C19091F1008091F1003091F1002091E3
:1011C000F100E32EF12CF22A0091F1002091F100C0
:1011D00010E0122B2091F1006091F10032EF30937A
:1011E000E800863009F046C036E08CE691E0FC016C
:1011F000459154914E155F0539F4FC0132964591A5
:1012000054914017510721F00796315081F7E5C0FE
:10121000FC01349645915491FC013696849130E05E
:10122000362B2F3F310519F010F02FEF30E0281743
:1012300008F4822F3EEF9091E800292F2570D9F312
:1012400092FDCEC0982F813108F090E1FA01292F4C
:10125000222331F064916093F10021503196F8CF50
:10126000490F511D891B3093E8008111E4CF903163
:1012700011F3B6C0853051F48EEF8093E8000E94E0
:1012800017058E2D80688093E300AAC0893059F538
:10129000911180C0E0921F0110921C0110921E015A
:1012A0008EEF8093E80041E085E192E04093E90011
:1012B0009C012F5F3F4FFC0154915093EB0055234D
:1012C00059F0F90124912093EC009C012D5F3F4FD0
:1012D000319684918093ED004F5F453011F0C90144
:1012E000E5CF8EE175C0883051F4903809F052C0D6
:1012F0000E94170580911F018093F10047C0813241
:1013000079F4913A09F046C00E941705E0E0F1E057
:1013100081918093F10081E0E730F807C9F736C08A
:10132000803299F49132B1F58091E80082FFFCCFD0
:10133000E0E0F1E08091F100819381E0E730F8078F
:10134000C9F78BEF8093E80021C0823241F49132DB
:1013500009F043C0E0921C010E94170517C08111DB
:1013600019C099830E9417059981923851F400930E
:10137000E9008091EB0085FB882780F91092E90055
:1013800001C080E08093F1001092F1008EEF809315
:10139000E80026C0282F2D7F2130F9F49230E9F49F
:1013A000EF28D9F40F779FEF900F9430B0F49EEFB1
:1013B0009093E8000093E900833079F089E180930D
:1013C000EB0081E090E0002E01C0880F0A94EAF75C
:1013D0008093EA001092EA0003C081E28093EB0060
:1013E0000F90DF91CF91FF91EF91BF91AF919F91BE
:1013F0008F917F916F915F914F913F912F911F91AD
:101400000F91FF90EF900F900FBE0F901F901895C7
:101410001F93CF93DF93EC01FE011491112351F040
:101420001A3019F48DE00E947505812F0E94750510
:101430002196F2CFDF91CF911F9108958A3010F459
:1014400090E301C097E3890F0C947505CF93C82FE3
:1014500082958F700E941E0A8C2F8F70CF910C94F2
:101460001E0ACF93C82F892F0E94260A8C2FCF9156
:101470000C94260A0C94260AEF92FF920F931F9366
:10148000CF93DF93CDB7DEB727970FB6F894DEBFC3
:101490000FBECDBF8E010F5F1F4F27E0F8011192E5
:1014A0002A95E9F74AE0B8010E94410D7E01F8E073
:1014B000EF0EF11CF80181918F0181110E947505D9
:1014C0000E151F05B9F727960FB6F894DEBF0FBEAD
:1014D000CDBFDF91CF911F910F91FF90EF900895B5
:1014E000EF92FF920F931F93CF93DF9300D000D022
:1014F00000D0CDB7DEB78E010F5F1F4F26E0F80199
:1015000011922A95E9F74AE0B8010E947D0D7E010B
:10151000F6E0EF0EF11CF80181918F0181110E941C
:1015200075050E151F05B9F726960FB6F894DEBFA0
:101530000FBECDBFDF91CF911F910F91FF90EF9024
:101540000895EF92FF920F931F93CF93DF93CDB740
:10155000DEB72B970FB6F894DEBF0FBECDBF8E015E
:101560000F5F1F4F2BE0F80111922A95E9F72AE04F
:10157000A8010E944C0D7E01FCE0EF0EF11CF80169
:1015800081918F0181110E9475050E151F05B9F714
:101590002B960FB6F894DEBF0FBECDBFDF91CF9173
:1015A0001F910F91FF90EF900895EF92FF920F938C
:1015B0001F93CF93DF93CDB7DEB72B970FB6F89479
:1015C000DEBF0FBECDBF8E010F5F1F4F2BE0F801B6
:1015D00011922A95E9F72AE0A8010E945B0D7E018D
:1015E000FBE0EF0EF11CF80181918F0181110E9447
:1015F00075050E151F05B9F72B960FB6F894DEBFCB
:101600000FBECDBFDF91CF911F910F91FF90EF9053
:10161000089520E030E08091BC0087FD06C02F5F78
:101620003F4F293E83E03807B1F781E0283E334041
:1016300009F480E008958093BB0084E88093BC00A7
:101640000E94090B882319F08091B900887F0895C2
:10165000CF93C82F84EA8093BC000E94090B882393
:1016600061F08C2F880F0E941B0B803229F484E9D3
:101670008093BC0080E001C081E0CF9108950E947A
:10168000150288E50E94280B811102C080E00895B0
:1016900080E30E941B0B8823C9F381E00E941B0B8F
:1016A0008823A1F384E98093BC008FE39CE9019730
:1016B000F1F700C0000088E50E94280B882331F371
:1016C00080E00E941B0B882309F380E00E941B0B23
:1016D0008823E1F280E00E941B0B8823B9F280E0AE
:1016E0000E941B0B882391F280E00E941B0B882331
:1016F00069F280E00E941B0B882341F280E00E9487
:101700001B0B882319F280E90E941B0B882309F424
:10171000BDCF84E98093BC008FE39CE90197F1F78A
:1017200000C0000088E50E94280B882309F4AECF92
:1017300087E00E941B0B882309F4A8CF80E00E9459
:101740001B0B882309F4A2CF81E40E941B0B882382
:1017500009F49CCF84E98093BC008FE39CE9019756
:10176000F1F700C0000088E50E94280B882309F4E7
:101770008DCF8AE10E941B0B882309F487CF80E478
:101780000E941B0B882309F481CF80E00E941B0B71
:10179000882309F47BCF84E98093BC008FE39CE924
:1017A0000197F1F700C0000088E50E94280B88230C
:1017B00009F46CCF83E30E941B0B882309F466CFE6
:1017C00083E00E941B0B882309F460CF84E9809397
:1017D000BC008FE39CE90197F1F700C0000088E5A9
:1017E0000E94280B882309F451CF80E30E941B0B31
:1017F000882309F44BCF88E00E941B0B882309F44F
:1018000045CF84E98093BC008FE39CE90197F1F711
:1018100000C0000081E00895CF93C82F84EA809330
:10182000BC000E94090B882369F08C2F880F8F5F02
:101830000E941B0B883429F484E98093BC0080E06B
:1018400001C081E0CF910895EF92FF920F931F9313
:10185000CF93DF93CDB7DEB760970FB6F894DEBFB6
:101860000FBECDBF7C018E010F5F1F4F80E1F801DD
:1018700011928A95E9F788E50E94280B811102C030
:1018800080E05EC086E30E941B0B8823C9F384E9D5
:101890008093BC00F5E8FA95F1F7000088E50E9416
:1018A0000C0C882369F3F8019E01205F3F4F94ECF4
:1018B0009093BC008091BC0087FFFCCF8091BB005F
:1018C0008193E217F307A1F784E88093BC0080912D
:1018D000BC0087FFFCCF8091BB00888B84E980939C
:1018E000BC00DE01149687016C91762F7073AD01F8
:1018F00042505109FA01808190E0F0E17F9F800D14
:10190000911D1124F80191838083762F707C4F5FA5
:101910005F4FFA01808190E0F4E07F9F800D911D80
:101920001124F801938382836F70862F90E0958352
:10193000848313960A5F1F4FA217B307A9F681E0AD
:1019400060960FB6F894DEBF0FBECDBFDF91CF918A
:101950001F910F91FF90EF90089584E98093BC0050
:1019600008950E942F010E943C0180917A008068B6
:1019700080937A0080917A00806480937A00C0E43A
:1019800080911A0190911B01892BD1F36E9A8EB12F
:101990008C278EB980917A008F7780937A0086E6C3
:1019A00091E00E94080A80910A0190910B010E9427
:1019B0003C0A81E691E00E94080A80910C01909116
:1019C0000D010E943C0A8CE591E00E94080A80917A
:1019D0000E0190910F010E943C0A87E591E00E9460
:1019E000080A80911001909111010E943C0A81E542
:1019F00091E00E94080A80911201909113010E94C7
:101A00003C0A8BE491E00E94080A809114019091B5
:101A100015010E943C0A85E491E00E94080A809129
:101A20001601909117010E943C0A80E491E00E9407
:101A3000080A80911801909119010E943C0A8EE3D6
:101A400091E00E94080A2FEF83EC99E0215080403A
:101A50009040E1F700C0000010921B0110921A01A3
:101A600080917A00806880937A0080917A00806407
:101A700080937A0085CFEE0FFF1F0590F491E02D43
:101A80000994BB274A3031F4992322F4BDE29095A2
:101A900081959F4F0C947E0DBB272A3051F49923DA
:101AA00042F4BDE290958095709561957F4F8F4F80
:101AB0009F4F0C945C0DBB27FA01A62F621771058E
:101AC00081059105330B30FB66F0AA27660F771F5F
:101AD000881F991FAA1FA21710F0A21B63953850E8
:101AE000A9F7A05DAA3308F0A95DA19336F7B1115B
:101AF000B1931082CA010C94970DBB27FB015527A7
:101B0000AA27880F991FAA1FA41710F0A41B83955A
:101B10005051B9F7A05DAA3308F0A95DA1930097D1
:101B200079F7B111B1931192CB010C94970DDC01AF
:101B3000FC01672F71917723E1F7329704C07C9104
:101B40006D9370836291AE17BF07C8F30895F89440
:021B5000FFCFC5
:081B520000E1000000000800A2
:00000001FF
