:100000000C941E010C943B010C943B010C94C814FD
:100010000C943B010C943B010C943B010C943B0170
:100020000C943B010C943B010C9443100C947D10F8
:100030000C943B010C943B010C943B010C943B0150
:100040000C943B010C9421020C9436020C943B015D
:100050000C943B010C943B010C943B010C943B0130
:100060000C943B010C943B010C943B010C943B0120
:100070000C943B010C943B010C943B010C943B0110
:100080000C943B010C943B010C943B010C943B0100
:100090000C943B010C943B010C943B010C943B01F0
:1000A0000C943B010C943B010C943B01EB0FE30FD0
:1000B000DB0FD30FCB0FC30FBB0FB30FAB0FA30FD0
:1000C0009B0F930F8B0F830F7B0F730F6B0F630FC0
:1000D0005B0F530F4B0F430F3B0F330F2B0F230FB0
:1000E0001B0F130F0B0F030FFB0EF30EEB0EE30EA4
:1000F000DB0ED30ECB0EC30EBB0EB30EAB0EA30E98
:100100009B0E930E8B0E830E7B0E730E6B0E630E87
:100110005B0E530E4B0E430E3B0E330E2B0E230E77
:100120001B0E130E0B0E030EFB0DF30DEB0D8314C4
:10013000A514BC14BC14C514C514C514084AD73B77
:100140003BCE016E84BCBFFDC12F3D6C74319ABDA6
:1001500056833DDA3D00C77F11BED9E4BB4C3E91CA
:100160006BAAAABE000000803F05A84CCDB2D44EB9
:10017000B93836A9020C50B9918688083CA6AAAABB
:100180002ABE000000803F00000100001F02120094
:10019000020000DC014300030000D8010401030950
:1001A00004C4011202030904BC010603030904B2DA
:1001B00001080803340031003000000006034D0040
:1001C0003200000012034A002E00200046006900A1
:1001D00065006E0065000000040309040902430085
:1001E000020100C0320904000001020201000524DE
:1001F0000010010524010101042402060524060063
:10020000010705820310004009040100020A0000F2
:1002100000070503024000000705840240000012A9
:1002200001000202000010C0167A0400010102035E
:10023000010001C1120180360181360011241FBE68
:10024000CFEFDAE0DEBFCDBF11E0A0E0B1E0E0E14A
:10025000F1E302C005900D92A830B107D9F721E073
:10026000A8E0B1E001C01D92AC33B207E1F70E94F3
:10027000F1140C9486180C940000209A219A229A6A
:100280000895299A2A98089529982A980895299ACC
:100290002A98089529982A9A089528988091880084
:1002A0009091890090938B0080938A0008952F92FB
:1002B0003F924F925F926F927F928F929F92AF92F6
:1002C000BF92CF92DF92EF92FF920F931F93CF9343
:1002D000DF9300D000D0CDB7DEB75C011B010091E9
:1002E0001501109116018090130190901401BC012A
:1002F000601B710B882777FD8095982F0E947616DA
:100300009B01AC01B10168197909882777FD8095B7
:10031000982F29833A834B835C830E947616298128
:100320003A814B815C810E9481156B017C01409078
:100330000F015090100160901101709012019B010B
:10034000AC01C301B2010E940D1520E030E040E88D
:100350005FE30E94D41587FF18C00F900F900F9095
:100360000F90DF91CF911F910F91FF90EF90DF9051
:10037000CF90BF90AF909F908F907F906F905F9045
:100380004F903F902F900C944701A3019201C70119
:10039000B6010E940D1520E030E040E85FEB0E94BE
:1003A00084171816C4F40F900F900F900F90DF91E0
:1003B000CF911F910F91FF90EF90DF90CF90BF9062
:1003C000AF909F908F907F906F905F904F903F90F5
:1003D0002F900C944A01A016B10619F42814390480
:1003E000C1F00F900F900F900F90DF91CF911F9160
:1003F0000F91FF90EF90DF90CF90BF90AF909F90C4
:100400008F907F906F905F904F903F902F900C94C3
:1004100041010F900F900F900F90DF91CF911F919E
:100420000F91FF90EF90DF90CF90BF90AF909F9093
:100430008F907F906F905F904F903F902F900C9493
:100440004D011F920F920FB60F9211248F939F931D
:100450006E9A8EB190E489278EB928982E989F9134
:100460008F910F900FBE0F901F9018951F920F92B3
:100470000FB60F921124289A2E9A0F900FBE0F904C
:100480001F9018950E940313809308018091080122
:100490006E9A811102C07698F9CF769A08954AE053
:1004A00068E481E00C94E70B269AE1E8F0E08081B3
:1004B00080618083808188608083A0E8B0E08C9137
:1004C00082608C938C9181608C9380818460808326
:1004D00080818D7F80838081816080838C91806228
:1004E0008C938C9180618C93EFE6F0E08081826048
:1004F000808380818460808380E197E2909389008B
:100500008093880088E893E190938B0080938A0021
:1005100008950E94E00C0E943F0B78940E944202D2
:100520000E944F020C945402EF92FF920F931F937C
:10053000CF93DF9300D000D0CDB7DEB77C018A0126
:10054000621B730B882777FD8095982F0E94761683
:100550009B01AC01B701601B710B882777FD80956B
:10056000982F29833A834B835C830E9476162981D6
:100570003A814B815C810F900F900F900F90DF912B
:10058000CF911F910F91FF90EF900C9481154F9296
:100590005F926F927F928F929F92AF92BF92CF9213
:1005A000DF92EF92FF92CF93DF93CDB7DEB728971C
:1005B0000FB6F894DEBF0FBECDBF7B01BC0188270C
:1005C00077FD8095982F0E9476164B015C01409034
:1005D0000F01509010016090110170901201C30141
:1005E000B2010E94D81569837A838B839C83B701FB
:1005F000882777FD8095982F0E9476166B017C01E5
:10060000C301B2010E94F2172B013C0129813A81FA
:100610004B815C81C501B4010E948F176D837E837D
:100620008F839887A3019201C701B6010E948F179B
:100630009B01AC016D817E818F8198850E940D1593
:1006400090580E9443167093160160931501A30100
:100650009201C501B4010E948F174B015C012981F1
:100660003A814B815C81C701B6010E948F179B01C3
:10067000AC01C501B4010E940E150E94431670938F
:1006800014016093130128960FB6F894DEBF0FBED5
:10069000CDBFDF91CF91FF90EF90DF90CF90BF90D3
:1006A000AF909F908F907F906F905F904F90089544
:1006B0002F923F924F925F926F927F928F929F9272
:1006C000AF92BF92CF92DF92EF92FF920F931F9360
:1006D000CF93DF93CDB7DEB76E970FB6F894DEBF3A
:1006E0000FBECDBF8C011B01DC0112960D90BC9199
:1006F000A02DBA8FA98FFC0160807180BD016619A1
:10070000770980E090E00E9474164B015C01D101F2
:1007100012960D90BC91A02DBA87A987F101408057
:100720005180BD016419750980E090E00E94741643
:100730006B017C01A5019401C501B4010E948F17D2
:100740004B015C01A7019601C701B6010E948F17FA
:100750009B01AC01C501B4010E940E150E94431615
:1007600069837A838B839C83D80114960D90BC9106
:10077000A02DBA8BA98BCD0186199709BC0180E009
:1007800090E00E9474164B015C01F1010480F58138
:10079000E02DFC8BEB8BCF0184199509BC0180E027
:1007A00090E00E9474166B017C01A5019401C501C3
:1007B000B4010E948F174B015C01A7019601C7018C
:1007C000B6010E948F179B01AC01C501B4010E94C4
:1007D0000E150E9443166D837E838F839887D80100
:1007E00016960D90BC91A02DBE8BAD8BCD018619B8
:1007F0009709BC0180E090E00E9474164B015C01F7
:10080000F1010680F781E02DF88FEF8BCF0184197D
:100810009509BC0180E090E00E9474166B017C0198
:10082000A5019401C501B4010E948F174B015C0121
:10083000A7019601C701B6010E948F179B01AC0169
:10084000C501B4010E940E150E9443166D877E8774
:100850008F87988B89899A89898C9A8C88199909AC
:10086000BC0180E090E00E9474164B015C016B8932
:100870007C8929853A85621B730B80E090E00E9499
:1008800074166B017C01A5019401C501B4010E949D
:100890008F174B015C01A7019601C701B6010E94A9
:1008A0008F179B01AC01C501B4010E940E150E9477
:1008B00043162B013C016D897E89898C9A8C6819BD
:1008C000790980E090E00E9474164B015C016F8909
:1008D000788D29853A85621B730B80E090E00E9439
:1008E00074166B017C01A5019401C501B4010E943D
:1008F0008F174B015C01A7019601C701B6010E9449
:100900008F179B01AC01C501B4010E940E150E9416
:1009100043166B017C016D897E8989889A886819E4
:10092000790980E090E00E94741669877A878B8746
:100930009C876F89788DAB88BC886A197B0980E0B9
:1009400090E00E9474164B015C0129853A854B8525
:100950005C85CA01B9010E948F1769877A878B87E6
:100960009C87A5019401C501B4010E948F179B01CA
:10097000AC0169857A858B859C850E940E150E9445
:100980004316AD81BE81EF81F8858D809E80AF805A
:10099000B88429813A814B815C8182169306A40632
:1009A000B50624F4A981BA81EB81FC814D015F0178
:1009B0002D853E854F85588982169306A406B50677
:1009C00014F449015A0184149504A604B70414F4DC
:1009D000530142018C149D04AE04BF0414F446017B
:1009E000570189869A86AB86BC8686169706A80626
:1009F000B90624F469877A878B879C87FD81EE810D
:100A0000AF81B8858D809E80AF80B88429813A817E
:100A10004B815C81281539054A055B0524F4F98171
:100A2000EA81AB81BC812F2F3E2FAD018D849E8446
:100A3000AF84B88882169306A406B50614F4A501FF
:100A40009401421653066406750614F4A30192013C
:100A5000C216D306E406F50614F4A70196012B8FFF
:100A60003C8F4D8F5E8F621773078407950724F4C0
:100A70006B8F7C8F8D8F9E8F29853A854B855C850A
:100A800089809A80AB80BC80281539054A055B05B2
:100A900001F52B8D3C8D4D8D5E8D8D809E80AF80C0
:100AA000B884281539054A055B0519F481E090E002
:100AB000E1C02B8D3C8D4D8D5E8D8D849E84AF84E9
:100AC000B888281539054A055B0581F380E090E078
:100AD00072C029853A854B855C858D809E80AF806C
:100AE000B884281539054A055B0501F52B8D3C8D29
:100AF0004D8D5E8D89809A80AB80BC80281539052C
:100B00004A055B0519F482E090E0B4C02B8D3C8D62
:100B10004D8D5E8D8D849E84AF84B88828153905EF
:100B20004A055B0581F380E090E091C029853A8514
:100B30004B855C858D849E84AF84B88828153905E3
:100B40004A055B0501F52B8D3C8D4D8D5E8D8D80AD
:100B50009E80AF80B884281539054A055B0519F4D5
:100B600083E090E087C02B8D3C8D4D8D5E8D89801C
:100B70009A80AB80BC80281539054A055B0581F356
:100B800080E090E072C029853A854B855C8524150C
:100B9000350546055705F1F48B8D9C8DAD8DBE8DC9
:100BA00089809A80AB80BC8088159905AA05BB0511
:100BB00029F482E090E021E030E05EC02B8D3C8D96
:100BC0004D8D5E8D2C153D054E055F0591F381E041
:100BD00090E03DC089849A84AB84BC848C149D04CD
:100BE000AE04BF04E1F42B8D3C8D4D8D5E8D89806C
:100BF0009A80AB80BC80281539054A055B0519F43D
:100C000083E090E0D8CF2B8D3C8D4D8D5E8D2415EB
:100C1000350546055705A1F381E090E026C089849B
:100C20009A84AB84BC8486169706A806B90601F59B
:100C30002B8D3C8D4D8D5E8D8D809E80AF80B884D8
:100C4000281539054A055B0529F483E090E022E088
:100C500030E012C02B8D3C8D4D8D5E8D24153505F9
:100C60004605570591F382E090E023E030E004C0B0
:100C700080E090E020E030E0220F331FF801E20F27
:100C8000F31FA080B180880F991FF801E80FF91FAA
:100C900000811181F101E20FF31FE080F180F10189
:100CA000E80FF91FC080D1809601A801B701C501E6
:100CB0000E94940260930F017093100180931101C0
:100CC00090931201B6016E0D7F1D76956795C80150
:100CD0008A0D9B1D969587956E960FB6F894DEBF8C
:100CE0000FBECDBFDF91CF911F910F91FF90EF907D
:100CF000DF90CF90BF90AF909F908F907F906F903C
:100D00005F904F903F902F900C94C7022F923F928C
:100D10004F925F926F927F928F929F92AF92BF920B
:100D2000CF92DF92EF92FF920F931F93CF93DF93B7
:100D3000CDB7DEB762970FB6F894DEBF0FBECDBF5A
:100D40009A8789871B01DC0112960D911C911397DC
:100D5000ED91FC91F88BEF87B8016E1B7F0B80E063
:100D600090E00E9474164B015C01D10112960D9027
:100D7000BC91A02DBE83AD83F1010190F081E02DE7
:100D8000FA8BE98BBD016E1B7F0B80E090E00E9427
:100D900074166B017C01A5019401C501B4010E9488
:100DA0008F174B015C01A7019601C701B6010E9494
:100DB0008F179B01AC01C501B4010E940E150E9462
:100DC000431669837A838B839C83A985BA8514969D
:100DD0006D907C901597C301EF85F8898E1B9F0B52
:100DE000BC0180E090E00E9474164B015C01D101CF
:100DF00014960D90BC91A02DBC87AB87CD01E989DD
:100E0000FA898E1B9F0BBC0180E090E00E94741653
:100E10006B017C01A5019401C501B4010E948F17EB
:100E20004B015C01A7019601C701B6010E948F1713
:100E30009B01AC01C501B4010E940E150E9443162E
:100E40006B017C01601A710AB30180E090E00E949E
:100E500074162B013C016B857C852D813E81621BC4
:100E6000730B80E090E00E9474164B015C01A301BB
:100E70009201C301B2010E948F172B013C01A50111
:100E80009401C501B4010E948F179B01AC01C301FD
:100E9000B2010E940E150E9443166D837E838F83DC
:100EA00098873C2D2D2D9E2D8F2D49815A816B8148
:100EB0007C81C416D506E606F70624F439812A811A
:100EC0009B818C81832E922EA92EB82E6D817E81DE
:100ED0008F81988586169706A806B90614F44B01EB
:100EE0005C013C2D2D2D9E2D8F2D49815A816B81CA
:100EF0007C814C155D056E057F0524F439812A81BE
:100F00009B818C81432E522E692E782E6D817E819D
:100F10008F819885641575058605970514F42B0156
:100F20003C01C501B4010E9476166B877C878D87D2
:100F30009E87C301B2010E9476169B01AC016B85AE
:100F40007C858D859E850E94DB156B877C878D87D0
:100F50009E8720E030E040E050E40E94D41587FFF7
:100F60002AC189819A81AB81BC8188169906AA061B
:100F7000BB0651F44C145D046E047F0479F500E067
:100F800010E081E090E02EC08C149D04AE04BF04FC
:100F900071F429813A814B815C81421653066406C3
:100FA000750619F500E010E082E090E022C04D8166
:100FB0005E816F81788584169506A606B706E1F4F2
:100FC00069817A818B819C8146165706680679066D
:100FD000C1F401E010E082E090E017C001E010E011
:100FE00080E090E022E030E012C002E010E080E01B
:100FF00090E021E030E00BC000E010E080E090E005
:1010000004C002E010E081E090E020E030E05C010C
:10101000AA0CBB1CE985FA85EA0DFB1D8080918036
:10102000C901880F991F9A838983B40180E090E0F9
:101030000E9474166B017C01E985FA85A981BA8149
:10104000EA0FFB1F80819181B401681B790B80E05E
:1010500090E00E94741622EA35E446E05FE30E94C5
:101060008F179B01AC01C701B6010E940E150E94AB
:1010700043166B017C01F101EA0DFB1DA080B180DC
:10108000B50180E090E00E9474162B013C01E981DB
:10109000FA81E20DF31D80819181B501681B790B06
:1010A00080E090E00E94741622EA35E446E05FE3B7
:1010B0000E948F179B01AC01C301B2010E940E1563
:1010C0000E9443166D837E838F839887000F111FC4
:1010D000E985FA85E00FF11F208131813A83298368
:1010E000B601882777FD8095982F0E9476164B01D0
:1010F0005C0149815A81BA0180E090E00E94741637
:101100002B013C0169817A816C197D0980E090E0B6
:101110000E94741628EA36EC4BE85EE30E948F17B3
:101120009B01AC01C301B2010E940E159B01AC01F1
:10113000C501B4010E940D150E9448166B017C0187
:101140007A876987F101E00FF11F00811181AD817C
:10115000BE81BD01882777FD8095982F0E94761665
:101160004B015C01B80180E090E00E9474162B01F5
:101170003C01B801ED81FE816E1B7F0B80E090E0A9
:101180000E94741628EA36EC4BE85EE30E948F1743
:101190009B01AC01C301B2010E940E159B01AC0181
:1011A000C501B4010E940D150E9448165B0198010B
:1011B00049815A8147C120E030E040E850E46B8526
:1011C0007C858D859E850E94841718162CF42981B4
:1011D0003A814B815C8139C12DEC3CEC4CE450E40C
:1011E0006B857C858D859E850E94D41529813A81E9
:1011F0004B815C8187FF29C182169306A406B50640
:1012000051F44C145D046E047F0489F580E090E095
:1012100002E010E041C08C149D04AE04BF0471F4E0
:1012200049815A816B817C81441655066606770692
:1012300019F580E090E001E010E016C06D817E813C
:101240008F81988586169706A806B906D1F48981FC
:101250009A81AB81BC81481659066A067B06C1F4A7
:1012600081E090E000E010E022E030E017C081E093
:1012700090E002E010E009C082E090E001E010E0C0
:1012800004C080E090E000E010E020E030E006C024
:1012900082E090E000E010E021E030E05C01AA0C88
:1012A000BB1CE985FA85EA0DFB1D80809180D90180
:1012B000AA0FBB1FBA83A983B40180E090E00E940B
:1012C00074166B017C01E985FA8529813A81E20F68
:1012D000F31F80819181881A990AB40180E090E01F
:1012E0000E94741622EA35E446E05FE30E948F17FD
:1012F0009B01AC01C701B6010E940E150E94431666
:101300006B017C01F101EA0DFB1DA080B180B501EC
:1013100080E090E00E9474162B013C01E981FA8183
:10132000E20DF31D80819181A81AB90AB50180E010
:1013300090E00E94741622EA35E446E05FE30E94E2
:101340008F179B01AC01C301B2010E940E150E94D0
:10135000431669837A838B839C83000F111FE98571
:10136000FA85E00FF11F408151815E834D83B60104
:10137000882777FD8095982F0E9476164B015C0197
:101380002D813E81B90180E090E00E9474162B010E
:101390003C016D817E816C197D0980E090E00E94A6
:1013A00074162FED3FE44DEC5FE30E948F179B0115
:1013B000AC01C301B2010E940E159B01AC01C50135
:1013C000B4010E940D150E9448166B017C017A87BA
:1013D0006987F101E00FF11F0081118149815A8174
:1013E000BA01882777FD8095982F0E9476164B01C9
:1013F0005C01B80180E090E00E9474162B013C0172
:10140000B80189819A81681B790B80E090E00E9485
:1014100074162FED3FE44DEC5FE30E948F179B01A4
:10142000AC01C301B2010E940E159B01AC01C501C4
:10143000B4010E940D150E9448165B0129893A8962
:101440004F855889B601C60167C082169306A40667
:10145000B50641F44C145D046E047F0429F521E0C7
:1014600030E02CC08C149D04AE04BF0461F44981AB
:101470005A816B817C814416550666067706B9F45D
:1014800022E030E01BC06D817E818F8198858616B9
:101490009706A806B90681F44C145D046E047F0417
:1014A00081F421E030E005C020E030E00CC020E015
:1014B00030E082E090E009C020E030E080E090E0A1
:1014C00004C022E030E081E090E0BC01660F771FAD
:1014D000E985FA85E60FF71F80819181220F331F7E
:1014E000E985FA85E20FF31F40815181DA01A80FE7
:1014F000B91FB695A795BA87A987F101E60FF71F1F
:1015000060817181F101E20FF31F20813181590166
:10151000A60EB71EB694A7940E94940260930F0182
:10152000709310018093110190931201B501898588
:101530009A8562960FB6F894DEBF0FBECDBFDF91DD
:10154000CF911F910F91FF90EF90DF90CF90BF90C0
:10155000AF909F908F907F906F905F904F903F9053
:101560002F900C94C702CF93DF93CDB7DEB72C97A3
:101570000FB6F894DEBF0FBECDBFE8E1F1E080E02A
:1015800090E0408151814F3F23E05207C9F0228112
:1015900033812F3F63E0360799F0DC01AA0FBB1FB0
:1015A00061E070E06C0F7D1FA60FB71F52501796B9
:1015B0005C934E931697205831402D933C9301969F
:1015C000369671E0E033F707E1F6009741F4BE018B
:1015D0006F5F7F4FCE0107960E94580309C00197A5
:1015E00039F4BE016F5F7F4FCE0107960E948606D9
:1015F0002C960FB6F894DEBF0FBECDBFDF91CF9112
:10160000089588E191E00E94E81380931701811109
:101610000E94B30A8091170108958091150190915D
:1016200016018D589F4F08958091130190911401D8
:10163000CC96089520E030E048EC52E460910F0130
:101640007091100180911101909112010E948F17E9
:101650000E944816CB0108958091150190911601C2
:101660009C012E583F4F2237310528F083379105D2
:1016700024F482E0089581E0089580E00895589A66
:10168000599A5A9A8CE08093B800E9E6F0E080819C
:101690008062808380818F7E8083EA9A7894089527
:1016A00084E88093BC008091BC0087FFFCCF8091D0
:1016B000BB00089584E98093BC00089520E030E0E9
:1016C0008091BC0087FD06C02F5F3F4F293E83E01D
:1016D0003807B1F781E0283E334009F480E00895EF
:1016E0008093BB0084E88093BC000E945E0B88233B
:1016F00021F08091B900887F089580E008951F93BC
:10170000CF93DF931F92CDB7DEB7182F84EA809373
:10171000BC0069830E945E0B6981811104C094E959
:101720009093BC0014C0812F880F662331F08F5F27
:101730000E94700B883451F404C00E94700B8032F8
:1017400029F484E98093BC0080E001C081E00F901F
:10175000DF91CF911F910895CF93DF93C82FD62F9C
:1017600060E00E947F0B882391F08D2F0E94700B08
:10177000882369F084E98093BC0061E08C2F0E948B
:101780007F0B882321F0DF91CF910C94500B80E0E8
:10179000DF91CF910895CF93DF93D62FC42F60E0D0
:1017A0000E947F0B811102C080E00EC08D2F0E942D
:1017B000700B8823C9F38C2F0E94700B8823A1F330
:1017C00084E98093BC0081E0DF91CF910895CF93AD
:1017D000DF9300D01F92CDB7DEB74B836A83898336
:1017E0000E943F0B94EA9093BC0089816A814B81EF
:1017F0009091BC0097FFFCCF90E59093BB0094E8DC
:101800009093BC009091BC0097FFFCCF9091B900E1
:10181000987F903229F484E98093BC0080E029C04D
:1018200091E09093BB0094E89093BC009091BC0031
:1018300097FFFCCF8093BB0084E88093BC0080912D
:10184000BC0087FFFCCF6093BB0084E88093BC00A2
:101850008091BC0087FFFCCF4093BB0084E880935D
:10186000BC008091BC0087FFFCCF84E98093BC0062
:1018700081E00F900F900F90DF91CF91089524EAAF
:101880002093BC002091BC0027FFFCCF21E52093D2
:10189000BB0024E82093BC002091BC0027FFFCCFB4
:1018A0002091B900287F2834A9F024EC2093BC00B3
:1018B0002091BC0027FFFCCF2091BB0026130AC05B
:1018C000FC0120E030E0772767FD709561507109D9
:1018D00044EC0EC084E98093BC0080E008955091F0
:1018E000BC0057FFFCCF5091BB0051932F5F3F4F7F
:1018F000261737071CF44093BC00F1CF44E840930F
:10190000BC004091BC0047FFFCCF4091BB00FC01F4
:10191000E20FF31F408384E98093BC0081E00895C7
:10192000F89494EA9093BC009091BC0097FFFCCF90
:1019300090E59093BB0094E89093BC009091BC001C
:1019400097FFFCCF9091B900987F903231F484E9F1
:101950008093BC00789480E0089593E09093BB005E
:1019600094E89093BC009091BC0097FFFCCF8093CB
:10197000BB0084E88093BC008091BC0087FFFCCF53
:10198000FB01552747FD509524E8CF01861B970B97
:101990008417950754F481918093BB002093BC0079
:1019A0008091BC0087FFFCCFF0CF84E98093BC001E
:1019B000789481E008958091E80080FFFCCF08953D
:1019C00081E08093D70080EA8093D80082E189BDCE
:1019D00009B400FEFDCF80E98093D8001092E000AA
:1019E00010920C01109209018CE08093E20078942F
:1019F000089580910C0108959FB7F89480910C018F
:101A0000882339F083E08093E9008091E80085FD28
:101A100003C09FBF8FEF08958091F1002091E800EF
:101A200025FD03C02BE62093E8009FBF08959FB7D4
:101A3000F89480910C01882331F083E08093E900D1
:101A40008091F20001C080E09FBF089580910C0159
:101A5000882371F08FB7F89493E09093E9002BE618
:101A60009091E80095FF03C02093E800F9CF8FBF65
:101A7000089590910C01992371F09FB7F89424E098
:101A80002093E90020910A01222349F02091E800E7
:101A900025FD03C09FBF8FEF089510920A0120918A
:101AA000E400275E34E04091E80045FD12C09FBF8E
:101AB0009091E400921304C081E080930A01EBCF7F
:101AC00090910C01992339F39FB7F8943093E90072
:101AD000EACF8093F1008091E80085FD03C08AE39E
:101AE0008093E80085E080930B019FBF80E008951C
:101AF00090910C019923D1F09FB7F89424E02093A2
:101B0000E9002091E80025FD02C09FBF0FC080932F
:101B1000F1008091E80085FD03C08AE38093E8002E
:101B200085E080930B019FBF80E008958FEF0895BB
:101B3000EF92FF921F93CF93DF937C01CB01209113
:101B40000C01222371F0AFB7F89424E02093E90050
:101B500020910A01222349F02091E80025FD03C0CD
:101B6000AFBF8FEF42C210920A01B4E0C0E4DAE3E3
:101B700015E0009709F437C22091E400275E309108
:101B8000E80035FD12C0AFBF3091E400321304C04D
:101B900081E080930A01E5CF30910C01332309F3F2
:101BA000AFB7F894B093E900EACF2091F2004C2F40
:101BB000421B242F30E08217930708F4482F841B20
:101BC000910950E04134510508F0FDC14A5A5F4F78
:101BD000FA010C941A18F70120812093F100970163
:101BE0002F5F3F4F7901F70120812093F10097018A
:101BF0002F5F3F4F7901F70120812093F10097017A
:101C00002F5F3F4F7901F70120812093F100970169
:101C10002F5F3F4F7901F70120812093F100970159
:101C20002F5F3F4F7901F70120812093F100970149
:101C30002F5F3F4F7901F70120812093F100970139
:101C40002F5F3F4F7901F70120812093F100970129
:101C50002F5F3F4F7901F70120812093F100970119
:101C60002F5F3F4F7901F70120812093F100970109
:101C70002F5F3F4F7901F70120812093F1009701F9
:101C80002F5F3F4F7901F70120812093F1009701E9
:101C90002F5F3F4F7901F70120812093F1009701D9
:101CA0002F5F3F4F7901F70120812093F1009701C9
:101CB0002F5F3F4F7901F70120812093F1009701B9
:101CC0002F5F3F4F7901F70120812093F1009701A9
:101CD0002F5F3F4F7901F70120812093F100970199
:101CE0002F5F3F4F7901F70120812093F100970189
:101CF0002F5F3F4F7901F70120812093F100970179
:101D00002F5F3F4F7901F70120812093F100970168
:101D10002F5F3F4F7901F70120812093F100970158
:101D20002F5F3F4F7901F70120812093F100970148
:101D30002F5F3F4F7901F70120812093F100970138
:101D40002F5F3F4F7901F70120812093F100970128
:101D50002F5F3F4F7901F70120812093F100970118
:101D60002F5F3F4F7901F70120812093F100970108
:101D70002F5F3F4F7901F70120812093F1009701F8
:101D80002F5F3F4F7901F70120812093F1009701E8
:101D90002F5F3F4F7901F70120812093F1009701D8
:101DA0002F5F3F4F7901F70120812093F1009701C8
:101DB0002F5F3F4F7901F70120812093F1009701B8
:101DC0002F5F3F4F7901F70120812093F1009701A8
:101DD0002F5F3F4F7901F70120812093F100970198
:101DE0002F5F3F4F7901F70120812093F100970188
:101DF0002F5F3F4F7901F70120812093F100970178
:101E00002F5F3F4F7901F70120812093F100970167
:101E10002F5F3F4F7901F70120812093F100970157
:101E20002F5F3F4F7901F70120812093F100970147
:101E30002F5F3F4F7901F70120812093F100970137
:101E40002F5F3F4F7901F70120812093F100970127
:101E50002F5F3F4F7901F70120812093F100970117
:101E60002F5F3F4F7901F70120812093F100970107
:101E70002F5F3F4F7901F70120812093F1009701F7
:101E80002F5F3F4F7901F70120812093F1009701E7
:101E90002F5F3F4F7901F70120812093F1009701D7
:101EA0002F5F3F4F7901F70120812093F1009701C7
:101EB0002F5F3F4F7901F70120812093F1009701B7
:101EC0002F5F3F4F7901F70120812093F1009701A7
:101ED0002F5F3F4F7901F70120812093F100970197
:101EE0002F5F3F4F7901F70120812093F100970187
:101EF0002F5F3F4F7901F70120812093F100970177
:101F00002F5F3F4F7901F70120812093F100970166
:101F10002F5F3F4F7901F70120812093F100970156
:101F20002F5F3F4F7901F70120812093F100970146
:101F30002F5F3F4F7901F70120812093F100970136
:101F40002F5F3F4F7901F70120812093F100970126
:101F50002F5F3F4F7901F70120812093F100970116
:101F60002F5F3F4F7901F70120812093F100970106
:101F70002F5F3F4F7901F70120812093F1009701F6
:101F80002F5F3F4F7901F70120812093F1009701E6
:101F90002F5F3F4F7901F70120812093F1009701D6
:101FA0002F5F3F4F7901F70120812093F1009701C6
:101FB0002F5F3F4F7901F70120812093F1009701B6
:101FC0002F5F3F4F7901F70120812093F1009701A6
:101FD0002F5F3F4F79012091E80025FFD093E80063
:101FE00010930B01C6CDAFBF80E0DF91CF911F9161
:101FF000FF90EF9008958FB7F89490910B0199237B
:1020000041F094E09093E9009AE39093E8001092F5
:102010000B018FBF089580910401089580910501FF
:1020200008958091060108958091090108959FB750
:10203000F89420910C01222339F022E02093E9004A
:102040003091E80035FD03C09FBF8FEF089531EA5E
:102050003093F10030E23093F1001092F1001092D1
:10206000F1001092F1001092F1002093F100109213
:10207000F1008093F1001092F1008AE38093E80070
:102080009FBF80E008951F920F920FB60F92112408
:102090008F939F938091E1001092E10083FF11C024
:1020A0001092E90091E09093EB001092EC0092E125
:1020B0009093ED0098E09093F00010920C01109234
:1020C000090182FF13C080910C01882379F080916F
:1020D0000B01882359F0815080930B01811106C0B8
:1020E00084E08093E9008AE38093E8009F918F91D8
:1020F0000F900FBE0F901F9018951F920F920FB662
:102100000F921124EF92FF920F931F932F933F93FF
:102110004F935F936F937F938F939F93AF93BF93EF
:10212000EF93FF93CF93DF931F92CDB7DEB710925B
:10213000E9008091E80083FF14C19091F100809143
:10214000F1003091F1002091F100E32EF12CF22A00
:102150000091F1002091F10010E0122B2091F1008C
:102160006091F10032EF3093E800863009F046C00C
:1021700036E088E891E0FC01459154914E155F05E9
:1021800039F4FC013296459154914017510721F0E2
:102190000796315081F7E5C0FC0134964591549182
:1021A000FC013696849130E0362B2F3F310519F033
:1021B00010F02FEF30E0281708F4822F3EEF9091B7
:1021C000E800292F2570D9F392FDCEC0982F8131D8
:1021D00008F090E1FA01292F222331F064916093F5
:1021E000F10021503196F8CF490F511D891B3093D2
:1021F000E8008111E4CF903111F3B6C0853051F47D
:102200008EEF8093E8000E94DB0C8E2D8068809317
:10221000E300AAC0893059F5911180C0E0920C0109
:102220001092090110920B018EEF8093E80041E0BB
:1022300081E392E04093E9009C012F5F3F4FFC0156
:1022400054915093EB00552359F0F90124912093B8
:10225000EC009C012D5F3F4F319684918093ED00FF
:102260004F5F453011F0C901E5CF8EE175C0883070
:1022700051F4903809F052C00E94DB0C80910C019F
:102280008093F10047C0813279F4913A09F046C059
:102290000E94DB0CE0E0F1E081918093F10081E0AD
:1022A000E730F807C9F736C0803299F49132B1F5BA
:1022B0008091E80082FFFCCFE0E0F1E08091F10046
:1022C000819381E0E730F807C9F78BEF8093E8004E
:1022D00021C0823241F4913209F043C0E0920901F9
:1022E0000E94DB0C17C0811119C099830E94DB0C7E
:1022F0009981923851F40093E9008091EB0085FBBD
:10230000882780F91092E90001C080E08093F100F5
:102310001092F1008EEF8093E80026C0282F2D7FC9
:102320002130F9F49230E9F4EF28D9F40F779FEFD8
:10233000900F9430B0F49EEF9093E8000093E90082
:10234000833079F089E18093EB0081E090E0002E0A
:1023500001C0880F0A94EAF78093EA001092EA001D
:1023600003C081E28093EB000F90DF91CF91FF914A
:10237000EF91BF91AF919F918F917F916F915F91FD
:102380004F913F912F911F910F91FF90EF900F90E0
:102390000FBE0F901F9018951F93CF93DF93EC0102
:1023A000FE011491112351F01A3019F48DE00E94AE
:1023B000390D812F0E94390D2196F2CFDF91CF91F7
:1023C0001F9108958A3010F490E301C097E3890FBC
:1023D0000C94390DCF93C82F82958F700E94E21113
:1023E0008C2F8F70CF910C94E211CF93C82F892F2F
:1023F0000E94EA118C2FCF910C94EA110C94EA11EF
:10240000EF92FF920F931F93CF93DF93CDB7DEB779
:1024100027970FB6F894DEBF0FBECDBF8E010F5FBA
:102420001F4F27E0F80111922A95E9F74AE0B80119
:102430000E9420187E01F8E0EF0EF11CF801819156
:102440008F0181110E94390D0E151F05B9F72796CE
:102450000FB6F894DEBF0FBECDBFDF91CF911F91B5
:102460000F91FF90EF900895EF92FF920F931F93BB
:10247000CF93DF9300D000D000D0CDB7DEB78E0170
:102480000F5F1F4F26E0F80111922A95E9F74AE005
:10249000B8010E945C187E01F6E0EF0EF11CF80115
:1024A00081918F0181110E94390D0E151F05B9F719
:1024B00026960FB6F894DEBF0FBECDBFDF91CF9149
:1024C0001F910F91FF90EF900895EF92FF920F935D
:1024D0001F93CF93DF93CDB7DEB72B970FB6F8944A
:1024E000DEBF0FBECDBF8E010F5F1F4F2BE0F80187
:1024F00011922A95E9F72AE0A8010E942B187E0183
:10250000FCE0EF0EF11CF80181918F0181110E9416
:10251000390D0E151F05B9F72B960FB6F894DEBFCF
:102520000FBECDBFDF91CF911F910F91FF90EF9024
:102530000895EF92FF920F931F93CF93DF93CDB740
:10254000DEB72B970FB6F894DEBF0FBECDBF8E015E
:102550000F5F1F4F2BE0F80111922A95E9F72AE04F
:10256000A8010E943A187E01FBE0EF0EF11CF80171
:1025700081918F0181110E94390D0E151F05B9F748
:102580002B960FB6F894DEBF0FBECDBFDF91CF9173
:102590001F910F91FF90EF90089520E030E080911F
:1025A000BC0087FD06C02F5F3F4F293E83E0380700
:1025B000B1F781E0283E334009F480E0089580932C
:1025C000BB0084E88093BC000E94CD12882319F0E0
:1025D0008091B900887F0895CF93C82F84EA8093B3
:1025E000BC000E94CD12882361F08C2F880F0E94BE
:1025F000DF12803229F484E98093BC0080E001C0BE
:1026000081E0CF9108950E943F0B88E50E94EC1273
:10261000811102C080E0089580E30E94DF128823C8
:10262000C9F381E00E94DF128823A1F384E980933B
:10263000BC008FE39CE90197F1F700C0000088E53A
:102640000E94EC12882331F380E00E94DF1288237D
:1026500009F380E00E94DF128823E1F280E00E940B
:10266000DF128823B9F280E00E94DF12882391F202
:1026700080E00E94DF12882369F280E00E94DF126E
:10268000882341F280E00E94DF12882319F280E95A
:102690000E94DF12882309F4BDCF84E98093BC0037
:1026A0008FE39CE90197F1F700C0000088E50E94E4
:1026B000EC12882309F4AECF87E00E94DF12882352
:1026C00009F4A8CF80E00E94DF12882309F4A2CF8A
:1026D00081E40E94DF12882309F49CCF84E980936F
:1026E000BC008FE39CE90197F1F700C0000088E58A
:1026F0000E94EC12882309F48DCF8AE10E94DF1238
:10270000882309F487CF80E40E94DF12882309F42C
:1027100081CF80E00E94DF12882309F47BCF84E917
:102720008093BC008FE39CE90197F1F700C00000A3
:1027300088E50E94EC12882309F46CCF83E30E94A1
:10274000DF12882309F466CF83E00E94DF1288231A
:1027500009F460CF84E98093BC008FE39CE9019782
:10276000F1F700C0000088E50E94EC12882309F40C
:1027700051CF80E30E94DF12882309F44BCF88E019
:102780000E94DF12882309F445CF84E98093BC00BE
:102790008FE39CE90197F1F700C0000081E0089504
:1027A000CF93C82F84EA8093BC000E94CD12882367
:1027B00069F08C2F880F8F5F0E94DF12883429F414
:1027C00084E98093BC0080E001C081E0CF9108954E
:1027D000EF92FF920F931F93CF93DF93CDB7DEB7A6
:1027E00060970FB6F894DEBF0FBECDBF7C018E019F
:1027F0000F5F1F4F80E1F80111928A95E9F788E594
:102800000E94EC12811102C080E05EC086E30E944B
:10281000DF128823C9F384E98093BC00F5E8FA95B8
:10282000F1F7000088E50E94D013882369F3F801CE
:102830009E01205F3F4F94EC9093BC008091BC00C0
:1028400087FFFCCF8091BB008193E217F307A1F7CC
:1028500084E88093BC008091BC0087FFFCCF80910E
:10286000BB00888B84E98093BC00DE01149687014D
:102870006C91762F7073AD0142505109FA0180813D
:1028800090E0F0E17F9F800D911D1124F80191836C
:102890008083762F707C4F5F5F4FFA01808190E0DC
:1028A000F4E07F9F800D911D1124F80193838283B2
:1028B0006F70862F90E09583848313960A5F1F4F75
:1028C000A217B307A9F681E060960FB6F894DEBFB1
:1028D0000FBECDBFDF91CF911F910F91FF90EF9071
:1028E000089584E98093BC0008958091300190E0C0
:1028F000FC01E05AF109E730F10508F048C0E9565B
:10290000FF4F0C941A180E94010B0E942C0B81306F
:1029100061F4769A2FEF83ED90E321508040904050
:10292000E1F700C00000769808950E942C0B8230D9
:1029300071F5479A2FEF83ED90E32150804090404E
:10294000E1F700C00000479808950E94010B0E9423
:102950002C0B992787FD909590933B0180933A012A
:102960008130910511F4769A03C0029709F4479AD1
:1029700081E08093070108958091310180930E01D9
:102980008091320180930D010895109207010895FE
:102990001F920F920FB60F9211242F933F934F93D4
:1029A0005F936F937F938F939F93AF93BF93EF93B7
:1029B000FF936AE080E391E00E943F0C0E9475144F
:1029C000FF91EF91BF91AF919F918F917F916F9107
:1029D0005F914F913F912F910F900FBE0F901F90DD
:1029E00018950E9489020E943D016E9A3F9A80E8E4
:1029F0008093610084E080936100809107018823C7
:102A000049F00E94010B63E770E080E090E00E94D3
:102A10005701F3CF80E090E008955058BB27AA27D4
:102A20000ED027C2F0D130F0F5D120F031F49F3F25
:102A300011F41EF4C0C10EF4E095E7FBB6C1E92F16
:102A40003AD280F3BA17620773078407950718F024
:102A500071F49EF552C20EF4E0950B2EBA2FA02D04
:102A60000B01B90190010C01CA01A0011124FF273B
:102A7000591B99F0593F50F4503E68F11A16F04036
:102A8000A22F232F342F4427585FF3CF4695379535
:102A90002795A795F0405395C9F77EF41F16BA0BFA
:102AA000620B730B840BBAF09150A1F0FF0FBB1FA8
:102AB000661F771F881FC2F70EC0BA0F621F731FF1
:102AC000841F48F4879577956795B795F7959E3F4E
:102AD00008F0B3CF9395880F08F09927EE0F9795DC
:102AE0008795089590D158F080E891E009F49EEF21
:102AF00091D128F040E851E059F45EEF09C05BC184
:102B0000FCC1E92FE078D7D168F3092E052AC1F37B
:102B1000261737074807590738F00E2E07F8E02523
:102B200069F0E025E0640AC0EF6307F8009407FA53
:102B3000DB01B9019D01DC01CA01AD01EF934AD06F
:102B400098D10AD05F91552331F02BED3FE049E455
:102B500050FD49EC63CF0895DF93DD27B92FBF7790
:102B600040E85FE31616170648075B0710F4D92FF5
:102B7000CFD19F938F937F936F933AD2ECE3F1E0A1
:102B80001DD177D12F913F914F915F91D4D1DD230A
:102B900049F09058A2EA2AED3FE049EC5FE3D07893
:102BA0005D274DDFDF9165C1DCD008F481E0089539
:102BB00039D1E3956FC10CD05CC12CD140F023D149
:102BC00030F021F45F3F19F0F0C0511197C1F3C00C
:102BD00072D198F39923C9F35523B1F3951B550B83
:102BE000BB27AA2762177307840738F09F5F5F4FE0
:102BF000220F331F441FAA1FA9F333D00E2E3AF021
:102C0000E0E830D091505040E695001CCAF729D03A
:102C1000FE2F27D0660F771F881FBB1F2617370789
:102C20004807AB07B0E809F0BB0B802DBF01FF27B9
:102C300093585F4F2AF09E3F510568F0B6C05EC1C1
:102C40005F3FECF3983EDCF3869577956795B795F3
:102C5000F7959F5FC9F7880F911D9695879597F90E
:102C60000895E1E0660F771F881FBB1F6217730787
:102C70008407BA0720F0621B730B840BBA0BEE1F9C
:102C800088F7E095089504D06894B11137C108958C
:102C90001AD188F09F5790F0B92F9927B751A0F01B
:102CA000D1F0660F771F881F991F1AF0BA95C9F7E0
:102CB00012C0B13081F021D1B1E008951EC1672F5B
:102CC000782F8827B85F39F0B93FCCF38695779590
:102CD0006795B395D9F73EF4909580957095619579
:102CE0007F4F8F4F9F4F0895E89409C097FB3EF4A4
:102CF00090958095709561957F4F8F4F9F4F992349
:102D0000A9F0F92F96E9BB279395F69587957795C6
:102D10006795B795F111F8CFFAF4BB0F11F460FF86
:102D20001BC06F5F7F4F8F4F9F4F16C0882311F0DE
:102D300096E911C0772321F09EE8872F762F05C0F2
:102D4000662371F096E8862F70E060E02AF09A958D
:102D5000660F771F881FDAF7880F9695879597F982
:102D60000895990F0008550FAA0BE0E8FEEF16161C
:102D70001706E807F907C0F012161306E407F5076F
:102D800098F0621B730B840B950B39F40A2661F0E3
:102D9000232B242B252B21F408950A2609F4A14086
:102DA000A6958FEF811D811D089597F99F6780E893
:102DB00070E060E008959FEF80EC0895DF93CF937B
:102DC0001F930F93FF92EF92DF927B018C01689427
:102DD00005C0DA2EEF01AFD0FE01E894A591259150
:102DE000359145915591AEF3EF0129DEFE01970132
:102DF000A801DA9479F7DF90EF90FF900F911F917F
:102E0000CF91DF91089500240A941616170618062C
:102E10000906089500240A941216130614060506DE
:102E20000895C9CF50D0E8F3E894E0E0BB279F575E
:102E3000F0F02AED3FE049EC06C0EE0FBB0F661F35
:102E4000771F881F28F0B23A62077307840728F0BB
:102E5000B25A620B730B840BE3959A9572F7803824
:102E600030F49A95BB0F661F771F881FD2F79048E2
:102E7000C4C0092E0394000C11F4882352F0BB0F38
:102E800040F4BF2B11F460FF04C06F5F7F4F8F4F82
:102E90009F4F0895EF93E0FF06C0A2EA2AED3FE0BE
:102EA00049EC5FEBCCDDE5DF0F90039401FC90581B
:102EB000E9E6F1E0AEC057FD9058440F551F59F0B8
:102EC0005F3F71F04795880F97FB991F61F09F3F17
:102ED00079F087950895121613061406551FF2CF40
:102EE0004695F1DF08C0161617061806991FF1CF90
:102EF00086957105610508940895E894BB276627B7
:102F00007727CB0197F908952CDF08F48FEF089508
:102F10009B01AC0160E070E080E89FE34CCE0BD0F9
:102F2000A8CF71DF28F076DF18F0952309F03DCFA8
:102F300042CF1124E3CFBFDFA0F3959FD1F3950FCC
:102F400050E0551F629FF001729FBB27F00DB11D2D
:102F5000639FAA27F00DB11DAA1F649F6627B00DBD
:102F6000A11D661F829F2227B00DA11D621F739FA6
:102F7000B00DA11D621F839FA00D611D221F749FB4
:102F80003327A00D611D231F849F600D211D822FFB
:102F9000762F6A2F11249F5750408AF0E1F0882342
:102FA0004AF0EE0FFF1FBB1F661F771F881F91504F
:102FB0005040A9F79E3F510570F0F7CE9FCF5F3F7D
:102FC000ECF3983EDCF3869577956795B795F79582
:102FD000E7959F5FC1F7FE2B880F911D969587950A
:102FE00097F908959F931EDF0F9007FCEE5F52CF75
:102FF0009B01AC0194CF9F3F31F0915020F4879515
:1030000077956795B795880F911D9695879597F950
:1030100008959F938F937F936F93FF93EF939B01FB
:10302000AC017DDFEF91FF91C9DE2F913F914F9170
:103030005F9175CFEE0FFF1F0590F491E02D09947D
:10304000BB274A3031F4992322F4BDE29095819553
:103050009F4F0C945D18BB272A3051F4992342F4FA
:10306000BDE290958095709561957F4F8F4F9F4FF2
:103070000C943B18BB27FA01A62F62177105810536
:103080009105330B30FB66F0AA27660F771F881F68
:10309000991FAA1FA21710F0A21B63953850A9F719
:1030A000A05DAA3308F0A95DA19336F7B111B193E1
:1030B0001082CA010C947618BB27FB015527AA275A
:1030C000880F991FAA1FA41710F0A41B83955051B5
:1030D000B9F7A05DAA3308F0A95DA193009779F72D
:1030E000B111B1931192CB010C947618DC01FC0163
:1030F000672F71917723E1F7329704C07C916D932C
:1031000070836291AE17BF07C8F30895F894FFCF9C
:0831100000E1000000000801CD
:00000001FF
