:100000000C9454010C9471010C9471010C940A1C11
:100010000C9471010C9471010C9471010C94710198
:100020000C9471010C9471010C9427170C946117B6
:100030000C9471010C9471010C9471010C94710178
:100040000C9471010C94A6010C9471010C94710133
:100050000C9471010C9471010C9471010C94710158
:100060000C9471010C9471010C9471010C94710148
:100070000C9471010C94AB1F0C9471010C947101E0
:100080000C9471010C9471010C9471010C94710128
:100090000C9471010C9471010C94F01B0C94FD1BD9
:1000A0000C9471010C9471010C947101CF16C71658
:1000B000BF16B716AF16A7169F1697168F16871678
:1000C0007F1677166F1667165F1657164F16471668
:1000D0003F1637162F1627161F1617160F16071658
:1000E000FF15F715EF15E715DF15D715CF15C71550
:1000F000BF15B715AF15A7159F1597158F15871540
:100100007F1577156F1567155F1557154F1547152F
:100110003F1537152F1527151F1517150F1507151F
:10012000FF14F714EF14E714DF14D714CF14671B70
:10013000961BB21BBE1BEB1BEB1BE91BEB1FED1F42
:10014000F41FFB1F02200E201A202B20084AD73B49
:100150003BCE016E84BCBFFDC12F3D6C74319ABD96
:1001600056833DDA3D00C77F11BED9E4BB4C3E91BA
:100170006BAAAABE000000803F05A84CCDB2D44EA9
:10018000B93836A9020C50B9918688083CA6AAAAAB
:100190002ABE000000803F00094F435234423A001B
:1001A000094F435234413A000A6677640000010067
:1001B000004402120002000001024300030000FD9F
:1001C000010401030904E9011202030904E1010623
:1001D00003030904D701080803340031003000008C
:1001E0000006034D003200000012034A002E0020DA
:1001F000004600690065006E006500000004030908
:100200000409024300020100C03209040000010297
:10021000020100052400100105240101010424024B
:1002200006052406000107058203100040090401A9
:1002300000020A00000007050302400000070584D1
:10024000024000001201000202000010C0167A04F1
:100250000001010203010001C11201803601813653
:1002600009416D6269656E743A20000944697374CE
:100270003A200009416E676C653A200009443A2033
:10028000000949523A200009494C3A200009544CCF
:100290003A2000094C3A200009423A200009523A1B
:1002A00020000A54523A200011241FBECFEFDAE09A
:1002B000DEBFCDBF11E0A0E0B1E0E8ECF9E402C0A0
:1002C00005900D92AA32B107D9F721E0AAE2B1E078
:1002D00001C01D92A93AB207E1F70E9452200C9486
:1002E000E2240C94000010924401109245011092F7
:1002F00046011092470110928500109284000895E3
:10030000E1E8F0E080818B7F808380818260808360
:1003100080818160808380818F7E808380818860FE
:100320008083E0E8F0E080818D7F808380818E7F14
:100330008083EFE6F0E08081826080838AEF90E046
:1003400090938900809388000C9473011F920F9200
:100350000FB60F9211248F939F93AF93BF93809109
:10036000440190914501A0914601B0914701019649
:10037000A11DB11D8093440190934501A0934601B6
:10038000B0934701BF91AF919F918F910F900FBE96
:100390000F901F901895239A08951B9B0E94CB01E4
:1003A000479A469881E090E090937501809374019C
:1003B00008951B9B0E94CB014798469A10927501A5
:1003C0001092740108951B9B0E94CB012E9A2D98C8
:1003D00081E090E090937B0180937A0108951B9BCC
:1003E0000E94CB012E982D9A10927B0110927A01D7
:1003F0000895239808958F929F92AF92BF92CF92C3
:10040000DF92EF92FF920F931F93CF93DF93809130
:100410007401909175016091CF0070E0892B89F093
:1004200080E090E00E94F62120E030E048EC52E4C9
:100430000E940F2320E030E04FE753E40E945B214D
:1004400018C080E090E00E94F62120E030E048EC07
:1004500052E40E940F2320E030E04FE753E40E9473
:100460005B219B01AC0160E070E088EC92E40E94AB
:100470008D200E94C3218B0180917A0190917B0194
:100480006091D00070E0892B89F080E090E00E94BC
:10049000F62120E030E048EC52E40E940F2320E0F7
:1004A00030E04FE753E40E945B2118C080E090E009
:1004B0000E94F62120E030E048EC52E40E940F2335
:1004C00020E030E04FE753E40E945B219B01AC0148
:1004D00060E070E088EC92E40E948D200E94C321CD
:1004E000EB01B801882777FD8095982F0E94F621AF
:1004F0002DEC3CEC4CE45EE30E940F236B017C018D
:100500006091840170918501882777FD8095982FEF
:100510000E94F6212DEC3CEC4CE45FE30E940F239B
:100520009B01AC01C701B6010E948E200E94C3212D
:100530004B015C01BE01882777FD8095982F0E94B2
:10054000F6212DEC3CEC4CE45EE30E940F236B01A2
:100550007C016091720170917301882777FD80950D
:10056000982F0E94F6212DEC3CEC4CE45FE30E94B6
:100570000F239B01AC01C701B6010E948E200E948F
:10058000C3216B017C01EB0118141904ACF40E9427
:10059000CD018FEF889DB001899D700D11248827B2
:1005A00077FD8095982F0E94F62120E030E048ECFE
:1005B00052E40E945B211DC081149104F9F00E9455
:1005C000D9018FEF889DB001899D700D1124882776
:1005D00077FD8095982F0E94F62120E030E048ECCE
:1005E00052E40E945B2120E030E04FE753E40E9498
:1005F0008E200E94C8216093CF0004C00E94CD01CC
:100600001092CF001C161D06ACF40E94E3018FEF80
:100610008C9DB0018D9D700D1124882777FD8095EC
:10062000982F0E94F62120E030E048EC52E40E942E
:100630005B211CC0CD2BF9F00E94EF018FEF8C9D48
:10064000B0018D9D700D1124882777FD8095982F1E
:100650000E94F62120E030E048EC52E40E945B2149
:1006600020E030E04FE753E40E948E200E94C82132
:100670006093D00004C00E94E3011092D000DF918B
:10068000CF911F910F91FF90EF90DF90CF90BF908F
:10069000AF909F908F90089584E690E090938501AD
:1006A0008093840190937301809372010C94FB01F9
:1006B00082E390E09093850180938401909373018D
:1006C000809372010C94FB018CE99FEF909385015C
:1006D0008093840190937301809372010C94FB01C9
:1006E0008EEC9FEF9093850180938401909373012A
:1006F000809372010C94FB0182E390E0909385015A
:100700008093840189E190E090937301809372015A
:100710000C94FB0189E190E0909385018093840122
:1007200082E390E090937301809372010C94FB013B
:1007300089E190E090938501809384018CE090E0C2
:1007400090937301809372010C94FB018CE090E014
:10075000909385018093840189E190E090937301E7
:10076000809372010C94FB0182E390E090938501E9
:10077000809384018EEC9FEF9093730180937201BC
:100780000C94FB018EEC9FEF909385018093840184
:1007900082E390E090937301809372010C94FB01CB
:1007A000CF93DF9388EA91E00E94B01880EA91E04D
:1007B0000E94B0188091CF0090E00E94E41888E970
:1007C00091E00E94B0188091D00090E00E94E4185F
:1007D000C4EFD1E00E94640321972097D9F7DF91FD
:1007E000CF9108954F925F926F927F928F929F92D6
:1007F000AF92BF92CF92DF92EF92FF92209154017D
:100800003091550140915601509157010E948D2021
:100810006B017C016091360170913701882777FD6B
:100820008095982F0E94F6214B015C019B01AC0141
:10083000C701B6010E940F232091800130918101F0
:1008400040918201509183010E948E20609380012B
:1008500070938101809382019093830120E030E0C6
:10086000A9010E940F239B01AC01C701B6010E94A0
:100870008E202B013C01209176013091770140912F
:10088000780150917901C701B6010E948D2020E0C6
:1008900030E0A9010E940F23A50194010E945B2171
:1008A0009B01AC01C301B2010E948E20C09276016F
:1008B000D0927701E0927801F0927901FF90EF9069
:1008C000DF90CF90BF90AF909F908F907F906F9070
:1008D0005F904F9008954F925F926F927F928F92A8
:1008E0009F92AF92BF92CF92DF92EF92FF922091B0
:1008F0002A0130912B0140912C0150912D010E9431
:100900008D206B017C016091360170913701882741
:1009100077FD8095982F0E94F6214B015C019B0189
:10092000AC01C701B6010E940F2320917C013091D8
:100930007D0140917E0150917F010E948E20609345
:100940007C0170937D0180937E0190937F0120E074
:1009500030E0A9010E940F239B01AC01C701B60141
:100960000E948E202B013C0120916E0130916F017D
:100970004091700150917101C701B6010E948D2014
:1009800020E030E0A9010E940F23A50194010E94FC
:100990005B219B01AC01C301B2010E948E20C09279
:1009A0007601D0927701E0927801F0927901FF9080
:1009B000EF90DF90CF90BF90AF909F908F907F90FF
:1009C0006F905F904F9008958F929F92AF92BF92D9
:1009D000CF92DF92EF92FF924B015C0120E030E07A
:1009E000A9010E94542187FF0AC029EF3FE049EC8A
:1009F00050E4C501B4010E948E204B015C0120919E
:100A00005401309155014091560150915701C50153
:100A1000B4010E948E206B017C0129EF3FE049EC7C
:100A200050E40E940423181654F429EF3FE049ECE7
:100A300050E4C701B6010E948D206B017C0129EFB3
:100A40003FE049E450E4C501B4010E94542187FF0E
:100A500040C0209154013091550140915601509170
:100A60005701C701B6010E948D200E94C3219B013E
:100A700077FF04C022273327261B370BB9018827AD
:100A800077FD8095982F0E94F621209100013091EA
:100A9000010140910201509103010E9404231816A4
:100AA00074F50E94B403D5CFB901882777FD8095EE
:100AB000982F0E94F6212091000130910101409170
:100AC0000201509103010E9404231816C4F40E94ED
:100AD000C20320915401309155014091560150912B
:100AE0005701C701B6010E948D200E94C3219B01BE
:100AF00077FFDACF22273327261B370BD5CFFF907E
:100B0000EF90DF90CF90BF90AF909F908F9008951F
:100B1000CF92DF92EF92FF926B017C0120E030E0F8
:100B2000A9010E94542187FF0AC029EF3FE049EC48
:100B300050E4C701B6010E948E206B017C0129EFB1
:100B40003FE049E450E4C701B6010E94542187FF09
:100B500040C020915401309155014091560150916F
:100B60005701C701B6010E948D200E94C3219B013D
:100B700077FF04C022273327261B370BB9018827AC
:100B800077FD8095982F0E94F621209100013091E9
:100B9000010140910201509103010E9404231816A3
:100BA00074F50E94B403D5CFB901882777FD8095ED
:100BB000982F0E94F621209100013091010140916F
:100BC0000201509103010E9404231816C4F40E94EC
:100BD000C20320915401309155014091560150912A
:100BE0005701C701B6010E948D200E94C3219B01BD
:100BF00077FFDACF22273327261B370BD5CFFF907D
:100C0000EF90DF90CF9008950E94B4032FEF83ED13
:100C100090E3215080409040E1F700C000000C9428
:100C2000F901CF92DF92EF92FF920E94491FC0908C
:100C30004C01D0904D01E0904E01F0904F012AE020
:100C400037ED43EA5DE3C701B6010E94542187FDF9
:100C50000AC026E636E646EC50E4C701B6010E941B
:100C60000423181634F4FF90EF90DF90CF900C948B
:100C70004C0329EF3FE049E450E4C701B6010E946C
:100C8000542187FF06C0FF90EF90DF90CF900C9427
:100C90009803FF90EF90DF90CF900C94A6036F9293
:100CA0007F928F929F92AF92BF92CF92DF92EF92FC
:100CB000FF920F931F93CF93DF9300D000D0CDB757
:100CC000DEB700911F0110912001081B190B6090E5
:100CD0001D0170901E01661A770AB801882777FDFA
:100CE0008095982F0E94F6219B01AC01B3018827C3
:100CF00077FD8095982F29833A834B835C830E94EC
:100D0000F62129813A814B815C810E94012129EFE2
:100D10003FE049EC5FE30E948E206B017C0129EFEC
:100D20003FE049E450E40E940423181654F429EFEC
:100D30003FE049EC50E4C701B6010E948D206B01F1
:100D40007C018090540190905501A0905601B09084
:100D50005701075F1F4F0331110560F489E0680EEA
:100D6000711CE3E16E16710428F40E94F90181E020
:100D700090E026C0A7019601C501B4010E948D2014
:100D800020E030E040E05FE30E94042318161CF4EA
:100D90000E947C0313C0A5019401C701B6010E9403
:100DA0008D2020E030E040E05FE30E94042318162D
:100DB0001CF40E948A0302C00E944C0380E090E071
:100DC0000F900F900F900F90DF91CF911F910F9187
:100DD000FF90EF90DF90CF90BF90AF909F908F905B
:100DE0007F906F900895CF92DF92EF92FF92809163
:100DF00024019091250181309105A9F5C09032011F
:100E0000D0903301E0903401F090350120E030E0E3
:100E1000A901C701B6010E94042318165CF4809151
:100E200015019091160120911F0130912001281782
:100E30003907B4F020E030E0A901C701B6010E94F3
:100E4000542118160CF449C0809117019091180193
:100E500020911F0130912001281739070CF03DC067
:100E600064E170E034C00297C1F5C0903201D090C7
:100E70003301E0903401F090350120E030E0A90129
:100E8000C701B6010E94042318165CF48091150175
:100E90009091160120911F013091200128173907E8
:100EA000A4F020E030E0A901C701B6010E9454215E
:100EB00018169CF0809117019091180120911F0144
:100EC000309120012817390744F46CEE7FEFFF9032
:100ED000EF90DF90CF900C944F06FF90EF90DF9053
:100EE000CF90089560E070E08091190190911A010F
:100EF0000C944F060E94E719811103C06A9A7298F8
:100F0000FDCF6A9A729A08954AE06091210181E0CA
:100F10000C94CB12CF93DF9380E885BF85BFECE7BD
:100F2000F0E080818F7B8083808180688083EAE726
:100F3000F0E0808184608083808182608083808112
:100F400081608083AEE7B0E08C9181608C93CDE7C7
:100F5000D0E08881846088838C9180618C938C91AF
:100F600080628C938C9180648C938C9180688C933C
:100F7000888181608883888182608883808188609D
:100F8000808380818F7D8083808180688083808161
:100F900080648083DF91CF910895539A3E9A269A78
:100FA0003F9A259A469A2E9A479A2D9AE1ECF0E0BC
:100FB00080818860808380818B7F808380818D7F2A
:100FC000808380818E7F8083A3ECB0E08C918D7FC5
:100FD0008C938C918E7F8C93A0ECB0E08C9182608E
:100FE0008C938C9180688C938C918F7B8C93808177
:100FF0008160808380818062808380818F7E808316
:101000008FEF8093D1008093CF008093D00008951C
:1010100080912401909125018130910531F018F0E3
:10102000029729F008958AE103C088E101C089E1AF
:101030008093210108950E94C4130E942312789482
:10104000219A229A209A0E9408080E9484070E94EE
:10105000CD070C948A078091220190912301813061
:10106000910519F00297A1F0089583E790E090931D
:101070001A01809319018DE89FEF90931C018093D2
:101080001B018BEA9FEF909318018093170108953D
:101090008DE89FEF90931A018093190183E790E008
:1010A00090931C0180931B0185E590E090931601BD
:1010B000809315010895CF92DF92EF92FF92CF9324
:1010C000DF93C0914401D091450180913801909106
:1010D0003901C81BD90BD0933701C09336018091D9
:1010E0001F01909120012091060130910701821B80
:1010F000930BBE010E94F323882777FD8095982FDC
:101100000E94F62160933201709333018093340181
:101110009093350180911D0190911E012091040151
:1011200030910501821B930BBE010E94F323882797
:1011300077FD8095982F0E94F62160932E01709381
:101140002F01809330019093310120913C01309127
:101150003D0140913E0150913F01609154017091D9
:10116000550180915601909157010E948D206B018D
:101170007C01BE01882777FD8095982F0E94F6217B
:101180009B01AC01C701B6010E945B2160932A015B
:1011900070932B0180932C0190932D01DF91CF91BF
:1011A000FF90EF90DF90CF900895AF92BF92CF92D3
:1011B000DF92EF92FF920F931F93CF93DF93609193
:1011C0000601709107010091040110910501643F2F
:1011D00081E0780729F4043F81E0180709F4B5C0DD
:1011E000A0901F01B0902001C501861B970B43966C
:1011F000C0911D01D0911E01879738F0CE01801B50
:10120000910B4396879708F07CC0882777FD8095DF
:10121000982F0E94F6212DEC3CEC4CE45FE30E94F9
:101220000F236B017C01B501882777FD8095982FEE
:101230000E94F6212CEC3CEC4CE45EE30E940F2370
:101240009B01AC01C701B6010E948E200E94C32100
:101250007093200160931F01B801882777FD809566
:10126000982F0E94F6212DEC3CEC4CE45FE30E94A9
:101270000F236B017C01BE01882777FD8095982F95
:101280000E94F6212CEC3CEC4CE45EE30E940F2320
:101290009B01AC01C701B6010E948E200E94C321B0
:1012A00070931E0160931D012DEC3CEC4CE45FE358
:1012B00060913C0170913D0180913E0190913F0110
:1012C0000E940F236B017C012CEC3CEC4CE45EE3B0
:1012D0006091540170915501809156019091570190
:1012E0000E940F239B01AC01C701B6010E948E2012
:1012F0006093540170935501809356019093570168
:1013000024C07093200160931F0110931E0100936D
:101310001D0180913C0190913D01A0913E01B09151
:101320003F018093540190935501A0935601B093CF
:101330005701DF91CF911F910F91FF90EF90DF90B8
:10134000CF90BF90AF900C945B08DF91CF911F912D
:101350000F91FF90EF90DF90CF90BF90AF900895E6
:101360004F925F926F927F928F929F92AF92BF92B5
:10137000CF92DF92EF92FF920F931F93CF93DF9361
:10138000CDB7DEB728970FB6F894DEBF0FBECDBF3E
:101390006B014901570120911F01309120013093C9
:1013A00007012093060120911D0130911E01309309
:1013B0000501209304014090540150905501609024
:1013C00056017090570140923C0150923D0160924D
:1013D0003E0170923F01481B590BBA01882777FDE7
:1013E0008095982F0E94F6219B01AC01B4016C19E5
:1013F0007D09882777FD8095982F2D833E834F8325
:1014000058870E94F6212D813E814F8158850E9488
:10141000012129EF3FE049EC5FE30E948D206B0141
:101420007C0129EF3FE049E450EC0E94542187FD04
:1014300009C0C0925401D0925501E0925601F09239
:10144000570110C029EF3FE049EC50E4C701B60155
:101450000E948E2060935401709355018093560131
:1014600090935701B501882777FD8095982F0E94AA
:10147000F6214B015C01B801882777FD8095982FF4
:101480000E94F6212B013C01A50194010E9401213B
:10149000905829EF3FE049EC5FE30E948D206B01FB
:1014A0007C0129EF3FE049E450EC0E94542187FF82
:1014B0000AC029EF3FE049EC50E4C701B6010E94A1
:1014C0008E206B017C0120E030E040E251E4C3015A
:1014D000B2010E945B212B013C0120E030E040E2A0
:1014E00051E4C501B4010E945B214B015C01A301E1
:1014F0009201C301B2010E940F232B013C01A501FF
:101500009401C501B4010E940F239B01AC01C301EA
:10151000B2010E948E200E947C2320E030E040E255
:1015200051E40E940F232B013C0129EF3FE049E4E5
:1015300050E4609154017091550180915601909151
:1015400057010E948E204B015C01A70196010E9469
:101550008D206B017C0129EF3FE049E450EC0E94B3
:10156000542187FF0AC029EF3FE049EC50E4C7014E
:10157000B6010E948E206B017C0129EF3FE049E417
:1015800050E4C701B6010E940423181654F429EF51
:101590003FE049EC50E4C701B6010E948D206B0189
:1015A0007C01C701B6010E9458219B01AC018091CA
:1015B000080190910901A0910A01B0910B01898362
:1015C0009A83AB83BC83C301B2010E940F2329819C
:1015D0003A814B815C810E940F230E94C321719547
:1015E000619571097093200160931F01C701B601D5
:1015F0000E9472239B01AC01C301B2010E940F2320
:1016000029813A814B815C810E940F230E94C32172
:1016100071956195710970931E0160931D0129EF09
:101620003FE049E450E4C501B4010E9404231816C8
:101630004CF08092540190925501A0925601B092C4
:10164000570110C029EF3FE049EC50E4C501B40157
:101650000E948D2060935401709355018093560130
:101660009093570128960FB6F894DEBF0FBECDBFFA
:10167000DF91CF911F910F91FF90EF90DF90CF906E
:10168000BF90AF909F908F907F906F905F904F90A2
:101690000C94D5082F923F924F925F926F927F9257
:1016A0008F929F92AF92BF92CF92DF92EF92FF9272
:1016B0000F931F93CF93DF93CDB7DEB760970FB62D
:1016C000F894DEBF0FBECDBF1C017A876987FC018D
:1016D000A281B38120813181AD01421B530BFB01FB
:1016E0000280F381E02DFE83ED83FB01C080D18079
:1016F0008D819E818C199D09449F4001459F900CCE
:10170000900C1124889FA001899F500D500D112429
:10171000840E951EAA2497FCA094BA2CF101448152
:1017200055817A01E21AF30AFB010480F581E02D6C
:10173000FC87EB878F010C191D09EE9CB001EF9C13
:10174000700D700D1124009F7001019FF00CF00CC2
:1017500011246E0D7F1D2B01662457FC6094762C9E
:10176000F101668177817B01E21AF30AE985FA8546
:101770002681378189010C191D09EE9CC001EF9C5F
:10178000900D900D1124009F7001019FF00CF00C42
:1017900011248E0D9F1D7C010027F7FC0095102F52
:1017A000E982FA820B831C837A01EA1AFB0A0B8511
:1017B0001C858D819E81081B190BEE9C6001EF9C9E
:1017C000D00CD00C1124009F7001019FF00CF00C84
:1017D0001124CE0CDF1CEE24D7FCE094FE2CFB0180
:1017E000EA1BFB0BC9010D811E81801B910BEE9F33
:1017F0008001EF9F100D100D1124889FD001899F4B
:10180000B00DB00D11240A0F1B1FC801AA2797FDA8
:10181000A095BA2F8D839E83AF83B887641B750B09
:10182000AB85BC852A1B3B0B669FC001679F900D53
:10183000900D1124229FA001239F500D500D1124C3
:10184000840F951F8C01222717FD2095322F0D87BD
:101850001E872F87388BF42DE52D962D872D481464
:1018600059046A047B0424F4F82DE92D9A2D8B2D5C
:101870004F2F5E2F692F782F89819A81AB81BC8190
:10188000481759076A077B0714F4AC01BD014C15D2
:101890005D056E057F0514F4B701A6010D811E815B
:1018A0002F813885401751076207730714F4B90177
:1018B000A8018D859E85AF85B889481759076A07A5
:1018C0007B0714F4AC01BD01942D852DF62DE72D79
:1018D00084149504A604B70424F4982D892DFA2DB8
:1018E000EB2D092F182F2F2F3E2F89819A81AB8145
:1018F000BC8180179107A207B30714F48C019D01E6
:10190000D901C801C016D106E206F30614F4D701C6
:10191000C6018C019D018D819E81AF81B8858017A4
:101920009107A207B30714F48C019D01D901C801E6
:101930000D851E852F853889081719072A073B074B
:1019400014F4D901C801481559056A057B05A1F4AD
:1019500084159505A605B70519F421E030E091C07E
:1019600029813A814B815C8182179307A407B507CF
:10197000A1F320E030E03EC044155505660577052B
:10198000A1F488159905AA05BB0519F422E030E0F9
:1019900078C0E980FA800B811C818E159F05A00715
:1019A000B107A1F320E030E05DC009811A812B81ED
:1019B0003C81401751076207730781F48415950530
:1019C000A605B70519F423E030E05BC0881599053A
:1019D000AA05BB05C1F320E030E04EC04C155D0503
:1019E0006E057F05B1F488159905AA05BB0529F494
:1019F00022E030E081E090E046C02D813E814F81C1
:101A0000588582179307A407B50791F321E030E0CA
:101A100029C00D811E812F8138854017510762072B
:101A2000730781F488159905AA05BB0519F423E00D
:101A300030E0E0CF8C159D05AE05BF05C1F321E078
:101A400030E01AC00D851E852F8538894017510753
:101A500062077307A1F484159505A605B70529F457
:101A600023E030E082E090E00EC08C159D05AE05CD
:101A7000BF05B1F322E030E083E090E004C020E055
:101A800030E080E090E0BC01660F771FF101E60FC7
:101A9000F71F80819181220F331FF101E20FF31FA5
:101AA00040815181E985FA85E60FF71F60817181D8
:101AB000E985FA85E20FF31F208131817B01E20E77
:101AC000F31EF7FE03C01FEFE11AF10AF594E79445
:101AD0008C01040F151F17FF02C00F5F1F4F1595D4
:101AE00007950E94B00960960FB6F894DEBF0FBE4E
:101AF000CDBFDF91CF911F910F91FF90EF90DF90BD
:101B0000CF90BF90AF909F908F907F906F905F909D
:101B10004F903F902F9008952F923F924F925F9257
:101B20006F927F928F929F92AF92BF92CF92DF92ED
:101B3000EF92FF920F931F93CF93DF93CDB7DEB752
:101B400060970FB6F894DEBF0FBECDBF8C011B01AE
:101B5000DC0112966D917C911397CD90DC90DE861E
:101B6000CD86FB01EC19FD09D10112962D913C9116
:101B70001397CD90DC90D88ACF86A9014C195D09C6
:101B8000EE9FC001EF9F900D900D1124449FF00136
:101B9000459FF00DF00D11248E0F9F1F6C01EE2458
:101BA000D7FCE094FE2CC982DA82EB82FC82D80159
:101BB0001496ED90FC9015976701ED85FE85CE1A81
:101BC000DF0AD10114964D915C911597DA01EF85EA
:101BD000F889AE1BBF0BCC9CC001CD9C900D900D25
:101BE0001124AA9FF001AB9FF00DF00D11248E0F70
:101BF0009F1F2C01662457FC6094762CF701E61B8E
:101C0000F70B421B530BEE9FC001EF9F900D900D01
:101C10001124449F9001459F300D300D1124820FF7
:101C2000931F6C01EE24D7FCE094FE2CCD82DE8263
:101C3000EF82F886342D252D962D872DC980DA80E8
:101C4000EB80FC804C145D046E047F0424F4398125
:101C50002A819B818C81C32ED22EE92EF82E2D81D4
:101C60003E814F815885C216D306E406F50614F46A
:101C700069017A01342D252D962D872D49815A81B0
:101C80006B817C81441555056605770524F43981FF
:101C90002A819B818C81832E922EA92EB82E6D8154
:101CA0007E818F819885681579058A059B0514F4D6
:101CB0004B015C01C701B6010E94F62169877A8752
:101CC0008B879C87C501B4010E94F6219B01AC0162
:101CD00069857A858B859C850E945B2169877A87D7
:101CE0008B879C8720E030E040E050E40E94542144
:101CF00087FF3EC189819A81AB81BC81C816D90614
:101D0000EA06FB0651F484149504A604B70489F589
:101D10001A82198221E030E032C0C414D504E604EE
:101D2000F70471F4C980DA80EB80FC808C149D0488
:101D3000AE04BF0439F51A82198222E030E028C0CF
:101D40002D813E814F815885C216D306E406F506E3
:101D500011F5C980DA80EB80FC808C149D04AE0400
:101D6000BF04F1F421E030E03A83298322E030E03F
:101D70001DC041E050E05A83498320E030E082E01A
:101D800090E016C062E070E07A83698320E030E082
:101D900081E090E00DC01A82198220E030E006C098
:101DA00082E090E09A83898321E030E080E090E057
:101DB0006901CC0CDD1CF801EC0DFD1D608071800B
:101DC0007C01EE0CFF1CB301882777FD8095982FCE
:101DD0000E94F6214B015C01F801EE0DFF1D808190
:101DE0009181B301681B790B882777FD8095982F27
:101DF0000E94F62122EA35E446E05FE30E940F23C9
:101E00009B01AC01C501B4010E948E200E94C32138
:101E10004B015C01F101EC0DFD1DC080D180B601CC
:101E2000882777FD8095982F0E94F6212B013C0191
:101E3000F101EE0DFF1D80819181B601681B790BC8
:101E4000882777FD8095982F0E94F62122EA35E4B5
:101E500046E05FE30E940F239B01AC01C301B20186
:101E60000E948E200E94C3216D837E838F8398877A
:101E7000C980DA80CC0CDD1CDA86C986F601E00F59
:101E8000F11FC080D180DA82C982B401882777FD32
:101E90008095982F0E94F6216B017C0129813A815F
:101EA000B901882777FD8095982F0E94F6212B0194
:101EB0003C0169817A8168197909882777FD8095C5
:101EC000982F0E94F62128EA36EC4BE85EE30E9448
:101ED0000F239B01AC01C301B2010E948E209B0124
:101EE000AC01C701B6010E948D200E94C3214B01A5
:101EF0005C01E985FA85E20DF31D208031804D817A
:101F00005E81BA01882777FD8095982F0E94F6217F
:101F10006B017C01B101882777FD8095982F0E9485
:101F2000F6212B013C01B1018D819E81681B790B4B
:101F3000882777FD8095982F0E94F62128EA36ECB5
:101F40004BE85EE30E940F239B01AC01C301B20189
:101F50000E948E209B01AC01C701B6010E948D201A
:101F60000E94C3217B018401910149815A8156C19C
:101F700020E030E040E850E469857A858B859C85D7
:101F80000E94042318160CF44CC1A7019601C70146
:101F9000B6010E94E323A50194010E940724283979
:101FA0003840410551050CF03CC129813A814B81F3
:101FB0005C81C216D306E406F50661F48414950428
:101FC000A604B704A9F520E030E042E050E05A83CF
:101FD000498347C0C414D504E604F70481F4C980DA
:101FE000DA80EB80FC808C149D04AE04BF0439F5CC
:101FF00020E030E041E050E05A83498316C06D8113
:102000007E818F819885C616D706E806F906F1F419
:10201000C980DA80EB80FC808C149D04AE04BF0480
:10202000E1F421E030E01A82198282E090E01BC0E6
:1020300021E030E042E050E05A8349830BC022E0C7
:1020400030E061E070E07A83698304C020E030E032
:102050001A82198280E090E006C022E030E01A8205
:10206000198281E090E04901880C991CF801E80D83
:10207000F91D608071805C01AA0CBB1CB30188272C
:1020800077FD8095982F0E94F6216B017C01F80165
:10209000EA0DFB1D80819181681A790AB3018827B6
:1020A00077FD8095982F0E94F62122EA35E446E0DC
:1020B0005FE30E940F239B01AC01C701B6010E94A0
:1020C0008E200E94C3216B017C01F101E80DF91DF6
:1020D00080809180B401882777FD8095982F0E9499
:1020E000F6212B013C01F101EA0DFB1D808191815C
:1020F000881A990AB401882777FD8095982F0E9445
:10210000F62122EA35E446E05FE30E940F239B01BB
:10211000AC01C301B2010E948E200E94C3216D83D5
:102120007E838F83988789819A81880F991F9A83EC
:102130008983FC01E00FF11F00811181B60188271E
:1021400077FD8095982F0E94F6214B015C01B80124
:10215000882777FD8095982F0E94F6212B013C015E
:10216000B8016C197D09882777FD8095982F0E940A
:10217000F6212FED3FE44DEC5FE30E940F239B011E
:10218000AC01C301B2010E948E209B01AC01C501CC
:10219000B4010E948D200E94C3214B015C01A981E2
:1021A000BA81A20DB31D0D911C91AD81BE81BD01FF
:1021B000882777FD8095982F0E94F6216B017C017E
:1021C000B801882777FD8095982F0E94F6212B0172
:1021D0003C01B801ED81FE816E1B7F0B882777FDE6
:1021E0008095982F0E94F6212FED3FE44DEC5FE3A0
:1021F0000E940F239B01AC01C301B2010E948E20FB
:102200009B01AC01C701B6010E948D200E94C32131
:102210007B0184012F8538894D855E85B401C40119
:1022200070C029813A814B815C81C216D306E406D5
:10223000F50641F484149504A604B70429F521E0B9
:1022400030E02CC0C414D504E604F70461F4C9805E
:10225000DA80EB80FC808C149D04AE04BF04B9F4DA
:1022600022E030E01BC02D813E814F815885C2168F
:10227000D306E406F50681F484149504A604B70495
:1022800081F421E030E005C020E030E00CC020E027
:1022900030E082E090E009C020E030E080E090E0B3
:1022A00004C022E030E081E090E0BC01660F771FBF
:1022B000F801E60FF71F80819181220F331FF8018B
:1022C000E20FF31F40815181F101E60FF71F60819A
:1022D0007181F101E20FF31F208131817B01E20E58
:1022E000F31EF7FE03C0AFEFEA1AFA0AF594E7947B
:1022F0008C01040F151F17FF02C00F5F1F4F1595AC
:1023000007950E94B00960960FB6F894DEBF0FBE25
:10231000CDBFDF91CF911F910F91FF90EF90DF9094
:10232000CF90BF90AF909F908F907F906F905F9075
:102330004F903F902F900895CF93DF93CDB7DEB7A6
:1023400060970FB6F894DEBF0FBECDBFE7E8F1E0AF
:1023500080E090E0408151814F3F23E05207C9F077
:10236000228133812F3F63E0360799F0DC01AA0F09
:10237000BB1F61E070E06C0F7D1FA60FB71F5250AE
:1023800019965C934E931897205831402D933C93A7
:102390000196369671E0EF39F707E1F68430910542
:1023A00041F4BE016F5F7F4FCE0109960E944A0B38
:1023B00009C0039751F4BE016F5F7F4FCE010996AC
:1023C0000E948C0D6E9A769A02C06E9A76986096EC
:1023D0000FB6F894DEBF0FBECDBFDF91CF91089549
:1023E00087E891E00E94CC1A8093860181110E94B7
:1023F0009C1180918601089580911F019091200188
:102400008D589F4F089580911D0190911E01CC968B
:10241000089520E030E048EC52E46091540170915E
:10242000550180915601909157010E940F230E94FF
:10243000C821CB010895809120018095881F8827AD
:10244000881F8F5F0895589A599A5A9A8CE0809302
:10245000B800E9E6F0E080818062808380818F7E31
:102460008083EA9A7894089584E88093BC008091F0
:10247000BC0087FFFCCF8091BB00089584E9809366
:10248000BC00089520E030E08091BC0087FD06C0CC
:102490002F5F3F4F293E83E03807B1F781E0283EA8
:1024A000334009F480E008958093BB0084E8809372
:1024B000BC000E944212882321F08091B900887FDD
:1024C000089580E008951F93CF93DF931F92CDB7B7
:1024D000DEB7182F84EA8093BC0069830E94421201
:1024E0006981811104C094E99093BC0014C0812FCC
:1024F000880F662331F08F5F0E945412883451F4A4
:1025000004C00E945412803229F484E98093BC00F4
:1025100080E001C081E00F90DF91CF911F9108957D
:10252000CF93DF93C82FD62F60E00E9463128823D9
:1025300091F08D2F0E945412882369F084E98093D2
:10254000BC0061E08C2F0E946312882321F0DF9190
:10255000CF910C94341280E0DF91CF910895CF9306
:10256000DF93D62FC42F60E00E946312811102C056
:1025700080E00EC08D2F0E9454128823C9F38C2F47
:102580000E9454128823A1F384E98093BC0081E067
:10259000DF91CF910895CF93DF9300D01F92CDB7F5
:1025A000DEB74B836A8389830E94231294EA909357
:1025B000BC0089816A814B819091BC0097FFFCCF60
:1025C00090E59093BB0094E89093BC009091BC0080
:1025D00097FFFCCF9091B900987F903229F484E95D
:1025E0008093BC0080E029C091E09093BB0094E808
:1025F0009093BC009091BC0097FFFCCF8093BB00F0
:1026000084E88093BC008091BC0087FFFCCF60937E
:10261000BB0084E88093BC008091BC0087FFFCCFA6
:102620004093BB0084E88093BC008091BC0087FF8E
:10263000FCCF84E98093BC0081E00F900F900F9055
:10264000DF91CF91089524EA2093BC002091BC0033
:1026500027FFFCCF21E52093BB0024E82093BC009A
:102660002091BC0027FFFCCF2091B900287F28349F
:10267000A9F024EC2093BC002091BC0027FFFCCFE4
:102680002091BB0026130AC0FC0120E030E0772730
:1026900067FD70956150710944EC0EC084E9809328
:1026A000BC0080E008955091BC0057FFFCCF5091D2
:1026B000BB0051932F5F3F4F261737071CF4409301
:1026C000BC00F1CF44E84093BC004091BC0047FF00
:1026D000FCCF4091BB00FC01E20FF31F408384E973
:1026E0008093BC0081E00895F89494EA9093BC0034
:1026F0009091BC0097FFFCCF90E59093BB0094E8CD
:102700009093BC009091BC0097FFFCCF9091B900D2
:10271000987F903231F484E98093BC00789480E013
:10272000089593E09093BB0094E89093BC0090913F
:10273000BC0097FFFCCF8093BB0084E88093BC0073
:102740008091BC0087FFFCCFFB01552747FD5095CA
:1027500024E8CF01861B970B8417950754F48191C9
:102760008093BB002093BC008091BC0087FFFCCF0E
:10277000F0CF84E98093BC00789481E00895809143
:10278000E80080FFFCCF089581E08093D70080EAC5
:102790008093D80082E189BD09B400FEFDCF80E9B5
:1027A0008093D8001092E0001092430110924001F3
:1027B0008CE08093E200789408958091430108951D
:1027C0009FB7F89480914301882339F083E0809388
:1027D000E9008091E80085FD03C09FBF8FEF089559
:1027E0008091F1002091E80025FD03C02BE62093A5
:1027F000E8009FBF08959FB7F89480914301882314
:1028000031F083E08093E9008091F20001C080E024
:102810009FBF089580914301882371F08FB7F8948A
:1028200093E09093E9002BE69091E80095FF03C0B8
:102830002093E800F9CF8FBF089590914301992329
:1028400071F09FB7F89424E02093E90020914101B2
:10285000222349F02091E80025FD03C09FBF8FEFA0
:102860000895109241012091E400275E34E04091E8
:10287000E80045FD12C09FBF9091E400921304C090
:1028800081E080934101EBCF90914301992339F38B
:102890009FB7F8943093E900EACF8093F1008091DC
:1028A000E80085FD03C08AE38093E80085E080931B
:1028B00042019FBF80E00895909143019923D1F098
:1028C0009FB7F89424E02093E9002091E80025FDCB
:1028D00002C09FBF0FC08093F1008091E80085FD8A
:1028E00003C08AE38093E80085E0809342019FBFA4
:1028F00080E008958FEF0895EF92FF921F93CF939A
:10290000DF937C01CB0120914301222371F0AFB70B
:10291000F89424E02093E90020914101222349F01A
:102920002091E80025FD03C0AFBF8FEF42C2109297
:102930004101B4E0C0E4DAE315E0009709F437C2DE
:102940002091E400275E3091E80035FD12C0AFBF52
:102950003091E400321304C081E080934101E5CF5F
:1029600030914301332309F3AFB7F894B093E900F2
:10297000EACF2091F2004C2F421B242F30E0821727
:10298000930708F4482F841B910950E04134510506
:1029900008F0FDC14A5A5F4FFA010C942624F70152
:1029A00020812093F10097012F5F3F4F7901F701BC
:1029B00020812093F10097012F5F3F4F7901F701AC
:1029C00020812093F10097012F5F3F4F7901F7019C
:1029D00020812093F10097012F5F3F4F7901F7018C
:1029E00020812093F10097012F5F3F4F7901F7017C
:1029F00020812093F10097012F5F3F4F7901F7016C
:102A000020812093F10097012F5F3F4F7901F7015B
:102A100020812093F10097012F5F3F4F7901F7014B
:102A200020812093F10097012F5F3F4F7901F7013B
:102A300020812093F10097012F5F3F4F7901F7012B
:102A400020812093F10097012F5F3F4F7901F7011B
:102A500020812093F10097012F5F3F4F7901F7010B
:102A600020812093F10097012F5F3F4F7901F701FB
:102A700020812093F10097012F5F3F4F7901F701EB
:102A800020812093F10097012F5F3F4F7901F701DB
:102A900020812093F10097012F5F3F4F7901F701CB
:102AA00020812093F10097012F5F3F4F7901F701BB
:102AB00020812093F10097012F5F3F4F7901F701AB
:102AC00020812093F10097012F5F3F4F7901F7019B
:102AD00020812093F10097012F5F3F4F7901F7018B
:102AE00020812093F10097012F5F3F4F7901F7017B
:102AF00020812093F10097012F5F3F4F7901F7016B
:102B000020812093F10097012F5F3F4F7901F7015A
:102B100020812093F10097012F5F3F4F7901F7014A
:102B200020812093F10097012F5F3F4F7901F7013A
:102B300020812093F10097012F5F3F4F7901F7012A
:102B400020812093F10097012F5F3F4F7901F7011A
:102B500020812093F10097012F5F3F4F7901F7010A
:102B600020812093F10097012F5F3F4F7901F701FA
:102B700020812093F10097012F5F3F4F7901F701EA
:102B800020812093F10097012F5F3F4F7901F701DA
:102B900020812093F10097012F5F3F4F7901F701CA
:102BA00020812093F10097012F5F3F4F7901F701BA
:102BB00020812093F10097012F5F3F4F7901F701AA
:102BC00020812093F10097012F5F3F4F7901F7019A
:102BD00020812093F10097012F5F3F4F7901F7018A
:102BE00020812093F10097012F5F3F4F7901F7017A
:102BF00020812093F10097012F5F3F4F7901F7016A
:102C000020812093F10097012F5F3F4F7901F70159
:102C100020812093F10097012F5F3F4F7901F70149
:102C200020812093F10097012F5F3F4F7901F70139
:102C300020812093F10097012F5F3F4F7901F70129
:102C400020812093F10097012F5F3F4F7901F70119
:102C500020812093F10097012F5F3F4F7901F70109
:102C600020812093F10097012F5F3F4F7901F701F9
:102C700020812093F10097012F5F3F4F7901F701E9
:102C800020812093F10097012F5F3F4F7901F701D9
:102C900020812093F10097012F5F3F4F7901F701C9
:102CA00020812093F10097012F5F3F4F7901F701B9
:102CB00020812093F10097012F5F3F4F7901F701A9
:102CC00020812093F10097012F5F3F4F7901F70199
:102CD00020812093F10097012F5F3F4F7901F70189
:102CE00020812093F10097012F5F3F4F7901F70179
:102CF00020812093F10097012F5F3F4F7901F70169
:102D000020812093F10097012F5F3F4F7901F70158
:102D100020812093F10097012F5F3F4F7901F70148
:102D200020812093F10097012F5F3F4F7901F70138
:102D300020812093F10097012F5F3F4F7901F70128
:102D400020812093F10097012F5F3F4F7901F70118
:102D500020812093F10097012F5F3F4F7901F70108
:102D600020812093F10097012F5F3F4F7901F701F8
:102D700020812093F10097012F5F3F4F7901F701E8
:102D800020812093F10097012F5F3F4F7901F701D8
:102D900020812093F10097012F5F3F4F790120910F
:102DA000E80025FFD093E80010934201C6CDAFBFE5
:102DB00080E0DF91CF911F91FF90EF9008958FB742
:102DC000F89490914201992341F094E09093E900A6
:102DD0009AE39093E800109242018FBF089580918A
:102DE00010010895809111010895809112010895B4
:102DF0008091400108959FB7F894209143012223C8
:102E000039F022E02093E9003091E80035FD03C05D
:102E10009FBF8FEF089531EA3093F10030E2309395
:102E2000F1001092F1001092F1001092F100109256
:102E3000F1002093F1001092F1008093F1001092C4
:102E4000F1008AE38093E8009FBF80E008951F921D
:102E50000F920FB60F9211248F939F938091E100F0
:102E60001092E10083FF11C01092E90091E090936D
:102E7000EB001092EC0092E19093ED0098E09093BB
:102E8000F000109243011092400182FF13C0809124
:102E90004301882379F080914201882359F08150C1
:102EA00080934201811106C084E08093E9008AE3A7
:102EB0008093E8009F918F910F900FBE0F901F900D
:102EC00018951F920F920FB60F921124EF92FF9256
:102ED0000F931F932F933F934F935F936F937F9322
:102EE0008F939F93AF93BF93EF93FF93CF93DF9312
:102EF0001F92CDB7DEB71092E9008091E80083FF02
:102F000014C19091F1008091F1003091F100209175
:102F1000F100E32EF12CF22A0091F1002091F10052
:102F200010E0122B2091F1006091F10032EF30930C
:102F3000E800863009F046C036E08DEA91E0FC01F9
:102F4000459154914E155F0539F4FC013296459137
:102F500054914017510721F00796315081F7E5C091
:102F6000FC01349645915491FC013696849130E0F1
:102F7000362B2F3F310519F010F02FEF30E02817D6
:102F800008F4822F3EEF9091E800292F2570D9F3A5
:102F900092FDCEC0982F813108F090E1FA01292FDF
:102FA000222331F064916093F10021503196F8CFE3
:102FB000490F511D891B3093E8008111E4CF9031F6
:102FC00011F3B6C0853051F48EEF8093E8000E9473
:102FD000BF138E2D80688093E300AAC0893059F515
:102FE000911180C0E0924301109240011092420181
:102FF0008EEF8093E80041E086E592E04093E9009F
:103000009C012F5F3F4FFC0154915093EB005523DF
:1030100059F0F90124912093EC009C012D5F3F4F62
:10302000319684918093ED004F5F453011F0C901D6
:10303000E5CF8EE175C0883051F4903809F052C068
:103040000E94BF13809143018093F10047C08132F9
:1030500079F4913A09F046C00E94BF13ECE0F1E028
:1030600081918093F10081E0E331F807C9F736C020
:10307000803299F49132B1F58091E80082FFFCCF63
:10308000ECE0F1E08091F100819381E0E331F80719
:10309000C9F78BEF8093E80021C0823241F491326E
:1030A00009F043C0E09240010E94BF1317C0811194
:1030B00019C099830E94BF139981923851F40093EB
:1030C000E9008091EB0085FB882780F91092E900E8
:1030D00001C080E08093F1001092F1008EEF8093A8
:1030E000E80026C0282F2D7F2130F9F49230E9F432
:1030F000EF28D9F40F779FEF900F9430B0F49EEF44
:103100009093E8000093E900833079F089E180939F
:10311000EB0081E090E0002E01C0880F0A94EAF7EE
:103120008093EA001092EA0003C081E28093EB00F2
:103130000F90DF91CF91FF91EF91BF91AF919F9150
:103140008F917F916F915F914F913F912F911F913F
:103150000F91FF90EF900F900FBE0F901F9018955A
:103160001F93CF93DF93EC01FE011491112351F0D3
:103170001A3019F48DE00E941D14812F0E941D1435
:103180002196F2CFDF91CF911F9108958A3010F4EC
:1031900090E301C097E3890F0C941D14CF93C82FBF
:1031A00082958F700E94C6188C2F8F70CF910C94CF
:1031B000C618CF93C82F892F0E94CE188C2FCF917D
:1031C0000C94CE180C94CE18EF92FF920F931F938D
:1031D000CF93DF93CDB7DEB727970FB6F894DEBF56
:1031E0000FBECDBF8E010F5F1F4F27E0F801119278
:1031F0002A95E9F74AE0B8010E947C247E01F8E0B4
:10320000EF0EF11CF80181918F0181110E941D14B4
:103210000E151F05B9F727960FB6F894DEBF0FBE3F
:10322000CDBFDF91CF911F910F91FF90EF90089547
:10323000EF92FF920F931F93CF93DF9300D000D0B4
:1032400000D0CDB7DEB78E010F5F1F4F26E0F8012B
:1032500011922A95E9F74AE0B8010E94B8247E014C
:10326000F6E0EF0EF11CF80181918F0181110E94AF
:103270001D140E151F05B9F726960FB6F894DEBF7C
:103280000FBECDBFDF91CF911F910F91FF90EF90B7
:103290000895EF92FF920F931F93CF93DF93CDB7D3
:1032A000DEB72B970FB6F894DEBF0FBECDBF8E01F1
:1032B0000F5F1F4F2BE0F80111922A95E9F72AE0E2
:1032C000A8010E9487247E01FCE0EF0EF11CF801AA
:1032D00081918F0181110E941D140E151F05B9F7F0
:1032E0002B960FB6F894DEBF0FBECDBFDF91CF9106
:1032F0001F910F91FF90EF900895EF92FF920F931F
:103300001F93CF93DF93CDB7DEB72B970FB6F8940B
:10331000DEBF0FBECDBF8E010F5F1F4F2BE0F80148
:1033200011922A95E9F72AE0A8010E9496247E01CD
:10333000FBE0EF0EF11CF80181918F0181110E94D9
:103340001D140E151F05B9F72B960FB6F894DEBFA6
:103350000FBECDBFDF91CF911F910F91FF90EF90E6
:10336000089520E030E08091BC0087FD06C02F5F0B
:103370003F4F293E83E03807B1F781E0283E3340D4
:1033800009F480E008958093BB0084E88093BC003A
:103390000E94B119882319F08091B900887F08959F
:1033A000CF93C82F84EA8093BC000E94B119882370
:1033B00061F08C2F880F0E94C319803229F484E9B0
:1033C0008093BC0080E001C081E0CF9108950E940D
:1033D000231288E50E94D019811102C080E008956F
:1033E00080E30E94C3198823C9F381E00E94C319B6
:1033F0008823A1F384E98093BC008FE39CE90197C3
:10340000F1F700C0000088E50E94D019882331F34D
:1034100080E00E94C319882309F380E00E94C31949
:103420008823E1F280E00E94C3198823B9F280E08A
:103430000E94C319882391F280E00E94C319882357
:1034400069F280E00E94C319882341F280E00E9463
:10345000C319882319F280E90E94C319882309F44B
:10346000BDCF84E98093BC008FE39CE90197F1F71D
:1034700000C0000088E50E94D019882309F4AECF6F
:1034800087E00E94C319882309F4A8CF80E00E9436
:10349000C319882309F4A2CF81E40E94C3198823A9
:1034A00009F49CCF84E98093BC008FE39CE90197E9
:1034B000F1F700C0000088E50E94D019882309F4C4
:1034C0008DCF8AE10E94C319882309F487CF80E455
:1034D0000E94C319882309F481CF80E00E94C31998
:1034E000882309F47BCF84E98093BC008FE39CE9B7
:1034F0000197F1F700C0000088E50E94D0198823E9
:1035000009F46CCF83E30E94C319882309F466CFC2
:1035100083E00E94C319882309F460CF84E9809373
:10352000BC008FE39CE90197F1F700C0000088E53B
:103530000E94D019882309F451CF80E30E94C31957
:10354000882309F44BCF88E00E94C319882309F42B
:1035500045CF84E98093BC008FE39CE90197F1F7A4
:1035600000C0000081E00895CF93C82F84EA8093C3
:10357000BC000E94B119882369F08C2F880F8F5FDF
:103580000E94C319883429F484E98093BC0080E048
:1035900001C081E0CF910895EF92FF920F931F93A6
:1035A000CF93DF93CDB7DEB760970FB6F894DEBF49
:1035B0000FBECDBF7C018E010F5F1F4F80E1F80170
:1035C00011928A95E9F788E50E94D019811102C00D
:1035D00080E05EC086E30E94C3198823C9F384E9B2
:1035E0008093BC00F5E8FA95F1F7000088E50E94A9
:1035F000B41A882369F3F8019E01205F3F4F94ECD1
:103600009093BC008091BC0087FFFCCF8091BB00F1
:103610008193E217F307A1F784E88093BC008091BF
:10362000BC0087FFFCCF8091BB00888B84E980932E
:10363000BC00DE01149687016C91762F7073AD018A
:1036400042505109FA01808190E0F0E17F9F800DA6
:10365000911D1124F80191838083762F707C4F5F38
:103660005F4FFA01808190E0F4E07F9F800D911D13
:103670001124F801938382836F70862F90E09583E5
:10368000848313960A5F1F4FA217B307A9F681E040
:1036900060960FB6F894DEBF0FBECDBFDF91CF911D
:1036A0001F910F91FF90EF90089584E98093BC00E3
:1036B000089580919F0190E0FC01E05AF109E73004
:1036C000F10508F08CC0E956FF4F0C9426240E94A7
:1036D000F0110E941B12992787FD9095909323016A
:1036E000809322010E942B08809122019091230156
:1036F0008130910561F4299A2FEF80E792E0215003
:1037000080409040E1F700C000002A980895029799
:1037100009F065C02A9A2FEF80E792E0215080409F
:103720009040E1F700C00000299808950E94F01130
:103730000E941B12992787FD9095909323018093F7
:103740002201019719F4299A2A9802C02A9A2998E5
:103750000E942B0882E090E0909314018093130163
:103760000C94730140912201509123018091A0019A
:103770002091A10141305105E9F40BC04091220193
:10378000509123012091A0018091A1014230510567
:1037900089F4992787FD909590934B0180934A0176
:1037A000332727FD309530934901209348010E942B
:1037B000040611C0332727FD309530934B01209329
:1037C0004A01992787FD909590934901809348017C
:1037D00002C0469847981092140110921301089560
:1037E0001F920F920FB60F9211242B982D982E989E
:1037F0000F900FBE0F901F9018951F920F920FB64B
:103800000F9211242B9A2D9A2E9A0F900FBE0F9083
:103810001F9018951F920F920FB60F9211242F939D
:103820003F934F935F936F937F938F939F93AF9348
:10383000BF93EF93FF936AE08FE991E00E94231317
:103840000E94591BFF91EF91BF91AF919F918F9172
:103850007F916F915F914F913F912F910F900FBE8C
:103860000F901F90189582EA92E00E94B018809104
:103870006401909165010E94E4188DE992E00E9434
:10388000B01880916801909169010E94E41888E95C
:1038900092E00E94B01880916201909163010E94B1
:1038A000E41883E992E00E94B01880916001909141
:1038B00061010E94E4188DE892E00E94B0188091A6
:1038C0005C0190915D010E94E41887E892E00E94FB
:1038D000B01880916601909167010E94E41881E818
:1038E00092E00E94B01880915E0190915F010E9469
:1038F000E4188CE792E00E94B01880916A019091E0
:103900006B010E94E41883E792E00E94B01820E067
:1039100030E044E353E460914C0170914D0180919B
:103920004E0190914F010E940F2329EF3FE049E49F
:1039300050E40E945B210E94C321CB010E94E41845
:103940008BE692E00E94B01820E030E048EC52E4B0
:1039500060915001709151018091520190915301F9
:103960000E940F230E94C321CB010E94E41880E62D
:1039700092E00E94B01880915801909159010C94E6
:10398000E4188F929F92AF92BF92CF92DF92EF9204
:10399000FF920F931F93CF93DF936B017C01EA019A
:1039A0008901BA01882777FD8095982F0E94F6211A
:1039B0004B015C01BE01600F711F882777FD809568
:1039C000982F0E94F6219B01AC01C501B4010E9411
:1039D0005B219B01AC01C701B6010E940F23DF915F
:1039E000CF911F910F91FF90EF90DF90CF90BF90FC
:1039F000AF909F908F900895209158013091590178
:103A0000ECE5F1E080819181821B930B97FF03C06D
:103A10001182108202C091838083329681E0EC365D
:103A2000F80781F708954F925F926F927F928F927D
:103A30009F92AF92BF92CF92DF92EF92FF920F933D
:103A40001F93CF93DF930E94FC1CC0916401D0911F
:103A5000650180915C0190915D018C0F9D1F00912B
:103A6000660110916701800F911FE0905E01F09058
:103A70005F018E0D9F1D97FD0396BC01759567959F
:103A800075956795882777FD8095982F0E94F62178
:103A90002B013C018090680190906901B401882756
:103AA00077FD8095982F0E94F6219B01AC01C30100
:103AB000B2010E948E202B013C01C0906201D09087
:103AC0006301B601882777FD8095982F0E94F62123
:103AD0009B01AC01C301B2010E948E202B013C016D
:103AE000A0906001B0906101B501882777FD8095B5
:103AF000982F0E94F6219B01AC01C301B2010E94E4
:103B00008E202B013C016091280170912901660FE4
:103B1000771F660F771F882777FD8095982F0E9463
:103B2000F6219B01AC01C301B2010E945B216093AD
:103B300050017093510180935201909353012DECE9
:103B40003CEC4CEC5DE30E94542187FF04C02898B4
:103B500081E090E084C1289A80912601909127010C
:103B600020916A0130916B01281739073CF0081742
:103B7000190724F0E816F9060CF067C160905C01A3
:103B800070905D018615970554F48C179D073CF4E1
:103B90008017910724F48E159F050CF456C18C17DD
:103BA0009D075CF480179107BCF48E159F052CF4DB
:103BB0008DEC9CECACECBDE33FC1861597057CF425
:103BC0008017910764F48E159F050CF05DC18FE896
:103BD00092ECA5ECB0E430C18615970534F32DECDA
:103BE0003CEC4CEC5DE3609150017091510180918F
:103BF0005201909153010E94042318160CF02DC11C
:103C0000AEE5B1E021E030E080E090E041E050E05E
:103C10006D917D91FC01EE0FFF1FE45AFE4F019064
:103C2000F081E02DE617F7076CF0F901EE0FFF1FAA
:103C3000E45AFE4F0190F081E02DE617F70724F4D7
:103C40009A0102C09C01CA014F5F5F4F4730510586
:103C5000F9F6BC01621B730B6130710569F0A901B3
:103C6000481B590B4130510539F06630710521F080
:103C70004630510509F0BFC0A901821793070CF423
:103C8000AC014115510541F4069709F460C0263096
:103C9000310509F0DAC05BC04330510509F47CC03E
:103CA0004CF54230510509F0D0C0B501882777FDA9
:103CB0008095982F0E94F6216B017C01B501660D5D
:103CC000771D882777FD8095982F0E94F6219B010C
:103CD000AC01C701B6010E945B2121E230EB42E357
:103CE0005FE30E940F239B01AC0167E876E189EC5A
:103CF0009FE376C04430510529F04630510509F064
:103D0000A4C025C0BE01882777FD8095982F0E940A
:103D1000F6212B013C01BE01680D791D882777FD36
:103D20008095982F0E94F6219B01AC01C301B2013E
:103D30000E945B2121E230EB42E35FE30E940F230C
:103D40009B01AC0168EB7EE18DEA90E449C0B401CF
:103D5000882777FD8095982F0E94F6212B013C0142
:103D6000B4016C0D7D1D882777FD8095982F0E94EA
:103D7000F6219B01AC01C301B2010E945B2127E83F
:103D800036E149EC5FE30E940F239B01AC0164EB39
:103D900078EC86E990E424C0B601882777FD809509
:103DA000982F0E94F6212B013C01B6016A0D7B1D64
:103DB000882777FD8095982F0E94F6219B01AC0102
:103DC000C301B2010E945B2127E836E149EC5FE3C1
:103DD0000E940F239B01AC0167E876E189E490E43F
:103DE0000E948D2060934C0170934D0180934E0191
:103DF00090934F0132C083309105A9F04CF40097A5
:103E0000B9F0029711F589EF9FE0A9ECBFE314C068
:103E10008430910519F0069731F017C08BEF92E2CC
:103E2000ADEAB0E409C089EF9FE0A9E4B0E404C0C2
:103E300089EF96E6AFE5BFE380934C0190934D0187
:103E4000A0934E01B0934F0108C010924C01109204
:103E50004D0110924E0110924F0182E090E090933C
:103E6000140180931301DF91CF911F910F91FF9067
:103E7000EF90DF90CF90BF90AF909F908F907F900A
:103E80006F905F904F9008958C179D070CF49FCE14
:103E9000A6CE80916C0190916D01892B61F180918A
:103EA0007A008F7780937A000E94131D60914401FD
:103EB0007091450180914601909147012AE030E0E0
:103EC00040E050E00E940724672B682B692B11F417
:103ED0000E94331C10926D0110926C0180917A0047
:103EE000806880937A0080917A00806480937A0061
:103EF00081E090E0089580E090E008950E94491FDD
:103F0000892BE1F320916001309161018091620180
:103F100090916301281739070CF4C90120916801B9
:103F200030916901281739070CF4C90190935901A0
:103F3000809358012FEF33E0281B390B3093290170
:103F40002093280125EF33E0281B390B30932701FC
:103F50002093260108951F920F920FB60F921124FD
:103F60002F933F938F939F93EF93FF9380917A00CA
:103F70008F7780937A0080915A0190915B01209114
:103F8000780030917900FC01EE0FFF1FE45AFE4FDC
:103F9000318320838830910559F410925B0110928F
:103FA0005A0181E090E090936D0180936C0105C00F
:103FB000019690935B0180935A01E0915A01F09130
:103FC0005B01E830F10508F058C0E256FF4F8091E0
:103FD0007B000C9426248F7D2EC0806280937B0012
:103FE00080917C008B7F14C08F7D80937B008091BB
:103FF0007C00846025C08F7D80937B0080917C0055
:1040000084602FC08F7D80937B0080917C008460D2
:1040100080937C0080917C00826017C08F7D8093AC
:104020007B0080917C00846080937C0080917C0088
:1040300082601CC0806280937B0080917C008B7FBB
:1040400080937C0080917C008D7F80937C008091A8
:104050007C008E7F10C0806280937B0080917C000A
:104060008B7F80937C0080917C008D7F80937C008F
:1040700080917C00816080937C0080917A008068D0
:1040800080937A0080917A00806480937A00FF9117
:10409000EF919F918F913F912F910F900FBE0F90B5
:1040A0001F9018950E941B080E94CB0180E8809306
:1040B0006100109261000E94800181E090E0909385
:1040C00014018093130180911301909114018230A7
:1040D000910591F030F4009761F08130910571F015
:1040E000F6CF8430910591F060F08530910521F094
:1040F000EECF0E94F901E7CF0E94F0110E94491F04
:10410000E2CF0E94F0110E947207DDCF0E94F011F1
:104110000E94491F0E94F306D6CF5058BB27AA27FA
:104120000ED027C2F0D130F0F5D120F031F49F3F0E
:1041300011F41EF4C0C10EF4E095E7FBB6C1E92FFF
:104140003AD280F3BA17620773078407950718F00D
:1041500071F49EF552C20EF4E0950B2EBA2FA02DED
:104160000B01B90190010C01CA01A0011124FF2724
:10417000591B99F0593F50F4503E68F11A16F0401F
:10418000A22F232F342F4427585FF3CF469537951E
:104190002795A795F0405395C9F77EF41F16BA0BE3
:1041A000620B730B840BBAF09150A1F0FF0FBB1F91
:1041B000661F771F881FC2F70EC0BA0F621F731FDA
:1041C000841F48F4879577956795B795F7959E3F37
:1041D00008F0B3CF9395880F08F09927EE0F9795C5
:1041E0008795089590D158F080E891E009F49EEF0A
:1041F00091D128F040E851E059F45EEF09C05BC16D
:10420000FCC1E92FE078D7D168F3092E052AC1F364
:10421000261737074807590738F00E2E07F8E0250C
:1042200069F0E025E0640AC0EF6307F8009407FA3C
:10423000DB01B9019D01DC01CA01AD01EF934AD058
:1042400098D10AD05F91552331F02BED3FE049E43E
:1042500050FD49EC63CF0895DF93DD27B92FBF7779
:1042600040E85FE31616170648075B0710F4D92FDE
:10427000CFD19F938F937F936F937CD2ECE4F1E047
:104280001DD177D12F913F914F915F91D4D1DD23F3
:1042900049F09058A2EA2AED3FE049EC5FE3D0787C
:1042A0005D274DDFDF9165C1DCD008F481E0089522
:1042B00039D1E3956FC10CD05CC12CD140F023D132
:1042C00030F021F45F3F19F0F0C0511197C1F3C0F5
:1042D00072D198F39923C9F35523B1F3951B550B6C
:1042E000BB27AA2762177307840738F09F5F5F4FC9
:1042F000220F331F441FAA1FA9F333D00E2E3AF00A
:10430000E0E830D091505040E695001CCAF729D023
:10431000FE2F27D0660F771F881FBB1F2617370772
:104320004807AB07B0E809F0BB0B802DBF01FF27A2
:1043300093585F4F2AF09E3F510568F0B6C05EC1AA
:104340005F3FECF3983EDCF3869577956795B795DC
:10435000F7959F5FC9F7880F911D9695879597F9F7
:104360000895E1E0660F771F881FBB1F6217730770
:104370008407BA0720F0621B730B840BBA0BEE1F85
:1043800088F7E095089504D06894B11137C1089575
:104390001AD188F09F5790F0B92F9927B751A0F004
:1043A000D1F0660F771F881F991F1AF0BA95C9F7C9
:1043B00012C0B13081F021D1B1E008951EC1672F44
:1043C000782F8827B85F39F0B93FCCF38695779579
:1043D0006795B395D9F73EF4909580957095619562
:1043E0007F4F8F4F9F4F0895E89409C097FB3EF48D
:1043F00090958095709561957F4F8F4F9F4F992332
:10440000A9F0F92F96E9BB279395F69587957795AF
:104410006795B795F111F8CFFAF4BB0F11F460FF6F
:104420001BC06F5F7F4F8F4F9F4F16C0882311F0C7
:1044300096E911C0772321F09EE8872F762F05C0DB
:10444000662371F096E8862F70E060E02AF09A9576
:10445000660F771F881FDAF7880F9695879597F96B
:104460000895990F0008550FAA0BE0E8FEEF161605
:104470001706E807F907C0F012161306E407F50758
:1044800098F0621B730B840B950B39F40A2661F0CC
:10449000232B242B252B21F408950A2609F4A1406F
:1044A000A6958FEF811D811D089597F99F6780E87C
:1044B00070E060E008959FEF80EC0895DF93CF9364
:1044C0001F930F93FF92EF92DF927B018C01689410
:1044D00005C0DA2EEF01AFD0FE01E894A591259139
:1044E000359145915591AEF3EF0129DEFE0197011B
:1044F000A801DA9479F7DF90EF90FF900F911F9168
:10450000CF91DF91089500240A9416161706180615
:104510000906089500240A941216130614060506C7
:104520000895C9CF50D0E8F3E894E0E0BB279F5747
:10453000F0F02AED3FE049EC06C0EE0FBB0F661F1E
:10454000771F881F28F0B23A62077307840728F0A4
:10455000B25A620B730B840BE3959A9572F780380D
:1045600030F49A95BB0F661F771F881FD2F79048CB
:1045700006C1092E0394000C11F4882352F0BB0FDE
:1045800040F4BF2B11F460FF04C06F5F7F4F8F4F6B
:104590009F4F0895EF93E0FF06C0A2EA2AED3FE0A7
:1045A00049EC5FEBCCDDE5DF0F90039401FC905804
:1045B000E9E7F1E0F7C057FD9058440F551F59F057
:1045C0005F3F71F04795880F97FB991F61F09F3F00
:1045D00079F087950895121613061406551FF2CF29
:1045E0004695F1DF08C0161617061806991FF1CF79
:1045F00086957105610508940895E894BB276627A0
:104600007727CB0197F908952CDF08F48FEF0895F1
:104610009B01AC0160E070E080E89FE34CCE0BD0E2
:10462000A8CF71DF28F076DF18F0952309F03DCF91
:1046300042CF1124E3CFBFDFA0F3959FD1F3950FB5
:1046400050E0551F629FF001729FBB27F00DB11D16
:10465000639FAA27F00DB11DAA1F649F6627B00DA6
:10466000A11D661F829F2227B00DA11D621F739F8F
:10467000B00DA11D621F839FA00D611D221F749F9D
:104680003327A00D611D231F849F600D211D822FE4
:10469000762F6A2F11249F5750408AF0E1F088232B
:1046A0004AF0EE0FFF1FBB1F661F771F881F915038
:1046B0005040A9F79E3F510570F0F7CE9FCF5F3F66
:1046C000ECF3983EDCF3869577956795B795F7956B
:1046D000E7959F5FC1F7FE2B880F911D96958795F3
:1046E00097F908959F931EDF0F9007FCEE5F52CF5E
:1046F00011F40EF4E0CE41C066DFD0F39923D9F374
:10470000CEF39F57550B87FF46D00024A0E640EA22
:10471000900180585695979528F4805C660F771F16
:10472000881F20F026173707480730F4621B730BE9
:10473000840B202931294A2BA6951794079420250C
:1047400031254A2758F7660F771F881F20F0261754
:104750003707480730F4620B730B840B200D311DB3
:10476000411DA09581F7B901842F9158880F969526
:10477000879508959B01AC0152CF9F3F31F0915036
:1047800020F4879577956795B795880F911D969535
:10479000879597F9089591505040660F771F881FAD
:1047A000D2F708959F938F937F936F93FF93EF9327
:1047B0009B01AC0134DFEF91FF9180DE2F913F919F
:1047C0004F915F912CCFDB018F939F930E942C24FC
:1047D000BF91AF91A29F800D911DA39F900DB29F9D
:1047E000900D1124089597FB072E16F4009407D01E
:1047F00077FD09D00E94372407FC05D03EF4909540
:1048000081959F4F0895709561957F4F0895052E6E
:1048100097FB1EF400940E941E2457FD07D00E94AF
:104820004B2407FC03D04EF40C941E245095409565
:10483000309521953F4F4F4F5F4F0895909580954C
:10484000709561957F4F8F4F9F4F0895EE0FFF1F1B
:104850000590F491E02D09940E946D24A59F900D80
:10486000B49F900DA49F800D911D11240895AA1B43
:10487000BB1B51E107C0AA1FBB1FA617B70710F04B
:10488000A61BB70B881F991F5A95A9F7809590957D
:10489000BC01CD010895A1E21A2EAA1BBB1BFD018C
:1048A0000DC0AA1FBB1FEE1FFF1FA217B307E4070F
:1048B000F50720F0A21BB30BE40BF50B661F771F67
:1048C000881F991F1A9469F7609570958095909547
:1048D0009B01AC01BD01CF010895A29FB001B39F20
:1048E000C001A39F700D811D1124911DB29F700DF9
:1048F000811D1124911D0895BB274A3031F499235D
:1049000022F4BDE2909581959F4F0C94B924BB276A
:104910002A3051F4992342F4BDE290958095709528
:1049200061957F4F8F4F9F4F0C949724BB27FA01BF
:10493000A62F6217710581059105330B30FB66F0D8
:10494000AA27660F771F881F991FAA1FA21710F0AA
:10495000A21B63953850A9F7A05DAA3308F0A95DA2
:10496000A19336F7B111B1931082CA010C94D224ED
:10497000BB27FB015527AA27880F991FAA1FA41739
:1049800010F0A41B83955051B9F7A05DAA3308F02D
:10499000A95DA193009779F7B111B1931192CB0161
:1049A0000C94D224DC01FC01672F71917723E1F78D
:1049B000329704C07C916D9370836291AE17BF07EC
:0849C000C8F30895F894FFCF3D
:1049C800CDCC4C3EF401F40152B89E3E00E100000B
:1049D80000000801005700A9FF8DFF7300F401F4DF
:0A49E800011801000100FF03FF03A6
:00000001FF
