:100000000C947C010C9499010C9499010C94761C2D
:100010000C9499010C9499010C9499010C949901F8
:100020000C9499010C9499010C949E170C94D81778
:100030000C9499010C9499010C9499010C949901D8
:100040000C9499010C94CE010C9499010C94990193
:100050000C9499010C9499010C9499010C949901B8
:100060000C9499010C9499010C9499010C949901A8
:100070000C9499010C94731F0C9499010C949901A0
:100080000C9499010C9499010C9499010C94990188
:100090000C9499010C9499010C9499010C94990178
:1000A0000C9499010C9499010C94990146173E17F0
:1000B00036172E1726171E1716170E170617FE16B9
:1000C000F616EE16E616DE16D616CE16C616BE16B0
:1000D000B616AE16A6169E1696168E1686167E16A0
:1000E00076166E1666165E1656164E1646163E1690
:1000F00036162E1626161E1616160E160616FE1581
:10010000F615EE15E615DE15D615CE15C615BE1577
:10011000B615AE15A6159E1596158E1586157E1567
:1001200076156E1566155E1556154E154615DE1BB1
:10013000091C2C1C381C6F1C631C6D1C0F1E5B1EC5
:10014000351E991E811EB11EEC1E1620182024207B
:10015000302037203E2045205620084AD73B3BCE52
:10016000016E84BCBFFDC12F3D6C74319ABD5683B6
:100170003DDA3D00C77F11BED9E4BB4C3E916BAA6E
:10018000AABE000000803F05A84CCDB2D44EB938BD
:1001900036A9020C50B9918688083CA6AAAA2ABEA4
:1001A000000000803F000A002C002C20793A002C2F
:1001B0000000010000480212000200000502430096
:1001C00003000001020401030904ED011202030906
:1001D00004E5010603030904DB01080803340031C8
:1001E000003000000006034D003200000012034AF8
:1001F000002E0020004600690065006E00650000CA
:10020000000403090409024300020100C03209048A
:100210000000010202010005240010010524010173
:1002200001042402060524060001070582031000CC
:100230004009040100020A00000007050302400013
:1002400000070584024000001201000202000010B5
:10025000C0167A040001010203010001C1120180ED
:1002600036018136676F616C00706174726F6C006B
:100270006677643300726967687435006C6566740C
:1002800035006C6566743400726967687434007296
:100290006967687433006C65667433006C656674F6
:1002A0003200726967687432006261636B320066A3
:1002B00077643100726967687431006C6566743107
:1002C0000009416D6269656E743A200009443A2064
:1002D000000949523A200009494C3A200009544C7F
:1002E0003A2000094C3A200009423A200009523ACB
:1002F00020000A54523A200011241FBECFEFDAE04A
:10030000DEBFCDBF11E0A0E0B1E0E0E9FAE402C059
:1003100005900D92AC32B107D9F721E0ACE2B1E023
:1003200001C01D92A83BB207E1F70E9491200C94F6
:1003300046250C9400001092490110924A01109237
:100340004B0110924C011092850010928400089588
:10035000E1E8F0E080818B7F808380818260808310
:1003600080818160808380818F7E808380818860AE
:100370008083E0E8F0E080818D7F808380818E7FC4
:100380008083EFE6F0E08081826080838AEF90E0F6
:1003900090938900809388000C949B011F920F9288
:1003A0000FB60F9211248F939F93AF93BF938091B9
:1003B000490190914A01A0914B01B0914C010196E5
:1003C000A11DB11D8093490190934A01A0934B0157
:1003D000B0934C01BF91AF919F918F910F900FBE41
:1003E0000F901F9018954B9A08954B9B0E94F30114
:1003F000479A469881E090E090937E0180937D013A
:1004000008954B9B0E94F3014798469A10927E01F3
:1004100010927D0108954B9B0E94F3012E9A2D9816
:1004200081E090E0909301018093000108954B9B3F
:100430000E94F3012E982D9A109201011092000152
:1004400008955B9808958F929F92AF92BF92CF923A
:10045000DF92EF92FF920F931F93CF93DF93609100
:100460008B0170918C01882777FD8095982F0E94D1
:1004700082222CE53FE842E85FE30E949B236B0168
:100480007C0120E030E048EC52E40E94E02187FF4C
:1004900009C0C701B6010E944F2270938C0160937E
:1004A0008B0116C060917B0170917C01882777FDDC
:1004B0008095982F0E9482222CE53FE842E85FE376
:1004C0000E94E7210E944F2270937C0160937B0180
:1004D00080917D0190917E016091CF0070E0892B29
:1004E00089F080E090E00E94822220E030E048EC39
:1004F00052E40E949B2320E030E04FE753E40E9447
:10050000E72118C080E090E00E94822220E030E0E5
:1005100048EC52E40E949B2320E030E04FE753E494
:100520000E94E7219B01AC0160E070E088EC92E45E
:100530000E9419210E944F228B018091000190910D
:1005400001016091D00070E0892B89F080E090E09B
:100550000E94822220E030E048EC52E40E949B237B
:1005600020E030E04FE753E40E94E72118C080E02C
:1005700090E00E94822220E030E048EC52E40E94A9
:100580009B2320E030E04FE753E40E94E7219B01EA
:10059000AC0160E070E088EC92E40E9419210E94B6
:1005A0004F22EB01B801882777FD8095982F0E9494
:1005B00082222DEC3CEC4CE45EE30E949B236B0119
:1005C0007C0160918B0170918C01882777FD80956B
:1005D000982F0E9482222DEC3CEC4CE45FE30E94B9
:1005E0009B239B01AC01C701B6010E941A210E9406
:1005F0004F224B015C01BE01882777FD8095982F23
:100600000E9482222DEC3CEC4CE45EE30E949B2392
:100610006B017C0160917B0170917C01882777FDE3
:100620008095982F0E9482222DEC3CEC4CE45FE3F5
:100630000E949B239B01AC01C701B6010E941A21B5
:100640000E944F226B017C01EB0197FC15C00E94B8
:10065000F5018FEF889DB001899D700D11248827C9
:1006600077FD8095982F0E94822220E030E048ECB0
:1006700052E40E94E7211AC00E9401028FEF889D78
:10068000B001899D700D1124882777FD8095982FE2
:100690000E94822220E030E048EC52E40E94E721F0
:1006A00020E030E04FE753E40E941A210E945422D8
:1006B0006093CF00D7FD15C00E940B028FEF8C9D79
:1006C000B0018D9D700D1124882777FD8095982F9E
:1006D0000E94822220E030E048EC52E40E94E721B0
:1006E0001AC00E9417028FEF8C9DB0018D9D700D76
:1006F0001124882777FD8095982F0E94822220E080
:1007000030E048EC52E40E94E72120E030E04FE77F
:1007100053E40E941A210E9454226093D000DF917A
:10072000CF911F910F91FF90EF90DF90CF90BF90EE
:10073000AF909F908F90089584E690E090938C0105
:1007400080938B0190937C0180937B010C94230216
:100750008BE490E090938C0180938B0190937C01CB
:1007600080937B010C9423028CE99FEF90938C0182
:1007700080938B0190937C0180937B010C942302E6
:1007800085EB9FEF90938C0180938B0190937C017C
:1007900080937B010C9423028AE590E090938C0176
:1007A00080938B0182E390E090937C0180937B01A6
:1007B0000C94230282E390E090938C0180938B0150
:1007C0008AE590E090937C0180937B010C94230256
:1007D0008CE390E090938C0180938B018EE190E00C
:1007E00090937C0180937B010C9423028EE190E036
:1007F00090938C0180938B018CE390E090937C012B
:1008000080937B010C94230284E690E090938C010A
:1008100080938B018CE99FEF90937C0180937B0107
:100820000C9423028CE99FEF90938C0180938B01B1
:1008300084E690E090937C0180937B010C942302EA
:10084000CF93DF93C4EFD1E00E94B40321972097A8
:10085000D9F7DF91CF9108954F925F926F927F9277
:100860008F929F92AF92BF92CF92DF92EF92FF92C0
:100870002091590130915A0140915B0150915C01E6
:100880000E9419216B017C0160913A0170913B013A
:10089000882777FD8095982F0E9482224B015C016A
:1008A0009B01AC01C701B6010E949B2320918701E7
:1008B000309188014091890150918A010E941A214A
:1008C00060938701709388018093890190938A01D6
:1008D00020E030E0A9010E949B239B01AC01C701ED
:1008E000B6010E941A212B013C0120917F01309119
:1008F00080014091810150918201C701B6010E949F
:10090000192120E030E0A9010E949B23A501940158
:100910000E94E7219B01AC01C301B2010E941A2190
:10092000C0927F01D0928001E0928101F092820119
:10093000FF90EF90DF90CF90BF90AF909F908F90FF
:100940007F906F905F904F9008954F925F926F925B
:100950007F928F929F92AF92BF92CF92DF92EF924F
:10096000FF9220912E0130912F0140913001509142
:1009700031010E9419216B017C0160913A01709153
:100980003B01882777FD8095982F0E9482224B019A
:100990005C019B01AC01C701B6010E949B23209121
:1009A00083013091840140918501509186010E941C
:1009B0001A21609383017093840180938501909341
:1009C000860120E030E0A9010E949B239B01AC013D
:1009D000C701B6010E941A212B013C012091770129
:1009E000309178014091790150917A01C701B601A7
:1009F0000E94192120E030E0A9010E949B23A5015B
:100A000094010E94E7219B01AC01C301B2010E9445
:100A10001A21C0927F01D0928001E0928101F09270
:100A20008201FF90EF90DF90CF90BF90AF909F90AA
:100A30008F907F906F905F904F9008958F929F92CC
:100A4000AF92BF92CF92DF92EF92FF924B015C0187
:100A500020E030E0A9010E94E02187FF0AC029EFD1
:100A60003FE049EC50E4C501B4010E941A214B015A
:100A70005C012091590130915A0140915B015091E4
:100A80005C01C501B4010E941A216B017C0129EFB0
:100A90003FE049EC50E40E949023181654F429EFEB
:100AA0003FE049EC50E4C701B6010E9419216B01F7
:100AB0007C0129EF3FE049E450E4C501B4010E9404
:100AC000E02187FF40C02091590130915A014091A7
:100AD0005B0150915C01C701B6010E9419210E947F
:100AE0004F229B0177FF04C022273327261B370B99
:100AF000B901882777FD8095982F0E948222209146
:100B000002013091030140910401509105010E94BE
:100B10009023181674F50E940404D5CFB9018827D4
:100B200077FD8095982F0E948222209102013091BA
:100B3000030140910401509105010E949023181671
:100B4000C4F40E9412042091590130915A0140913D
:100B50005B0150915C01C701B6010E9419210E94FE
:100B60004F229B0177FFDACF22273327261B370B33
:100B7000D5CFFF90EF90DF90CF90BF90AF909F9038
:100B80008F900895CF92DF92EF92FF926B017C01DC
:100B900020E030E0A9010E94E02187FF0AC029EF90
:100BA0003FE049EC50E4C701B6010E941A216B01F5
:100BB0007C0129EF3FE049E450E4C701B6010E94FF
:100BC000E02187FF40C02091590130915A014091A6
:100BD0005B0150915C01C701B6010E9419210E947E
:100BE0004F229B0177FF04C022273327261B370B98
:100BF000B901882777FD8095982F0E948222209145
:100C000002013091030140910401509105010E94BD
:100C10009023181674F50E940404D5CFB9018827D3
:100C200077FD8095982F0E948222209102013091B9
:100C3000030140910401509105010E949023181670
:100C4000C4F40E9412042091590130915A0140913C
:100C50005B0150915C01C701B6010E9419210E94FD
:100C60004F229B0177FFDACF22273327261B370B32
:100C7000D5CFFF90EF90DF90CF9008950E940404AD
:100C80002FEF83ED90E3215080409040E1F700C0CA
:100C900000000C942102089520E030E0A901609149
:100CA00036017091370180913801909139010E948D
:100CB000902318162CF410922D0110922C010895F7
:100CC00081E090E090932D0180932C0108958F9204
:100CD0009F92AF92BF92CF92DF92EF92FF92CF930B
:100CE000DF9300D000D0CDB7DEB780902201909086
:100CF0002301881A990AA0902001B0902101A61A18
:100D0000B70AB401882777FD8095982F0E94822228
:100D10009B01AC01B501882777FD8095982F298329
:100D20003A834B835C830E94822229813A814B81E2
:100D30005C810E948D2129EF3FE049EC5FE30E9436
:100D40001A216B017C0129EF3FE049E450E40E9445
:100D50009023181654F429EF3FE049EC50E4C70102
:100D6000B6010E9419216B017C0189E0880E911C5B
:100D7000E3E18E16910460F4F9E0AF0EB11C83E15B
:100D8000A816B10428F40E94210281E090E02EC050
:100D90008090590190905A01A0905B01B0905C0145
:100DA000A7019601C501B4010E9419212DEC3CEC6C
:100DB0004CE45EE30E94902318161CF40E94CC03BE
:100DC00013C0A5019401C701B6010E9419212DECA1
:100DD0003CEC4CE45EE30E94902318161CF40E9445
:100DE000DA0302C00E949C0380E090E00F900F9015
:100DF0000F900F90DF91CF91FF90EF90DF90CF9009
:100E0000BF90AF909F908F90089580911E01909118
:100E10001F01019719F464E170E002C06CEE7FEFEE
:100E20002091220130912301C901865491094597EF
:100E300080F48091200190912101861B970B0A96E6
:100E4000459738F481E090E090932D0180932C0138
:100E500012C0265A3F4F2531310568F48091200198
:100E600090912101861B970B0A96459720F41092CA
:100E70002D0110922C0180912C0190912D01892B34
:100E800019F080EB9FEF02C080E590E00C946706BC
:100E900060912001709121019B012B5E3F4F809159
:100EA000190190911A012B32310510F060E070E0C9
:100EB0000C9467060E945E1A811103C06A9A7298A8
:100EC000FDCF6A9A729A08954AE060911D0181E00F
:100ED0000C944213CF93DF9380E885BF85BFECE786
:100EE000F0E080818F7B8083808180688083EAE767
:100EF000F0E0808184608083808182608083808153
:100F000081608083AEE7B0E08C9181608C93CDE707
:100F1000D0E08881846088838C9180618C938C91EF
:100F200080628C938C9180648C938C9180688C937C
:100F300088818160888388818860888380818860D7
:100F4000808380818F7D80838081806880838081A1
:100F500080648083DF91CF910895539A3E9A269AB8
:100F60003F9A259A469A2E9A479A2D9A539AE1ECDF
:100F7000F0E080818860808380818B7F80838081A6
:100F80008D7F808380818E7F8083E3ECF0E08081A1
:100F90008D7F808380818E7F8083E0ECF0E0808194
:100FA0008260808380818068808380818F7B808362
:100FB00080818160808380818062808380818F7E58
:100FC00080838FEF8093D1008093CF008093D000F7
:100FD000089580911E0190911F018130910531F09B
:100FE00018F0029729F008958AE103C088E101C052
:100FF00089E180931D0108950E943B140E949A127A
:101000007894219A229A209A0E94E9070E94640704
:101010000E94AD070C946A0720915F013091600136
:101020002130310519F4892B19F505C0223031051D
:10103000F9F40197E9F481E090E090935E018093E8
:101040005D0183E89FEF90931A01809319012DE7CA
:1010500030E030931C0120931B0125E530E03093F4
:10106000160120931501909318018093170108959C
:1010700010925E0110925D018DE790E090931A014D
:101080008093190123E83FEF30931C0120931B014B
:101090002BEA3FEF3093180120931701909316012C
:1010A0008093150108958F929F92AF92BF92CF9235
:1010B000DF92EF92FF920F931F93CF93DF93609194
:1010C000490170914A0180913C0190913D01681B5A
:1010D000790B70933B0160933A01C0912201D0914A
:1010E0002301882777FD8095982F0E9482226B012B
:1010F0007C018091080190910901BE01681B790B68
:10110000882777FD8095982F0E948222A70196015B
:101110000E94E72160933601709337018093380174
:1011200090933901009120011091210180910601D5
:1011300090910701B801681B790B882777FD80958E
:10114000982F0E948222A70196010E94E7216093B6
:101150003201709333018093340190933501809074
:10116000590190905A01A0905B01B0905C012091D0
:101170004001309141014091420150914301C5012C
:10118000B4010E941921A70196010E94E7216093F2
:101190002E0170932F018093300190933101D093F1
:1011A0000901C09308011093070100930601809282
:1011B000400190924101A0924201B0924301DF911F
:1011C000CF911F910F91FF90EF90DF90CF90BF9044
:1011D000AF909F908F900895AF92BF92CF92DF9281
:1011E000EF92FF920F931F93CF93DF9360910801CB
:1011F00070910901A0902201B0902301C0912001BB
:10120000D0912101643F81E0780741F0009106010F
:1012100010910701043F81E01807C9F4B092090159
:10122000A0920801D0930701C09306018091590153
:1012300090915A01A0915B01B0915C0180934001B3
:1012400090934101A0934201B0934301A3C0C50113
:10125000861B970B4396879738F0CE01801B910B26
:101260004396879708F07EC0882777FD8095982F52
:101270000E9482222DEC3CEC4CEC5DE30E949B230F
:101280006B017C01B501882777FD8095982F0E941E
:10129000822226E636E646E65FE30E949B239B0118
:1012A000AC01C701B6010E941A210E944F2270931F
:1012B000230160932201B801882777FD8095982F3C
:1012C0000E9482222DEC3CEC4CEC5DE30E949B23BF
:1012D0006B017C01BE01882777FD8095982F0E94C5
:1012E000822226E636E646E65FE30E949B239B01C8
:1012F000AC01C701B6010E941A210E944F227093CF
:101300002101609320012DEC3CEC4CEC5DE36091FD
:1013100040017091410180914201909143010E94EE
:101320009B236B017C0126E636E646E65FE360918F
:10133000590170915A0180915B0190915C010E946A
:101340009B239B01AC01C701B6010E941A21609347
:10135000590170935A0180935B0190935C010E9444
:10136000530818C070932301609322011093210148
:10137000009320018091400190914101A091420190
:10138000B09143018093590190935A01A0935B015E
:10139000B0935C018FEA91E00E94271980912201AD
:1013A000909123010E945B198AEA91E00E9427191B
:1013B00080912001909121010E945B1988EA91E0BF
:1013C0000E94271920E030E048EC52E46091590176
:1013D00070915A0180915B0190915C010E949B2366
:1013E0000E944F22CB010E945B1986EA91E00E9485
:1013F0002719DF91CF911F910F91FF90EF90DF9010
:10140000CF90BF90AF900C9456174F925F926F920F
:101410007F928F929F92AF92BF92CF92DF92EF9284
:10142000FF920F931F93CF93DF93CDB7DEB728972B
:101430000FB6F894DEBF0FBECDBF6B014901570157
:10144000209122013091230130930901209308015A
:101450002091200130912101309307012093060152
:101460004090590150905A0160905B0170905C016E
:1014700040924001509241016092420170924301BA
:10148000481B590BBA01882777FD8095982F0E9439
:1014900082229B01AC01B4016C197D09882777FD7C
:1014A0008095982F2D833E834F8358870E948222F8
:1014B0002D813E814F8158850E948D2129EF3FE08B
:1014C00049EC5FE30E9419216B017C0129EF3FE0A9
:1014D00049E450EC0E94E02187FD09C0C092590107
:1014E000D0925A01E0925B01F0925C0110C029EFAA
:1014F0003FE049EC50E4C701B6010E941A21609315
:10150000590170935A0180935B0190935C01B5017E
:10151000882777FD8095982F0E9482224B015C01DD
:10152000B801882777FD8095982F0E9482222B0191
:101530003C01A50194010E948D21905829EF3FE0C4
:1015400049EC5FE30E9419216B017C0129EF3FE028
:1015500049E450EC0E94E02187FF0AC029EF3FE0F8
:1015600049EC50E4C701B6010E941A216B017C01CD
:1015700020E030E040E251E4C301B2010E94E721E3
:101580002B013C0120E030E040E251E4C501B40110
:101590000E94E7214B015C01A3019201C301B2014A
:1015A0000E949B232B013C01A5019401C501B401BC
:1015B0000E949B239B01AC01C301B2010E941A212E
:1015C0000E94082420E030E040E251E40E949B2386
:1015D0002B013C0129EF3FE049E450E460915901BF
:1015E00070915A0180915B0190915C010E941A21D7
:1015F0004B015C01A70196010E9419216B017C013E
:1016000029EF3FE049E450EC0E94E02187FF0AC047
:1016100029EF3FE049EC50E4C701B6010E941A21CE
:101620006B017C0129EF3FE049E450E4C701B601BA
:101630000E949023181654F429EF3FE049EC50E43F
:10164000C701B6010E9419216B017C01C701B601D7
:101650000E94E4219B01AC0180910A0190910B0151
:10166000A0910C01B0910D0189839A83AB83BC8357
:10167000C301B2010E949B2329813A814B815C8185
:101680000E949B230E944F2271956195710970936E
:10169000230160932201C701B6010E94FE239B0132
:1016A000AC01C301B2010E949B2329813A814B8185
:1016B0005C810E949B230E944F2271956195710964
:1016C000709321016093200129EF3FE049E450E449
:1016D000C501B4010E94902318164CF08092590164
:1016E00090925A01A0925B01B0925C0110C029EF68
:1016F0003FE049EC50E4C501B4010E941921609318
:10170000590170935A0180935B0190935C01289674
:101710000FB6F894DEBF0FBECDBFDF91CF911F9102
:101720000F91FF90EF90DF90CF90BF90AF909F9080
:101730008F907F906F905F904F900C94EC082F9259
:101740003F924F925F926F927F928F929F92AF9251
:10175000BF92CF92DF92EF92FF920F931F93CF939E
:10176000DF93CDB7DEB760970FB6F894DEBF0FBE3C
:10177000CDBF1C017A876987FC01A281B3812081DA
:101780003181AD01421B530BFB010280F381E02D3F
:10179000FE83ED83FB01C080D1808D819E818C19F9
:1017A0009D09449F4001459F900C900C1124889FF7
:1017B000A001899F500D500D1124840E951EAA245E
:1017C00097FCA094BA2CF101448155817A01E21A68
:1017D000F30AFB010480F581E02DFC87EB878F0184
:1017E0000C191D09EE9CB001EF9C700D700D1124B9
:1017F000009F7001019FF00CF00C11246E0D7F1DF5
:101800002B01662457FC6094762CF1016681778168
:101810007B01E21AF30AE985FA852681378189017D
:101820000C191D09EE9CC001EF9C900D900D112428
:10183000009F7001019FF00CF00C11248E0D9F1D74
:101840007C010027F7FC0095102FE982FA820B83B8
:101850001C837A01EA1AFB0A0B851C858D819E8107
:10186000081B190BEE9C6001EF9CD00CD00C1124CE
:10187000009F7001019FF00CF00C1124CE0CDF1CB6
:10188000EE24D7FCE094FE2CFB01EA1BFB0BC90104
:101890000D811E81801B910BEE9F8001EF9F100D2B
:1018A000100D1124889FD001899FB00DB00D112417
:1018B0000A0F1B1FC801AA2797FDA095BA2F8D8379
:1018C0009E83AF83B887641B750BAB85BC852A1BD1
:1018D0003B0B669FC001679F900D900D1124229FC6
:1018E000A001239F500D500D1124840F951F8C01D2
:1018F000222717FD2095322F0D871E872F87388BC3
:10190000F42DE52D962D872D481459046A047B0487
:1019100024F4F82DE92D9A2D8B2D4F2F5E2F692F52
:10192000782F89819A81AB81BC81481759076A0752
:101930007B0714F4AC01BD014C155D056E057F05F8
:1019400014F4B701A6010D811E812F81388540173F
:1019500051076207730714F4B901A8018D859E85AC
:10196000AF85B889481759076A077B0714F4AC019B
:10197000BD01942D852DF62DE72D84149504A60424
:10198000B70424F4982D892DFA2DEB2D092F182F4B
:101990002F2F3E2F89819A81AB81BC8180179107BF
:1019A000A207B30714F48C019D01D901C801C01628
:1019B000D106E206F30614F4D701C6018C019D019D
:1019C0008D819E81AF81B88580179107A207B307EB
:1019D00014F48C019D01D901C8010D851E852F8548
:1019E0003889081719072A073B0714F4D901C801D9
:1019F000481559056A057B05A1F484159505A605CA
:101A0000B70519F421E030E091C029813A814B817A
:101A10005C8182179307A407B507A1F320E030E0AB
:101A20003EC04415550566057705A1F4881599054E
:101A3000AA05BB0519F422E030E078C0E980FA80FD
:101A40000B811C818E159F05A007B107A1F320E033
:101A500030E05DC009811A812B813C81401751071C
:101A60006207730781F484159505A605B70519F477
:101A700023E030E05BC088159905AA05BB05C1F3DA
:101A800020E030E04EC04C155D056E057F05B1F4D9
:101A900088159905AA05BB0529F422E030E081E00C
:101AA00090E046C02D813E814F8158858217930773
:101AB000A407B50791F321E030E029C00D811E8114
:101AC0002F813885401751076207730781F4881505
:101AD0009905AA05BB0519F423E030E0E0CF8C1589
:101AE0009D05AE05BF05C1F321E030E01AC00D85AC
:101AF0001E852F8538894017510762077307A1F4A7
:101B000084159505A605B70529F423E030E082E0A9
:101B100090E00EC08C159D05AE05BF05B1F322E027
:101B200030E083E090E004C020E030E080E090E02E
:101B3000BC01660F771FF101E60FF71F80819181CD
:101B4000220F331FF101E20FF31F40815181E9851C
:101B5000FA85E60FF71F60817181E985FA85E20F4A
:101B6000F31F208131817B01E20EF31EF7FE03C0DB
:101B70001FEFE11AF10AF594E7948C01040F151F89
:101B800017FF02C00F5F1F4F159507950E94050AAA
:101B900060960FB6F894DEBF0FBECDBFDF91CF9138
:101BA0001F910F91FF90EF90DF90CF90BF90AF907B
:101BB0009F908F907F906F905F904F903F902F906D
:101BC00008952F923F924F925F926F927F928F92E1
:101BD0009F92AF92BF92CF92DF92EF92FF920F93BC
:101BE0001F93CF93DF93CDB7DEB760970FB6F8940E
:101BF000DEBF0FBECDBF8C011B01DC0112966D91C3
:101C00007C911397CD90DC90DE86CD86FB01EC199C
:101C1000FD09D10112962D913C911397CD90DC9046
:101C2000D88ACF86A9014C195D09EE9FC001EF9FAC
:101C3000900D900D1124449FF001459FF00DF00D83
:101C400011248E0F9F1F6C01EE24D7FCE094FE2C14
:101C5000C982DA82EB82FC82D8011496ED90FC9066
:101C600015976701ED85FE85CE1ADF0AD10114961E
:101C70004D915C911597DA01EF85F889AE1BBF0B8A
:101C8000CC9CC001CD9C900D900D1124AA9FF00119
:101C9000AB9FF00DF00D11248E0F9F1F2C016624B9
:101CA00057FC6094762CF701E61BF70B421B530B95
:101CB000EE9FC001EF9F900D900D1124449F900165
:101CC000459F300D300D1124820F931F6C01EE24BF
:101CD000D7FCE094FE2CCD82DE82EF82F886342D94
:101CE000252D962D872DC980DA80EB80FC804C1441
:101CF0005D046E047F0424F439812A819B818C81E8
:101D0000C32ED22EE92EF82E2D813E814F8158858B
:101D1000C216D306E406F50614F469017A01342DDF
:101D2000252D962D872D49815A816B817C81441503
:101D300055056605770524F439812A819B818C81BC
:101D4000832E922EA92EB82E6D817E818F8198854B
:101D5000681579058A059B0514F44B015C01C701E0
:101D6000B6010E94822269877A878B879C87C5018A
:101D7000B4010E9482229B01AC0169857A858B8522
:101D80009C850E94E72169877A878B879C8720E062
:101D900030E040E050E40E94E02187FF3EC18981AD
:101DA0009A81AB81BC81C816D906EA06FB0651F4BC
:101DB00084149504A604B70489F51A82198221E0D7
:101DC00030E032C0C414D504E604F70471F4C980CD
:101DD000DA80EB80FC808C149D04AE04BF0439F5DE
:101DE0001A82198222E030E028C02D813E814F8185
:101DF0005885C216D306E406F50611F5C980DA80C7
:101E0000EB80FC808C149D04AE04BF04F1F421E04F
:101E100030E03A83298322E030E01DC041E050E009
:101E20005A83498320E030E082E090E016C062E00F
:101E300070E07A83698320E030E081E090E00DC0BB
:101E40001A82198220E030E006C082E090E09A8396
:101E5000898321E030E080E090E06901CC0CDD1C5A
:101E6000F801EC0DFD1D608071807C01EE0CFF1C03
:101E7000B301882777FD8095982F0E9482224B011D
:101E80005C01F801EE0DFF1D80819181B301681B9B
:101E9000790B882777FD8095982F0E94822222EA6D
:101EA00035E446E05FE30E949B239B01AC01C50142
:101EB000B4010E941A210E944F224B015C01F101E2
:101EC000EC0DFD1DC080D180B601882777FD80957F
:101ED000982F0E9482222B013C01F101EE0DFF1D83
:101EE00080819181B601681B790B882777FD8095E9
:101EF000982F0E94822222EA35E446E05FE30E94A6
:101F00009B239B01AC01C301B2010E941A210E94D4
:101F10004F226D837E838F839887C980DA80CC0CB3
:101F2000DD1CDA86C986F601E00FF11FC080D18082
:101F3000DA82C982B401882777FD8095982F0E94A4
:101F400082226B017C0129813A81B901882777FDC2
:101F50008095982F0E9482222B013C0169817A8111
:101F600068197909882777FD8095982F0E94822229
:101F700028EA36EC4BE85EE30E949B239B01AC0110
:101F8000C301B2010E941A219B01AC01C701B60135
:101F90000E9419210E944F224B015C01E985FA85BC
:101FA000E20DF31D208031804D815E81BA018827CA
:101FB00077FD8095982F0E9482226B017C01B101F0
:101FC000882777FD8095982F0E9482222B013C0163
:101FD000B1018D819E81681B790B882777FD8095E3
:101FE000982F0E94822228EA36EC4BE85EE30E949A
:101FF0009B239B01AC01C301B2010E941A219B01EA
:10200000AC01C701B6010E9419210E944F227B0139
:102010008401910149815A8156C120E030E040E8B5
:1020200050E469857A858B859C850E9490231816DB
:102030000CF44CC1A7019601C701B6010E946F24A0
:10204000A50194010E947F2428393840410551059B
:102050000CF03CC129813A814B815C81C216D306C8
:10206000E406F50661F484149504A604B704A9F502
:1020700020E030E042E050E05A83498347C0C41476
:10208000D504E604F70481F4C980DA80EB80FC8093
:102090008C149D04AE04BF0439F520E030E041E02B
:1020A00050E05A83498316C06D817E818F81988567
:1020B000C616D706E806F906F1F4C980DA80EB8087
:1020C000FC808C149D04AE04BF04E1F421E030E0F8
:1020D0001A82198282E090E01BC021E030E042E0E9
:1020E00050E05A8349830BC022E030E061E070E0A9
:1020F0007A83698304C020E030E01A82198280E08C
:1021000090E006C022E030E01A82198281E090E07F
:102110004901880C991CF801E80DF91D6080718057
:102120005C01AA0CBB1CB301882777FD8095982F12
:102130000E9482226B017C01F801EA0DFB1D808167
:102140009181681A790AB301882777FD8095982FC5
:102150000E94822222EA35E446E05FE30E949B234C
:102160009B01AC01C701B6010E941A210E944F22B7
:102170006B017C01F101E80DF91D80809180B401B3
:10218000882777FD8095982F0E9482222B013C01A1
:10219000F101EA0DFB1D80819181881A990AB40131
:1021A000882777FD8095982F0E94822222EA35E4C5
:1021B00046E05FE30E949B239B01AC01C301B20197
:1021C0000E941A210E944F226D837E838F839887FD
:1021D00089819A81880F991F9A838983FC01E00F76
:1021E000F11F00811181B601882777FD8095982F16
:1021F0000E9482224B015C01B801882777FD8095FF
:10220000982F0E9482222B013C01B8016C197D0994
:10221000882777FD8095982F0E9482222FED3FE43A
:102220004DEC5FE30E949B239B01AC01C301B20113
:102230000E941A219B01AC01C501B4010E94192121
:102240000E944F224B015C01A981BA81A20DB31DEE
:102250000D911C91AD81BE81BD01882777FD8095D0
:10226000982F0E9482226B017C01B801882777FD9C
:102270008095982F0E9482222B013C01B801ED81AC
:10228000FE816E1B7F0B882777FD8095982F0E941B
:1022900082222FED3FE44DEC5FE30E949B239B01E4
:1022A000AC01C301B2010E941A219B01AC01C7011C
:1022B000B6010E9419210E944F227B0184012F85C3
:1022C00038894D855E85B401C40170C029813A8189
:1022D0004B815C81C216D306E406F50641F48414F2
:1022E0009504A604B70429F521E030E02CC0C414FD
:1022F000D504E604F70461F4C980DA80EB80FC8041
:102300008C149D04AE04BF04B9F422E030E01BC07D
:102310002D813E814F815885C216D306E406F5060D
:1023200081F484149504A604B70481F421E030E01C
:1023300005C020E030E00CC020E030E082E090E01A
:1023400009C020E030E080E090E004C022E030E00E
:1023500081E090E0BC01660F771FF801E60FF71FE0
:1023600080819181220F331FF801E20FF31F40811A
:102370005181F101E60FF71F60817181F101E20FD8
:10238000F31F208131817B01E20EF31EF7FE03C0B3
:10239000AFEFEA1AFA0AF594E7948C01040F151FBF
:1023A00017FF02C00F5F1F4F159507950E94050A82
:1023B00060960FB6F894DEBF0FBECDBFDF91CF9110
:1023C0001F910F91FF90EF90DF90CF90BF90AF9053
:1023D0009F908F907F906F905F904F903F902F9045
:1023E0000895CF93DF93CDB7DEB760970FB6F8941B
:1023F000DEBF0FBECDBFEEE8F1E080E090E04081AF
:1024000051814F3F23E05207C9F0228133812F3F92
:1024100063E0360799F0DC01AA0FBB1F61E070E0B2
:102420006C0F7D1FA60FB71F525019965C934E93E9
:102430001897205831402D933C930196369671E0C1
:10244000E63AF707E1F68430910541F4BE016F5F8B
:102450007F4FCE0109960E949F0B09C0039751F44C
:10246000BE016F5F7F4FCE0109960E94E10D6E9A0B
:10247000769A02C06E9A769860960FB6F894DEBF90
:102480000FBECDBFDF91CF9108958EE891E00E94FD
:10249000431B80938D0181110E94F11180918D0168
:1024A000089580915D0190915E012091220130910B
:1024B0002301892B51F481E090E040911501509166
:1024C0001601241735075CF009C081E090E04091C7
:1024D000170150911801421753070CF080E008953E
:1024E00080912201909123018D589F4F08958091F2
:1024F000200190912101CC96089520E030E048EC35
:1025000052E46091590170915A0180915B01909160
:102510005C010E949B230E945422CB0108952091CC
:1025200023012095221F2227221F82E090E0821B98
:1025300091090895589A599A5A9A8CE08093B80054
:10254000E9E6F0E080818062808380818F7E8083F5
:10255000EA9A7894089584E88093BC008091BC0046
:1025600087FFFCCF8091BB00089584E98093BC0075
:10257000089520E030E08091BC0087FD06C02F5F09
:102580003F4F293E83E03807B1F781E0283E3340D2
:1025900009F480E008958093BB0084E88093BC0038
:1025A0000E94B912882321F08091B900887F089594
:1025B00080E008951F93CF93DF931F92CDB7DEB7CE
:1025C000182F84EA8093BC0069830E94B912698144
:1025D000811104C094E99093BC0014C0812F880F2E
:1025E000662331F08F5F0E94CB12883451F404C00F
:1025F0000E94CB12803229F484E98093BC0080E0F1
:1026000001C081E00F90DF91CF911F910895CF938A
:10261000DF93C82FD62F60E00E94DA12882391F052
:102620008D2F0E94CB12882369F084E98093BC002F
:1026300061E08C2F0E94DA12882321F0DF91CF9184
:102640000C94AB1280E0DF91CF910895CF93DF938C
:10265000D62FC42F60E00E94DA12811102C080E000
:102660000EC08D2F0E94CB128823C9F38C2F0E949D
:10267000CB128823A1F384E98093BC0081E0DF9131
:10268000CF910895CF93DF9300D01F92CDB7DEB7DF
:102690004B836A8389830E949A1294EA9093BC00C8
:1026A00089816A814B819091BC0097FFFCCF90E5B6
:1026B0009093BB0094E89093BC009091BC0097FF6E
:1026C000FCCF9091B900987F903229F484E98093EF
:1026D000BC0080E029C091E09093BB0094E8909307
:1026E000BC009091BC0097FFFCCF8093BB0084E8B6
:1026F0008093BC008091BC0087FFFCCF6093BB003F
:1027000084E88093BC008091BC0087FFFCCF40939D
:10271000BB0084E88093BC008091BC0087FFFCCFA5
:1027200084E98093BC0081E00F900F900F90DF91BF
:10273000CF91089524EA2093BC002091BC0027FF8C
:10274000FCCF21E52093BB0024E82093BC0020911E
:10275000BC0027FFFCCF2091B900287F2834A9F0C6
:1027600024EC2093BC002091BC0027FFFCCF2091DB
:10277000BB0026130AC0FC0120E030E0772767FD8C
:1027800070956150710944EC0EC084E98093BC00DF
:1027900080E008955091BC0057FFFCCF5091BB00E2
:1027A00051932F5F3F4F261737071CF44093BC000F
:1027B000F1CF44E84093BC004091BC0047FFFCCF00
:1027C0004091BB00FC01E20FF31F408384E980933A
:1027D000BC0081E00895F89494EA9093BC00909135
:1027E000BC0097FFFCCF90E59093BB0094E89093DA
:1027F000BC009091BC0097FFFCCF9091B900987FEE
:10280000903231F484E98093BC00789480E008959C
:1028100093E09093BB0094E89093BC009091BC002F
:1028200097FFFCCF8093BB0084E88093BC0080912D
:10283000BC0087FFFCCFFB01552747FD509524E8DE
:10284000CF01861B970B8417950754F481918093D1
:10285000BB002093BC008091BC0087FFFCCFF0CF71
:1028600084E98093BC00789481E008958091E80029
:1028700080FFFCCF089581E08093D70080EA8093A9
:10288000D80082E189BD09B400FEFDCF80E98093C4
:10289000D8001092E00010924701109244018CE0A1
:1028A0008093E200789408958091470108959FB73E
:1028B000F89480914701882339F083E08093E90000
:1028C0008091E80085FD03C09FBF8FEF0895809140
:1028D000F1002091E80025FD03C02BE62093E800DD
:1028E0009FBF08959FB7F89480914701882331F0E6
:1028F00083E08093E9008091F20001C080E09FBFF7
:10290000089580914701882371F08FB7F89493E080
:102910009093E9002BE69091E80095FF03C0209387
:10292000E800F9CF8FBF089590914701992371F086
:102930009FB7F89424E02093E900209145012223D9
:1029400049F02091E80025FD03C09FBF8FEF089557
:10295000109245012091E400275E34E04091E800A8
:1029600045FD12C09FBF9091E400921304C081E026
:1029700080934501EBCF90914701992339F39FB79D
:10298000F8943093E900EACF8093F1008091E80059
:1029900085FD03C08AE38093E80085E080934601CB
:1029A0009FBF80E00895909147019923D1F09FB790
:1029B000F89424E02093E9002091E80025FD02C06E
:1029C0009FBF0FC08093F1008091E80085FD03C098
:1029D0008AE38093E80085E0809346019FBF80E012
:1029E00008958FEF0895EF92FF921F93CF93DF9397
:1029F0007C01CB0120914701222371F0AFB7F894FD
:102A000024E02093E90020914501222349F0209100
:102A1000E80025FD03C0AFBF8FEF42C21092450111
:102A2000B4E0C0E4DAE315E0009709F437C220917E
:102A3000E400275E3091E80035FD12C0AFBF309151
:102A4000E400321304C081E080934501E5CF30916A
:102A50004701332309F3AFB7F894B093E900EACF05
:102A60002091F2004C2F421B242F30E08217930755
:102A700008F4482F841B910950E04134510508F0B7
:102A8000FDC14A5A5F4FFA010C949E24F701208140
:102A90002093F10097012F5F3F4F7901F7012081CB
:102AA0002093F10097012F5F3F4F7901F7012081BB
:102AB0002093F10097012F5F3F4F7901F7012081AB
:102AC0002093F10097012F5F3F4F7901F70120819B
:102AD0002093F10097012F5F3F4F7901F70120818B
:102AE0002093F10097012F5F3F4F7901F70120817B
:102AF0002093F10097012F5F3F4F7901F70120816B
:102B00002093F10097012F5F3F4F7901F70120815A
:102B10002093F10097012F5F3F4F7901F70120814A
:102B20002093F10097012F5F3F4F7901F70120813A
:102B30002093F10097012F5F3F4F7901F70120812A
:102B40002093F10097012F5F3F4F7901F70120811A
:102B50002093F10097012F5F3F4F7901F70120810A
:102B60002093F10097012F5F3F4F7901F7012081FA
:102B70002093F10097012F5F3F4F7901F7012081EA
:102B80002093F10097012F5F3F4F7901F7012081DA
:102B90002093F10097012F5F3F4F7901F7012081CA
:102BA0002093F10097012F5F3F4F7901F7012081BA
:102BB0002093F10097012F5F3F4F7901F7012081AA
:102BC0002093F10097012F5F3F4F7901F70120819A
:102BD0002093F10097012F5F3F4F7901F70120818A
:102BE0002093F10097012F5F3F4F7901F70120817A
:102BF0002093F10097012F5F3F4F7901F70120816A
:102C00002093F10097012F5F3F4F7901F701208159
:102C10002093F10097012F5F3F4F7901F701208149
:102C20002093F10097012F5F3F4F7901F701208139
:102C30002093F10097012F5F3F4F7901F701208129
:102C40002093F10097012F5F3F4F7901F701208119
:102C50002093F10097012F5F3F4F7901F701208109
:102C60002093F10097012F5F3F4F7901F7012081F9
:102C70002093F10097012F5F3F4F7901F7012081E9
:102C80002093F10097012F5F3F4F7901F7012081D9
:102C90002093F10097012F5F3F4F7901F7012081C9
:102CA0002093F10097012F5F3F4F7901F7012081B9
:102CB0002093F10097012F5F3F4F7901F7012081A9
:102CC0002093F10097012F5F3F4F7901F701208199
:102CD0002093F10097012F5F3F4F7901F701208189
:102CE0002093F10097012F5F3F4F7901F701208179
:102CF0002093F10097012F5F3F4F7901F701208169
:102D00002093F10097012F5F3F4F7901F701208158
:102D10002093F10097012F5F3F4F7901F701208148
:102D20002093F10097012F5F3F4F7901F701208138
:102D30002093F10097012F5F3F4F7901F701208128
:102D40002093F10097012F5F3F4F7901F701208118
:102D50002093F10097012F5F3F4F7901F701208108
:102D60002093F10097012F5F3F4F7901F7012081F8
:102D70002093F10097012F5F3F4F7901F7012081E8
:102D80002093F10097012F5F3F4F7901F7012081D8
:102D90002093F10097012F5F3F4F7901F7012081C8
:102DA0002093F10097012F5F3F4F7901F7012081B8
:102DB0002093F10097012F5F3F4F7901F7012081A8
:102DC0002093F10097012F5F3F4F7901F701208198
:102DD0002093F10097012F5F3F4F7901F701208188
:102DE0002093F10097012F5F3F4F7901F701208178
:102DF0002093F10097012F5F3F4F7901F701208168
:102E00002093F10097012F5F3F4F7901F701208157
:102E10002093F10097012F5F3F4F7901F701208147
:102E20002093F10097012F5F3F4F7901F701208137
:102E30002093F10097012F5F3F4F7901F701208127
:102E40002093F10097012F5F3F4F7901F701208117
:102E50002093F10097012F5F3F4F7901F701208107
:102E60002093F10097012F5F3F4F7901F7012081F7
:102E70002093F10097012F5F3F4F7901F7012081E7
:102E80002093F10097012F5F3F4F79012091E800D7
:102E900025FFD093E80010934601C6CDAFBF80E078
:102EA000DF91CF911F91FF90EF9008958FB7F89425
:102EB00090914601992341F094E09093E9009AE3C0
:102EC0009093E800109246018FBF089580911201FF
:102ED00008958091130108958091140108958091BF
:102EE000440108959FB7F89420914701222339F0B7
:102EF00022E02093E9003091E80035FD03C09FBF38
:102F00008FEF089531EA3093F10030E23093F10011
:102F10001092F1001092F1001092F1001092F10065
:102F20002093F1001092F1008093F1001092F100D3
:102F30008AE38093E8009FBF80E008951F920F927C
:102F40000FB60F9211248F939F938091E1001092FE
:102F5000E10083FF11C01092E90091E09093EB0033
:102F60001092EC0092E19093ED0098E09093F000C5
:102F7000109247011092440182FF13C080914701D3
:102F8000882379F080914601882359F081508093FD
:102F90004601811106C084E08093E9008AE38093B2
:102FA000E8009F918F910F900FBE0F901F90189582
:102FB0001F920F920FB60F921124EF92FF920F9370
:102FC0001F932F933F934F935F936F937F938F93B1
:102FD0009F93AF93BF93EF93FF93CF93DF931F9292
:102FE000CDB7DEB71092E9008091E80083FF14C1ED
:102FF0009091F1008091F1003091F1002091F10069
:10300000E32EF12CF22A0091F1002091F10010E062
:10301000122B2091F1006091F10032EF3093E80023
:10302000863009F046C036E081EB91E0FC01459125
:1030300054914E155F0539F4FC0132964591549137
:103040004017510721F00796315081F7E5C0FC0188
:10305000349645915491FC013696849130E0362B9C
:103060002F3F310519F010F02FEF30E0281708F44A
:10307000822F3EEF9091E800292F2570D9F392FD21
:10308000CEC0982F813108F090E1FA01292F222338
:1030900031F064916093F10021503196F8CF490FDF
:1030A000511D891B3093E8008111E4CF903111F359
:1030B000B6C0853051F48EEF8093E8000E9436143C
:1030C0008E2D80688093E300AAC0893059F5911154
:1030D00080C0E092470110924401109246018EEFA9
:1030E0008093E80041E08AE592E04093E9009C018A
:1030F0002F5F3F4FFC0154915093EB00552359F043
:10310000F90124912093EC009C012D5F3F4F3196F3
:1031100084918093ED004F5F453011F0C901E5CFF8
:103120008EE175C0883051F4903809F052C00E9489
:103130003614809147018093F10047C0813279F4C1
:10314000913A09F046C00E943614EEE0F1E0819118
:103150008093F10081E0E531F807C9F736C080328D
:1031600099F49132B1F58091E80082FFFCCFEEE056
:10317000F1E08091F100819381E0E531F807C9F732
:103180008BEF8093E80021C0823241F4913209F044
:1031900043C0E09244010E94361417C0811119C047
:1031A00099830E9436149981923851F40093E90072
:1031B0008091EB0085FB882780F91092E90001C01F
:1031C00080E08093F1001092F1008EEF8093E80090
:1031D00026C0282F2D7F2130F9F49230E9F4EF2812
:1031E000D9F40F779FEF900F9430B0F49EEF909347
:1031F000E8000093E900833079F089E18093EB00E7
:1032000081E090E0002E01C0880F0A94EAF78093D5
:10321000EA001092EA0003C081E28093EB000F9075
:10322000DF91CF91FF91EF91BF91AF919F918F91DE
:103230007F916F915F914F913F912F911F910F91CE
:10324000FF90EF900F900FBE0F901F9018951F9357
:10325000CF93DF93EC01FE011491112351F01A304A
:1032600019F48DE00E949414812F0E9494142196E9
:10327000F2CFDF91CF911F9108958A3010F490E33F
:1032800001C097E3890F0C949414CF93C82F8295B3
:103290008F700E943D198C2F8F70CF910C943D1927
:1032A000CF93C82F892F0E9445198C2FCF910C9452
:1032B00045190C944519EF92FF920F931F93CF93EA
:1032C000DF93CDB7DEB727970FB6F894DEBF0FBEFA
:1032D000CDBF8E010F5F1F4F27E0F80111922A9595
:1032E000E9F74AE0B8010E94E0247E01F8E0EF0E21
:1032F000F11CF80181918F0181110E9494140E1527
:103300001F05B9F727960FB6F894DEBF0FBECDBFE5
:10331000DF91CF911F910F91FF90EF900895EF9261
:10332000FF920F931F93CF93DF9300D000D000D074
:10333000CDB7DEB78E010F5F1F4F26E0F801119267
:103340002A95E9F74AE0B8010E941C257E01F6E0C3
:10335000EF0EF11CF80181918F0181110E949414EC
:103360000E151F05B9F726960FB6F894DEBF0FBEEF
:10337000CDBFDF91CF911F910F91FF90EF900895F6
:10338000EF92FF920F931F93CF93DF93CDB7DEB7EA
:103390002B970FB6F894DEBF0FBECDBF8E010F5F27
:1033A0001F4F2BE0F80111922A95E9F72AE0A801B6
:1033B0000E94EB247E01FCE0EF0EF11CF8018191EC
:1033C0008F0181110E9494140E151F05B9F72B96D9
:1033D0000FB6F894DEBF0FBECDBFDF91CF911F9126
:1033E0000F91FF90EF900895EF92FF920F931F932C
:1033F000CF93DF93CDB7DEB72B970FB6F894DEBF30
:103400000FBECDBF8E010F5F1F4F2BE0F801119251
:103410002A95E9F72AE0A8010E94FA247E01FBE040
:10342000EF0EF11CF80181918F0181110E9494141B
:103430000E151F05B9F72B960FB6F894DEBF0FBE19
:10344000CDBFDF91CF911F910F91FF90EF90089525
:1034500020E030E08091BC0087FD06C02F5F3F4F29
:10346000293E83E03807B1F781E0283E334009F474
:1034700080E008958093BB0084E88093BC000E94A4
:10348000281A882319F08091B900887F0895CF9376
:10349000C82F84EA8093BC000E94281A882361F018
:1034A0008C2F880F0E943A1A803229F484E9809385
:1034B000BC0080E001C081E0CF9108950E949A1283
:1034C00088E50E94471A811102C080E0089580E3D8
:1034D0000E943A1A8823C9F381E00E943A1A88238D
:1034E000A1F384E98093BC008FE39CE90197F1F795
:1034F00000C0000088E50E94471A882331F380E06D
:103500000E943A1A882309F380E00E943A1A88231D
:10351000E1F280E00E943A1A8823B9F280E00E942A
:103520003A1A882391F280E00E943A1A882369F2BD
:1035300080E00E943A1A882341F280E00E943A1A01
:10354000882319F280E90E943A1A882309F4BDCF32
:1035500084E98093BC008FE39CE90197F1F700C0F8
:10356000000088E50E94471A882309F4AECF87E05F
:103570000E943A1A882309F4A8CF80E00E943A1AE0
:10358000882309F4A2CF81E40E943A1A882309F41F
:103590009CCF84E98093BC008FE39CE90197F1F70D
:1035A00000C0000088E50E94471A882309F48DCFE7
:1035B0008AE10E943A1A882309F487CF80E40E94A6
:1035C0003A1A882309F481CF80E00E943A1A8823AE
:1035D00009F47BCF84E98093BC008FE39CE90197D9
:1035E000F1F700C0000088E50E94471A882309F41B
:1035F0006CCF83E30E943A1A882309F466CF83E0F4
:103600000E943A1A882309F460CF84E98093BC00B1
:103610008FE39CE90197F1F700C0000088E50E9464
:10362000471A882309F451CF80E30E943A1A88236D
:1036300009F44BCF88E00E943A1A882309F445CF59
:1036400084E98093BC008FE39CE90197F1F700C007
:10365000000081E00895CF93C82F84EA8093BC00D6
:103660000E94281A882369F08C2F880F8F5F0E9490
:103670003A1A883429F484E98093BC0080E001C0C0
:1036800081E0CF910895EF92FF920F931F93CF9314
:10369000DF93CDB7DEB760970FB6F894DEBF0FBEED
:1036A000CDBF7C018E010F5F1F4F80E1F8011192A9
:1036B0008A95E9F788E50E94471A811102C080E0E7
:1036C0005EC086E30E943A1A8823C9F384E9809396
:1036D000BC00F5E8FA95F1F7000088E50E942B1B85
:1036E000882369F3F8019E01205F3F4F94EC90938B
:1036F000BC008091BC0087FFFCCF8091BB00819310
:10370000E217F307A1F784E88093BC008091BC0026
:1037100087FFFCCF8091BB00888B84E98093BC003D
:10372000DE01149687016C91762F7073AD014250C3
:103730005109FA01808190E0F0E17F9F800D911D99
:103740001124F80191838083762F707C4F5F5F4F47
:10375000FA01808190E0F4E07F9F800D911D11249B
:10376000F801938382836F70862F90E09583848322
:1037700013960A5F1F4FA217B307A9F681E0609660
:103780000FB6F894DEBF0FBECDBFDF91CF911F9172
:103790000F91FF90EF90089584E98093BC00089505
:1037A0008091A80190E0FC01E05AF109E730F105B1
:1037B00008F09BC0E956FF4F0C949E240E944512CE
:1037C0000E948F129093600180935F018130910578
:1037D00069F4299A2A982FEF89E698E121508040D0
:1037E0009040E1F700C0000029980EC0029761F4F4
:1037F0002A9A29982FEF89E698E12150804090403D
:10380000E1F700C000002A981092600110925F0159
:1038100008950E94F3010E94451280915F019091EA
:103820006001892B89F40E948F129093600180932C
:103830005F01019719F4299A2A9802C02A9A2998B7
:1038400080E090E00E940C0882E090E09093A70155
:103850008093A6010C949B0140915F0150916001FF
:103860008091A9012091AA0141305105E9F40BC0D2
:1038700040915F01509160012091A9018091AA01BE
:103880004230510589F4992787FD90959093500116
:1038900080934F01332727FD309530934E012093BD
:1038A0004D010E943E061BC0332727FD3095309303
:1038B000500120934F01992787FD909590934E01D9
:1038C00080934D010CC01092A7011092A6010E9496
:1038D000210281E090E00C940C08469847981092E1
:1038E000A7011092A6010C94210208951F920F9235
:1038F0000FB60F9211248F9381E0809348018F912E
:103900000F900FBE0F901F90189582EF92E00E94CB
:10391000271980916B0190916C010E945B198DEECB
:1039200092E00E9427198091690190916A010E949A
:103930005B1988EE92E00E942719809165019091B1
:1039400066010E945B1983EE92E00E942719809124
:103950006701909168010E945B198DED92E00E94D1
:10396000271980916D0190916E010E945B1987ED7E
:1039700092E00E94271980916F01909170010E943E
:103980005B1981ED92E00E9427198091710190915D
:1039900072010E945B198CEC92E00E9427198091C1
:1039A0007301909174010E945B1981EC92E00E9476
:1039B000271980916101909162010C945B198091AB
:1039C000750190917601892B41F180917A008F7772
:1039D00080937A00109276011092750180917A009E
:1039E000806880937A0080917A00806480937A0066
:1039F0006091490170914A0180914B0190914C0175
:103A00002AE030E040E050E00E947F24672B682BE2
:103A1000692B31F40E94851C03C080E090E008957A
:103A200081E090E0089580E090E0A7E6B1E041E019
:103A300050E021E030E06D917D91FC01EE0FFF1F21
:103A4000EB59FE4F0190F081E02DE617F7076CF07F
:103A5000FA01EE0FFF1FEB59FE4F0190F081E02DB0
:103A6000E617F70724F4A90102C0AC01C9012F5FD2
:103A70003F4F28303105F9F69093B7018093B60196
:103A80005093B3014093B201FC01EE0FFF1FEB59BD
:103A9000FE4F20813181809126019091270182176C
:103AA000930724F4289A81E090E00895289880E014
:103AB00090E0089520917301309174018091280164
:103AC00090912901281739079CF0809171019091FC
:103AD00072018935924064F080916F01909170017C
:103AE000893592402CF06A9A729881E090E00895AE
:103AF0006A9A729A80E090E008958091B601909160
:103B0000B701FC01EE0FFF1FEB59FE4F2081318101
:103B10002430310519F540916D0150916E012091CD
:103B20006B0130916C0124173507C4F40E94DA034D
:103B30006091490170914A0180914B0190914C0133
:103B40002AE030E040E050E00E947F24672B682BA1
:103B5000692B09F092C18BEB92E08DC18330910506
:103B600019F540916B0150916C0120916D013091DC
:103B70006E0124173507C4F40E94CC0360914901FB
:103B800070914A0180914B0190914C012AE030E004
:103B900040E050E00E947F24672B682B692B09F0DE
:103BA0006CC184EB92E067C1409171015091720148
:103BB00020916F01309170014217530739F59C0134
:103BC000255031092230310548F02091B201309161
:103BD000B3012550310922303105C0F40E949C0305
:103BE0006091490170914A0180914B0190914C0183
:103BF0002AE030E040E050E00E947F24672B682BF1
:103C0000692B09F03AC18FEA92E035C187309105FE
:103C100008F01BC1FC01E256FF4F0C949E2420913A
:103C200065013091660180916701909168012817C4
:103C3000390719F40E94120402C00E940404609122
:103C4000490170914A0180914B0190914C012AE009
:103C500030E040E050E00E947F24672B682B692B06
:103C600009F00BC189EA92E006C120916901309107
:103C70006A018091240190912501281739071CF4CD
:103C80000E94CC0302C00E9404046091490170911B
:103C90004A0180914B0190914C012AE030E040E0D4
:103CA00050E00E947F24672B682B692B09F0E5C048
:103CB00082EA92E0E0C02091670130916801809132
:103CC000240190912501281739071CF40E94DA037A
:103CD00002C00E9412046091490170914A018091D2
:103CE0004B0190914C012AE030E040E050E00E940E
:103CF0007F24672B682B692B09F0BFC08CE992E009
:103D0000BAC00E94DA036091490170914A01809122
:103D10004B0190914C012AE030E040E050E00E94DD
:103D20007F24672B682B692B09F0A7C086E992E0F6
:103D3000A2C00E94CC036091490170914A01809118
:103D40004B0190914C012AE030E040E050E00E94AD
:103D50007F24672B682B692B09F08FC08FE892E0D6
:103D60008AC020916B0130916C0180916D0190911E
:103D70006E0182179307C4F40E94CC03609149013D
:103D800070914A0180914B0190914C012AE030E002
:103D900040E050E00E947F24672B682B692B09F0DC
:103DA0006CC088E892E067C00E94DA036091490124
:103DB00070914A0180914B0190914C012AE030E0D2
:103DC00040E050E00E947F24672B682B692B09F0AC
:103DD00054C082E892E04FC020916D0130916E0195
:103DE00080916B0190916C0182179307BCF40E9443
:103DF000DA036091490170914A0180914B019091E1
:103E00004C012AE030E040E050E00E947F24672B24
:103E1000682B692B91F58CE792E02DC00E94CC03B2
:103E20006091490170914A0180914B0190914C0140
:103E30002AE030E040E050E00E947F24672B682BAE
:103E4000692BD9F485E792E016C00E949C0360912B
:103E5000490170914A0180914B0190914C012AE0F7
:103E600030E040E050E00E947F24672B682B692BF4
:103E700021F480E792E00E9427190C944B062091D0
:103E8000610130916201E5E6F1E080819181821B60
:103E9000930B97FF03C01182108202C0918380832D
:103EA000329681E0E537F80781F708950E94DF1C1C
:103EB000892BE1F3209167013091680180916501C0
:103EC00090916601281739070CF4C9012091690106
:103ED00030916A01281739070CF4C90190936201E7
:103EE0008093610108951F920F920FB60F921124D3
:103EF0004F925F926F927F92AF92BF92CF92DF927A
:103F0000EF92FF920F931F932F933F934F935F93E3
:103F10006F937F938F939F93AF93BF93CF93DF93D1
:103F2000EF93FF9380917A008F7780937A00A0902F
:103F30006101B09062010091630110916401A114CC
:103F4000B10409F442C0E0907800F0907900E801F3
:103F5000CC0FDD1FCB59DE4F68817981882777FD33
:103F60008095982F0E9482222DEC3CEC4CEC5EE375
:103F70000E949B232B013C01B70180E090E00E944E
:103F800080222AE939E949E15FE30E949B239B01F2
:103F9000AC01C301B2010E941A216B017C01B50181
:103FA000882777FD8095982F0E9482229B01AC0183
:103FB000C701B6010E9419210E944F2279836883AC
:103FC00077FF12C0198218820FC0809178009091FB
:103FD0007900F801EE0FFF1FEB59FE4F91838083AC
:103FE00097FF02C0118210820830110559F4109217
:103FF00064011092630181E090E0909376018093D8
:10400000750106C00F5F1F4F109364010093630199
:10401000E0916301F0916401E830F10508F058C0C7
:10402000EB55FF4F80917B000C949E248F7D27C021
:104030008F7D80937B0080917C00846080937C00E6
:1040400080917C008D7F3DC08F7D80937B0080912F
:104050007C00846080937C0080917C008D7F20C0F8
:104060008F7D80937B0080917C00846025C08F7D54
:1040700080937B0080917C0084600DC0806280937F
:104080007B0080917C008B7FD9CF806280937B0006
:1040900080917C008B7F80937C0080917C0082608B
:1040A00080937C0080917C00816010C0806280934E
:1040B0007B0080917C008B7F80937C0080917C00D2
:1040C000826080937C0080917C008E7F80937C0056
:1040D00080917A00806880937A0080917A00806471
:1040E00080937A00FF91EF91DF91CF91BF91AF91D3
:1040F0009F918F917F916F915F914F913F912F9100
:104100001F910F91FF90EF90DF90CF90BF90AF90F5
:104110007F906F905F904F900F900FBE0F901F9009
:1041200018950E94FC070E94F30180E880936100CB
:10413000109261000E94561F0E94A80182E090E048
:104140009093A7018093A60183E0E82EF12CC1E0B3
:10415000D0E002E010E080914801882349F06AE055
:1041600088EA91E00E949A130E94D01B10924801A5
:104170000E9445120E94DF1C0E943F1F8091A601F1
:104180009091A7018230910529F128F40097A1F0C0
:104190000197A9F0E0CF8330910561F10697D9F638
:1041A0000E949C032FEF80E792E0215080409040D6
:1041B000E1F700C000002CC00E942102CCCF89E6AC
:1041C00092E00E9427190E94131D892B51F50E942D
:1041D0000507C1CF0E94131D892BC1F00E945A1DF3
:1041E000892B29F0F092A701E092A601B4CF0E949A
:1041F0007D1DB1CF84E692E00E9427190E945A1DCE
:10420000892B59F40E94131D892B39F40E944C0606
:10421000D093A701C093A6019ECF0E945A1D892B5F
:1042200029F41093A7010093A60195CF0E94480797
:1042300092CF5058BB27AA270ED027C2F0D130F01A
:10424000F5D120F031F49F3F11F41EF4C0C10EF4FB
:10425000E095E7FBB6C1E92F3AD280F3BA176207BF
:1042600073078407950718F071F49EF552C20EF497
:10427000E0950B2EBA2FA02D0B01B90190010C0176
:10428000CA01A0011124FF27591B99F0593F50F48E
:10429000503E68F11A16F040A22F232F342F4427E6
:1042A000585FF3CF469537952795A795F0405395DE
:1042B000C9F77EF41F16BA0B620B730B840BBAF0AE
:1042C0009150A1F0FF0FBB1F661F771F881FC2F719
:1042D0000EC0BA0F621F731F841F48F4879577952D
:1042E0006795B795F7959E3F08F0B3CF9395880FE4
:1042F00008F09927EE0F97958795089590D158F07B
:1043000080E891E009F49EEF91D128F040E851E077
:1043100059F45EEF09C05BC1FCC1E92FE078D7D149
:1043200068F3092E052AC1F32617370748075907EE
:1043300038F00E2E07F8E02569F0E025E0640AC0A9
:10434000EF6307F8009407FADB01B9019D01DC0176
:10435000CA01AD01EF934AD098D10AD05F9155239D
:1043600031F02BED3FE049E450FD49EC63CF089577
:10437000DF93DD27B92FBF7740E85FE316161706F6
:1043800048075B0710F4D92FCFD19F938F937F936A
:104390006F937CD2EAE5F1E01DD177D12F913F9167
:1043A0004F915F91D4D1DD2349F09058A2EA2AEDD4
:1043B0003FE049EC5FE3D0785D274DDFDF9165C1D9
:1043C000DCD008F481E0089539D1E3956FC10CD0B9
:1043D0005CC12CD140F023D130F021F45F3F19F0C3
:1043E000F0C0511197C1F3C072D198F39923C9F36A
:1043F0005523B1F3951B550BBB27AA2762177307EB
:10440000840738F09F5F5F4F220F331F441FAA1F9E
:10441000A9F333D00E2E3AF0E0E830D0915050405E
:10442000E695001CCAF729D0FE2F27D0660F771F0C
:10443000881FBB1F261737074807AB07B0E809F0EE
:10444000BB0B802DBF01FF2793585F4F2AF09E3F83
:10445000510568F0B6C05EC15F3FECF3983EDCF3F7
:10446000869577956795B795F7959F5FC9F7880FFC
:10447000911D9695879597F90895E1E0660F771F4E
:10448000881FBB1F621773078407BA0720F0621BDF
:10449000730B840BBA0BEE1F88F7E095089504D0D8
:1044A0006894B11137C108951AD188F09F5790F0E0
:1044B000B92F9927B751A0F0D1F0660F771F881F49
:1044C000991F1AF0BA95C9F712C0B13081F021D105
:1044D000B1E008951EC1672F782F8827B85F39F0A3
:1044E000B93FCCF3869577956795B395D9F73EF4A8
:1044F00090958095709561957F4F8F4F9F4F089550
:10450000E89409C097FB3EF490958095709561956D
:104510007F4F8F4F9F4F9923A9F0F92F96E9BB2723
:104520009395F695879577956795B795F111F8CF9F
:10453000FAF4BB0F11F460FF1BC06F5F7F4F8F4F0A
:104540009F4F16C0882311F096E911C0772321F000
:104550009EE8872F762F05C0662371F096E8862F98
:1045600070E060E02AF09A95660F771F881FDAF7EF
:10457000880F9695879597F90895990F0008550F1C
:10458000AA0BE0E8FEEF16161706E807F907C0F0D9
:1045900012161306E407F50798F0621B730B840BE1
:1045A000950B39F40A2661F0232B242B252B21F4BB
:1045B00008950A2609F4A140A6958FEF811D811D5B
:1045C000089597F99F6780E870E060E008959FEF95
:1045D00080EC0895DF93CF931F930F93FF92EF9298
:1045E000DF927B018C01689405C0DA2EEF01AFD019
:1045F000FE01E894A5912591359145915591AEF331
:10460000EF0129DEFE019701A801DA9479F7DF9026
:10461000EF90FF900F911F91CF91DF9108950024AB
:104620000A941616170618060906089500240A9417
:1046300012161306140605060895C9CF50D0E8F3E4
:10464000E894E0E0BB279F57F0F02AED3FE049EC0B
:1046500006C0EE0FBB0F661F771F881F28F0B23A07
:1046600062077307840728F0B25A620B730B840B3E
:10467000E3959A9572F7803830F49A95BB0F661FD0
:10468000771F881FD2F7904806C1092E0394000CAB
:1046900011F4882352F0BB0F40F4BF2B11F460FFDC
:1046A00004C06F5F7F4F8F4F9F4F0895EF93E0FFE0
:1046B00006C0A2EA2AED3FE049EC5FEBCCDDE5DF86
:1046C0000F90039401FC9058E7E8F1E0F7C057FD24
:1046D0009058440F551F59F05F3F71F04795880F70
:1046E00097FB991F61F09F3F79F087950895121607
:1046F00013061406551FF2CF4695F1DF08C01616B3
:1047000017061806991FF1CF869571056105089463
:104710000895E894BB2766277727CB0197F908957A
:104720002CDF08F48FEF08959B01AC0160E070E08E
:1047300080E89FE34CCE0BD0A8CF71DF28F076DF66
:1047400018F0952309F03DCF42CF1124E3CFBFDF0E
:10475000A0F3959FD1F3950F50E0551F629FF00194
:10476000729FBB27F00DB11D639FAA27F00DB11DED
:10477000AA1F649F6627B00DA11D661F829F222776
:10478000B00DA11D621F739FB00DA11D621F839FFD
:10479000A00D611D221F749F3327A00D611D231FD3
:1047A000849F600D211D822F762F6A2F11249F5721
:1047B00050408AF0E1F088234AF0EE0FFF1FBB1F44
:1047C000661F771F881F91505040A9F79E3F5105E3
:1047D00070F0F7CE9FCF5F3FECF3983EDCF3869509
:1047E00077956795B795F795E7959F5FC1F7FE2B8E
:1047F000880F911D9695879597F908959F931EDFD1
:104800000F9007FCEE5F52CF11F40EF4E0CE41C0E2
:1048100066DFD0F39923D9F3CEF39F57550B87FF6B
:1048200046D00024A0E640EA90018058569597951E
:1048300028F4805C660F771F881F20F02617370743
:10484000480730F4621B730B840B202931294A2B53
:10485000A69517940794202531254A2758F7660F07
:10486000771F881F20F026173707480730F4620BA0
:10487000730B840B200D311D411DA09581F7B901EB
:10488000842F9158880F9695879508959B01AC01C8
:1048900052CF9F3F31F0915020F4879577956795DF
:1048A000B795880F911D9695879597F90895915022
:1048B0005040660F771F881FD2F708959F938F93FC
:1048C0007F936F93FF93EF939B01AC0134DFEF91E4
:1048D000FF9180DE2F913F914F915F912CCFDB01B3
:1048E0008F939F930E94A424BF91AF91A29F800DAC
:1048F000911DA39F900DB29F900D11240895052E38
:1049000097FB1EF400940E94962457FD07D00E9446
:10491000AF2407FC03D04EF40C9496245095409598
:10492000309521953F4F4F4F5F4F0895909580955B
:10493000709561957F4F8F4F9F4F0895EE0FFF1F2A
:104940000590F491E02D09940E94D124A59F900D2B
:10495000B49F900DA49F800D911D11240895A1E294
:104960001A2EAA1BBB1BFD010DC0AA1FBB1FEE1FE9
:10497000FF1FA217B307E407F50720F0A21BB30B34
:10498000E40BF50B661F771F881F991F1A9469F7B0
:1049900060957095809590959B01AC01BD01CF010C
:1049A0000895A29FB001B39FC001A39F700D811D08
:1049B0001124911DB29F700D811D1124911D089528
:1049C000BB274A3031F4992322F4BDE290958195BA
:1049D0009F4F0C941D25BB272A3051F4992342F494
:1049E000BDE290958095709561957F4F8F4F9F4F59
:1049F0000C94FB24BB27FA01A62F621771058105D1
:104A00009105330B30FB66F0AA27660F771F881FCE
:104A1000991FAA1FA21710F0A21B63953850A9F77F
:104A2000A05DAA3308F0A95DA19336F7B111B19347
:104A30001082CA010C943625BB27FB015527AA27F3
:104A4000880F991FAA1FA41710F0A41B839550511B
:104A5000B9F7A05DAA3308F0A95DA193009779F793
:104A6000B111B1931192CB010C943625DC01FC01FC
:104A7000672F71917723E1F7329704C07C916D9392
:104A800070836291AE17BF07C8F30895F894FFCF03
:104A90000100CDCC4C3EF401F40152B89E3E00E141
:104AA00000000000085000B0FF8DFF7300180100E7
:0C4AB000F401F401C80014005802FF03D8
:00000001FF
