:100000000C947E010C949B010C949B010C942F1C6E
:100010000C949B010C949B010C949B010C949B01F0
:100020000C949B010C949B010C944C170C94861718
:100030000C949B010C949B010C949B010C949B01D0
:100040000C949B010C94D0010C949B010C949B018B
:100050000C949B010C949B010C949B010C949B01B0
:100060000C949B010C949B010C949B010C949B01A0
:100070000C949B010C940D1F0C949B010C949B0100
:100080000C949B010C949B010C949B010C949B0180
:100090000C949B010C949B010C94151C0C94221C39
:1000A0000C949B010C949B010C949B01F416EC1690
:1000B000E416DC16D416CC16C416BC16B416AC1650
:1000C000A4169C1694168C1684167C1674166C1640
:1000D00064165C1654164C1644163C1634162C1630
:1000E00024161C1614160C160416FC15F415EC1523
:1000F000E415DC15D415CC15C415BC15B415AC1518
:10010000A4159C1594158C1584157C1574156C1507
:1001100064155C1554154C1544153C1534152C15F7
:1001200024151C1514150C150415FC14F4148C1B43
:10013000BB1BD71BE31B101C101C0E1CE51D791EDE
:10014000901E491E611EFD1D231E4D1F4F1F561F71
:100150005D1F691F751F7C1F8D1F084AD73B3BCE53
:10016000016E84BCBFFDC12F3D6C74319ABD5683B6
:100170003DDA3D00C77F11BED9E4BB4C3E916BAA6E
:10018000AABE000000803F05A84CCDB2D44EB938BD
:1001900036A9020C50B9918688083CA6AAAA2ABEA4
:1001A000000000803F00094F435234423A00094F9B
:1001B000435234413A000A6677640000010000525D
:1001C0000212000200000F0243000300000B0204B1
:1001D00001030904F7011202030904EF01060303F6
:1001E0000904E5010808033400310030000000066E
:1001F000034D003200000012034A002E002000468A
:1002000000690065006E0065000000040309040930
:10021000024300020100C032090400000102020191
:100220000005240010010524010101042402060533
:1002300024060001070582031000400904010002A2
:100240000A00000007050302400000070584024081
:1002500000001201000202000010C0167A04000122
:10026000010203010001C112018036018136667767
:10027000643300726967687434006C6566743400B6
:10028000726967687433006C65667433006C656608
:10029000743200726967687432006261636B3200A5
:1002A0006677643100726967687431006C656674E2
:1002B0003100504154524F4C00474F20544F20477B
:1002C0004F414C0009416D6269656E743A20000926
:1002D000443A20000949523A200009494C3A20008A
:1002E00009544C3A2000094C3A200009423A2000B7
:1002F00009523A20000A54523A20000011241FBE2D
:10030000CFEFDAE0DEBFCDBF11E0A0E0B1E0EAE977
:10031000F8E402C005900D92AE32B107D9F721E0A2
:10032000AEE2B1E001C01D92AD3AB207E1F70E9422
:10033000B41F0C944B240C940000109248011092AE
:10034000490110924A0110924B01109285001092BF
:1003500084000895E1E8F0E080818B7F80838081D4
:100360008260808380818160808380818F7E8083B2
:10037000808188608083E0E8F0E080818D7F8083E9
:1003800080818E7F8083EFE6F0E0808182608083D1
:100390008AEF90E090938900809388000C949D01EF
:1003A0001F920F920FB60F9211248F939F93AF93CA
:1003B000BF938091480190914901A0914A01B09169
:1003C0004B010196A11DB11D8093480190934901F5
:1003D000A0934A01B0934B01BF91AF919F918F9130
:1003E0000F900FBE0F901F901895239A08951B9B96
:1003F0000E94F501479A469881E090E09093790138
:100400008093780108951B9B0E94F5014798469AB6
:10041000109279011092780108951B9B0E94F501BA
:100420002E9A2D9881E090E0909301018093000135
:1004300008951B9B0E94F5012E982D9A10920101A0
:10044000109200010895239808958F929F92AF9281
:10045000BF92CF92DF92EF92FF920F931F93CF93B1
:10046000DF9380917801909179016091CF0070E0E5
:10047000892B89F080E090E00E945F2120E030E04D
:1004800048EC52E40E94782220E030E04FE753E449
:100490000E94C42018C080E090E00E945F2120E00C
:1004A00030E048EC52E40E94782220E030E04FE750
:1004B00053E40E94C4209B01AC0160E070E088EC32
:1004C00092E40E94F61F0E942C218B018091000172
:1004D000909101016091D00070E0892B89F080E05B
:1004E00090E00E945F2120E030E048EC52E40E945E
:1004F000782220E030E04FE753E40E94C42018C087
:1005000080E090E00E945F2120E030E048EC52E47F
:100510000E94782220E030E04FE753E40E94C4209C
:100520009B01AC0160E070E088EC92E40E94F61F51
:100530000E942C21EB01B801882777FD8095982F28
:100540000E945F212DEC3CEC4CE45EE30E9478229B
:100550006B017C016091860170918701882777FD8E
:100560008095982F0E945F212DEC3CEC4CE45FE3DA
:100570000E9478229B01AC01C701B6010E94F71FBF
:100580000E942C214B015C01BE01882777FD8095DC
:10059000982F0E945F212DEC3CEC4CE45EE30E941E
:1005A00078226B017C016091760170917701882738
:1005B00077FD8095982F0E945F212DEC3CEC4CE458
:1005C0005FE30E9478229B01AC01C701B6010E9443
:1005D000F71F0E942C216B017C01EB0197FC15C0D9
:1005E0000E94F7018FEF889DB001899D700D112445
:1005F000882777FD8095982F0E945F2120E030E0CA
:1006000048EC52E40E94C4201AC00E9403028FEFFB
:10061000889DB001899D700D1124882777FD8095F4
:10062000982F0E945F2120E030E048EC52E40E94C5
:10063000C42020E030E04FE753E40E94F71F0E94FF
:1006400031216093CF00D7FD15C00E940D028FEFBE
:100650008C9DB0018D9D700D1124882777FD8095AC
:10066000982F0E945F2120E030E048EC52E40E9485
:10067000C4201AC00E9419028FEF8C9DB0018D9D7D
:10068000700D1124882777FD8095982F0E945F2197
:1006900020E030E048EC52E40E94C42020E030E04A
:1006A0004FE753E40E94F71F0E9431216093D0006E
:1006B000DF91CF911F910F91FF90EF90DF90CF903E
:1006C000BF90AF909F908F90089584E690E09093B4
:1006D00087018093860190937701809376010C9433
:1006E00025028BE490E0909387018093860190939C
:1006F0007701809376010C9425028CE99FEF90930B
:1007000087018093860190937701809376010C9402
:10071000250285EB9FEF909387018093860190934C
:100720007701809376010C94250285E590E0909303
:1007300087018093860181E490E090937701809314
:1007400076010C94250281E490E0909387018093D8
:10075000860185E590E090937701809376010C9473
:1007600025028CE390E0909387018093860189E1D4
:1007700090E090937701809376010C94250289E1B3
:1007800090E090938701809386018CE390E09093B2
:100790007701809376010C94250286E490E0909393
:1007A00087018093860184EC9FEF9093770180937B
:1007B00076010C94250284EC9FEF9093870180933F
:1007C000860186E490E090937701809376010C9403
:1007D0002502CF93DF9386EB91E00E94D5188EEA35
:1007E00091E00E94D5188091CF0090E00E940919F5
:1007F00086EA91E00E94D5188091D00090E00E9496
:100800000919C4EFD1E00E947D0321972097D9F701
:10081000DF91CF9108954F925F926F927F928F9266
:100820009F92AF92BF92CF92DF92EF92FF92209170
:1008300058013091590140915A0150915B010E9439
:10084000F61F6B017C0160913A0170913B01882792
:1008500077FD8095982F0E945F214B015C019B01E1
:10086000AC01C701B6010E9478222091820130912B
:10087000830140918401509185010E94F71F60938C
:10088000820170938301809384019093850120E01D
:1008900030E0A9010E9478229B01AC01C701B6019A
:1008A0000E94F71F2B013C0120917A0130917B01BE
:1008B00040917C0150917D01C701B6010E94F61F55
:1008C00020E030E0A9010E947822A50194010E9455
:1008D000C4209B01AC01C301B2010E94F71FC0926A
:1008E0007A01D0927B01E0927C01F0927D01FF9031
:1008F000EF90DF90CF90BF90AF909F908F907F90C0
:100900006F905F904F9008954F925F926F927F9299
:100910008F929F92AF92BF92CF92DF92EF92FF920F
:1009200020912E0130912F014091300150913101E1
:100930000E94F61F6B017C0160913A0170913B01AE
:10094000882777FD8095982F0E945F214B015C01DD
:100950009B01AC01C701B6010E94782220917E0163
:1009600030917F0140918001509181010E94F71FD9
:1009700060937E0170937F01809380019093810149
:1009800020E030E0A9010E9478229B01AC01C70160
:10099000B6010E94F71F2B013C012091720130919A
:1009A00073014091740150917501C701B6010E9415
:1009B000F61F20E030E0A9010E947822A5019401F1
:1009C0000E94C4209B01AC01C301B2010E94F71F29
:1009D000C0927A01D0927B01E0927C01F0927D017D
:1009E000FF90EF90DF90CF90BF90AF909F908F904F
:1009F0007F906F905F904F9008958F929F92AF92EB
:100A0000BF92CF92DF92EF92FF924B015C0120E008
:100A100030E0A9010E94BD2087FF0AC029EF3FE016
:100A200049EC50E4C501B4010E94F71F4B015C0181
:100A3000209158013091590140915A0150915B0128
:100A4000C501B4010E94F71F6B017C0129EF3FE053
:100A500049EC50E40E946D22181654F429EF3FE04F
:100A600049EC50E4C701B6010E94F61F6B017C01FE
:100A700029EF3FE049E450E4C501B4010E94BD20E4
:100A800087FF40C0209158013091590140915A018F
:100A900050915B01C701B6010E94F61F0E942C21F4
:100AA0009B0177FF04C022273327261B370BB90190
:100AB000882777FD8095982F0E945F212091020161
:100AC0003091030140910401509105010E946D2273
:100AD000181674F50E94CD03D5CFB901882777FD8C
:100AE0008095982F0E945F2120910201309103018F
:100AF00040910401509105010E946D221816C4F422
:100B00000E94DB03209158013091590140915A0114
:100B100050915B01C701B6010E94F61F0E942C2173
:100B20009B0177FFDACF22273327261B370BD5CF40
:100B3000FF90EF90DF90CF90BF90AF909F908F90FD
:100B40000895CF92DF92EF92FF926B017C0120E03B
:100B500030E0A9010E94BD2087FF0AC029EF3FE0D5
:100B600049EC50E4C701B6010E94F71F6B017C01FC
:100B700029EF3FE049E450E4C701B6010E94BD20DF
:100B800087FF40C0209158013091590140915A018E
:100B900050915B01C701B6010E94F61F0E942C21F3
:100BA0009B0177FF04C022273327261B370BB9018F
:100BB000882777FD8095982F0E945F212091020160
:100BC0003091030140910401509105010E946D2272
:100BD000181674F50E94CD03D5CFB901882777FD8B
:100BE0008095982F0E945F2120910201309103018E
:100BF00040910401509105010E946D221816C4F421
:100C00000E94DB03209158013091590140915A0113
:100C100050915B01C701B6010E94F61F0E942C2172
:100C20009B0177FFDACF22273327261B370BD5CF3F
:100C3000FF90EF90DF90CF9008950E94CD032FEFAB
:100C400083ED90E3215080409040E1F700C0000028
:100C50000C9423026F927F928F929F92AF92BF92D9
:100C6000CF92DF92EF92FF920F931F93CF93DF9378
:100C700000D000D0CDB7DEB7009121011091220144
:100C8000081B190B60901F0170902001661A770AEB
:100C9000B801882777FD8095982F0E945F219B01DE
:100CA000AC01B301882777FD8095982F29833A837B
:100CB0004B835C830E945F2129813A814B815C8157
:100CC0000E946A2029EF3FE049EC5FE30E94F71F92
:100CD0006B017C0129EF3FE049E450E40E946D2262
:100CE000181654F429EF3FE049EC50E4C701B6016F
:100CF0000E94F61F6B017C01809058019090590171
:100D0000A0905A01B0905B01075F1F4F033111059E
:100D100060F489E0680E711CE3E16E16710428F43A
:100D20000E94230281E090E047C0A7019601C5011F
:100D3000B4010E94F61F20E030E040E05FE30E9433
:100D40006D2218161CF40E94950334C0A50194016D
:100D5000C701B6010E94F61F20E030E040E05FE3EB
:100D60000E946D2218161CF40E94A30323C020E0E9
:100D700030E0A9016091360170913701809138010E
:100D8000909139010E94BD20811112C020E030E015
:100D9000A9016091320170913301809134019091E9
:100DA00035010E94BD20811103C00E947D0302C055
:100DB0000E94650380E090E00F900F900F900F90DD
:100DC000DF91CF911F910F91FF90EF90DF90CF9027
:100DD000BF90AF909F908F907F906F900895CF922B
:100DE000DF92EF92FF92809126019091270181304E
:100DF000910599F5C0903601D0903701E090380107
:100E0000F090390120E030E0A901C701B6010E944D
:100E10006D2218165CF480911701909118012091B1
:100E200021013091220128173907A4F020E030E099
:100E3000A901C701B6010E94BD2018165CF180917E
:100E4000190190911A012091210130912201281756
:100E5000390704F564E170E054C0029709F057C007
:100E6000C0903601D0903701E0903801F090390100
:100E700020E030E0A901C701B6010E946D221816DA
:100E80003CF120E030E0A901C701B6010E94BD207D
:100E9000181654F520E030E0A901C701B6010E9400
:100EA000BD20811134C020E030E0A9016091320101
:100EB0007091330180913401909135010E94BD20E1
:100EC000811125C0FF90EF90DF90CF900C947D03AF
:100ED00080911701909118012091210130912201F8
:100EE0002817390774F60BC08091190190911A01E7
:100EF0002091210130912201281739075CF66CEE10
:100F00007FEFFF90EF90DF90CF900C942A06FF9038
:100F1000EF90DF90CF9008950E94E51C892B41F05F
:100F200060E070E080911B0190911C010C942A06F6
:100F300081E090E0909316018093150108950E943E
:100F40000C1A811103C06A9A7298FDCF6A9A729A3C
:100F500008954AE06091230181E00C94F012CF9350
:100F6000DF9380E885BF85BFECE7F0E080818F7B71
:100F70008083808180688083EAE7F0E080818460FC
:100F80008083808182608083808181608083AEE7FE
:100F9000B0E08C9181608C93CDE7D0E08881846053
:100FA00088838C9180618C938C9180628C938C91DE
:100FB00080648C938C9180688C9388818160888315
:100FC00088818860888380818860808380818F7D2C
:100FD0008083808180688083808180648083DF91CA
:100FE000CF910895539A3E9A269A3F9A259A469A07
:100FF0002E9A479A2D9AE1ECF0E0808188608083F8
:1010000080818B7F808380818D7F808380818E7FB4
:101010008083E3ECF0E080818D7F808380818E7F10
:101020008083E0ECF0E08081826080838081806852
:10103000808380818F7B80838081816080838081B9
:101040008062808380818F7E80838FEF8093D10048
:101050008093CF008093D0000895809126019091D5
:1010600027018130910531F018F0029729F0089599
:101070008AE103C088E101C089E1809323010895DA
:101080000E94E9130E9448127894219A229A209A89
:101090000E942D080E94A9070E94F2070C94AF0736
:1010A00080912401909125018130910519F00297DA
:1010B000A1F0089583E790E090931C0180931B01B9
:1010C0008DE89FEF90931E0180931D018BEA9FEFA7
:1010D00090931A018093190108958DE89FEF9093E2
:1010E0001C0180931B0183E790E090931E01809385
:1010F0001D0185E590E090931801809317010895F4
:10110000CF92DF92EF92FF92CF93DF93C09148018D
:10111000D091490180913C0190913D01C81BD90BB0
:10112000D0933B01C0933A0180912101909122011B
:101130002091080130910901821B930BBE010E948E
:101140005C23882777FD8095982F0E945F2160930C
:101150003601709337018093380190933901809163
:101160001F01909120012091060130910701821BFF
:10117000930BBE010E945C23882777FD8095982FF2
:101180000E945F2160933201709333018093340198
:1011900090933501209140013091410140914201ED
:1011A00050914301609158017091590180915A0109
:1011B00090915B010E94F61F6B017C01BE018827A4
:1011C00077FD8095982F0E945F219B01AC01C7019C
:1011D000B6010E94C42060932E0170932F0180936A
:1011E000300190933101DF91CF91FF90EF90DF902C
:1011F000CF900895AF92BF92CF92DF92EF92FF927D
:101200000F931F93CF93DF936091080170910901B1
:101210000091060110910701643F81E0780729F4ED
:10122000043F81E0180709F4B5C0A0902101B090F7
:101230002201C501861B970B4396C0911F01D091D7
:101240002001879738F0CE01801B910B439687973A
:1012500008F07CC0882777FD8095982F0E945F2139
:101260002DEC3CEC4CE45FE30E9478226B017C01A6
:10127000B501882777FD8095982F0E945F212CEC7F
:101280003CEC4CE45EE30E9478229B01AC01C70178
:10129000B6010E94F71F0E942C21709322016093D7
:1012A0002101B801882777FD8095982F0E945F2142
:1012B0002DEC3CEC4CE45FE30E9478226B017C0156
:1012C000BE01882777FD8095982F0E945F212CEC26
:1012D0003CEC4CE45EE30E9478229B01AC01C70128
:1012E000B6010E94F71F0E942C2170932001609389
:1012F0001F012DEC3CEC4CE45FE3609140017091E8
:10130000410180914201909143010E9478226B013A
:101310007C012CEC3CEC4CE45EE360915801709154
:10132000590180915A0190915B010E9478229B01A2
:10133000AC01C701B6010E94F71F6093580170937A
:10134000590180935A0190935B0124C0709322014C
:10135000609321011093200100931F0180914001AF
:1013600090914101A0914201B091430180935801B5
:1013700090935901A0935A01B0935B01DF91CF91F3
:101380001F910F91FF90EF90DF90CF90BF90AF90A3
:101390000C948008DF91CF911F910F91FF90EF90F7
:1013A000DF90CF90BF90AF9008954F925F926F9271
:1013B0007F928F929F92AF92BF92CF92DF92EF92E5
:1013C000FF920F931F93CF93DF93CDB7DEB728978C
:1013D0000FB6F894DEBF0FBECDBF6B0149015701B8
:1013E00020912101309122013093090120930801BD
:1013F00020911F01309120013093070120930601B5
:10140000409058015090590160905A0170905B01D2
:10141000409240015092410160924201709243011A
:10142000481B590BBA01882777FD8095982F0E9499
:101430005F219B01AC01B4016C197D09882777FD00
:101440008095982F2D833E834F8358870E945F217C
:101450002D813E814F8158850E946A2029EF3FE00F
:1014600049EC5FE30E94F61F6B017C0129EF3FE02E
:1014700049E450EC0E94BD2087FD09C0C09258018C
:10148000D0925901E0925A01F0925B0110C029EF0D
:101490003FE049EC50E4C701B6010E94F71F60939A
:1014A00058017093590180935A0190935B01B501E3
:1014B000882777FD8095982F0E945F214B015C0162
:1014C000B801882777FD8095982F0E945F212B0116
:1014D0003C01A50194010E946A20905829EF3FE049
:1014E00049EC5FE30E94F61F6B017C0129EF3FE0AE
:1014F00049E450EC0E94BD2087FF0AC029EF3FE07D
:1015000049EC50E4C701B6010E94F71F6B017C0152
:1015100020E030E040E251E4C301B2010E94C42067
:101520002B013C0120E030E040E251E4C501B40170
:101530000E94C4204B015C01A3019201C301B201CE
:101540000E9478222B013C01A5019401C501B40140
:101550000E9478229B01AC01C301B2010E94F71FD7
:101560000E94E52220E030E040E251E40E9478222F
:101570002B013C0129EF3FE049E450E46091580120
:101580007091590180915A0190915B010E94F71F5F
:101590004B015C01A70196010E94F61F6B017C01C3
:1015A00029EF3FE049E450EC0E94BD2087FF0AC0CC
:1015B00029EF3FE049EC50E4C701B6010E94F71F54
:1015C0006B017C0129EF3FE049E450E4C701B6011B
:1015D0000E946D22181654F429EF3FE049EC50E4C4
:1015E000C701B6010E94F61F6B017C01C701B6015D
:1015F0000E94C1209B01AC0180910A0190910B01D6
:10160000A0910C01B0910D0189839A83AB83BC83B7
:10161000C301B2010E94782229813A814B815C8109
:101620000E9478220E942C21719561957109709316
:10163000220160932101C701B6010E94DB229B01B8
:10164000AC01C301B2010E94782229813A814B8109
:101650005C810E9478220E942C217195619571090C
:101660007093200160931F0129EF3FE049E450E4AB
:10167000C501B4010E946D2218164CF080925801E9
:1016800090925901A0925A01B0925B0110C029EFCB
:101690003FE049EC50E4C501B4010E94F61F60939D
:1016A00058017093590180935A0190935B012896D9
:1016B0000FB6F894DEBF0FBECDBFDF91CF911F9163
:1016C0000F91FF90EF90DF90CF90BF90AF909F90E1
:1016D0008F907F906F905F904F900C94FA082F92AC
:1016E0003F924F925F926F927F928F929F92AF92B2
:1016F000BF92CF92DF92EF92FF920F931F93CF93FF
:10170000DF93CDB7DEB760970FB6F894DEBF0FBE9C
:10171000CDBF1C017A876987FC01A281B38120813A
:101720003181AD01421B530BFB010280F381E02D9F
:10173000FE83ED83FB01C080D1808D819E818C1959
:101740009D09449F4001459F900C900C1124889F57
:10175000A001899F500D500D1124840E951EAA24BE
:1017600097FCA094BA2CF101448155817A01E21AC8
:10177000F30AFB010480F581E02DFC87EB878F01E4
:101780000C191D09EE9CB001EF9C700D700D112419
:10179000009F7001019FF00CF00C11246E0D7F1D55
:1017A0002B01662457FC6094762CF10166817781C9
:1017B0007B01E21AF30AE985FA85268137818901DE
:1017C0000C191D09EE9CC001EF9C900D900D112489
:1017D000009F7001019FF00CF00C11248E0D9F1DD5
:1017E0007C010027F7FC0095102FE982FA820B8319
:1017F0001C837A01EA1AFB0A0B851C858D819E8168
:10180000081B190BEE9C6001EF9CD00CD00C11242E
:10181000009F7001019FF00CF00C1124CE0CDF1C16
:10182000EE24D7FCE094FE2CFB01EA1BFB0BC90164
:101830000D811E81801B910BEE9F8001EF9F100D8B
:10184000100D1124889FD001899FB00DB00D112477
:101850000A0F1B1FC801AA2797FDA095BA2F8D83D9
:101860009E83AF83B887641B750BAB85BC852A1B31
:101870003B0B669FC001679F900D900D1124229F26
:10188000A001239F500D500D1124840F951F8C0132
:10189000222717FD2095322F0D871E872F87388B23
:1018A000F42DE52D962D872D481459046A047B04E8
:1018B00024F4F82DE92D9A2D8B2D4F2F5E2F692FB3
:1018C000782F89819A81AB81BC81481759076A07B3
:1018D0007B0714F4AC01BD014C155D056E057F0559
:1018E00014F4B701A6010D811E812F8138854017A0
:1018F00051076207730714F4B901A8018D859E850D
:10190000AF85B889481759076A077B0714F4AC01FB
:10191000BD01942D852DF62DE72D84149504A60484
:10192000B70424F4982D892DFA2DEB2D092F182FAB
:101930002F2F3E2F89819A81AB81BC81801791071F
:10194000A207B30714F48C019D01D901C801C01688
:10195000D106E206F30614F4D701C6018C019D01FD
:101960008D819E81AF81B88580179107A207B3074B
:1019700014F48C019D01D901C8010D851E852F85A8
:101980003889081719072A073B0714F4D901C80139
:10199000481559056A057B05A1F484159505A6052A
:1019A000B70519F421E030E091C029813A814B81DB
:1019B0005C8182179307A407B507A1F320E030E00C
:1019C0003EC04415550566057705A1F488159905AF
:1019D000AA05BB0519F422E030E078C0E980FA805E
:1019E0000B811C818E159F05A007B107A1F320E094
:1019F00030E05DC009811A812B813C81401751077D
:101A00006207730781F484159505A605B70519F4D7
:101A100023E030E05BC088159905AA05BB05C1F33A
:101A200020E030E04EC04C155D056E057F05B1F439
:101A300088159905AA05BB0529F422E030E081E06C
:101A400090E046C02D813E814F81588582179307D3
:101A5000A407B50791F321E030E029C00D811E8174
:101A60002F813885401751076207730781F4881565
:101A70009905AA05BB0519F423E030E0E0CF8C15E9
:101A80009D05AE05BF05C1F321E030E01AC00D850C
:101A90001E852F8538894017510762077307A1F407
:101AA00084159505A605B70529F423E030E082E00A
:101AB00090E00EC08C159D05AE05BF05B1F322E088
:101AC00030E083E090E004C020E030E080E090E08F
:101AD000BC01660F771FF101E60FF71F808191812E
:101AE000220F331FF101E20FF31F40815181E9857D
:101AF000FA85E60FF71F60817181E985FA85E20FAB
:101B0000F31F208131817B01E20EF31EF7FE03C03B
:101B10001FEFE11AF10AF594E7948C01040F151FE9
:101B200017FF02C00F5F1F4F159507950E94D5093B
:101B300060960FB6F894DEBF0FBECDBFDF91CF9198
:101B40001F910F91FF90EF90DF90CF90BF90AF90DB
:101B50009F908F907F906F905F904F903F902F90CD
:101B600008952F923F924F925F926F927F928F9241
:101B70009F92AF92BF92CF92DF92EF92FF920F931C
:101B80001F93CF93DF93CDB7DEB760970FB6F8946E
:101B9000DEBF0FBECDBF8C011B01DC0112966D9123
:101BA0007C911397CD90DC90DE86CD86FB01EC19FD
:101BB000FD09D10112962D913C911397CD90DC90A7
:101BC000D88ACF86A9014C195D09EE9FC001EF9F0D
:101BD000900D900D1124449FF001459FF00DF00DE4
:101BE00011248E0F9F1F6C01EE24D7FCE094FE2C75
:101BF000C982DA82EB82FC82D8011496ED90FC90C7
:101C000015976701ED85FE85CE1ADF0AD10114967E
:101C10004D915C911597DA01EF85F889AE1BBF0BEA
:101C2000CC9CC001CD9C900D900D1124AA9FF00179
:101C3000AB9FF00DF00D11248E0F9F1F2C01662419
:101C400057FC6094762CF701E61BF70B421B530BF5
:101C5000EE9FC001EF9F900D900D1124449F9001C5
:101C6000459F300D300D1124820F931F6C01EE241F
:101C7000D7FCE094FE2CCD82DE82EF82F886342DF4
:101C8000252D962D872DC980DA80EB80FC804C14A1
:101C90005D046E047F0424F439812A819B818C8148
:101CA000C32ED22EE92EF82E2D813E814F815885EC
:101CB000C216D306E406F50614F469017A01342D40
:101CC000252D962D872D49815A816B817C81441564
:101CD00055056605770524F439812A819B818C811D
:101CE000832E922EA92EB82E6D817E818F819885AC
:101CF000681579058A059B0514F44B015C01C70141
:101D0000B6010E945F2169877A878B879C87C5010E
:101D1000B4010E945F219B01AC0169857A858B85A6
:101D20009C850E94C42069877A878B879C8720E0E6
:101D300030E040E050E40E94BD2087FF3EC1898131
:101D40009A81AB81BC81C816D906EA06FB0651F41C
:101D500084149504A604B70489F51A82198221E037
:101D600030E032C0C414D504E604F70471F4C9802D
:101D7000DA80EB80FC808C149D04AE04BF0439F53E
:101D80001A82198222E030E028C02D813E814F81E5
:101D90005885C216D306E406F50611F5C980DA8027
:101DA000EB80FC808C149D04AE04BF04F1F421E0B0
:101DB00030E03A83298322E030E01DC041E050E06A
:101DC0005A83498320E030E082E090E016C062E070
:101DD00070E07A83698320E030E081E090E00DC01C
:101DE0001A82198220E030E006C082E090E09A83F7
:101DF000898321E030E080E090E06901CC0CDD1CBB
:101E0000F801EC0DFD1D608071807C01EE0CFF1C63
:101E1000B301882777FD8095982F0E945F214B01A1
:101E20005C01F801EE0DFF1D80819181B301681BFB
:101E3000790B882777FD8095982F0E945F2122EAF1
:101E400035E446E05FE30E9478229B01AC01C501C6
:101E5000B4010E94F71F0E942C214B015C01F1018B
:101E6000EC0DFD1DC080D180B601882777FD8095DF
:101E7000982F0E945F212B013C01F101EE0DFF1D07
:101E800080819181B601681B790B882777FD809549
:101E9000982F0E945F2122EA35E446E05FE30E942A
:101EA00078229B01AC01C301B2010E94F71F0E947E
:101EB0002C216D837E838F839887C980DA80CC0C38
:101EC000DD1CDA86C986F601E00FF11FC080D180E3
:101ED000DA82C982B401882777FD8095982F0E9405
:101EE0005F216B017C0129813A81B901882777FD47
:101EF0008095982F0E945F212B013C0169817A8196
:101F000068197909882777FD8095982F0E945F21AD
:101F100028EA36EC4BE85EE30E9478229B01AC0194
:101F2000C301B2010E94F71F9B01AC01C701B601BA
:101F30000E94F61F0E942C214B015C01E985FA8565
:101F4000E20DF31D208031804D815E81BA0188272A
:101F500077FD8095982F0E945F216B017C01B10174
:101F6000882777FD8095982F0E945F212B013C01E7
:101F7000B1018D819E81681B790B882777FD809543
:101F8000982F0E945F2128EA36EC4BE85EE30E941E
:101F900078229B01AC01C301B2010E94F71F9B0193
:101FA000AC01C701B6010E94F61F0E942C217B01E3
:101FB0008401910149815A8156C120E030E040E816
:101FC00050E469857A858B859C850E946D22181660
:101FD0000CF44CC1A7019601C701B6010E944C2325
:101FE000A50194010E94702328393840410551050C
:101FF0000CF03CC129813A814B815C81C216D30629
:10200000E406F50661F484149504A604B704A9F562
:1020100020E030E042E050E05A83498347C0C414D6
:10202000D504E604F70481F4C980DA80EB80FC80F3
:102030008C149D04AE04BF0439F520E030E041E08B
:1020400050E05A83498316C06D817E818F819885C7
:10205000C616D706E806F906F1F4C980DA80EB80E7
:10206000FC808C149D04AE04BF04E1F421E030E058
:102070001A82198282E090E01BC021E030E042E049
:1020800050E05A8349830BC022E030E061E070E009
:102090007A83698304C020E030E01A82198280E0EC
:1020A00090E006C022E030E01A82198281E090E0E0
:1020B0004901880C991CF801E80DF91D60807180B8
:1020C0005C01AA0CBB1CB301882777FD8095982F73
:1020D0000E945F216B017C01F801EA0DFB1D8081EC
:1020E0009181681A790AB301882777FD8095982F26
:1020F0000E945F2122EA35E446E05FE30E947822F5
:102100009B01AC01C701B6010E94F71F0E942C2160
:102110006B017C01F101E80DF91D80809180B40113
:10212000882777FD8095982F0E945F212B013C0125
:10213000F101EA0DFB1D80819181881A990AB40191
:10214000882777FD8095982F0E945F2122EA35E449
:1021500046E05FE30E9478229B01AC01C301B2011B
:102160000E94F71F0E942C216D837E838F839887A6
:1021700089819A81880F991F9A838983FC01E00FD6
:10218000F11F00811181B601882777FD8095982F76
:102190000E945F214B015C01B801882777FD809583
:1021A000982F0E945F212B013C01B8016C197D0919
:1021B000882777FD8095982F0E945F212FED3FE4BF
:1021C0004DEC5FE30E9478229B01AC01C301B20198
:1021D0000E94F71F9B01AC01C501B4010E94F61FCC
:1021E0000E942C214B015C01A981BA81A20DB31D73
:1021F0000D911C91AD81BE81BD01882777FD809531
:10220000982F0E945F216B017C01B801882777FD20
:102210008095982F0E945F212B013C01B801ED8130
:10222000FE816E1B7F0B882777FD8095982F0E947B
:102230005F212FED3FE44DEC5FE30E9478229B018C
:10224000AC01C301B2010E94F71F9B01AC01C701A1
:10225000B6010E94F61F0E942C217B0184012F856C
:1022600038894D855E85B401C40170C029813A81E9
:102270004B815C81C216D306E406F50641F4841452
:102280009504A604B70429F521E030E02CC0C4145D
:10229000D504E604F70461F4C980DA80EB80FC80A1
:1022A0008C149D04AE04BF04B9F422E030E01BC0DE
:1022B0002D813E814F815885C216D306E406F5066E
:1022C00081F484149504A604B70481F421E030E07D
:1022D00005C020E030E00CC020E030E082E090E07B
:1022E00009C020E030E080E090E004C022E030E06F
:1022F00081E090E0BC01660F771FF801E60FF71F41
:1023000080819181220F331FF801E20FF31F40817A
:102310005181F101E60FF71F60817181F101E20F38
:10232000F31F208131817B01E20EF31EF7FE03C013
:10233000AFEFEA1AFA0AF594E7948C01040F151F1F
:1023400017FF02C00F5F1F4F159507950E94D50913
:1023500060960FB6F894DEBF0FBECDBFDF91CF9170
:102360001F910F91FF90EF90DF90CF90BF90AF90B3
:102370009F908F907F906F905F904F903F902F90A5
:102380000895CF93DF93CDB7DEB760970FB6F8947B
:10239000DEBF0FBECDBFE9E8F1E080E090E0408114
:1023A00051814F3F23E05207C9F0228133812F3FF3
:1023B00063E0360799F0DC01AA0FBB1F61E070E013
:1023C0006C0F7D1FA60FB71F525019965C934E934A
:1023D0001897205831402D933C930196369671E022
:1023E000E13AF707E1F68430910541F4BE016F5FF1
:1023F0007F4FCE0109960E946F0B09C0039751F4DD
:10240000BE016F5F7F4FCE0109960E94B10D6E9A9B
:10241000769A02C06E9A769860960FB6F894DEBFF0
:102420000FBECDBFDF91CF91089589E891E00E9462
:10243000F11A8093880181110E94C1118091880155
:10244000089580912101909122018D589F4F089508
:1024500080911F0190912001CC96089520E030E0FA
:1024600048EC52E4609158017091590180915A01F1
:1024700090915B010E9478220E943121CB01089546
:10248000809122018095881F8827881F8F5F08957B
:10249000589A599A5A9A8CE08093B800E9E6F0E08D
:1024A00080818062808380818F7E8083EA9A7894A5
:1024B000089584E88093BC008091BC0087FFFCCF26
:1024C0008091BB00089584E98093BC00089520E0CA
:1024D00030E08091BC0087FD06C02F5F3F4F293E52
:1024E00083E03807B1F781E0283E334009F480E00B
:1024F00008958093BB0084E88093BC000E9467121B
:10250000882321F08091B900887F089580E00895A4
:102510001F93CF93DF931F92CDB7DEB7182F84EAB6
:102520008093BC0069830E9467126981811104C095
:1025300094E99093BC0014C0812F880F662331F07A
:102540008F5F0E947912883451F404C00E9479127E
:10255000803229F484E98093BC0080E001C081E0EE
:102560000F90DF91CF911F910895CF93DF93C82FE4
:10257000D62F60E00E948812882391F08D2F0E9450
:102580007912882369F084E98093BC0061E08C2F84
:102590000E948812882321F0DF91CF910C94591268
:1025A00080E0DF91CF910895CF93DF93D62FC42F92
:1025B00060E00E948812811102C080E00EC08D2F61
:1025C0000E9479128823C9F38C2F0E9479128823E4
:1025D000A1F384E98093BC0081E0DF91CF9108955D
:1025E000CF93DF9300D01F92CDB7DEB74B836A83C2
:1025F00089830E94481294EA9093BC0089816A8181
:102600004B819091BC0097FFFCCF90E59093BB006D
:1026100094E89093BC009091BC0097FFFCCF909100
:10262000B900987F903229F484E98093BC0080E05F
:1026300029C091E09093BB0094E89093BC009091E6
:10264000BC0097FFFCCF8093BB0084E88093BC0064
:102650008091BC0087FFFCCF6093BB0084E880932F
:10266000BC008091BC0087FFFCCF4093BB0084E896
:102670008093BC008091BC0087FFFCCF84E98093ED
:10268000BC0081E00F900F900F90DF91CF910895E3
:1026900024EA2093BC002091BC0027FFFCCF21E559
:1026A0002093BB0024E82093BC002091BC0027FFAE
:1026B000FCCF2091B900287F2834A9F024EC209386
:1026C000BC002091BC0027FFFCCF2091BB0026134B
:1026D0000AC0FC0120E030E0772767FD709561506B
:1026E000710944EC0EC084E98093BC0080E0089539
:1026F0005091BC0057FFFCCF5091BB0051932F5F0E
:102700003F4F261737071CF44093BC00F1CF44E835
:102710004093BC004091BC0047FFFCCF4091BB0000
:10272000FC01E20FF31F408384E98093BC0081E049
:102730000895F89494EA9093BC009091BC0097FFA0
:10274000FCCF90E59093BB0094E89093BC009091EF
:10275000BC0097FFFCCF9091B900987F903231F484
:1027600084E98093BC00789480E0089593E090938E
:10277000BB0094E89093BC009091BC0097FFFCCF05
:102780008093BB0084E88093BC008091BC0087FFED
:10279000FCCFFB01552747FD509524E8CF01861B50
:1027A000970B8417950754F481918093BB00209375
:1027B000BC008091BC0087FFFCCFF0CF84E9809300
:1027C000BC00789481E008958091E80080FFFCCF00
:1027D000089581E08093D70080EA8093D80082E159
:1027E00089BD09B400FEFDCF80E98093D800109226
:1027F000E00010924701109244018CE08093E200C7
:10280000789408958091470108959FB7F894809136
:102810004701882339F083E08093E9008091E80044
:1028200085FD03C09FBF8FEF08958091F100209137
:10283000E80025FD03C02BE62093E8009FBF089524
:102840009FB7F89480914701882331F083E080930B
:10285000E9008091F20001C080E09FBF089580915F
:102860004701882371F08FB7F89493E09093E900C3
:102870002BE69091E80095FF03C02093E800F9CF84
:102880008FBF089590914701992371F09FB7F894F5
:1028900024E02093E90020914501222349F0209172
:1028A000E80025FD03C09FBF8FEF089510924501FA
:1028B0002091E400275E34E04091E80045FD12C01D
:1028C0009FBF9091E400921304C081E08093450182
:1028D000EBCF90914701992339F39FB7F894309348
:1028E000E900EACF8093F1008091E80085FD03C004
:1028F0008AE38093E80085E0809346019FBF80E0F3
:102900000895909147019923D1F09FB7F89424E05E
:102910002093E9002091E80025FD02C09FBF0FC071
:102920008093F1008091E80085FD03C08AE38093E5
:10293000E80085E0809346019FBF80E008958FEF17
:102940000895EF92FF921F93CF93DF937C01CB0109
:1029500020914701222371F0AFB7F89424E020932F
:10296000E90020914501222349F02091E80025FD4E
:1029700003C0AFBF8FEF42C210924501B4E0C0E484
:10298000DAE315E0009709F437C22091E400275EEE
:102990003091E80035FD12C0AFBF3091E400321332
:1029A00004C081E080934501E5CF30914701332396
:1029B00009F3AFB7F894B093E900EACF2091F200A1
:1029C0004C2F421B242F30E08217930708F4482F26
:1029D000841B910950E04134510508F0FDC14A5A69
:1029E0005F4FFA010C948F23F70120812093F100AF
:1029F00097012F5F3F4F7901F70120812093F1006C
:102A000097012F5F3F4F7901F70120812093F1005B
:102A100097012F5F3F4F7901F70120812093F1004B
:102A200097012F5F3F4F7901F70120812093F1003B
:102A300097012F5F3F4F7901F70120812093F1002B
:102A400097012F5F3F4F7901F70120812093F1001B
:102A500097012F5F3F4F7901F70120812093F1000B
:102A600097012F5F3F4F7901F70120812093F100FB
:102A700097012F5F3F4F7901F70120812093F100EB
:102A800097012F5F3F4F7901F70120812093F100DB
:102A900097012F5F3F4F7901F70120812093F100CB
:102AA00097012F5F3F4F7901F70120812093F100BB
:102AB00097012F5F3F4F7901F70120812093F100AB
:102AC00097012F5F3F4F7901F70120812093F1009B
:102AD00097012F5F3F4F7901F70120812093F1008B
:102AE00097012F5F3F4F7901F70120812093F1007B
:102AF00097012F5F3F4F7901F70120812093F1006B
:102B000097012F5F3F4F7901F70120812093F1005A
:102B100097012F5F3F4F7901F70120812093F1004A
:102B200097012F5F3F4F7901F70120812093F1003A
:102B300097012F5F3F4F7901F70120812093F1002A
:102B400097012F5F3F4F7901F70120812093F1001A
:102B500097012F5F3F4F7901F70120812093F1000A
:102B600097012F5F3F4F7901F70120812093F100FA
:102B700097012F5F3F4F7901F70120812093F100EA
:102B800097012F5F3F4F7901F70120812093F100DA
:102B900097012F5F3F4F7901F70120812093F100CA
:102BA00097012F5F3F4F7901F70120812093F100BA
:102BB00097012F5F3F4F7901F70120812093F100AA
:102BC00097012F5F3F4F7901F70120812093F1009A
:102BD00097012F5F3F4F7901F70120812093F1008A
:102BE00097012F5F3F4F7901F70120812093F1007A
:102BF00097012F5F3F4F7901F70120812093F1006A
:102C000097012F5F3F4F7901F70120812093F10059
:102C100097012F5F3F4F7901F70120812093F10049
:102C200097012F5F3F4F7901F70120812093F10039
:102C300097012F5F3F4F7901F70120812093F10029
:102C400097012F5F3F4F7901F70120812093F10019
:102C500097012F5F3F4F7901F70120812093F10009
:102C600097012F5F3F4F7901F70120812093F100F9
:102C700097012F5F3F4F7901F70120812093F100E9
:102C800097012F5F3F4F7901F70120812093F100D9
:102C900097012F5F3F4F7901F70120812093F100C9
:102CA00097012F5F3F4F7901F70120812093F100B9
:102CB00097012F5F3F4F7901F70120812093F100A9
:102CC00097012F5F3F4F7901F70120812093F10099
:102CD00097012F5F3F4F7901F70120812093F10089
:102CE00097012F5F3F4F7901F70120812093F10079
:102CF00097012F5F3F4F7901F70120812093F10069
:102D000097012F5F3F4F7901F70120812093F10058
:102D100097012F5F3F4F7901F70120812093F10048
:102D200097012F5F3F4F7901F70120812093F10038
:102D300097012F5F3F4F7901F70120812093F10028
:102D400097012F5F3F4F7901F70120812093F10018
:102D500097012F5F3F4F7901F70120812093F10008
:102D600097012F5F3F4F7901F70120812093F100F8
:102D700097012F5F3F4F7901F70120812093F100E8
:102D800097012F5F3F4F7901F70120812093F100D8
:102D900097012F5F3F4F7901F70120812093F100C8
:102DA00097012F5F3F4F7901F70120812093F100B8
:102DB00097012F5F3F4F7901F70120812093F100A8
:102DC00097012F5F3F4F7901F70120812093F10098
:102DD00097012F5F3F4F7901F70120812093F10088
:102DE00097012F5F3F4F79012091E80025FFD09395
:102DF000E80010934601C6CDAFBF80E0DF91CF91D0
:102E00001F91FF90EF9008958FB7F894909146012D
:102E1000992341F094E09093E9009AE39093E800BD
:102E2000109246018FBF08958091120108958091FC
:102E3000130108958091140108958091440108952B
:102E40009FB7F89420914701222339F022E0209384
:102E5000E9003091E80035FD03C09FBF8FEF089572
:102E600031EA3093F10030E23093F1001092F1003A
:102E70001092F1001092F1001092F1002093F100F5
:102E80001092F1008093F1001092F1008AE3809398
:102E9000E8009FBF80E008951F920F920FB60F9237
:102EA00011248F939F938091E1001092E10083FFA2
:102EB00011C01092E90091E09093EB001092EC00A9
:102EC00092E19093ED0098E09093F000109247010A
:102ED0001092440182FF13C080914701882379F04A
:102EE00080914601882359F08150809346018111D9
:102EF00006C084E08093E9008AE38093E8009F9114
:102F00008F910F900FBE0F901F9018951F920F92E8
:102F10000FB60F921124EF92FF920F931F932F93EE
:102F20003F934F935F936F937F938F939F93AF9351
:102F3000BF93EF93FF93CF93DF931F92CDB7DEB78D
:102F40001092E9008091E80083FF14C19091F10094
:102F50008091F1003091F1002091F100E32EF12CED
:102F6000F22A0091F1002091F10010E0122B209143
:102F7000F1006091F10032EF3093E800863009F003
:102F800046C036E08BEB91E0FC01459154914E1523
:102F90005F0539F4FC013296459154914017510771
:102FA00021F00796315081F7E5C0FC013496459138
:102FB0005491FC013696849130E0362B2F3F310539
:102FC00019F010F02FEF30E0281708F4822F3EEFB1
:102FD0009091E800292F2570D9F392FDCEC0982F4B
:102FE000813108F090E1FA01292F222331F0649118
:102FF0006093F10021503196F8CF490F511D891B84
:103000003093E8008111E4CF903111F3B6C08530E0
:1030100051F48EEF8093E8000E94E4138E2D8068B7
:103020008093E300AAC0893059F5911180C0E092E5
:10303000470110924401109246018EEF8093E80000
:1030400041E084E692E04093E9009C012F5F3F4F0E
:10305000FC0154915093EB00552359F0F901249150
:103060002093EC009C012D5F3F4F3196849180931B
:10307000ED004F5F453011F0C901E5CF8EE175C01D
:10308000883051F4903809F052C00E94E4138091C6
:1030900047018093F10047C0813279F4913A09F0F9
:1030A00046C00E94E413EEE0F1E081918093F100CC
:1030B00081E0E531F807C9F736C0803299F49132E2
:1030C000B1F58091E80082FFFCCFEEE0F1E0809165
:1030D000F100819381E0E531F807C9F78BEF809328
:1030E000E80021C0823241F4913209F043C0E092FD
:1030F00044010E94E41317C0811119C099830E94F2
:10310000E4139981923851F40093E9008091EB0027
:1031100085FB882780F91092E90001C080E0809348
:10312000F1001092F1008EEF8093E80026C0282F66
:103130002D7F2130F9F49230E9F4EF28D9F40F779C
:103140009FEF900F9430B0F49EEF9093E8000093BF
:10315000E900833079F089E18093EB0081E090E031
:10316000002E01C0880F0A94EAF78093EA001092BB
:10317000EA0003C081E28093EB000F90DF91CF91D2
:10318000FF91EF91BF91AF919F918F917F916F913F
:103190005F914F913F912F911F910F91FF90EF9071
:1031A0000F900FBE0F901F9018951F93CF93DF9332
:1031B000EC01FE011491112351F01A3019F48DE045
:1031C0000E944214812F0E9442142196F2CFDF9177
:1031D000CF911F9108958A3010F490E301C097E3D6
:1031E000890F0C944214CF93C82F82958F700E9440
:1031F000EB188C2F8F70CF910C94EB18CF93C82FB6
:10320000892F0E94F3188C2FCF910C94F3180C94F3
:10321000F318EF92FF920F931F93CF93DF93CDB7E5
:10322000DEB727970FB6F894DEBF0FBECDBF8E0175
:103230000F5F1F4F27E0F80111922A95E9F74AE046
:10324000B8010E94E5237E01F8E0EF0EF11CF801C1
:1032500081918F0181110E9442140E151F05B9F74B
:1032600027960FB6F894DEBF0FBECDBFDF91CF918A
:103270001F910F91FF90EF900895EF92FF920F939F
:103280001F93CF93DF9300D000D000D0CDB7DEB72F
:103290008E010F5F1F4F26E0F80111922A95E9F782
:1032A0004AE0B8010E9421247E01F6E0EF0EF11CF5
:1032B000F80181918F0181110E9442140E151F05A2
:1032C000B9F726960FB6F894DEBF0FBECDBFDF91DB
:1032D000CF911F910F91FF90EF900895EF92FF9281
:1032E0000F931F93CF93DF93CDB7DEB72B970FB616
:1032F000F894DEBF0FBECDBF8E010F5F1F4F2BE0D6
:10330000F80111922A95E9F72AE0A8010E94F0231A
:103310007E01FCE0EF0EF11CF80181918F0181111B
:103320000E9442140E151F05B9F72B960FB6F8949C
:10333000DEBF0FBECDBFDF91CF911F910F91FF90E8
:10334000EF900895EF92FF920F931F93CF93DF9327
:10335000CDB7DEB72B970FB6F894DEBF0FBECDBF4B
:103360008E010F5F1F4F2BE0F80111922A95E9F7AC
:103370002AE0A8010E94FF237E01FBE0EF0EF11C72
:10338000F80181918F0181110E9442140E151F05D1
:10339000B9F72B960FB6F894DEBF0FBECDBFDF9105
:1033A000CF911F910F91FF90EF90089520E030E0B2
:1033B0008091BC0087FD06C02F5F3F4F293E83E010
:1033C0003807B1F781E0283E334009F480E00895E2
:1033D0008093BB0084E88093BC000E94D6198823A8
:1033E00019F08091B900887F0895CF93C82F84EA9F
:1033F0008093BC000E94D619882361F08C2F880F1F
:103400000E94E819803229F484E98093BC0080E0AE
:1034100001C081E0CF9108950E94481288E50E9482
:10342000F519811102C080E0089580E30E94E81937
:103430008823C9F381E00E94E8198823A1F384E975
:103440008093BC008FE39CE90197F1F700C0000076
:1034500088E50E94F519882331F380E00E94E8197D
:10346000882309F380E00E94E8198823E1F280E0D4
:103470000E94E8198823B9F280E00E94E8198823A5
:1034800091F280E00E94E819882369F280E00E94AE
:10349000E819882341F280E00E94E819882319F294
:1034A00080E90E94E819882309F4BDCF84E980935C
:1034B000BC008FE39CE90197F1F700C0000088E5AC
:1034C0000E94F519882309F4AECF87E00E94E8191D
:1034D000882309F4A8CF80E00E94E819882309F422
:1034E000A2CF81E40E94E819882309F49CCF84E9E3
:1034F0008093BC008FE39CE90197F1F700C00000C6
:1035000088E50E94F519882309F48DCF8AE10E948D
:10351000E819882309F487CF80E40E94E8198823FA
:1035200009F481CF80E00E94E819882309F47BCF59
:1035300084E98093BC008FE39CE90197F1F700C018
:10354000000088E50E94F519882309F46CCF83E315
:103550000E94E819882309F466CF83E00E94E819E5
:10356000882309F460CF84E98093BC008FE39CE951
:103570000197F1F700C0000088E50E94F519882343
:1035800009F451CF80E30E94E819882309F44BCF56
:1035900088E00E94E819882309F445CF84E98093E4
:1035A000BC008FE39CE90197F1F700C0000081E0C7
:1035B0000895CF93C82F84EA8093BC000E94D61947
:1035C000882369F08C2F880F8F5F0E94E819883458
:1035D00029F484E98093BC0080E001C081E0CF91B0
:1035E0000895EF92FF920F931F93CF93DF93CDB780
:1035F000DEB760970FB6F894DEBF0FBECDBF7C017B
:103600008E010F5F1F4F80E1F80111928A95E9F753
:1036100088E50E94F519811102C080E05EC086E352
:103620000E94E8198823C9F384E98093BC00F5E877
:10363000FA95F1F7000088E50E94D91A882369F30A
:10364000F8019E01205F3F4F94EC9093BC00809165
:10365000BC0087FFFCCF8091BB008193E217F3078A
:10366000A1F784E88093BC008091BC0087FFFCCF69
:103670008091BB00888B84E98093BC00DE011496A6
:1036800087016C91762F7073AD0142505109FA0198
:10369000808190E0F0E17F9F800D911D1124F80161
:1036A00091838083762F707C4F5F5F4FFA0180811A
:1036B00090E0F4E07F9F800D911D1124F801938329
:1036C00082836F70862F90E09583848313960A5FC0
:1036D0001F4FA217B307A9F681E060960FB6F894C2
:1036E000DEBF0FBECDBFDF91CF911F910F91FF9035
:1036F000EF90089584E98093BC0008958091A10122
:1037000090E0FC01E05AF109E730F10508F08CC0C7
:10371000E956FF4F0C948F230E9415120E9440120D
:10372000992787FD909590932501809324010E940D
:10373000500880912401909125018130910561F418
:10374000299A2FEF80E792E0215080409040E1F7E6
:1037500000C000002A980895029709F065C02A9ACF
:103760002FEF80E792E0215080409040E1F700C0C9
:103770000000299808950E9415120E94401299276E
:1037800087FD90959093250180932401019719F46A
:10379000299A2A9802C02A9A29980E94500882E001
:1037A00090E090931601809315010C949D01409137
:1037B0002401509125018091A2012091A301413063
:1037C0005105E9F40BC0409124015091250120914D
:1037D000A2018091A3014230510589F4992787FD08
:1037E000909590934F0180934E01332727FD30959C
:1037F00030934D0120934C010E941D0611C03327C8
:1038000027FD309530934F0120934E01992787FD76
:10381000909590934D0180934C0102C04698479833
:10382000109216011092150108951F920F920FB673
:103830000F9211242B982D982E980F900FBE0F9059
:103840001F9018951F920F920FB60F9211242B9A6A
:103850002D9A2E9A0F900FBE0F901F9018951F92C1
:103860000F920FB60F9211242F933F934F935F93B4
:103870006F937F938F939F93AF93BF93EF93FF9338
:103880006AE081EA91E00E9448130E947E1BFF914A
:10389000EF91BF91AF919F918F917F916F915F91C8
:1038A0004F913F912F910F900FBE0F901F90189541
:1038B00085EF92E00E94D51880916A0190916B018A
:1038C0000E94091980EF92E00E94D51880916C0146
:1038D00090916D010E9409198BEE92E00E94D5181B
:1038E00080916201909163010E94091986EE92E035
:1038F0000E94D51880916E0190916F010E94091964
:1039000080EE92E00E94D518809168019091690143
:103910000E9409198AED92E00E94D51880916401F5
:10392000909165010E94091984ED92E00E94D518DA
:1039300080916601909167010E9409198FEC92E0D5
:103940000E94D51880916001909161010E9409192F
:1039500084EC92E00E94D51880915C0190915D0109
:103960000C9409198091700190917101892B51F18A
:1039700080917A008F7780937A00609148017091EE
:10398000490180914A0190914B012AE030E040E0EA
:1039900050E00E947023672B682B692B11F40E9462
:1039A000581C109271011092700180917A00806809
:1039B00080937A0080917A00806480937A0081E01D
:1039C00090E0089580E090E00895209160013091AA
:1039D000610180912A0190912B012817390794F0F9
:1039E0008091660190916701893592405CF081E099
:1039F00090E020916401309165012935324024F432
:103A000080E0089580E090E00895EF92FF920F9398
:103A10001F93CF93DF93A2E6B1E001E010E0C0E096
:103A2000D0E081E090E02D913D91FE01EE0FFF1F6F
:103A3000E05AFE4F408151814217530764F0F8016C
:103A4000EE0FFF1FE05AFE4F40815181421753078E
:103A500024F48C0102C08E01EC010196883091059E
:103A600011F70E94E51C892B51F0289A0E9423022D
:103A700089EB92E00E94D51883E090E083C17E013B
:103A8000EE0CFF1CC701805A9E4F7C01FC01808117
:103A900091812091AB013091AC01281739076CF06E
:103AA000289882EB92E00E94D518F70180819181DD
:103AB0000E94091981E090E065C1049721F52091E9
:103AC00068013091690180916A0190916B018217C0
:103AD0009307CCF4289A0E94BF036091480170912B
:103AE000490180914A0190914B012AE030E040E089
:103AF00050E00E947023672B682B692B09F040C1AE
:103B00008CEA92E055C0C530D10521F520916A01BB
:103B100030916B0180916801909169018217930740
:103B2000CCF4289A0E94B103609148017091490138
:103B300080914A0190914B012AE030E040E050E052
:103B40000E947023672B682B692B09F019C185EA45
:103B500092E02EC0809166019091670120916401EE
:103B600030916501821B930B0996439720F5CE0196
:103B70000297029728F00250110902301105D8F47B
:103B8000289A0E94650360914801709149018091D3
:103B90004A0190914B012AE030E040E050E00E9461
:103BA0007023672B682B692B09F0EAC080EA92E04A
:103BB0000E94D518E5C0FE013197E730F10508F005
:103BC000C6C0E256FF4F0C948F230E94CD03609134
:103BD00048017091490180914A0190914B012AE07E
:103BE00030E040E050E00E947023672B682B692B87
:103BF00009F0C5C08AE992E0C0C020916C01309103
:103C00006D018091280190912901281739071CF432
:103C10000E94950302C00E94CD03609148017091FB
:103C2000490180914A0190914B012AE030E040E047
:103C300050E00E947023672B682B692B09F09FC00E
:103C400083E992E09AC020916E0130916F018091DA
:103C5000280190912901281739071CF40E94A30319
:103C600002C00E94DB03609148017091490180917C
:103C70004A0190914B012AE030E040E050E00E9480
:103C80007023672B682B692B09F079C08DE892E0CF
:103C900074C00E94A3036091480170914901809112
:103CA0004A0190914B012AE030E040E050E00E9450
:103CB0007023672B682B692B09F061C087E892E0BD
:103CC0005CC00E9495036091480170914901809108
:103CD0004A0190914B012AE030E040E050E00E9420
:103CE0007023672B682B692B09F049C080E892E0AC
:103CF00044C00E94A30360914801709149018091E2
:103D00004A0190914B012AE030E040E050E00E94EF
:103D10007023672B682B692B91F58AE792E02DC001
:103D20000E949503609148017091490180914A0178
:103D300090914B012AE030E040E050E00E94702377
:103D4000672B682B692BD9F483E792E016C00E9499
:103D50006503609148017091490180914A019091F9
:103D60004B012AE030E040E050E00E947023672BD6
:103D7000682B692B21F48EE692E00E94D518289AD0
:103D800082E090E09093160180931501DF91CF912E
:103D90001F910F91FF90EF90089520915C01309159
:103DA0005D01E0E6F1E080819181821B930B97FF3A
:103DB00003C01182108202C091838083329681E019
:103DC000E037F80781F708950E94B21C892BE1F3D0
:103DD00020916E0130916F01809162019091630199
:103DE000281739070CF4C90120916C0130916D013D
:103DF000281739070CF4C90190935D0180935C0189
:103E00002FEF33E0281B390B30932D0120932C0129
:103E10009093AC018093AB0108951F920F920FB65F
:103E20000F9211242F933F938F939F93EF93FF93C0
:103E300080917A008F7780937A0080915E019091D3
:103E40005F012091780030917900FC01EE0FFF1F97
:103E5000E05AFE4F318320838830910559F4109247
:103E60005F0110925E0181E090E090937101809378
:103E7000700105C0019690935F0180935E01E0910F
:103E80005E01F0915F01E830F10508F058C0EB5594
:103E9000FF4F80917B000C948F238F7D2EC080621A
:103EA00080937B0080917C008B7F19C08F7D8093F5
:103EB0007B0080917C00846025C08F7D80937B0097
:103EC00080917C00846080937C0080917C008D7F59
:103ED0002FC08F7D80937B0080917C0084608093D5
:103EE0007C0080917C00826012C08F7D80937B007B
:103EF00080917C00846017C0806280937B008091F9
:103F00007C008B7F80937C0080917C008D7F8093F0
:103F10007C0080917C008E7F10C0806280937B004B
:103F200080917C008B7F80937C0080917C008260FC
:103F300080937C0080917C00816080937C008091E4
:103F40007A00806880937A0080917A008064809300
:103F50007A00FF91EF919F918F913F912F910F9058
:103F60000FBE0F901F9018950E9440080E94F50107
:103F700080E880936100109261000E94AA0181E0B4
:103F800090E0909316018093150180911501909116
:103F9000160182309105B9F050F40097E9F08130B4
:103FA0009105B9F70E94B21C0E94051D1CC0843007
:103FB0009105A9F068F08530910559F70E94151216
:103FC0000E94B21CE2CF0E94B21C0E94051DDDCFF0
:103FD0000E9415120E94B21C0E942302D6CF0E949A
:103FE00015120E94B21C0E94EF06CFCF5058BB277B
:103FF000AA270ED027C2F0D130F0F5D120F031F44D
:104000009F3F11F41EF4C0C10EF4E095E7FBB6C16A
:10401000E92F3AD280F3BA1762077307840795072E
:1040200018F071F49EF552C20EF4E0950B2EBA2FE3
:10403000A02D0B01B90190010C01CA01A0011124AE
:10404000FF27591B99F0593F50F4503E68F11A165A
:10405000F040A22F232F342F4427585FF3CF4695EB
:1040600037952795A795F0405395C9F77EF41F160D
:10407000BA0B620B730B840BBAF09150A1F0FF0FD7
:10408000BB1F661F771F881FC2F70EC0BA0F621FC3
:10409000731F841F48F4879577956795B795F795B3
:1040A0009E3F08F0B3CF9395880F08F09927EE0F45
:1040B00097958795089590D158F080E891E009F49C
:1040C0009EEF91D128F040E851E059F45EEF09C02D
:1040D0005BC1FCC1E92FE078D7D168F3092E052A2E
:1040E000C1F3261737074807590738F00E2E07F88F
:1040F000E02569F0E025E0640AC0EF6307F800946A
:1041000007FADB01B9019D01DC01CA01AD01EF93A2
:104110004AD098D10AD05F91552331F02BED3FE082
:1041200049E450FD49EC63CF0895DF93DD27B92FB3
:10413000BF7740E85FE31616170648075B0710F4E1
:10414000D92FCFD19F938F937F936F937CD2EAE542
:10415000F1E01DD177D12F913F914F915F91D4D153
:10416000DD2349F09058A2EA2AED3FE049EC5FE3F5
:10417000D0785D274DDFDF9165C1DCD008F481E0A8
:10418000089539D1E3956FC10CD05CC12CD140F0BA
:1041900023D130F021F45F3F19F0F0C0511197C1E5
:1041A000F3C072D198F39923C9F35523B1F3951B4A
:1041B000550BBB27AA2762177307840738F09F5F48
:1041C0005F4F220F331F441FAA1FA9F333D00E2EB7
:1041D0003AF0E0E830D091505040E695001CCAF724
:1041E00029D0FE2F27D0660F771F881FBB1F2617E9
:1041F00037074807AB07B0E809F0BB0B802DBF01BC
:10420000FF2793585F4F2AF09E3F510568F0B6C0D4
:104210005EC15F3FECF3983EDCF38695779567953A
:10422000B795F7959F5FC9F7880F911D969587956C
:1042300097F90895E1E0660F771F881FBB1F62178B
:1042400073078407BA0720F0621B730B840BBA0B49
:10425000EE1F88F7E095089504D06894B11137C136
:1042600008951AD188F09F5790F0B92F9927B75128
:10427000A0F0D1F0660F771F881F991F1AF0BA952A
:10428000C9F712C0B13081F021D1B1E008951EC14B
:10429000672F782F8827B85F39F0B93FCCF3869520
:1042A00077956795B395D9F73EF49095809570957D
:1042B00061957F4F8F4F9F4F0895E89409C097FBFA
:1042C0003EF490958095709561957F4F8F4F9F4FED
:1042D0009923A9F0F92F96E9BB279395F695879531
:1042E00077956795B795F111F8CFFAF4BB0F11F4F4
:1042F00060FF1BC06F5F7F4F8F4F9F4F16C088239B
:1043000011F096E911C0772321F09EE8872F762FD0
:1043100005C0662371F096E8862F70E060E02AF011
:104320009A95660F771F881FDAF7880F96958795FD
:1043300097F90895990F0008550FAA0BE0E8FEEFD2
:1043400016161706E807F907C0F012161306E40759
:10435000F50798F0621B730B840B950B39F40A2652
:1043600061F0232B242B252B21F408950A2609F430
:10437000A140A6958FEF811D811D089597F99F6734
:1043800080E870E060E008959FEF80EC0895DF938F
:10439000CF931F930F93FF92EF92DF927B018C01DB
:1043A000689405C0DA2EEF01AFD0FE01E894A59124
:1043B0002591359145915591AEF3EF0129DEFE012E
:1043C0009701A801DA9479F7DF90EF90FF900F91B1
:1043D0001F91CF91DF91089500240A9416161706B5
:1043E00018060906089500240A94121613061406E6
:1043F00005060895C9CF50D0E8F3E894E0E0BB2764
:104400009F57F0F02AED3FE049EC06C0EE0FBB0FDE
:10441000661F771F881F28F0B23A62077307840768
:1044200028F0B25A620B730B840BE3959A9572F7DE
:10443000803830F49A95BB0F661F771F881FD2F71C
:10444000904806C1092E0394000C11F4882352F001
:10445000BB0F40F4BF2B11F460FF04C06F5F7F4FB0
:104460008F4F9F4F0895EF93E0FF06C0A2EA2AED19
:104470003FE049EC5FEBCCDDE5DF0F90039401FCFE
:104480009058E7E8F1E0F7C057FD9058440F551FEA
:1044900059F05F3F71F04795880F97FB991F61F0C6
:1044A0009F3F79F087950895121613061406551F3D
:1044B000F2CF4695F1DF08C0161617061806991FA9
:1044C000F1CF86957105610508940895E894BB279E
:1044D00066277727CB0197F908952CDF08F48FEF33
:1044E00008959B01AC0160E070E080E89FE34CCE52
:1044F0000BD0A8CF71DF28F076DF18F0952309F0F4
:104500003DCF42CF1124E3CFBFDFA0F3959FD1F37E
:10451000950F50E0551F629FF001729FBB27F00D71
:10452000B11D639FAA27F00DB11DAA1F649F6627C6
:10453000B00DA11D661F829F2227B00DA11D621F15
:10454000739FB00DA11D621F839FA00D611D221FCF
:10455000749F3327A00D611D231F849F600D211DB3
:10456000822F762F6A2F11249F5750408AF0E1F056
:1045700088234AF0EE0FFF1FBB1F661F771F881F9F
:1045800091505040A9F79E3F510570F0F7CE9FCF54
:104590005F3FECF3983EDCF3869577956795B7958A
:1045A000F795E7959F5FC1F7FE2B880F911D9695B4
:1045B000879597F908959F931EDF0F9007FCEE5F94
:1045C00052CF11F40EF4E0CE41C066DFD0F3992350
:1045D000D9F3CEF39F57550B87FF46D00024A0E6B2
:1045E00040EA900180585695979528F4805C660FB4
:1045F000771F881F20F026173707480730F4621B03
:10460000730B840B202931294A2BA6951794079404
:10461000202531254A2758F7660F771F881F20F07D
:1046200026173707480730F4620B730B840B200DF5
:10463000311D411DA09581F7B901842F9158880F34
:104640009695879508959B01AC0152CF9F3F31F01D
:10465000915020F4879577956795B795880F911DB0
:104660009695879597F9089591505040660F771F5A
:10467000881FD2F708959F938F937F936F93FF9333
:10468000EF939B01AC0134DFEF91FF9180DE2F911E
:104690003F914F915F912CCFDB018F939F930E94AD
:1046A0009523BF91AF91A29F800D911DA39F900D67
:1046B000B29F900D1124089597FB072E16F40094D5
:1046C00007D077FD09D00E94A02307FC05D03EF457
:1046D000909581959F4F0895709561957F4F0895AE
:1046E000052E97FB1EF400940E94872357FD07D0E8
:1046F0000E94B42307FC03D04EF40C9487235095FA
:104700004095309521953F4F4F4F5F4F08959095BD
:104710008095709561957F4F8F4F9F4F0895EE0F55
:10472000FF1F0590F491E02D09940E94D623A59FC8
:10473000900DB49F900DA49F800D911D112408959C
:10474000AA1BBB1B51E107C0AA1FBB1FA617B707B7
:1047500010F0A61BB70B881F991F5A95A9F78095D3
:104760009095BC01CD010895A1E21A2EAA1BBB1B96
:10477000FD010DC0AA1FBB1FEE1FFF1FA217B3072D
:10478000E407F50720F0A21BB30BE40BF50B661F43
:10479000771F881F991F1A9469F760957095809507
:1047A00090959B01AC01BD01CF010895A29FB0017E
:1047B000B39FC001A39F700D811D1124911DB29F55
:1047C000700D811D1124911D0895BB274A3031F4CD
:1047D000992322F4BDE2909581959F4F0C94222459
:1047E000BB272A3051F4992342F4BDE2909580957D
:1047F000709561957F4F8F4F9F4F0C940024BB277E
:10480000FA01A62F6217710581059105330B30FB64
:1048100066F0AA27660F771F881F991FAA1FA21785
:1048200010F0A21B63953850A9F7A05DAA3308F0D9
:10483000A95DA19336F7B111B1931082CA010C940E
:104840003B24BB27FB015527AA27880F991FAA1FC6
:10485000A41710F0A41B83955051B9F7A05DAA339B
:1048600008F0A95DA193009779F7B111B193119266
:10487000CB010C943B24DC01FC01672F7191772361
:10488000E1F7329704C07C916D9370836291AE170B
:0A489000BF07C8F30895F894FFCFA6
:10489A000100CDCC4C3EF401F40152B89E3E00E139
:1048AA00000000000801005700A9FF8DFF7300F403
:0E48BA0001F401180100010028001400FF03A2
:00000001FF
