:100000000C946A010C9487010C9487010C94711C68
:100010000C9487010C9487010C9487010C94870140
:100020000C9487010C9487010C94B4170C94EE1770
:100030000C9487010C9487010C9487010C94870120
:100040000C9487010C94BC010C9487010C948701DB
:100050000C9487010C9487010C9487010C94870100
:100060000C9487010C9487010C9487010C948701F0
:100070000C9487010C94871F0C9487010C948701C2
:100080000C9487010C9487010C9487010C948701D0
:100090000C9487010C9487010C9487010C948701C0
:1000A0000C9487010C9487010C9487015C175417FA
:1000B0004C1744173C1734172C1724171C17141708
:1000C0000C170417FC16F416EC16E416DC16D416FE
:1000D000CC16C416BC16B416AC16A4169C169416F0
:1000E0008C1684167C1674166C1664165C165416E0
:1000F0004C1644163C1634162C1624161C161416D0
:100100000C160416FC15F415EC15E415DC15D415C5
:10011000CC15C415BC15B415AC15A4159C159415B7
:100120008C1584157C1574156C1564155C15F41B01
:100130001A1C331C3F1C6C1C6C1C6A1C5D1EF11EBF
:10014000081FC11ED91E751E9B1EC71FC91FD01FA9
:10015000D71FE31FEF1FF61F0720084AD73B3BCEF0
:10016000016E84BCBFFDC12F3D6C74319ABD5683B6
:100170003DDA3D00C77F11BED9E4BB4C3E916BAA6E
:10018000AABE000000803F05A84CCDB2D44EB938BD
:1001900036A9020C50B9918688083CA6AAAA2ABEA4
:1001A000000000803F00000100003D02120002003C
:1001B00000FA014300030000F6010401030904E210
:1001C000011202030904DA010603030904D001083D
:1001D0000803340031003000000006034D003200F7
:1001E000000012034A002E0020004600690065004E
:1001F0006E006500000004030904090243000201C7
:1002000000C03209040000010202010005240010B0
:10021000010524010101042402060524060001074A
:1002200005820310004009040100020A00000007D3
:10023000050302400000070584024000001201008F
:100240000202000010C0167A04000101020301003E
:1002500001C112018036018136667764330072690C
:1002600067687434006C656674340072696768741A
:1002700033006C65667433006C65667432007269B5
:1002800067687432006261636B32006677643100C4
:10029000726967687431006C656674310009416D7C
:1002A0006269656E743A200009443A200009495297
:1002B0003A200009494C3A200009544C3A200009E0
:1002C0004C3A200009423A200009523A20000A54D0
:1002D000523A200011241FBECFEFDAE0DEBFCDBFBF
:1002E00011E0A0E0B1E0E4ECF9E402C005900D9269
:1002F000AE32B107D9F721E0AEE2B1E001C01D9204
:10030000A33BB207E1F70E942E200C94E0240C944A
:10031000000010924A0110924B0110924C01109271
:100320004D0110928500109284000895E1E8F0E0FC
:1003300080818B7F808380818260808380818160E7
:10034000808380818F7E8083808188608083E0E8E5
:10035000F0E080818D7F808380818E7F8083EFE6D7
:10036000F0E08081826080838AEF90E09093890042
:10037000809388000C9489011F920F920FB60F9200
:1003800011248F939F93AF93BF9380914A019091D3
:100390004B01A0914C01B0914D010196A11DB11DE1
:1003A00080934A0190934B01A0934C01B0934D016F
:1003B000BF91AF919F918F910F900FBE0F901F90A3
:1003C0001895239A08951B9B0E94E101479A46982D
:1003D00081E090E090937B0180937A0108951B9BCC
:1003E0000E94E1014798469A10927B0110927A018F
:1003F00008951B9B0E94E1012E9A2D9881E090E0C8
:10040000909301018093000108951B9B0E94E101DC
:100410002E982D9A109201011092000108952398B0
:1004200008958F929F92AF92BF92CF92DF92EF92F8
:10043000FF920F931F93CF93DF9380917A01909156
:100440007B016091CF0070E0892B89F080E090E023
:100450000E94F42120E030E048EC52E40E940D2399
:1004600020E030E04FE753E40E94592118C080E0BB
:1004700090E00E94F42120E030E048EC52E40E9439
:100480000D2320E030E04FE753E40E9459219B0107
:10049000AC0160E070E088EC92E40E948B200E9446
:1004A000C1218B0180910001909101016091D000E8
:1004B00070E0892B89F080E090E00E94F42120E038
:1004C00030E048EC52E40E940D2320E030E04FE79A
:1004D00053E40E94592118C080E090E00E94F4216A
:1004E00020E030E048EC52E40E940D2320E030E0B0
:1004F0004FE753E40E9459219B01AC0160E070E09A
:1005000088EC92E40E948B200E94C121EB01B8018B
:10051000882777FD8095982F0E94F4212DEC3CECE4
:100520004CE45EE30E940D236B017C016091880125
:1005300070918901882777FD8095982F0E94F4217A
:100540002DEC3CEC4CE45FE30E940D239B01AC01DD
:10055000C701B6010E948C200E94C1214B015C01A1
:10056000BE01882777FD8095982F0E94F4212DECFD
:100570003CEC4CE45EE30E940D236B017C01609136
:10058000780170917901882777FD8095982F0E94D6
:10059000F4212DEC3CEC4CE45FE30E940D239B0125
:1005A000AC01C701B6010E948C200E94C1216B01E1
:1005B0007C01EB0197FC15C00E94E3018FEF889D41
:1005C000B001899D700D1124882777FD8095982FA3
:1005D0000E94F42120E030E048EC52E40E945921CE
:1005E0001AC00E94EF018FEF889DB001899D700DA8
:1005F0001124882777FD8095982F0E94F42120E010
:1006000030E048EC52E40E94592120E030E04FE70E
:1006100053E40E948C200E94C6216093CF00D7FD36
:1006200015C00E94F9018FEF8C9DB0018D9D700D5A
:100630001124882777FD8095982F0E94F42120E0CF
:1006400030E048EC52E40E9459211AC00E94050291
:100650008FEF8C9DB0018D9D700D1124882777FD43
:100660008095982F0E94F42120E030E048EC52E47D
:100670000E94592120E030E04FE753E40E948C2093
:100680000E94C6216093D000DF91CF911F910F91FE
:10069000FF90EF90DF90CF90BF90AF909F908F90A2
:1006A000089584E690E09093890180938801909367
:1006B0007901809378010C9411028BE490E090937F
:1006C00089018093880190937901809378010C943B
:1006D00011028CE99FEF9093890180938801909398
:1006E0007901809378010C94110285EB9FEF909330
:1006F00089018093880190937901809378010C940B
:10070000110285E590E0909389018093880181E44E
:1007100090E090937901809378010C94110281E428
:1007200090E0909389018093880185E590E0909313
:100730007901809378010C9411028CE390E09093FE
:100740008901809388018EE190E0909379018093F4
:1007500078010C9411028EE190E0909389018093CE
:1007600088018CE390E090937901809378010C9458
:10077000110286E490E0909389018093880184ECD3
:100780009FEF90937901809378010C94110284EC8F
:100790009FEF909389018093880186E490E0909385
:1007A0007901809378010C941102CF93DF93C4EF09
:1007B000D1E00E94690321972097D9F7DF91CF916B
:1007C00008954F925F926F927F928F929F92AF9215
:1007D000BF92CF92DF92EF92FF9220915A01309117
:1007E0005B0140915C0150915D010E948B206B0187
:1007F0007C0160913C0170913D01882777FD8095D7
:10080000982F0E94F4214B015C019B01AC01C701B0
:10081000B6010E940D232091840130918501409101
:100820008601509187010E948C206093840170930F
:100830008501809386019093870120E030E0A90133
:100840000E940D239B01AC01C701B6010E948C20C0
:100850002B013C0120917C0130917D0140917E0172
:1008600050917F01C701B6010E948B2020E030E04B
:10087000A9010E940D23A50194010E9459219B0109
:10088000AC01C301B2010E948C20C0927C01D092C5
:100890007D01E0927E01F0927F01FF90EF90DF906A
:1008A000CF90BF90AF909F908F907F906F905F9010
:1008B0004F9008954F925F926F927F928F929F9286
:1008C000AF92BF92CF92DF92EF92FF9220913001D0
:1008D0003091310140913201509133010E948B20BF
:1008E0006B017C0160913C0170913D01882777FD8F
:1008F0008095982F0E94F4214B015C019B01AC0173
:10090000C701B6010E940D23209180013091810121
:1009100040918201509183010E948C20609380015C
:1009200070938101809382019093830120E030E0F5
:10093000A9010E940D239B01AC01C701B6010E94D1
:100940008C202B013C012091740130917501409164
:10095000760150917701C701B6010E948B2020E0FB
:1009600030E0A9010E940D23A50194010E945921A4
:100970009B01AC01C301B2010E948C20C0927C019A
:10098000D0927D01E0927E01F0927F01FF90EF9086
:10099000DF90CF90BF90AF909F908F907F906F909F
:1009A0005F904F9008958F929F92AF92BF92CF9297
:1009B000DF92EF92FF924B015C0120E030E0A90151
:1009C0000E94522187FF0AC029EF3FE049EC50E422
:1009D000C501B4010E948C204B015C0120915A0199
:1009E00030915B0140915C0150915D01C501B40102
:1009F0000E948C206B017C0129EF3FE049EC50E420
:100A00000E940223181654F429EF3FE049EC50E409
:100A1000C701B6010E948B206B017C0129EF3FE0EA
:100A200049E450E4C501B4010E94522187FF40C04F
:100A300020915A0130915B0140915C0150915D0120
:100A4000C701B6010E948B200E94C1219B0177FF44
:100A500004C022273327261B370BB901882777FDCF
:100A60008095982F0E94F42120910201309103017A
:100A700040910401509105010E940223181674F55B
:100A80000E94B903D5CFB901882777FD8095982FAB
:100A90000E94F42120910201309103014091040150
:100AA000509105010E9402231816C4F40E94C70346
:100AB00020915A0130915B0140915C0150915D01A0
:100AC000C701B6010E948B200E94C1219B0177FFC4
:100AD000DACF22273327261B370BD5CFFF90EF9095
:100AE000DF90CF90BF90AF909F908F900895CF925E
:100AF000DF92EF92FF926B017C0120E030E0A901D0
:100B00000E94522187FF0AC029EF3FE049EC50E4E0
:100B1000C701B6010E948C206B017C0129EF3FE0E8
:100B200049E450E4C701B6010E94522187FF40C04A
:100B300020915A0130915B0140915C0150915D011F
:100B4000C701B6010E948B200E94C1219B0177FF43
:100B500004C022273327261B370BB901882777FDCE
:100B60008095982F0E94F421209102013091030179
:100B700040910401509105010E940223181674F55A
:100B80000E94B903D5CFB901882777FD8095982FAA
:100B90000E94F4212091020130910301409104014F
:100BA000509105010E9402231816C4F40E94C70345
:100BB00020915A0130915B0140915C0150915D019F
:100BC000C701B6010E948B200E94C1219B0177FFC3
:100BD000DACF22273327261B370BD5CFFF90EF9094
:100BE000DF90CF9008950E94B9032FEF83ED90E33B
:100BF000215080409040E1F700C000000C940F02AB
:100C000020E030E0A90160913801709139018091B4
:100C10003A0190913B010E94522181111AC020E0BB
:100C200030E0A90160913401709135018091360165
:100C3000909137010E94522181110BC00E946903DB
:100C40002FEF80E792E0215080409040E1F700C014
:100C50000000089520E030E0A90160913801709112
:100C6000390180913A0190913B010E9402231816AC
:100C70002CF410922F0110922E01089581E090E043
:100C800090932F0180932E0108956F927F928F92FF
:100C90009F92AF92BF92CF92DF92EF92FF920F930B
:100CA0001F93CF93DF9300D000D0CDB7DEB7009174
:100CB000210110912201081B190B60901F017090F7
:100CC0002001661A770AB801882777FD8095982F4A
:100CD0000E94F4219B01AC01B301882777FD809528
:100CE000982F29833A834B835C830E94F4212981C6
:100CF0003A814B815C810E94FF2029EF3FE049EC63
:100D00005FE30E948C206B017C0129EF3FE049E406
:100D100050E40E940223181654F429EF3FE049ECF6
:100D200050E4C701B6010E948B206B017C018090CA
:100D30005A0190905B01A0905C01B0905D01075F4B
:100D40001F4F0331110560F489E0680E711CE3E167
:100D50006E16710428F40E940F0281E090E047C0F3
:100D6000A7019601C501B4010E948B2020E030E06C
:100D700040E05FE30E94022318161CF40E948103E6
:100D800034C0A5019401C701B6010E948B2020E068
:100D900030E040E05FE30E94022318161CF40E943A
:100DA0008F0323C020E030E0A901609138017091E9
:100DB000390180913A0190913B010E9452218111A9
:100DC00012C020E030E0A90160913401709135013A
:100DD00080913601909137010E945221811103C008
:100DE0000E94690302C00E94510380E090E00F90CE
:100DF0000F900F900F90DF91CF911F910F91FF9067
:100E0000EF90DF90CF90BF90AF909F908F907F90AA
:100E10006F900895CF93DF9300D0CDB7DEB7809168
:100E2000260190912701019719F464E170E002C056
:100E30006CEE7FEF409121015091220180911701CA
:100E4000909118019A01281B390B265F3F4F2531DD
:100E5000310580F480911F0190912001861B970B32
:100E60000A96459738F481E090E090932F018093A3
:100E70002E0118C08091190190911A019A01281B26
:100E8000390BC9010A96459768F480911F0190912A
:100E90002001861B970B0A96459720F410922F018C
:100EA00010922E0169837A830E94000680912E01A0
:100EB00090912F0169817A81892B29F08091190104
:100EC00090911A0104C080911701909118010F9020
:100ED0000F90DF91CF910C9445060E946E1D892BD7
:100EE000B1F060911F0170912001CB0145968B9765
:100EF00030F480911B0190911C010E94450660E036
:100F000070E080911B0190911C010C94450681E0DA
:100F100090E0909316018093150108950E94741A31
:100F2000811103C06A9A7298FDCF6A9A729A0895E5
:100F30004AE06091230181E00C945813CF93DF9332
:100F400080E885BF85BFECE7F0E080818F7B808300
:100F5000808180688083EAE7F0E08081846080831C
:100F6000808182608083808181608083AEE7B0E091
:100F70008C9181608C93CDE7D0E0888184608883F8
:100F80008C9180618C938C9180628C938C91806425
:100F90008C938C9180688C93888181608883888110
:100FA0008860888380818860808380818F7D808352
:100FB000808180688083808180648083DF91CF918D
:100FC0000895539A3E9A269A3F9A259A469A2E9ABF
:100FD000479A2D9AE1ECF0E08081886080838081DF
:100FE0008B7F808380818D7F808380818E7F8083D3
:100FF000E3ECF0E080818D7F808380818E7F808331
:10100000E0ECF0E080818260808380818068808372
:1010100080818F7B808380818160808380818062FA
:10102000808380818F7E80838FEF8093D100809337
:10103000CF008093D00008958091260190912701E0
:101040008130910531F018F0029729F008958AE176
:1010500003C088E101C089E18093230108950E94C3
:1010600051140E94B0127894219A229A209A0E94D8
:101070001C080E948E070E9498070E94E1070C94AA
:101080009E0780912401909125018130910519F0EE
:101090000297A1F0089583E790E090931C0180935C
:1010A0001B018DE89FEF90931E0180931D018BEA39
:1010B0009FEF90931A018093190108958DE89FEF97
:1010C00090931C0180931B0183E790E090931E0195
:1010D00080931D0185E590E090931801809317019E
:1010E0000895CF92DF92EF92FF92CF93DF93C0915A
:1010F0004A01D0914B0180913E0190913F01C81B64
:10110000D90BD0933D01C0933C0180912101909176
:1011100022012091080130910901821B930BBE012D
:101120000E94F123882777FD8095982F0E94F42153
:10113000609338017093390180933A0190933B0199
:1011400080911F01909120012091060130910701AB
:10115000821B930BBE010E94F123882777FD8095A7
:10116000982F0E94F421609334017093350180938D
:101170003601909337012091420130914301409113
:1011800044015091450160915A0170915B01809139
:101190005C0190915D010E948B206B017C01BE017E
:1011A000882777FD8095982F0E94F4219B01AC0140
:1011B000C701B6010E94592160933001709331013B
:1011C0008093320190933301DF91CF91FF90EF90A4
:1011D000DF90CF900895AF92BF92CF92DF92EF92BF
:1011E000FF920F931F93CF93DF936091080170914B
:1011F00009010091060110910701643F81E0780721
:1012000009F060C0043F81E0180709F05BC06091FD
:101210004A0170914B0180913E0190913F01681B02
:10122000790B70933D0160933C01882777FD809591
:10123000982F0E94F4216B017C012091380130919C
:10124000390140913A0150913B010E940D2320E069
:1012500030E04AEF53E40E948C200E94C121709339
:101260002201609321012091340130913501409198
:10127000360150913701C701B6010E940D2320E0CD
:1012800030E04AEF53E40E948C200E94C121709309
:10129000200160931F012091300130913101409174
:1012A000320150913301C701B6010E940D239B0109
:1012B000AC01609142017091430180914401909191
:1012C000450186C0A0902101B0902201C501861B76
:1012D000970B4396C0911F01D0912001879738F05A
:1012E000CE01801B910B4396879708F086C0882714
:1012F00077FD8095982F0E94F4212DEC3CEC4CE476
:101300005FE30E940D236B017C01B501882777FD07
:101310008095982F0E94F4212CEC3CEC4CE45EE389
:101320000E940D239B01AC01C701B6010E948C20D5
:101330000E94C1217093220160932101B801882786
:1013400077FD8095982F0E94F4212DEC3CEC4CE425
:101350005FE30E940D236B017C01BE01882777FDAE
:101360008095982F0E94F4212CEC3CEC4CE45EE339
:101370000E940D239B01AC01C701B6010E948C2085
:101380000E94C1217093200160931F012DEC3CEC61
:101390004CE45FE36091420170914301809144010C
:1013A000909145010E940D236B017C012CEC3CECDB
:1013B0004CE45EE360915A0170915B0180915C01A5
:1013C00090915D010E940D239B01AC01C701B60104
:1013D0000E948C2060935A0170935B0180935C01A2
:1013E00090935D01DF91CF911F910F91FF90EF904E
:1013F000DF90CF90BF90AF900895709322016093DB
:1014000021011093200100931F01809142019091CE
:101410004301A0914401B091450180935A019093FA
:101420005B01A0935C01B0935D01DF91CF911F91AF
:101430000F91FF90EF90DF90CF90BF90AF900C9402
:1014400071084F925F926F927F928F929F92AF92AC
:10145000BF92CF92DF92EF92FF920F931F93CF93A1
:10146000DF93CDB7DEB728970FB6F894DEBF0FBE77
:10147000CDBF6B014901570120912101309122011B
:10148000309309012093080120911F013091200120
:10149000309307012093060140905A0150905B0160
:1014A00060905C0170905D01409242015092430156
:1014B0006092440170924501481B590BBA0188277C
:1014C00077FD8095982F0E94F4219B01AC01B40117
:1014D0006C197D09882777FD8095982F2D833E8391
:1014E0004F8358870E94F4212D813E814F8158857A
:1014F0000E94FF2029EF3FE049EC5FE30E948B2030
:101500006B017C0129EF3FE049E450EC0E9452213D
:1015100087FD09C0C0925A01D0925B01E0925C0144
:10152000F0925D0110C029EF3FE049EC50E4C701A3
:10153000B6010E948C2060935A0170935B018093E6
:101540005C0190935D01B501882777FD8095982F08
:101550000E94F4214B015C01B801882777FD80953A
:10156000982F0E94F4212B013C01A50194010E94B7
:10157000FF20905829EF3FE049EC5FE30E948B2069
:101580006B017C0129EF3FE049E450EC0E945221BD
:1015900087FF0AC029EF3FE049EC50E4C701B601DC
:1015A0000E948C206B017C0120E030E040E251E49D
:1015B000C301B2010E9459212B013C0120E030E01F
:1015C00040E251E4C501B4010E9459214B015C0184
:1015D000A3019201C301B2010E940D232B013C0122
:1015E000A5019401C501B4010E940D239B01AC012A
:1015F000C301B2010E948C200E947A2320E030E0D7
:1016000040E251E40E940D232B013C0129EF3FE011
:1016100049E450E460915A0170915B0180915C0152
:1016200090915D010E948C204B015C01A701960105
:101630000E948B206B017C0129EF3FE049E450ECD4
:101640000E94522187FF0AC029EF3FE049EC50E495
:10165000C701B6010E948C206B017C0129EF3FE09D
:1016600049E450E4C701B6010E940223181654F45D
:1016700029EF3FE049EC50E4C701B6010E948B20FE
:101680006B017C01C701B6010E9456219B01AC0190
:1016900080910A0190910B01A0910C01B0910D0174
:1016A00089839A83AB83BC83C301B2010E940D235B
:1016B00029813A814B815C810E940D230E94C121C6
:1016C0007195619571097093220160932101C701A1
:1016D000B6010E9470239B01AC01C301B2010E94BC
:1016E0000D2329813A814B815C810E940D230E9448
:1016F000C1217195619571097093200160931F015B
:1017000029EF3FE049E450E4C501B4010E940223FF
:1017100018164CF080925A0190925B01A0925C01E5
:10172000B0925D0110C029EF3FE049EC50E4C501E3
:10173000B4010E948B2060935A0170935B018093E7
:101740005C0190935D0128960FB6F894DEBF0FBE42
:10175000CDBFDF91CF911F910F91FF90EF90DF9060
:10176000CF90BF90AF909F908F907F906F905F9041
:101770004F900C94EB082F923F924F925F926F9292
:101780007F928F929F92AF92BF92CF92DF92EF9211
:10179000FF920F931F93CF93DF93CDB7DEB7609780
:1017A0000FB6F894DEBF0FBECDBF1C017A876987E4
:1017B000FC01A281B38120813181AD01421B530B19
:1017C000FB010280F381E02DFE83ED83FB01C080ED
:1017D000D1808D819E818C199D09449F4001459F38
:1017E000900C900C1124889FA001899F500D500DE2
:1017F0001124840E951EAA2497FCA094BA2CF10102
:10180000448155817A01E21AF30AFB010480F581D3
:10181000E02DFC87EB878F010C191D09EE9CB001B0
:10182000EF9C700D700D1124009F7001019FF00C52
:10183000F00C11246E0D7F1D2B01662457FC609463
:10184000762CF101668177817B01E21AF30AE98542
:10185000FA852681378189010C191D09EE9CC0018A
:10186000EF9C900D900D1124009F7001019FF00CD2
:10187000F00C11248E0D9F1D7C010027F7FC0095B4
:10188000102FE982FA820B831C837A01EA1AFB0A81
:101890000B851C858D819E81081B190BEE9C6001B8
:1018A000EF9CD00CD00C1124009F7001019FF00C14
:1018B000F00C1124CE0CDF1CEE24D7FCE094FE2C9F
:1018C000FB01EA1BFB0BC9010D811E81801B910BE3
:1018D000EE9F8001EF9F100D100D1124889FD00105
:1018E000899FB00DB00D11240A0F1B1FC801AA2734
:1018F00097FDA095BA2F8D839E83AF83B887641B15
:10190000750BAB85BC852A1B3B0B669FC001679F8F
:10191000900D900D1124229FA001239F500D500D7A
:101920001124840F951F8C01222717FD2095322F3B
:101930000D871E872F87388BF42DE52D962D872D4B
:10194000481459046A047B0424F4F82DE92D9A2DD7
:101950008B2D4F2F5E2F692F782F89819A81AB8134
:10196000BC81481759076A077B0714F4AC01BD0115
:101970004C155D056E057F0514F4B701A6010D81B8
:101980001E812F813885401751076207730714F4B1
:10199000B901A8018D859E85AF85B889481759077B
:1019A0006A077B0714F4AC01BD01942D852DF62D3B
:1019B000E72D84149504A604B70424F4982D892DEA
:1019C000FA2DEB2D092F182F2F2F3E2F89819A8169
:1019D000AB81BC8180179107A207B30714F48C0177
:1019E0009D01D901C801C016D106E206F30614F420
:1019F000D701C6018C019D018D819E81AF81B88583
:101A000080179107A207B30714F48C019D01D90137
:101A1000C8010D851E852F853889081719072A07E3
:101A20003B0714F4D901C801481559056A057B051F
:101A3000A1F484159505A605B70519F421E030E059
:101A400091C029813A814B815C8182179307A40759
:101A5000B507A1F320E030E03EC04415550566050A
:101A60007705A1F488159905AA05BB0519F422E0AC
:101A700030E078C0E980FA800B811C818E159F05CB
:101A8000A007B107A1F320E030E05DC009811A8111
:101A90002B813C81401751076207730781F484153D
:101AA0009505A605B70519F423E030E05BC088155D
:101AB0009905AA05BB05C1F320E030E04EC04C15E6
:101AC0005D056E057F05B1F488159905AA05BB056E
:101AD00029F422E030E081E090E046C02D813E8193
:101AE0004F81588582179307A407B50791F321E02A
:101AF00030E029C00D811E812F81388540175107A4
:101B00006207730781F488159905AA05BB0519F4C6
:101B100023E030E0E0CF8C159D05AE05BF05C1F395
:101B200021E030E01AC00D851E852F8538894017C9
:101B3000510762077307A1F484159505A605B7053B
:101B400029F423E030E082E090E00EC08C159D0582
:101B5000AE05BF05B1F322E030E083E090E004C0C1
:101B600020E030E080E090E0BC01660F771FF101DB
:101B7000E60FF71F80819181220F331FF101E20FE1
:101B8000F31F40815181E985FA85E60FF71F6081D7
:101B90007181E985FA85E20FF31F208131817B0194
:101BA000E20EF31EF7FE03C01FEFE11AF10AF594EF
:101BB000E7948C01040F151F17FF02C00F5F1F4F22
:101BC000159507950E94210A60960FB6F894DEBF1E
:101BD0000FBECDBFDF91CF911F910F91FF90EF907E
:101BE000DF90CF90BF90AF909F908F907F906F903D
:101BF0005F904F903F902F9008952F923F924F9279
:101C00005F926F927F928F929F92AF92BF92CF928C
:101C1000DF92EF92FF920F931F93CF93DF93CDB795
:101C2000DEB760970FB6F894DEBF0FBECDBF8C0154
:101C30001B01DC0112966D917C911397CD90DC9085
:101C4000DE86CD86FB01EC19FD09D10112962D919E
:101C50003C911397CD90DC90D88ACF86A9014C197E
:101C60005D09EE9FC001EF9F900D900D1124449FE0
:101C7000F001459FF00DF00D11248E0F9F1F6C0198
:101C8000EE24D7FCE094FE2CC982DA82EB82FC823F
:101C9000D8011496ED90FC9015976701ED85FE85AF
:101CA000CE1ADF0AD10114964D915C911597DA0195
:101CB000EF85F889AE1BBF0BCC9CC001CD9C900D6D
:101CC000900D1124AA9FF001AB9FF00DF00D11248F
:101CD0008E0F9F1F2C01662457FC6094762CF70111
:101CE000E61BF70B421B530BEE9FC001EF9F900DBD
:101CF000900D1124449F9001459F300D300D11240B
:101D0000820F931F6C01EE24D7FCE094FE2CCD8251
:101D1000DE82EF82F886342D252D962D872DC98001
:101D2000DA80EB80FC804C145D046E047F0424F4A4
:101D300039812A819B818C81C32ED22EE92EF82EE7
:101D40002D813E814F815885C216D306E406F506E3
:101D500014F469017A01342D252D962D872D4981A2
:101D60005A816B817C81441555056605770524F4FD
:101D700039812A819B818C81832E922EA92EB82EA7
:101D80006D817E818F819885681579058A059B050F
:101D900014F44B015C01C701B6010E94F42169876C
:101DA0007A878B879C87C501B4010E94F4219B012F
:101DB000AC0169857A858B859C850E94592169874C
:101DC0007A878B879C8720E030E040E050E40E94D7
:101DD000522187FF3EC189819A81AB81BC81C8169F
:101DE000D906EA06FB0651F484149504A604B70448
:101DF00089F51A82198221E030E032C0C414D5047A
:101E0000E604F70471F4C980DA80EB80FC808C145E
:101E10009D04AE04BF0439F51A82198222E030E035
:101E200028C02D813E814F815885C216D306E40615
:101E3000F50611F5C980DA80EB80FC808C149D04D6
:101E4000AE04BF04F1F421E030E03A83298322E0BC
:101E500030E01DC041E050E05A83498320E030E08B
:101E600082E090E016C062E070E07A83698320E04F
:101E700030E081E090E00DC01A82198220E030E06D
:101E800006C082E090E09A83898321E030E080E020
:101E900090E06901CC0CDD1CF801EC0DFD1D6080AB
:101EA00071807C01EE0CFF1CB301882777FD8095C3
:101EB000982F0E94F4214B015C01F801EE0DFF1DEB
:101EC00080819181B301681B790B882777FD80950C
:101ED000982F0E94F42122EA35E446E05FE30E9455
:101EE0000D239B01AC01C501B4010E948C200E940E
:101EF000C1214B015C01F101EC0DFD1DC080D180C1
:101F0000B601882777FD8095982F0E94F4212B0138
:101F10003C01F101EE0DFF1D80819181B601681B2E
:101F2000790B882777FD8095982F0E94F42122EA6B
:101F300035E446E05FE30E940D239B01AC01C30141
:101F4000B2010E948C200E94C1216D837E838F8309
:101F50009887C980DA80CC0CDD1CDA86C986F60148
:101F6000E00FF11FC080D180DA82C982B4018827D6
:101F700077FD8095982F0E94F4216B017C012981C7
:101F80003A81B901882777FD8095982F0E94F42126
:101F90002B013C0169817A8168197909882777FDCD
:101FA0008095982F0E94F42128EA36EC4BE85EE3F6
:101FB0000E940D239B01AC01C301B2010E948C2041
:101FC0009B01AC01C701B6010E948B200E94C12178
:101FD0004B015C01E985FA85E20DF31D208031801B
:101FE0004D815E81BA01882777FD8095982F0E94E8
:101FF000F4216B017C01B101882777FD8095982F32
:102000000E94F4212B013C01B1018D819E81681B4E
:10201000790B882777FD8095982F0E94F42128EA74
:1020200036EC4BE85EE30E940D239B01AC01C3013B
:10203000B2010E948C209B01AC01C701B6010E9435
:102040008B200E94C1217B018401910149815A8129
:1020500056C120E030E040E850E469857A858B8500
:102060009C850E94022318160CF44CC1A70196010E
:10207000C701B6010E94E123A50194010E94052435
:1020800028393840410551050CF03CC129813A817D
:102090004B815C81C216D306E406F50661F4841414
:1020A0009504A604B704A9F520E030E042E050E032
:1020B0005A83498347C0C414D504E604F70481F465
:1020C000C980DA80EB80FC808C149D04AE04BF04D0
:1020D00039F520E030E041E050E05A83498316C0F2
:1020E0006D817E818F819885C616D706E806F90630
:1020F000F1F4C980DA80EB80FC808C149D04AE047E
:10210000BF04E1F421E030E01A82198282E090E01D
:102110001BC021E030E042E050E05A8349830BC00D
:1021200022E030E061E070E07A83698304C020E05F
:1021300030E01A82198280E090E006C022E030E0B0
:102140001A82198281E090E04901880C991CF801FB
:10215000E80DF91D608071805C01AA0CBB1CB30105
:10216000882777FD8095982F0E94F4216B017C01D0
:10217000F801EA0DFB1D80819181681A790AB3018B
:10218000882777FD8095982F0E94F42122EA35E474
:1021900046E05FE30E940D239B01AC01C701B6013D
:1021A0000E948C200E94C1216B017C01F101E80D8D
:1021B000F91D80809180B401882777FD8095982F44
:1021C0000E94F4212B013C01F101EA0DFB1D8081ED
:1021D0009181881A990AB401882777FD8095982FF4
:1021E0000E94F42122EA35E446E05FE30E940D23D9
:1021F0009B01AC01C301B2010E948C200E94C1214D
:102200006D837E838F83988789819A81880F991F38
:102210009A838983FC01E00FF11F00811181B601CF
:10222000882777FD8095982F0E94F4214B015C014F
:10223000B801882777FD8095982F0E94F4212B0103
:102240003C01B8016C197D09882777FD8095982F8E
:102250000E94F4212FED3FE44DEC5FE30E940D233B
:102260009B01AC01C301B2010E948C209B01AC0117
:10227000C501B4010E948B200E94C1214B015C0169
:10228000A981BA81A20DB31D0D911C91AD81BE81B2
:10229000BD01882777FD8095982F0E94F4216B015E
:1022A0007C01B801882777FD8095982F0E94F42142
:1022B0002B013C01B801ED81FE816E1B7F0B88274D
:1022C00077FD8095982F0E94F4212FED3FE44DEC8F
:1022D0005FE30E940D239B01AC01C301B2010E9488
:1022E0008C209B01AC01C701B6010E948B200E948B
:1022F000C1217B0184012F8538894D855E85B4011C
:10230000C40170C029813A814B815C81C216D30619
:10231000E406F50641F484149504A604B70429F5EF
:1023200021E030E02CC0C414D504E604F70461F4C5
:10233000C980DA80EB80FC808C149D04AE04BF045D
:10234000B9F422E030E01BC02D813E814F815885D9
:10235000C216D306E406F50681F484149504A60497
:10236000B70481F421E030E005C020E030E00CC08B
:1023700020E030E082E090E009C020E030E080E042
:1023800090E004C022E030E081E090E0BC01660F04
:10239000771FF801E60FF71F80819181220F331F0D
:1023A000F801E20FF31F40815181F101E60FF71FA1
:1023B00060817181F101E20FF31F208131817B0186
:1023C000E20EF31EF7FE03C0AFEFEA1AFA0AF59425
:1023D000E7948C01040F151F17FF02C00F5F1F4FFA
:1023E000159507950E94210A60960FB6F894DEBFF6
:1023F0000FBECDBFDF91CF911F910F91FF90EF9056
:10240000DF90CF90BF90AF909F908F907F906F9014
:102410005F904F903F902F900895CF93DF93CDB76B
:10242000DEB760970FB6F894DEBF0FBECDBFEBE806
:10243000F1E080E090E0408151814F3F23E052077E
:10244000C9F0228133812F3F63E0360799F0DC0128
:10245000AA0FBB1F61E070E06C0F7D1FA60FB71FB6
:10246000525019965C934E931897205831402D93F3
:102470003C930196369671E0E33AF707E1F6843033
:10248000910541F4BE016F5F7F4FCE0109960E9416
:10249000BB0B09C0039751F4BE016F5F7F4FCE01A4
:1024A00009960E94FD0D6E9A769A02C06E9A7698F1
:1024B00060960FB6F894DEBF0FBECDBFDF91CF910F
:1024C00008958BE891E00E94591B80938A01811145
:1024D0000E940D1280918A010895809124019091AB
:1024E0002501409121015091220120911901309143
:1024F0001A01019731F481E090E0241735073CF090
:1025000005C081E090E0421753070CF080E0089589
:1025100080912101909122018D589F4F08958091C3
:102520001F0190912001CC96089520E030E048EC06
:1025300052E460915A0170915B0180915C0190912D
:102540005D010E940D230E94C621CB010895809158
:1025500022018095881F8827881F90E001960895A2
:10256000589A599A5A9A8CE08093B800E9E6F0E0BC
:1025700080818062808380818F7E8083EA9A7894D4
:10258000089584E88093BC008091BC0087FFFCCF55
:102590008091BB00089584E98093BC00089520E0F9
:1025A00030E08091BC0087FD06C02F5F3F4F293E81
:1025B00083E03807B1F781E0283E334009F480E03A
:1025C00008958093BB0084E88093BC000E94CF12E2
:1025D000882321F08091B900887F089580E00895D4
:1025E0001F93CF93DF931F92CDB7DEB7182F84EAE6
:1025F0008093BC0069830E94CF126981811104C05D
:1026000094E99093BC0014C0812F880F662331F0A9
:102610008F5F0E94E112883451F404C00E94E112DD
:10262000803229F484E98093BC0080E001C081E01D
:102630000F90DF91CF911F910895CF93DF93C82F13
:10264000D62F60E00E94F012882391F08D2F0E9417
:10265000E112882369F084E98093BC0061E08C2F4B
:102660000E94F012882321F0DF91CF910C94C112C7
:1026700080E0DF91CF910895CF93DF93D62FC42FC1
:1026800060E00E94F012811102C080E00EC08D2F28
:102690000E94E1128823C9F38C2F0E94E112882343
:1026A000A1F384E98093BC0081E0DF91CF9108958C
:1026B000CF93DF9300D01F92CDB7DEB74B836A83F1
:1026C00089830E94B01294EA9093BC0089816A8148
:1026D0004B819091BC0097FFFCCF90E59093BB009D
:1026E00094E89093BC009091BC0097FFFCCF909130
:1026F000B900987F903229F484E98093BC0080E08F
:1027000029C091E09093BB0094E89093BC00909115
:10271000BC0097FFFCCF8093BB0084E88093BC0093
:102720008091BC0087FFFCCF6093BB0084E880935E
:10273000BC008091BC0087FFFCCF4093BB0084E8C5
:102740008093BC008091BC0087FFFCCF84E980931C
:10275000BC0081E00F900F900F90DF91CF91089512
:1027600024EA2093BC002091BC0027FFFCCF21E588
:102770002093BB0024E82093BC002091BC0027FFDD
:10278000FCCF2091B900287F2834A9F024EC2093B5
:10279000BC002091BC0027FFFCCF2091BB0026137A
:1027A0000AC0FC0120E030E0772767FD709561509A
:1027B000710944EC0EC084E98093BC0080E0089568
:1027C0005091BC0057FFFCCF5091BB0051932F5F3D
:1027D0003F4F261737071CF44093BC00F1CF44E865
:1027E0004093BC004091BC0047FFFCCF4091BB0030
:1027F000FC01E20FF31F408384E98093BC0081E079
:102800000895F89494EA9093BC009091BC0097FFCF
:10281000FCCF90E59093BB0094E89093BC0090911E
:10282000BC0097FFFCCF9091B900987F903231F4B3
:1028300084E98093BC00789480E0089593E09093BD
:10284000BB0094E89093BC009091BC0097FFFCCF34
:102850008093BB0084E88093BC008091BC0087FF1C
:10286000FCCFFB01552747FD509524E8CF01861B7F
:10287000970B8417950754F481918093BB002093A4
:10288000BC008091BC0087FFFCCFF0CF84E980932F
:10289000BC00789481E008958091E80080FFFCCF2F
:1028A000089581E08093D70080EA8093D80082E188
:1028B00089BD09B400FEFDCF80E98093D800109255
:1028C000E00010924901109246018CE08093E200F2
:1028D000789408958091490108959FB7F894809164
:1028E0004901882339F083E08093E9008091E80072
:1028F00085FD03C09FBF8FEF08958091F100209167
:10290000E80025FD03C02BE62093E8009FBF089553
:102910009FB7F89480914901882331F083E0809338
:10292000E9008091F20001C080E09FBF089580918E
:102930004901882371F08FB7F89493E09093E900F0
:102940002BE69091E80095FF03C02093E800F9CFB3
:102950008FBF089590914901992371F09FB7F89422
:1029600024E02093E90020914701222349F020919F
:10297000E80025FD03C09FBF8FEF08951092470127
:102980002091E400275E34E04091E80045FD12C04C
:102990009FBF9091E400921304C081E080934701AF
:1029A000EBCF90914901992339F39FB7F894309375
:1029B000E900EACF8093F1008091E80085FD03C033
:1029C0008AE38093E80085E0809348019FBF80E020
:1029D0000895909149019923D1F09FB7F89424E08C
:1029E0002093E9002091E80025FD02C09FBF0FC0A1
:1029F0008093F1008091E80085FD03C08AE3809315
:102A0000E80085E0809348019FBF80E008958FEF44
:102A10000895EF92FF921F93CF93DF937C01CB0138
:102A200020914901222371F0AFB7F89424E020935C
:102A3000E90020914701222349F02091E80025FD7B
:102A400003C0AFBF8FEF42C210924701B4E0C0E4B1
:102A5000DAE315E0009709F437C22091E400275E1D
:102A60003091E80035FD12C0AFBF3091E400321361
:102A700004C081E080934701E5CF309149013323C1
:102A800009F3AFB7F894B093E900EACF2091F200D0
:102A90004C2F421B242F30E08217930708F4482F55
:102AA000841B910950E04134510508F0FDC14A5A98
:102AB0005F4FFA010C942424F70120812093F10048
:102AC00097012F5F3F4F7901F70120812093F1009B
:102AD00097012F5F3F4F7901F70120812093F1008B
:102AE00097012F5F3F4F7901F70120812093F1007B
:102AF00097012F5F3F4F7901F70120812093F1006B
:102B000097012F5F3F4F7901F70120812093F1005A
:102B100097012F5F3F4F7901F70120812093F1004A
:102B200097012F5F3F4F7901F70120812093F1003A
:102B300097012F5F3F4F7901F70120812093F1002A
:102B400097012F5F3F4F7901F70120812093F1001A
:102B500097012F5F3F4F7901F70120812093F1000A
:102B600097012F5F3F4F7901F70120812093F100FA
:102B700097012F5F3F4F7901F70120812093F100EA
:102B800097012F5F3F4F7901F70120812093F100DA
:102B900097012F5F3F4F7901F70120812093F100CA
:102BA00097012F5F3F4F7901F70120812093F100BA
:102BB00097012F5F3F4F7901F70120812093F100AA
:102BC00097012F5F3F4F7901F70120812093F1009A
:102BD00097012F5F3F4F7901F70120812093F1008A
:102BE00097012F5F3F4F7901F70120812093F1007A
:102BF00097012F5F3F4F7901F70120812093F1006A
:102C000097012F5F3F4F7901F70120812093F10059
:102C100097012F5F3F4F7901F70120812093F10049
:102C200097012F5F3F4F7901F70120812093F10039
:102C300097012F5F3F4F7901F70120812093F10029
:102C400097012F5F3F4F7901F70120812093F10019
:102C500097012F5F3F4F7901F70120812093F10009
:102C600097012F5F3F4F7901F70120812093F100F9
:102C700097012F5F3F4F7901F70120812093F100E9
:102C800097012F5F3F4F7901F70120812093F100D9
:102C900097012F5F3F4F7901F70120812093F100C9
:102CA00097012F5F3F4F7901F70120812093F100B9
:102CB00097012F5F3F4F7901F70120812093F100A9
:102CC00097012F5F3F4F7901F70120812093F10099
:102CD00097012F5F3F4F7901F70120812093F10089
:102CE00097012F5F3F4F7901F70120812093F10079
:102CF00097012F5F3F4F7901F70120812093F10069
:102D000097012F5F3F4F7901F70120812093F10058
:102D100097012F5F3F4F7901F70120812093F10048
:102D200097012F5F3F4F7901F70120812093F10038
:102D300097012F5F3F4F7901F70120812093F10028
:102D400097012F5F3F4F7901F70120812093F10018
:102D500097012F5F3F4F7901F70120812093F10008
:102D600097012F5F3F4F7901F70120812093F100F8
:102D700097012F5F3F4F7901F70120812093F100E8
:102D800097012F5F3F4F7901F70120812093F100D8
:102D900097012F5F3F4F7901F70120812093F100C8
:102DA00097012F5F3F4F7901F70120812093F100B8
:102DB00097012F5F3F4F7901F70120812093F100A8
:102DC00097012F5F3F4F7901F70120812093F10098
:102DD00097012F5F3F4F7901F70120812093F10088
:102DE00097012F5F3F4F7901F70120812093F10078
:102DF00097012F5F3F4F7901F70120812093F10068
:102E000097012F5F3F4F7901F70120812093F10057
:102E100097012F5F3F4F7901F70120812093F10047
:102E200097012F5F3F4F7901F70120812093F10037
:102E300097012F5F3F4F7901F70120812093F10027
:102E400097012F5F3F4F7901F70120812093F10017
:102E500097012F5F3F4F7901F70120812093F10007
:102E600097012F5F3F4F7901F70120812093F100F7
:102E700097012F5F3F4F7901F70120812093F100E7
:102E800097012F5F3F4F7901F70120812093F100D7
:102E900097012F5F3F4F7901F70120812093F100C7
:102EA00097012F5F3F4F7901F70120812093F100B7
:102EB00097012F5F3F4F79012091E80025FFD093C4
:102EC000E80010934801C6CDAFBF80E0DF91CF91FD
:102ED0001F91FF90EF9008958FB7F894909148015B
:102EE000992341F094E09093E9009AE39093E800ED
:102EF000109248018FBF089580911201089580912A
:102F00001301089580911401089580914601089558
:102F10009FB7F89420914901222339F022E02093B1
:102F2000E9003091E80035FD03C09FBF8FEF0895A1
:102F300031EA3093F10030E23093F1001092F10069
:102F40001092F1001092F1001092F1002093F10024
:102F50001092F1008093F1001092F1008AE38093C7
:102F6000E8009FBF80E008951F920F920FB60F9266
:102F700011248F939F938091E1001092E10083FFD1
:102F800011C01092E90091E09093EB001092EC00D8
:102F900092E19093ED0098E09093F0001092490137
:102FA0001092460182FF13C080914901882379F075
:102FB00080914801882359F0815080934801811104
:102FC00006C084E08093E9008AE38093E8009F9143
:102FD0008F910F900FBE0F901F9018951F920F9218
:102FE0000FB60F921124EF92FF920F931F932F931E
:102FF0003F934F935F936F937F938F939F93AF9381
:10300000BF93EF93FF93CF93DF931F92CDB7DEB7BC
:103010001092E9008091E80083FF14C19091F100C3
:103020008091F1003091F1002091F100E32EF12C1C
:10303000F22A0091F1002091F10010E0122B209172
:10304000F1006091F10032EF3093E800863009F032
:1030500046C036E086EA91E0FC01459154914E1558
:103060005F0539F4FC0132964591549140175107A0
:1030700021F00796315081F7E5C0FC013496459167
:103080005491FC013696849130E0362B2F3F310568
:1030900019F010F02FEF30E0281708F4822F3EEFE0
:1030A0009091E800292F2570D9F392FDCEC0982F7A
:1030B000813108F090E1FA01292F222331F0649147
:1030C0006093F10021503196F8CF490F511D891BB3
:1030D0003093E8008111E4CF903111F3B6C0853010
:1030E00051F48EEF8093E8000E944C148E2D80687E
:1030F0008093E300AAC0893059F5911180C0E09215
:10310000490110924601109248018EEF8093E80029
:1031100041E08FE492E04093E9009C012F5F3F4F34
:10312000FC0154915093EB00552359F0F90124917F
:103130002093EC009C012D5F3F4F3196849180934A
:10314000ED004F5F453011F0C901E5CF8EE175C04C
:10315000883051F4903809F052C00E944C1480918C
:1031600049018093F10047C0813279F4913A09F026
:1031700046C00E944C14EEE0F1E081918093F10092
:1031800081E0E531F807C9F736C0803299F4913211
:10319000B1F58091E80082FFFCCFEEE0F1E0809194
:1031A000F100819381E0E531F807C9F78BEF809357
:1031B000E80021C0823241F4913209F043C0E0922C
:1031C00046010E944C1417C0811119C099830E94B6
:1031D0004C149981923851F40093E9008091EB00EE
:1031E00085FB882780F91092E90001C080E0809378
:1031F000F1001092F1008EEF8093E80026C0282F96
:103200002D7F2130F9F49230E9F4EF28D9F40F77CB
:103210009FEF900F9430B0F49EEF9093E8000093EE
:10322000E900833079F089E18093EB0081E090E060
:10323000002E01C0880F0A94EAF78093EA001092EA
:10324000EA0003C081E28093EB000F90DF91CF9101
:10325000FF91EF91BF91AF919F918F917F916F916E
:103260005F914F913F912F911F910F91FF90EF90A0
:103270000F900FBE0F901F9018951F93CF93DF9361
:10328000EC01FE011491112351F01A3019F48DE074
:103290000E94AA14812F0E94AA142196F2CFDF91D6
:1032A000CF911F9108958A3010F490E301C097E305
:1032B000890F0C94AA14CF93C82F82958F700E9407
:1032C00053198C2F8F70CF910C945319CF93C82F13
:1032D000892F0E945B198C2FCF910C945B190C9451
:1032E0005B19EF92FF920F931F93CF93DF93CDB7AC
:1032F000DEB727970FB6F894DEBF0FBECDBF8E01A5
:103300000F5F1F4F27E0F80111922A95E9F74AE075
:10331000B8010E947A247E01F8E0EF0EF11CF8015A
:1033200081918F0181110E94AA140E151F05B9F712
:1033300027960FB6F894DEBF0FBECDBFDF91CF91B9
:103340001F910F91FF90EF900895EF92FF920F93CE
:103350001F93CF93DF9300D000D000D0CDB7DEB75E
:103360008E010F5F1F4F26E0F80111922A95E9F7B1
:103370004AE0B8010E94B6247E01F6E0EF0EF11C8F
:10338000F80181918F0181110E94AA140E151F0569
:10339000B9F726960FB6F894DEBF0FBECDBFDF910A
:1033A000CF911F910F91FF90EF900895EF92FF92B0
:1033B0000F931F93CF93DF93CDB7DEB72B970FB645
:1033C000F894DEBF0FBECDBF8E010F5F1F4F2BE005
:1033D000F80111922A95E9F72AE0A8010E948524B4
:1033E0007E01FCE0EF0EF11CF80181918F0181114B
:1033F0000E94AA140E151F05B9F72B960FB6F89464
:10340000DEBF0FBECDBFDF91CF911F910F91FF9017
:10341000EF900895EF92FF920F931F93CF93DF9356
:10342000CDB7DEB72B970FB6F894DEBF0FBECDBF7A
:103430008E010F5F1F4F2BE0F80111922A95E9F7DB
:103440002AE0A8010E9494247E01FBE0EF0EF11C0B
:10345000F80181918F0181110E94AA140E151F0598
:10346000B9F72B960FB6F894DEBF0FBECDBFDF9134
:10347000CF911F910F91FF90EF90089520E030E0E1
:103480008091BC0087FD06C02F5F3F4F293E83E03F
:103490003807B1F781E0283E334009F480E0089511
:1034A0008093BB0084E88093BC000E943E1A88236E
:1034B00019F08091B900887F0895CF93C82F84EACE
:1034C0008093BC000E943E1A882361F08C2F880FE5
:1034D0000E94501A803229F484E98093BC0080E075
:1034E00001C081E0CF9108950E94B01288E50E944A
:1034F0005D1A811102C080E0089580E30E94501A95
:103500008823C9F381E00E94501A8823A1F384E93B
:103510008093BC008FE39CE90197F1F700C00000A5
:1035200088E50E945D1A882331F380E00E94501ADA
:10353000882309F380E00E94501A8823E1F280E09A
:103540000E94501A8823B9F280E00E94501A882302
:1035500091F280E00E94501A882369F280E00E9474
:10356000501A882341F280E00E94501A882319F2F1
:1035700080E90E94501A882309F4BDCF84E9809322
:10358000BC008FE39CE90197F1F700C0000088E5DB
:103590000E945D1A882309F4AECF87E00E94501A7A
:1035A000882309F4A8CF80E00E94501A882309F4E8
:1035B000A2CF81E40E94501A882309F49CCF84E9A9
:1035C0008093BC008FE39CE90197F1F700C00000F5
:1035D00088E50E945D1A882309F48DCF8AE10E9454
:1035E000501A882309F487CF80E40E94501A882358
:1035F00009F481CF80E00E94501A882309F47BCF20
:1036000084E98093BC008FE39CE90197F1F700C047
:10361000000088E50E945D1A882309F46CCF83E3DB
:103620000E94501A882309F466CF83E00E94501A42
:10363000882309F460CF84E98093BC008FE39CE980
:103640000197F1F700C0000088E50E945D1A882309
:1036500009F451CF80E30E94501A882309F44BCF1C
:1036600088E00E94501A882309F445CF84E98093AA
:10367000BC008FE39CE90197F1F700C0000081E0F6
:103680000895CF93C82F84EA8093BC000E943E1A0D
:10369000882369F08C2F880F8F5F0E94501A88341E
:1036A00029F484E98093BC0080E001C081E0CF91DF
:1036B0000895EF92FF920F931F93CF93DF93CDB7AF
:1036C000DEB760970FB6F894DEBF0FBECDBF7C01AA
:1036D0008E010F5F1F4F80E1F80111928A95E9F783
:1036E00088E50E945D1A811102C080E05EC086E319
:1036F0000E94501A8823C9F384E98093BC00F5E83E
:10370000FA95F1F7000088E50E94411B882369F3D0
:10371000F8019E01205F3F4F94EC9093BC00809194
:10372000BC0087FFFCCF8091BB008193E217F307B9
:10373000A1F784E88093BC008091BC0087FFFCCF98
:103740008091BB00888B84E98093BC00DE011496D5
:1037500087016C91762F7073AD0142505109FA01C7
:10376000808190E0F0E17F9F800D911D1124F80190
:1037700091838083762F707C4F5F5F4FFA01808149
:1037800090E0F4E07F9F800D911D1124F801938358
:1037900082836F70862F90E09583848313960A5FEF
:1037A0001F4FA217B307A9F681E060960FB6F894F1
:1037B000DEBF0FBECDBFDF91CF911F910F91FF9064
:1037C000EF90089584E98093BC0008958091A3014F
:1037D00090E0FC01E05AF109E730F10508F080C003
:1037E000E956FF4F0C9424240E9461120E94A712F4
:1037F00090932501809324018130910561F4299AE9
:103800002FEF80E792E0215080409040E1F700C028
:1038100000002A980895029709F062C02A9A2FEFB3
:1038200080E792E0215080409040E1F700C0000026
:10383000299808950E9461120E94A7129093250171
:1038400080932401019719F4299A2A9802C02A9A90
:1038500029980E94410882E090E09093160180939D
:1038600015010C948901409124015091250180910A
:10387000A4012091A50141305105E9F40BC040910C
:103880002401509125012091A4018091A50142308D
:10389000510589F4992787FD909590935101809364
:1038A0005001332727FD309530934F0120934E016F
:1038B0000E94F30511C0332727FD30953093510145
:1038C00020935001992787FD909590934F01809305
:1038D0004E0102C0469847981092160110921501A9
:1038E00008951F920F920FB60F9211242F933F93BA
:1038F0004F935F936F937F938F939F93AF93BF93F8
:10390000EF93FF936AE083EA91E00E94B0130E9474
:10391000E61BFF91EF91BF91AF919F918F917F91A6
:103920006F915F914F913F912F910F900FBE0F902C
:103930001F9018958EEC92E00E943D1980916C01C9
:1039400090916D010E94711989EC92E00E943D19DD
:1039500080916E0190916F010E94711984EC92E048
:103960000E943D1980916401909165010E94711936
:103970008FEB92E00E943D1980917001909171014E
:103980000E94711989EB92E00E943D1980916A01B1
:1039900090916B010E94711983EB92E00E943D1996
:1039A00080916601909167010E9471198DEA92E001
:1039B0000E943D1980916801909169010E947119DE
:1039C00088EA92E00E943D19809162019091630122
:1039D0000E9471198DE992E00E943D1980915E016B
:1039E00090915F010C947119809172019091730113
:1039F000892B51F180917A008F7780937A006091C2
:103A00004A0170914B0180914C0190914D012AE047
:103A100030E040E050E00E940524672B682B692BC2
:103A200011F40E949A1C10927301109272018091FD
:103A30007A00806880937A0080917A008064809315
:103A40007A0081E090E0089580E090E0089580E0C1
:103A500090E0A4E6B1E041E050E021E030E06D917B
:103A60007D91FC01EE0FFF1FEE59FE4F0190F0819A
:103A7000E02DE617F7076CF0FA01EE0FFF1FEE5985
:103A8000FE4F0190F081E02DE617F70724F4A9011D
:103A900002C0AC01C9012F5F3F4F28303105F9F654
:103AA0009093B0018093AF015093AE014093AD016C
:103AB000FC01EE0FFF1FEE59FE4F208131818091F6
:103AC000B1019091B2018217930724F4289A81E002
:103AD00090E00895289880E090E008952091620198
:103AE0003091630180912A0190912B0128173907A9
:103AF00094F08091680190916901893592405CF061
:103B000081E090E0209166013091670129353240D3
:103B100024F480E0089580E090E008950F931F93CF
:103B2000CF93DF93A4E6B1E001E010E0C0E0D0E085
:103B300081E090E02D913D91FE01EE0FFF1FEE59C7
:103B4000FE4F408151814217530764F0F801EE0F98
:103B5000FF1FEE59FE4F408151814217530724F455
:103B60008C0102C08E01EC0101968830910511F79D
:103B700080916401909165012091700130917101F3
:103B80008217930711F4C7E0D0E020916E013091C5
:103B90006F018217930711F4C6E0D0E00E946D1206
:103BA000892B09F46AC1FE01EE0FFF1FEE59FE4F8B
:103BB00080819181049719F520916A0130916B0100
:103BC00080916C0190916D0182179307C4F40E945B
:103BD000AB0360914A0170914B0180914C0190912F
:103BE0004D012AE030E040E050E00E940524672BC0
:103BF000682B692B09F03BC187E992E036C1C530DB
:103C0000D10519F520916C0130916D0180916A0107
:103C100090916B0182179307C4F40E949D036091F9
:103C20004A0170914B0180914C0190914D012AE025
:103C300030E040E050E00E940524672B682B692BA0
:103C400009F015C180E992E010C18091680190915E
:103C500069012091660130916701821B930B0496E4
:103C6000099708F5CE010297029728F00250110932
:103C700002301105C0F40E94510360914A01709115
:103C80004B0180914C0190914D012AE030E040E0E1
:103C900050E00E940524672B682B692B09F0E7C0D0
:103CA0008BE892E0E2C0FE013197E730F10508F0C1
:103CB000C6C0E256FF4F0C9424240E94B9036091C1
:103CC0004A0170914B0180914C0190914D012AE085
:103CD00030E040E050E00E940524672B682B692B00
:103CE00009F0C5C085E892E0C0C020916E01309116
:103CF0006F018091280190912901281739071CF440
:103D00000E94810302C00E94B90360914A01709130
:103D10004B0180914C0190914D012AE030E040E050
:103D200050E00E940524672B682B692B09F09FC087
:103D30008EE792E09AC020917001309171018091DC
:103D4000280190912901281739071CF40E948F033C
:103D500002C00E94C70360914A0170914B0180919B
:103D60004C0190914D012AE030E040E050E00E948B
:103D70000524672B682B692B09F079C088E792E04E
:103D800074C00E948F0360914A0170914B01809131
:103D90004C0190914D012AE030E040E050E00E945B
:103DA0000524672B682B692B09F061C082E792E03C
:103DB0005CC00E94810360914A0170914B01809127
:103DC0004C0190914D012AE030E040E050E00E942B
:103DD0000524672B682B692B09F049C08BE692E01C
:103DE00044C00E948F0360914A0170914B01809101
:103DF0004C0190914D012AE030E040E050E00E94FB
:103E00000524672B682B692B91F585E692E02DC080
:103E10000E94810360914A0170914B0180914C0195
:103E200090914D012AE030E040E050E00E940524EE
:103E3000672B682B692BD9F48EE592E016C00E949F
:103E4000510360914A0170914B0180914C01909116
:103E50004D012AE030E040E050E00E940524672B4D
:103E6000682B692B21F489E592E00E943D19DF91CE
:103E7000CF911F910F910C94000660E070E080E0FC
:103E800090E0DF91CF911F910F910C944506209106
:103E90005E0130915F01E2E6F1E080819181821B59
:103EA000930B97FF03C01182108202C0918380831D
:103EB000329681E0E237F80781F708950E94F41CFA
:103EC000892BE1F32091700130917101809164019F
:103ED00090916501281739070CF4C90120916E01F2
:103EE00030916F01281739070CF4C90190935F01D5
:103EF00080935E012FEF33E0281B390B30932D01A7
:103F000020932C019093B2018093B10108951F92E8
:103F10000F920FB60F9211242F933F938F939F937D
:103F2000EF93FF9380917A008F7780937A0080914E
:103F30006001909161012091780030917900FC013D
:103F4000EE0FFF1FEE59FE4F31832083883091051D
:103F500059F4109261011092600181E090E0909319
:103F600073018093720105C0019690936101809363
:103F70006001E0916001F0916101E830F10508F025
:103F800058C0EB55FF4F80917B000C9424248F7D0B
:103F90002EC0806280937B0080917C008B7F19C053
:103FA0008F7D80937B0080917C00846025C08F7D15
:103FB00080937B0080917C00846080937C00809162
:103FC0007C008D7F2FC08F7D80937B0080917C0053
:103FD000846080937C0080917C00826012C08F7D21
:103FE00080937B0080917C00846017C08062809306
:103FF0007B0080917C008B7F80937C0080917C0093
:104000008D7F80937C0080917C008E7F10C08062C9
:1040100080937B0080917C008B7F80937C008091DB
:104020007C00826080937C0080917C008160809322
:104030007C0080917A00806880937A0080917A0079
:10404000806480937A00FF91EF919F918F913F91CF
:104050002F910F900FBE0F901F9018950E942F0860
:104060000E94E10180E880936100109261000E944B
:1040700096011092160110921501C2E0D0E083E083
:10408000E82EF12C01E010E00E9461120E94F41C65
:1040900080911501909116018130910551F030F019
:1040A0008230910569F00397D9F0EECF0E940F029C
:1040B000EBCF0E94271D892B31F50E940A07E4CF20
:1040C0000E94271D892BA1F00E946E1D892B29F0CB
:1040D000F0921601E0921501D7CF0E948E1DD4CF29
:1040E0000E946E1D892B59F40E94271D892B39F4DB
:1040F0000E942A061093160100931501C5CF0E9455
:104100006E1D892B29F4D0931601C0931501BCCFE5
:104110000E946D07B9CF5058BB27AA270ED027C2DF
:10412000F0D130F0F5D120F031F49F3F11F41EF4BE
:10413000C0C10EF4E095E7FBB6C1E92F3AD280F397
:10414000BA17620773078407950718F071F49EF594
:1041500052C20EF4E0950B2EBA2FA02D0B01B9011F
:1041600090010C01CA01A0011124FF27591B99F0ED
:10417000593F50F4503E68F11A16F040A22F232FF9
:10418000342F4427585FF3CF469537952795A79549
:10419000F0405395C9F77EF41F16BA0B620B730BF0
:1041A000840BBAF09150A1F0FF0FBB1F661F771F61
:1041B000881FC2F70EC0BA0F621F731F841F48F416
:1041C000879577956795B795F7959E3F08F0B3CF9C
:1041D0009395880F08F09927EE0F97958795089586
:1041E00090D158F080E891E009F49EEF91D128F049
:1041F00040E851E059F45EEF09C05BC1FCC1E92F12
:10420000E078D7D168F3092E052AC1F326173707BE
:104210004807590738F00E2E07F8E02569F0E02529
:10422000E0640AC0EF6307F8009407FADB01B90104
:104230009D01DC01CA01AD01EF934AD098D10AD0AB
:104240005F91552331F02BED3FE049E450FD49ECFF
:1042500063CF0895DF93DD27B92FBF7740E85FE391
:104260001616170648075B0710F4D92FCFD19F9376
:104270008F937F936F937CD2EAE5F1E01DD177D1E4
:104280002F913F914F915F91D4D1DD2349F0905808
:10429000A2EA2AED3FE049EC5FE3D0785D274DDFED
:1042A000DF9165C1DCD008F481E0089539D1E39550
:1042B0006FC10CD05CC12CD140F023D130F021F47F
:1042C0005F3F19F0F0C0511197C1F3C072D198F35C
:1042D0009923C9F35523B1F3951B550BBB27AA2787
:1042E00062177307840738F09F5F5F4F220F331FF9
:1042F000441FAA1FA9F333D00E2E3AF0E0E830D0C5
:1043000091505040E695001CCAF729D0FE2F27D0C7
:10431000660F771F881FBB1F261737074807AB0795
:10432000B0E809F0BB0B802DBF01FF2793585F4F0A
:104330002AF09E3F510568F0B6C05EC15F3FECF3C6
:10434000983EDCF3869577956795B795F7959F5FCF
:10435000C9F7880F911D9695879597F90895E1E023
:10436000660F771F881FBB1F621773078407BA0782
:1043700020F0621B730B840BBA0BEE1F88F7E095DD
:10438000089504D06894B11137C108951AD188F006
:104390009F5790F0B92F9927B751A0F0D1F0660F31
:1043A000771F881F991F1AF0BA95C9F712C0B1304C
:1043B00081F021D1B1E008951EC1672F782F8827A1
:1043C000B85F39F0B93FCCF3869577956795B3958B
:1043D000D9F73EF490958095709561957F4F8F4FFA
:1043E0009F4F0895E89409C097FB3EF490958095FF
:1043F000709561957F4F8F4F9F4F9923A9F0F92FAB
:1044000096E9BB279395F695879577956795B79528
:10441000F111F8CFFAF4BB0F11F460FF1BC06F5F0E
:104420007F4F8F4F9F4F16C0882311F096E911C020
:10443000772321F09EE8872F762F05C0662371F041
:1044400096E8862F70E060E02AF09A95660F771F55
:10445000881FDAF7880F9695879597F90895990F31
:104460000008550FAA0BE0E8FEEF16161706E8073E
:10447000F907C0F012161306E407F50798F0621B5F
:10448000730B840B950B39F40A2661F0232B242B34
:10449000252B21F408950A2609F4A140A6958FEF53
:1044A000811D811D089597F99F6780E870E060E0A5
:1044B00008959FEF80EC0895DF93CF931F930F93A0
:1044C000FF92EF92DF927B018C01689405C0DA2E97
:1044D000EF01AFD0FE01E894A5912591359145916A
:1044E0005591AEF3EF0129DEFE019701A801DA94A0
:1044F00079F7DF90EF90FF900F911F91CF91DF91AF
:10450000089500240A941616170618060906089539
:1045100000240A9412161306140605060895C9CF3E
:1045200050D0E8F3E894E0E0BB279F57F0F02AED85
:104530003FE049EC06C0EE0FBB0F661F771F881FD8
:1045400028F0B23A62077307840728F0B25A620B68
:10455000730B840BE3959A9572F7803830F49A9533
:10456000BB0F661F771F881FD2F7904806C1092E20
:104570000394000C11F4882352F0BB0F40F4BF2BBE
:1045800011F460FF04C06F5F7F4F8F4F9F4F0895FE
:10459000EF93E0FF06C0A2EA2AED3FE049EC5FEBB3
:1045A000CCDDE5DF0F90039401FC9058E7E8F1E0E3
:1045B000F7C057FD9058440F551F59F05F3F71F0F9
:1045C0004795880F97FB991F61F09F3F79F087957A
:1045D0000895121613061406551FF2CF4695F1DF03
:1045E00008C0161617061806991FF1CF8695710593
:1045F000610508940895E894BB2766277727CB01C7
:1046000097F908952CDF08F48FEF08959B01AC0112
:1046100060E070E080E89FE34CCE0BD0A8CF71DF64
:1046200028F076DF18F0952309F03DCF42CF112412
:10463000E3CFBFDFA0F3959FD1F3950F50E0551F57
:10464000629FF001729FBB27F00DB11D639FAA27E7
:10465000F00DB11DAA1F649F6627B00DA11D661F36
:10466000829F2227B00DA11D621F739FB00DA11D57
:10467000621F839FA00D611D221F749F3327A00D11
:10468000611D231F849F600D211D822F762F6A2FAD
:1046900011249F5750408AF0E1F088234AF0EE0F32
:1046A000FF1FBB1F661F771F881F91505040A9F73F
:1046B0009E3F510570F0F7CE9FCF5F3FECF3983EE1
:1046C000DCF3869577956795B795F795E7959F5FA6
:1046D000C1F7FE2B880F911D9695879597F9089540
:1046E0009F931EDF0F9007FCEE5F52CF11F40EF484
:1046F000E0CE41C066DFD0F39923D9F3CEF39F57C4
:10470000550B87FF46D00024A0E640EA9001805870
:104710005695979528F4805C660F771F881F20F0C8
:1047200026173707480730F4621B730B840B2029C8
:1047300031294A2BA69517940794202531254A271D
:1047400058F7660F771F881F20F02617370748078E
:1047500030F4620B730B840B200D311D411DA095AD
:1047600081F7B901842F9158880F96958795089500
:104770009B01AC0152CF9F3F31F0915020F48795BF
:1047800077956795B795880F911D9695879597F9B9
:10479000089591505040660F771F881FD2F70895F3
:1047A0009F938F937F936F93FF93EF939B01AC0144
:1047B00034DFEF91FF9180DE2F913F914F915F9118
:1047C0002CCFDB018F939F930E942A24BF91AF913E
:1047D000A29F800D911DA39F900DB29F900D11245B
:1047E000089597FB072E16F4009407D077FD09D0A3
:1047F0000E94352407FC05D03EF4909581959F4F8B
:104800000895709561957F4F0895052E97FB1EF4CE
:1048100000940E941C2457FD07D00E94492407FCE5
:1048200003D04EF40C941C2450954095309521955E
:104830003F4F4F4F5F4F08959095809570956195CC
:104840007F4F8F4F9F4F0895EE0FFF1F0590F491FC
:10485000E02D09940E946B24A59F900DB49F900DAC
:10486000A49F800D911D11240895AA1BBB1B51E12B
:1048700007C0AA1FBB1FA617B70710F0A61BB70BD0
:10488000881F991F5A95A9F780959095BC01CD0175
:104890000895A1E21A2EAA1BBB1BFD010DC0AA1F81
:1048A000BB1FEE1FFF1FA217B307E407F50720F099
:1048B000A21BB30BE40BF50B661F771F881F991F14
:1048C0001A9469F760957095809590959B01AC015D
:1048D000BD01CF010895A29FB001B39FC001A39F66
:1048E000700D811D1124911DB29F700D811D112429
:1048F000911D0895BB274A3031F4992322F4BDE27B
:10490000909581959F4F0C94B724BB272A3051F482
:10491000992342F4BDE290958095709561957F4F03
:104920008F4F9F4F0C949524BB27FA01A62F621737
:10493000710581059105330B30FB66F0AA27660FE0
:10494000771F881F991FAA1FA21710F0A21B63953B
:104950003850A9F7A05DAA3308F0A95DA19336F7F6
:10496000B111B1931082CA010C94D024BB27FB0172
:104970005527AA27880F991FAA1FA41710F0A41B58
:1049800083955051B9F7A05DAA3308F0A95DA193B2
:10499000009779F7B111B1931192CB010C94D02407
:1049A000DC01FC01672F71917723E1F7329704C096
:1049B0007C916D9370836291AE17BF07C8F3089521
:0449C000F894FFCF99
:1049C4000100CDCC4C3EF401F40152B89E3E00E10E
:1049D400000000000801005700A9FF8DFF7300F4D8
:0E49E40001F401180100010028001400FF0377
:00000001FF
