:100000000C9413010C9430010C9430010C94E01604
:100010000C9430010C9430010C9430010C9430019C
:100020000C9430010C9430010C9441120C947B120E
:100030000C9430010C9430010C9430010C9430017C
:100040000C9430010C94C6160C94D3160C94300109
:100050000C9430010C9430010C9430010C9430015C
:100060000C9430010C9430010C9430010C9430014C
:100070000C9430010C9430010C9430010C9430013C
:100080000C9430010C9430010C9430010C9430012C
:100090000C9430010C9430010C9430010C9430011C
:1000A0000C9430010C9409170C943001E911E11102
:1000B000D911D111C911C111B911B111A911A111D0
:1000C00099119111891181117911711169116111C0
:1000D00059115111491141113911311129112111B0
:1000E0001911111109110111F910F110E910E110A4
:1000F000D910D110C910C110B910B110A910A11098
:100100009910911089108110791071106910611087
:100110005910511049104110391031102910211077
:100120001910111009100110F90FF10FE90F8116C4
:10013000A316BA16BA16C316C316C316084AD73B77
:100140003BCE016E84BCBFFDC12F3D6C74319ABDA6
:1001500056833DDA3D00C77F11BED9E4BB4C3E91CA
:100160006BAAAABE000000803F000A000900090037
:1001700009000001000009021200020000C601434C
:1001800000030000C2010401030904AE01120203CE
:100190000904A60106030309049C010808033400AE
:1001A00031003000000006034D0032000000120351
:1001B0004A002E0020004600690065006E006500C0
:1001C00000000403090409024300020100C03209CF
:1001D00004000001020201000524001001052401B1
:1001E000010104240206052406000107058203100C
:1001F000004009040100020A000000070503024054
:100200000000070584024000001201000202000005
:1002100010C0167A040001010203010001C112019D
:1002200080360181360011241FBECFEFDAE0DEBF39
:10023000CDBF11E0A0E0B1E0E4E1F6E302C005903B
:100240000D92AC30B107D9F721E0ACE0B1E001C0CC
:100250001D92A034B207E1F70E942D170C94081BE1
:100260000C940000209A219A229A0895299A2A9A99
:100270002C982B98089529982A982C9A2B9A0895AF
:1002800029982A9A2C9A2B980895299A2A982C987A
:100290002B9A089528982E9808952F923F924F9266
:1002A0005F926F927F928F929F92AF92BF92CF9206
:1002B000DF92EF92FF920F931F93CF93DF9300D0C3
:1002C00000D0CDB7DEB75C011B0180901501909086
:1002D00016010091170110911801681979098827F2
:1002E00077FD8095982F0E94BB189B01AC01B5014A
:1002F000601B710B882777FD8095982F29833A839F
:100300004B835C830E94BB1829813A814B815C81BD
:100310000E94C91729EF3FE049EC5FE30E9455179F
:100320006B017C0129EF3FE049E450EC0E941C186E
:1003300087FF0AC029EF3FE049EC50E4C701B6014E
:100340000E9456176B017C014090110150901201E0
:100350006090130170901401A7019601C301B201CE
:100360000E94551720E030E040E05FE30E949019C2
:1003700018161CF40E9440011CC0A3019201C70181
:10038000B6010E94551720E030E040E05FE30E9494
:10039000901918161CF40E9445010BC0A016B10656
:1003A00019F42814390419F00E94360102C00E9481
:1003B0004A012FEF8BE792E9215080409040E1F70E
:1003C00000C0000080911701909118010E94FE1357
:1003D00080E791E00E94CA13809115019091160167
:1003E0000E94FE138EE691E00E94CA1320E030E0E6
:1003F0004AE754E460911101709112018091130158
:10040000909114010E949B190E948818CB010E94B0
:10041000FE138CE691E00E94CA1320E030E04AE728
:1004200054E4C701B6010E949B190E948818CB01B1
:100430000E94FE138AE691E00F900F900F900F90AC
:10044000DF91CF911F910F91FF90EF90DF90CF90B0
:10045000BF90AF909F908F907F906F905F904F90E4
:100460003F902F900C94CA130E94011580930C01A9
:1004700080910C016E9A811102C07698F9CF769A1C
:100480008091C10088608093C1008091C1008B7F02
:100490008093C1008091C1008D7F8093C1008091C5
:1004A000C1008E7F8093C1008091C3008D7F8093B7
:1004B000C3008091C3008E7F8093C3008FEF809331
:1004C000CF008091720084608093720008954AE0AA
:1004D00068E481E00C94E50D209A219A229A239AEF
:1004E000249A259A269AE1E8F0E080818061808351
:1004F000808188608083A0E8B0E08C9182608C93DA
:100500008C9181608C9380818B7F808380818D7FB3
:1005100080838081816080838C9180628C938C91B8
:1005200080618C93EFE6F0E080818260808380813F
:100530008460808380E197E29093890080938800B3
:1005400080ED90E290938B0080938A0008950E9442
:10055000DE0E0E943D0D78940E9434020E946702D4
:100560000C946C0280911701909118018D589F4F47
:1005700008958091150190911601CC96089520E080
:1005800030E048EC52E460911101709112018091C9
:100590001301909114010E949B190E948D18CB01A8
:1005A000089580911701909118019C012E583F4F9A
:1005B0002237310528F08337910524F482E008952D
:1005C00081E0089580E008954F925F926F927F924C
:1005D0008F929F92AF92BF92CF92DF92EF92FF9253
:1005E000CF93DF9300D000D0CDB7DEB76B017C0195
:1005F00049015A012B0157FF23C077FF04C044244F
:100600005524461A570A662457FC6094762CA50197
:100610009401240D351D461D571DA8EEB3E00E9420
:100620004A1AA3019201281939094A095B090E9453
:10063000251A29013A0185E09EE2A0E0B0E022C03F
:1006400077FF04C044245524461A570A662457FCF1
:100650006094762CA501940124193509460957099F
:10066000A8EEB3E00E944A1AA3019201280D391D99
:100670004A1D5B1D0E94251A29013A0187E59FE06A
:10068000A0E0B0E089839A83AB83BC83A30192018D
:10069000C301B2010E94011A24E932E040E050E0B7
:1006A0000E94251AC301B2010E94011A28EB35E00D
:1006B00040E050E00E94251A49015A01ABEAB7E038
:1006C000A30192010E944A1A20E73EEF4FEF5FEF2D
:1006D0000E94251A820E931EA41EB51E89819A813E
:1006E000AB81BC81880E991EAA1EBB1EC501B40138
:1006F00027E530E040E050E00E94251AF7FE07C0F1
:1007000050954095309521953F4F4F4F5F4FCA010F
:10071000B9010E94BB182091000130910101409164
:100720000201509103010E949B1920E030E044E354
:1007300053E40E9420180E948818CB010F900F905C
:100740000F900F90DF91CF91FF90EF90DF90CF90BF
:10075000BF90AF909F908F907F906F905F904F90E1
:1007600008958F929F92AF92BF92CF92DF92EF92B5
:10077000FF924B015C01A8EEB3E09B01AC010E942B
:100780004A1A2DE230E040E050E00E94251A69014B
:100790007A01A5019401C501B4010E94011A9B01CF
:1007A000AC01AAE0B0E00E944A1AB7FE05C021E5FC
:1007B00030E040E050E004C02FEA3FEF4FEF5FEF42
:1007C0000E94251AC20ED31EE41EF51EA701960133
:1007D000C701B6010E94011A9B01AC01F7FE05C0DA
:1007E000A7EFBFEF0E94581A04C0A9E0B0E00E9432
:1007F0004A1A28EE33E040E050E00E94251A4901F1
:100800005A01A7EFBFEFA70196010E94581A860E62
:10081000971EA81EB91EC501B40128E230E040E0D1
:1008200050E00E94251A2C0D3D1D4E1D5F1DCA0172
:10083000B9010E94BB182091000130910101409143
:100840000201509103010E949B1920E030E044E333
:1008500053E40E9420180E948818FF90EF90DF90C8
:10086000CF90BF90AF909F908F9008958F929F925E
:10087000AF92BF92CF92DF92EF92FF920F931F93AE
:10088000CF93DF930E94BB186B017C018090000125
:1008900090900101A0900201B090030120E030E0AF
:1008A00040E05FE3C501B4010E949B198B01D82F82
:1008B000C92F9B01482F592FC701B6010E949019DB
:1008C00018167CF420E030E040E450ECC501B4019F
:1008D0000E949B1920E030E040E05FE30E949B19FA
:1008E00003C0B8018D2F9C2F9B01AC01C701B6013D
:1008F0000E9456170E948818DF91CF911F910F9187
:10090000FF90EF90DF90CF90BF90AF909F908F902F
:100910000C94B1034F925F926F927F928F929F924D
:10092000AF92BF92CF92DF92EF92FF926B017C0168
:1009300029013A019B0177FF04C022273327261B98
:10094000370BC20157FE04C08827992784199509DF
:10095000280F391F4BE0429FC001439F900D112487
:100960006EE070E00E94111A4B01AA2497FCA0943B
:10097000BA2CA7019601C701B6010E94011A6B01AA
:100980007C01A3019201C301B2010E94011AC60EAB
:10099000D71EE81EF91E81149104A104B10429F4A4
:1009A00032E0832E912CA12CB12CC701B601A501F8
:1009B00094010E94251ACA01B901680D791D8A1D8A
:1009C0009B1D22E0822E912CA12CB12CA50194011B
:1009D0000E94251A29013A01C701B6010E94251A71
:1009E000CA01B901640D751D861D971DA5019401ED
:1009F0000E94251AC901FF90EF90DF90CF90BF9021
:100A0000AF909F908F907F906F905F904F900895E0
:100A10002F923F924F925F926F927F928F929F920E
:100A2000AF92BF92CF92DF92EF92FF920F931F93FC
:100A3000CF93DF93CDB7DEB72C970FB6F894DEBF18
:100A40000FBECDBFFB01B9011701481B590B9A011D
:100A5000442737FD4095542F6E1B7F0B882777FD69
:100A60008095982F0E94E4025C01C0900001D09014
:100A70000101E0900201F090030120E030E040E04D
:100A80005FE3C701B6010E949B192B013C01B50130
:100A9000882777FD8095982F0E94BB18A3019201AB
:100AA0000E9455174B015C01D701C601B0588983DC
:100AB0009A83AB83BC839C01AD01C501B4010E9444
:100AC0001C1887FD09C08092110190921201A0921A
:100AD0001301B092140114C0A7019601C701B60119
:100AE0000E9456179B01AC01C501B4010E94561724
:100AF000609311017093120180931301909314017C
:100B0000C101AA2797FDA095BA2F8D839E83AF833D
:100B1000B887C801AA2797FDA095BA2F89879A8719
:100B2000AB87BC872D813E814F815885BC01CD01AB
:100B30000E94E402919581959109BC01882777FD77
:100B40008095982F0E94BB18A30192010E9455170F
:100B50004B015C0129813A814B815C810E941C1808
:100B600087FF0EC0A7019601C701B6010E94561764
:100B70009B01AC01C501B4010E9456174B015C01F9
:100B80002D813E814F81588569857A858B859C852D
:100B90000E948A048C01A501940160911101709159
:100BA000120180911301909114010E9455172B019D
:100BB0003C01B801882777FD8095982F0E94BB18CB
:100BC0004B015C01B7FAB094B7F8B094A701960155
:100BD000C301B2010E9455170E9488186B017C0165
:100BE0000E9436040E94BB189B01AC01C501B401F0
:100BF0000E949B190E948818709318016093170136
:100C0000C701B6010E94B1030E94BB189B01AC0151
:100C1000C501B4010E949B190E94881870931601A7
:100C2000609315012C960FB6F894DEBF0FBECDBFB2
:100C3000DF91CF911F910F91FF90EF90DF90CF90B8
:100C4000BF90AF909F908F907F906F905F904F90EC
:100C50003F902F9008952F923F924F925F926F9204
:100C60007F928F929F92AF92BF92CF92DF92EF923C
:100C7000FF920F931F93CF93DF93CDB7DEB76097AB
:100C80000FB6F894DEBF0FBECDBF1C017A8769870F
:100C9000FC01A281B38120813181AD01421B530B44
:100CA000FB010280F381E02DFE83ED83FB01C08018
:100CB000D1808D819E818C199D09449F4001459F63
:100CC000900C900C1124889FA001899F500D500D0D
:100CD0001124840E951EAA2497FCA094BA2CF1012D
:100CE000448155817A01E21AF30AFB010480F581FF
:100CF000E02DFC87EB878F010C191D09EE9CB001DC
:100D0000EF9C700D700D1124009F7001019FF00C7D
:100D1000F00C11246E0D7F1D2B01662457FC60948E
:100D2000762CF101668177817B01E21AF30AE9856D
:100D3000FA852681378189010C191D09EE9CC001B5
:100D4000EF9C900D900D1124009F7001019FF00CFD
:100D5000F00C11248E0D9F1D7C010027F7FC0095DF
:100D6000102FE982FA820B831C837A01EA1AFB0AAC
:100D70000B851C858D819E81081B190BEE9C6001E3
:100D8000EF9CD00CD00C1124009F7001019FF00C3F
:100D9000F00C1124CE0CDF1CEE24D7FCE094FE2CCA
:100DA000FB01EA1BFB0BC9010D811E81801B910B0E
:100DB000EE9F8001EF9F100D100D1124889FD00130
:100DC000899FB00DB00D11240A0F1B1FC801AA275F
:100DD00097FDA095BA2F8D839E83AF83B887641B40
:100DE000750BAB85BC852A1B3B0B669FC001679FBB
:100DF000900D900D1124229FA001239F500D500DA6
:100E00001124840F951F8C01222717FD2095322F66
:100E10000D871E872F87388BF42DE52D962D872D76
:100E2000481459046A047B0424F4F82DE92D9A2D02
:100E30008B2D4F2F5E2F692F782F89819A81AB815F
:100E4000BC81481759076A077B0714F4AC01BD0140
:100E50004C155D056E057F0514F4B701A6010D81E3
:100E60001E812F813885401751076207730714F4DC
:100E7000B901A8018D859E85AF85B88948175907A6
:100E80006A077B0714F4AC01BD01942D852DF62D66
:100E9000E72D84149504A604B70424F4982D892D15
:100EA000FA2DEB2D092F182F2F2F3E2F89819A8194
:100EB000AB81BC8180179107A207B30714F48C01A2
:100EC0009D01D901C801C016D106E206F30614F44B
:100ED000D701C6018C019D018D819E81AF81B885AE
:100EE00080179107A207B30714F48C019D01D90163
:100EF000C8010D851E852F853889081719072A070F
:100F00003B0714F4D901C801481559056A057B054A
:100F1000A1F484159505A605B70519F421E030E084
:100F200091C029813A814B815C8182179307A40784
:100F3000B507A1F320E030E03EC044155505660535
:100F40007705A1F488159905AA05BB0519F422E0D7
:100F500030E078C0E980FA800B811C818E159F05F6
:100F6000A007B107A1F320E030E05DC009811A813C
:100F70002B813C81401751076207730781F4841568
:100F80009505A605B70519F423E030E05BC0881588
:100F90009905AA05BB05C1F320E030E04EC04C1511
:100FA0005D056E057F05B1F488159905AA05BB0599
:100FB00029F422E030E081E090E046C02D813E81BE
:100FC0004F81588582179307A407B50791F321E055
:100FD00030E029C00D811E812F81388540175107CF
:100FE0006207730781F488159905AA05BB0519F4F2
:100FF00023E030E0E0CF8C159D05AE05BF05C1F3C1
:1010000021E030E01AC00D851E852F8538894017F4
:10101000510762077307A1F484159505A605B70566
:1010200029F423E030E082E090E00EC08C159D05AD
:10103000AE05BF05B1F322E030E083E090E004C0EC
:1010400020E030E080E090E0BC01660F771FF10106
:10105000E60FF71F80819181220F331FF101E20F0C
:10106000F31F40815181E985FA85E60FF71F608102
:101070007181E985FA85E20FF31F208131817B01BF
:10108000E20EF31EF7FE03C01FEFE11AF10AF5941A
:10109000E7948C01040F151F17FF02C00F5F1F4F4D
:1010A000159507950E94080560960FB6F894DEBF67
:1010B0000FBECDBFDF91CF911F910F91FF90EF90A9
:1010C000DF90CF90BF90AF909F908F907F906F9068
:1010D0005F904F903F902F9008952F923F924F92A4
:1010E0005F926F927F928F929F92AF92BF92CF92B8
:1010F000DF92EF92FF920F931F93CF93DF93CDB7C1
:10110000DEB762970FB6F894DEBF0FBECDBF9A87E9
:1011100089871B01DC0112966D907C901397ED91ED
:10112000FC91F88BEF87B3016E1B7F0B882777FD4F
:101130008095982F0E94BB184B015C01D10112963B
:101140000D911C911397ED91FC91FA8BE98BB801ED
:101150006E1B7F0B882777FD8095982F0E94BB1808
:101160006B017C01A5019401C501B4010E949B198A
:101170004B015C01A7019601C701B6010E949B19B2
:101180009B01AC01C501B4010E9456170E9488184A
:1011900069837A838B839C83A985BA8514964D9045
:1011A0005C901597C201EF85F8898E1B9F0BBC01DF
:1011B000882777FD8095982F0E94BB184B015C0112
:1011C000D10114960D90BC91A02DBE83AD83CD01AD
:1011D000E989FA898E1B9F0BBC01882777FD8095D2
:1011E000982F0E94BB186B017C01A5019401C501D9
:1011F000B4010E949B194B015C01A7019601C70134
:10120000B6010E949B199B01AC01C501B4010E946B
:1012100056170E9488186B017C01B2016619770984
:10122000882777FD8095982F0E94BB182B013C01E1
:101230006D817E81601B710B882777FD8095982FCB
:101240000E94BB184B015C01A3019201C301B201D2
:101250000E949B192B013C01A5019401C501B40119
:101260000E949B199B01AC01C301B2010E94561759
:101270000E9488186D837E838F8398873C2D2D2D47
:101280009E2D8F2D49815A816B817C81C416D50694
:10129000E606F70624F439812A819B818C81832E0E
:1012A000922EA92EB82E6D817E818F81988586160B
:1012B0009706A806B90614F44B015C013C2D2D2DB0
:1012C0009E2D8F2D49815A816B817C814C155D0546
:1012D0006E057F0524F439812A819B818C81432E00
:1012E000522E692E782E6D817E818F8198856415AE
:1012F00075058605970514F42B013C01C501B40161
:101300000E94BB186B877C878D879E87C301B201C3
:101310000E94BB189B01AC016B857C858D859E85E9
:101320000E9420186B877C878D879E8720E030E0A5
:1013300040E050E40E941C1887FF3DC189819A81DA
:10134000AB81BC8188169906AA06BB0651F44C14E1
:101350005D046E047F0489F51A82198281E090E0B1
:1013600032C08C149D04AE04BF0471F429813A810B
:101370004B815C81421653066406750639F51A8264
:10138000198282E090E028C04D815E816F8178856E
:1013900084169506A606B70611F569817A818B81B8
:1013A0009C814616570668067906F1F481E090E0C4
:1013B0009A83898382E090E01DC0A1E0B0E0BA8307
:1013C000A98380E090E002E010E016C0E2E0F0E0E7
:1013D000FA83E98380E090E001E010E00DC01A821A
:1013E000198280E090E006C022E030E03A83298351
:1013F00081E090E000E010E07C01EE0CFF1CE9854C
:10140000FA85EE0DFF1DC080D180000F111FB601BF
:10141000882777FD8095982F0E94BB184B015C01AF
:10142000E985FA85E00FF11F80819181B601681B83
:10143000790B882777FD8095982F0E94BB1822EAA8
:1014400035E446E05FE30E949B199B01AC01C501B6
:10145000B4010E9456170E9488184B015C01F101EB
:10146000EE0DFF1DE080F180B701882777FD8095A4
:10147000982F0E94BB182B013C01F101E00FF11FD6
:1014800080819181B701681B790B882777FD809552
:10149000982F0E94BB1822EA35E446E05FE30E94E1
:1014A0009B199B01AC01C301B2010E9456170E9417
:1014B00088186D837E838F83988709811A81000F36
:1014C000111FE985FA85E00FF11F408151815A8390
:1014D0004983B401882777FD8095982F0E94BB1817
:1014E0006B017C01A981BA81BD01882777FD8095B8
:1014F000982F0E94BB182B013C0169817A816819E1
:101500007909882777FD8095982F0E94BB1828EAD3
:1015100036EC4BE85EE30E949B199B01AC01C301D2
:10152000B2010E9456179B01AC01C701B6010E948F
:1015300055170E9488184B015C01F801E20DF31D5C
:1015400020803180ED81FE81BF01882777FD809565
:10155000982F0E94BB186B017C01B101882777FD91
:101560008095982F0E94BB182B013C01B1012D8161
:101570003E81621B730B882777FD8095982F0E9410
:10158000BB1828EA36EC4BE85EE30E949B199B01EE
:10159000AC01C301B2010E9456179B01AC01C70107
:1015A000B6010E9455170E9488187B0184019101A1
:1015B00049815A817AC120E030E040E850E46B85EF
:1015C0007C858D859E850E94901918162CF5498181
:1015D0005A816B817C8184169506A606B70609F4AC
:1015E0006CC18C149D04AE04BF0459F469817A81E6
:1015F0008B819C81461657066806790609F08AC1D8
:1016000072C18D819E81AF81B88588169906AA0620
:10161000BB0609F084C173C12DEC3CEC4CE450E4F2
:101620006B857C858D859E850E941C1829813A8159
:101630004B815C8187FF3CC182169306A406B506E8
:1016400061F44C145D046E047F04A9F580E090E021
:1016500042E050E05E834D8347C08C149D04AE048D
:10166000BF0481F469817A818B819C81461657067B
:101670006806790639F580E090E0A1E0B0E0BE832D
:10168000AD8316C02D813E814F8158858216930609
:10169000A406B506F1F449815A816B817C81441618
:1016A000550666067706E1F481E090E01E821D8211
:1016B00002E010E01BC081E090E062E070E07E8319
:1016C0006D830BC082E090E0A1E0B0E0BE83AD830B
:1016D00004C080E090E01E821D8200E010E006C0A1
:1016E00082E090E01E821D8201E010E05C01AA0C05
:1016F000BB1CE985FA85EA0DFB1D80809180000FF7
:10170000111FB401882777FD8095982F0E94BB1880
:101710006B017C01E985FA85E00FF11F80819181E1
:10172000881A990AB401882777FD8095982F0E941E
:10173000BB1822EA35E446E05FE30E949B199B0157
:10174000AC01C701B6010E9456170E9488186B01B0
:101750007C01F101EA0DFB1DA080B180B501882755
:1017600077FD8095982F0E94BB182B013C01F10159
:10177000E00FF11F80819181A81AB90AB50188276D
:1017800077FD8095982F0E94BB1822EA35E446E049
:101790005FE30E949B199B01AC01C301B2010E944F
:1017A00056170E94881869837A838B839C830D81E6
:1017B0001E81000F111FE985FA85E00FF11F2081BE
:1017C00031813E832D83B601882777FD8095982F40
:1017D0000E94BB184B015C014D815E81BA018827D4
:1017E00077FD8095982F0E94BB182B013C016D81DD
:1017F0007E816C197D09882777FD8095982F0E943E
:10180000BB182FED3FE44DEC5FE30E949B199B0159
:10181000AC01C301B2010E9456179B01AC01C50186
:10182000B4010E9455170E9488184B015C01F10118
:10183000E00FF11F00811181A981BA81BD018827C4
:1018400077FD8095982F0E94BB186B017C01B80131
:10185000882777FD8095982F0E94BB182B013C01AB
:10186000B801E981FA816E1B7F0B882777FD80958F
:10187000982F0E94BB182FED3FE44DEC5FE30E94D0
:101880009B199B01AC01C301B2010E9456179B0139
:10189000AC01C701B6010E9455170E9488187B0150
:1018A000840129893A894F855889B401C4016EC0E1
:1018B00082169306A406B50641F44C145D046E042A
:1018C0007F0429F521E030E02CC08C149D04AE0487
:1018D000BF0461F449815A816B817C8144165506AD
:1018E00066067706B9F422E030E01BC06D817E8188
:1018F0008F81988586169706A806B90681F44C1440
:101900005D046E047F0481F421E030E005C020E036
:1019100030E00CC020E030E082E090E009C020E040
:1019200030E080E090E004C022E030E081E090E030
:10193000BC01660F771FE985FA85E60FF71F8081E6
:101940009181220F331FE985FA85E20FF31F408151
:101950005181F101E60FF71F60817181F101E20F02
:10196000F31F208131817B01E20EF31EF7FE03C0DD
:10197000AFEFEA1AFA0AF594E7948C01040F151FE9
:1019800017FF02C00F5F1F4F159507950E940805AE
:1019900062960FB6F894DEBF0FBECDBFDF91CF9138
:1019A0001F910F91FF90EF90DF90CF90BF90AF907D
:1019B0009F908F907F906F905F904F903F902F906F
:1019C0000895CF93DF93CDB7DEB760970FB6F89445
:1019D000DEBF0FBECDBFECE1F1E080E090E04081E2
:1019E00051814F3F23E05207D1F0228133812F3FB5
:1019F00063E03607A1F0DC01AA0FBB1F61E070E0D5
:101A00006C0F7D1FA60FB71F4751524019965C936C
:101A10004E931897225731402D933C93019636965A
:101A200071E0E433F707D9F68430910541F4BE0143
:101A30006F5F7F4FCE0109960E942B0609C0039766
:101A400039F4BE016F5F7F4FCE0109960E946D0889
:101A500060960FB6F894DEBF0FBECDBFDF91CF9179
:101A600008958CE191E00E94E61580931B0181119D
:101A70000E94E10C80911B010895589A599A5A9A34
:101A80008CE08093B800E9E6F0E08081806280839A
:101A900080818F7E8083EA9A7894089584E8809389
:101AA000BC008091BC0087FFFCCF8091BB000895F3
:101AB00084E98093BC00089520E030E08091BC0070
:101AC00087FD06C02F5F3F4F293E83E03807B1F7FF
:101AD00081E0283E334009F480E008958093BB0004
:101AE00084E88093BC000E945C0D882321F08091E3
:101AF000B900887F089580E008951F93CF93DF9306
:101B00001F92CDB7DEB7182F84EA8093BC0069839B
:101B10000E945C0D6981811104C094E99093BC001E
:101B200014C0812F880F662331F08F5F0E946E0DE5
:101B3000883451F404C00E946E0D803229F484E987
:101B40008093BC0080E001C081E00F90DF91CF91D5
:101B50001F910895CF93DF93C82FD62F60E00E9486
:101B60007D0D882391F08D2F0E946E0D882369F0E2
:101B700084E98093BC0061E08C2F0E947D0D882356
:101B800021F0DF91CF910C944E0D80E0DF91CF9149
:101B90000895CF93DF93D62FC42F60E00E947D0D70
:101BA000811102C080E00EC08D2F0E946E0D88232F
:101BB000C9F38C2F0E946E0D8823A1F384E98093D2
:101BC000BC0081E0DF91CF910895CF93DF9300D0E7
:101BD0001F92CDB7DEB74B836A8389830E943D0D88
:101BE00094EA9093BC0089816A814B819091BC00FA
:101BF00097FFFCCF90E59093BB0094E89093BC00D6
:101C00009091BC0097FFFCCF9091B900987F9032E3
:101C100029F484E98093BC0080E029C091E090938E
:101C2000BB0094E89093BC009091BC0097FFFCCF60
:101C30008093BB0084E88093BC008091BC0087FF48
:101C4000FCCF6093BB0084E88093BC008091BC0013
:101C500087FFFCCF4093BB0084E88093BC00809159
:101C6000BC0087FFFCCF84E98093BC0081E00F902B
:101C70000F900F90DF91CF91089524EA2093BC003C
:101C80002091BC0027FFFCCF21E52093BB0024E876
:101C90002093BC002091BC0027FFFCCF2091B9000D
:101CA000287F2834A9F024EC2093BC002091BC00AC
:101CB00027FFFCCF2091BB0026130AC0FC0120E0C7
:101CC00030E0772767FD70956150710944EC0EC0D4
:101CD00084E98093BC0080E008955091BC0057FFD8
:101CE000FCCF5091BB0051932F5F3F4F2617370712
:101CF0001CF44093BC00F1CF44E84093BC004091F9
:101D0000BC0047FFFCCF4091BB00FC01E20FF31F7A
:101D1000408384E98093BC0081E00895F89494EABC
:101D20009093BC009091BC0097FFFCCF90E59093FE
:101D3000BB0094E89093BC009091BC0097FFFCCF4F
:101D40009091B900987F903231F484E98093BC007F
:101D5000789480E0089593E09093BB0094E890938A
:101D6000BC009091BC0097FFFCCF8093BB0084E83F
:101D70008093BC008091BC0087FFFCCFFB015527FE
:101D800047FD509524E8CF01861B970B84179507D4
:101D900054F481918093BB002093BC008091BC00DF
:101DA00087FFFCCFF0CF84E98093BC00789481E07A
:101DB00008958091E80080FFFCCF089581E0809332
:101DC000D70080EA8093D80082E189BD09B400FE83
:101DD000FDCF80E98093D8001092E00010921001AE
:101DE00010920D018CE08093E20078940895809128
:101DF000100108959FB7F89480911001882339F05D
:101E000083E08093E9008091E80085FD03C09FBFD7
:101E10008FEF08958091F1002091E80025FD03C027
:101E20002BE62093E8009FBF08959FB7F894809118
:101E30001001882331F083E08093E9008091F20063
:101E400001C080E09FBF089580911001882371F048
:101E50008FB7F89493E09093E9002BE69091E80017
:101E600095FF03C02093E800F9CF8FBF08959091AC
:101E70001001992371F09FB7F89424E02093E900B2
:101E800020910E01222349F02091E80025FD03C096
:101E90009FBF8FEF089510920E012091E400275EFE
:101EA00034E04091E80045FD12C09FBF9091E400EE
:101EB000921304C081E080930E01EBCF909110014A
:101EC000992339F39FB7F8943093E900EACF8093D0
:101ED000F1008091E80085FD03C08AE38093E8006B
:101EE00085E080930F019FBF80E0089590911001DD
:101EF0009923D1F09FB7F89424E02093E900209132
:101F0000E80025FD02C09FBF0FC08093F1008091C3
:101F1000E80085FD03C08AE38093E80085E08093B4
:101F20000F019FBF80E008958FEF0895EF92FF9219
:101F30001F93CF93DF937C01CB01209110012223CB
:101F400071F0AFB7F89424E02093E90020910E01DE
:101F5000222349F02091E80025FD03C0AFBF8FEF99
:101F600042C210920E01B4E0C0E4DAE315E000973B
:101F700009F437C22091E400275E3091E80035FD76
:101F800012C0AFBF3091E400321304C081E08093EF
:101F90000E01E5CF30911001332309F3AFB7F89468
:101FA000B093E900EACF2091F2004C2F421B242F7E
:101FB00030E08217930708F4482F841B910950E002
:101FC0004134510508F0FDC14A5A5F4FFA010C94A3
:101FD000441AF70120812093F10097012F5F3F4FB2
:101FE0007901F70120812093F10097012F5F3F4F86
:101FF0007901F70120812093F10097012F5F3F4F76
:102000007901F70120812093F10097012F5F3F4F65
:102010007901F70120812093F10097012F5F3F4F55
:102020007901F70120812093F10097012F5F3F4F45
:102030007901F70120812093F10097012F5F3F4F35
:102040007901F70120812093F10097012F5F3F4F25
:102050007901F70120812093F10097012F5F3F4F15
:102060007901F70120812093F10097012F5F3F4F05
:102070007901F70120812093F10097012F5F3F4FF5
:102080007901F70120812093F10097012F5F3F4FE5
:102090007901F70120812093F10097012F5F3F4FD5
:1020A0007901F70120812093F10097012F5F3F4FC5
:1020B0007901F70120812093F10097012F5F3F4FB5
:1020C0007901F70120812093F10097012F5F3F4FA5
:1020D0007901F70120812093F10097012F5F3F4F95
:1020E0007901F70120812093F10097012F5F3F4F85
:1020F0007901F70120812093F10097012F5F3F4F75
:102100007901F70120812093F10097012F5F3F4F64
:102110007901F70120812093F10097012F5F3F4F54
:102120007901F70120812093F10097012F5F3F4F44
:102130007901F70120812093F10097012F5F3F4F34
:102140007901F70120812093F10097012F5F3F4F24
:102150007901F70120812093F10097012F5F3F4F14
:102160007901F70120812093F10097012F5F3F4F04
:102170007901F70120812093F10097012F5F3F4FF4
:102180007901F70120812093F10097012F5F3F4FE4
:102190007901F70120812093F10097012F5F3F4FD4
:1021A0007901F70120812093F10097012F5F3F4FC4
:1021B0007901F70120812093F10097012F5F3F4FB4
:1021C0007901F70120812093F10097012F5F3F4FA4
:1021D0007901F70120812093F10097012F5F3F4F94
:1021E0007901F70120812093F10097012F5F3F4F84
:1021F0007901F70120812093F10097012F5F3F4F74
:102200007901F70120812093F10097012F5F3F4F63
:102210007901F70120812093F10097012F5F3F4F53
:102220007901F70120812093F10097012F5F3F4F43
:102230007901F70120812093F10097012F5F3F4F33
:102240007901F70120812093F10097012F5F3F4F23
:102250007901F70120812093F10097012F5F3F4F13
:102260007901F70120812093F10097012F5F3F4F03
:102270007901F70120812093F10097012F5F3F4FF3
:102280007901F70120812093F10097012F5F3F4FE3
:102290007901F70120812093F10097012F5F3F4FD3
:1022A0007901F70120812093F10097012F5F3F4FC3
:1022B0007901F70120812093F10097012F5F3F4FB3
:1022C0007901F70120812093F10097012F5F3F4FA3
:1022D0007901F70120812093F10097012F5F3F4F93
:1022E0007901F70120812093F10097012F5F3F4F83
:1022F0007901F70120812093F10097012F5F3F4F73
:102300007901F70120812093F10097012F5F3F4F62
:102310007901F70120812093F10097012F5F3F4F52
:102320007901F70120812093F10097012F5F3F4F42
:102330007901F70120812093F10097012F5F3F4F32
:102340007901F70120812093F10097012F5F3F4F22
:102350007901F70120812093F10097012F5F3F4F12
:102360007901F70120812093F10097012F5F3F4F02
:102370007901F70120812093F10097012F5F3F4FF2
:102380007901F70120812093F10097012F5F3F4FE2
:102390007901F70120812093F10097012F5F3F4FD2
:1023A0007901F70120812093F10097012F5F3F4FC2
:1023B0007901F70120812093F10097012F5F3F4FB2
:1023C0007901F70120812093F10097012F5F3F4FA2
:1023D00079012091E80025FFD093E80010930F01C8
:1023E000C6CDAFBF80E0DF91CF911F91FF90EF90FE
:1023F00008958FB7F89490910F01992341F094E0DC
:102400009093E9009AE39093E80010920F018FBF38
:10241000089580910801089580910901089580919F
:102420000A01089580910D0108959FB7F8942091B5
:102430001001222339F022E02093E9003091E800D6
:1024400035FD03C09FBF8FEF089531EA3093F1004F
:1024500030E23093F1001092F1001092F1001092EE
:10246000F1001092F1002093F1001092F10080939E
:10247000F1001092F1008AE38093E8009FBF80E0B2
:1024800008951F920F920FB60F9211248F939F936E
:102490008091E1001092E10083FF11C01092E900E9
:1024A00091E09093EB001092EC0092E19093ED009C
:1024B00098E09093F0001092100110920D0182FFAD
:1024C00013C080911001882379F080910F01882337
:1024D00059F0815080930F01811106C084E08093F0
:1024E000E9008AE38093E8009F918F910F900FBEDF
:1024F0000F901F9018951F920F920FB60F921124F4
:10250000EF92FF920F931F932F933F934F935F93FD
:102510006F937F938F939F93AF93BF93EF93FF93AB
:10252000CF93DF931F92CDB7DEB71092E900809171
:10253000E80083FF14C19091F1008091F100309187
:10254000F1002091F100E32EF12CF22A0091F1002C
:102550002091F10010E0122B2091F1006091F10028
:1025600032EF3093E800863009F046C036E082E76B
:1025700091E0FC01459154914E155F0539F4FC0141
:102580003296459154914017510721F007963150EA
:1025900081F7E5C0FC01349645915491FC013696D3
:1025A000849130E0362B2F3F310519F010F02FEFDA
:1025B00030E0281708F4822F3EEF9091E800292F91
:1025C0002570D9F392FDCEC0982F813108F090E1AB
:1025D000FA01292F222331F064916093F1002150F8
:1025E0003196F8CF490F511D891B3093E8008111B6
:1025F000E4CF903111F3B6C0853051F48EEF809363
:10260000E8000E94D90E8E2D80688093E300AAC056
:10261000893059F5911180C0E092100110920D019E
:1026200010920F018EEF8093E80041E08BE192E081
:102630004093E9009C012F5F3F4FFC015491509360
:10264000EB00552359F0F90124912093EC009C01F3
:102650002D5F3F4F319684918093ED004F5F453061
:1026600011F0C901E5CF8EE175C0883051F4903882
:1026700009F052C00E94D90E809110018093F100A0
:1026800047C0813279F4913A09F046C00E94D90ED0
:10269000E4E0F1E081918093F10081E0EB30F80714
:1026A000C9F736C0803299F49132B1F58091E800D3
:1026B00082FFFCCFE4E0F1E08091F100819381E0C2
:1026C000EB30F807C9F78BEF8093E80021C0823226
:1026D00041F4913209F043C0E0920D010E94D90EFD
:1026E00017C0811119C099830E94D90E998192381F
:1026F00051F40093E9008091EB0085FB882780F975
:102700001092E90001C080E08093F1001092F10086
:102710008EEF8093E80026C0282F2D7F2130F9F41A
:102720009230E9F4EF28D9F40F779FEF900F9430AF
:10273000B0F49EEF9093E8000093E900833079F0C5
:1027400089E18093EB0081E090E0002E01C0880FCA
:102750000A94EAF78093EA001092EA0003C081E24B
:102760008093EB000F90DF91CF91FF91EF91BF919C
:10277000AF919F918F917F916F915F914F913F9119
:102780002F911F910F91FF90EF900F900FBE0F9020
:102790001F9018951F93CF93DF93EC01FE011491C6
:1027A000112351F01A3019F48DE00E94370F812F58
:1027B0000E94370F2196F2CFDF91CF911F9108959C
:1027C0008A3010F490E301C097E3890F0C94370F1F
:1027D000CF93C82F82958F700E94E0138C2F8F703B
:1027E000CF910C94E013CF93C82F892F0E94E81348
:1027F0008C2FCF910C94E8130C94E813EF92FF9276
:102800000F931F93CF93DF93CDB7DEB727970FB604
:10281000F894DEBF0FBECDBF8E010F5F1F4F27E0C4
:10282000F80111922A95E9F74AE0B8010E94A21A2C
:102830007E01F8E0EF0EF11CF80181918F0181110A
:102840000E94370F0E151F05B9F727960FB6F8949B
:10285000DEBF0FBECDBFDF91CF911F910F91FF90D3
:10286000EF900895EF92FF920F931F93CF93DF9312
:1028700000D000D000D0CDB7DEB78E010F5F1F4F64
:1028800026E0F80111922A95E9F74AE0B8010E9482
:10289000DE1A7E01F6E0EF0EF11CF80181918F0146
:1028A00081110E94370F0E151F05B9F726960FB636
:1028B000F894DEBF0FBECDBFDF91CF911F910F9176
:1028C000FF90EF900895EF92FF920F931F93CF9395
:1028D000DF93CDB7DEB72B970FB6F894DEBF0FBEF0
:1028E000CDBF8E010F5F1F4F2BE0F80111922A958B
:1028F000E9F72AE0A8010E94AD1A7E01FCE0EF0E84
:10290000F11CF80181918F0181110E94370F0E1582
:102910001F05B9F72B960FB6F894DEBF0FBECDBFDB
:10292000DF91CF911F910F91FF90EF900895EF925B
:10293000FF920F931F93CF93DF93CDB7DEB72B9703
:102940000FB6F894DEBF0FBECDBF8E010F5F1F4FD5
:102950002BE0F80111922A95E9F72AE0A8010E94DC
:10296000BC1A7E01FBE0EF0EF11CF80181918F0192
:1029700081110E94370F0E151F05B9F72B960FB660
:10298000F894DEBF0FBECDBFDF91CF911F910F91A5
:10299000FF90EF90089520E030E08091BC0087FD2B
:1029A00006C02F5F3F4F293E83E03807B1F781E033
:1029B000283E334009F480E008958093BB0084E80A
:1029C0008093BC000E94CB14882319F08091B90039
:1029D000887F0895CF93C82F84EA8093BC000E941B
:1029E000CB14882361F08C2F880F0E94DD14803275
:1029F00029F484E98093BC0080E001C081E0CF919C
:102A000008950E943D0D88E50E94EA14811102C0DC
:102A100080E0089580E30E94DD148823C9F381E0FB
:102A20000E94DD148823A1F384E98093BC008FE326
:102A30009CE90197F1F700C0000088E50E94EA14C4
:102A4000882331F380E00E94DD14882309F380E0BD
:102A50000E94DD148823E1F280E00E94DD148823C7
:102A6000B9F280E00E94DD14882391F280E00E9498
:102A7000DD14882369F280E00E94DD14882341F28E
:102A800080E00E94DD14882319F280E90E94DD14A1
:102A9000882309F4BDCF84E98093BC008FE39CE9CF
:102AA0000197F1F700C0000088E50E94EA1488232E
:102AB00009F4AECF87E00E94DD14882309F4A8CF83
:102AC00080E00E94DD14882309F4A2CF81E40E94F3
:102AD000DD14882309F49CCF84E98093BC008FE344
:102AE0009CE90197F1F700C0000088E50E94EA1414
:102AF000882309F48DCF8AE10E94DD14882309F42C
:102B000087CF80E40E94DD14882309F481CF80E020
:102B10000E94DD14882309F47BCF84E98093BC00F4
:102B20008FE39CE90197F1F700C0000088E50E945F
:102B3000EA14882309F46CCF83E30E94DD14882310
:102B400009F466CF83E00E94DD14882309F460CF86
:102B500084E98093BC008FE39CE90197F1F700C002
:102B6000000088E50E94EA14882309F451CF80E32D
:102B70000E94DD14882309F44BCF88E00E94DD1405
:102B8000882309F445CF84E98093BC008FE39CE956
:102B90000197F1F700C0000081E00895CF93C82F9E
:102BA00084EA8093BC000E94CB14882369F08C2FA8
:102BB000880F8F5F0E94DD14883429F484E98093A4
:102BC000BC0080E001C081E0CF910895EF92FF92B8
:102BD0000F931F93CF93DF93CDB7DEB760970FB6F8
:102BE000F894DEBF0FBECDBF7C018E010F5F1F4F7B
:102BF00080E1F80111928A95E9F788E50E94EA14CC
:102C0000811102C080E05EC086E30E94DD1488234B
:102C1000C9F384E98093BC00F5E8FA95F1F7000068
:102C200088E50E94CE15882369F3F8019E01205F94
:102C30003F4F94EC9093BC008091BC0087FFFCCF89
:102C40008091BB008193E217F307A1F784E880939A
:102C5000BC008091BC0087FFFCCF8091BB00888BBB
:102C600084E98093BC00DE01149687016C91762F75
:102C70007073AD0142505109FA01808190E0F0E19A
:102C80007F9F800D911D1124F80191838083762F01
:102C9000707C4F5F5F4FFA01808190E0F4E07F9F8E
:102CA000800D911D1124F801938382836F70862F0C
:102CB00090E09583848313960A5F1F4FA217B30792
:102CC000A9F681E060960FB6F894DEBF0FBECDBFC7
:102CD000DF91CF911F910F91FF90EF90089584E9BC
:102CE0008093BC0008958091340190E0FC01E05A8B
:102CF000F109E730F10508F048C0E956FF4F0C94A0
:102D0000441A0E94310D0E94D102813061F4469A2A
:102D10002FEF83ED90E3215080409040E1F700C019
:102D20000000469808950E94D102823071F5479ABA
:102D30002FEF83ED90E3215080409040E1F700C0F9
:102D40000000479808950E94310D0E94D1029927F2
:102D500087FD909590933F0180933E0181309105CE
:102D600011F4469A03C0029709F4479A81E08093D0
:102D70000B0108958091350180931A0180913601ED
:102D800080931901089510920B0108951F920F92DC
:102D90000FB60F92112428982D982E980F900FBEE1
:102DA0000F901F9018951F920F920FB60F9211243B
:102DB000289A2D9A2E9A0F900FBE0F901F9018955B
:102DC0001F920F920FB60F9211242F933F934F93A0
:102DD0005F936F937F938F939F93AF93BF93EF9383
:102DE000FF936AE084E391E00E943D0E0E94731617
:102DF000FF91EF91BF91AF919F918F917F916F91D3
:102E00005F914F913F912F910F900FBE0F901F90A8
:102E100018951F920F920FB60F9211242F933F9384
:102E20004F935F936F937F938F939F93AF93BF93D2
:102E3000EF93FF930E94310DFF91EF91BF91AF91FE
:102E40009F918F917F916F915F914F913F912F91C2
:102E50000F900FBE0F901F9018950E94A7020E941E
:102E600032013E9A3F9A80E88093610085E080932A
:102E7000610080910B018823A9F00E94310D80919F
:102E8000170190911801892BA1F380911501909160
:102E90001601892B71F360E070E086E990E00E94F2
:102EA0004D01E7CF80E090E008955058BB27AA2756
:102EB0000ED0FCC1EDD130F0F2D120F031F49F3FC3
:102EC00011F41EF4BDC10EF4E095E7FBB3C1E92F88
:102ED000FED180F3BA17620773078407950718F0CD
:102EE00071F49EF516C20EF4E0950B2EBA2FA02DAC
:102EF0000B01B90190010C01CA01A0011124FF27A7
:102F0000591B99F0593F50F4503E68F11A16F040A1
:102F1000A22F232F342F4427585FF3CF46953795A0
:102F20002795A795F0405395C9F77EF41F16BA0B65
:102F3000620B730B840BBAF09150A1F0FF0FBB1F13
:102F4000661F771F881FC2F70EC0BA0F621F731F5C
:102F5000841F48F4879577956795B795F7959E3FB9
:102F600008F0B3CF9395880F08F09927EE0F979547
:102F7000879508958DD158F080E891E009F49EEF8F
:102F80008ED128F040E851E059F45EEF09C058C1F5
:102F9000C0C1E92FE0789BD168F3092E052AC1F35F
:102FA000261737074807590738F00E2E07F8E0258F
:102FB00069F0E025E0640AC0EF6307F8009407FABF
:102FC000DB01B9019D01DC01CA01AD01EF9347D0DE
:102FD0006DD10AD05F91552331F02BED3FE049E4EC
:102FE00050FD49EC63CF0895DF93DD27B92FBF77FC
:102FF00040E85FE31616170648075B0710F4D92F61
:1030000093D19F938F937F936F93F8D1ECE3F1E08B
:103010001AD14CD12F913F914F915F9198D1DD23DF
:1030200049F09058A2EA2AED3FE049EC5FE3D078FE
:103030005D274DDFDF913AC1D9D008F481E00895D2
:103040000CD034C12CD140F023D130F021F45F3FBB
:1030500019F0F0C051115EC1F3C039D198F3992332
:10306000C9F35523B1F3951B550BBB27AA2762174C
:103070007307840738F09F5F5F4F220F331F441F91
:10308000AA1FA9F333D00E2E3AF0E0E830D09150C9
:103090005040E695001CCAF729D0FE2F27D0660FB6
:1030A000771F881FBB1F261737074807AB07B0E8F5
:1030B00009F0BB0B802DBF01FF2793585F4F2AF00B
:1030C0009E3F510568F0B6C025C15F3FECF3983EC6
:1030D000DCF3869577956795B795F7959F5FC9F768
:1030E000880F911D9695879597F90895E1E0660FF1
:1030F000771F881FBB1F621773078407BA0720F06A
:10310000621B730B840BBA0BEE1F88F7E0950895D2
:1031100004D06894B111FEC00895E1D088F09F57A3
:1031200090F0B92F9927B751A0F0D1F0660F771F13
:10313000881F991F1AF0BA95C9F712C0B13081F0F3
:10314000E8D0B1E00895E5C0672F782F8827B85FF1
:1031500039F0B93FCCF3869577956795B395D9F754
:103160003EF490958095709561957F4F8F4F9F4F5E
:103170000895E89409C097FB3EF49095809570956A
:1031800061957F4F8F4F9F4F9923A9F0F92F96E9B3
:10319000BB279395F695879577956795B795F11128
:1031A000F8CFFAF4BB0F11F460FF1BC06F5F7F4FC5
:1031B0008F4F9F4F16C0882311F096E911C07723D7
:1031C00021F09EE8872F762F05C0662371F096E8E0
:1031D000862F70E060E02AF09A95660F771F881FAF
:1031E000DAF7880F9695879597F90895990F000853
:1031F000550FAA0BE0E8FEEF16161706E807F907C9
:10320000C0F012161306E407F50798F0621B730B63
:10321000840B950B39F40A2661F0232B242B252BE4
:1032200021F408950A2609F4A140A6958FEF811D87
:10323000811D089597F99F6780E870E060E0089528
:103240009FEF80EC0895DF93CF931F930F93FF922E
:10325000EF92DF927B018C01689405C0DA2EEF01BA
:1032600076D0FE01E894A59125913591459155912F
:10327000AEF3EF012CDEFE019701A801DA9479F795
:10328000DF90EF90FF900F911F91CF91DF91089504
:1032900000240A9416161706180609060895002435
:1032A0000A9412161306140605060895092E0394AF
:1032B000000C11F4882352F0BB0F40F4BF2B11F423
:1032C00060FF04C06F5F7F4F8F4F9F4F089557FD82
:1032D0009058440F551F59F05F3F71F04795880F84
:1032E00097FB991F61F09F3F79F08795089512161B
:1032F00013061406551FF2CF4695F1DF08C01616C7
:1033000017061806991FF1CF869571056105089477
:103310000895E894BB2766277727CB0197F908958E
:1033200065DF08F48FEF08959B01AC0160E070E069
:1033300080E89FE385CE0BD0B9CFAADF28F0AFDFBE
:1033400018F0952309F076CF7BCF1124E3CFBFDFB0
:10335000A0F3959FD1F3950F50E0551F629FF001A8
:10336000729FBB27F00DB11D639FAA27F00DB11D01
:10337000AA1F649F6627B00DA11D661F829F22278A
:10338000B00DA11D621F739FB00DA11D621F839F11
:10339000A00D611D221F749F3327A00D611D231FE7
:1033A000849F600D211D822F762F6A2F11249F5735
:1033B00050408AF0E1F088234AF0EE0FFF1FBB1F58
:1033C000661F771F881F91505040A9F79E3F5105F7
:1033D00070F030CF9FCF5F3FECF3983EDCF38695E3
:1033E00077956795B795F795E7959F5FC1F7FE2BA2
:1033F000880F911D9695879597F908959B01AC01CB
:103400009ACFDB018F939F930E944A1ABF91AF918D
:10341000A29F800D911DA39F900DB29F900D11242E
:10342000089597FB072E16F4009407D077FD09D076
:103430000E945D1A07FC05D03EF4909581959F4F40
:103440000895709561957F4F0895052E97FB1EF4A2
:1034500000940E943C1A57FD07D00E94711A07FC85
:1034600003D04EF40C943C1A50954095309521951C
:103470003F4F4F4F5F4F08959095809570956195A0
:103480007F4F8F4F9F4F0895EE0FFF1F0590F491D0
:10349000E02D09940E94931AA59F900DB49F900D62
:1034A000A49F800D911D11240895B7FF0C944A1A12
:1034B0000E944A1A821B930B0895AA1BBB1B51E161
:1034C00007C0AA1FBB1FA617B70710F0A61BB70B94
:1034D000881F991F5A95A9F780959095BC01CD0139
:1034E0000895A1E21A2EAA1BBB1BFD010DC0AA1F45
:1034F000BB1FEE1FFF1FA217B307E407F50720F05D
:10350000A21BB30BE40BF50B661F771F881F991FD7
:103510001A9469F760957095809590959B01AC0120
:10352000BD01CF010895A29FB001B39FC001A39F29
:10353000700D811D1124911DB29F700D811D1124EC
:10354000911D0895BB274A3031F4992322F4BDE23E
:10355000909581959F4F0C94DF1ABB272A3051F428
:10356000992342F4BDE290958095709561957F4FC7
:103570008F4F9F4F0C94BD1ABB27FA01A62F6217DD
:10358000710581059105330B30FB66F0AA27660FA4
:10359000771F881F991FAA1FA21710F0A21B6395FF
:1035A0003850A9F7A05DAA3308F0A95DA19336F7BA
:1035B000B111B1931082CA010C94F81ABB27FB0118
:1035C0005527AA27880F991FAA1FA41710F0A41B1C
:1035D00083955051B9F7A05DAA3308F0A95DA19376
:1035E000009779F7B111B1931192CB010C94F81AAD
:1035F000DC01FC01672F71917723E1F7329704C05A
:103600007C916D9370836291AE17BF07C8F30895E4
:04361000F894FFCF5C
:0C361400D00F494000E100000000080158
:00000001FF
