:100000000C944C010C9469010C9469010C94021C31
:100010000C9469010C9469010C9469010C946901B8
:100020000C9469010C9469010C941F170C945917D6
:100030000C9469010C9469010C9469010C94690198
:100040000C9469010C949E010C9469010C94690153
:100050000C9469010C9469010C9469010C94690178
:100060000C9469010C9469010C9469010C94690168
:100070000C9469010C948A1D0C9469010C9469011B
:100080000C9469010C9469010C9469010C94690148
:100090000C9469010C9469010C94E81B0C94F51BF9
:1000A0000C9469010C9469010C946901C716BF1680
:1000B000B716AF16A7169F1697168F1687167F16B8
:1000C00077166F1667165F1657164F1647163F16A8
:1000D00037162F1627161F1617160F160716FF1599
:1000E000F715EF15E715DF15D715CF15C715BF1590
:1000F000B715AF15A7159F1597158F1587157F1580
:1001000077156F1567155F1557154F1547153F156F
:1001100037152F1527151F1517150F150715FF1460
:10012000F714EF14E714DF14D714CF14C7145F1BB0
:100130008E1BAA1BB61BE31BE31BE11BCA1DCC1DB8
:10014000D31DDA1DE11DED1DF91D0A1E084AD73B1E
:100150003BCE016E84BCBFFDC12F3D6C74319ABD96
:1001600056833DDA3D00C77F11BED9E4BB4C3E91BA
:100170006BAAAABE000000803F05A84CCDB2D44EA9
:10018000B93836A9020C50B9918688083CA6AAAAAB
:100190002ABE000000803F00094F435234423A001B
:1001A000094F435234413A000A6677640000010067
:1001B000004402120002000001024300030000FD9F
:1001C000010401030904E9011202030904E1010623
:1001D00003030904D701080803340031003000008C
:1001E0000006034D003200000012034A002E0020DA
:1001F000004600690065006E006500000004030908
:100200000409024300020100C03209040000010297
:10021000020100052400100105240101010424024B
:1002200006052406000107058203100040090401A9
:1002300000020A00000007050302400000070584D1
:10024000024000001201000202000010C0167A04F1
:100250000001010203010001C11201803601813653
:1002600009416D6269656E743A200009443A2000C4
:100270000949523A200009494C3A200009544C3AA5
:100280002000094C3A200009423A200009523A2045
:10029000000A54523A20000011241FBECFEFDAE0CA
:1002A000DEBFCDBF11E0A0E0B1E0E6E8F5E402C0BA
:1002B00005900D92AC32B107D9F721E0ACE2B1E084
:1002C00001C01D92AD3AB207E1F70E94311E0C94B5
:1002D000C1220C9400001092460110924701109226
:1002E00048011092490110928500109284000895EF
:1002F000E1E8F0E080818B7F808380818260808371
:1003000080818160808380818F7E8083808188600E
:100310008083E0E8F0E080818D7F808380818E7F24
:100320008083EFE6F0E08081826080838AEF90E056
:1003300090938900809388000C946B011F920F9218
:100340000FB60F9211248F939F93AF93BF93809119
:10035000460190914701A0914801B0914901019651
:10036000A11DB11D8093460190934701A0934801C0
:10037000B0934901BF91AF919F918F910F900FBEA4
:100380000F901F901895239A08951B9B0E94C301FC
:10039000479A469881E090E09093770180937601A8
:1003A00008951B9B0E94C3014798469A10927701BB
:1003B0001092760108951B9B0E94C3012E9A2D98DE
:1003C00081E090E090937D0180937C0108951B9BD8
:1003D0000E94C3012E982D9A10927D0110927C01EB
:1003E0000895239808958F929F92AF92BF92CF92D3
:1003F000DF92EF92FF920F931F93CF93DF93809141
:100400007601909177016091CF0070E0892B89F09F
:1004100080E090E00E94D51F20E030E048EC52E4FC
:100420000E94EE2020E030E04FE753E40E943A1FA4
:1004300018C080E090E00E94D51F20E030E048EC3A
:1004400052E40E94EE2020E030E04FE753E40E94A7
:100450003A1F9B01AC0160E070E088EC92E40E94DE
:100460006C1E0E94A21F8B0180917C0190917D01E6
:100470006091D00070E0892B89F080E090E00E94CC
:10048000D51F20E030E048EC52E40E94EE2020E04E
:1004900030E04FE753E40E943A1F18C080E090E03C
:1004A0000E94D51F20E030E048EC52E40E94EE208C
:1004B00020E030E04FE753E40E943A1F9B01AC017B
:1004C00060E070E088EC92E40E946C1E0E94A21F23
:1004D000EB01B801882777FD8095982F0E94D51FE2
:1004E0002DEC3CEC4CE45EE30E94EE206B017C01C1
:1004F0006091860170918701882777FD8095982FFC
:100500000E94D51F2DEC3CEC4CE45FE30E94EE20F2
:100510009B01AC01C701B6010E946D1E0E94A21F83
:100520004B015C01BE01882777FD8095982F0E94C2
:10053000D51F2DEC3CEC4CE45EE30E94EE206B01F9
:100540007C016091740170917501882777FD809519
:10055000982F0E94D51F2DEC3CEC4CE45FE30E94E9
:10056000EE209B01AC01C701B6010E946D1E0E94E6
:10057000A21F6B017C01EB0118141904ACF40E945A
:10058000C5018FEF889DB001899D700D11248827CA
:1005900077FD8095982F0E94D51F20E030E048EC31
:1005A00052E40E943A1F1DC081149104F9F00E9488
:1005B000D1018FEF889DB001899D700D112488278E
:1005C00077FD8095982F0E94D51F20E030E048EC01
:1005D00052E40E943A1F20E030E04FE753E40E94CB
:1005E0006D1E0E94A71F6093CF0004C00E94C5012A
:1005F0001092CF001C161D06ACF40E94DB018FEF99
:100600008C9DB0018D9D700D1124882777FD8095FC
:10061000982F0E94D51F20E030E048EC52E40E9461
:100620003A1F1CC0CD2BF9F00E94E7018FEF8C9D83
:10063000B0018D9D700D1124882777FD8095982F2E
:100640000E94D51F20E030E048EC52E40E943A1F9F
:1006500020E030E04FE753E40E946D1E0E94A71F88
:100660006093D00004C00E94DB011092D000DF91A3
:10067000CF911F910F91FF90EF90DF90CF90BF909F
:10068000AF909F908F90089584E690E090938701BB
:100690008093860190937501809374010C94F3010B
:1006A00082E390E090938701809386019093750197
:1006B000809374010C94F3018CE99FEF9093870170
:1006C0008093860190937501809374010C94F301DB
:1006D0008EEC9FEF90938701809386019093750134
:1006E000809374010C94F30182E390E0909387016E
:1006F0008093860189E190E0909375018093740165
:100700000C94F30189E190E0909387018093860136
:1007100082E390E090937501809374010C94F3014F
:1007200089E190E090938701809386018CE090E0CE
:1007300090937501809374010C94F3018CE090E028
:10074000909387018093860189E190E090937501F1
:10075000809374010C94F3018EE190E090938701F3
:100760008093860182EE9FEF9093750180937401D0
:100770000C94F30182EE9FEF9093870180938601A2
:100780008EE190E090937501809374010C94F301D5
:10079000CF93DF9388EA91E00E94A81880EA91E065
:1007A0000E94A8188091CF0090E00E94DC1888E990
:1007B00091E00E94A8188091D00090E00E94DC187F
:1007C000C4EFD1E00E945C0321972097D9F7DF9115
:1007D000CF9108954F925F926F927F928F929F92E6
:1007E000AF92BF92CF92DF92EF92FF92209156018B
:1007F0003091570140915801509159010E946C1E4F
:100800006B017C016091380170913901882777FD77
:100810008095982F0E94D51F4B015C019B01AC0174
:10082000C701B6010E94EE20209182013091830120
:1008300040918401509185010E946D1E6093820158
:1008400070938301809384019093850120E030E0D0
:10085000A9010E94EE209B01AC01C701B6010E94D4
:100860006D1E2B013C01209178013091790140915E
:100870007A0150917B01C701B6010E946C1E20E0F5
:1008800030E0A9010E94EE20A50194010E943A1FC8
:100890009B01AC01C301B2010E946D1EC0927801A0
:1008A000D0927901E0927A01F0927B01FF90EF9073
:1008B000DF90CF90BF90AF909F908F907F906F9080
:1008C0005F904F9008954F925F926F927F928F92B8
:1008D0009F92AF92BF92CF92DF92EF92FF922091C0
:1008E0002C0130912D0140912E0150912F010E9439
:1008F0006C1E6B017C016091380170913901882771
:1009000077FD8095982F0E94D51F4B015C019B01BC
:10091000AC01C701B6010E94EE2020917E0130910A
:100920007F0140918001509181010E946D1E609372
:100930007E0170937F01809380019093810120E07C
:1009400030E0A9010E94EE209B01AC01C701B60175
:100950000E946D1E2B013C012091700130917101AC
:100960004091720150917301C701B6010E946C1E43
:1009700020E030E0A9010E94EE20A50194010E9430
:100980003A1F9B01AC01C301B2010E946D1EC092CF
:100990007801D0927901E0927A01F0927B01FF9088
:1009A000EF90DF90CF90BF90AF909F908F907F900F
:1009B0006F905F904F9008958F929F92AF92BF92E9
:1009C000CF92DF92EF92FF924B015C0120E030E08A
:1009D000A9010E94331F87FF0AC029EF3FE049ECBD
:1009E00050E4C501B4010E946D1E4B015C012091D1
:1009F0005601309157014091580150915901C5015C
:100A0000B4010E946D1E6B017C0129EF3FE049ECAF
:100A100050E40E94E320181654F429EF3FE049EC1B
:100A200050E4C701B6010E946C1E6B017C0129EFE6
:100A30003FE049E450E4C501B4010E94331F87FF41
:100A400040C020915601309157014091580150917A
:100A50005901C701B6010E946C1E0E94A21F9B0192
:100A600077FF04C022273327261B370BB9018827BD
:100A700077FD8095982F0E94D51F2091000130911D
:100A8000010140910201509103010E94E3201816D8
:100A900074F50E94AC03D5CFB901882777FD809506
:100AA000982F0E94D51F20910001309101014091A3
:100AB0000201509103010E94E3201816C4F40E9421
:100AC000BA0320915601309157014091580150913D
:100AD0005901C701B6010E946C1E0E94A21F9B0112
:100AE00077FFDACF22273327261B370BD5CFFF908E
:100AF000EF90DF90CF90BF90AF909F908F90089530
:100B0000CF92DF92EF92FF926B017C0120E030E008
:100B1000A9010E94331F87FF0AC029EF3FE049EC7B
:100B200050E4C701B6010E946D1E6B017C0129EFE4
:100B30003FE049E450E4C701B6010E94331F87FF3C
:100B400040C0209156013091570140915801509179
:100B50005901C701B6010E946C1E0E94A21F9B0191
:100B600077FF04C022273327261B370BB9018827BC
:100B700077FD8095982F0E94D51F2091000130911C
:100B8000010140910201509103010E94E3201816D7
:100B900074F50E94AC03D5CFB901882777FD809505
:100BA000982F0E94D51F20910001309101014091A2
:100BB0000201509103010E94E3201816C4F40E9420
:100BC000BA0320915601309157014091580150913C
:100BD0005901C701B6010E946C1E0E94A21F9B0111
:100BE00077FFDACF22273327261B370BD5CFFF908D
:100BF000EF90DF90CF9008950E94AC032FEF83ED2C
:100C000090E3215080409040E1F700C000000C9438
:100C1000F101CF92DF92EF92FF920E94281DC090C7
:100C20004E01D0904F01E0905001F09051012AE028
:100C300037ED43EA5DE3C701B6010E94331F87FD2C
:100C40000AC026E636E646EC50E4C701B6010E942B
:100C5000E320181634F4FF90EF90DF90CF900C94BF
:100C6000440329EF3FE049E450E4C701B6010E9484
:100C7000331F87FF06C0FF90EF90DF90CF900C945A
:100C80009003FF90EF90DF90CF900C949E036F92B3
:100C90007F928F929F92AF92BF92CF92DF92EF920C
:100CA000FF920F931F93CF93DF9300D000D0CDB767
:100CB000DEB700911F0110912001081B190B6090F5
:100CC0001D0170901E01661A770AB801882777FD0A
:100CD0008095982F0E94D51F9B01AC01B3018827F6
:100CE00077FD8095982F29833A834B835C830E94FC
:100CF000D51F29813A814B815C810E94E01E29EF3A
:100D00003FE049EC5FE30E946D1E6B017C0129EF1F
:100D10003FE049E450E40E94E320181654F429EF20
:100D20003FE049EC50E4C701B6010E946C1E6B0124
:100D30007C018090560190905701A0905801B0908E
:100D40005901075F1F4F0331110560F489E0680EF8
:100D5000711CE3E16E16710428F40E94F10181E038
:100D600090E026C0A7019601C501B4010E946C1E47
:100D700020E030E040E05FE30E94E32018161CF41E
:100D80000E94740313C0A5019401C701B6010E941B
:100D90006C1E20E030E040E05FE30E94E320181684
:100DA0001CF40E94820302C00E94440380E090E091
:100DB0000F900F900F900F90DF91CF911F910F9197
:100DC000FF90EF90DF90CF90BF90AF909F908F906B
:100DD0007F906F900895CF92DF92EF92FF92809173
:100DE00024019091250181309105A9F5C09034012D
:100DF000D0903501E0903601F090370120E030E0EE
:100E0000A901C701B6010E94E32018165CF4809185
:100E100015019091160120911F0130912001281792
:100E20003907B4F020E030E0A901C701B6010E9403
:100E3000331F18160CF449C08091170190911801C6
:100E400020911F0130912001281739070CF03DC077
:100E500064E170E034C00297C1F5C0903401D090D5
:100E60003501E0903601F090370120E030E0A90133
:100E7000C701B6010E94E32018165CF480911501A9
:100E80009091160120911F013091200128173907F8
:100E9000A4F020E030E0A901C701B6010E94331F91
:100EA00018169CF0809117019091180120911F0154
:100EB000309120012817390744F46CEE7FEFFF9042
:100EC000EF90DF90CF900C944706FF90EF90DF906B
:100ED000CF90089560E070E08091190190911A011F
:100EE0000C9447060E94DF19811103C06A9A729818
:100EF000FDCF6A9A729A08954AE06091210181E0DB
:100F00000C94C312CF93DF9380E885BF85BFECE7D5
:100F1000F0E080818F7B8083808180688083EAE736
:100F2000F0E0808184608083808182608083808122
:100F300081608083AEE7B0E08C9181608C93CDE7D7
:100F4000D0E08881846088838C9180618C938C91BF
:100F500080628C938C9180648C938C9180688C934C
:100F600088818160888388818260888380818860AD
:100F7000808380818F7D8083808180688083808171
:100F800080648083DF91CF910895539A3E9A269A88
:100F90003F9A259A469A2E9A479A2D9AE1ECF0E0CC
:100FA00080818860808380818B7F808380818D7F3A
:100FB000808380818E7F8083A3ECB0E08C918D7FD5
:100FC0008C938C918E7F8C93A0ECB0E08C9182609E
:100FD0008C938C9180688C938C918F7B8C93808187
:100FE0008160808380818062808380818F7E808326
:100FF0008FEF8093D1008093CF008093D00008952D
:1010000080912401909125018130910531F018F0F3
:10101000029729F008958AE103C088E101C089E1BF
:101020008093210108950E94BC130E941B127894A2
:10103000219A229A209A0E9400080E947C070E940E
:10104000C5070C9482078091220190912301813081
:10105000910519F00297A1F0089583E790E090932D
:101060001A01809319018DE89FEF90931C018093E2
:101070001B018BEA9FEF909318018093170108954D
:101080008DE89FEF90931A018093190183E790E018
:1010900090931C0180931B0185E590E090931601CD
:1010A000809315010895CF92DF92EF92FF92CF9334
:1010B000DF93C0914601D091470180913A01909110
:1010C0003B01C81BD90BD0933901C09338018091E3
:1010D0001F01909120012091060130910701821B90
:1010E000930BBE010E94D221882777FD8095982F0F
:1010F0000E94D51F609334017093350180933601AF
:101100009093370180911D0190911E01209104015F
:1011100030910501821B930BBE010E94D2218827CA
:1011200077FD8095982F0E94D51F609330017093B2
:101130003101809332019093330120913E0130912F
:101140003F014091400150914101609156017091E1
:10115000570180915801909159010E946C1E6B01BA
:101160007C01BE01882777FD8095982F0E94D51FAE
:101170009B01AC01C701B6010E943A1F60932C018C
:1011800070932D0180932E0190932F01DF91CF91C9
:10119000FF90EF90DF90CF900895AF92BF92CF92E3
:1011A000DF92EF92FF920F931F93CF93DF936091A3
:1011B0000601709107010091040110910501643F3F
:1011C00081E0780729F4043F81E0180709F4B5C0ED
:1011D000A0901F01B0902001C501861B970B43967C
:1011E000C0911D01D0911E01879738F0CE01801B60
:1011F000910B4396879708F07CC0882777FD8095F0
:10120000982F0E94D51F2DEC3CEC4CE45FE30E942C
:10121000EE206B017C01B501882777FD8095982F22
:101220000E94D51F2CEC3CEC4CE45EE30E94EE20C7
:101230009B01AC01C701B6010E946D1E0E94A21F56
:101240007093200160931F01B801882777FD809576
:10125000982F0E94D51F2DEC3CEC4CE45FE30E94DC
:10126000EE206B017C01BE01882777FD8095982FC9
:101270000E94D51F2CEC3CEC4CE45EE30E94EE2077
:101280009B01AC01C701B6010E946D1E0E94A21F06
:1012900070931E0160931D012DEC3CEC4CE45FE368
:1012A00060913E0170913F01809140019091410118
:1012B0000E94EE206B017C012CEC3CEC4CE45EE3E4
:1012C0006091560170915701809158019091590198
:1012D0000E94EE209B01AC01C701B6010E946D1E69
:1012E0006093560170935701809358019093590170
:1012F00024C07093200160931F0110931E0100937E
:101300001D0180913E0190913F01A0914001B0915B
:1013100041018093560190935701A0935801B093D7
:101320005901DF91CF911F910F91FF90EF90DF90C6
:10133000CF90BF90AF900C945308DF91CF911F9145
:101340000F91FF90EF90DF90CF90BF90AF900895F6
:101350004F925F926F927F928F929F92AF92BF92C5
:10136000CF92DF92EF92FF920F931F93CF93DF9371
:10137000CDB7DEB728970FB6F894DEBF0FBECDBF4E
:101380006B014901570120911F01309120013093D9
:1013900007012093060120911D0130911E01309319
:1013A0000501209304014090560150905701609030
:1013B00058017090590140923E0150923F01609255
:1013C000400170924101481B590BBA01882777FDF3
:1013D0008095982F0E94D51F9B01AC01B4016C1918
:1013E0007D09882777FD8095982F2D833E834F8335
:1013F00058870E94D51F2D813E814F8158850E94BC
:10140000E01E29EF3FE049EC5FE30E946C1E6B0198
:101410007C0129EF3FE049E450EC0E94331F87FD37
:1014200009C0C0925601D0925701E0925801F09243
:10143000590110C029EF3FE049EC50E4C701B60163
:101440000E946D1E6093560170935701809358015E
:1014500090935901B501882777FD8095982F0E94B8
:10146000D51F4B015C01B801882777FD8095982F27
:101470000E94D51F2B013C01A50194010E94E01E92
:10148000905829EF3FE049EC5FE30E946C1E6B012E
:101490007C0129EF3FE049E450EC0E94331F87FFB5
:1014A0000AC029EF3FE049EC50E4C701B6010E94B1
:1014B0006D1E6B017C0120E030E040E251E4C3018D
:1014C000B2010E943A1F2B013C0120E030E040E2D3
:1014D00051E4C501B4010E943A1F4B015C01A30114
:1014E0009201C301B2010E94EE202B013C01A50133
:1014F0009401C501B4010E94EE209B01AC01C3011F
:10150000B2010E946D1E0E945B2120E030E040E2AB
:1015100051E40E94EE202B013C0129EF3FE049E419
:1015200050E460915601709157018091580190915B
:1015300059010E946D1E4B015C01A70196010E949A
:101540006C1E6B017C0129EF3FE049E450EC0E94E6
:10155000331F87FF0AC029EF3FE049EC50E4C70181
:10156000B6010E946D1E6B017C0129EF3FE049E44A
:1015700050E4C701B6010E94E320181654F429EF85
:101580003FE049EC50E4C701B6010E946C1E6B01BC
:101590007C01C701B6010E94371F9B01AC018091FD
:1015A000080190910901A0910A01B0910B01898372
:1015B0009A83AB83BC83C301B2010E94EE202981D0
:1015C0003A814B815C810E94EE200E94A21F71959E
:1015D000619571097093200160931F01C701B601E5
:1015E0000E9451219B01AC01C301B2010E94EE2077
:1015F00029813A814B815C810E94EE200E94A21FCA
:1016000071956195710970931E0160931D0129EF19
:101610003FE049E450E4C501B4010E94E3201816FC
:101620004CF08092560190925701A0925801B092CE
:10163000590110C029EF3FE049EC50E4C501B40165
:101640000E946C1E6093560170935701809358015D
:101650009093590128960FB6F894DEBF0FBECDBF08
:10166000DF91CF911F910F91FF90EF90DF90CF907E
:10167000BF90AF909F908F907F906F905F904F90B2
:101680000C94CD082F923F924F925F926F927F926F
:101690008F929F92AF92BF92CF92DF92EF92FF9282
:1016A0000F931F93CF93DF93CDB7DEB760970FB63D
:1016B000F894DEBF0FBECDBF1C017A876987FC019D
:1016C000A281B38120813181AD01421B530BFB010B
:1016D0000280F381E02DFE83ED83FB01C080D18089
:1016E0008D819E818C199D09449F4001459F900CDE
:1016F000900C1124889FA001899F500D500D11243A
:10170000840E951EAA2497FCA094BA2CF101448162
:1017100055817A01E21AF30AFB010480F581E02D7C
:10172000FC87EB878F010C191D09EE9CB001EF9C23
:10173000700D700D1124009F7001019FF00CF00CD2
:1017400011246E0D7F1D2B01662457FC6094762CAE
:10175000F101668177817B01E21AF30AE985FA8556
:101760002681378189010C191D09EE9CC001EF9C6F
:10177000900D900D1124009F7001019FF00CF00C52
:1017800011248E0D9F1D7C010027F7FC0095102F62
:10179000E982FA820B831C837A01EA1AFB0A0B8521
:1017A0001C858D819E81081B190BEE9C6001EF9CAE
:1017B000D00CD00C1124009F7001019FF00CF00C94
:1017C0001124CE0CDF1CEE24D7FCE094FE2CFB0190
:1017D000EA1BFB0BC9010D811E81801B910BEE9F43
:1017E0008001EF9F100D100D1124889FD001899F5B
:1017F000B00DB00D11240A0F1B1FC801AA2797FDB9
:10180000A095BA2F8D839E83AF83B887641B750B19
:10181000AB85BC852A1B3B0B669FC001679F900D63
:10182000900D1124229FA001239F500D500D1124D3
:10183000840F951F8C01222717FD2095322F0D87CD
:101840001E872F87388BF42DE52D962D872D481474
:1018500059046A047B0424F4F82DE92D9A2D8B2D6C
:101860004F2F5E2F692F782F89819A81AB81BC81A0
:10187000481759076A077B0714F4AC01BD014C15E2
:101880005D056E057F0514F4B701A6010D811E816B
:101890002F813885401751076207730714F4B90187
:1018A000A8018D859E85AF85B889481759076A07B5
:1018B0007B0714F4AC01BD01942D852DF62DE72D89
:1018C00084149504A604B70424F4982D892DFA2DC8
:1018D000EB2D092F182F2F2F3E2F89819A81AB8155
:1018E000BC8180179107A207B30714F48C019D01F6
:1018F000D901C801C016D106E206F30614F4D701D7
:10190000C6018C019D018D819E81AF81B8858017B4
:101910009107A207B30714F48C019D01D901C801F6
:101920000D851E852F853889081719072A073B075B
:1019300014F4D901C801481559056A057B05A1F4BD
:1019400084159505A605B70519F421E030E091C08E
:1019500029813A814B815C8182179307A407B507DF
:10196000A1F320E030E03EC044155505660577053B
:10197000A1F488159905AA05BB0519F422E030E009
:1019800078C0E980FA800B811C818E159F05A00725
:10199000B107A1F320E030E05DC009811A812B81FD
:1019A0003C81401751076207730781F48415950540
:1019B000A605B70519F423E030E05BC0881599054A
:1019C000AA05BB05C1F320E030E04EC04C155D0513
:1019D0006E057F05B1F488159905AA05BB0529F4A4
:1019E00022E030E081E090E046C02D813E814F81D1
:1019F000588582179307A407B50791F321E030E0DB
:101A000029C00D811E812F8138854017510762073B
:101A1000730781F488159905AA05BB0519F423E01D
:101A200030E0E0CF8C159D05AE05BF05C1F321E088
:101A300030E01AC00D851E852F8538894017510763
:101A400062077307A1F484159505A605B70529F467
:101A500023E030E082E090E00EC08C159D05AE05DD
:101A6000BF05B1F322E030E083E090E004C020E065
:101A700030E080E090E0BC01660F771FF101E60FD7
:101A8000F71F80819181220F331FF101E20FF31FB5
:101A900040815181E985FA85E60FF71F60817181E8
:101AA000E985FA85E20FF31F208131817B01E20E87
:101AB000F31EF7FE03C01FEFE11AF10AF594E79455
:101AC0008C01040F151F17FF02C00F5F1F4F1595E4
:101AD00007950E94A80960960FB6F894DEBF0FBE66
:101AE000CDBFDF91CF911F910F91FF90EF90DF90CD
:101AF000CF90BF90AF909F908F907F906F905F90AE
:101B00004F903F902F9008952F923F924F925F9267
:101B10006F927F928F929F92AF92BF92CF92DF92FD
:101B2000EF92FF920F931F93CF93DF93CDB7DEB762
:101B300060970FB6F894DEBF0FBECDBF8C011B01BE
:101B4000DC0112966D917C911397CD90DC90DE862E
:101B5000CD86FB01EC19FD09D10112962D913C9126
:101B60001397CD90DC90D88ACF86A9014C195D09D6
:101B7000EE9FC001EF9F900D900D1124449FF00146
:101B8000459FF00DF00D11248E0F9F1F6C01EE2468
:101B9000D7FCE094FE2CC982DA82EB82FC82D80169
:101BA0001496ED90FC9015976701ED85FE85CE1A91
:101BB000DF0AD10114964D915C911597DA01EF85FA
:101BC000F889AE1BBF0BCC9CC001CD9C900D900D35
:101BD0001124AA9FF001AB9FF00DF00D11248E0F80
:101BE0009F1F2C01662457FC6094762CF701E61B9E
:101BF000F70B421B530BEE9FC001EF9F900D900D12
:101C00001124449F9001459F300D300D1124820F07
:101C1000931F6C01EE24D7FCE094FE2CCD82DE8273
:101C2000EF82F886342D252D962D872DC980DA80F8
:101C3000EB80FC804C145D046E047F0424F4398135
:101C40002A819B818C81C32ED22EE92EF82E2D81E4
:101C50003E814F815885C216D306E406F50614F47A
:101C600069017A01342D252D962D872D49815A81C0
:101C70006B817C81441555056605770524F439810F
:101C80002A819B818C81832E922EA92EB82E6D8164
:101C90007E818F819885681579058A059B0514F4E6
:101CA0004B015C01C701B6010E94D51F69877A8785
:101CB0008B879C87C501B4010E94D51F9B01AC0195
:101CC00069857A858B859C850E943A1F69877A870A
:101CD0008B879C8720E030E040E050E40E94331F77
:101CE00087FF3EC189819A81AB81BC81C816D90624
:101CF000EA06FB0651F484149504A604B70489F59A
:101D00001A82198221E030E032C0C414D504E604FE
:101D1000F70471F4C980DA80EB80FC808C149D0498
:101D2000AE04BF0439F51A82198222E030E028C0DF
:101D30002D813E814F815885C216D306E406F506F3
:101D400011F5C980DA80EB80FC808C149D04AE0410
:101D5000BF04F1F421E030E03A83298322E030E04F
:101D60001DC041E050E05A83498320E030E082E02A
:101D700090E016C062E070E07A83698320E030E092
:101D800081E090E00DC01A82198220E030E006C0A8
:101D900082E090E09A83898321E030E080E090E067
:101DA0006901CC0CDD1CF801EC0DFD1D608071801B
:101DB0007C01EE0CFF1CB301882777FD8095982FDE
:101DC0000E94D51F4B015C01F801EE0DFF1D8081C3
:101DD0009181B301681B790B882777FD8095982F37
:101DE0000E94D51F22EA35E446E05FE30E94EE2020
:101DF0009B01AC01C501B4010E946D1E0E94A21F8F
:101E00004B015C01F101EC0DFD1DC080D180B601DC
:101E1000882777FD8095982F0E94D51F2B013C01C4
:101E2000F101EE0DFF1D80819181B601681B790BD8
:101E3000882777FD8095982F0E94D51F22EA35E4E8
:101E400046E05FE30E94EE209B01AC01C301B201BA
:101E50000E946D1E0E94A21F6D837E838F839887D0
:101E6000C980DA80CC0CDD1CDA86C986F601E00F69
:101E7000F11FC080D180DA82C982B401882777FD42
:101E80008095982F0E94D51F6B017C0129813A8192
:101E9000B901882777FD8095982F0E94D51F2B01C7
:101EA0003C0169817A8168197909882777FD8095D5
:101EB000982F0E94D51F28EA36EC4BE85EE30E947B
:101EC000EE209B01AC01C301B2010E946D1E9B017B
:101ED000AC01C701B6010E946C1E0E94A21F4B01FB
:101EE0005C01E985FA85E20DF31D208031804D818A
:101EF0005E81BA01882777FD8095982F0E94D51FB3
:101F00006B017C01B101882777FD8095982F0E9495
:101F1000D51F2B013C01B1018D819E81681B790B7E
:101F2000882777FD8095982F0E94D51F28EA36ECE8
:101F30004BE85EE30E94EE209B01AC01C301B201BD
:101F40000E946D1E9B01AC01C701B6010E946C1E70
:101F50000E94A21F7B018401910149815A8156C1CF
:101F600020E030E040E850E469857A858B859C85E7
:101F70000E94E32018160CF44CC1A7019601C7017A
:101F8000B6010E94C221A50194010E94E6212839D0
:101F90003840410551050CF03CC129813A814B8103
:101FA0005C81C216D306E406F50661F48414950438
:101FB000A604B704A9F520E030E042E050E05A83DF
:101FC000498347C0C414D504E604F70481F4C980EA
:101FD000DA80EB80FC808C149D04AE04BF0439F5DC
:101FE00020E030E041E050E05A83498316C06D8123
:101FF0007E818F819885C616D706E806F906F1F42A
:10200000C980DA80EB80FC808C149D04AE04BF0490
:10201000E1F421E030E01A82198282E090E01BC0F6
:1020200021E030E042E050E05A8349830BC022E0D7
:1020300030E061E070E07A83698304C020E030E042
:102040001A82198280E090E006C022E030E01A8215
:10205000198281E090E04901880C991CF801E80D93
:10206000F91D608071805C01AA0CBB1CB30188273C
:1020700077FD8095982F0E94D51F6B017C01F80198
:10208000EA0DFB1D80819181681A790AB3018827C6
:1020900077FD8095982F0E94D51F22EA35E446E00F
:1020A0005FE30E94EE209B01AC01C701B6010E94D4
:1020B0006D1E0E94A21F6B017C01F101E80DF91D4C
:1020C00080809180B401882777FD8095982F0E94A9
:1020D000D51F2B013C01F101EA0DFB1D808191818F
:1020E000881A990AB401882777FD8095982F0E9455
:1020F000D51F22EA35E446E05FE30E94EE209B0113
:10210000AC01C301B2010E946D1E0E94A21F6D832B
:102110007E838F83988789819A81880F991F9A83FC
:102120008983FC01E00FF11F00811181B60188272E
:1021300077FD8095982F0E94D51F4B015C01B80157
:10214000882777FD8095982F0E94D51F2B013C0191
:10215000B8016C197D09882777FD8095982F0E941A
:10216000D51F2FED3FE44DEC5FE30E94EE209B0175
:10217000AC01C301B2010E946D1E9B01AC01C501FF
:10218000B4010E946C1E0E94A21F4B015C01A98138
:10219000BA81A20DB31D0D911C91AD81BE81BD010F
:1021A000882777FD8095982F0E94D51F6B017C01B1
:1021B000B801882777FD8095982F0E94D51F2B01A5
:1021C0003C01B801ED81FE816E1B7F0B882777FDF6
:1021D0008095982F0E94D51F2FED3FE44DEC5FE3D3
:1021E0000E94EE209B01AC01C301B2010E946D1E52
:1021F0009B01AC01C701B6010E946C1E0E94A21F88
:102200007B0184012F8538894D855E85B401C40129
:1022100070C029813A814B815C81C216D306E406E5
:10222000F50641F484149504A604B70429F521E0C9
:1022300030E02CC0C414D504E604F70461F4C9806E
:10224000DA80EB80FC808C149D04AE04BF04B9F4EA
:1022500022E030E01BC02D813E814F815885C2169F
:10226000D306E406F50681F484149504A604B704A5
:1022700081F421E030E005C020E030E00CC020E037
:1022800030E082E090E009C020E030E080E090E0C3
:1022900004C022E030E081E090E0BC01660F771FCF
:1022A000F801E60FF71F80819181220F331FF8019B
:1022B000E20FF31F40815181F101E60FF71F6081AA
:1022C0007181F101E20FF31F208131817B01E20E68
:1022D000F31EF7FE03C0AFEFEA1AFA0AF594E7948B
:1022E0008C01040F151F17FF02C00F5F1F4F1595BC
:1022F00007950E94A80960960FB6F894DEBF0FBE3E
:10230000CDBFDF91CF911F910F91FF90EF90DF90A4
:10231000CF90BF90AF909F908F907F906F905F9085
:102320004F903F902F900895CF93DF93CDB7DEB7B6
:1023300060970FB6F894DEBF0FBECDBFE9E8F1E0BD
:1023400080E090E0408151814F3F23E05207C9F087
:10235000228133812F3F63E0360799F0DC01AA0F19
:10236000BB1F61E070E06C0F7D1FA60FB71F5250BE
:1023700019965C934E931897205831402D933C93B7
:102380000196369671E0E13AF707E1F6843091055F
:1023900041F4BE016F5F7F4FCE0109960E94420B50
:1023A00009C0039751F4BE016F5F7F4FCE010996BC
:1023B0000E94840D6E9A769A02C06E9A7698609604
:1023C0000FB6F894DEBF0FBECDBFDF91CF91089559
:1023D00089E891E00E94C41A8093880181110E94CB
:1023E000941180918801089580911F01909120019E
:1023F0008D589F4F089580911D0190911E01CC969C
:10240000089520E030E048EC52E46091560170916C
:10241000570180915801909159010E94EE200E942D
:10242000A71FCB010895809120018095881F8827E0
:10243000881F8F5F0895589A599A5A9A8CE0809312
:10244000B800E9E6F0E080818062808380818F7E41
:102450008083EA9A7894089584E88093BC00809100
:10246000BC0087FFFCCF8091BB00089584E9809376
:10247000BC00089520E030E08091BC0087FD06C0DC
:102480002F5F3F4F293E83E03807B1F781E0283EB8
:10249000334009F480E008958093BB0084E8809382
:1024A000BC000E943A12882321F08091B900887FF5
:1024B000089580E008951F93CF93DF931F92CDB7C7
:1024C000DEB7182F84EA8093BC0069830E943A1219
:1024D0006981811104C094E99093BC0014C0812FDC
:1024E000880F662331F08F5F0E944C12883451F4BC
:1024F00004C00E944C12803229F484E98093BC000D
:1025000080E001C081E00F90DF91CF911F9108958D
:10251000CF93DF93C82FD62F60E00E945B128823F1
:1025200091F08D2F0E944C12882369F084E98093EA
:10253000BC0061E08C2F0E945B12882321F0DF91A8
:10254000CF910C942C1280E0DF91CF910895CF931E
:10255000DF93D62FC42F60E00E945B12811102C06E
:1025600080E00EC08D2F0E944C128823C9F38C2F5F
:102570000E944C128823A1F384E98093BC0081E07F
:10258000DF91CF910895CF93DF9300D01F92CDB705
:10259000DEB74B836A8389830E941B1294EA90936F
:1025A000BC0089816A814B819091BC0097FFFCCF70
:1025B00090E59093BB0094E89093BC009091BC0090
:1025C00097FFFCCF9091B900987F903229F484E96D
:1025D0008093BC0080E029C091E09093BB0094E818
:1025E0009093BC009091BC0097FFFCCF8093BB0000
:1025F00084E88093BC008091BC0087FFFCCF60938F
:10260000BB0084E88093BC008091BC0087FFFCCFB6
:102610004093BB0084E88093BC008091BC0087FF9E
:10262000FCCF84E98093BC0081E00F900F900F9065
:10263000DF91CF91089524EA2093BC002091BC0043
:1026400027FFFCCF21E52093BB0024E82093BC00AA
:102650002091BC0027FFFCCF2091B900287F2834AF
:10266000A9F024EC2093BC002091BC0027FFFCCFF4
:102670002091BB0026130AC0FC0120E030E0772740
:1026800067FD70956150710944EC0EC084E9809338
:10269000BC0080E008955091BC0057FFFCCF5091E2
:1026A000BB0051932F5F3F4F261737071CF4409311
:1026B000BC00F1CF44E84093BC004091BC0047FF10
:1026C000FCCF4091BB00FC01E20FF31F408384E983
:1026D0008093BC0081E00895F89494EA9093BC0044
:1026E0009091BC0097FFFCCF90E59093BB0094E8DD
:1026F0009093BC009091BC0097FFFCCF9091B900E3
:10270000987F903231F484E98093BC00789480E023
:10271000089593E09093BB0094E89093BC0090914F
:10272000BC0097FFFCCF8093BB0084E88093BC0083
:102730008091BC0087FFFCCFFB01552747FD5095DA
:1027400024E8CF01861B970B8417950754F48191D9
:102750008093BB002093BC008091BC0087FFFCCF1E
:10276000F0CF84E98093BC00789481E00895809153
:10277000E80080FFFCCF089581E08093D70080EAD5
:102780008093D80082E189BD09B400FEFDCF80E9C5
:102790008093D8001092E0001092450110924201FF
:1027A0008CE08093E200789408958091450108952B
:1027B0009FB7F89480914501882339F083E0809396
:1027C000E9008091E80085FD03C09FBF8FEF089569
:1027D0008091F1002091E80025FD03C02BE62093B5
:1027E000E8009FBF08959FB7F89480914501882322
:1027F00031F083E08093E9008091F20001C080E035
:102800009FBF089580914501882371F08FB7F89498
:1028100093E09093E9002BE69091E80095FF03C0C8
:102820002093E800F9CF8FBF089590914501992337
:1028300071F09FB7F89424E02093E90020914301C0
:10284000222349F02091E80025FD03C09FBF8FEFB0
:102850000895109243012091E400275E34E04091F6
:10286000E80045FD12C09FBF9091E400921304C0A0
:1028700081E080934301EBCF90914501992339F397
:102880009FB7F8943093E900EACF8093F1008091EC
:10289000E80085FD03C08AE38093E80085E080932B
:1028A00044019FBF80E00895909145019923D1F0A4
:1028B0009FB7F89424E02093E9002091E80025FDDB
:1028C00002C09FBF0FC08093F1008091E80085FD9A
:1028D00003C08AE38093E80085E0809344019FBFB2
:1028E00080E008958FEF0895EF92FF921F93CF93AA
:1028F000DF937C01CB0120914501222371F0AFB71A
:10290000F89424E02093E90020914301222349F028
:102910002091E80025FD03C0AFBF8FEF42C21092A7
:102920004301B4E0C0E4DAE315E0009709F437C2EC
:102930002091E400275E3091E80035FD12C0AFBF62
:102940003091E400321304C081E080934301E5CF6D
:1029500030914501332309F3AFB7F894B093E90000
:10296000EACF2091F2004C2F421B242F30E0821737
:10297000930708F4482F841B910950E04134510516
:1029800008F0FDC14A5A5F4FFA010C940522F70185
:1029900020812093F10097012F5F3F4F7901F701CC
:1029A00020812093F10097012F5F3F4F7901F701BC
:1029B00020812093F10097012F5F3F4F7901F701AC
:1029C00020812093F10097012F5F3F4F7901F7019C
:1029D00020812093F10097012F5F3F4F7901F7018C
:1029E00020812093F10097012F5F3F4F7901F7017C
:1029F00020812093F10097012F5F3F4F7901F7016C
:102A000020812093F10097012F5F3F4F7901F7015B
:102A100020812093F10097012F5F3F4F7901F7014B
:102A200020812093F10097012F5F3F4F7901F7013B
:102A300020812093F10097012F5F3F4F7901F7012B
:102A400020812093F10097012F5F3F4F7901F7011B
:102A500020812093F10097012F5F3F4F7901F7010B
:102A600020812093F10097012F5F3F4F7901F701FB
:102A700020812093F10097012F5F3F4F7901F701EB
:102A800020812093F10097012F5F3F4F7901F701DB
:102A900020812093F10097012F5F3F4F7901F701CB
:102AA00020812093F10097012F5F3F4F7901F701BB
:102AB00020812093F10097012F5F3F4F7901F701AB
:102AC00020812093F10097012F5F3F4F7901F7019B
:102AD00020812093F10097012F5F3F4F7901F7018B
:102AE00020812093F10097012F5F3F4F7901F7017B
:102AF00020812093F10097012F5F3F4F7901F7016B
:102B000020812093F10097012F5F3F4F7901F7015A
:102B100020812093F10097012F5F3F4F7901F7014A
:102B200020812093F10097012F5F3F4F7901F7013A
:102B300020812093F10097012F5F3F4F7901F7012A
:102B400020812093F10097012F5F3F4F7901F7011A
:102B500020812093F10097012F5F3F4F7901F7010A
:102B600020812093F10097012F5F3F4F7901F701FA
:102B700020812093F10097012F5F3F4F7901F701EA
:102B800020812093F10097012F5F3F4F7901F701DA
:102B900020812093F10097012F5F3F4F7901F701CA
:102BA00020812093F10097012F5F3F4F7901F701BA
:102BB00020812093F10097012F5F3F4F7901F701AA
:102BC00020812093F10097012F5F3F4F7901F7019A
:102BD00020812093F10097012F5F3F4F7901F7018A
:102BE00020812093F10097012F5F3F4F7901F7017A
:102BF00020812093F10097012F5F3F4F7901F7016A
:102C000020812093F10097012F5F3F4F7901F70159
:102C100020812093F10097012F5F3F4F7901F70149
:102C200020812093F10097012F5F3F4F7901F70139
:102C300020812093F10097012F5F3F4F7901F70129
:102C400020812093F10097012F5F3F4F7901F70119
:102C500020812093F10097012F5F3F4F7901F70109
:102C600020812093F10097012F5F3F4F7901F701F9
:102C700020812093F10097012F5F3F4F7901F701E9
:102C800020812093F10097012F5F3F4F7901F701D9
:102C900020812093F10097012F5F3F4F7901F701C9
:102CA00020812093F10097012F5F3F4F7901F701B9
:102CB00020812093F10097012F5F3F4F7901F701A9
:102CC00020812093F10097012F5F3F4F7901F70199
:102CD00020812093F10097012F5F3F4F7901F70189
:102CE00020812093F10097012F5F3F4F7901F70179
:102CF00020812093F10097012F5F3F4F7901F70169
:102D000020812093F10097012F5F3F4F7901F70158
:102D100020812093F10097012F5F3F4F7901F70148
:102D200020812093F10097012F5F3F4F7901F70138
:102D300020812093F10097012F5F3F4F7901F70128
:102D400020812093F10097012F5F3F4F7901F70118
:102D500020812093F10097012F5F3F4F7901F70108
:102D600020812093F10097012F5F3F4F7901F701F8
:102D700020812093F10097012F5F3F4F7901F701E8
:102D800020812093F10097012F5F3F4F790120911F
:102D9000E80025FFD093E80010934401C6CDAFBFF3
:102DA00080E0DF91CF911F91FF90EF9008958FB752
:102DB000F89490914401992341F094E09093E900B4
:102DC0009AE39093E800109244018FBF0895809198
:102DD00010010895809111010895809112010895C4
:102DE0008091420108959FB7F894209145012223D4
:102DF00039F022E02093E9003091E80035FD03C06E
:102E00009FBF8FEF089531EA3093F10030E23093A5
:102E1000F1001092F1001092F1001092F100109266
:102E2000F1002093F1001092F1008093F1001092D4
:102E3000F1008AE38093E8009FBF80E008951F922D
:102E40000F920FB60F9211248F939F938091E10000
:102E50001092E10083FF11C01092E90091E090937D
:102E6000EB001092EC0092E19093ED0098E09093CB
:102E7000F000109245011092420182FF13C0809130
:102E80004501882379F080914401882359F08150CD
:102E900080934401811106C084E08093E9008AE3B5
:102EA0008093E8009F918F910F900FBE0F901F901D
:102EB00018951F920F920FB60F921124EF92FF9266
:102EC0000F931F932F933F934F935F936F937F9332
:102ED0008F939F93AF93BF93EF93FF93CF93DF9322
:102EE0001F92CDB7DEB71092E9008091E80083FF12
:102EF00014C19091F1008091F1003091F100209186
:102F0000F100E32EF12CF22A0091F1002091F10062
:102F100010E0122B2091F1006091F10032EF30931C
:102F2000E800863009F046C036E08DEA91E0FC0109
:102F3000459154914E155F0539F4FC013296459147
:102F400054914017510721F00796315081F7E5C0A1
:102F5000FC01349645915491FC013696849130E001
:102F6000362B2F3F310519F010F02FEF30E02817E6
:102F700008F4822F3EEF9091E800292F2570D9F3B5
:102F800092FDCEC0982F813108F090E1FA01292FEF
:102F9000222331F064916093F10021503196F8CFF3
:102FA000490F511D891B3093E8008111E4CF903106
:102FB00011F3B6C0853051F48EEF8093E8000E9483
:102FC000B7138E2D80688093E300AAC0893059F52D
:102FD000911180C0E092450110924201109244018B
:102FE0008EEF8093E80041E086E592E04093E900AF
:102FF0009C012F5F3F4FFC0154915093EB005523F0
:1030000059F0F90124912093EC009C012D5F3F4F72
:10301000319684918093ED004F5F453011F0C901E6
:10302000E5CF8EE175C0883051F4903809F052C078
:103030000E94B713809145018093F10047C081320F
:1030400079F4913A09F046C00E94B713ECE0F1E040
:1030500081918093F10081E0E331F807C9F736C030
:10306000803299F49132B1F58091E80082FFFCCF73
:10307000ECE0F1E08091F100819381E0E331F80729
:10308000C9F78BEF8093E80021C0823241F491327E
:1030900009F043C0E09242010E94B71317C08111AA
:1030A00019C099830E94B7139981923851F4009303
:1030B000E9008091EB0085FB882780F91092E900F8
:1030C00001C080E08093F1001092F1008EEF8093B8
:1030D000E80026C0282F2D7F2130F9F49230E9F442
:1030E000EF28D9F40F779FEF900F9430B0F49EEF54
:1030F0009093E8000093E900833079F089E18093B0
:10310000EB0081E090E0002E01C0880F0A94EAF7FE
:103110008093EA001092EA0003C081E28093EB0002
:103120000F90DF91CF91FF91EF91BF91AF919F9160
:103130008F917F916F915F914F913F912F911F914F
:103140000F91FF90EF900F900FBE0F901F9018956A
:103150001F93CF93DF93EC01FE011491112351F0E3
:103160001A3019F48DE00E941514812F0E94151455
:103170002196F2CFDF91CF911F9108958A3010F4FC
:1031800090E301C097E3890F0C941514CF93C82FD7
:1031900082958F700E94BE188C2F8F70CF910C94E7
:1031A000BE18CF93C82F892F0E94C6188C2FCF919D
:1031B0000C94C6180C94C618EF92FF920F931F93AD
:1031C000CF93DF93CDB7DEB727970FB6F894DEBF66
:1031D0000FBECDBF8E010F5F1F4F27E0F801119288
:1031E0002A95E9F74AE0B8010E945B227E01F8E0E7
:1031F000EF0EF11CF80181918F0181110E941514CD
:103200000E151F05B9F727960FB6F894DEBF0FBE4F
:10321000CDBFDF91CF911F910F91FF90EF90089557
:10322000EF92FF920F931F93CF93DF9300D000D0C4
:1032300000D0CDB7DEB78E010F5F1F4F26E0F8013B
:1032400011922A95E9F74AE0B8010E9497227E017F
:10325000F6E0EF0EF11CF80181918F0181110E94BF
:1032600015140E151F05B9F726960FB6F894DEBF94
:103270000FBECDBFDF91CF911F910F91FF90EF90C7
:103280000895EF92FF920F931F93CF93DF93CDB7E3
:10329000DEB72B970FB6F894DEBF0FBECDBF8E0101
:1032A0000F5F1F4F2BE0F80111922A95E9F72AE0F2
:1032B000A8010E9466227E01FCE0EF0EF11CF801DD
:1032C00081918F0181110E9415140E151F05B9F708
:1032D0002B960FB6F894DEBF0FBECDBFDF91CF9116
:1032E0001F910F91FF90EF900895EF92FF920F932F
:1032F0001F93CF93DF93CDB7DEB72B970FB6F8941C
:10330000DEBF0FBECDBF8E010F5F1F4F2BE0F80158
:1033100011922A95E9F72AE0A8010E9475227E0100
:10332000FBE0EF0EF11CF80181918F0181110E94E9
:1033300015140E151F05B9F72B960FB6F894DEBFBE
:103340000FBECDBFDF91CF911F910F91FF90EF90F6
:10335000089520E030E08091BC0087FD06C02F5F1B
:103360003F4F293E83E03807B1F781E0283E3340E4
:1033700009F480E008958093BB0084E88093BC004A
:103380000E94A919882319F08091B900887F0895B7
:10339000CF93C82F84EA8093BC000E94A919882388
:1033A00061F08C2F880F0E94BB19803229F484E9C8
:1033B0008093BC0080E001C081E0CF9108950E941D
:1033C0001B1288E50E94C819811102C080E008958F
:1033D00080E30E94BB198823C9F381E00E94BB19D6
:1033E0008823A1F384E98093BC008FE39CE90197D3
:1033F000F1F700C0000088E50E94C819882331F366
:1034000080E00E94BB19882309F380E00E94BB1969
:103410008823E1F280E00E94BB198823B9F280E0A2
:103420000E94BB19882391F280E00E94BB19882377
:1034300069F280E00E94BB19882341F280E00E947B
:10344000BB19882319F280E90E94BB19882309F46B
:10345000BDCF84E98093BC008FE39CE90197F1F72D
:1034600000C0000088E50E94C819882309F4AECF87
:1034700087E00E94BB19882309F4A8CF80E00E944E
:10348000BB19882309F4A2CF81E40E94BB198823C9
:1034900009F49CCF84E98093BC008FE39CE90197F9
:1034A000F1F700C0000088E50E94C819882309F4DC
:1034B0008DCF8AE10E94BB19882309F487CF80E46D
:1034C0000E94BB19882309F481CF80E00E94BB19B8
:1034D000882309F47BCF84E98093BC008FE39CE9C7
:1034E0000197F1F700C0000088E50E94C819882301
:1034F00009F46CCF83E30E94BB19882309F466CFDB
:1035000083E00E94BB19882309F460CF84E980938B
:10351000BC008FE39CE90197F1F700C0000088E54B
:103520000E94C819882309F451CF80E30E94BB1977
:10353000882309F44BCF88E00E94BB19882309F443
:1035400045CF84E98093BC008FE39CE90197F1F7B4
:1035500000C0000081E00895CF93C82F84EA8093D3
:10356000BC000E94A919882369F08C2F880F8F5FF7
:103570000E94BB19883429F484E98093BC0080E060
:1035800001C081E0CF910895EF92FF920F931F93B6
:10359000CF93DF93CDB7DEB760970FB6F894DEBF59
:1035A0000FBECDBF7C018E010F5F1F4F80E1F80180
:1035B00011928A95E9F788E50E94C819811102C025
:1035C00080E05EC086E30E94BB198823C9F384E9CA
:1035D0008093BC00F5E8FA95F1F7000088E50E94B9
:1035E000AC1A882369F3F8019E01205F3F4F94ECE9
:1035F0009093BC008091BC0087FFFCCF8091BB0002
:103600008193E217F307A1F784E88093BC008091CF
:10361000BC0087FFFCCF8091BB00888B84E980933E
:10362000BC00DE01149687016C91762F7073AD019A
:1036300042505109FA01808190E0F0E17F9F800DB6
:10364000911D1124F80191838083762F707C4F5F48
:103650005F4FFA01808190E0F4E07F9F800D911D23
:103660001124F801938382836F70862F90E09583F5
:10367000848313960A5F1F4FA217B307A9F681E050
:1036800060960FB6F894DEBF0FBECDBFDF91CF912D
:103690001F910F91FF90EF90089584E98093BC00F3
:1036A00008958091A10190E0FC01E05AF109E73012
:1036B000F10508F08CC0E956FF4F0C9405220E94DA
:1036C000E8110E941312992787FD9095909323018A
:1036D000809322010E94230880912201909123016E
:1036E0008130910561F4299A2FEF80E792E0215013
:1036F00080409040E1F700C000002A9808950297AA
:1037000009F065C02A9A2FEF80E792E021508040AF
:103710009040E1F700C00000299808950E94E81148
:103720000E941312992787FD90959093230180930F
:103730002201019719F4299A2A9802C02A9A2998F5
:103740000E94230882E090E090931401809313017B
:103750000C946B0140912201509123018091A201B0
:103760002091A30141305105E9F40BC040912201A1
:10377000509123012091A2018091A3014230510573
:1037800089F4992787FD909590934D0180934C0182
:10379000332727FD309530934B0120934A010E9437
:1037A000FC0511C0332727FD309530934D01209340
:1037B0004C01992787FD909590934B0180934A0186
:1037C00002C0469847981092140110921301089570
:1037D0001F920F920FB60F9211242B982D982E98AE
:1037E0000F900FBE0F901F9018951F920F920FB65B
:1037F0000F9211242B9A2D9A2E9A0F900FBE0F9094
:103800001F9018951F920F920FB60F9211242F93AD
:103810003F934F935F936F937F938F939F93AF9358
:10382000BF93EF93FF936AE081EA91E00E941B133C
:103830000E94511BFF91EF91BF91AF919F918F918A
:103840007F916F915F914F913F912F910F900FBE9C
:103850000F901F90189581E992E00E94A81880911E
:103860006601909167010E94DC188CE892E00E944A
:10387000A81880916A0190916B010E94DC1887E87A
:1038800092E00E94A81880916401909165010E94C5
:10389000DC1882E892E00E94A81880916201909161
:1038A00063010E94DC188CE792E00E94A8188091C6
:1038B0005E0190915F010E94DC1886E792E00E9411
:1038C000A81880916801909169010E94DC1880E736
:1038D00092E00E94A81880916001909161010E947D
:1038E000DC188BE692E00E94A81880916C01909100
:1038F0006D010E94DC1880E692E00E94A818809179
:103900005A0190915B010C94DC1820915A0130917E
:103910005B01EEE5F1E080819181821B930B97FFC3
:1039200003C01182108202C091838083329681E0AD
:10393000EE36F80781F708950E94851CA0E6B1E0F5
:1039400021E030E080E090E041E050E06D917D9139
:10395000FC01EE0FFF1FE25AFE4F0190F081E02DB7
:10396000E617F7076CF0F901EE0FFF1FE25AFE4F62
:103970000190F081E02DE617F70724F49A0102C0C8
:103980009C01CA014F5F5F4F47305105F9F66091C6
:103990006C0170916D0140912801509129016417CB
:1039A000750724F0289A83E090E04DC04091AB0168
:1039B0005091AC014817590724F0289881E090E015
:1039C00042C00097B1F184309105B1F18230910588
:1039D000F9F01CF4892B99F52CC08330910539F04E
:1039E000069769F520916A0130916B0104C020911E
:1039F000640130916501809126019091270128177B
:103A000039071CF40E9474031CC00E94AC0319C047
:103A100020916201309163018091260190912701EC
:103A2000281739071CF40E9482030BC00E94BA03B6
:103A300008C00E949E0305C00E94900302C00E941D
:103A4000500382E090E09093140180931301089555
:103A500080916E0190916F01892B61F180917A00C4
:103A60008F7780937A000E949C1C60914601709130
:103A7000470180914801909149012AE030E040E0FF
:103A800050E00E94E621672B682B692B11F40E94FD
:103A90002B1C10926F0110926E0180917A00806849
:103AA00080937A0080917A00806480937A0081E02C
:103AB00090E0089580E090E008950E94281D892BF1
:103AC000E1F3209162013091630180916401909152
:103AD0006501281739070CF4C90120916A0130915A
:103AE0006B01281739070CF4C90190935B0180938F
:103AF0005A012FEF33E0281B390B30932B01209311
:103B00002A0125EF33E0281B390B3093AC012093B9
:103B1000AB0108951F920F920FB60F9211242F93AD
:103B20003F938F939F93EF93FF9380917A008F77CA
:103B300080937A0080915C0190915D0120917800E2
:103B400030917900FC01EE0FFF1FE25AFE4F3183E6
:103B500020838830910559F410925D0110925C0128
:103B600081E090E090936F0180936E0105C0019613
:103B700090935D0180935C01E0915C01F0915D01A7
:103B8000E830F10508F058C0E256FF4F80917B0005
:103B90000C9405228F7D2EC0806280937B008091E3
:103BA0007C008B7F14C08F7D80937B0080917C0094
:103BB000846025C08F7D80937B0080917C00846031
:103BC0002FC08F7D80937B0080917C0084608093E8
:103BD0007C0080917C00826017C08F7D80937B0089
:103BE00080917C00846080937C0080917C00826066
:103BF0001CC0806280937B0080917C008B7F8093CF
:103C00007C0080917C008D7F80937C0080917C0083
:103C10008E7F10C0806280937B0080917C008B7FC0
:103C200080937C0080917C008D7F80937C008091CC
:103C30007C00816080937C0080917A008068809312
:103C40007A0080917A00806480937A00FF91EF91EE
:103C50009F918F913F912F910F900FBE0F901F90CA
:103C600018950E9413080E94C30180E880936100A8
:103C7000109261000E94780181E090E0909314011D
:103C8000809313018091130190911401823091056A
:103C900091F030F4009761F08130910571F0F6CF2A
:103CA0008430910591F060F08530910521F0EECFE0
:103CB0000E94F101E7CF0E94E8110E94281DE2CF87
:103CC0000E94E8110E946A07DDCF0E94E8110E945D
:103CD000281D0E94EB06D6CF5058BB27AA270ED02E
:103CE00027C2F0D130F0F5D120F031F49F3F11F42C
:103CF0001EF4C0C10EF4E095E7FBB6C1E92F3AD23D
:103D000080F3BA17620773078407950718F071F4F8
:103D10009EF552C20EF4E0950B2EBA2FA02D0B018A
:103D2000B90190010C01CA01A0011124FF27591B00
:103D300099F0593F50F4503E68F11A16F040A22F06
:103D4000232F342F4427585FF3CF46953795279577
:103D5000A795F0405395C9F77EF41F16BA0B620B76
:103D6000730B840BBAF09150A1F0FF0FBB1F661FBD
:103D7000771F881FC2F70EC0BA0F621F731F841F00
:103D800048F4879577956795B795F7959E3F08F026
:103D9000B3CF9395880F08F09927EE0F97958795E5
:103DA000089590D158F080E891E009F49EEF91D108
:103DB00028F040E851E059F45EEF09C05BC1FCC156
:103DC000E92FE078D7D168F3092E052AC1F3261729
:103DD00037074807590738F00E2E07F8E02569F035
:103DE000E025E0640AC0EF6307F8009407FADB01FE
:103DF000B9019D01DC01CA01AD01EF934AD098D110
:103E00000AD05F91552331F02BED3FE049E450FD9E
:103E100049EC63CF0895DF93DD27B92FBF7740E8E2
:103E20005FE31616170648075B0710F4D92FCFD1AA
:103E30009F938F937F936F937CD2ECE4F1E01DD13D
:103E400077D12F913F914F915F91D4D1DD2349F0EC
:103E50009058A2EA2AED3FE049EC5FE3D0785D2775
:103E60004DDFDF9165C1DCD008F481E0089539D1E0
:103E7000E3956FC10CD05CC12CD140F023D130F060
:103E800021F45F3F19F0F0C0511197C1F3C072D116
:103E900098F39923C9F35523B1F3951B550BBB2711
:103EA000AA2762177307840738F09F5F5F4F220FBE
:103EB000331F441FAA1FA9F333D00E2E3AF0E0E8B7
:103EC00030D091505040E695001CCAF729D0FE2F03
:103ED00027D0660F771F881FBB1F26173707480795
:103EE000AB07B0E809F0BB0B802DBF01FF2793584B
:103EF0005F4F2AF09E3F510568F0B6C05EC15F3F3C
:103F0000ECF3983EDCF3869577956795B795F79532
:103F10009F5FC9F7880F911D9695879597F908952A
:103F2000E1E0660F771F881FBB1F621773078407C6
:103F3000BA0720F0621B730B840BBA0BEE1F88F7D5
:103F4000E095089504D06894B11137C108951AD14D
:103F500088F09F5790F0B92F9927B751A0F0D1F072
:103F6000660F771F881F991F1AF0BA95C9F712C0FC
:103F7000B13081F021D1B1E008951EC1672F782FB3
:103F80008827B85F39F0B93FCCF386957795679568
:103F9000B395D9F73EF490958095709561957F4FD4
:103FA0008F4F9F4F0895E89409C097FB3EF490957A
:103FB0008095709561957F4F8F4F9F4F9923A9F002
:103FC000F92F96E9BB279395F69587957795679591
:103FD000B795F111F8CFFAF4BB0F11F460FF1BC0D5
:103FE0006F5F7F4F8F4F9F4F16C0882311F096E968
:103FF00011C0772321F09EE8872F762F05C0662316
:1040000071F096E8862F70E060E02AF09A95660FCE
:10401000771F881FDAF7880F9695879597F9089587
:10402000990F0008550FAA0BE0E8FEEF16161706C9
:10403000E807F907C0F012161306E407F50798F031
:10404000621B730B840B950B39F40A2661F0232B4A
:10405000242B252B21F408950A2609F4A140A695C6
:104060008FEF811D811D089597F99F6780E870E0AB
:1040700060E008959FEF80EC0895DF93CF931F9346
:104080000F93FF92EF92DF927B018C01689405C041
:10409000DA2EEF01AFD0FE01E894A591259135917C
:1040A00045915591AEF3EF0129DEFE019701A8017C
:1040B000DA9479F7DF90EF90FF900F911F91CF91F5
:1040C000DF91089500240A941616170618060906AB
:1040D000089500240A94121613061406050608957E
:1040E000C9CF50D0E8F3E894E0E0BB279F57F0F049
:1040F0002AED3FE049EC06C0EE0FBB0F661F771FAD
:10410000881F28F0B23A62077307840728F0B25A72
:10411000620B730B840BE3959A9572F7803830F439
:104120009A95BB0F661F771F881FD2F7904806C16C
:10413000092E0394000C11F4882352F0BB0F40F4B5
:10414000BF2B11F460FF04C06F5F7F4F8F4F9F4FF5
:104150000895EF93E0FF06C0A2EA2AED3FE049ECA4
:104160005FEBCCDDE5DF0F90039401FC9058E9E7AD
:10417000F1E0F7C057FD9058440F551F59F05F3FCD
:1041800071F04795880F97FB991F61F09F3F79F079
:1041900087950895121613061406551FF2CF4695FB
:1041A000F1DF08C0161617061806991FF1CF86957D
:1041B0007105610508940895E894BB276627772761
:1041C000CB0197F908952CDF08F48FEF08959B0138
:1041D000AC0160E070E080E89FE34CCE0BD0A8CF4C
:1041E00071DF28F076DF18F0952309F03DCF42CF3C
:1041F0001124E3CFBFDFA0F3959FD1F3950F50E0DB
:10420000551F629FF001729FBB27F00DB11D639F88
:10421000AA27F00DB11DAA1F649F6627B00DA11D2E
:10422000661F829F2227B00DA11D621F739FB00DD4
:10423000A11D621F839FA00D611D221F749F332744
:10424000A00D611D231F849F600D211D822F762FDD
:104250006A2F11249F5750408AF0E1F088234AF0DA
:10426000EE0FFF1FBB1F661F771F881F9150504026
:10427000A9F79E3F510570F0F7CE9FCF5F3FECF35B
:10428000983EDCF3869577956795B795F795E79512
:104290009F5FC1F7FE2B880F911D9695879597F923
:1042A00008959F931EDF0F9007FCEE5F52CF11F42D
:1042B0000EF4E0CE41C066DFD0F39923D9F3CEF3FC
:1042C0009F57550B87FF46D00024A0E640EA900197
:1042D00080585695979528F4805C660F771F881F45
:1042E00020F026173707480730F4621B730B840B46
:1042F000202931294A2BA69517940794202531258A
:104300004A2758F7660F771F881F20F026173707B0
:10431000480730F4620B730B840B200D311D411DD7
:10432000A09581F7B901842F9158880F96958795AC
:1043300008959B01AC0152CF9F3F31F0915020F482
:10434000879577956795B795880F911D9695879571
:1043500097F9089591505040660F771F881FD2F744
:1043600008959F938F937F936F93FF93EF939B0198
:10437000AC0134DFEF91FF9180DE2F913F914F919F
:104380005F912CCFDB018F939F930E940B22BF91F3
:10439000AF91A29F800D911DA39F900DB29F900D94
:1043A0001124089597FB072E16F4009407D077FD8B
:1043B00009D00E94162207FC05D03EF49095819505
:1043C0009F4F0895709561957F4F0895052E97FB37
:1043D0001EF400940E94FD2157FD07D00E942A225E
:1043E00007FC03D04EF40C94FD2150954095309578
:1043F00021953F4F4F4F5F4F089590958095709551
:1044000061957F4F8F4F9F4F0895EE0FFF1F0590CF
:10441000F491E02D09940E944C22A59F900DB49F29
:10442000900DA49F800D911D11240895AA1BBB1B04
:1044300051E107C0AA1FBB1FA617B70710F0A61BA4
:10444000B70B881F991F5A95A9F780959095BC01C5
:10445000CD010895A1E21A2EAA1BBB1BFD010DC0C0
:10446000AA1FBB1FEE1FFF1FA217B307E407F50724
:1044700020F0A21BB30BE40BF50B661F771F881F00
:10448000991F1A9469F760957095809590959B0196
:10449000AC01BD01CF010895A29FB001B39FC0013F
:1044A000A39F700D811D1124911DB29F700D811D60
:1044B0001124911D0895BB274A3031F4992322F429
:1044C000BDE2909581959F4F0C949822BB272A308E
:1044D00051F4992342F4BDE29095809570956195D1
:1044E0007F4F8F4F9F4F0C947622BB27FA01A62F48
:1044F0006217710581059105330B30FB66F0AA2721
:10450000660F771F881F991FAA1FA21710F0A21B02
:1045100063953850A9F7A05DAA3308F0A95DA1936F
:1045200036F7B111B1931082CA010C94B122BB27A6
:10453000FB015527AA27880F991FAA1FA41710F05F
:10454000A41B83955051B9F7A05DAA3308F0A95D6B
:10455000A193009779F7B111B1931192CB010C940B
:10456000B122DC01FC01672F71917723E1F73297CB
:1045700004C07C916D9370836291AE17BF07C8F33E
:064580000895F894FFCF3E
:10458600CDCC4C3EF401F40152B89E3E00E1000051
:1045960000000801005700A9FF8DFF7300F401F425
:0C45A6000118010001009001E803FF0370
:00000001FF
