:100000000C9486010C94A3010C94A3010C94241E5F
:100010000C94A3010C94A3010C94A3010C94A301D0
:100020000C94A3010C94A3010C9444190C947E1914
:100030000C94A3010C94A3010C94A3010C94A301B0
:100040000C94A3010C94D8010C94A3010C94A3016B
:100050000C94A3010C94A3010C94A3010C94A30190
:100060000C94A3010C94A3010C94A3010C94A30180
:100070000C94A3010C9477210C94A3010C94A3017C
:100080000C94A3010C94A3010C94A3010C94A30160
:100090000C94A3010C94A3010C94A3010C94A30150
:1000A0000C94A3010C94A3010C94A301EC18E41884
:1000B000DC18D418CC18C418BC18B418AC18A41880
:1000C0009C1894188C1884187C1874186C18641870
:1000D0005C1854184C1844183C1834182C18241860
:1000E0001C1814180C180418FC17F417EC17E41754
:1000F000DC17D417CC17C417BC17B417AC17A41748
:100100009C1794178C1784177C1774176C17641737
:100110005C1754174C1744173C1734172C17241727
:100120001C1714170C170417FC16F416EC16841D74
:10013000AF1DDA1DE61D1D1E111E1B1ECB1FF11F5C
:10014000CB1F2F201720472082201A221C22282272
:1001500034223B22422249225A22084AD73B3BCE34
:10016000016E84BCBFFDC12F3D6C74319ABD5683B6
:100170003DDA3D00C77F11BED9E4BB4C3E916BAA6E
:10018000AABE000000803F05A84CCDB2D44EB938BD
:1001900036A9020C50B9918688083CA6AAAA2ABEA4
:1001A000000000803F00094443423A0009444341B3
:1001B0003A0009646966663A0009746865746132D8
:1001C000676F616C3A000974686574613A00097977
:1001D0003A000A783A00000100006D0212000200A5
:1001E000002A02430003000026020401030904124E
:1001F0000212020309040A020603030904000208AA
:100200000803340031003000000006034D003200C6
:10021000000012034A002E0020004600690065001D
:100220006E00650000000403090409024300020196
:1002300000C0320904000001020201000524001080
:10024000010524010101042402060524060001071A
:1002500005820310004009040100020A00000007A3
:10026000050302400000070584024000001201005F
:100270000202000010C0167A04000101020301000E
:1002800001C11201803601813666776433007269DC
:1002900067687435006C65667435006C6566743427
:1002A0000072696768743400726967687433006C3F
:1002B00065667433006C65667432007269676874D1
:1002C00032006677643100726967687431006C656A
:1002D0006674310009416D6269656E743A200009E7
:1002E000443A20000949523A200009494C3A20007A
:1002F00009544C3A2000094C3A200009423A2000A7
:1003000009523A20000A54523A20000011241FBE1C
:10031000CFEFDAE0DEBFCDBF11E0A0E0B1E0E6ED67
:10032000FDE402C005900D92AC32B107D9F721E08F
:10033000ACE2B1E001C01D92AC3BB207E1F70E9414
:1003400095220C94E9260C94000010924901109219
:100350004A0110924B0110924C01109285001092AC
:1003600084000895E1E8F0E080818B7F80838081C4
:100370008260808380818160808380818F7E8083A2
:10038000808188608083E0E8F0E080818D7F8083D9
:1003900080818E7F8083EFE6F0E0808182608083C1
:1003A0008AEF90E090938900809388000C94A501D7
:1003B0001F920F920FB60F9211248F939F93AF93BA
:1003C000BF938091490190914A01A0914B01B09156
:1003D0004C010196A11DB11D8093490190934A01E2
:1003E000A0934B01B0934C01BF91AF919F918F911E
:1003F0000F900FBE0F901F9018954B9A80911E0181
:1004000090911F01019729F48CE59FE8A2E8BFE3D2
:1004100004C08AE999E9A9E9BFE380938D0190932B
:100420008E01A0938F01B093900108954B9B0E9481
:10043000FD01479A469881E090E090937E01809379
:100440007D0108954B9B0E94FD014798469A1092AA
:100450007E0110927D0108954B9B0E94FD012E9A12
:100460002D9881E090E09093010180930001089520
:100470004B9B0E94FD012E982D9A10920101109223
:10048000000108955B9808958F929F92AF92BF925A
:10049000CF92DF92EF92FF920F931F93CF93DF9350
:1004A000C0908D01D0908E01E0908F01F09090016E
:1004B00060918B0170918C01882777FD8095982F32
:1004C0000E942524A70196010E943E254B015C0154
:1004D00020E030E048EC52E40E94832387FF09C00B
:1004E000C501B4010E94F22370938C0160938B01CB
:1004F00014C060917B0170917C01882777FD809505
:10050000982F0E942524A70196010E948A230E9409
:10051000F22370937C0160937B0180917D01909127
:100520007E016091CF0070E0892B89F080E090E03F
:100530000E94252420E030E048EC52E40E943E2551
:1005400020E030E04FE753E40E948A2318C080E0A7
:1005500090E00E94252420E030E048EC52E40E9424
:100560003E2520E030E04FE753E40E948A239B01C0
:10057000AC0160E070E088EC92E40E94BC220E9432
:10058000F2238B0180910001909101016091D000D4
:1005900070E0892B89F080E090E00E94252420E023
:1005A00030E048EC52E40E943E2520E030E04FE786
:1005B00053E40E948A2318C080E090E00E94252422
:1005C00020E030E048EC52E40E943E2520E030E09C
:1005D0004FE753E40E948A239B01AC0160E070E086
:1005E00088EC92E40E94BC220E94F223EB01B80145
:1005F000882777FD8095982F0E9425242DEC3CECD0
:100600004CE45EE30E943E256B017C0160918B010E
:1006100070918C01882777FD8095982F0E94252462
:100620002DEC3CEC4CE45FE30E943E259B01AC01C9
:10063000C701B6010E94BD220E94F2234B015C015A
:10064000BE01882777FD8095982F0E9425242DECE8
:100650003CEC4CE45EE30E943E256B017C01609122
:100660007B0170917C01882777FD8095982F0E94EF
:1006700025242DEC3CEC4CE45FE30E943E259B01DD
:10068000AC01C701B6010E94BD220E94F2236B019A
:100690007C01EB0197FC15C00E9416028FEF889D2C
:1006A000B001899D700D1124882777FD8095982FC2
:1006B0000E94252420E030E048EC52E40E948A2386
:1006C0001AC00E9422028FEF889DB001899D700D93
:1006D0001124882777FD8095982F0E94252420E0FB
:1006E00030E048EC52E40E948A2320E030E04FE7FB
:1006F00053E40E94BD220E94F7236093CF00D7FDF0
:1007000015C00E942C028FEF8C9DB0018D9D700D45
:100710001124882777FD8095982F0E94252420E0BA
:1007200030E048EC52E40E948A231AC00E9438024A
:100730008FEF8C9DB0018D9D700D1124882777FD62
:100740008095982F0E94252420E030E048EC52E468
:100750000E948A2320E030E04FE753E40E94BD224C
:100760000E94F7236093D000DF91CF911F910F91EA
:10077000FF90EF90DF90CF90BF90AF909F908F90C1
:10078000089584E690E090938C0180938B01909380
:100790007C0180937B010C9444028BE490E0909365
:1007A0008C0180938B0190937C0180937B010C944E
:1007B00044028CE99FEF90938C0180938B0190937E
:1007C0007C0180937B010C94440285EB9FEF909316
:1007D0008C0180938B0190937C0180937B010C941E
:1007E00044028AE590E090938C0180938B0182E330
:1007F00090E090937C0180937B010C94440282E30F
:1008000090E090938C0180938B018AE590E0909327
:100810007C0180937B010C9444028CE390E09093E4
:100820008C0180938B018EE190E090937C0180930A
:100830007B010C9444028EE190E090938C018093B4
:100840008B018CE390E090937C0180937B010C946E
:10085000440284E690E090938C0180938B018CE9B4
:100860009FEF90937C0180937B010C9444028CE970
:100870009FEF90938C0180938B0184E690E090939E
:100880007C0180937B010C944402CF93DF93C4EFEF
:10089000D1E00E94D90321972097D9F7DF91CF911A
:1008A00008954F925F926F927F928F929F92AF9234
:1008B000BF92CF92DF92EF92FF9220915901309137
:1008C0005A0140915B0150915C010E94BC226B0176
:1008D0007C0160913A0170913B01882777FD8095FA
:1008E000982F0E9425244B015C019B01AC01C7019C
:1008F000B6010E943E2520918701309188014091E8
:10090000890150918A010E94BD22609387017093F2
:1009100088018093890190938A0120E030E0A90149
:100920000E943E259B01AC01C701B6010E94BD2279
:100930002B013C0120917F01309180014091810188
:1009400050918201C701B6010E94BC2220E030E034
:10095000A9010E943E25A50194010E948A239B01C2
:10096000AC01C301B2010E94BD22C0927F01D092AE
:100970008001E0928101F0928201FF90EF90DF9080
:10098000CF90BF90AF909F908F907F906F905F902F
:100990004F9008954F925F926F927F928F929F92A5
:1009A000AF92BF92CF92DF92EF92FF9220912E01F1
:1009B00030912F0140913001509131010E94BC22B1
:1009C0006B017C0160913A0170913B01882777FDB2
:1009D0008095982F0E9425244B015C019B01AC015E
:1009E000C701B6010E943E25209183013091840108
:1009F00040918501509186010E94BD226093830140
:100A000070938401809385019093860120E030E00B
:100A1000A9010E943E259B01AC01C701B6010E94BD
:100A2000BD222B013C01209177013091780140914A
:100A3000790150917A01C701B6010E94BC2220E0E1
:100A400030E0A9010E943E25A50194010E948A235D
:100A50009B01AC01C301B2010E94BD22C0927F0183
:100A6000D0928001E0928101F0928201FF90EF909C
:100A7000DF90CF90BF90AF909F908F907F906F90BE
:100A80005F904F9008958F929F92AF92BF92CF92B6
:100A9000DF92EF92FF924B015C0120E030E0A90170
:100AA0000E94832387FF0AC029EF3FE049EC50E40E
:100AB000C501B4010E94BD224B015C012091590186
:100AC00030915A0140915B0150915C01C501B40124
:100AD0000E94BD226B017C0129EF3FE049EC50E40C
:100AE0000E943325181654F429EF3FE049EC50E4F6
:100AF000C701B6010E94BC226B017C0129EF3FE0D7
:100B000049E450E4C501B4010E94832387FF40C03B
:100B10002091590130915A0140915B0150915C0143
:100B2000C701B6010E94BC220E94F2239B0177FFFD
:100B300004C022273327261B370BB901882777FDEE
:100B40008095982F0E942524209102013091030165
:100B500040910401509105010E943325181674F547
:100B60000E942904D5CFB901882777FD8095982F59
:100B70000E9425242091020130910301409104013B
:100B8000509105010E9433251816C4F40E943704C1
:100B90002091590130915A0140915B0150915C01C3
:100BA000C701B6010E94BC220E94F2239B0177FF7D
:100BB000DACF22273327261B370BD5CFFF90EF90B4
:100BC000DF90CF90BF90AF909F908F900895CF927D
:100BD000DF92EF92FF926B017C0120E030E0A901EF
:100BE0000E94832387FF0AC029EF3FE049EC50E4CD
:100BF000C701B6010E94BD226B017C0129EF3FE0D5
:100C000049E450E4C701B6010E94832387FF40C036
:100C10002091590130915A0140915B0150915C0142
:100C2000C701B6010E94BC220E94F2239B0177FFFC
:100C300004C022273327261B370BB901882777FDED
:100C40008095982F0E942524209102013091030164
:100C500040910401509105010E943325181674F546
:100C60000E942904D5CFB901882777FD8095982F58
:100C70000E9425242091020130910301409104013A
:100C8000509105010E9433251816C4F40E943704C0
:100C90002091590130915A0140915B0150915C01C2
:100CA000C701B6010E94BC220E94F2239B0177FF7C
:100CB000DACF22273327261B370BD5CFFF90EF90B3
:100CC000DF90CF9008950E9429042FEF83ED90E3E9
:100CD000215080409040E1F700C000000C94420297
:100CE000089520E030E0A90160913601709137014C
:100CF00080913801909139010E94332518162CF407
:100D000010922D0110922C01089581E090E09093B3
:100D10002D0180932C0108958F929F92AF92BF92E4
:100D2000CF92DF92EF92FF920F931F93CF93DF93B7
:100D300000D000D0CDB7DEB780915D0190915E010B
:100D40000091220110912301E0902001F0902101F7
:100D50008090590190905A01A0905B01B0905C0185
:100D6000B801892B09F044C062587109882777FDC2
:100D70008095982F0E9425249B01AC01B7018827FC
:100D800077FD8095982F29833A834B835C830E945B
:100D9000252429813A814B815C810E94302329EFEF
:100DA0003FE049EC5FE30E94BD226B017C0129EF2B
:100DB0003FE049E450E40E943325181654F429EF2B
:100DC0003FE049EC50E4C701B6010E94BC226B0130
:100DD0007C0120E030E0A901C501B4010E94332567
:100DE00018160CF04CC0101611060CF445C041C08A
:100DF0006E577F4F882777FD8095982F0E94252476
:100E00009B01AC01B701882777FD8095982F298336
:100E10003A834B835C830E94252429813A814B814C
:100E20005C810E94302329EF3FE049EC5FE30E94A0
:100E3000BD226B017C0129EF3FE049E450E40E94B0
:100E40003325181654F429EF3FE049EC50E4C7016C
:100E5000B6010E94BC226B017C0120E030E0A901B8
:100E6000C501B4010E94832387FF09C01016110633
:100E70001CF40E94F10369C00E94FF0366C0A70131
:100E80009601C501B4010E94BC224B015C0120E027
:100E900030E0A9010E943325181664F584E690E03D
:100EA00090938C0180938B0120E030E040E252E48B
:100EB000C501B4010E943E259B01AC0160E070E0D9
:100EC00088EC92E40E94BC224B015C0120E030E0FF
:100ED0004CE552E40E94832387FD05C0C501B4019F
:100EE0000E94F22302C067E370E070937C0160937C
:100EF0007B0129C020E030E040E252E4C501B401AA
:100F00000E943E2520E030E048EC52E40E94BD22E1
:100F10004B015C0120E030E04CE552E40E94832369
:100F200087FD05C0C501B4010E94F22302C067E33A
:100F300070E070938C0160938B0184E690E0909355
:100F40007C0180937B010E94440260914901709171
:100F50004A0180914B0190914C012AE030E040E041
:100F600050E00E942226672B682B692B09F07BC07A
:100F700082ED91E00E94CD1A80912201909123018F
:100F80000E94011B8EEC91E00E94CD1A80912001FD
:100F9000909121010E94011B86EC91E00E94CD1AE4
:100FA00020E030E04AE754E46091590170915A0121
:100FB00080915B0190915C010E943E250E94F2238A
:100FC000CB010E94011B89EB91E00E94CD1A20E029
:100FD00030E04AE754E4C701B6010E943E250E9472
:100FE000F223CB010E94011B82EB91E00E94CD1AFB
:100FF000A70196016091590170915A0180915B019E
:1010000090915C010E94BC2220E030E04AE754E469
:101010000E943E250E94F223CB010E94011B8CEA14
:1010200091E00E94CD1A80918B0190918C010E94D9
:10103000011B86EA91E00E94CD1A80917B0190917C
:101040007C010F900F900F900F90DF91CF911F9127
:101050000F91FF90EF90DF90CF90BF90AF909F9057
:101060008F900C94011B0F900F900F900F90DF91B9
:10107000CF911F910F91FF90EF90DF90CF90BF9095
:10108000AF909F908F9008958F929F92AF92BF9252
:10109000CF92DF92EF92FF92CF93DF9300D000D0F8
:1010A000CDB7DEB78090220190902301881A990A6B
:1010B000A0902001B0902101A61AB70AB401882798
:1010C00077FD8095982F0E9425249B01AC01B501E6
:1010D000882777FD8095982F29833A834B835C83FB
:1010E0000E94252429813A814B815C810E94302312
:1010F00029EF3FE049EC5FE30E94BD226B017C01D8
:1011000029EF3FE049E450E40E943325181654F4D7
:1011100029EF3FE049EC50E4C701B6010E94BC2230
:101120006B017C0189E0880E911CE3E18E1691042D
:1011300060F4F9E0AF0EB11C83E1A816B10428F405
:101140000E94420281E090E02EC080905901909070
:101150005A01A0905B01B0905C01A7019601C50106
:10116000B4010E94BC222DEC3CEC4CE45EE30E94F6
:10117000332518161CF40E94F10313C0A501940135
:10118000C701B6010E94BC222DEC3CEC4CE45EE3AE
:101190000E94332518161CF40E94FF0302C00E940F
:1011A000C10380E090E00F900F900F900F90DF91BF
:1011B000CF91FF90EF90DF90CF90BF90AF909F9036
:1011C0008F90089580911E0190911F01019719F44D
:1011D00064E170E002C06CEE7FEF2091220130915B
:1011E0002301C90186549109459780F4809120011B
:1011F00090912101861B970B0A96459738F481E060
:1012000090E090932D0180932C0112C0265A3F4FFD
:101210002531310568F48091200190912101861BD0
:10122000970B0A96459720F410922D0110922C01ED
:1012300080912C0190912D01892B19F080EB9FEF6B
:1012400002C080E590E00C9444080E94041C8111C7
:1012500003C06A9A7298FDCF6A9A729A08954AE01A
:1012600060911D0181E00C94E814CF93DF9380E836
:1012700085BF85BFECE7F0E080818F7B8083808134
:1012800080688083EAE7F0E08081846080838081E9
:1012900082608083808181608083AEE7B0E08C9142
:1012A00081608C93CDE7D0E08881846088838C91C5
:1012B00080618C938C9180628C938C9180648C93F0
:1012C0008C9180688C938881816088838881886014
:1012D000888380818860808380818F7D8083808106
:1012E00080688083808180648083DF91CF910895BE
:1012F000539A3E9A269A3F9A259A469A2E9A479A48
:101300002D9A539AE1ECF0E080818860808380819F
:101310008B7F808380818D7F808380818E7F80839F
:10132000E3ECF0E080818D7F808380818E7F8083FD
:10133000E0ECF0E08081826080838081806880833F
:1013400080818F7B808380818160808380818062C7
:10135000808380818F7E80838FEF8093D100809304
:10136000CF008093D000089580911E0190911F01BD
:101370008130910531F018F0029729F008958AE143
:1013800003C088E101C089E180931D0108950E9496
:10139000E1150E9440147894219A229A209A0E9482
:1013A000B4090E9425090E942F090E9478090C9413
:1013B000350920915F01309160012130310519F428
:1013C000892B19F505C022303105F9F40197E9F4AC
:1013D00081E090E090935E0180935D0183E89FEF50
:1013E00090931A01809319012DE730E030931C018E
:1013F00020931B0125E530E0309316012093150161
:101400009093180180931701089510925E01109235
:101410005D018DE790E090931A018093190123E814
:101420003FEF30931C0120931B012BEA3FEF3093D9
:1014300018012093170190931601809315010895C8
:101440008F929F92AF92BF92CF92DF92EF92FF92D4
:101450000F931F93CF93DF936091490170914A01DD
:1014600080913C0190913D01681B790B70933B0189
:1014700060933A01C0912201D0912301882777FD22
:101480008095982F0E9425246B017C018091080192
:1014900090910901BE01681B790B882777FD809523
:1014A000982F0E942524A70196010E948A23609309
:1014B0003601709337018093380190933901009180
:1014C0002001109121018091060190910701B8013E
:1014D000681B790B882777FD8095982F0E9425241B
:1014E000A70196010E948A23609332017093330111
:1014F00080933401909335018090590190905A0166
:10150000A0905B01B0905C012091400130914101BD
:101510004091420150914301C501B4010E94BC2297
:10152000A70196010E948A2360932E0170932F01D8
:101530008093300190933101D0930901C093080149
:10154000109307010093060180924001909241019F
:10155000A0924201B0924301DF91CF911F910F9170
:10156000FF90EF90DF90CF90BF90AF909F908F90C3
:101570000895AF92BF92CF92DF92EF92FF920F93B6
:101580001F93CF93DF936091080170910901A090A0
:101590002201B0902301C0912001D0912101643F2C
:1015A00081E0780741F00091060110910701043FA6
:1015B00081E01807C9F4B0920901A0920801D09304
:1015C0000701C09306018091590190915A01A091A1
:1015D0005B01B0915C018093400190934101A09325
:1015E0004201B0934301ACC0C501861B970B4396E3
:1015F000879738F0CE01801B910B4396879708F0B0
:1016000087C0882777FD8095982F0E9425242DEC90
:101610003CEC4CEC5DE30E943E256B017C01B50186
:10162000882777FD8095982F0E94252426E636E6A8
:1016300046E65FE30E943E259B01AC01C701B6016F
:101640000E94BD220E94F223709323016093220125
:10165000B801882777FD8095982F0E9425242DECCE
:101660003CEC4CEC5DE30E943E256B017C01BE012D
:10167000882777FD8095982F0E94252426E636E658
:1016800046E65FE30E943E259B01AC01C701B6011F
:101690000E94BD220E94F2237093210160932001D9
:1016A0002DEC3CEC4CEC5DE360914001709141010C
:1016B00080914201909143010E943E256B017C0183
:1016C00026E636E646E65FE36091590170915A01DD
:1016D00080915B0190915C010E943E259B01AC01D1
:1016E000C701B6010E94BD226093590170935A014F
:1016F00080935B0190935C01DF91CF911F910F91DB
:10170000FF90EF90DF90CF90BF90AF900C94200AA5
:101710007093230160932201109321010093200113
:101720008091400190914101A0914201B09143010B
:101730008093590190935A01A0935B01B0935C018F
:10174000DF91CF911F910F91FF90EF90DF90CF909D
:10175000BF90AF9008954F925F926F927F928F9259
:101760009F92AF92BF92CF92DF92EF92FF920F9330
:101770001F93CF93DF93CDB7DEB728970FB6F894BA
:10178000DEBF0FBECDBF6B01490157012091220181
:101790003091230130930901209308012091200109
:1017A00030912101309307012093060140905901A7
:1017B00050905A0160905B0170905C014092400132
:1017C000509241016092420170924301481B590BB3
:1017D000BA01882777FD8095982F0E9425249B01C8
:1017E000AC01B4016C197D09882777FD8095982F8D
:1017F0002D833E834F8358870E9425242D813E816F
:101800004F8158850E94302329EF3FE049EC5FE388
:101810000E94BC226B017C0129EF3FE049E450ECBF
:101820000E94832387FD09C0C0925901D0925A01BA
:10183000E0925B01F0925C0110C029EF3FE049ECBF
:1018400050E4C701B6010E94BD2260935901709314
:101850005A0180935B0190935C01B501882777FD65
:101860008095982F0E9425244B015C01B8018827A0
:1018700077FD8095982F0E9425242B013C01A5011E
:1018800094010E943023905829EF3FE049EC5FE338
:101890000E94BC226B017C0129EF3FE049E450EC3F
:1018A0000E94832387FF0AC029EF3FE049EC50E400
:1018B000C701B6010E94BD226B017C0120E030E02F
:1018C00040E251E4C301B2010E948A232B013C0192
:1018D00020E030E040E251E4C501B4010E948A23D7
:1018E0004B015C01A3019201C301B2010E943E259C
:1018F0002B013C01A5019401C501B4010E943E25C4
:101900009B01AC01C301B2010E94BD220E94AB2524
:1019100020E030E040E251E40E943E252B013C01F2
:1019200029EF3FE049E450E46091590170915A0178
:1019300080915B0190915C010E94BD224B015C0192
:10194000A70196010E94BC226B017C0129EF3FE0B8
:1019500049E450EC0E94832387FF0AC029EF3FE04F
:1019600049EC50E4C701B6010E94BD226B017C0125
:1019700029EF3FE049E450E4C701B6010E94332556
:10198000181654F429EF3FE049EC50E4C701B601C2
:101990000E94BC226B017C01C701B6010E94872313
:1019A0009B01AC0180910A0190910B01A0910C0167
:1019B000B0910D0189839A83AB83BC83C301B201CB
:1019C0000E943E2529813A814B815C810E943E25FF
:1019D0000E94F223719561957109709323016093C0
:1019E0002201C701B6010E94A1259B01AC01C301E0
:1019F000B2010E943E2529813A814B815C810E947F
:101A00003E250E94F2237195619571097093210121
:101A10006093200129EF3FE049E450E4C501B4019F
:101A20000E94332518164CF08092590190925A0169
:101A3000A0925B01B0925C0110C029EF3FE049EC3D
:101A400050E4C501B4010E94BC2260935901709317
:101A50005A0180935B0190935C0128960FB6F8942D
:101A6000DEBF0FBECDBFDF91CF911F910F91FF90D1
:101A7000EF90DF90CF90BF90AF909F908F907F902E
:101A80006F905F904F900C94B90A2F923F924F92B3
:101A90005F926F927F928F929F92AF92BF92CF92FE
:101AA000DF92EF92FF920F931F93CF93DF93CDB707
:101AB000DEB760970FB6F894DEBF0FBECDBF1C0136
:101AC0007A876987FC01A281B38120813181AD01D0
:101AD000421B530BFB010280F381E02DFE83ED835B
:101AE000FB01C080D1808D819E818C199D09449F0E
:101AF0004001459F900C900C1124889FA001899F64
:101B0000500D500D1124840E951EAA2497FCA0940C
:101B1000BA2CF101448155817A01E21AF30AFB01E2
:101B20000480F581E02DFC87EB878F010C191D09DE
:101B3000EE9CB001EF9C700D700D1124009F7001A0
:101B4000019FF00CF00C11246E0D7F1D2B016624FB
:101B500057FC6094762CF101668177817B01E21A53
:101B6000F30AE985FA852681378189010C191D0957
:101B7000EE9CC001EF9C900D900D1124009F700110
:101B8000019FF00CF00C11248E0D9F1D7C0100278D
:101B9000F7FC0095102FE982FA820B831C837A01EF
:101BA000EA1AFB0A0B851C858D819E81081B190B87
:101BB000EE9C6001EF9CD00CD00C1124009F7001B2
:101BC000019FF00CF00C1124CE0CDF1CEE24D7FC8E
:101BD000E094FE2CFB01EA1BFB0BC9010D811E8169
:101BE000801B910BEE9F8001EF9F100D100D1124B3
:101BF000889FD001899FB00DB00D11240A0F1B1FC3
:101C0000C801AA2797FDA095BA2F8D839E83AF8325
:101C1000B887641B750BAB85BC852A1B3B0B669F85
:101C2000C001679F900D900D1124229FA001239F5A
:101C3000500D500D1124840F951F8C01222717FD84
:101C40002095322F0D871E872F87388BF42DE52D99
:101C5000962D872D481459046A047B0424F4F82D2A
:101C6000E92D9A2D8B2D4F2F5E2F692F782F89818B
:101C70009A81AB81BC81481759076A077B0714F426
:101C8000AC01BD014C155D056E057F0514F4B7016F
:101C9000A6010D811E812F813885401751076207EB
:101CA000730714F4B901A8018D859E85AF85B889A5
:101CB000481759076A077B0714F4AC01BD01942D3E
:101CC000852DF62DE72D84149504A604B70424F47D
:101CD000982D892DFA2DEB2D092F182F2F2F3E2F00
:101CE00089819A81AB81BC8180179107A207B307D4
:101CF00014F48C019D01D901C801C016D106E20679
:101D0000F30614F4D701C6018C019D018D819E81DB
:101D1000AF81B88580179107A207B30714F48C012F
:101D20009D01D901C8010D851E852F8538890817A9
:101D300019072A073B0714F4D901C80148155905AA
:101D40006A057B05A1F484159505A605B70519F468
:101D500021E030E091C029813A814B815C8182177A
:101D60009307A407B507A1F320E030E03EC0441577
:101D7000550566057705A1F488159905AA05BB05E3
:101D800019F422E030E078C0E980FA800B811C81F0
:101D90008E159F05A007B107A1F320E030E05DC0DC
:101DA00009811A812B813C81401751076207730713
:101DB00081F484159505A605B70519F423E030E0F4
:101DC0005BC088159905AA05BB05C1F320E030E08A
:101DD0004EC04C155D056E057F05B1F4881599055B
:101DE000AA05BB0529F422E030E081E090E046C07E
:101DF0002D813E814F81588582179307A407B5072F
:101E000091F321E030E029C00D811E812F813885BA
:101E1000401751076207730781F488159905AA05D1
:101E2000BB0519F423E030E0E0CF8C159D05AE052D
:101E3000BF05C1F321E030E01AC00D851E852F8556
:101E400038894017510762077307A1F48415950577
:101E5000A605B70529F423E030E082E090E00EC04B
:101E60008C159D05AE05BF05B1F322E030E083E09F
:101E700090E004C020E030E080E090E0BC01660F1C
:101E8000771FF101E60FF71F80819181220F331F29
:101E9000F101E20FF31F40815181E985FA85E60FD8
:101EA000F71F60817181E985FA85E20FF31F2081B8
:101EB00031817B01E20EF31EF7FE03C01FEFE11A32
:101EC000F10AF594E7948C01040F151F17FF02C067
:101ED0000F5F1F4F159507950E94AB0B60960FB6CD
:101EE000F894DEBF0FBECDBFDF91CF911F910F9150
:101EF000FF90EF90DF90CF90BF90AF909F908F902A
:101F00007F906F905F904F903F902F9008952F9209
:101F10003F924F925F926F927F928F929F92AF9279
:101F2000BF92CF92DF92EF92FF920F931F93CF93C6
:101F3000DF93CDB7DEB760970FB6F894DEBF0FBE64
:101F4000CDBF8C011B01DC0112966D917C91139722
:101F5000CD90DC90DE86CD86FB01EC19FD09D10128
:101F600012962D913C911397CD90DC90D88ACF8614
:101F7000A9014C195D09EE9FC001EF9F900D900DD6
:101F80001124449FF001459FF00DF00D11248E0F98
:101F90009F1F6C01EE24D7FCE094FE2CC982DA82EC
:101FA000EB82FC82D8011496ED90FC9015976701A6
:101FB000ED85FE85CE1ADF0AD10114964D915C9114
:101FC0001597DA01EF85F889AE1BBF0BCC9CC001D9
:101FD000CD9C900D900D1124AA9FF001AB9FF00DA8
:101FE000F00D11248E0F9F1F2C01662457FC609466
:101FF000762CF701E61BF70B421B530BEE9FC0013B
:10200000EF9F900D900D1124449F9001459F300D3E
:10201000300D1124820F931F6C01EE24D7FCE09445
:10202000FE2CCD82DE82EF82F886342D252D962D72
:10203000872DC980DA80EB80FC804C145D046E042F
:102040007F0424F439812A819B818C81C32ED22E76
:10205000E92EF82E2D813E814F815885C216D30678
:10206000E406F50614F469017A01342D252D962D28
:10207000872D49815A816B817C8144155505660500
:10208000770524F439812A819B818C81832E922EBD
:10209000A92EB82E6D817E818F819885681579056E
:1020A0008A059B0514F44B015C01C701B6010E942F
:1020B000252469877A878B879C87C501B4010E9494
:1020C00025249B01AC0169857A858B859C850E94BE
:1020D0008A2369877A878B879C8720E030E040E0FD
:1020E00050E40E94832387FF3EC189819A81AB819E
:1020F000BC81C816D906EA06FB0651F4841495047F
:10210000A604B70489F51A82198221E030E032C0B2
:10211000C414D504E604F70471F4C980DA80EB80B6
:10212000FC808C149D04AE04BF0439F51A82198218
:1021300022E030E028C02D813E814F815885C216B3
:10214000D306E406F50611F5C980DA80EB80FC8041
:102150008C149D04AE04BF04F1F421E030E03A8316
:10216000298322E030E01DC041E050E05A834983DA
:1021700020E030E082E090E016C062E070E07A8318
:10218000698320E030E081E090E00DC01A8219827E
:1021900020E030E006C082E090E09A83898321E06D
:1021A00030E080E090E06901CC0CDD1CF801EC0D22
:1021B000FD1D608071807C01EE0CFF1CB30188273F
:1021C00077FD8095982F0E9425244B015C01F80132
:1021D000EE0DFF1D80819181B301681B790B88276B
:1021E00077FD8095982F0E94252422EA35E446E069
:1021F0005FE30E943E259B01AC01C501B4010E9432
:10220000BD220E94F2234B015C01F101EC0DFD1D8A
:10221000C080D180B601882777FD8095982F0E94D5
:1022200025242B013C01F101EE0DFF1D80819181E0
:10223000B601681B790B882777FD8095982F0E943F
:10224000252422EA35E446E05FE30E943E259B0117
:10225000AC01C301B2010E94BD220E94F2236D8332
:102260007E838F839887C980DA80CC0CDD1CDA8668
:10227000C986F601E00FF11FC080D180DA82C982E1
:10228000B401882777FD8095982F0E9425246B0143
:102290007C0129813A81B901882777FD8095982FA3
:1022A0000E9425242B013C0169817A8168197909F2
:1022B000882777FD8095982F0E94252428EA36EC00
:1022C0004BE85EE30E943E259B01AC01C301B201D5
:1022D0000E94BD229B01AC01C701B6010E94BC2235
:1022E0000E94F2234B015C01E985FA85E20DF31DA2
:1022F000208031804D815E81BA01882777FD8095ED
:10230000982F0E9425246B017C01B101882777FD5D
:102310008095982F0E9425242B013C01B1018D81CD
:102320009E81681B790B882777FD8095982F0E94E6
:10233000252428EA36EC4BE85EE30E943E259B010B
:10234000AC01C301B2010E94BD229B01AC01C701D7
:10235000B6010E94BC220E94F2237B0184019101FC
:1023600049815A8156C120E030E040E850E4698557
:102370007A858B859C850E94332518160CF44CC1F8
:10238000A7019601C701B6010E941226A50194017A
:102390000E94222628393840410551050CF03CC1E5
:1023A00029813A814B815C81C216D306E406F50689
:1023B00061F484149504A604B704A9F520E030E084
:1023C00042E050E05A83498347C0C414D504E60470
:1023D000F70481F4C980DA80EB80FC808C149D04C2
:1023E000AE04BF0439F520E030E041E050E05A830C
:1023F000498316C06D817E818F819885C616D70668
:10240000E806F906F1F4C980DA80EB80FC808C14D0
:102410009D04AE04BF04E1F421E030E01A82198289
:1024200082E090E01BC021E030E042E050E05A83BF
:1024300049830BC022E030E061E070E07A83698379
:1024400004C020E030E01A82198280E090E006C0EB
:1024500022E030E01A82198281E090E04901880C84
:10246000991CF801E80DF91D608071805C01AA0CCF
:10247000BB1CB301882777FD8095982F0E942524E7
:102480006B017C01F801EA0DFB1D80819181681AC6
:10249000790AB301882777FD8095982F0E9425241B
:1024A00022EA35E446E05FE30E943E259B01AC0151
:1024B000C701B6010E94BD220E94F2236B017C017C
:1024C000F101E80DF91D80809180B401882777FD26
:1024D0008095982F0E9425242B013C01F101EA0DE3
:1024E000FB1D80819181881A990AB401882777FDA4
:1024F0008095982F0E94252422EA35E446E05FE388
:102500000E943E259B01AC01C301B2010E94BD2285
:102510000E94F2236D837E838F83988789819A81BD
:10252000880F991F9A838983FC01E00FF11F0081B6
:102530001181B601882777FD8095982F0E94252468
:102540004B015C01B801882777FD8095982F0E9488
:1025500025242B013C01B8016C197D09882777FDE2
:102560008095982F0E9425242FED3FE44DEC5FE3EA
:102570000E943E259B01AC01C301B2010E94BD2215
:102580009B01AC01C501B4010E94BC220E94F22350
:102590004B015C01A981BA81A20DB31D0D911C9163
:1025A000AD81BE81BD01882777FD8095982F0E945F
:1025B00025246B017C01B801882777FD8095982F31
:1025C0000E9425242B013C01B801ED81FE816E1B88
:1025D0007F0B882777FD8095982F0E9425242FED6B
:1025E0003FE44DEC5FE30E943E259B01AC01C3013B
:1025F000B2010E94BD229B01AC01C701B6010E943D
:10260000BC220E94F2237B0184012F8538894D85ED
:102610005E85B401C40170C029813A814B815C811F
:10262000C216D306E406F50641F484149504A60404
:10263000B70429F521E030E02CC0C414D504E60429
:10264000F70461F4C980DA80EB80FC808C149D046F
:10265000AE04BF04B9F422E030E01BC02D813E81FE
:102660004F815885C216D306E406F50681F484141A
:102670009504A604B70481F421E030E005C020E011
:1026800030E00CC020E030E082E090E009C020E0C3
:1026900030E080E090E004C022E030E081E090E0B3
:1026A000BC01660F771FF801E60FF71F808191814B
:1026B000220F331FF801E20FF31F40815181F10116
:1026C000E60FF71F60817181F101E20FF31F208196
:1026D00031817B01E20EF31EF7FE03C0AFEFEA1A71
:1026E000FA0AF594E7948C01040F151F17FF02C036
:1026F0000F5F1F4F159507950E94AB0B60960FB6A5
:10270000F894DEBF0FBECDBFDF91CF911F910F9127
:10271000FF90EF90DF90CF90BF90AF909F908F9001
:102720007F906F905F904F903F902F900895CF9340
:10273000DF93CDB7DEB760970FB6F894DEBF0FBE5C
:10274000CDBFE2E9F1E080E090E0408151814F3F70
:1027500023E05207C9F0228133812F3F63E036071F
:1027600099F0DC01AA0FBB1F61E070E06C0F7D1FC8
:10277000A60FB71F525019965C934E931897205886
:1027800031402D933C930196369671E0EA3AF70773
:10279000E1F68430910541F4BE016F5F7F4FCE01B9
:1027A00009960E94450D09C0039751F4BE016F5F61
:1027B0007F4FCE0109960E94870F6E9A769A02C0CB
:1027C0006E9A769860960FB6F894DEBF0FBECDBFB6
:1027D000DF91CF91089582E991E00E94E91C8093F6
:1027E000910181110E949713809191010895809128
:1027F0005D0190915E012091220130912301892B8E
:1028000051F481E090E04091150150911601241798
:1028100035075CF009C081E090E0409117015091CC
:102820001801421753070CF080E0089580912201AF
:10283000909123018D589F4F089580912001909190
:102840002101CC96089520E030E048EC52E46091FC
:10285000590170915A0180915B0190915C010E9435
:102860003E250E94F723CB01089520912301209556
:10287000221F2227221F82E090E0821B91090895E7
:10288000589A599A5A9A8CE08093B800E9E6F0E099
:1028900080818062808380818F7E8083EA9A7894B1
:1028A000089584E88093BC008091BC0087FFFCCF32
:1028B0008091BB00089584E98093BC00089520E0D6
:1028C00030E08091BC0087FD06C02F5F3F4F293E5E
:1028D00083E03807B1F781E0283E334009F480E017
:1028E00008958093BB0084E88093BC000E945F142D
:1028F000882321F08091B900887F089580E00895B1
:102900001F93CF93DF931F92CDB7DEB7182F84EAC2
:102910008093BC0069830E945F146981811104C0A7
:1029200094E99093BC0014C0812F880F662331F086
:102930008F5F0E947114883451F404C00E94711496
:10294000803229F484E98093BC0080E001C081E0FA
:102950000F90DF91CF911F910895CF93DF93C82FF0
:10296000D62F60E00E948014882391F08D2F0E9462
:102970007114882369F084E98093BC0061E08C2F96
:102980000E948014882321F0DF91CF910C94511480
:1029900080E0DF91CF910895CF93DF93D62FC42F9E
:1029A00060E00E948014811102C080E00EC08D2F73
:1029B0000E9471148823C9F38C2F0E9471148823FC
:1029C000A1F384E98093BC0081E0DF91CF91089569
:1029D000CF93DF9300D01F92CDB7DEB74B836A83CE
:1029E00089830E94401494EA9093BC0089816A8193
:1029F0004B819091BC0097FFFCCF90E59093BB007A
:102A000094E89093BC009091BC0097FFFCCF90910C
:102A1000B900987F903229F484E98093BC0080E06B
:102A200029C091E09093BB0094E89093BC009091F2
:102A3000BC0097FFFCCF8093BB0084E88093BC0070
:102A40008091BC0087FFFCCF6093BB0084E880933B
:102A5000BC008091BC0087FFFCCF4093BB0084E8A2
:102A60008093BC008091BC0087FFFCCF84E98093F9
:102A7000BC0081E00F900F900F90DF91CF910895EF
:102A800024EA2093BC002091BC0027FFFCCF21E565
:102A90002093BB0024E82093BC002091BC0027FFBA
:102AA000FCCF2091B900287F2834A9F024EC209392
:102AB000BC002091BC0027FFFCCF2091BB00261357
:102AC0000AC0FC0120E030E0772767FD7095615077
:102AD000710944EC0EC084E98093BC0080E0089545
:102AE0005091BC0057FFFCCF5091BB0051932F5F1A
:102AF0003F4F261737071CF44093BC00F1CF44E842
:102B00004093BC004091BC0047FFFCCF4091BB000C
:102B1000FC01E20FF31F408384E98093BC0081E055
:102B20000895F89494EA9093BC009091BC0097FFAC
:102B3000FCCF90E59093BB0094E89093BC009091FB
:102B4000BC0097FFFCCF9091B900987F903231F490
:102B500084E98093BC00789480E0089593E090939A
:102B6000BB0094E89093BC009091BC0097FFFCCF11
:102B70008093BB0084E88093BC008091BC0087FFF9
:102B8000FCCFFB01552747FD509524E8CF01861B5C
:102B9000970B8417950754F481918093BB00209381
:102BA000BC008091BC0087FFFCCFF0CF84E980930C
:102BB000BC00789481E008958091E80080FFFCCF0C
:102BC000089581E08093D70080EA8093D80082E165
:102BD00089BD09B400FEFDCF80E98093D800109232
:102BE000E00010924701109244018CE08093E200D3
:102BF000789408958091470108959FB7F894809143
:102C00004701882339F083E08093E9008091E80050
:102C100085FD03C09FBF8FEF08958091F100209143
:102C2000E80025FD03C02BE62093E8009FBF089530
:102C30009FB7F89480914701882331F083E0809317
:102C4000E9008091F20001C080E09FBF089580916B
:102C50004701882371F08FB7F89493E09093E900CF
:102C60002BE69091E80095FF03C02093E800F9CF90
:102C70008FBF089590914701992371F09FB7F89401
:102C800024E02093E90020914501222349F020917E
:102C9000E80025FD03C09FBF8FEF08951092450106
:102CA0002091E400275E34E04091E80045FD12C029
:102CB0009FBF9091E400921304C081E0809345018E
:102CC000EBCF90914701992339F39FB7F894309354
:102CD000E900EACF8093F1008091E80085FD03C010
:102CE0008AE38093E80085E0809346019FBF80E0FF
:102CF0000895909147019923D1F09FB7F89424E06B
:102D00002093E9002091E80025FD02C09FBF0FC07D
:102D10008093F1008091E80085FD03C08AE38093F1
:102D2000E80085E0809346019FBF80E008958FEF23
:102D30000895EF92FF921F93CF93DF937C01CB0115
:102D400020914701222371F0AFB7F89424E020933B
:102D5000E90020914501222349F02091E80025FD5A
:102D600003C0AFBF8FEF42C210924501B4E0C0E490
:102D7000DAE315E0009709F437C22091E400275EFA
:102D80003091E80035FD12C0AFBF3091E40032133E
:102D900004C081E080934501E5CF309147013323A2
:102DA00009F3AFB7F894B093E900EACF2091F200AD
:102DB0004C2F421B242F30E08217930708F4482F32
:102DC000841B910950E04134510508F0FDC14A5A75
:102DD0005F4FFA010C944126F70120812093F10006
:102DE00097012F5F3F4F7901F70120812093F10078
:102DF00097012F5F3F4F7901F70120812093F10068
:102E000097012F5F3F4F7901F70120812093F10057
:102E100097012F5F3F4F7901F70120812093F10047
:102E200097012F5F3F4F7901F70120812093F10037
:102E300097012F5F3F4F7901F70120812093F10027
:102E400097012F5F3F4F7901F70120812093F10017
:102E500097012F5F3F4F7901F70120812093F10007
:102E600097012F5F3F4F7901F70120812093F100F7
:102E700097012F5F3F4F7901F70120812093F100E7
:102E800097012F5F3F4F7901F70120812093F100D7
:102E900097012F5F3F4F7901F70120812093F100C7
:102EA00097012F5F3F4F7901F70120812093F100B7
:102EB00097012F5F3F4F7901F70120812093F100A7
:102EC00097012F5F3F4F7901F70120812093F10097
:102ED00097012F5F3F4F7901F70120812093F10087
:102EE00097012F5F3F4F7901F70120812093F10077
:102EF00097012F5F3F4F7901F70120812093F10067
:102F000097012F5F3F4F7901F70120812093F10056
:102F100097012F5F3F4F7901F70120812093F10046
:102F200097012F5F3F4F7901F70120812093F10036
:102F300097012F5F3F4F7901F70120812093F10026
:102F400097012F5F3F4F7901F70120812093F10016
:102F500097012F5F3F4F7901F70120812093F10006
:102F600097012F5F3F4F7901F70120812093F100F6
:102F700097012F5F3F4F7901F70120812093F100E6
:102F800097012F5F3F4F7901F70120812093F100D6
:102F900097012F5F3F4F7901F70120812093F100C6
:102FA00097012F5F3F4F7901F70120812093F100B6
:102FB00097012F5F3F4F7901F70120812093F100A6
:102FC00097012F5F3F4F7901F70120812093F10096
:102FD00097012F5F3F4F7901F70120812093F10086
:102FE00097012F5F3F4F7901F70120812093F10076
:102FF00097012F5F3F4F7901F70120812093F10066
:1030000097012F5F3F4F7901F70120812093F10055
:1030100097012F5F3F4F7901F70120812093F10045
:1030200097012F5F3F4F7901F70120812093F10035
:1030300097012F5F3F4F7901F70120812093F10025
:1030400097012F5F3F4F7901F70120812093F10015
:1030500097012F5F3F4F7901F70120812093F10005
:1030600097012F5F3F4F7901F70120812093F100F5
:1030700097012F5F3F4F7901F70120812093F100E5
:1030800097012F5F3F4F7901F70120812093F100D5
:1030900097012F5F3F4F7901F70120812093F100C5
:1030A00097012F5F3F4F7901F70120812093F100B5
:1030B00097012F5F3F4F7901F70120812093F100A5
:1030C00097012F5F3F4F7901F70120812093F10095
:1030D00097012F5F3F4F7901F70120812093F10085
:1030E00097012F5F3F4F7901F70120812093F10075
:1030F00097012F5F3F4F7901F70120812093F10065
:1031000097012F5F3F4F7901F70120812093F10054
:1031100097012F5F3F4F7901F70120812093F10044
:1031200097012F5F3F4F7901F70120812093F10034
:1031300097012F5F3F4F7901F70120812093F10024
:1031400097012F5F3F4F7901F70120812093F10014
:1031500097012F5F3F4F7901F70120812093F10004
:1031600097012F5F3F4F7901F70120812093F100F4
:1031700097012F5F3F4F7901F70120812093F100E4
:1031800097012F5F3F4F7901F70120812093F100D4
:1031900097012F5F3F4F7901F70120812093F100C4
:1031A00097012F5F3F4F7901F70120812093F100B4
:1031B00097012F5F3F4F7901F70120812093F100A4
:1031C00097012F5F3F4F7901F70120812093F10094
:1031D00097012F5F3F4F79012091E80025FFD093A1
:1031E000E80010934601C6CDAFBF80E0DF91CF91DC
:1031F0001F91FF90EF9008958FB7F894909146013A
:10320000992341F094E09093E9009AE39093E800C9
:10321000109246018FBF0895809112010895809108
:103220001301089580911401089580914401089537
:103230009FB7F89420914701222339F022E0209390
:10324000E9003091E80035FD03C09FBF8FEF08957E
:1032500031EA3093F10030E23093F1001092F10046
:103260001092F1001092F1001092F1002093F10001
:103270001092F1008093F1001092F1008AE38093A4
:10328000E8009FBF80E008951F920F920FB60F9243
:1032900011248F939F938091E1001092E10083FFAE
:1032A00011C01092E90091E09093EB001092EC00B5
:1032B00092E19093ED0098E09093F0001092470116
:1032C0001092440182FF13C080914701882379F056
:1032D00080914601882359F08150809346018111E5
:1032E00006C084E08093E9008AE38093E8009F9120
:1032F0008F910F900FBE0F901F9018951F920F92F5
:103300000FB60F921124EF92FF920F931F932F93FA
:103310003F934F935F936F937F938F939F93AF935D
:10332000BF93EF93FF93CF93DF931F92CDB7DEB799
:103330001092E9008091E80083FF14C19091F100A0
:103340008091F1003091F1002091F100E32EF12CF9
:10335000F22A0091F1002091F10010E0122B20914F
:10336000F1006091F10032EF3093E800863009F00F
:1033700046C036E086ED91E0FC01459154914E1532
:103380005F0539F4FC01329645915491401751077D
:1033900021F00796315081F7E5C0FC013496459144
:1033A0005491FC013696849130E0362B2F3F310545
:1033B00019F010F02FEF30E0281708F4822F3EEFBD
:1033C0009091E800292F2570D9F392FDCEC0982F57
:1033D000813108F090E1FA01292F222331F0649124
:1033E0006093F10021503196F8CF490F511D891B90
:1033F0003093E8008111E4CF903111F3B6C08530ED
:1034000051F48EEF8093E8000E94DC158E2D8068C9
:103410008093E300AAC0893059F5911180C0E092F1
:10342000470110924401109246018EEF8093E8000C
:1034300041E08FE792E04093E9009C012F5F3F4F0E
:10344000FC0154915093EB00552359F0F90124915C
:103450002093EC009C012D5F3F4F31968491809327
:10346000ED004F5F453011F0C901E5CF8EE175C029
:10347000883051F4903809F052C00E94DC158091D8
:1034800047018093F10047C0813279F4913A09F005
:1034900046C00E94DC15EEE0F1E081918093F100DE
:1034A00081E0E531F807C9F736C0803299F49132EE
:1034B000B1F58091E80082FFFCCFEEE0F1E0809171
:1034C000F100819381E0E531F807C9F78BEF809334
:1034D000E80021C0823241F4913209F043C0E09209
:1034E00044010E94DC1517C0811119C099830E9404
:1034F000DC159981923851F40093E9008091EB003A
:1035000085FB882780F91092E90001C080E0809354
:10351000F1001092F1008EEF8093E80026C0282F72
:103520002D7F2130F9F49230E9F4EF28D9F40F77A8
:103530009FEF900F9430B0F49EEF9093E8000093CB
:10354000E900833079F089E18093EB0081E090E03D
:10355000002E01C0880F0A94EAF78093EA001092C7
:10356000EA0003C081E28093EB000F90DF91CF91DE
:10357000FF91EF91BF91AF919F918F917F916F914B
:103580005F914F913F912F911F910F91FF90EF907D
:103590000F900FBE0F901F9018951F93CF93DF933E
:1035A000EC01FE011491112351F01A3019F48DE051
:1035B0000E943A16812F0E943A162196F2CFDF918F
:1035C000CF911F9108958A3010F490E301C097E3E2
:1035D000890F0C943A16CF93C82F82958F700E9452
:1035E000E31A8C2F8F70CF910C94E31ACF93C82FCE
:1035F000892F0E94EB1A8C2FCF910C94EB1A0C940C
:10360000EB1AEF92FF920F931F93CF93DF93CDB7F7
:10361000DEB727970FB6F894DEBF0FBECDBF8E0181
:103620000F5F1F4F27E0F80111922A95E9F74AE052
:10363000B8010E9483267E01F8E0EF0EF11CF8012C
:1036400081918F0181110E943A160E151F05B9F75D
:1036500027960FB6F894DEBF0FBECDBFDF91CF9196
:103660001F910F91FF90EF900895EF92FF920F93AB
:103670001F93CF93DF9300D000D000D0CDB7DEB73B
:103680008E010F5F1F4F26E0F80111922A95E9F78E
:103690004AE0B8010E94BF267E01F6E0EF0EF11C61
:1036A000F80181918F0181110E943A160E151F05B4
:1036B000B9F726960FB6F894DEBF0FBECDBFDF91E7
:1036C000CF911F910F91FF90EF900895EF92FF928D
:1036D0000F931F93CF93DF93CDB7DEB72B970FB622
:1036E000F894DEBF0FBECDBF8E010F5F1F4F2BE0E2
:1036F000F80111922A95E9F72AE0A8010E948E2686
:103700007E01FCE0EF0EF11CF80181918F01811127
:103710000E943A160E151F05B9F72B960FB6F894AE
:10372000DEBF0FBECDBFDF91CF911F910F91FF90F4
:10373000EF900895EF92FF920F931F93CF93DF9333
:10374000CDB7DEB72B970FB6F894DEBF0FBECDBF57
:103750008E010F5F1F4F2BE0F80111922A95E9F7B8
:103760002AE0A8010E949D267E01FBE0EF0EF11CDD
:10377000F80181918F0181110E943A160E151F05E3
:10378000B9F72B960FB6F894DEBF0FBECDBFDF9111
:10379000CF911F910F91FF90EF90089520E030E0BE
:1037A0008091BC0087FD06C02F5F3F4F293E83E01C
:1037B0003807B1F781E0283E334009F480E00895EE
:1037C0008093BB0084E88093BC000E94CE1B8823BA
:1037D00019F08091B900887F0895CF93C82F84EAAB
:1037E0008093BC000E94CE1B882361F08C2F880F31
:1037F0000E94E01B803229F484E98093BC0080E0C1
:1038000001C081E0CF9108950E94401488E50E9494
:10381000ED1B811102C080E0089580E30E94E01B4F
:103820008823C9F381E00E94E01B8823A1F384E987
:103830008093BC008FE39CE90197F1F700C0000082
:1038400088E50E94ED1B882331F380E00E94E01B95
:10385000882309F380E00E94E01B8823E1F280E0E6
:103860000E94E01B8823B9F280E00E94E01B8823BD
:1038700091F280E00E94E01B882369F280E00E94C0
:10388000E01B882341F280E00E94E01B882319F2AC
:1038900080E90E94E01B882309F4BDCF84E980936E
:1038A000BC008FE39CE90197F1F700C0000088E5B8
:1038B0000E94ED1B882309F4AECF87E00E94E01B35
:1038C000882309F4A8CF80E00E94E01B882309F434
:1038D000A2CF81E40E94E01B882309F49CCF84E9F5
:1038E0008093BC008FE39CE90197F1F700C00000D2
:1038F00088E50E94ED1B882309F48DCF8AE10E94A0
:10390000E01B882309F487CF80E40E94E01B882312
:1039100009F481CF80E00E94E01B882309F47BCF6B
:1039200084E98093BC008FE39CE90197F1F700C024
:10393000000088E50E94ED1B882309F46CCF83E327
:103940000E94E01B882309F466CF83E00E94E01BFD
:10395000882309F460CF84E98093BC008FE39CE95D
:103960000197F1F700C0000088E50E94ED1B882355
:1039700009F451CF80E30E94E01B882309F44BCF68
:1039800088E00E94E01B882309F445CF84E98093F6
:10399000BC008FE39CE90197F1F700C0000081E0D3
:1039A0000895CF93C82F84EA8093BC000E94CE1B59
:1039B000882369F08C2F880F8F5F0E94E01B88346A
:1039C00029F484E98093BC0080E001C081E0CF91BC
:1039D0000895EF92FF920F931F93CF93DF93CDB78C
:1039E000DEB760970FB6F894DEBF0FBECDBF7C0187
:1039F0008E010F5F1F4F80E1F80111928A95E9F760
:103A000088E50E94ED1B811102C080E05EC086E364
:103A10000E94E01B8823C9F384E98093BC00F5E889
:103A2000FA95F1F7000088E50E94D11C882369F31C
:103A3000F8019E01205F3F4F94EC9093BC00809171
:103A4000BC0087FFFCCF8091BB008193E217F30796
:103A5000A1F784E88093BC008091BC0087FFFCCF75
:103A60008091BB00888B84E98093BC00DE011496B2
:103A700087016C91762F7073AD0142505109FA01A4
:103A8000808190E0F0E17F9F800D911D1124F8016D
:103A900091838083762F707C4F5F5F4FFA01808126
:103AA00090E0F4E07F9F800D911D1124F801938335
:103AB00082836F70862F90E09583848313960A5FCC
:103AC0001F4FA217B307A9F681E060960FB6F894CE
:103AD000DEBF0FBECDBFDF91CF911F910F91FF9041
:103AE000EF90089584E98093BC0008958091AC0123
:103AF00090E0FC01E05AF109E730F10508F0A3C0BD
:103B0000E956FF4F0C9441260E94EB130E94351496
:103B10009093600180935F018130910569F4299A47
:103B20002A982FEF89E698E1215080409040E1F7F4
:103B300000C0000029980EC0029761F42A9A2998C3
:103B40002FEF89E698E1215080409040E1F700C0D6
:103B500000002A981092600110925F0108950E945F
:103B6000FD010E94EB1380915F019091600100972D
:103B700091F40E9435149093600180935F01019746
:103B800019F4299A2A9802C02A9A299880E090E08C
:103B90000E94D90907C0019719F4299A2A9802C0EE
:103BA0002A9A299886E090E09093AB018093AA012D
:103BB0000C94A50140915F01509160018091AD018D
:103BC0002091AE0141305105E9F40BC040915F01F5
:103BD000509160012091AD018091AE0142305105BC
:103BE00089F4992787FD90959093500180934F0118
:103BF000332727FD309530934E0120934D010E94CD
:103C000063061BC0332727FD309530935001209366
:103C10004F01992787FD909590934E0180934D0118
:103C20000CC01092AB011092AA010E94420281E0E6
:103C300090E00C94D909469847981092AB011092E5
:103C4000AA010C94420208951F920F920FB60F9290
:103C500011248F9381E0809348018F910F900FBEC4
:103C60000F901F90189585E093E00E94CD1A8091E7
:103C70006B0190916C010E94011B80E093E00E9417
:103C8000CD1A8091690190916A010E94011B8BEF0E
:103C900092E00E94CD1A80916501909166010E9488
:103CA000011B86EF92E00E94CD1A809167019091EE
:103CB00068010E94011B80EF92E00E94CD1A809162
:103CC0006D0190916E010E94011B8AEE92E00E94AC
:103CD000CD1A80916F01909170010E94011B84EEBA
:103CE00092E00E94CD1A80917101909172010E9420
:103CF000011B8FED92E00E94CD1A8091730190918B
:103D000074010E94011B84ED92E00E94CD1A809103
:103D10006101909162010C94011B80917501909159
:103D20007601892B41F180917A008F7780937A0018
:103D3000109276011092750180917A0080688093CC
:103D40007A0080917A00806480937A0060914901C2
:103D500070914A0180914B0190914C012AE030E032
:103D600040E050E00E942226672B682B692B31F43B
:103D70000E94331E03C080E090E0089581E090E04F
:103D8000089580E090E0A7E6B1E041E050E021E056
:103D900030E06D917D91FC01EE0FFF1FEB59FE4F5E
:103DA0000190F081E02DE617F7076CF0FA01EE0FB5
:103DB000FF1FEB59FE4F0190F081E02DE617F7074A
:103DC00024F4A90102C0AC01C9012F5F3F4F283084
:103DD0003105F9F69093BB018093BA015093B70176
:103DE0004093B601FC01EE0FFF1FEB59FE4F2081FF
:103DF000318180912601909127018217930724F445
:103E0000289A81E090E00895289880E090E0089555
:103E100020917301309174018091280190912901C2
:103E2000281739079CF080917101909172018935B2
:103E3000924064F080916F019091700189359240B9
:103E40002CF06A9A729881E090E008956A9A729ACA
:103E500080E090E008958091BA019091BB01892B98
:103E600041F48091B6019091B7019093BB0180938A
:103E7000BA018091BA019091BB01FC01EE0FFF1FC6
:103E8000EB59FE4F208131812430310519F54091E5
:103E90006D0150916E0120916B0130916C012417DE
:103EA0003507C4F40E94FF036091490170914A01F3
:103EB00080914B0190914C012AE030E040E050E0CD
:103EC0000E942226672B682B692B09F06CC18EECAF
:103ED00092E067C18330910519F540916B015091D3
:103EE0006C0120916D0130916E0124173507C4F4E7
:103EF0000E94F1036091490170914A0180914B0148
:103F000090914C012AE030E040E050E00E942226EF
:103F1000672B682B692B09F046C187EC92E041C101
:103F2000409171015091720120916F0130917001A7
:103F30004217530739F59C012550310922303105CC
:103F400048F02091B6013091B70125503109223057
:103F50003105C0F40E94C1036091490170914A018A
:103F600080914B0190914C012AE030E040E050E01C
:103F70000E942226672B682B692B09F014C182EC62
:103F800092E00FC18730910508F0F5C0FC01E256C0
:103F9000FF4F0C9441262091690130916A01809174
:103FA000240190912501281739071CF40E94F10380
:103FB00002C00E9429046091490170914A018091D8
:103FC0004B0190914C012AE030E040E050E00E942B
:103FD0002226672B682B692B09F0E5C08BEB92E05A
:103FE000E0C0209167013091680180912401909197
:103FF0002501281739071CF40E94FF0302C00E9404
:1040000037046091490170914A0180914B01909170
:104010004C012AE030E040E050E00E942226672B6D
:10402000682B692B09F0BFC085EB92E0BAC00E94F3
:10403000FF036091490170914A0180914B01909179
:104040004C012AE030E040E050E00E942226672B3D
:10405000682B692B09F0A7C08FEA92E0A2C00E94EA
:10406000F1036091490170914A0180914B01909157
:104070004C012AE030E040E050E00E942226672B0D
:10408000682B692B09F08FC088EA92E08AC02091E2
:104090006B0130916C0180916D0190916E018217DE
:1040A0009307C4F40E94F1036091490170914A01A1
:1040B00080914B0190914C012AE030E040E050E0CB
:1040C0000E942226672B682B692B09F06CC081EABD
:1040D00092E067C00E94FF036091490170914A011C
:1040E00080914B0190914C012AE030E040E050E09B
:1040F0000E942226672B682B692B09F054C08BE99C
:1041000092E04FC020916D0130916E0180916B0162
:1041100090916C0182179307BCF40E94FF03609199
:10412000490170914A0180914B0190914C012AE024
:1041300030E040E050E00E942226672B682B692B7C
:1041400091F585E992E02DC00E94F103609149014B
:1041500070914A0180914B0190914C012AE030E02E
:1041600040E050E00E942226672B682B692BD9F48F
:104170008EE892E016C00E94C103609149017091DF
:104180004A0180914B0190914C012AE030E040E0DF
:1041900050E00E942226672B682B692B21F489E8C6
:1041A00092E00C94CD1A08958091BA019091BB01D0
:1041B000FC01EE0FFF1FEB59FE4F208131812430AF
:1041C000310561F440916D0150916E0120916B01B8
:1041D00030916C01241735070CF445C083309105EC
:1041E00061F440916B0150916C0120916D0130910F
:1041F0006E01241735070CF443C0409171015091B2
:10420000720120916F01309170014217530779F4C8
:104210009C012550310922303105A0F12091B601D1
:104220003091B701255031092230310558F18330E2
:10423000910531F134F481309105A9F0029701F133
:1042400008958530910521F074F0069771F0089576
:1042500020916B0130916C0180916D0190916E0104
:10426000821793076CF00C94370420916D01309104
:104270006E0180916B0190916C01821793079CF302
:104280000C94290408952091610130916201E5E6C2
:10429000F1E080819181821B930B97FF03C0118213
:1042A000108202C091838083329681E0E537F8075F
:1042B00081F708950E948D1E892BE1F320916701FB
:1042C0003091680180916501909166012817390746
:1042D0000CF4C9012091690130916A01281739074E
:1042E0000CF4C901909362018093610108951F92BB
:1042F0000F920FB60F9211244F925F926F927F929E
:10430000AF92BF92CF92DF92EF92FF920F931F93E3
:104310002F933F934F935F936F937F938F939F93CD
:10432000AF93BF93CF93DF93EF93FF9380917A0086
:104330008F7780937A00A0906101B0906201009124
:10434000630110916401A114B10409F442C0E0902A
:104350007800F0907900E801CC0FDD1FCB59DE4FDB
:1043600068817981882777FD8095982F0E94252480
:104370002DEC3CEC4CEC5EE30E943E252B013C0115
:10438000B70180E090E00E9423242AE939E949E15D
:104390005FE30E943E259B01AC01C301B2010E9474
:1043A000BD226B017C01B501882777FD8095982F90
:1043B0000E9425249B01AC01C701B6010E94BC22CA
:1043C0000E94F2237983688377FF12C019821882D2
:1043D0000FC08091780090917900F801EE0FFF1FD7
:1043E000EB59FE4F9183808397FF02C011821082A8
:1043F0000830110559F4109264011092630181E0B4
:1044000090E0909376018093750106C00F5F1F4F77
:104410001093640100936301E0916301F0916401E2
:10442000E830F10508F058C0EB55FF4F80917B0054
:104430000C9441268F7D27C08F7D80937B008091D7
:104440007C00846080937C0080917C008D7F3DC0E7
:104450008F7D80937B0080917C00846080937C00C2
:1044600080917C008D7F20C08F7D80937B00809128
:104470007C00846025C08F7D80937B0080917C00D0
:1044800084600DC0806280937B0080917C008B7F74
:10449000D9CF806280937B0080917C008B7F80935A
:1044A0007C0080917C00826080937C0080917C0005
:1044B000816010C0806280937B0080917C008B7F44
:1044C00080937C0080917C00826080937C0080914E
:1044D0007C008E7F80937C0080917A00806880933E
:1044E0007A0080917A00806480937A00FF91EF9146
:1044F000DF91CF91BF91AF919F918F917F916F91FC
:104500005F914F913F912F911F910F91FF90EF90ED
:10451000DF90CF90BF90AF907F906F905F904F9063
:104520000F900FBE0F901F9018950E94C7090E9410
:10453000FD0180E880936100109261000E945A2181
:104540000E94B2011092AB011092AA018091480121
:10455000882349F06AE08CEA91E00E9440150E94AD
:10456000761D109248010E94EB130E948D1E0E943E
:1045700043210E942B1FEACF5058BB27AA270ED0F9
:1045800027C2F0D130F0F5D120F031F49F3F11F483
:104590001EF4C0C10EF4E095E7FBB6C1E92F3AD294
:1045A00080F3BA17620773078407950718F071F450
:1045B0009EF552C20EF4E0950B2EBA2FA02D0B01E2
:1045C000B90190010C01CA01A0011124FF27591B58
:1045D00099F0593F50F4503E68F11A16F040A22F5E
:1045E000232F342F4427585FF3CF469537952795CF
:1045F000A795F0405395C9F77EF41F16BA0B620BCE
:10460000730B840BBAF09150A1F0FF0FBB1F661F14
:10461000771F881FC2F70EC0BA0F621F731F841F57
:1046200048F4879577956795B795F7959E3F08F07D
:10463000B3CF9395880F08F09927EE0F979587953C
:10464000089590D158F080E891E009F49EEF91D15F
:1046500028F040E851E059F45EEF09C05BC1FCC1AD
:10466000E92FE078D7D168F3092E052AC1F3261780
:1046700037074807590738F00E2E07F8E02569F08C
:10468000E025E0640AC0EF6307F8009407FADB0155
:10469000B9019D01DC01CA01AD01EF934AD098D167
:1046A0000AD05F91552331F02BED3FE049E450FDF6
:1046B00049EC63CF0895DF93DD27B92FBF7740E83A
:1046C0005FE31616170648075B0710F4D92FCFD102
:1046D0009F938F937F936F937CD2EAE5F1E01DD196
:1046E00077D12F913F914F915F91D4D1DD2349F044
:1046F0009058A2EA2AED3FE049EC5FE3D0785D27CD
:104700004DDFDF9165C1DCD008F481E0089539D137
:10471000E3956FC10CD05CC12CD140F023D130F0B7
:1047200021F45F3F19F0F0C0511197C1F3C072D16D
:1047300098F39923C9F35523B1F3951B550BBB2768
:10474000AA2762177307840738F09F5F5F4F220F15
:10475000331F441FAA1FA9F333D00E2E3AF0E0E80E
:1047600030D091505040E695001CCAF729D0FE2F5A
:1047700027D0660F771F881FBB1F261737074807EC
:10478000AB07B0E809F0BB0B802DBF01FF279358A2
:104790005F4F2AF09E3F510568F0B6C05EC15F3F93
:1047A000ECF3983EDCF3869577956795B795F7958A
:1047B0009F5FC9F7880F911D9695879597F9089582
:1047C000E1E0660F771F881FBB1F6217730784071E
:1047D000BA0720F0621B730B840BBA0BEE1F88F72D
:1047E000E095089504D06894B11137C108951AD1A5
:1047F00088F09F5790F0B92F9927B751A0F0D1F0CA
:10480000660F771F881F991F1AF0BA95C9F712C053
:10481000B13081F021D1B1E008951EC1672F782F0A
:104820008827B85F39F0B93FCCF3869577956795BF
:10483000B395D9F73EF490958095709561957F4F2B
:104840008F4F9F4F0895E89409C097FB3EF49095D1
:104850008095709561957F4F8F4F9F4F9923A9F059
:10486000F92F96E9BB279395F695879577956795E8
:10487000B795F111F8CFFAF4BB0F11F460FF1BC02C
:104880006F5F7F4F8F4F9F4F16C0882311F096E9BF
:1048900011C0772321F09EE8872F762F05C066236D
:1048A00071F096E8862F70E060E02AF09A95660F26
:1048B000771F881FDAF7880F9695879597F90895DF
:1048C000990F0008550FAA0BE0E8FEEF1616170621
:1048D000E807F907C0F012161306E407F50798F089
:1048E000621B730B840B950B39F40A2661F0232BA2
:1048F000242B252B21F408950A2609F4A140A6951E
:104900008FEF811D811D089597F99F6780E870E002
:1049100060E008959FEF80EC0895DF93CF931F939D
:104920000F93FF92EF92DF927B018C01689405C098
:10493000DA2EEF01AFD0FE01E894A59125913591D3
:1049400045915591AEF3EF0129DEFE019701A801D3
:10495000DA9479F7DF90EF90FF900F911F91CF914C
:10496000DF91089500240A94161617061806090602
:10497000089500240A9412161306140605060895D5
:10498000C9CF50D0E8F3E894E0E0BB279F57F0F0A0
:104990002AED3FE049EC06C0EE0FBB0F661F771F04
:1049A000881F28F0B23A62077307840728F0B25ACA
:1049B000620B730B840BE3959A9572F7803830F491
:1049C0009A95BB0F661F771F881FD2F7904806C1C4
:1049D000092E0394000C11F4882352F0BB0F40F40D
:1049E000BF2B11F460FF04C06F5F7F4F8F4F9F4F4D
:1049F0000895EF93E0FF06C0A2EA2AED3FE049ECFC
:104A00005FEBCCDDE5DF0F90039401FC9058E7E805
:104A1000F1E0F7C057FD9058440F551F59F05F3F24
:104A200071F04795880F97FB991F61F09F3F79F0D0
:104A300087950895121613061406551FF2CF469552
:104A4000F1DF08C0161617061806991FF1CF8695D4
:104A50007105610508940895E894BB2766277727B8
:104A6000CB0197F908952CDF08F48FEF08959B018F
:104A7000AC0160E070E080E89FE34CCE0BD0A8CFA3
:104A800071DF28F076DF18F0952309F03DCF42CF93
:104A90001124E3CFBFDFA0F3959FD1F3950F50E032
:104AA000551F629FF001729FBB27F00DB11D639FE0
:104AB000AA27F00DB11DAA1F649F6627B00DA11D86
:104AC000661F829F2227B00DA11D621F739FB00D2C
:104AD000A11D621F839FA00D611D221F749F33279C
:104AE000A00D611D231F849F600D211D822F762F35
:104AF0006A2F11249F5750408AF0E1F088234AF032
:104B0000EE0FFF1FBB1F661F771F881F915050407D
:104B1000A9F79E3F510570F0F7CE9FCF5F3FECF3B2
:104B2000983EDCF3869577956795B795F795E79569
:104B30009F5FC1F7FE2B880F911D9695879597F97A
:104B400008959F931EDF0F9007FCEE5F52CF11F484
:104B50000EF4E0CE41C066DFD0F39923D9F3CEF353
:104B60009F57550B87FF46D00024A0E640EA9001EE
:104B700080585695979528F4805C660F771F881F9C
:104B800020F026173707480730F4621B730B840B9D
:104B9000202931294A2BA6951794079420253125E1
:104BA0004A2758F7660F771F881F20F02617370708
:104BB000480730F4620B730B840B200D311D411D2F
:104BC000A09581F7B901842F9158880F9695879504
:104BD00008959B01AC0152CF9F3F31F0915020F4DA
:104BE000879577956795B795880F911D96958795C9
:104BF00097F9089591505040660F771F881FD2F79C
:104C000008959F938F937F936F93FF93EF939B01EF
:104C1000AC0134DFEF91FF9180DE2F913F914F91F6
:104C20005F912CCFDB018F939F930E944726BF910A
:104C3000AF91A29F800D911DA39F900DB29F900DEB
:104C400011240895052E97FB1EF400940E94392626
:104C500057FD07D00E94522607FC03D04EF40C9457
:104C6000392650954095309521953F4F4F4F5F4FD6
:104C7000089590958095709561957F4F8F4F9F4FC8
:104C80000895EE0FFF1F0590F491E02D09940E9406
:104C90007426A59F900DB49F900DA49F800D911D2B
:104CA00011240895A1E21A2EAA1BBB1BFD010DC001
:104CB000AA1FBB1FEE1FFF1FA217B307E407F507CC
:104CC00020F0A21BB30BE40BF50B661F771F881FA8
:104CD000991F1A9469F760957095809590959B013E
:104CE000AC01BD01CF010895A29FB001B39FC001E7
:104CF000A39F700D811D1124911DB29F700D811D08
:104D00001124911D0895BB274A3031F4992322F4D0
:104D1000BDE2909581959F4F0C94C026BB272A3009
:104D200051F4992342F4BDE2909580957095619578
:104D30007F4F8F4F9F4F0C949E26BB27FA01A62FC3
:104D40006217710581059105330B30FB66F0AA27C8
:104D5000660F771F881F991FAA1FA21710F0A21BAA
:104D600063953850A9F7A05DAA3308F0A95DA19317
:104D700036F7B111B1931082CA010C94D926BB2722
:104D8000FB015527AA27880F991FAA1FA41710F007
:104D9000A41B83955051B9F7A05DAA3308F0A95D13
:104DA000A193009779F7B111B1931192CB010C94B3
:104DB000D926DC01FC01672F71917723E1F7329747
:104DC00004C07C916D9370836291AE17BF07C8F3E6
:064DD0000895F894FFCFE6
:104DD6000100CDCC4C3EF401F40152B89E3E00E1F8
:104DE60000000000085000B0FF8DFF73001902009C
:0C4DF600F401F401C8001400C800FF0321
:00000001FF
