:100000000C9455010C9472010C9472010C94EE1A2C
:100010000C9472010C9472010C9472010C94720194
:100020000C9472010C9472010C94BA150C94F41592
:100030000C9472010C9472010C9472010C94720174
:100040000C9472010C94A6010C9472010C94720130
:100050000C9472010C9472010C9472010C94720154
:100060000C9472010C9472010C9472010C94720144
:100070000C9472010C948C1E0C9472010C947201FD
:100080000C9472010C9472010C9472010C94720124
:100090000C9472010C9472010C94D41A0C94E11A11
:1000A0000C9472010C9472010C94720162155A1531
:1000B00052154A1542153A1532152A1522151A15E8
:1000C00012150A150215FA14F214EA14E214DA14DD
:1000D000D214CA14C214BA14B214AA14A2149A14D0
:1000E00092148A1482147A1472146A1462145A14C0
:1000F00052144A1442143A1432142A1422141A14B0
:1001000012140A140214FA13F213EA13E213DA13A4
:10011000D213CA13C213BA13B213AA13A2139A1397
:1001200092138A1382137A1372136A136213FA19E1
:10013000211A591A691A981A9D1AC91ACC1ECE1E6C
:10014000D01ED71EDE1EEA1EF61E071F084AD73B2A
:100150003BCE016E84BCBFFDC12F3D6C74319ABD96
:1001600056833DDA3D00C77F11BED9E4BB4C3E91BA
:100170006BAAAABE000000803F05A84CCDB2D44EA9
:10018000B93836A9020C50B9918688083CA6AAAAAB
:100190002ABE000000803F00300000010000310254
:1001A0001200020000EE014300030000EA01040116
:1001B000030904D6011202030904CE010603030950
:1001C00004C40108080334003100300000000603B5
:1001D0004D003200000012034A002E0020004600AD
:1001E000690065006E00650000000403090409024F
:1001F0004300020100C032090400000102020100B4
:10020000052400100105240101010424020605242F
:100210000600010705820310004009040100020ADC
:1002200000000007050302400000070584024000AB
:10023000001201000202000010C0167A0400010141
:100240000203010001C112018036018136413600EE
:100250004135004134004133004132004131004119
:10026000300009416D6269656E743A200009446985
:1002700073743A200009416E676C653A20000944A6
:100280003A20000949523A200009494C3A20000915
:10029000544C3A2000094C3A200009423A20000907
:1002A000523A20000A54523A200011241FBECFEFC8
:1002B000DAE0DEBFCDBF11E0A0E0B1E0E0E9F7E4B5
:1002C00002C005900D92A432B107D9F721E0A4E253
:1002D000B1E001C01D92A939B207E1F70E942E1FBB
:1002E0000C94C6230C940000E1E8F0E080818B7F41
:1002F000808380818260808380818160808380812F
:100300008F7E8083808188608083E0E8F0E0808158
:100310008D7F808380818E7F8083EFE6F0E0808117
:10032000826080838AEF90E09093890080938800B8
:1003300008951092400110924101109242011092D2
:100340004301109285001092840008951F920F922D
:100350000FB60F9211248F939F93AF93BF93809109
:10036000400190914101A0914201B0914301019659
:10037000A11DB11D8093400190934101A0934201C2
:10038000B0934301BF91AF919F918F910F900FBE9A
:100390000F901F901895239A0895479A46980895AC
:1003A0004798469A08952D9A2E9808952D982E9A3A
:1003B0000895E1ECF0E08081877F808380818B7FEE
:1003C000808380818D7F808380818E7F808308956C
:1003D000BF92CF92DF92EF92FF920F931F93CF9332
:1003E000DF93379B04C06091CF0070E006C060913E
:1003F000CF0070E07195619571091D9B04C000915B
:10040000D00010E006C00091D00010E011950195D9
:100410001109882777FD8095982F0E94DA202DEC0E
:100420003CEC4CE45EE30E94F3216B017C016091A3
:10043000700170917101882777FD8095982F0E9437
:10044000DA202DEC3CEC4CE45FE30E94F3219B01AD
:10045000AC01C701B6010E94721F0E94A720B62EF0
:10046000C62FD72FB801882777FD8095982F0E9437
:10047000DA202DEC3CEC4CE45EE30E94F3216B01AE
:100480007C0160916A0170916B01882777FD8095EE
:10049000982F0E94DA202DEC3CEC4CE45FE30E94A4
:1004A000F3219B01AC01C701B6010E94721F0E949B
:1004B000A720F62E862F972F8C01D7FF04C0B1946A
:1004C000B092CF000DC0CD2B19F0B092CF000BC071
:1004D0001092CF00809170019091710197FF03C03D
:1004E0000E94D00102C00E94CD0117FF0EC0F194FE
:1004F000F092D000DF91CF911F910F91FF90EF907C
:10050000DF90CF90BF900C94D601012B69F0F09250
:10051000D000DF91CF911F910F91FF90EF90DF906E
:10052000CF90BF900C94D3011092D00080916A01BB
:1005300090916B0197FF0BC0DF91CF911F910F91AD
:10054000FF90EF90DF90CF90BF900C94D001DF919F
:10055000CF911F910F91FF90EF90DF90CF90BF90C0
:100560000C94CD018FEF90E0909371018093700116
:1005700090936B0180936A010C94E80186E990E006
:10058000909371018093700190936B0180936A0145
:100590000C94E8018FEF9FEF9093710180937001AD
:1005A00090936B0180936A010C94E80187E99FEFB7
:1005B000909371018093700190936B0180936A0115
:1005C0000C94E8018EE790E09093710180937001A4
:1005D0008FE390E090936B0180936A010C94E801A3
:1005E0008FE390E0909371018093700110926B0102
:1005F00010926A010C94E8018EE790E090937101EB
:10060000809370018FE79FEF90936B0180936A0155
:100610000C94E8018FE79FEF909371018093700134
:100620008EE790E090936B0180936A010C94E8014F
:100630000E94B2022FEF83ED90E321508040904062
:10064000E1F700C000000E94D6022FEF83ED90E397
:10065000215080409040E1F700C000000E94E2027B
:100660002FEF83ED90E3215080409040E1F700C0F0
:1006700000000E94F0022FEF83ED90E321508040B4
:100680009040E1F700C000000C94D9014F925F92B6
:100690006F927F928F929F92AF92BF92CF92DF9292
:1006A000EF92FF92209150013091510140915201FF
:1006B000509153010E94711F6B017C0160913001C8
:1006C00070913101882777FD8095982F0E94DA205C
:1006D0004B015C019B01AC01C701B6010E94F321F3
:1006E0002091720130917301409174015091750114
:1006F0000E94721F60937201709373018093740162
:100700009093750120E030E0A9010E94F3219B0144
:10071000AC01C701B6010E94721F2B013C01209160
:100720006C0130916D0140916E0150916F01C701D4
:10073000B6010E94711F20E030E0A9010E94F32160
:10074000A50194010E943F209B01AC01C301B201AD
:100750000E94721FC0926C01D0926D01E0926E01F6
:10076000F0926F01FF90EF90DF90CF90BF90AF902D
:100770009F908F907F906F905F904F9008958F9291
:100780009F92AF92BF92CF92DF92EF92FF924B0176
:100790005C0120E030E0A9010E94382087FF0AC0F8
:1007A00029EF3FE049EC50E4C501B4010E94721FFB
:1007B0004B015C0120915001309151014091520157
:1007C00050915301C501B4010E94721F6B017C015D
:1007D00029EF3FE049EC50E40E94E821181654F458
:1007E00029EF3FE049EC50E4C701B6010E94711FB8
:1007F0006B017C0129EF3FE049E450E4C501B401FD
:100800000E94382087FF40C0209150013091510153
:100810004091520150915301C701B6010E94711FCE
:100820000E94A7209B0177FF04C022273327261BA5
:10083000370BB901882777FD8095982F0E94DA2021
:10084000209100013091010140910201509103017A
:100850000E94E821181674F50E94FC02D5CFB90158
:10086000882777FD8095982F0E94DA20209100013B
:100870003091010140910201509103010E94E82151
:100880001816C4F40E940A032091500130915101BE
:100890004091520150915301C701B6010E94711F4E
:1008A0000E94A7209B0177FFDACF22273327261B40
:1008B000370BD5CFFF90EF90DF90CF90BF90AF90E8
:1008C0009F908F900895CF92DF92EF92FF926B01ED
:1008D0007C0120E030E0A9010E94382087FF0AC097
:1008E00029EF3FE049EC50E4C701B6010E94721FB6
:1008F0006B017C0129EF3FE049E450E4C701B601F8
:100900000E94382087FF40C0209150013091510152
:100910004091520150915301C701B6010E94711FCD
:100920000E94A7209B0177FF04C022273327261BA4
:10093000370BB901882777FD8095982F0E94DA2020
:100940002091000130910101409102015091030179
:100950000E94E821181674F50E94FC02D5CFB90157
:10096000882777FD8095982F0E94DA20209100013A
:100970003091010140910201509103010E94E82150
:100980001816C4F40E940A032091500130915101BD
:100990004091520150915301C701B6010E94711F4D
:1009A0000E94A7209B0177FFDACF22273327261B3F
:1009B000370BD5CFFF90EF90DF90CF9008950E9436
:1009C000FC022FEF83ED90E3215080409040E1F74F
:1009D00000C000000C94D901CF92DF92EF92FF92F9
:1009E000C0904801D0904901E0904A01F0904B013D
:1009F0002AE037ED43EA5DE3C701B6010E943820E3
:100A000087FD0AC026E636E646EC50E4C701B6018B
:100A10000E94E821181634F4FF90EF90DF90CF90F9
:100A20000C94B20229EF3FE049E450E4C701B6015B
:100A30000E94382087FF06C0FF90EF90DF90CF9094
:100A40000C94FC02FF90EF90DF90CF900C940A037F
:100A50006F927F928F929F92AF92BF92CF92DF92CE
:100A6000EF92FF920F931F93CF93DF9300D000D0AC
:100A7000CDB7DEB70091190110911A01081B190BAF
:100A80006090170170901801661A770AB8018827DC
:100A900077FD8095982F0E94DA209B01AC01B3016D
:100AA000882777FD8095982F29833A834B835C8331
:100AB0000E94DA2029813A814B815C810E94E51FE6
:100AC00029EF3FE049EC5FE30E94711F6B017C015D
:100AD00029EF3FE049E450EC0E94382087FF0AC02C
:100AE00029EF3FE049EC50E4C701B6010E94721FB4
:100AF0006B017C018090500190905101A0905201B7
:100B0000B0905301075F1F4F0331110560F489E076
:100B1000680E711CE3E16E16710428F40E94D9017D
:100B200081E090E026C0A7019601C501B4010E94B2
:100B3000711F20E030E040E05FE30E94E8211816DA
:100B40001CF40E94E20213C0A5019401C701B60182
:100B50000E94711F20E030E040E05FE30E94E82146
:100B600018161CF40E94F00202C00E94B20280E03B
:100B700090E00F900F900F900F90DF91CF911F9109
:100B80000F91FF90EF90DF90CF90BF90AF909F902C
:100B90008F907F906F900895CF92DF92EF92FF92A7
:100BA00080911C0190911D018130910579F5C090D3
:100BB0002C01D0902D01E0902E01F0902F0120E02B
:100BC00030E0A901C701B6010E94E821181654F4CB
:100BD0008091190190911A01813491051CF464E10E
:100BE00070E030C020E030E0A901C701B6010E94EA
:100BF000382018160CF443C08091190190911A0105
:100C00008F3B9F4FE4F564E170E031C00297B9F586
:100C1000C0902C01D0902D01E0902E01F0902F017A
:100C200020E030E0A901C701B6010E94E8211816B2
:100C300064F48091190190911A01813491052CF48A
:100C40006CEE7FEF81E490E014C020E030E0A90179
:100C5000C701B6010E94382018168CF08091190146
:100C600090911A018F3B9F4F54F46CEE7FEF8FEB06
:100C70009FEFFF90EF90DF90CF900C942805FF90AE
:100C8000EF90DF90CF90089560E070E080911301C5
:100C9000909114010C9428050E947A18811103C0C8
:100CA0006A9A7298FDCF6A9A729A08954AE06091A2
:100CB0001B0181E00C945E1180E885BF85BFECE7E5
:100CC000F0E080818F7B8083808180688083EAE789
:100CD000F0E080818B7F808380818260808380814F
:100CE00081608083AEE7B0E08C9181608C938C91C1
:100CF00082608C938C9180618C938C9180628C93B8
:100D00008C9180648C938C9180688C93ADE7B0E07B
:100D10008C9181608C938C9182608C9380818860AF
:100D2000808380818F7D80838081806880838081C3
:100D3000806480830895539A3E9A269A3F9A259A12
:100D4000E1ECF0E080818860808380818B7F80830C
:100D500080818D7F808380818E7F8083A3ECB0E053
:100D60008C918D7F8C938C918E7F8C93A0ECB0E0D6
:100D70008C9182608C938C9180688C938C918F7B0A
:100D80008C93808181608083808180628083808178
:100D90008F7E80838FEF8093D1008093CF008093EC
:100DA000D000089580911E0190911F01813091051E
:100DB00019F0029751F0089583E790E090931401A1
:100DC000809313018DE89FEF08C08DE89FEF90930B
:100DD00014018093130183E790E0909316018093B0
:100DE0001501089580911C0190911D01813091059C
:100DF00039F020F0029739F489E103C08AE101C09B
:100E000088E180931B010C94D2060E9457120E9425
:100E1000B61078943E9A3F9A0E94F2060E944C06C1
:100E20000E9456060E949B060C945C06CF92DF92AD
:100E3000EF92FF92CF93DF93C0914001D091410197
:100E40008091320190913301C81BD90BD0933101AD
:100E5000C09330018091190190911A0120910601EF
:100E600030910701821B930BBE010E94D722882775
:100E700077FD8095982F0E94DA2060932C01709363
:100E80002D0180932E0190932F0180911701909155
:100E900018012091040130910501821B930BBE01C2
:100EA0000E94D722882777FD8095982F0E94DA200C
:100EB000609328017093290180932A0190932B015C
:100EC000209136013091370140913801509139011C
:100ED00060915001709151018091520190915301A4
:100EE0000E94711F6B017C01BE01882777FD8095F0
:100EF000982F0E94DA209B01AC01C701B6010E9425
:100F00003F206093240170932501809326019093E4
:100F10002701DF91CF91FF90EF90DF90CF90089560
:100F2000AF92BF92CF92DF92EF92FF920F931F93F7
:100F3000CF93DF9360910601709107010091040146
:100F400010910501643F81E0780729F4043F81E0B6
:100F5000180709F4B7C0A0901901B0901A01C50193
:100F6000861B970BC196C0911701D091180183364B
:100F7000910540F0CE01801B910BC19683369105FF
:100F800008F07CC0882777FD8095982F0E94DA2092
:100F90002DEC3CEC4CE45FE30E94F3216B017C01FF
:100FA000B501882777FD8095982F0E94DA202CECD8
:100FB0003CEC4CE45EE30E94F3219B01AC01C701D1
:100FC000B6010E94721F0E94A72070931A016093BD
:100FD0001901B801882777FD8095982F0E94DA20A3
:100FE0002DEC3CEC4CE45FE30E94F3216B017C01AF
:100FF000BE01882777FD8095982F0E94DA202CEC7F
:101000003CEC4CE45EE30E94F3219B01AC01C70180
:10101000B6010E94721F0E94A7207093180160936E
:1010200017012DEC3CEC4CE45FE3609136017091CC
:10103000370180913801909139010E94F3216B01B1
:101040007C012CEC3CEC4CE45EE36091500170912F
:10105000510180915201909153010E94F3219B0113
:10106000AC01C701B6010E94721F609350017093DA
:101070005101809352019093530124C070931A013F
:1010800060931901109318010093170180913601A4
:1010900090913701A0913801B091390180935001AE
:1010A00090935101A0935201B0935301DF91CF91DE
:1010B0001F910F91FF90EF90DF90CF90BF90AF9076
:1010C0000C941607DF91CF911F910F91FF90EF9035
:1010D000DF90CF90BF90AF9008954F925F926F9244
:1010E0007F928F929F92AF92BF92CF92DF92EF92B8
:1010F000FF920F931F93CF93DF9300D000D0CDB713
:10110000DEB76B01490157012091190130911A0195
:1011100030930701209306012091170130911801A7
:1011200030930501209304014090500150905101EB
:1011300060905201709053014092360150923701F5
:101140006092380170923901481B590BBA01882707
:1011500077FD8095982F0E94DA209B01AC01B401A5
:101160006C197D09882777FD8095982F29833A830C
:101170004B835C830E94DA2029813A814B815C8118
:101180000E94E51F29EF3FE049EC5FE30E94711FD9
:101190006B017C0129EF3FE049E450EC0E943820CC
:1011A00087FD09C0C0925001D0925101E0925201D6
:1011B000F092530110C029EF3FE049EC50E4C70121
:1011C000B6010E94721F6093500170935101809389
:1011D000520190935301B501882777FD8095982F90
:1011E0000E94DA204B015C01B801882777FD8095C9
:1011F000982F0E94DA202B013C01A50194010E9446
:10120000E51F905829EF3FE049EC5FE30E94711F12
:101210006B017C0129EF3FE049E450EC0E9438204B
:1012200087FF0AC029EF3FE049EC50E4C701B6014F
:101230000E94721F6B017C0120E030E040E251E42B
:10124000C301B2010E943F202B013C0120E030E0AD
:1012500040E251E4C501B4010E943F204B015C0112
:10126000A3019201C301B2010E94F3212B013C01B1
:10127000A5019401C501B4010E94F3219B01AC01B9
:10128000C301B2010E94721F0E94602220E030E080
:1012900040E251E40E94F3214B015C0129EF3FE061
:1012A00049E450E4609150017091510180915201E4
:1012B000909153010E94721FA70196010E94711F15
:1012C0006B017C0129EF3FE049E450EC0E9438209B
:1012D00087FF0AC029EF3FE049EC50E4C701B6019F
:1012E0000E94721F6B017C0129EF3FE049E450E44A
:1012F000C701B6010E94E821181654F429EF3FE017
:1013000049EC50E4C701B6010E94711F6B017C01DA
:10131000C701B6010E943C209B01AC01409008012E
:101320005090090160900A0170900B01C501B40151
:101330000E94F321A30192010E94F3210E94A720A1
:1013400071956195710970931A0160931901C70134
:10135000B6010E9456229B01AC01C501B4010E9456
:10136000F321A30192010E94F3210E94A72071950D
:101370006195710970931801609317010F900F9098
:101380000F900F90DF91CF911F910F91FF90EF90F1
:10139000DF90CF90BF90AF909F908F907F906F9095
:1013A0005F904F900C9490072F923F924F925F92D4
:1013B0006F927F928F929F92AF92BF92CF92DF9265
:1013C000EF92FF920F931F93CF93DF93CDB7DEB7CA
:1013D00060970FB6F894DEBF0FBECDBF1C017A87B1
:1013E0006987FC01A281B38120813181AD01421B5B
:1013F000530BFB010280F381E02DFE83ED83FB01A3
:10140000C080D1808D819E818C199D09449F4001AF
:10141000459F900C900C1124889FA001899F500D2E
:10142000500D1124840E951EAA2497FCA094BA2C6A
:10143000F101448155817A01E21AF30AFB0104802B
:10144000F581E02DFC87EB878F010C191D09EE9CBF
:10145000B001EF9C700D700D1124009F7001019F71
:10146000F00CF00C11246E0D7F1D2B01662457FC2F
:101470006094762CF101668177817B01E21AF30A90
:10148000E985FA852681378189010C191D09EE9CB1
:10149000C001EF9C900D900D1124009F7001019FE1
:1014A000F00CF00C11248E0D9F1D7C010027F7FC21
:1014B0000095102FE982FA820B831C837A01EA1AC5
:1014C000FB0A0B851C858D819E81081B190BEE9CE8
:1014D0006001EF9CD00CD00C1124009F7001019F83
:1014E000F00CF00C1124CE0CDF1CEE24D7FCE094A1
:1014F000FE2CFB01EA1BFB0BC9010D811E81801B29
:10150000910BEE9F8001EF9F100D100D1124889F0D
:10151000D001899FB00DB00D11240A0F1B1FC80107
:10152000AA2797FDA095BA2F8D839E83AF83B88796
:10153000641B750BAB85BC852A1B3B0B669FC001EA
:10154000679F900D900D1124229FA001239F500DA5
:10155000500D1124840F951F8C01222717FD209513
:10156000322F0D871E872F87388BF42DE52D962D72
:10157000872D481459046A047B0424F4F82DE92DBE
:101580009A2D8B2D4F2F5E2F692F782F89819A816D
:10159000AB81BC81481759076A077B0714F4AC017B
:1015A000BD014C155D056E057F0514F4B701A6015C
:1015B0000D811E812F8138854017510762077307FF
:1015C00014F4B901A8018D859E85AF85B8894817A7
:1015D00059076A077B0714F4AC01BD01942D852DD2
:1015E000F62DE72D84149504A604B70424F4982D51
:1015F000892DFA2DEB2D092F182F2F2F3E2F8981A2
:101600009A81AB81BC8180179107A207B30714F4BC
:101610008C019D01D901C801C016D106E206F3066E
:1016200014F4D701C6018C019D018D819E81AF818B
:10163000B88580179107A207B30714F48C019D01A8
:10164000D901C8010D851E852F853889081719070E
:101650002A073B0714F4D901C801481559056A0542
:101660007B05A1F484159505A605B70519F421E0BD
:1016700030E091C029813A814B815C8182179307C8
:10168000A407B507A1F320E030E03EC0441555059E
:1016900066057705A1F488159905AA05BB0519F417
:1016A00022E030E078C0E980FA800B811C818E1541
:1016B0009F05A007B107A1F320E030E05DC00981DC
:1016C0001A812B813C81401751076207730781F40F
:1016D00084159505A605B70519F423E030E05BC035
:1016E00088159905AA05BB05C1F320E030E04EC07E
:1016F0004C155D056E057F05B1F488159905AA05A1
:10170000BB0529F422E030E081E090E046C02D8165
:101710003E814F81588582179307A407B50791F33F
:1017200021E030E029C00D811E812F8138854017CE
:1017300051076207730781F488159905AA05BB054F
:1017400019F423E030E0E0CF8C159D05AE05BF0510
:10175000C1F321E030E01AC00D851E852F85388940
:101760004017510762077307A1F484159505A60574
:10177000B70529F423E030E082E090E00EC08C153C
:101780009D05AE05BF05B1F322E030E083E090E0B7
:1017900004C020E030E080E090E0BC01660F771FDD
:1017A000F101E60FF71F80819181220F331FF101B4
:1017B000E20FF31F40815181E985FA85E60FF71F9B
:1017C00060817181E985FA85E20FF31F2081318103
:1017D0007B01E20EF31EF7FE03C01FEFE11AF10AD0
:1017E000F594E7948C01040F151F17FF02C00F5FDB
:1017F0001F4F159507950E946D0860960FB6F894D7
:10180000DEBF0FBECDBFDF91CF911F910F91FF9033
:10181000EF90DF90CF90BF90AF909F908F907F9090
:101820006F905F904F903F902F9008952F923F922E
:101830004F925F926F927F928F929F92AF92BF92E0
:10184000CF92DF92EF92FF920F931F93CF93DF938C
:10185000CDB7DEB760970FB6F894DEBF0FBECDBF31
:101860008C011B01DC0112966D917C911397CD9038
:10187000DC90DE86CD86FB01EC19FD09D1011296C4
:101880002D913C911397CD90DC90D88ACF86A901F9
:101890004C195D09EE9FC001EF9F900D900D112432
:1018A000449FF001459FF00DF00D11248E0F9F1FF6
:1018B0006C01EE24D7FCE094FE2CC982DA82EB8224
:1018C000FC82D8011496ED90FC9015976701ED8588
:1018D000FE85CE1ADF0AD10114964D915C911597C1
:1018E000DA01EF85F889AE1BBF0BCC9CC001CD9C03
:1018F000900D900D1124AA9FF001AB9FF00DF00DFB
:1019000011248E0F9F1F2C01662457FC6094762CA7
:10191000F701E61BF70B421B530BEE9FC001EF9F35
:10192000900D900D1124449F9001459F300D300D76
:101930001124820F931F6C01EE24D7FCE094FE2C3F
:10194000CD82DE82EF82F886342D252D962D872DCF
:10195000C980DA80EB80FC804C145D046E047F0447
:1019600024F439812A819B818C81C32ED22EE92EC9
:10197000F82E2D813E814F815885C216D306E4068C
:10198000F50614F469017A01342D252D962D872D45
:1019900049815A816B817C8144155505660577051F
:1019A00024F439812A819B818C81832E922EA92E49
:1019B000B82E6D817E818F819885681579058A059D
:1019C0009B0514F44B015C01C701B6010E94DA20AB
:1019D00069877A878B879C87C501B4010E94DA20CA
:1019E0009B01AC0169857A858B859C850E943F208F
:1019F00069877A878B879C8720E030E040E050E45D
:101A00000E94382087FF3EC189819A81AB81BC81C9
:101A1000C816D906EA06FB0651F484149504A604F8
:101A2000B70489F51A82198221E030E032C0C4146B
:101A3000D504E604F70471F4C980DA80EB80FC80F9
:101A40008C149D04AE04BF0439F51A82198222E079
:101A500030E028C02D813E814F815885C216D306C3
:101A6000E406F50611F5C980DA80EB80FC808C1461
:101A70009D04AE04BF04F1F421E030E03A832983F1
:101A800022E030E01DC041E050E05A83498320E06D
:101A900030E082E090E016C062E070E07A83698313
:101AA00020E030E081E090E00DC01A82198220E051
:101AB00030E006C082E090E09A83898321E030E044
:101AC00080E090E06901CC0CDD1CF801EC0DFD1DFF
:101AD000608071807C01EE0CFF1CB301882777FDCC
:101AE0008095982F0E94DA204B015C01F801EE0DE1
:101AF000FF1D80819181B301681B790B882777FDD9
:101B00008095982F0E94DA2022EA35E446E05FE3D0
:101B10000E94F3219B01AC01C501B4010E94721F18
:101B20000E94A7204B015C01F101EC0DFD1DC0805E
:101B3000D180B601882777FD8095982F0E94DA2002
:101B40002B013C01F101EE0DFF1D80819181B60159
:101B5000681B790B882777FD8095982F0E94DA20E3
:101B600022EA35E446E05FE30E94F3219B01AC01E9
:101B7000C301B2010E94721F0E94A7206D837E8361
:101B80008F839887C980DA80CC0CDD1CDA86C98601
:101B9000F601E00FF11FC080D180DA82C982B40162
:101BA000882777FD8095982F0E94DA206B017C01B1
:101BB00029813A81B901882777FD8095982F0E9465
:101BC000DA202B013C0169817A816819790988271B
:101BD00077FD8095982F0E94DA2028EA36EC4BE8B2
:101BE0005EE30E94F3219B01AC01C301B2010E949C
:101BF000721F9B01AC01C701B6010E94711F0E94B8
:101C0000A7204B015C01E985FA85E20DF31D2080D8
:101C100031804D815E81BA01882777FD8095982FAC
:101C20000E94DA206B017C01B101882777FD809545
:101C3000982F0E94DA202B013C01B1018D819E81F9
:101C4000681B790B882777FD8095982F0E94DA20F2
:101C500028EA36EC4BE85EE30E94F3219B01AC01DD
:101C6000C301B2010E94721F9B01AC01C701B60102
:101C70000E94711F0E94A7207B018401910149816C
:101C80005A8156C120E030E040E850E469857A8509
:101C90008B859C850E94E82118160CF44CC1A70185
:101CA0009601C701B6010E94C722A50194010E94B6
:101CB000EB2228393840410551050CF03CC12981FF
:101CC0003A814B815C81C216D306E406F50661F4C5
:101CD00084149504A604B704A9F520E030E042E09E
:101CE00050E05A83498347C0C414D504E604F7047E
:101CF00081F4C980DA80EB80FC808C149D04AE04F2
:101D0000BF0439F520E030E041E050E05A834983D8
:101D100016C06D817E818F819885C616D706E8062C
:101D2000F906F1F4C980DA80EB80FC808C149D0404
:101D3000AE04BF04E1F421E030E01A82198282E0AF
:101D400090E01BC021E030E042E050E05A8349833C
:101D50000BC022E030E061E070E07A83698304C068
:101D600020E030E01A82198280E090E006C022E094
:101D700030E01A82198281E090E04901880C991CB8
:101D8000F801E80DF91D608071805C01AA0CBB1C94
:101D9000B301882777FD8095982F0E94DA206B0188
:101DA0007C01F801EA0DFB1D80819181681A790A96
:101DB000B301882777FD8095982F0E94DA2022EAC8
:101DC00035E446E05FE30E94F3219B01AC01C701CB
:101DD000B6010E94721F0E94A7206B017C01F101D5
:101DE000E80DF91D80809180B401882777FD8095EA
:101DF000982F0E94DA202B013C01F101EA0DFB1D16
:101E000080819181881A990AB401882777FD80958D
:101E1000982F0E94DA2022EA35E446E05FE30E9430
:101E2000F3219B01AC01C301B2010E94721F0E9409
:101E3000A7206D837E838F83988789819A81880FFD
:101E4000991F9A838983FC01E00FF11F00811181A2
:101E5000B601882777FD8095982F0E94DA204B01E4
:101E60005C01B801882777FD8095982F0E94DA20C1
:101E70002B013C01B8016C197D09882777FD8095FD
:101E8000982F0E94DA202FED3FE44DEC5FE30E9493
:101E9000F3219B01AC01C301B2010E94721F9B019F
:101EA000AC01C501B4010E94711F0E94A7204B0123
:101EB0005C01A981BA81A20DB31D0D911C91AD8168
:101EC000BE81BD01882777FD8095982F0E94DA207A
:101ED0006B017C01B801882777FD8095982F0E94BF
:101EE000DA202B013C01B801ED81FE816E1B7F0BD6
:101EF000882777FD8095982F0E94DA202FED3FE408
:101F00004DEC5FE30E94F3219B01AC01C301B201E0
:101F10000E94721F9B01AC01C701B6010E94711F94
:101F20000E94A7207B0184012F8538894D855E851D
:101F3000B401C40170C029813A814B815C81C21611
:101F4000D306E406F50641F484149504A604B70408
:101F500029F521E030E02CC0C414D504E604F704D0
:101F600061F4C980DA80EB80FC808C149D04AE049F
:101F7000BF04B9F422E030E01BC02D813E814F81C7
:101F80005885C216D306E406F50681F48414950438
:101F9000A604B70481F421E030E005C020E030E081
:101FA0000CC020E030E082E090E009C020E030E0AA
:101FB00080E090E004C022E030E081E090E0BC01ED
:101FC000660F771FF801E60FF71F80819181220FBE
:101FD000331FF801E20FF31F40815181F101E60F39
:101FE000F71F60817181F101E20FF31F20813181C0
:101FF0007B01E20EF31EF7FE03C0AFEFEA1AFA0A06
:10200000F594E7948C01040F151F17FF02C00F5FB2
:102010001F4F159507950E946D0860960FB6F894AE
:10202000DEBF0FBECDBFDF91CF911F910F91FF900B
:10203000EF90DF90CF90BF90AF909F908F907F9068
:102040006F905F904F903F902F900895CF93DF93C4
:10205000CDB7DEB760970FB6F894DEBF0FBECDBF29
:10206000E7E7F1E080E090E0408151814F3F23E0DD
:102070005207D1F0228133812F3F63E03607A1F070
:10208000DC01AA0FBB1F61E070E06C0F7D1FA60F83
:10209000B71F4751524019965C934E931897245599
:1020A00031402D933C930196369671E0EF38F70757
:1020B000D9F68430910541F4BE016F5F7F4FCE01A8
:1020C00009960E94D4090AC08330910551F4BE01DB
:1020D0006F5F7F4FCE0109960E94160C6E9A769A1A
:1020E00009C00197029730F06E9A769888E991E0DE
:1020F0000E94431760960FB6F894DEBF0FBECDBFA7
:10210000DF91CF91089587E791E00E945F19809356
:10211000760181110E9426108091760108958091A8
:10212000190190911A018D589F4F089580911701C0
:1021300090911801CC96089520E030E048EC52E4EC
:102140006091500170915101809152019091530121
:102150000E94F3210E94AC20CB01089580911A01C6
:102160008095881F8827881F8F5F0895589A599AED
:102170005A9A8CE08093B800E9E6F0E080818062B2
:10218000808380818F7E8083EA9A7894089584E8A2
:102190008093BC008091BC0087FFFCCF8091BB0086
:1021A000089584E98093BC00089520E030E0809198
:1021B000BC0087FD06C02F5F3F4F293E83E03807F4
:1021C000B1F781E0283E334009F480E00895809320
:1021D000BB0084E88093BC000E94D510882321F0C6
:1021E0008091B900887F089580E008951F93CF9370
:1021F000DF931F92CDB7DEB7182F84EA8093BC001F
:1022000069830E94D5106981811104C094E990937B
:10221000BC0014C0812F880F662331F08F5F0E94AD
:10222000E710883451F404C00E94E710803229F48A
:1022300084E98093BC0080E001C081E00F90DF91D1
:10224000CF911F910895CF93DF93C82FD62F60E0D1
:102250000E94F610882391F08D2F0E94E7108823AA
:1022600069F084E98093BC0061E08C2F0E94F61035
:10227000882321F0DF91CF910C94C71080E0DF918B
:10228000CF910895CF93DF93D62FC42F60E00E94A3
:10229000F610811102C080E00EC08D2F0E94E71061
:1022A0008823C9F38C2F0E94E7108823A1F384E9C7
:1022B0008093BC0081E0DF91CF910895CF93DF93AD
:1022C00000D01F92CDB7DEB74B836A8389830E940B
:1022D000B61094EA9093BC0089816A814B819091F9
:1022E000BC0097FFFCCF90E59093BB0094E89093DF
:1022F000BC009091BC0097FFFCCF9091B900987FF3
:10230000903229F484E98093BC0080E029C091E0F8
:102310009093BB0094E89093BC009091BC0097FF11
:10232000FCCF8093BB0084E88093BC008091BC000C
:1023300087FFFCCF6093BB0084E88093BC00809152
:10234000BC0087FFFCCF4093BB0084E88093BC00B7
:102350008091BC0087FFFCCF84E98093BC0081E0C2
:102360000F900F900F90DF91CF91089524EA209362
:10237000BC002091BC0027FFFCCF21E52093BB00CF
:1023800024E82093BC002091BC0027FFFCCF2091C3
:10239000B900287F2834A9F024EC2093BC002091B8
:1023A000BC0027FFFCCF2091BB0026130AC0FC0114
:1023B00020E030E0772767FD70956150710944ECAB
:1023C0000EC084E98093BC0080E008955091BC0069
:1023D00057FFFCCF5091BB0051932F5F3F4F261703
:1023E00037071CF44093BC00F1CF44E84093BC0095
:1023F0004091BC0047FFFCCF4091BB00FC01E20FC5
:10240000F31F408384E98093BC0081E00895F89431
:1024100094EA9093BC009091BC0097FFFCCF90E5AC
:102420009093BB0094E89093BC009091BC0097FF00
:10243000FCCF9091B900987F903231F484E9809379
:10244000BC00789480E0089593E09093BB0094E8FA
:102450009093BC009091BC0097FFFCCF8093BB0091
:1024600084E88093BC008091BC0087FFFCCFFB0117
:10247000552747FD509524E8CF01861B970B8417FD
:10248000950754F481918093BB002093BC00809108
:10249000BC0087FFFCCFF0CF84E98093BC00789428
:1024A00081E008958091E80080FFFCCF089581E0ED
:1024B0008093D70080EA8093D80082E189BD09B477
:1024C00000FEFDCF80E98093D8001092E0001092CA
:1024D0003D0110923A018CE08093E20078940895D7
:1024E00080913D0108959FB7F89480913D01882324
:1024F00039F083E08093E9008091E80085FD03C016
:102500009FBF8FEF08958091F1002091E80025FD95
:1025100003C02BE62093E8009FBF08959FB7F8946F
:1025200080913D01882331F083E08093E900809120
:10253000F20001C080E09FBF089580913D01882393
:1025400071F08FB7F89493E09093E9002BE69091A7
:10255000E80095FF03C02093E800F9CF8FBF0895EE
:1025600090913D01992371F09FB7F89424E0209356
:10257000E90020913B01222349F02091E80025FD4C
:1025800003C09FBF8FEF089510923B012091E4009C
:10259000275E34E04091E80045FD12C09FBF909156
:1025A000E400921304C081E080933B01EBCF909153
:1025B0003D01992339F39FB7F8943093E900EACFAE
:1025C0008093F1008091E80085FD03C08AE3809349
:1025D000E80085E080933C019FBF80E008959091E2
:1025E0003D019923D1F09FB7F89424E02093E900AE
:1025F0002091E80025FD02C09FBF0FC08093F1002D
:102600008091E80085FD03C08AE38093E80085E0BF
:1026100080933C019FBF80E008958FEF0895EF9273
:10262000FF921F93CF93DF937C01CB0120913D015B
:10263000222371F0AFB7F89424E02093E9002091B1
:102640003B01222349F02091E80025FD03C0AFBFE4
:102650008FEF42C210923B01B4E0C0E4DAE315E030
:10266000009709F437C22091E400275E3091E8001A
:1026700035FD12C0AFBF3091E400321304C081E0D9
:1026800080933B01E5CF30913D01332309F3AFB790
:10269000F894B093E900EACF2091F2004C2F421B4E
:1026A000242F30E08217930708F4482F841B9109E8
:1026B00050E04134510508F0FDC14A5A5F4FFA011C
:1026C0000C940A23F70120812093F10097012F5FDA
:1026D0003F4F7901F70120812093F10097012F5F8F
:1026E0003F4F7901F70120812093F10097012F5F7F
:1026F0003F4F7901F70120812093F10097012F5F6F
:102700003F4F7901F70120812093F10097012F5F5E
:102710003F4F7901F70120812093F10097012F5F4E
:102720003F4F7901F70120812093F10097012F5F3E
:102730003F4F7901F70120812093F10097012F5F2E
:102740003F4F7901F70120812093F10097012F5F1E
:102750003F4F7901F70120812093F10097012F5F0E
:102760003F4F7901F70120812093F10097012F5FFE
:102770003F4F7901F70120812093F10097012F5FEE
:102780003F4F7901F70120812093F10097012F5FDE
:102790003F4F7901F70120812093F10097012F5FCE
:1027A0003F4F7901F70120812093F10097012F5FBE
:1027B0003F4F7901F70120812093F10097012F5FAE
:1027C0003F4F7901F70120812093F10097012F5F9E
:1027D0003F4F7901F70120812093F10097012F5F8E
:1027E0003F4F7901F70120812093F10097012F5F7E
:1027F0003F4F7901F70120812093F10097012F5F6E
:102800003F4F7901F70120812093F10097012F5F5D
:102810003F4F7901F70120812093F10097012F5F4D
:102820003F4F7901F70120812093F10097012F5F3D
:102830003F4F7901F70120812093F10097012F5F2D
:102840003F4F7901F70120812093F10097012F5F1D
:102850003F4F7901F70120812093F10097012F5F0D
:102860003F4F7901F70120812093F10097012F5FFD
:102870003F4F7901F70120812093F10097012F5FED
:102880003F4F7901F70120812093F10097012F5FDD
:102890003F4F7901F70120812093F10097012F5FCD
:1028A0003F4F7901F70120812093F10097012F5FBD
:1028B0003F4F7901F70120812093F10097012F5FAD
:1028C0003F4F7901F70120812093F10097012F5F9D
:1028D0003F4F7901F70120812093F10097012F5F8D
:1028E0003F4F7901F70120812093F10097012F5F7D
:1028F0003F4F7901F70120812093F10097012F5F6D
:102900003F4F7901F70120812093F10097012F5F5C
:102910003F4F7901F70120812093F10097012F5F4C
:102920003F4F7901F70120812093F10097012F5F3C
:102930003F4F7901F70120812093F10097012F5F2C
:102940003F4F7901F70120812093F10097012F5F1C
:102950003F4F7901F70120812093F10097012F5F0C
:102960003F4F7901F70120812093F10097012F5FFC
:102970003F4F7901F70120812093F10097012F5FEC
:102980003F4F7901F70120812093F10097012F5FDC
:102990003F4F7901F70120812093F10097012F5FCC
:1029A0003F4F7901F70120812093F10097012F5FBC
:1029B0003F4F7901F70120812093F10097012F5FAC
:1029C0003F4F7901F70120812093F10097012F5F9C
:1029D0003F4F7901F70120812093F10097012F5F8C
:1029E0003F4F7901F70120812093F10097012F5F7C
:1029F0003F4F7901F70120812093F10097012F5F6C
:102A00003F4F7901F70120812093F10097012F5F5B
:102A10003F4F7901F70120812093F10097012F5F4B
:102A20003F4F7901F70120812093F10097012F5F3B
:102A30003F4F7901F70120812093F10097012F5F2B
:102A40003F4F7901F70120812093F10097012F5F1B
:102A50003F4F7901F70120812093F10097012F5F0B
:102A60003F4F7901F70120812093F10097012F5FFB
:102A70003F4F7901F70120812093F10097012F5FEB
:102A80003F4F7901F70120812093F10097012F5FDB
:102A90003F4F7901F70120812093F10097012F5FCB
:102AA0003F4F7901F70120812093F10097012F5FBB
:102AB0003F4F7901F70120812093F10097012F5FAB
:102AC0003F4F79012091E80025FFD093E800109353
:102AD0003C01C6CDAFBF80E0DF91CF911F91FF9049
:102AE000EF9008958FB7F89490913C01992341F0AD
:102AF00094E09093E9009AE39093E80010923C01EF
:102B00008FBF08958091100108958091110108955B
:102B100080911201089580913A0108959FB7F89429
:102B200020913D01222339F022E02093E9003091E9
:102B3000E80035FD03C09FBF8FEF089531EA309361
:102B4000F10030E23093F1001092F1001092F100A8
:102B50001092F1001092F1002093F1001092F10018
:102B60008093F1001092F1008AE38093E8009FBF08
:102B700080E008951F920F920FB60F9211248F9349
:102B80009F938091E1001092E10083FF11C01092A9
:102B9000E90091E09093EB001092EC0092E19093A9
:102BA000ED0098E09093F00010923D0110923A01F0
:102BB00082FF13C080913D01882379F080913C0110
:102BC000882359F0815080933C01811106C084E034
:102BD0008093E9008AE38093E8009F918F910F90A2
:102BE0000FBE0F901F9018951F920F920FB60F9265
:102BF0001124EF92FF920F931F932F933F934F93C4
:102C00005F936F937F938F939F93AF93BF93EF9354
:102C1000FF93CF93DF931F92CDB7DEB71092E900F9
:102C20008091E80083FF14C19091F1008091F10040
:102C30003091F1002091F100E32EF12CF22A009165
:102C4000F1002091F10010E0122B2091F100609131
:102C5000F10032EF3093E800863009F046C036E0EC
:102C60008AE991E0FC01459154914E155F0539F4D4
:102C7000FC013296459154914017510721F0079677
:102C8000315081F7E5C0FC01349645915491FC0127
:102C90003696849130E0362B2F3F310519F010F035
:102CA0002FEF30E0281708F4822F3EEF9091E800D4
:102CB000292F2570D9F392FDCEC0982F813108F0CD
:102CC00090E1FA01292F222331F064916093F10001
:102CD00021503196F8CF490F511D891B3093E800E0
:102CE0008111E4CF903111F3B6C0853051F48EEFED
:102CF0008093E8000E9452128E2D80688093E3003A
:102D0000AAC0893059F5911180C0E0923D0110921E
:102D10003A0110923C018EEF8093E80041E083E499
:102D200092E04093E9009C012F5F3F4FFC015491DA
:102D30005093EB00552359F0F90124912093EC00B6
:102D40009C012D5F3F4F319684918093ED004F5F42
:102D5000453011F0C901E5CF8EE175C0883051F4DE
:102D6000903809F052C00E94521280913D01809328
:102D7000F10047C0813279F4913A09F046C00E94CF
:102D80005212ECE0F1E081918093F10081E0E331B7
:102D9000F807C9F736C0803299F49132B1F58091C5
:102DA000E80082FFFCCFECE0F1E08091F10081933C
:102DB00081E0E331F807C9F78BEF8093E80021C089
:102DC000823241F4913209F043C0E0923A010E940C
:102DD000521217C0811119C099830E945212998111
:102DE000923851F40093E9008091EB0085FB88272D
:102DF00080F91092E90001C080E08093F100109208
:102E0000F1008EEF8093E80026C0282F2D7F21301F
:102E1000F9F49230E9F4EF28D9F40F779FEF900F8F
:102E20009430B0F49EEF9093E8000093E900833073
:102E300079F089E18093EB0081E090E0002E01C001
:102E4000880F0A94EAF78093EA001092EA0003C020
:102E500081E28093EB000F90DF91CF91FF91EF9192
:102E6000BF91AF919F918F917F916F915F914F91A2
:102E70003F912F911F910F91FF90EF900F900FBEF8
:102E80000F901F9018951F93CF93DF93EC01FE01D5
:102E90001491112351F01A3019F48DE00E94B012F0
:102EA000812F0E94B0122196F2CFDF91CF911F9116
:102EB00008958A3010F490E301C097E3890F0C94D1
:102EC000B012CF93C82F82958F700E9459178C2F04
:102ED0008F70CF910C945917CF93C82F892F0E94D0
:102EE00061178C2FCF910C9461170C946117EF929E
:102EF000FF920F931F93CF93DF93CDB7DEB7279742
:102F00000FB6F894DEBF0FBECDBF8E010F5F1F4F0F
:102F100027E0F80111922A95E9F74AE0B8010E94EA
:102F200060237E01F8E0EF0EF11CF80181918F0122
:102F300081110E94B0120E151F05B9F727960FB622
:102F4000F894DEBF0FBECDBFDF91CF911F910F91DF
:102F5000FF90EF900895EF92FF920F931F93CF93FE
:102F6000DF9300D000D000D0CDB7DEB78E010F5F69
:102F70001F4F26E0F80111922A95E9F74AE0B801BF
:102F80000E949C237E01F6E0EF0EF11CF801819176
:102F90008F0181110E94B0120E151F05B9F72696F8
:102FA0000FB6F894DEBF0FBECDBFDF91CF911F915A
:102FB0000F91FF90EF900895EF92FF920F931F9360
:102FC000CF93DF93CDB7DEB72B970FB6F894DEBF64
:102FD0000FBECDBF8E010F5F1F4F2BE0F801119286
:102FE0002A95E9F72AE0A8010E946B237E01FCE004
:102FF000EF0EF11CF80181918F0181110E94B01236
:103000000E151F05B9F72B960FB6F894DEBF0FBE4D
:10301000CDBFDF91CF911F910F91FF90EF90089559
:10302000EF92FF920F931F93CF93DF93CDB7DEB74D
:103030002B970FB6F894DEBF0FBECDBF8E010F5F8A
:103040001F4F2BE0F80111922A95E9F72AE0A80119
:103050000E947A237E01FBE0EF0EF11CF8018191C2
:103060008F0181110E94B0120E151F05B9F72B9622
:103070000FB6F894DEBF0FBECDBFDF91CF911F9189
:103080000F91FF90EF90089520E030E08091BC0018
:1030900087FD06C02F5F3F4F293E83E03807B1F719
:1030A00081E0283E334009F480E008958093BB001E
:1030B00084E88093BC000E944418882319F0809112
:1030C000B900887F0895CF93C82F84EA8093BC000D
:1030D0000E944418882361F08C2F880F0E94561894
:1030E000803229F484E98093BC0080E001C081E053
:1030F000CF9108950E94B61088E50E94631881114F
:1031000002C080E0089580E30E9456188823C9F326
:1031100081E00E9456188823A1F384E98093BC00C3
:103120008FE39CE90197F1F700C0000088E50E9459
:103130006318882331F380E00E945618882309F32E
:1031400080E00E9456188823E1F280E00E94561821
:103150008823B9F280E00E945618882391F280E01B
:103160000E945618882369F280E00E94561888232E
:1031700041F280E00E945618882319F280E90E94EB
:103180005618882309F4BDCF84E98093BC008FE3EF
:103190009CE90197F1F700C0000088E50E946318E0
:1031A000882309F4AECF87E00E945618882309F4DB
:1031B000A8CF80E00E945618882309F4A2CF81E4AA
:1031C0000E945618882309F49CCF84E98093BC00A0
:1031D0008FE39CE90197F1F700C0000088E50E94A9
:1031E0006318882309F48DCF8AE10E94561888233A
:1031F00009F487CF80E40E945618882309F481CF10
:1032000080E00E945618882309F47BCF84E98093DC
:10321000BC008FE39CE90197F1F700C0000088E54E
:103220000E946318882309F46CCF83E30E94561828
:10323000882309F466CF83E00E945618882309F496
:1032400060CF84E98093BC008FE39CE90197F1F79C
:1032500000C0000088E50E946318882309F451CF5C
:1032600080E30E945618882309F44BCF88E00E941F
:103270005618882309F445CF84E98093BC008FE376
:103280009CE90197F1F700C0000081E00895CF9319
:10329000C82F84EA8093BC000E944418882369F0F8
:1032A0008C2F880F8F5F0E945618883429F484E988
:1032B0008093BC0080E001C081E0CF910895EF923F
:1032C000FF920F931F93CF93DF93CDB7DEB7609735
:1032D0000FB6F894DEBF0FBECDBF7C018E010F5F2D
:1032E0001F4F80E1F80111928A95E9F788E50E9465
:1032F0006318811102C080E05EC086E30E94561808
:103300008823C9F384E98093BC00F5E8FA95F1F7C6
:10331000000088E50E944719882369F3F8019E019F
:10332000205F3F4F94EC9093BC008091BC0087FFDE
:10333000FCCF8091BB008193E217F307A1F784E8EB
:103340008093BC008091BC0087FFFCCF8091BB00C4
:10335000888B84E98093BC00DE01149687016C9110
:10336000762F7073AD0142505109FA01808190E0CF
:10337000F0E17F9F800D911D1124F80191838083DE
:10338000762F707C4F5F5F4FFA01808190E0F4E010
:103390007F9F800D911D1124F801938382836F70AC
:1033A000862F90E09583848313960A5F1F4FA217A0
:1033B000B307A9F681E060960FB6F894DEBF0FBEA2
:1033C000CDBFDF91CF911F910F91FF90EF900895A6
:1033D00084E98093BC00089580918F0190E0FC0106
:1033E000E05AF109E730F10508F0DDC0E956FF4F7A
:1033F0000C940A238FE592E00E9443170E948310E9
:103400000E94AE10813061F4469A2FEF80E792E07F
:10341000215080409040E1F700C000004698089598
:103420000E94AE10823009F0BEC0479A2FEF80E7AD
:1034300092E0215080409040E1F700C000004798A2
:1034400008958CE592E00E9443170E9483100E9429
:10345000AE10992787FD909590931F0180931E01D0
:10346000019719F4469A479802C0479A46980E94D5
:10347000D2060E94BE022FEF89E698E121508040DB
:103480009040E1F700C000000E94D6022FEF89E6CD
:1034900098E1215080409040E1F700C000000E9478
:1034A000D90182E090E090933F0180933E010C941B
:1034B000990189E592E00E94431740911E015091C5
:1034C0001F0180919001209191014130510509F532
:1034D0000FC086E592E00E94431740911E01509173
:1034E0001F0120919001809191014230510589F492
:1034F000992787FD90959093470180934601332744
:1035000027FD309530934501209344010E94DF044C
:1035100046C0332727FD309530934701209346015D
:10352000992787FD9095909345018093440137C07A
:1035300083E592E00E94431732C080E592E00E944A
:1035400043176E9A769880911E0190911F01019702
:1035500071F446982FEF81EE94E021508040904026
:10356000E1F700C00000469A82E090E00DC0479865
:103570002FEF81EE94E0215080409040E1F700C0B1
:103580000000479A81E090E090931F0180931E0114
:1035900006C08DE492E00E94431746984798109227
:1035A0003F0110923E0108951F920F920FB60F92A5
:1035B00011242B982D982E980F900FBE0F901F90CE
:1035C00018951F920F920FB60F9211242B9A2D9AD5
:1035D0002E9A0F900FBE0F901F9018951F920F926A
:1035E0000FB60F9211242F933F934F935F936F93D6
:1035F0007F938F939F93AF93BF93EF93FF936AE073
:103600008FE891E00E94B6110E94EC19FF91EF91B2
:10361000BF91AF919F918F917F916F915F914F91EA
:103620003F912F910F900FBE0F901F90189584EA35
:1036300092E00E94431780915801909159010E9495
:1036400077178FE992E00E94431780915A01909179
:103650005B010E9477178AE992E00E9443178091EC
:103660005C0190915D010E94771785E992E00E94CC
:10367000431780915E0190915F010E9477178FE858
:1036800092E00E94431780916001909161010E9435
:10369000771789E892E00E94431780916201909128
:1036A00063010E94771783E892E00E94431780919C
:1036B0006401909165010E9477178EE792E00E9465
:1036C000431780916601909167010E94771785E703
:1036D00092E00E94431720E030E044E353E460911D
:1036E00048017091490180914A0190914B010E94DB
:1036F000F32129EF3FE049E450E40E943F200E947B
:10370000A720CB010E9477178DE692E00E94431715
:1037100020E030E048EC52E460914C0170914D01A2
:1037200080914E0190914F010E94F3210E94A720A9
:10373000CB010E94771782E692E00E9443178091A6
:103740005401909155010C9477178F929F92AF92EC
:10375000BF92CF92DF92EF92FF920F931F93CF937E
:10376000DF936B017C01EA018901BA01882777FDAB
:103770008095982F0E94DA204B015C01BE01600FFA
:10378000711F882777FD8095982F0E94DA209B0172
:10379000AC01C501B4010E943F209B01AC01C701EF
:1037A000B6010E94F321DF91CF911F910F91FF90FD
:1037B000EF90DF90CF90BF90AF909F908F90089543
:1037C0002091540130915501E8E5F1E0808191812B
:1037D000821B930B97FF03C01182108202C091835A
:1037E0008083329681E0E636F80781F708952F92BC
:1037F0003F924F925F926F927F928F929F92AF9281
:10380000BF92CF92DF92EF92FF920F931F93CF93CD
:10381000DF93CDB7DEB72E970FB6F894DEBF0FBE9D
:10382000CDBF0E94E01B209058013090590120919B
:103830006001309161013A83298300916201109106
:10384000630140916401509165015E874D878091CD
:103850005A0190915B019C838B83BC01882777FD83
:103860008095982F0E94DA202B013C01E0915C01A9
:10387000F0915D01FE83ED83BF01882777FD809580
:10388000982F0E94DA206B017C0120915E0130911B
:103890005F0138872F83B901882777FD8095982F9E
:1038A0000E94DA204B015C0189819A81820D931D6F
:1038B000800F911F4D855E85840F951F97FD0396A0
:1038C0009595879595958795BC01882777FD809577
:1038D000982F0E94DA20A30192010E94721FA70173
:1038E00096010E94721FA50194010E94721F6987B0
:1038F0007A878B879C876091220170912301660FE4
:10390000771F660F771F882777FD8095982F0E9475
:10391000DA209B01AC0169857A858B859C850E94A4
:103920003F2060934C0170934D0180934E01909322
:103930004F01209120013091210140916601509169
:103940006701241735079CF42017310784F4ED85AF
:10395000FE852E173F075CF4109248011092490132
:1039600010924A0110924B0183E090E01BC0498104
:103970005A8124173507DCF422153305FCF420178F
:1039800031070CF059C18D859E8528173907F4F44D
:10399000109248011092490110924A0110924B0175
:1039A00082E090E090933F0180933E0150C1221548
:1039B0003305FCF420173107B4F01BC02017310782
:1039C000C4F4ED85FE852E173F079CF48FE892EC3A
:1039D000A5ECB0E48093480190934901A0934A017B
:1039E000B0934B01DDCFED85FE852E173F070CF41C
:1039F00029C12DEC3CEC4CEC5DE30E94E82118164B
:103A00000CF017C182E090E090933F0180933E015B
:103A1000AAE5B1E021E030E080E090E041E050E054
:103A20006D917D91FC01EE0FFF1FE85AFE4F019052
:103A3000F081E02DE617F7076CF0F901EE0FFF1F9C
:103A4000E85AFE4F0190F081E02DE617F70724F4C5
:103A50009A0102C09C01CA014F5F5F4F4730510578
:103A6000F9F6BC01621B730B6130710569F0A901A5
:103A7000481B590B4130510539F06630710521F072
:103A80004630510509F09EC0AC01281739070CF4E7
:103A9000A9014115510559F5069709F4C1C0263011
:103AA000310509F4BDC0B101882777FD8095982FB5
:103AB0000E94DA206B017C016B817C81620D731D99
:103AC000882777FD8095982F0E94DA209B01AC0112
:103AD000C701B6010E943F2021E230EB42E35FE3E1
:103AE0000E94F3212EEE3CE74FE55FE360C04230D9
:103AF000510521F143305105F1F14130510509F0F3
:103B00008FC06B817C812D813E81620F731F88275E
:103B100077FD8095982F0E94DA209B01AC01C301AC
:103B2000B2010E943F2029EF3FE049EC5FE30E9491
:103B3000F32129EF3FE049EC5FE339C06D817E81DD
:103B40004F815885640F751F882777FD8095982FC2
:103B50000E94DA209B01AC01C701B6010E943F2000
:103B600029EF3FE049EC5FE30E94F32129EF3FE0BA
:103B700049E450E41CC06F81788589819A81680F7F
:103B8000791F882777FD8095982F0E94DA209B0166
:103B9000AC01C501B4010E943F2021E230EB42E3B9
:103BA0005FE30E94F3212BEF3BEC46E950E40E94D7
:103BB000721F609348017093490180934A0190936A
:103BC0004B0145C082309105C9F04CF4009789F053
:103BD000019731F589EF9FE0A9ECBFE318C083306E
:103BE000910589F00497E1F48BEF92E2ADEAB0E43D
:103BF0000EC089EF96E6AFE5BFE309C089EF9FE00D
:103C0000A9E4B0E404C08BEF9BECA6E9B0E4809398
:103C1000480190934901A0934A01B0934B0117C00A
:103C2000109248011092490110924A0110924B01E2
:103C30000EC081E090E0B6CE4D855E852417350735
:103C40000CF0D7CE8AE097EDA3E2BCE3C3CE2E966C
:103C50000FB6F894DEBF0FBECDBFDF91CF911F919D
:103C60000F91FF90EF90DF90CF90BF90AF909F901B
:103C70008F907F906F905F904F903F902F9008951E
:103C80008091680190916901892BD1F080917A002F
:103C90008F7780937A000E94F71B0E94171B109267
:103CA00069011092680180917A00806880937A009F
:103CB00080917A00806480937A0081E090E008959A
:103CC00080E090E008950E94401E892BE1F38091EE
:103CD0005E0190915F0120915C0130915D0182173E
:103CE00093070CF49C0180915A0190915B0182171B
:103CF00093070CF49C0130935501209354018FEFEE
:103D000093E0821B930B9093230180932201909365
:103D100021018093200108951F920F920FB60F92F8
:103D200011242F933F938F939F93EF93FF93809151
:103D30007A008F7780937A00809156019091570195
:103D40002091780030917900FC01EE0FFF1FE85AB6
:103D5000FE4F318320838730910559F4109257012B
:103D60001092560181E090E0909369018093680180
:103D700005C001969093570180935601E09156013A
:103D8000F0915701E830F10508F053C0E256FF4FBB
:103D900080917B000C940A238F7D29C08F7D38C0D1
:103DA0008F7D80937B0080917C00846025C08F7D17
:103DB00080937B0080917C0084602FC08F7D8093F6
:103DC0007B0080917C00846080937C0080917C00EB
:103DD000826017C08F7D80937B0080917C0084601F
:103DE00080937C0080917C0082601CC08062809304
:103DF0007B0080917C008B7F80937C0080917C0095
:103E00008D7F80937C0080917C008E7F10C08062CB
:103E100080937B0080917C008B7F80937C008091DD
:103E20007C008D7F80937C0080917C0081608093FA
:103E30007C0080917A00806880937A0080917A007B
:103E4000806480937A00FF91EF919F918F913F91D1
:103E50002F910F900FBE0F901F9018950E9405078D
:103E60000E94CB0180E880936100109261000E9463
:103E7000631E0E94740180913E0190913F01823047
:103E80009105B1F030F4009781F08130910511F186
:103E9000F6CF84309105F1F090F08530910579F7F7
:103EA0000E9483100E94401EE6CF0E94D901E3CFFA
:103EB0000E9483100E94401E0E94EC04DCCF0E94EE
:103EC000831060E070E080911301909114010E94D2
:103ED0002805D1CF0E9483100E94401E0E94CC056D
:103EE000CACF5058BB27AA270ED027C2F0D130F036
:103EF000F5D120F031F49F3F11F41EF4C0C10EF44F
:103F0000E095E7FBB6C1E92F3AD280F3BA17620712
:103F100073078407950718F071F49EF552C20EF4EA
:103F2000E0950B2EBA2FA02D0B01B90190010C01C9
:103F3000CA01A0011124FF27591B99F0593F50F4E1
:103F4000503E68F11A16F040A22F232F342F442739
:103F5000585FF3CF469537952795A795F040539531
:103F6000C9F77EF41F16BA0B620B730B840BBAF001
:103F70009150A1F0FF0FBB1F661F771F881FC2F76C
:103F80000EC0BA0F621F731F841F48F48795779580
:103F90006795B795F7959E3F08F0B3CF9395880F37
:103FA00008F09927EE0F97958795089590D158F0CE
:103FB00080E891E009F49EEF91D128F040E851E0CB
:103FC00059F45EEF09C05BC1FCC1E92FE078D7D19D
:103FD00068F3092E052AC1F3261737074807590742
:103FE00038F00E2E07F8E02569F0E025E0640AC0FD
:103FF000EF6307F8009407FADB01B9019D01DC01CA
:10400000CA01AD01EF934AD098D10AD05F915523F0
:1040100031F02BED3FE049E450FD49EC63CF0895CA
:10402000DF93DD27B92FBF7740E85FE31616170649
:1040300048075B0710F4D92FCFD19F938F937F93BD
:104040006F937CD2ECE4F1E01DD177D12F913F91B9
:104050004F915F91D4D1DD2349F09058A2EA2AED27
:104060003FE049EC5FE3D0785D274DDFDF9165C12C
:10407000DCD008F481E0089539D1E3956FC10CD00C
:104080005CC12CD140F023D130F021F45F3F19F016
:10409000F0C0511197C1F3C072D198F39923C9F3BD
:1040A0005523B1F3951B550BBB27AA27621773073E
:1040B000840738F09F5F5F4F220F331F441FAA1FF2
:1040C000A9F333D00E2E3AF0E0E830D091505040B2
:1040D000E695001CCAF729D0FE2F27D0660F771F60
:1040E000881FBB1F261737074807AB07B0E809F042
:1040F000BB0B802DBF01FF2793585F4F2AF09E3FD7
:10410000510568F0B6C05EC15F3FECF3983EDCF34A
:10411000869577956795B795F7959F5FC9F7880F4F
:10412000911D9695879597F90895E1E0660F771FA1
:10413000881FBB1F621773078407BA0720F0621B32
:10414000730B840BBA0BEE1F88F7E095089504D02B
:104150006894B11137C108951AD188F09F5790F033
:10416000B92F9927B751A0F0D1F0660F771F881F9C
:10417000991F1AF0BA95C9F712C0B13081F021D158
:10418000B1E008951EC1672F782F8827B85F39F0F6
:10419000B93FCCF3869577956795B395D9F73EF4FB
:1041A00090958095709561957F4F8F4F9F4F0895A3
:1041B000E89409C097FB3EF49095809570956195C1
:1041C0007F4F8F4F9F4F9923A9F0F92F96E9BB2777
:1041D0009395F695879577956795B795F111F8CFF3
:1041E000FAF4BB0F11F460FF1BC06F5F7F4F8F4F5E
:1041F0009F4F16C0882311F096E911C0772321F054
:104200009EE8872F762F05C0662371F096E8862FEB
:1042100070E060E02AF09A95660F771F881FDAF742
:10422000880F9695879597F90895990F0008550F6F
:10423000AA0BE0E8FEEF16161706E807F907C0F02C
:1042400012161306E407F50798F0621B730B840B34
:10425000950B39F40A2661F0232B242B252B21F40E
:1042600008950A2609F4A140A6958FEF811D811DAE
:10427000089597F99F6780E870E060E008959FEFE8
:1042800080EC0895DF93CF931F930F93FF92EF92EB
:10429000DF927B018C01689405C0DA2EEF01AFD06C
:1042A000FE01E894A5912591359145915591AEF384
:1042B000EF0129DEFE019701A801DA9479F7DF907A
:1042C000EF90FF900F911F91CF91DF9108950024FF
:1042D0000A941616170618060906089500240A946B
:1042E00012161306140605060895C9CF50D0E8F338
:1042F000E894E0E0BB279F57F0F02AED3FE049EC5F
:1043000006C0EE0FBB0F661F771F881F28F0B23A5A
:1043100062077307840728F0B25A620B730B840B91
:10432000E3959A9572F7803830F49A95BB0F661F23
:10433000771F881FD2F7904806C1092E0394000CFE
:1043400011F4882352F0BB0F40F4BF2B11F460FF2F
:1043500004C06F5F7F4F8F4F9F4F0895EF93E0FF33
:1043600006C0A2EA2AED3FE049EC5FEBCCDDE5DFD9
:104370000F90039401FC9058E9E7F1E0F7C057FD76
:104380009058440F551F59F05F3F71F04795880FC3
:1043900097FB991F61F09F3F79F08795089512165A
:1043A00013061406551FF2CF4695F1DF08C0161606
:1043B00017061806991FF1CF8695710561050894B7
:1043C0000895E894BB2766277727CB0197F90895CE
:1043D0002CDF08F48FEF08959B01AC0160E070E0E2
:1043E00080E89FE34CCE0BD0A8CF71DF28F076DFBA
:1043F00018F0952309F03DCF42CF1124E3CFBFDF62
:10440000A0F3959FD1F3950F50E0551F629FF001E7
:10441000729FBB27F00DB11D639FAA27F00DB11D40
:10442000AA1F649F6627B00DA11D661F829F2227C9
:10443000B00DA11D621F739FB00DA11D621F839F50
:10444000A00D611D221F749F3327A00D611D231F26
:10445000849F600D211D822F762F6A2F11249F5774
:1044600050408AF0E1F088234AF0EE0FFF1FBB1F97
:10447000661F771F881F91505040A9F79E3F510536
:1044800070F0F7CE9FCF5F3FECF3983EDCF386955C
:1044900077956795B795F795E7959F5FC1F7FE2BE1
:1044A000880F911D9695879597F908959F931EDF24
:1044B0000F9007FCEE5F52CF11F40EF4E0CE41C036
:1044C00066DFD0F39923D9F3CEF39F57550B87FFBF
:1044D00046D00024A0E640EA900180585695979572
:1044E00028F4805C660F771F881F20F02617370797
:1044F000480730F4621B730B840B202931294A2BA7
:10450000A69517940794202531254A2758F7660F5A
:10451000771F881F20F026173707480730F4620BF3
:10452000730B840B200D311D411DA09581F7B9013E
:10453000842F9158880F9695879508959B01AC011B
:1045400052CF9F3F31F0915020F487957795679532
:10455000B795880F911D9695879597F90895915075
:104560005040660F771F881FD2F708959F938F934F
:104570007F936F93FF93EF939B01AC0134DFEF9137
:10458000FF9180DE2F913F914F915F912CCFDB0106
:104590008F939F930E941023BF91AF91A29F800D94
:1045A000911DA39F900DB29F900D1124089597FB2C
:1045B000072E16F4009407D077FD09D00E941B2324
:1045C00007FC05D03EF4909581959F4F0895709516
:1045D00061957F4F0895052E97FB1EF400940E946D
:1045E000022357FD07D00E942F2307FC03D04EF46F
:1045F0000C94022350954095309521953F4F4F4F95
:104600005F4F089590958095709561957F4F8F4F7E
:104610009F4F0895EE0FFF1F0590F491E02D099430
:104620000E945123A59F900DB49F900DA49F800DD3
:10463000911D11240895AA1BBB1B51E107C0AA1F9D
:10464000BB1FA617B70710F0A61BB70B881F991F33
:104650005A95A9F780959095BC01CD010895A1E2E6
:104660001A2EAA1BBB1BFD010DC0AA1FBB1FEE1FEC
:10467000FF1FA217B307E407F50720F0A21BB30B37
:10468000E40BF50B661F771F881F991F1A9469F7B3
:1046900060957095809590959B01AC01BD01CF010F
:1046A0000895A29FB001B39FC001A39F700D811D0B
:1046B0001124911DB29F700D811D1124911D08952B
:1046C000BB274A3031F4992322F4BDE290958195BD
:1046D0009F4F0C949D23BB272A3051F4992342F419
:1046E000BDE290958095709561957F4F8F4F9F4F5C
:1046F0000C947B23BB27FA01A62F62177105810555
:104700009105330B30FB66F0AA27660F771F881FD1
:10471000991FAA1FA21710F0A21B63953850A9F782
:10472000A05DAA3308F0A95DA19336F7B111B1934A
:104730001082CA010C94B623BB27FB015527AA2778
:10474000880F991FAA1FA41710F0A41B839550511E
:10475000B9F7A05DAA3308F0A95DA193009779F796
:10476000B111B1931192CB010C94B623DC01FC0181
:10477000672F71917723E1F7329704C07C916D9395
:1047800070836291AE17BF07C8F30895F894FFCF06
:10479000CDCC4C3EF401F4010AD7A33E00E1000069
:1047A00000000873008DFFF401F4011801000100FE
:0447B000FF03FF0301
:00000001FF
