:100000000C946A010C9487010C9487010C943D1C9C
:100010000C9487010C9487010C9487010C94870140
:100020000C9487010C9487010C9480170C94BA17D8
:100030000C9487010C9487010C9487010C94870120
:100040000C9487010C94BC010C9487010C948701DB
:100050000C9487010C9487010C9487010C94870100
:100060000C9487010C9487010C9487010C948701F0
:100070000C9487010C943B1F0C9487010C9487010E
:100080000C9487010C9487010C9487010C948701D0
:100090000C9487010C9487010C9487010C948701C0
:1000A0000C9487010C9487010C9487012817201762
:1000B0001817101708170017F816F016E816E016AC
:1000C000D816D016C816C016B816B016A816A016A0
:1000D0009816901688168016781670166816601690
:1000E0005816501648164016381630162816201680
:1000F0001816101608160016F815F015E815E01574
:10010000D815D015C815C015B815B015A815A01567
:100110009815901588158015781570156815601557
:100120005815501548154015381530152815C01BA1
:10013000E61BFF1B0B1C381C381C361C281EB41E6B
:10014000CB1E841E9C1E401E621E7B1F7D1F841FB3
:100150008B1F971FA31FAA1FBB1F084AD73B3BCE6D
:10016000016E84BCBFFDC12F3D6C74319ABD5683B6
:100170003DDA3D00C77F11BED9E4BB4C3E916BAA6E
:10018000AABE000000803F05A84CCDB2D44EB938BD
:1001900036A9020C50B9918688083CA6AAAA2ABEA4
:1001A000000000803F00000100003D02120002003C
:1001B00000FA014300030000F6010401030904E210
:1001C000011202030904DA010603030904D001083D
:1001D0000803340031003000000006034D003200F7
:1001E000000012034A002E0020004600690065004E
:1001F0006E006500000004030904090243000201C7
:1002000000C03209040000010202010005240010B0
:10021000010524010101042402060524060001074A
:1002200005820310004009040100020A00000007D3
:10023000050302400000070584024000001201008F
:100240000202000010C0167A04000101020301003E
:1002500001C112018036018136667764330072690C
:1002600067687434006C656674340072696768741A
:1002700033006C65667433006C65667432007269B5
:1002800067687432006261636B32006677643100C4
:10029000726967687431006C656674310009416D7C
:1002A0006269656E743A200009443A200009495297
:1002B0003A200009494C3A200009544C3A200009E0
:1002C0004C3A200009423A200009523A20000A54D0
:1002D000523A200011241FBECFEFDAE0DEBFCDBFBF
:1002E00011E0A0E0B1E0ECE2F9E402C005900D926B
:1002F000AE32B107D9F721E0AEE2B1E001C01D9204
:10030000A13BB207E1F70E94E21F0C9494240C94E5
:100310000000109248011092490110924A01109277
:100320004B0110928500109284000895E1E8F0E0FE
:1003300080818B7F808380818260808380818160E7
:10034000808380818F7E8083808188608083E0E8E5
:10035000F0E080818D7F808380818E7F8083EFE6D7
:10036000F0E08081826080838AEF90E09093890042
:10037000809388000C9489011F920F920FB60F9200
:1003800011248F939F93AF93BF93809148019091D5
:100390004901A0914A01B0914B010196A11DB11DE7
:1003A0008093480190934901A0934A01B0934B0177
:1003B000BF91AF919F918F910F900FBE0F901F90A3
:1003C0001895239A08951B9B0E94E101479A46982D
:1003D00081E090E0909379018093780108951B9BD0
:1003E0000E94E1014798469A109279011092780193
:1003F00008951B9B0E94E1012E9A2D9881E090E0C8
:10040000909301018093000108951B9B0E94E101DC
:100410002E982D9A109201011092000108952398B0
:1004200008958F929F92AF92BF92CF92DF92EF92F8
:10043000FF920F931F93CF93DF9380917801909158
:1004400079016091CF0070E0892B89F080E090E025
:100450000E94A82120E030E048EC52E40E94C12232
:1004600020E030E04FE753E40E940D2118C080E007
:1004700090E00E94A82120E030E048EC52E40E9485
:10048000C12220E030E04FE753E40E940D219B01A0
:10049000AC0160E070E088EC92E40E943F200E9492
:1004A00075218B0180910001909101016091D00034
:1004B00070E0892B89F080E090E00E94A82120E084
:1004C00030E048EC52E40E94C12220E030E04FE7E7
:1004D00053E40E940D2118C080E090E00E94A82102
:1004E00020E030E048EC52E40E94C12220E030E0FD
:1004F0004FE753E40E940D219B01AC0160E070E0E6
:1005000088EC92E40E943F200E947521EB01B80123
:10051000882777FD8095982F0E94A8212DEC3CEC30
:100520004CE45EE30E94C1226B017C016091860174
:1005300070918701882777FD8095982F0E94A821C8
:100540002DEC3CEC4CE45FE30E94C1229B01AC012A
:10055000C701B6010E9440200E9475214B015C0139
:10056000BE01882777FD8095982F0E94A8212DEC49
:100570003CEC4CE45EE30E94C1226B017C01609183
:10058000760170917701882777FD8095982F0E94DA
:10059000A8212DEC3CEC4CE45FE30E94C1229B01BE
:1005A000AC01C701B6010E9440200E9475216B0179
:1005B0007C01EB0197FC15C00E94E3018FEF889D41
:1005C000B001899D700D1124882777FD8095982FA3
:1005D0000E94A82120E030E048EC52E40E940D2166
:1005E0001AC00E94EF018FEF889DB001899D700DA8
:1005F0001124882777FD8095982F0E94A82120E05C
:1006000030E048EC52E40E940D2120E030E04FE75A
:1006100053E40E9440200E947A216093CF00D7FDCE
:1006200015C00E94F9018FEF8C9DB0018D9D700D5A
:100630001124882777FD8095982F0E94A82120E01B
:1006400030E048EC52E40E940D211AC00E940502DD
:100650008FEF8C9DB0018D9D700D1124882777FD43
:100660008095982F0E94A82120E030E048EC52E4C9
:100670000E940D2120E030E04FE753E40E9440202B
:100680000E947A216093D000DF91CF911F910F914A
:10069000FF90EF90DF90CF90BF90AF909F908F90A2
:1006A000089584E690E0909387018093860190936B
:1006B0007701809376010C9411028BE490E0909383
:1006C00087018093860190937701809376010C9443
:1006D00011028CE99FEF909387018093860190939C
:1006E0007701809376010C94110285EB9FEF909334
:1006F00087018093860190937701809376010C9413
:10070000110285E590E0909387018093860181E452
:1007100090E090937701809376010C94110281E42C
:1007200090E0909387018093860185E590E0909317
:100730007701809376010C9411028CE390E0909302
:100740008701809386018EE190E0909377018093FA
:1007500076010C9411028EE190E0909387018093D2
:1007600086018CE390E090937701809376010C945E
:10077000110286E490E0909387018093860184ECD7
:100780009FEF90937701809376010C94110284EC93
:100790009FEF909387018093860186E490E0909389
:1007A0007701809376010C941102CF93DF93C4EF0D
:1007B000D1E00E94690321972097D9F7DF91CF916B
:1007C00008954F925F926F927F928F929F92AF9215
:1007D000BF92CF92DF92EF92FF9220915801309119
:1007E000590140915A0150915B010E943F206B01D9
:1007F0007C0160913A0170913B01882777FD8095DB
:10080000982F0E94A8214B015C019B01AC01C701FC
:10081000B6010E94C1222091820130918301409152
:100820008401509185010E94402060938201709361
:100830008301809384019093850120E030E0A90139
:100840000E94C1229B01AC01C701B6010E94402059
:100850002B013C0120917A0130917B0140917C0178
:1008600050917D01C701B6010E943F2020E030E099
:10087000A9010E94C122A50194010E940D219B01A2
:10088000AC01C301B2010E944020C0927A01D09213
:100890007B01E0927C01F0927D01FF90EF90DF9070
:1008A000CF90BF90AF909F908F907F906F905F9010
:1008B0004F9008954F925F926F927F928F929F9286
:1008C000AF92BF92CF92DF92EF92FF9220912E01D2
:1008D00030912F0140913001509131010E943F2011
:1008E0006B017C0160913A0170913B01882777FD93
:1008F0008095982F0E94A8214B015C019B01AC01BF
:10090000C701B6010E94C12220917E0130917F0172
:1009100040918001509181010E94402060937E01AE
:1009200070937F01809380019093810120E030E0FB
:10093000A9010E94C1229B01AC01C701B6010E941E
:1009400040202B013C0120917201309173014091B4
:10095000740150917501C701B6010E943F2020E04B
:1009600030E0A9010E94C122A50194010E940D213D
:100970009B01AC01C301B2010E944020C0927A01E8
:10098000D0927B01E0927C01F0927D01FF90EF908C
:10099000DF90CF90BF90AF909F908F907F906F909F
:1009A0005F904F9008958F929F92AF92BF92CF9297
:1009B000DF92EF92FF924B015C0120E030E0A90151
:1009C0000E94062187FF0AC029EF3FE049EC50E46E
:1009D000C501B4010E9440204B015C0120915801E7
:1009E0003091590140915A0150915B01C501B40108
:1009F0000E9440206B017C0129EF3FE049EC50E46C
:100A00000E94B622181654F429EF3FE049EC50E456
:100A1000C701B6010E943F206B017C0129EF3FE036
:100A200049E450E4C501B4010E94062187FF40C09B
:100A3000209158013091590140915A0150915B0128
:100A4000C701B6010E943F200E9475219B0177FFDC
:100A500004C022273327261B370BB901882777FDCF
:100A60008095982F0E94A8212091020130910301C6
:100A700040910401509105010E94B622181674F5A8
:100A80000E94B903D5CFB901882777FD8095982FAB
:100A90000E94A8212091020130910301409104019C
:100AA000509105010E94B6221816C4F40E94C70393
:100AB000209158013091590140915A0150915B01A8
:100AC000C701B6010E943F200E9475219B0177FF5C
:100AD000DACF22273327261B370BD5CFFF90EF9095
:100AE000DF90CF90BF90AF909F908F900895CF925E
:100AF000DF92EF92FF926B017C0120E030E0A901D0
:100B00000E94062187FF0AC029EF3FE049EC50E42C
:100B1000C701B6010E9440206B017C0129EF3FE034
:100B200049E450E4C701B6010E94062187FF40C096
:100B3000209158013091590140915A0150915B0127
:100B4000C701B6010E943F200E9475219B0177FFDB
:100B500004C022273327261B370BB901882777FDCE
:100B60008095982F0E94A8212091020130910301C5
:100B700040910401509105010E94B622181674F5A7
:100B80000E94B903D5CFB901882777FD8095982FAA
:100B90000E94A8212091020130910301409104019B
:100BA000509105010E94B6221816C4F40E94C70392
:100BB000209158013091590140915A0150915B01A7
:100BC000C701B6010E943F200E9475219B0177FF5B
:100BD000DACF22273327261B370BD5CFFF90EF9094
:100BE000DF90CF9008950E94B9032FEF83ED90E33B
:100BF000215080409040E1F700C000000C940F02AB
:100C00006F927F928F929F92AF92BF92CF92DF921C
:100C1000EF92FF920F931F93CF93DF9300D000D0FA
:100C2000CDB7DEB70091210110912201081B190BED
:100C300060901F0170902001661A770AB80188271A
:100C400077FD8095982F0E94A8219B01AC01B301EC
:100C5000882777FD8095982F29833A834B835C837F
:100C60000E94A82129813A814B815C810E94B32096
:100C700029EF3FE049EC5FE30E9440206B017C01DB
:100C800029EF3FE049E450E40E94B622181654F4DC
:100C900029EF3FE049EC50E4C701B6010E943F2034
:100CA0006B017C018090580190905901A0905A01ED
:100CB000B0905B01075F1F4F0331110560F489E0BD
:100CC000680E711CE3E16E16710428F40E940F0295
:100CD00081E090E047C0A7019601C501B4010E94E0
:100CE0003F2020E030E040E05FE30E94B62218168B
:100CF0001CF40E94810334C0A5019401C701B60110
:100D00000E943F2020E030E040E05FE30E94B622F6
:100D100018161CF40E948F0323C020E030E0A901C4
:100D200060913601709137018091380190913901BD
:100D30000E940621811112C020E030E0A9016091DB
:100D400032017091330180913401909135010E94FC
:100D50000621811103C00E94690302C00E94510351
:100D600080E090E00F900F900F900F90DF91CF9167
:100D70001F910F91FF90EF90DF90CF90BF90AF90B9
:100D80009F908F907F906F900895CF92DF92EF9217
:100D9000FF9280912601909127018130910599F56C
:100DA000C0903601D0903701E0903801F0903901C1
:100DB00020E030E0A901C701B6010E94B622181652
:100DC0005CF48091170190911801209121013091DC
:100DD000220128173907A4F020E030E0A901C7015B
:100DE000B6010E94062118165CF1809119019091BC
:100DF0001A0120912101309122012817390704F5A9
:100E000064E170E054C0029709F057C0C090360109
:100E1000D0903701E0903801F090390120E030E0C7
:100E2000A901C701B6010E94B62218163CF120E0C4
:100E300030E0A901C701B6010E940621181654F539
:100E400020E030E0A901C701B6010E94062181110E
:100E500034C020E030E0A90160913201709133018B
:100E600080913401909135010E940621811125C0A5
:100E7000FF90EF90DF90CF900C9469038091170161
:100E800090911801209121013091220128173907F2
:100E900074F60BC08091190190911A0120912101E3
:100EA00030912201281739075CF66CEE7FEFFF9036
:100EB000EF90DF90CF900C940006FF90EF90DF90C2
:100EC000CF9008950E943A1D892B41F060E070E0B8
:100ED00080911B0190911C010C94000681E090E030
:100EE000909316018093150108950E94401A811174
:100EF00003C06A9A7298FDCF6A9A729A08954AE07E
:100F00006091230181E00C942413CF93DF9380E858
:100F100085BF85BFECE7F0E080818F7B8083808197
:100F200080688083EAE7F0E080818460808380814C
:100F300082608083808181608083AEE7B0E08C91A5
:100F400081608C93CDE7D0E08881846088838C9128
:100F500080618C938C9180628C938C9180648C9353
:100F60008C9180688C938881816088838881886077
:100F7000888380818860808380818F7D8083808169
:100F800080688083808180648083DF91CF91089521
:100F9000539A3E9A269A3F9A259A469A2E9A479AAB
:100FA0002D9AE1ECF0E080818860808380818B7FE6
:100FB000808380818D7F808380818E7F8083E3EC3E
:100FC000F0E080818D7F808380818E7F8083E0EC64
:100FD000F0E080818260808380818068808380816E
:100FE0008F7B808380818160808380818062808329
:100FF00080818F7E80838FEF8093D1008093CF009C
:101000008093D0000895809126019091270181302E
:10101000910531F018F0029729F008958AE103C094
:1010200088E101C089E18093230108950E941D1485
:101030000E947C127894219A229A209A0E94030896
:101040000E9475070E947F070E94C8070C948507BD
:1010500080912401909125018130910519F002972A
:10106000A1F0089583E790E090931C0180931B0109
:101070008DE89FEF90931E0180931D018BEA9FEFF7
:1010800090931A018093190108958DE89FEF909332
:101090001C0180931B0183E790E090931E018093D5
:1010A0001D0185E590E09093180180931701089544
:1010B000CF92DF92EF92FF92CF93DF93C0914801DE
:1010C000D091490180913C0190913D01C81BD90B01
:1010D000D0933B01C0933A0180912101909122016C
:1010E0002091080130910901821B930BBE010E94DF
:1010F000A523882777FD8095982F0E94A8216093CB
:1011000036017093370180933801909339018091B3
:101110001F01909120012091060130910701821B4F
:10112000930BBE010E94A523882777FD8095982FF9
:101130000E94A8216093320170933301809334019F
:10114000909335012091400130914101409142013D
:1011500050914301609158017091590180915A0159
:1011600090915B010E943F206B017C01BE018827AA
:1011700077FD8095982F0E94A8219B01AC01C701A3
:10118000B6010E940D2160932E0170932F01809370
:10119000300190933101DF91CF91FF90EF90DF907C
:1011A000CF900895AF92BF92CF92DF92EF92FF92CD
:1011B0000F931F93CF93DF93609108017091090102
:1011C0000091060110910701643F81E0780709F062
:1011D00060C0043F81E0180709F05BC060914801DE
:1011E0007091490180913C0190913D01681B790B00
:1011F00070933B0160933A01882777FD8095982F83
:101200000E94A8216B017C012091360130913701A9
:1012100040913801509139010E94C12220E030E014
:101220004AEF53E40E9440200E94752170932201EE
:1012300060932101209132013091330140913401BA
:1012400050913501C701B6010E94C12220E030E073
:101250004AEF53E40E9440200E94752170932001C0
:1012600060931F0120912E0130912F014091300198
:1012700050913101C701B6010E94C1229B01AC010E
:101280006091400170914101809142019091430130
:1012900086C0A0902101B0902201C501861B970B4A
:1012A0004396C0911F01D0912001879738F0CE015D
:1012B000801B910B4396879708F086C0882777FD9F
:1012C0008095982F0E94A8212DEC3CEC4CE45FE324
:1012D0000E94C1226B017C01B501882777FD8095B2
:1012E000982F0E94A8212CEC3CEC4CE45EE30E9479
:1012F000C1229B01AC01C701B6010E9440200E949F
:1013000075217093220160932101B801882777FD30
:101310008095982F0E94A8212DEC3CEC4CE45FE3D3
:101320000E94C1226B017C01BE01882777FD809558
:10133000982F0E94A8212CEC3CEC4CE45EE30E9428
:10134000C1229B01AC01C701B6010E9440200E944E
:1013500075217093200160931F012DEC3CEC4CE44F
:101360005FE3609140017091410180914201909151
:1013700043010E94C1226B017C012CEC3CEC4CE44B
:101380005EE3609158017091590180915A019091EA
:101390005B010E94C1229B01AC01C701B6010E9402
:1013A0004020609358017093590180935A019093A3
:1013B0005B01DF91CF911F910F91FF90EF90DF9034
:1013C000CF90BF90AF900895709322016093210158
:1013D0001093200100931F018091400190914101E1
:1013E000A0914201B091430180935801909359011B
:1013F000A0935A01B0935B01DF91CF911F910F91A0
:10140000FF90EF90DF90CF90BF90AF900C94580872
:101410004F925F926F927F928F929F92AF92BF9204
:10142000CF92DF92EF92FF920F931F93CF93DF93B0
:10143000CDB7DEB728970FB6F894DEBF0FBECDBF8D
:101440006B01490157012091210130912201309314
:1014500009012093080120911F0130912001309350
:101460000701209306014090580150905901609067
:101470005A0170905B01409240015092410160928C
:10148000420170924301481B590BBA01882777FD2E
:101490008095982F0E94A8219B01AC01B4016C1982
:1014A0007D09882777FD8095982F2D833E834F8374
:1014B00058870E94A8212D813E814F8158850E9426
:1014C000B32029EF3FE049EC5FE30E943F206B012E
:1014D0007C0129EF3FE049E450EC0E94062187FDA2
:1014E00009C0C0925801D0925901E0925A01F0927D
:1014F0005B0110C029EF3FE049EC50E4C701B601A1
:101500000E944020609358017093590180935A01C2
:1015100090935B01B501882777FD8095982F0E94F5
:10152000A8214B015C01B801882777FD8095982F91
:101530000E94A8212B013C01A50194010E94B32027
:10154000905829EF3FE049EC5FE30E943F206B0198
:101550007C0129EF3FE049E450EC0E94062187FF1F
:101560000AC029EF3FE049EC50E4C701B6010E94F0
:1015700040206B017C0120E030E040E251E4C301F7
:10158000B2010E940D212B013C0120E030E040E23D
:1015900051E4C501B4010E940D214B015C01A3017E
:1015A0009201C301B2010E94C1222B013C01A5019D
:1015B0009401C501B4010E94C1229B01AC01C30189
:1015C000B2010E9440200E942E2320E030E040E241
:1015D00051E40E94C1222B013C0129EF3FE049E484
:1015E00050E4609158017091590180915A01909195
:1015F0005B010E9440204B015C01A70196010E9403
:101600003F206B017C0129EF3FE049E450EC0E9450
:10161000062187FF0AC029EF3FE049EC50E4C701EB
:10162000B6010E9440206B017C0129EF3FE049E4B4
:1016300050E4C701B6010E94B622181654F429EFEF
:101640003FE049EC50E4C701B6010E943F206B0126
:101650007C01C701B6010E940A219B01AC01809167
:101660000A0190910B01A0910C01B0910D018983A9
:101670009A83AB83BC83C301B2010E94C12229813A
:101680003A814B815C810E94C1220E947521719533
:10169000619571097093220160932101C701B60120
:1016A0000E9424239B01AC01C301B2010E94C1220C
:1016B00029813A814B815C810E94C1220E9475215F
:1016C0007195619571097093200160931F0129EF55
:1016D0003FE049E450E4C501B4010E94B622181667
:1016E0004CF08092580190925901A0925A01B09208
:1016F0005B0110C029EF3FE049EC50E4C501B401A3
:101700000E943F20609358017093590180935A01C1
:1017100090935B0128960FB6F894DEBF0FBECDBF45
:10172000DF91CF911F910F91FF90EF90DF90CF90BD
:10173000BF90AF909F908F907F906F905F904F90F1
:101740000C94D2082F923F924F925F926F927F92A9
:101750008F929F92AF92BF92CF92DF92EF92FF92C1
:101760000F931F93CF93DF93CDB7DEB760970FB67C
:10177000F894DEBF0FBECDBF1C017A876987FC01DC
:10178000A281B38120813181AD01421B530BFB014A
:101790000280F381E02DFE83ED83FB01C080D180C8
:1017A0008D819E818C199D09449F4001459F900C1D
:1017B000900C1124889FA001899F500D500D112479
:1017C000840E951EAA2497FCA094BA2CF1014481A2
:1017D00055817A01E21AF30AFB010480F581E02DBC
:1017E000FC87EB878F010C191D09EE9CB001EF9C63
:1017F000700D700D1124009F7001019FF00CF00C12
:1018000011246E0D7F1D2B01662457FC6094762CED
:10181000F101668177817B01E21AF30AE985FA8595
:101820002681378189010C191D09EE9CC001EF9CAE
:10183000900D900D1124009F7001019FF00CF00C91
:1018400011248E0D9F1D7C010027F7FC0095102FA1
:10185000E982FA820B831C837A01EA1AFB0A0B8560
:101860001C858D819E81081B190BEE9C6001EF9CED
:10187000D00CD00C1124009F7001019FF00CF00CD3
:101880001124CE0CDF1CEE24D7FCE094FE2CFB01CF
:10189000EA1BFB0BC9010D811E81801B910BEE9F82
:1018A0008001EF9F100D100D1124889FD001899F9A
:1018B000B00DB00D11240A0F1B1FC801AA2797FDF8
:1018C000A095BA2F8D839E83AF83B887641B750B59
:1018D000AB85BC852A1B3B0B669FC001679F900DA3
:1018E000900D1124229FA001239F500D500D112413
:1018F000840F951F8C01222717FD2095322F0D870D
:101900001E872F87388BF42DE52D962D872D4814B3
:1019100059046A047B0424F4F82DE92D9A2D8B2DAB
:101920004F2F5E2F692F782F89819A81AB81BC81DF
:10193000481759076A077B0714F4AC01BD014C1521
:101940005D056E057F0514F4B701A6010D811E81AA
:101950002F813885401751076207730714F4B901C6
:10196000A8018D859E85AF85B889481759076A07F4
:101970007B0714F4AC01BD01942D852DF62DE72DC8
:1019800084149504A604B70424F4982D892DFA2D07
:10199000EB2D092F182F2F2F3E2F89819A81AB8194
:1019A000BC8180179107A207B30714F48C019D0135
:1019B000D901C801C016D106E206F30614F4D70116
:1019C000C6018C019D018D819E81AF81B8858017F4
:1019D0009107A207B30714F48C019D01D901C80136
:1019E0000D851E852F853889081719072A073B079B
:1019F00014F4D901C801481559056A057B05A1F4FD
:101A000084159505A605B70519F421E030E091C0CD
:101A100029813A814B815C8182179307A407B5071E
:101A2000A1F320E030E03EC044155505660577057A
:101A3000A1F488159905AA05BB0519F422E030E048
:101A400078C0E980FA800B811C818E159F05A00764
:101A5000B107A1F320E030E05DC009811A812B813C
:101A60003C81401751076207730781F4841595057F
:101A7000A605B70519F423E030E05BC08815990589
:101A8000AA05BB05C1F320E030E04EC04C155D0552
:101A90006E057F05B1F488159905AA05BB0529F4E3
:101AA00022E030E081E090E046C02D813E814F8110
:101AB000588582179307A407B50791F321E030E01A
:101AC00029C00D811E812F8138854017510762077B
:101AD000730781F488159905AA05BB0519F423E05D
:101AE00030E0E0CF8C159D05AE05BF05C1F321E0C8
:101AF00030E01AC00D851E852F85388940175107A3
:101B000062077307A1F484159505A605B70529F4A6
:101B100023E030E082E090E00EC08C159D05AE051C
:101B2000BF05B1F322E030E083E090E004C020E0A4
:101B300030E080E090E0BC01660F771FF101E60F16
:101B4000F71F80819181220F331FF101E20FF31FF4
:101B500040815181E985FA85E60FF71F6081718127
:101B6000E985FA85E20FF31F208131817B01E20EC6
:101B7000F31EF7FE03C01FEFE11AF10AF594E79494
:101B80008C01040F151F17FF02C00F5F1F4F159523
:101B900007950E94080A60960FB6F894DEBF0FBE44
:101BA000CDBFDF91CF911F910F91FF90EF90DF900C
:101BB000CF90BF90AF909F908F907F906F905F90ED
:101BC0004F903F902F9008952F923F924F925F92A7
:101BD0006F927F928F929F92AF92BF92CF92DF923D
:101BE000EF92FF920F931F93CF93DF93CDB7DEB7A2
:101BF00060970FB6F894DEBF0FBECDBF8C011B01FE
:101C0000DC0112966D917C911397CD90DC90DE866D
:101C1000CD86FB01EC19FD09D10112962D913C9165
:101C20001397CD90DC90D88ACF86A9014C195D0915
:101C3000EE9FC001EF9F900D900D1124449FF00185
:101C4000459FF00DF00D11248E0F9F1F6C01EE24A7
:101C5000D7FCE094FE2CC982DA82EB82FC82D801A8
:101C60001496ED90FC9015976701ED85FE85CE1AD0
:101C7000DF0AD10114964D915C911597DA01EF8539
:101C8000F889AE1BBF0BCC9CC001CD9C900D900D74
:101C90001124AA9FF001AB9FF00DF00D11248E0FBF
:101CA0009F1F2C01662457FC6094762CF701E61BDD
:101CB000F70B421B530BEE9FC001EF9F900D900D51
:101CC0001124449F9001459F300D300D1124820F47
:101CD000931F6C01EE24D7FCE094FE2CCD82DE82B3
:101CE000EF82F886342D252D962D872DC980DA8038
:101CF000EB80FC804C145D046E047F0424F4398175
:101D00002A819B818C81C32ED22EE92EF82E2D8123
:101D10003E814F815885C216D306E406F50614F4B9
:101D200069017A01342D252D962D872D49815A81FF
:101D30006B817C81441555056605770524F439814E
:101D40002A819B818C81832E922EA92EB82E6D81A3
:101D50007E818F819885681579058A059B0514F425
:101D60004B015C01C701B6010E94A82169877A87EF
:101D70008B879C87C501B4010E94A8219B01AC01FF
:101D800069857A858B859C850E940D2169877A8774
:101D90008B879C8720E030E040E050E40E940621E1
:101DA00087FF3EC189819A81AB81BC81C816D90663
:101DB000EA06FB0651F484149504A604B70489F5D9
:101DC0001A82198221E030E032C0C414D504E6043E
:101DD000F70471F4C980DA80EB80FC808C149D04D8
:101DE000AE04BF0439F51A82198222E030E028C01F
:101DF0002D813E814F815885C216D306E406F50633
:101E000011F5C980DA80EB80FC808C149D04AE044F
:101E1000BF04F1F421E030E03A83298322E030E08E
:101E20001DC041E050E05A83498320E030E082E069
:101E300090E016C062E070E07A83698320E030E0D1
:101E400081E090E00DC01A82198220E030E006C0E7
:101E500082E090E09A83898321E030E080E090E0A6
:101E60006901CC0CDD1CF801EC0DFD1D608071805A
:101E70007C01EE0CFF1CB301882777FD8095982F1D
:101E80000E94A8214B015C01F801EE0DFF1D80812D
:101E90009181B301681B790B882777FD8095982F76
:101EA0000E94A82122EA35E446E05FE30E94C122B5
:101EB0009B01AC01C501B4010E9440200E94752124
:101EC0004B015C01F101EC0DFD1DC080D180B6011C
:101ED000882777FD8095982F0E94A8212B013C012F
:101EE000F101EE0DFF1D80819181B601681B790B18
:101EF000882777FD8095982F0E94A82122EA35E453
:101F000046E05FE30E94C1229B01AC01C301B20124
:101F10000E9440200E9475216D837E838F83988765
:101F2000C980DA80CC0CDD1CDA86C986F601E00FA8
:101F3000F11FC080D180DA82C982B401882777FD81
:101F40008095982F0E94A8216B017C0129813A81FC
:101F5000B901882777FD8095982F0E94A8212B0131
:101F60003C0169817A8168197909882777FD809514
:101F7000982F0E94A82128EA36EC4BE85EE30E94E5
:101F8000C1229B01AC01C301B2010E9440209B0110
:101F9000AC01C701B6010E943F200E9475214B0190
:101FA0005C01E985FA85E20DF31D208031804D81C9
:101FB0005E81BA01882777FD8095982F0E94A8211D
:101FC0006B017C01B101882777FD8095982F0E94D5
:101FD000A8212B013C01B1018D819E81681B790BE9
:101FE000882777FD8095982F0E94A82128EA36EC53
:101FF0004BE85EE30E94C1229B01AC01C301B20128
:102000000E9440209B01AC01C701B6010E943F2005
:102010000E9475217B018401910149815A8156C139
:1020200020E030E040E850E469857A858B859C8526
:102030000E94B62218160CF44CC1A7019601C701E4
:10204000B6010E949523A50194010E94B923283965
:102050003840410551050CF03CC129813A814B8142
:102060005C81C216D306E406F50661F48414950477
:10207000A604B704A9F520E030E042E050E05A831E
:10208000498347C0C414D504E604F70481F4C98029
:10209000DA80EB80FC808C149D04AE04BF0439F51B
:1020A00020E030E041E050E05A83498316C06D8162
:1020B0007E818F819885C616D706E806F906F1F469
:1020C000C980DA80EB80FC808C149D04AE04BF04D0
:1020D000E1F421E030E01A82198282E090E01BC036
:1020E00021E030E042E050E05A8349830BC022E017
:1020F00030E061E070E07A83698304C020E030E082
:102100001A82198280E090E006C022E030E01A8254
:10211000198281E090E04901880C991CF801E80DD2
:10212000F91D608071805C01AA0CBB1CB30188277B
:1021300077FD8095982F0E94A8216B017C01F80102
:10214000EA0DFB1D80819181681A790AB301882705
:1021500077FD8095982F0E94A82122EA35E446E079
:102160005FE30E94C1229B01AC01C701B6010E943E
:1021700040200E9475216B017C01F101E80DF91DE1
:1021800080809180B401882777FD8095982F0E94E8
:10219000A8212B013C01F101EA0DFB1D80819181F9
:1021A000881A990AB401882777FD8095982F0E9494
:1021B000A82122EA35E446E05FE30E94C1229B01A8
:1021C000AC01C301B2010E9440200E9475216D83C1
:1021D0007E838F83988789819A81880F991F9A833C
:1021E0008983FC01E00FF11F00811181B60188276E
:1021F00077FD8095982F0E94A8214B015C01B801C2
:10220000882777FD8095982F0E94A8212B013C01FB
:10221000B8016C197D09882777FD8095982F0E9459
:10222000A8212FED3FE44DEC5FE30E94C1229B010A
:10223000AC01C301B2010E9440209B01AC01C50169
:10224000B4010E943F200E9475214B015C01A981CD
:10225000BA81A20DB31D0D911C91AD81BE81BD014E
:10226000882777FD8095982F0E94A8216B017C011B
:10227000B801882777FD8095982F0E94A8212B010F
:102280003C01B801ED81FE816E1B7F0B882777FD35
:102290008095982F0E94A8212FED3FE44DEC5FE33D
:1022A0000E94C1229B01AC01C301B2010E944020E7
:1022B0009B01AC01C701B6010E943F200E9475211D
:1022C0007B0184012F8538894D855E85B401C40169
:1022D00070C029813A814B815C81C216D306E40625
:1022E000F50641F484149504A604B70429F521E009
:1022F00030E02CC0C414D504E604F70461F4C980AE
:10230000DA80EB80FC808C149D04AE04BF04B9F429
:1023100022E030E01BC02D813E814F815885C216DE
:10232000D306E406F50681F484149504A604B704E4
:1023300081F421E030E005C020E030E00CC020E076
:1023400030E082E090E009C020E030E080E090E002
:1023500004C022E030E081E090E0BC01660F771F0E
:10236000F801E60FF71F80819181220F331FF801DA
:10237000E20FF31F40815181F101E60FF71F6081E9
:102380007181F101E20FF31F208131817B01E20EA7
:10239000F31EF7FE03C0AFEFEA1AFA0AF594E794CA
:1023A0008C01040F151F17FF02C00F5F1F4F1595FB
:1023B00007950E94080A60960FB6F894DEBF0FBE1C
:1023C000CDBFDF91CF911F910F91FF90EF90DF90E4
:1023D000CF90BF90AF909F908F907F906F905F90C5
:1023E0004F903F902F900895CF93DF93CDB7DEB7F6
:1023F00060970FB6F894DEBF0FBECDBFE9E8F1E0FD
:1024000080E090E0408151814F3F23E05207C9F0C6
:10241000228133812F3F63E0360799F0DC01AA0F58
:10242000BB1F61E070E06C0F7D1FA60FB71F5250FD
:1024300019965C934E931897205831402D933C93F6
:102440000196369671E0E13AF707E1F6843091059E
:1024500041F4BE016F5F7F4FCE0109960E94A20B2F
:1024600009C0039751F4BE016F5F7F4FCE010996FB
:102470000E94E40D6E9A769A02C06E9A76986096E3
:102480000FB6F894DEBF0FBECDBFDF91CF91089598
:1024900089E891E00E94251B8093880181110E94A8
:1024A000F411809188010895809121019091220179
:1024B0008D589F4F089580911F0190912001CC96D7
:1024C000089520E030E048EC52E4609158017091AA
:1024D000590180915A0190915B010E94C1220E9492
:1024E0007A21CB010895809122018095881F882749
:1024F000881F90E001960895589A599A5A9A8CE04C
:102500008093B800E9E6F0E080818062808380817A
:102510008F7E8083EA9A7894089584E88093BC0043
:102520008091BC0087FFFCCF8091BB00089584E9B7
:102530008093BC00089520E030E08091BC0087FDCE
:1025400006C02F5F3F4F293E83E03807B1F781E097
:10255000283E334009F480E008958093BB0084E86E
:102560008093BC000E949B12882321F08091B900C7
:10257000887F089580E008951F93CF93DF931F9283
:10258000CDB7DEB7182F84EA8093BC0069830E9420
:102590009B126981811104C094E99093BC0014C01E
:1025A000812F880F662331F08F5F0E94AD1288342F
:1025B00051F404C00E94AD12803229F484E9809362
:1025C000BC0080E001C081E00F90DF91CF911F91AE
:1025D0000895CF93DF93C82FD62F60E00E94BC12DE
:1025E000882391F08D2F0E94AD12882369F084E931
:1025F0008093BC0061E08C2F0E94BC12882321F0E4
:10260000DF91CF910C948D1280E0DF91CF910895EE
:10261000CF93DF93D62FC42F60E00E94BC128111AC
:1026200002C080E00EC08D2F0E94AD128823C9F336
:102630008C2F0E94AD128823A1F384E98093BC0003
:1026400081E0DF91CF910895CF93DF9300D01F9267
:10265000CDB7DEB74B836A8389830E947C1294EAEC
:102660009093BC0089816A814B819091BC0097FF57
:10267000FCCF90E59093BB0094E89093BC009091C0
:10268000BC0097FFFCCF9091B900987F903229F45D
:1026900084E98093BC0080E029C091E09093BB0066
:1026A00094E89093BC009091BC0097FFFCCF80937E
:1026B000BB0084E88093BC008091BC0087FFFCCF06
:1026C0006093BB0084E88093BC008091BC0087FFCE
:1026D000FCCF4093BB0084E88093BC008091BC0099
:1026E00087FFFCCF84E98093BC0081E00F900F90BE
:1026F0000F90DF91CF91089524EA2093BC002091A0
:10270000BC0027FFFCCF21E52093BB0024E82093E9
:10271000BC002091BC0027FFFCCF2091B900287F8E
:102720002834A9F024EC2093BC002091BC0027FFA2
:10273000FCCF2091BB0026130AC0FC0120E030E052
:10274000772767FD70956150710944EC0EC084E9EC
:102750008093BC0080E008955091BC0057FFFCCFEF
:102760005091BB0051932F5F3F4F261737071CF442
:102770004093BC00F1CF44E84093BC004091BC00C2
:1027800047FFFCCF4091BB00FC01E20FF31F4083E9
:1027900084E98093BC0081E00895F89494EA9093D2
:1027A000BC009091BC0097FFFCCF90E59093BB00DC
:1027B00094E89093BC009091BC0097FFFCCF90915F
:1027C000B900987F903231F484E98093BC0078940A
:1027D00080E0089593E09093BB0094E89093BC0050
:1027E0009091BC0097FFFCCF8093BB0084E880935E
:1027F000BC008091BC0087FFFCCFFB01552747FD43
:10280000509524E8CF01861B970B8417950754F445
:1028100081918093BB002093BC008091BC0087FF16
:10282000FCCFF0CF84E98093BC00789481E00895D8
:102830008091E80080FFFCCF089581E08093D7006D
:1028400080EA8093D80082E189BD09B400FEFDCF03
:1028500080E98093D8001092E00010924701109216
:1028600044018CE08093E2007894089580914701C0
:1028700008959FB7F89480914701882339F083E049
:102880008093E9008091E80085FD03C09FBF8FEF32
:1028900008958091F1002091E80025FD03C02BE60A
:1028A0002093E8009FBF08959FB7F8948091470157
:1028B000882331F083E08093E9008091F20001C029
:1028C00080E09FBF089580914701882371F08FB702
:1028D000F89493E09093E9002BE69091E80095FF3F
:1028E00003C02093E800F9CF8FBF0895909147016E
:1028F000992371F09FB7F89424E02093E900209188
:102900004501222349F02091E80025FD03C09FBF27
:102910008FEF0895109245012091E400275E34E086
:102920004091E80045FD12C09FBF9091E4009213D2
:1029300004C081E080934501EBCF9091470199233A
:1029400039F39FB7F8943093E900EACF8093F10010
:102950008091E80085FD03C08AE38093E80085E06C
:10296000809346019FBF80E008959091470199238D
:10297000D1F09FB7F89424E02093E9002091E8007B
:1029800025FD02C09FBF0FC08093F1008091E80039
:1029900085FD03C08AE38093E80085E080934601CB
:1029A0009FBF80E008958FEF0895EF92FF921F93ED
:1029B000CF93DF937C01CB0120914701222371F05B
:1029C000AFB7F89424E02093E90020914501222339
:1029D00049F02091E80025FD03C0AFBF8FEF42C250
:1029E00010924501B4E0C0E4DAE315E0009709F481
:1029F00037C22091E400275E3091E80035FD12C017
:102A0000AFBF3091E400321304C081E080934501F0
:102A1000E5CF30914701332309F3AFB7F894B09372
:102A2000E900EACF2091F2004C2F421B242F30E026
:102A30008217930708F4482F841B910950E0413412
:102A4000510508F0FDC14A5A5F4FFA010C94D82392
:102A5000F70120812093F10097012F5F3F4F79010B
:102A6000F70120812093F10097012F5F3F4F7901FB
:102A7000F70120812093F10097012F5F3F4F7901EB
:102A8000F70120812093F10097012F5F3F4F7901DB
:102A9000F70120812093F10097012F5F3F4F7901CB
:102AA000F70120812093F10097012F5F3F4F7901BB
:102AB000F70120812093F10097012F5F3F4F7901AB
:102AC000F70120812093F10097012F5F3F4F79019B
:102AD000F70120812093F10097012F5F3F4F79018B
:102AE000F70120812093F10097012F5F3F4F79017B
:102AF000F70120812093F10097012F5F3F4F79016B
:102B0000F70120812093F10097012F5F3F4F79015A
:102B1000F70120812093F10097012F5F3F4F79014A
:102B2000F70120812093F10097012F5F3F4F79013A
:102B3000F70120812093F10097012F5F3F4F79012A
:102B4000F70120812093F10097012F5F3F4F79011A
:102B5000F70120812093F10097012F5F3F4F79010A
:102B6000F70120812093F10097012F5F3F4F7901FA
:102B7000F70120812093F10097012F5F3F4F7901EA
:102B8000F70120812093F10097012F5F3F4F7901DA
:102B9000F70120812093F10097012F5F3F4F7901CA
:102BA000F70120812093F10097012F5F3F4F7901BA
:102BB000F70120812093F10097012F5F3F4F7901AA
:102BC000F70120812093F10097012F5F3F4F79019A
:102BD000F70120812093F10097012F5F3F4F79018A
:102BE000F70120812093F10097012F5F3F4F79017A
:102BF000F70120812093F10097012F5F3F4F79016A
:102C0000F70120812093F10097012F5F3F4F790159
:102C1000F70120812093F10097012F5F3F4F790149
:102C2000F70120812093F10097012F5F3F4F790139
:102C3000F70120812093F10097012F5F3F4F790129
:102C4000F70120812093F10097012F5F3F4F790119
:102C5000F70120812093F10097012F5F3F4F790109
:102C6000F70120812093F10097012F5F3F4F7901F9
:102C7000F70120812093F10097012F5F3F4F7901E9
:102C8000F70120812093F10097012F5F3F4F7901D9
:102C9000F70120812093F10097012F5F3F4F7901C9
:102CA000F70120812093F10097012F5F3F4F7901B9
:102CB000F70120812093F10097012F5F3F4F7901A9
:102CC000F70120812093F10097012F5F3F4F790199
:102CD000F70120812093F10097012F5F3F4F790189
:102CE000F70120812093F10097012F5F3F4F790179
:102CF000F70120812093F10097012F5F3F4F790169
:102D0000F70120812093F10097012F5F3F4F790158
:102D1000F70120812093F10097012F5F3F4F790148
:102D2000F70120812093F10097012F5F3F4F790138
:102D3000F70120812093F10097012F5F3F4F790128
:102D4000F70120812093F10097012F5F3F4F790118
:102D5000F70120812093F10097012F5F3F4F790108
:102D6000F70120812093F10097012F5F3F4F7901F8
:102D7000F70120812093F10097012F5F3F4F7901E8
:102D8000F70120812093F10097012F5F3F4F7901D8
:102D9000F70120812093F10097012F5F3F4F7901C8
:102DA000F70120812093F10097012F5F3F4F7901B8
:102DB000F70120812093F10097012F5F3F4F7901A8
:102DC000F70120812093F10097012F5F3F4F790198
:102DD000F70120812093F10097012F5F3F4F790188
:102DE000F70120812093F10097012F5F3F4F790178
:102DF000F70120812093F10097012F5F3F4F790168
:102E0000F70120812093F10097012F5F3F4F790157
:102E1000F70120812093F10097012F5F3F4F790147
:102E2000F70120812093F10097012F5F3F4F790137
:102E3000F70120812093F10097012F5F3F4F790127
:102E4000F70120812093F10097012F5F3F4F790117
:102E50002091E80025FFD093E80010934601C6CDED
:102E6000AFBF80E0DF91CF911F91FF90EF90089569
:102E70008FB7F89490914601992341F094E0909394
:102E8000E9009AE39093E800109246018FBF0895FD
:102E90008091120108958091130108958091140189
:102EA00008958091440108959FB7F89420914701B7
:102EB000222339F022E02093E9003091E80035FD2B
:102EC00003C09FBF8FEF089531EA3093F10030E2E5
:102ED0003093F1001092F1001092F1001092F10085
:102EE0001092F1002093F1001092F1008093F10014
:102EF0001092F1008AE38093E8009FBF80E008957C
:102F00001F920F920FB60F9211248F939F9380916F
:102F1000E1001092E10083FF11C01092E90091E0FE
:102F20009093EB001092EC0092E19093ED0098E00A
:102F30009093F000109247011092440182FF13C059
:102F400080914701882379F080914601882359F0C8
:102F5000815080934601811106C084E08093E9008E
:102F60008AE38093E8009F918F910F900FBE0F909E
:102F70001F9018951F920F920FB60F921124EF9287
:102F8000FF920F931F932F933F934F935F936F93F2
:102F90007F938F939F93AF93BF93EF93FF93CF93C1
:102FA000DF931F92CDB7DEB71092E9008091E80061
:102FB00083FF14C19091F1008091F1003091F100F4
:102FC0002091F100E32EF12CF22A0091F1002091E2
:102FD000F10010E0122B2091F1006091F10032EF2E
:102FE0003093E800863009F046C036E086EA91E08A
:102FF000FC01459154914E155F0539F4FC01329660
:10300000459154914017510721F00796315081F7AF
:10301000E5C0FC01349645915491FC0136968491AB
:1030200030E0362B2F3F310519F010F02FEF30E054
:10303000281708F4822F3EEF9091E800292F257081
:10304000D9F392FDCEC0982F813108F090E1FA01BA
:10305000292F222331F064916093F10021503196A1
:10306000F8CF490F511D891B3093E8008111E4CF3F
:10307000903111F3B6C0853051F48EEF8093E800A3
:103080000E9418148E2D80688093E300AAC08930B6
:1030900059F5911180C0E0924701109244011092BD
:1030A00046018EEF8093E80041E08FE492E0409388
:1030B000E9009C012F5F3F4FFC0154915093EB00BE
:1030C000552359F0F90124912093EC009C012D5FC8
:1030D0003F4F319684918093ED004F5F453011F062
:1030E000C901E5CF8EE175C0883051F4903809F000
:1030F00052C00E941814809147018093F10047C08C
:10310000813279F4913A09F046C00E941814EEE039
:10311000F1E081918093F10081E0E531F807C9F792
:1031200036C0803299F49132B1F58091E80082FF87
:10313000FCCFEEE0F1E08091F100819381E0E53198
:10314000F807C9F78BEF8093E80021C0823241F481
:10315000913209F043C0E09244010E94181417C054
:10316000811119C099830E9418149981923851F4E1
:103170000093E9008091EB0085FB882780F910928D
:10318000E90001C080E08093F1001092F1008EEF21
:103190008093E80026C0282F2D7F2130F9F492304B
:1031A000E9F4EF28D9F40F779FEF900F9430B0F443
:1031B0009EEF9093E8000093E900833079F089E175
:1031C0008093EB0081E090E0002E01C0880F0A940C
:1031D000EAF78093EA001092EA0003C081E280934C
:1031E000EB000F90DF91CF91FF91EF91BF91AF91E5
:1031F0009F918F917F916F915F914F913F912F910F
:103200001F910F91FF90EF900F900FBE0F901F90A6
:1032100018951F93CF93DF93EC01FE0114911123B6
:1032200051F01A3019F48DE00E947614812F0E941B
:1032300076142196F2CFDF91CF911F9108958A30B5
:1032400010F490E301C097E3890F0C947614CF93A8
:10325000C82F82958F700E941F198C2F8F70CF916D
:103260000C941F19CF93C82F892F0E9427198C2FD8
:10327000CF910C9427190C942719EF92FF920F937A
:103280001F93CF93DF93CDB7DEB727970FB6F89490
:10329000DEBF0FBECDBF8E010F5F1F4F27E0F801CD
:1032A00011922A95E9F74AE0B8010E942E247E0186
:1032B000F8E0EF0EF11CF80181918F0181110E945D
:1032C00076140E151F05B9F727960FB6F894DEBFD2
:1032D0000FBECDBFDF91CF911F910F91FF90EF9067
:1032E0000895EF92FF920F931F93CF93DF9300D037
:1032F00000D000D0CDB7DEB78E010F5F1F4F26E0A4
:10330000F80111922A95E9F74AE0B8010E946A246F
:103310007E01F6E0EF0EF11CF80181918F01811121
:103320000E9476140E151F05B9F726960FB6F8946D
:10333000DEBF0FBECDBFDF91CF911F910F91FF90E8
:10334000EF900895EF92FF920F931F93CF93DF9327
:10335000CDB7DEB72B970FB6F894DEBF0FBECDBF4B
:103360008E010F5F1F4F2BE0F80111922A95E9F7AC
:103370002AE0A8010E9439247E01FCE0EF0EF11C36
:10338000F80181918F0181110E9476140E151F059D
:10339000B9F72B960FB6F894DEBF0FBECDBFDF9105
:1033A000CF911F910F91FF90EF900895EF92FF92B0
:1033B0000F931F93CF93DF93CDB7DEB72B970FB645
:1033C000F894DEBF0FBECDBF8E010F5F1F4F2BE005
:1033D000F80111922A95E9F72AE0A8010E944824F1
:1033E0007E01FBE0EF0EF11CF80181918F0181114C
:1033F0000E9476140E151F05B9F72B960FB6F89498
:10340000DEBF0FBECDBFDF91CF911F910F91FF9017
:10341000EF90089520E030E08091BC0087FD06C069
:103420002F5F3F4F293E83E03807B1F781E0283E08
:10343000334009F480E008958093BB0084E88093D2
:10344000BC000E940A1A882319F08091B900887F75
:103450000895CF93C82F84EA8093BC000E940A1A73
:10346000882361F08C2F880F0E941C1A803229F467
:1034700084E98093BC0080E001C081E0CF91089591
:103480000E947C1288E50E94291A811102C080E006
:10349000089580E30E941C1A8823C9F381E00E94EA
:1034A0001C1A8823A1F384E98093BC008FE39CE974
:1034B0000197F1F700C0000088E50E94291A8823CF
:1034C00031F380E00E941C1A882309F380E00E94F7
:1034D0001C1A8823E1F280E00E941C1A8823B9F2AA
:1034E00080E00E941C1A882391F280E00E941C1A3E
:1034F000882369F280E00E941C1A882341F280E050
:103500000E941C1A882319F280E90E941C1A882341
:1035100009F4BDCF84E98093BC008FE39CE9019757
:10352000F1F700C0000088E50E94291A882309F4F9
:10353000AECF87E00E941C1A882309F4A8CF80E050
:103540000E941C1A882309F4A2CF81E40E941C1A4D
:10355000882309F49CCF84E98093BC008FE39CE925
:103560000197F1F700C0000088E50E94291A88231E
:1035700009F48DCF8AE10E941C1A882309F487CFB1
:1035800080E40E941C1A882309F481CF80E00E9405
:103590001C1A882309F47BCF84E98093BC008FE355
:1035A0009CE90197F1F700C0000088E50E94291A04
:1035B000882309F46CCF83E30E941C1A882309F442
:1035C00066CF83E00E941C1A882309F460CF84E947
:1035D0008093BC008FE39CE90197F1F700C00000E5
:1035E00088E50E94291A882309F451CF80E30E94BC
:1035F0001C1A882309F44BCF88E00E941C1A8823E8
:1036000009F445CF84E98093BC008FE39CE90197DE
:10361000F1F700C0000081E00895CF93C82F84EA3D
:103620008093BC000E940A1A882369F08C2F880FAF
:103630008F5F0E941C1A883429F484E98093BC00AF
:1036400080E001C081E0CF910895EF92FF920F9347
:103650001F93CF93DF93CDB7DEB760970FB6F89483
:10366000DEBF0FBECDBF7C018E010F5F1F4F80E11B
:10367000F80111928A95E9F788E50E94291A8111CB
:1036800002C080E05EC086E30E941C1A8823C9F352
:1036900084E98093BC00F5E8FA95F1F7000088E52D
:1036A0000E940D1B882369F3F8019E01205F3F4FA4
:1036B00094EC9093BC008091BC0087FFFCCF80917C
:1036C000BB008193E217F307A1F784E88093BC0065
:1036D0008091BC0087FFFCCF8091BB00888B84E980
:1036E0008093BC00DE01149687016C91762F707375
:1036F000AD0142505109FA01808190E0F0E17F9FD5
:10370000800D911D1124F80191838083762F707CA8
:103710004F5F5F4FFA01808190E0F4E07F9F800D62
:10372000911D1124F801938382836F70862F90E09E
:103730009583848313960A5F1F4FA217B307A9F6D8
:1037400081E060960FB6F894DEBF0FBECDBFDF916B
:10375000CF911F910F91FF90EF90089584E980938E
:10376000BC0008958091A10190E0FC01E05AF109AC
:10377000E730F10508F080C0E956FF4F0C94D823DC
:103780000E9448120E947312909325018093240195
:103790008130910561F4299A2FEF80E792E0215062
:1037A00080409040E1F700C000002A9808950297F9
:1037B00009F062C02A9A2FEF80E792E02150804002
:1037C0009040E1F700C00000299808950E94481237
:1037D0000E9473129093250180932401019719F49C
:1037E000299A2A9802C02A9A29980E94280882E0D9
:1037F00090E090931601809315010C9489014091FB
:103800002401509125018091A2012091A301413012
:103810005105E9F40BC040912401509125012091FC
:10382000A2018091A3014230510589F4992787FDB7
:10383000909590934F0180934E01332727FD30954B
:1038400030934D0120934C010E94F30511C03327A2
:1038500027FD309530934F0120934E01992787FD26
:10386000909590934D0180934C0102C046984798E3
:10387000109216011092150108951F920F920FB623
:103880000F9211242F933F934F935F936F937F93E6
:103890008F939F93AF93BF93EF93FF936AE081EA77
:1038A00091E00E947C130E94B21BFF91EF91BF91A7
:1038B000AF919F918F917F916F915F914F913F91C8
:1038C0002F910F900FBE0F901F9018958EEC92E0E5
:1038D0000E94091980916A0190916B010E943D1923
:1038E00089EC92E00E94091980916C0190916D0120
:1038F0000E943D1984EC92E00E94091980916201B6
:10390000909163010E943D198FEB92E00E9409198A
:1039100080916E0190916F010E943D1989EB92E0B8
:103920000E94091980916801909169010E943D19D6
:1039300083EB92E00E9409198091640190916501E6
:103940000E943D198DEA92E00E940919809166015A
:10395000909167010E943D1988EA92E00E9409193E
:1039600080916001909161010E943D198DE992E082
:103970000E94091980915C0190915D010C943D19A0
:103980008091700190917101892B51F180917A00A1
:103990008F7780937A0060914801709149018091FE
:1039A0004A0190914B012AE030E040E050E00E9453
:1039B000B923672B682B692B11F40E94661C1092A7
:1039C00071011092700180917A00806880937A0072
:1039D00080917A00806480937A0081E090E008957D
:1039E00080E090E0089580E090E0A2E6B1E041E060
:1039F00050E021E030E06D917D91FC01EE0FFF1F62
:103A0000E05AFE4F0190F081E02DE617F7076CF0C9
:103A1000FA01EE0FFF1FE05AFE4F0190F081E02DFA
:103A2000E617F70724F4A90102C0AC01C9012F5F12
:103A30003F4F28303105F9F69093AE018093AD01E8
:103A40005093AC014093AB01FC01EE0FFF1FE05A15
:103A5000FE4F208131818091AF019091B00182179A
:103A6000930724F4289A81E090E00895289880E054
:103A700090E00895209160013091610180912A01C8
:103A800090912B012817390794F08091660190914D
:103A90006701893592405CF081E090E020916401FB
:103AA000309165012935324024F480E0089580E0AA
:103AB00090E00895A2E6B1E041E050E080E090E0BF
:103AC00021E030E06D917D91FC01EE0FFF1FE05A87
:103AD000FE4F0190F081E02DE617F7076CF0FA0138
:103AE000EE0FFF1FE05AFE4F0190F081E02DE61728
:103AF000F70724F4A90102C0AC01C9012F5F3F4FB1
:103B000028303105F9F6209162013091630160910E
:103B10006E0170916F012617370711F487E090E06E
:103B2000A0916C01B0916D012A173B0711F486E05A
:103B300090E0FC01EE0FFF1FE05AFE4F2081318123
:103B40002430310519F5E0916801F0916901209167
:103B50006A0130916B012E173F07C4F40E94AB033A
:103B6000609148017091490180914A0190914B0107
:103B70002AE030E040E050E00E94B923672B682B38
:103B8000692B09F037C187E992E032C18530910590
:103B900019F5E0916A01F0916B0120916801309173
:103BA00069012E173F07C4F40E949D0360914801EC
:103BB0007091490180914A0190914B012AE030E0D7
:103BC00040E050E00E94B923672B682B692B09F075
:103BD00011C180E992E00CC120916601309167012A
:103BE000E0916401F09165012E1B3F0B2C5F3F4F6C
:103BF0002930310518F59C01225031092230310558
:103C000028F04250510942305105C0F40E9451033E
:103C1000609148017091490180914A0190914B0156
:103C20002AE030E040E050E00E94B923672B682B87
:103C3000692B09F0DFC08BE892E0DAC0FC01319714
:103C4000E730F10508F0BEC0E256FF4F0C94D823D0
:103C50000E94B903609148017091490180914A0125
:103C600090914B012AE030E040E050E00E94B923FF
:103C7000672B682B692B09F0BDC085E892E0B8C0BE
:103C80008091280190912901A817B9071CF40E947E
:103C9000810302C00E94B9036091480170914901FB
:103CA00080914A0190914B012AE030E040E050E0E1
:103CB0000E94B923672B682B692B09F09BC08EE704
:103CC00092E096C0809128019091290168177907A8
:103CD0001CF40E948F0302C00E94C7036091480138
:103CE0007091490180914A0190914B012AE030E0A6
:103CF00040E050E00E94B923672B682B692B09F044
:103D000079C088E792E074C00E948F0360914801F7
:103D10007091490180914A0190914B012AE030E075
:103D200040E050E00E94B923672B682B692B09F013
:103D300061C082E792E05CC00E948103609148010B
:103D40007091490180914A0190914B012AE030E045
:103D500040E050E00E94B923672B682B692B09F0E3
:103D600049C08BE692E044C00E948F0360914801F5
:103D70007091490180914A0190914B012AE030E015
:103D800040E050E00E94B923672B682B692B91F526
:103D900085E692E02DC00E948103609148017091F8
:103DA000490180914A0190914B012AE030E040E0C6
:103DB00050E00E94B923672B682B692BD9F48EE55C
:103DC00092E016C00E945103609148017091490130
:103DD00080914A0190914B012AE030E040E050E0B0
:103DE0000E94B923672B682B692B21F489E592E0A7
:103DF0000C940919089520915C0130915D01E0E671
:103E0000F1E080819181821B930B97FF03C01182A7
:103E1000108202C091838083329681E0E037F807F8
:103E200081F708950E94C01C892BE1F320916E0157
:103E300030916F01809162019091630128173907D9
:103E40000CF4C90120916C0130916D0128173907DC
:103E50000CF4C90190935D0180935C012FEF33E076
:103E6000281B390B30932D0120932C019093B00126
:103E70008093AF0108951F920F920FB60F921124F5
:103E80002F933F938F939F93EF93FF9380917A00AB
:103E90008F7780937A0080915E0190915F012091ED
:103EA000780030917900FC01EE0FFF1FE05AFE4FC1
:103EB000318320838830910559F410925F0110926C
:103EC0005E0181E090E0909371018093700105C0E4
:103ED000019690935F0180935E01E0915E01F09105
:103EE0005F01E830F10508F058C0EB55FF4F8091B5
:103EF0007B000C94D8238F7D2EC0806280937B0042
:103F000080917C008B7F19C08F7D80937B00809196
:103F10007C00846025C08F7D80937B0080917C0035
:103F2000846080937C0080917C008D7F2FC08F7D8A
:103F300080937B0080917C00846080937C008091E2
:103F40007C00826012C08F7D80937B0080917C001A
:103F5000846017C0806280937B0080917C008B7F9F
:103F600080937C0080917C008D7F80937C00809189
:103F70007C008E7F10C0806280937B0080917C00EB
:103F80008B7F80937C0080917C00826080937C009A
:103F900080917C00816080937C0080917A008068B1
:103FA00080937A0080917A00806480937A00FF91F8
:103FB000EF919F918F913F912F910F900FBE0F9096
:103FC0001F9018950E9416080E94E10180E88093D6
:103FD0006100109261000E94960181E090E0909350
:103FE000160180931501C2E0D0E083E0E82EF12CA9
:103FF00001E010E00E9448120E94C01C809115014F
:10400000909116018130910551F030F08230910588
:1040100069F00397D9F0EECF0E940F02EBCF0E9418
:10402000F31C892B21F50E94C506E4CF0E94F31CE6
:10403000892BA1F00E943A1D892B29F0F0921601DC
:10404000E0921501D7CF0E945A1DD4CF0E943A1D8D
:10405000892B49F40E94F31C892B29F41093160133
:1040600000931501C7CF0E943A1D892B29F4D093E4
:104070001601C0931501BECF0E946207BBCF5058F6
:10408000BB27AA270ED027C2F0D130F0F5D120F0FF
:1040900031F49F3F11F41EF4C0C10EF4E095E7FB2C
:1040A000B6C1E92F3AD280F3BA17620773078407C3
:1040B000950718F071F49EF552C20EF4E0950B2EA0
:1040C000BA2FA02D0B01B90190010C01CA01A0016A
:1040D0001124FF27591B99F0593F50F4503E68F1C5
:1040E0001A16F040A22F232F342F4427585FF3CF06
:1040F000469537952795A795F0405395C9F77EF4D7
:104100001F16BA0B620B730B840BBAF09150A1F01F
:10411000FF0FBB1F661F771F881FC2F70EC0BA0FA5
:10412000621F731F841F48F4879577956795B7952D
:10413000F7959E3F08F0B3CF9395880F08F0992725
:10414000EE0F97958795089590D158F080E891E00B
:1041500009F49EEF91D128F040E851E059F45EEF68
:1041600009C05BC1FCC1E92FE078D7D168F3092E03
:10417000052AC1F3261737074807590738F00E2ECE
:1041800007F8E02569F0E025E0640AC0EF6307F86E
:10419000009407FADB01B9019D01DC01CA01AD0100
:1041A000EF934AD098D10AD05F91552331F02BED8F
:1041B0003FE049E450FD49EC63CF0895DF93DD27EC
:1041C000B92FBF7740E85FE31616170648075B076D
:1041D00010F4D92FCFD19F938F937F936F937CD27D
:1041E000EAE5F1E01DD177D12F913F914F915F9199
:1041F000D4D1DD2349F09058A2EA2AED3FE049EC02
:104200005FE3D0785D274DDFDF9165C1DCD008F436
:1042100081E0089539D1E3956FC10CD05CC12CD1F8
:1042200040F023D130F021F45F3F19F0F0C051117C
:1042300097C1F3C072D198F39923C9F35523B1F311
:10424000951B550BBB27AA2762177307840738F005
:104250009F5F5F4F220F331F441FAA1FA9F333D064
:104260000E2E3AF0E0E830D091505040E695001C18
:10427000CAF729D0FE2F27D0660F771F881FBB1FD4
:10428000261737074807AB07B0E809F0BB0B802DAE
:10429000BF01FF2793585F4F2AF09E3F510568F0FA
:1042A000B6C05EC15F3FECF3983EDCF38695779530
:1042B0006795B795F7959F5FC9F7880F911D9695FC
:1042C000879597F90895E1E0660F771F881FBB1F58
:1042D000621773078407BA0720F0621B730B840B05
:1042E000BA0BEE1F88F7E095089504D06894B111D9
:1042F00037C108951AD188F09F5790F0B92F9927A8
:10430000B751A0F0D1F0660F771F881F991F1AF0E0
:10431000BA95C9F712C0B13081F021D1B1E008954A
:104320001EC1672F782F8827B85F39F0B93FCCF3CB
:10433000869577956795B395D9F73EF490958095D6
:10434000709561957F4F8F4F9F4F0895E89409C0F6
:1043500097FB3EF490958095709561957F4F8F4FB8
:104360009F4F9923A9F0F92F96E9BB279395F695CE
:10437000879577956795B795F111F8CFFAF4BB0F4C
:1043800011F460FF1BC06F5F7F4F8F4F9F4F16C0B0
:10439000882311F096E911C0772321F09EE8872F3A
:1043A000762F05C0662371F096E8862F70E060E0F6
:1043B0002AF09A95660F771F881FDAF7880F96956F
:1043C000879597F90895990F0008550FAA0BE0E813
:1043D000FEEF16161706E807F907C0F012161306C7
:1043E000E407F50798F0621B730B840B950B39F407
:1043F0000A2661F0232B242B252B21F408950A266D
:1044000009F4A140A6958FEF811D811D089597F9AC
:104410009F6780E870E060E008959FEF80EC08956A
:10442000DF93CF931F930F93FF92EF92DF927B0165
:104430008C01689405C0DA2EEF01AFD0FE01E8943C
:10444000A5912591359145915591AEF3EF0129DE66
:10445000FE019701A801DA9479F7DF90EF90FF90C1
:104460000F911F91CF91DF91089500240A941616A1
:10447000170618060906089500240A941216130652
:10448000140605060895C9CF50D0E8F3E894E0E09B
:10449000BB279F57F0F02AED3FE049EC06C0EE0F36
:1044A000BB0F661F771F881F28F0B23A6207730799
:1044B000840728F0B25A620B730B840BE3959A952C
:1044C00072F7803830F49A95BB0F661F771F881FEC
:1044D000D2F7904806C1092E0394000C11F48823EA
:1044E00052F0BB0F40F4BF2B11F460FF04C06F5FAC
:1044F0007F4F8F4F9F4F0895EF93E0FF06C0A2EAD2
:104500002AED3FE049EC5FEBCCDDE5DF0F90039453
:1045100001FC9058E7E8F1E0F7C057FD9058440FD0
:10452000551F59F05F3F71F04795880F97FB991F12
:1045300061F09F3F79F087950895121613061406CF
:10454000551FF2CF4695F1DF08C01616170618065C
:10455000991FF1CF86957105610508940895E89437
:10456000BB2766277727CB0197F908952CDF08F43E
:104570008FEF08959B01AC0160E070E080E89FE35D
:104580004CCE0BD0A8CF71DF28F076DF18F0952342
:1045900009F03DCF42CF1124E3CFBFDFA0F3959FB9
:1045A000D1F3950F50E0551F629FF001729FBB271A
:1045B000F00DB11D639FAA27F00DB11DAA1F649FC6
:1045C0006627B00DA11D661F829F2227B00DA11D79
:1045D000621F739FB00DA11D621F839FA00D611DFF
:1045E000221F749F3327A00D611D231F849F600D20
:1045F000211D822F762F6A2F11249F5750408AF059
:10460000E1F088234AF0EE0FFF1FBB1F661F771FE4
:10461000881F91505040A9F79E3F510570F0F7CE8A
:104620009FCF5F3FECF3983EDCF3869577956795D7
:10463000B795F795E7959F5FC1F7FE2B880F911D02
:104640009695879597F908959F931EDF0F9007FC25
:10465000EE5F52CF11F40EF4E0CE41C066DFD0F32E
:104660009923D9F3CEF39F57550B87FF46D00024EB
:10467000A0E640EA900180585695979528F4805C12
:10468000660F771F881F20F026173707480730F47A
:10469000621B730B840B202931294A2BA695179492
:1046A0000794202531254A2758F7660F771F881F62
:1046B00020F026173707480730F4620B730B840B82
:1046C000200D311D411DA09581F7B901842F91580E
:1046D000880F9695879508959B01AC0152CF9F3F17
:1046E00031F0915020F4879577956795B795880FAD
:1046F000911D9695879597F9089591505040660FB2
:10470000771F881FD2F708959F938F937F936F939E
:10471000FF93EF939B01AC0134DFEF91FF9180DEBB
:104720002F913F914F915F912CCFDB018F939F93FE
:104730000E94DE23BF91AF91A29F800D911DA39F88
:10474000900DB29F900D1124089597FB072E16F43B
:10475000009407D077FD09D00E94E92307FC05D01B
:104760003EF4909581959F4F0895709561957F4F88
:104770000895052E97FB1EF400940E94D02357FD48
:1047800007D00E94FD2307FC03D04EF40C94D023E5
:1047900050954095309521953F4F4F4F5F4F08956D
:1047A00090958095709561957F4F8F4F9F4F08959D
:1047B000EE0FFF1F0590F491E02D09940E941F2435
:1047C000A59F900DB49F900DA49F800D911D112465
:1047D0000895AA1BBB1B51E107C0AA1FBB1FA61748
:1047E000B70710F0A61BB70B881F991F5A95A9F79A
:1047F00080959095BC01CD010895A1E21A2EAA1BC7
:10480000BB1BFD010DC0AA1FBB1FEE1FFF1FA21780
:10481000B307E407F50720F0A21BB30BE40BF50B7D
:10482000661F771F881F991F1A9469F76095709506
:10483000809590959B01AC01BD01CF010895A29F89
:10484000B001B39FC001A39F700D811D1124911D64
:10485000B29F700D811D1124911D0895BB274A3010
:1048600031F4992322F4BDE2909581959F4F0C94E9
:104870006B24BB272A3051F4992342F4BDE2909572
:104880008095709561957F4F8F4F9F4F0C94492471
:10489000BB27FA01A62F6217710581059105330B1D
:1048A00030FB66F0AA27660F771F881F991FAA1F83
:1048B000A21710F0A21B63953850A9F7A05DAA3388
:1048C00008F0A95DA19336F7B111B1931082CA0126
:1048D0000C948424BB27FB015527AA27880F991F16
:1048E000AA1FA41710F0A41B83955051B9F7A05D1F
:1048F000AA3308F0A95DA193009779F7B111B1939C
:104900001192CB010C948424DC01FC01672F71917E
:104910007723E1F7329704C07C916D9370836291A5
:0C492000AE17BF07C8F30895F894FFCF4E
:10492C000100CDCC4C3EF401F40152B89E3E00E1A6
:10493C00000000000801005700A9FF8DFF7300F470
:0E494C0001F401180100010028001400FF030F
:00000001FF
