:100000000C9423010C9440010C9440010C94BC14FA
:100010000C9440010C9440010C9440010C9440015C
:100020000C9440010C9440010C941D100C9457103A
:100030000C9440010C9440010C9440010C9440013C
:100040000C9440010C94A2140C94AF140C94400135
:100050000C9440010C9440010C9440010C9440011C
:100060000C9440010C9440010C9440010C9440010C
:100070000C9440010C9440010C9440010C944001FC
:100080000C9440010C9440010C9440010C944001EC
:100090000C9440010C9440010C9440010C944001DC
:1000A0000C9440010C9440010C944001C50FBD0F0D
:1000B000B50FAD0FA50F9D0F950F8D0F850F7D0F00
:1000C000750F6D0F650F5D0F550F4D0F450F3D0FF0
:1000D000350F2D0F250F1D0F150F0D0F050FFD0EE1
:1000E000F50EED0EE50EDD0ED50ECD0EC50EBD0ED8
:1000F000B50EAD0EA50E9D0E950E8D0E850E7D0EC8
:10010000750E6D0E650E5D0E550E4D0E450E3D0EB7
:10011000350E2D0E250E1D0E150E0D0E050EFD0DA8
:10012000F50DED0DE50DDD0DD50DCD0DC50D5D14F8
:100130007F14961496149F149F149F14084AD73B5B
:100140003BCE016E84BCBFFDC12F3D6C74319ABDA6
:1001500056833DDA3D00C77F11BED9E4BB4C3E91CA
:100160006BAAAABE000000803F05A84CCDB2D44EB9
:10017000B93836A9020C50B9918688083CA6AAAABB
:100180002ABE000000803F000A00090009000900A3
:1001900009000001000029021200020000E60143EC
:1001A00000030000E2010401030904CE011202036E
:1001B0000904C6010603030904BC0108080334004E
:1001C00031003000000006034D0032000000120331
:1001D0004A002E0020004600690065006E006500A0
:1001E00000000403090409024300020100C03209AF
:1001F0000400000102020100052400100105240191
:1002000001010424020605240600010705820310EB
:10021000004009040100020A000000070503024033
:1002200000000705840240000012010002020000E5
:1002300010C0167A040001010203010001C112017D
:1002400080360181360011241FBECFEFDAE0DEBF19
:10025000CDBF11E0A0E0B1E0E2E9F1E302C005901A
:100260000D92A031B107D9F721E0A0E1B1E001C0C2
:100270001D92A434B207E1F70E94E5140C94C7184C
:100280000C940000209A219A229A0895299A2A9A79
:100290002C982B98089529982A982C9A2B9A08958F
:1002A00029982A9A2C9A2B980895299A2A982C985A
:1002B0002B9A089528982E9808954F925F926F92E6
:1002C0007F928F929F92AF92BF92CF92DF92EF92E6
:1002D000FF920F931F93CF93DF9300D000D0CDB741
:1002E000DEB700911B0110911C01081B190B6090D7
:1002F000190170901A01661A770AB801882777FDEC
:100300008095982F0E946E169B01AC01B30188273F
:1003100077FD8095982F29833A834B835C830E94D5
:100320006E1629813A814B815C810E94791529EFF3
:100330003FE049EC5FE30E9405156B017C0129EF6A
:100340003FE049E450EC0E94CC1587FF0AC029EF3A
:100350003FE049EC50E4C701B6010E9406156B016D
:100360007C018090150190901601A0901701B0902B
:100370001801075F1F4F0331110560F489E0680E13
:10038000711CE3E16E16710428F40E945A0181E0A9
:1003900090E06EC0A7019601C501B4010E94051549
:1003A0002B013C010E943B169B0177FF04C02227D2
:1003B0003327261B370BB901882777FD8095982FA7
:1003C0000E946E1620E030E040E05FE30E947C1760
:1003D00018161CF40E94500102C00E944601809130
:1003E0001B0190911C010E94DA1180E991E00E94AA
:1003F000A6118091190190911A010E94DA118EE8DC
:1004000091E00E94A61120E030E04AE754E4C501E3
:10041000B4010E9487170E943B16CB010E94DA119B
:100420008CE891E00E94A61120E030E04AE754E415
:10043000C701B6010E9487170E943B16CB010E949C
:10044000DA118AE891E00E94A61120E030E048EC41
:1004500052E4C301B2010E9487170E943B16CB01F0
:100460000E94DA1188E891E00E94A61180E090E0F5
:100470000F900F900F900F90DF91CF911F910F91E0
:10048000FF90EF90DF90CF90BF90AF909F908F90B4
:100490007F906F905F904F9008950E94DD1280933F
:1004A0001001809110016E9A811102C07698F9CFE7
:1004B000769A08954AE068E481E00C94C10B209A92
:1004C000219A229A239A249A259A269AE1E8F0E022
:1004D000808180618083808188608083A0E8B0E033
:1004E0008C9182608C938C9181608C9380818B7FC6
:1004F000808380818D7F80838081816080838C91E7
:1005000080628C938C9180618C93EFE6F0E0808127
:100510008260808380818460808380E197E2909311
:1005200089008093880080ED90E290938B00809307
:100530008A0008950E94BA0C0E94190B78940E94B8
:100540004D020E945A020C945F024F925F926F928A
:100550007F928F929F92AF92BF92CF92DF92EF9253
:10056000FF920F931F93CF93DF93CDB7DEB76097C2
:100570000FB6F894DEBF0FBECDBF6B015901370136
:10058000481B590BBA01882777FD8095982F0E9448
:100590006E169B01AC01B5016C197D09882777FDAA
:1005A0008095982F2D873E874F87588B0E946E1617
:1005B0002D853E854F8558890E9479154B015C0138
:1005C000C0900401D0900501E0900601F090070171
:1005D00020E030E040E05FE3C701B6010E948717EA
:1005E00069837A838B839C839B01AC01C501B40131
:1005F0000E9405154B015C01D701C601B0588D83DF
:100600009E83AF83B8879C01AD01C501B4010E94F0
:10061000CC1587FD09C08092150190921601A09219
:100620001701B092180114C0A7019601C701B601C5
:100630000E9406159B01AC01C501B4010E9406157C
:100640006093150170931601809317019093180120
:10065000B301882777FD8095982F0E946E166987D1
:100660007A878B879C87B801882777FD8095982F9C
:100670000E946E162B013C0129853A854B855C85CD
:100680000E947915905829813A814B815C810E94A2
:1006900005154B015C012D813E814F8158850E94DB
:1006A000CC1587FF0EC0A7019601C701B6010E94B5
:1006B00006159B01AC01C501B4010E9406154B0152
:1006C0005C0120E030E040E251E4C301B2010E944D
:1006D000D3152B013C0120E030E040E251E4698574
:1006E0007A858B859C850E94D31569837A838B8359
:1006F0009C83A3019201C301B2010E9487172B01C1
:100700003C0129813A814B815C81CA01B9010E9477
:1007100087179B01AC01C301B2010E9406150E941C
:10072000F41720E030E040E251E40E9487172B01EB
:100730003C01A50194016091150170911601809111
:100740001701909118010E940515A70196010E94BA
:1007500005154B015C012D813E814F8158850E941A
:10076000CC1587FF0EC0A7019601C701B6010E94F4
:1007700006159B01AC01C501B4010E9406154B0191
:100780005C01C501B4010E94D0159B01AC01C09071
:100790000001D0900101E0900201F0900301C3013B
:1007A000B2010E948717A70196010E9487170E9435
:1007B0003B1671956195710970931C0160931B0143
:1007C000C501B4010E94EA179B01AC01C301B2014B
:1007D0000E948717A70196010E9487170E943B1667
:1007E00071956195710970931A0160931901609672
:1007F0000FB6F894DEBF0FBECDBFDF91CF911F9132
:100800000F91FF90EF90DF90CF90BF90AF909F90AF
:100810008F907F906F905F904F9008952F923F92AE
:100820004F925F926F927F928F929F92AF92BF9200
:10083000CF92DF92EF92FF920F931F93CF93DF93AC
:10084000CDB7DEB760970FB6F894DEBF0FBECDBF51
:100850001C017A876987FC01A281B38120813181E3
:10086000AD01421B530BFB010280F381E02DFE839F
:10087000ED83FB01C080D1808D819E818C199D0903
:10088000449F4001459F900C900C1124889FA0012B
:10089000899F500D500D1124840E951EAA2497FC9B
:1008A000A094BA2CF101448155817A01E21AF30A2D
:1008B000FB010480F581E02DFC87EB878F010C198B
:1008C0001D09EE9CB001EF9C700D700D1124009F6E
:1008D0007001019FF00CF00C11246E0D7F1D2B0197
:1008E000662457FC6094762CF101668177817B0148
:1008F000E21AF30AE985FA852681378189010C1904
:100900001D09EE9CC001EF9C900D900D1124009FDD
:100910007001019FF00CF00C11248E0D9F1D7C01C5
:100920000027F7FC0095102FE982FA820B831C83C5
:100930007A01EA1AFB0A0B851C858D819E81081BB2
:10094000190BEE9C6001EF9CD00CD00C1124009F81
:100950007001019FF00CF00C1124CE0CDF1CEE2472
:10096000D7FCE094FE2CFB01EA1BFB0BC9010D81B7
:100970001E81801B910BEE9F8001EF9F100D100DCB
:100980001124889FD001899FB00DB00D11240A0F4A
:100990001B1FC801AA2797FDA095BA2F8D839E83A0
:1009A000AF83B887641B750BAB85BC852A1B3B0BDB
:1009B000669FC001679F900D900D1124229FA0019A
:1009C000239F500D500D1124840F951F8C01222759
:1009D00017FD2095322F0D871E872F87388BF42D1A
:1009E000E52D962D872D481459046A047B0424F4C0
:1009F000F82DE92D9A2D8B2D4F2F5E2F692F782FF3
:100A000089819A81AB81BC81481759076A077B07A6
:100A100014F4AC01BD014C155D056E057F0514F4A1
:100A2000B701A6010D811E812F813885401751071E
:100A30006207730714F4B901A8018D859E85AF85FF
:100A4000B889481759076A077B0714F4AC01BD0140
:100A5000942D852DF62DE72D84149504A604B70456
:100A600024F4982D892DFA2DEB2D092F182F2F2FD7
:100A70003E2F89819A81AB81BC8180179107A207A3
:100A8000B30714F48C019D01D901C801C016D10629
:100A9000E206F30614F4D701C6018C019D018D8195
:100AA0009E81AF81B88580179107A207B30714F420
:100AB0008C019D01D901C8010D851E852F853889BE
:100AC000081719072A073B0714F4D901C80148156C
:100AD00059056A057B05A1F484159505A605B7059A
:100AE00019F421E030E091C029813A814B815C8189
:100AF00082179307A407B507A1F320E030E03EC0BA
:100B00004415550566057705A1F488159905AA05CC
:100B1000BB0519F422E030E078C0E980FA800B814F
:100B20001C818E159F05A007B107A1F320E030E0DE
:100B30005DC009811A812B813C81401751076207F2
:100B4000730781F484159505A605B70519F423E00C
:100B500030E05BC088159905AA05BB05C1F320E00C
:100B600030E04EC04C155D056E057F05B1F488156B
:100B70009905AA05BB0529F422E030E081E090E068
:100B800046C02D813E814F81588582179307A40767
:100B9000B50791F321E030E029C00D811E812F813E
:100BA0003885401751076207730781F48815990546
:100BB000AA05BB0519F423E030E0E0CF8C159D05B4
:100BC000AE05BF05C1F321E030E01AC00D851E85DA
:100BD0002F8538894017510762077307A1F48415E0
:100BE0009505A605B70529F423E030E082E090E002
:100BF0000EC08C159D05AE05BF05B1F322E030E0B7
:100C000083E090E004C020E030E080E090E0BC01B0
:100C1000660F771FF101E60FF71F80819181220F88
:100C2000331FF101E20FF31F40815181E985FA85FD
:100C3000E60FF71F60817181E985FA85E20FF31FE6
:100C4000208131817B01E20EF31EF7FE03C01FEF0E
:100C5000E11AF10AF594E7948C01040F151F17FFB0
:100C600002C00F5F1F4F159507950E94A502609661
:100C70000FB6F894DEBF0FBECDBFDF91CF911F91AD
:100C80000F91FF90EF90DF90CF90BF90AF909F902B
:100C90008F907F906F905F904F903F902F9008952E
:100CA0002F923F924F925F926F927F928F929F927C
:100CB000AF92BF92CF92DF92EF92FF920F931F936A
:100CC000CF93DF93CDB7DEB760970FB6F894DEBF52
:100CD0000FBECDBF8C011B01DC0112966D917C9182
:100CE0001397CD90DC90DE86CD86FB01EC19FD09D3
:100CF000D10112962D913C911397CD90DC90D88A1A
:100D0000CF86A9014C195D09EE9FC001EF9F900DA0
:100D1000900D1124449FF001459FF00DF00D11241A
:100D20008E0F9F1F6C01EE24D7FCE094FE2CC9822D
:100D3000DA82EB82FC82D8011496ED90FC90159734
:100D40006701ED85FE85CE1ADF0AD10114964D911B
:100D50005C911597DA01EF85F889AE1BBF0BCC9C2F
:100D6000C001CD9C900D900D1124AA9FF001AB9F66
:100D7000F00DF00D11248E0F9F1F2C01662457FCDF
:100D80006094762CF701E61BF70B421B530BEE9F8A
:100D9000C001EF9F900D900D1124449F9001459F3D
:100DA000300D300D1124820F931F6C01EE24D7FCFF
:100DB000E094FE2CCD82DE82EF82F886342D252D44
:100DC000962D872DC980DA80EB80FC804C145D0461
:100DD0006E047F0424F439812A819B818C81832EC7
:100DE000922EA92EB82ECD80DE80EF80F8848C1450
:100DF0009D04AE04BF0414F446015701342D252D83
:100E0000962D872DC980DA80EB80FC80C414D50430
:100E1000E604F70424F439812A819B818C81C32E56
:100E2000D22EE92EF82E2D813E814F8158852C152A
:100E30003D054E055F0514F469017A01C501B40151
:100E40000E946E1669877A878B879C87C701B601D7
:100E50000E946E169B01AC0169857A858B859C8505
:100E60000E94D31569877A878B879C8720E030E0C2
:100E700040E050E40E94CC1587FF3EC149815A8171
:100E80006B817C8184169506A606B70651F4C414BE
:100E9000D504E604F70489F51A82198221E030E0CE
:100EA00032C084149504A604B70471F469817A8170
:100EB0008B819C81C616D706E806F90639F51A8299
:100EC000198222E030E028C08D819E81AF81B885F3
:100ED00088169906AA06BB0611F529813A814B812D
:100EE0005C81C216D306E406F506F1F441E050E059
:100EF0005A83498322E030E01DC061E070E07A83CC
:100F0000698320E030E082E090E016C082E090E06B
:100F10009A83898320E030E081E090E00DC01A825E
:100F2000198220E030E006C0A2E0B0E0BA83A983D5
:100F300021E030E080E090E06901CC0CDD1CF8019C
:100F4000EC0DFD1D608071807C01EE0CFF1CB30177
:100F5000882777FD8095982F0E946E164B015C01C3
:100F6000F801EE0DFF1D80819181B301681B790BA3
:100F7000882777FD8095982F0E946E1622EA35E427
:100F800046E05FE30E9487179B01AC01C501B401F5
:100F90000E9406150E943B164B015C01F101EC0D0D
:100FA000FD1DC080D180B601882777FD8095982FE0
:100FB0000E946E162B013C01F101EE0DFF1D808198
:100FC0009181B601681B790B882777FD8095982F52
:100FD0000E946E1622EA35E446E05FE30E9487171E
:100FE0009B01AC01C301B2010E9406150E943B1691
:100FF0006D837E838F839887C980DA80CC0CDD1C5B
:10100000DA86C986F601E00FF11FC080D180DA824E
:10101000C982B401882777FD8095982F0E946E16AB
:101020006B017C0129813A81B901882777FD809580
:10103000982F0E946E162B013C0169817A816819F4
:101040007909882777FD8095982F0E946E1628EAE7
:1010500036EC4BE85EE30E9487179B01AC01C301AD
:10106000B2010E9406159B01AC01C701B6010E94A6
:1010700005150E943B164B015C01E985FA85E20DDE
:10108000F31D208031804D815E81BA01882777FD74
:101090008095982F0E946E166B017C01B101882704
:1010A00077FD8095982F0E946E162B013C01B101AF
:1010B0008D819E81681B790B882777FD8095982FFD
:1010C0000E946E1628EA36EC4BE85EE30E94871712
:1010D0009B01AC01C301B2010E9406159B01AC014A
:1010E000C701B6010E9405150E943B167B018401D1
:1010F000910149815A8176C120E030E040E850E416
:1011000069857A858B859C850E947C1718162CF53D
:1011100029813A814B815C8182169306A406B5062B
:1011200009F46CC184149504A604B70459F44981E8
:101130005A816B817C81C416D506E606F70609F054
:101140008AC172C16D817E818F81988586169706CE
:10115000A806B90609F084C173C12DEC3CEC4CE43F
:1011600050E469857A858B859C850E94CC1587FF24
:101170003CC129813A814B815C8182169306A40689
:10118000B50661F4C414D504E604F704A9F520E01B
:1011900030E042E050E05A83498347C0841495040C
:1011A000A604B70481F469817A818B819C81C6167B
:1011B000D706E806F90639F520E030E081E090E056
:1011C0009A83898316C02D813E814F81588582166E
:1011D0009306A406B506F1F449815A816B817C819E
:1011E000C416D506E606F706E1F421E030E01A82DF
:1011F000198282E090E01BC021E030E062E070E004
:101200007A8369830BC022E030E081E090E09A832A
:10121000898304C020E030E01A82198280E090E0E7
:1012200006C022E030E01A82198281E090E0490194
:10123000880C991CF801E80DF91D608071805C0133
:10124000AA0CBB1CB301882777FD8095982F0E94BC
:101250006E166B017C01F801EA0DFB1D8081918106
:10126000681A790AB301882777FD8095982F0E9424
:101270006E1622EA35E446E05FE30E9487179B0181
:10128000AC01C701B6010E9406150E943B166B0116
:101290007C01F101E80DF91D80809180B40188275F
:1012A00077FD8095982F0E946E162B013C01F1016D
:1012B000EA0DFB1D80819181881A990AB401882763
:1012C00077FD8095982F0E946E1622EA35E446E05D
:1012D0005FE30E9487179B01AC01C301B2010E942A
:1012E00006150E943B166D837E838F839887A981A4
:1012F000BA81AA0FBB1FBA83A983FD01E00FF11FBA
:1013000000811181B601882777FD8095982F0E9472
:101310006E164B015C01B801882777FD8095982FE8
:101320000E946E162B013C01B8016C197D098827BB
:1013300077FD8095982F0E946E162FED3FE44DECBF
:101340005FE30E9487179B01AC01C301B2010E94B9
:1013500006159B01AC01C501B4010E9405150E9450
:101360003B164B015C01A981BA81A20DB31D0D9101
:101370001C91ED81FE81BF01882777FD8095982F14
:101380000E946E166B017C01B801882777FD80955D
:10139000982F0E946E162B013C01B8012D813E81D1
:1013A000621B730B882777FD8095982F0E946E161D
:1013B0002FED3FE44DEC5FE30E9487179B01AC01EA
:1013C000C301B2010E9406159B01AC01C701B60121
:1013D0000E9405150E943B167B0184012F853889E8
:1013E0004D855E85B401C40170C049815A816B810D
:1013F0007C8184169506A606B70641F4C414D5046C
:10140000E604F70429F521E030E02CC084149504AB
:10141000A604B70461F469817A818B819C81C61628
:10142000D706E806F906B9F422E030E01BC08D814A
:101430009E81AF81B88588169906AA06BB0681F4FD
:10144000C414D504E604F70481F421E030E005C0BB
:1014500020E030E00CC020E030E082E090E009C005
:1014600020E030E080E090E004C022E030E081E065
:1014700090E0BC01660F771FF801E60FF71F80812F
:101480009181220F331FF801E20FF31F4081518138
:10149000F101E60FF71F60817181F101E20FF31F87
:1014A000208131817B01E20EF31EF7FE03C0AFEF16
:1014B000EA1AFA0AF594E7948C01040F151F17FF36
:1014C00002C00F5F1F4F159507950E94A5026096F9
:1014D0000FB6F894DEBF0FBECDBFDF91CF911F9145
:1014E0000F91FF90EF90DF90CF90BF90AF909F90C3
:1014F0008F907F906F905F904F903F902F900895C6
:10150000CF93DF93CDB7DEB760970FB6F894DEBF09
:101510000FBECDBFE0E2F1E080E090E0408151817C
:101520004F3F23E05207D1F0228133812F3F63E008
:101530003607A1F0DC01AA0FBB1F61E070E06C0F61
:101540007D1FA60FB71F4751524019965C934E93CB
:1015500018972C5731402D933C930196369671E0A5
:10156000E833F707D9F68430910541F4BE016F5F87
:101570007F4FCE0109960E940E0414C0833091055E
:1015800041F4BE016F5F7F4FCE0109960E94500665
:1015900009C0029719F482E090E002C080E090E078
:1015A0000E94DA1160960FB6F894DEBF0FBECDBF71
:1015B000DF91CF91089580E291E00E94C213809361
:1015C0001F0181110E94800A80911F01089580915E
:1015D0001B0190911C018D589F4F08958091190116
:1015E00090911A01CC96089520E030E048EC52E446
:1015F0006091150170911601809117019091180169
:101600000E9487170E944016CB01089580911B010C
:1016100090911C019C012E583F4F2237310528F034
:101620008337910524F482E0089581E0089580E0F5
:101630000895589A599A5A9A8CE08093B800E9E62E
:10164000F0E080818062808380818F7E8083EA9A4F
:101650007894089584E88093BC008091BC0087FF53
:10166000FCCF8091BB00089584E98093BC0008956D
:1016700020E030E08091BC0087FD06C02F5F3F4F27
:10168000293E83E03807B1F781E0283E334009F472
:1016900080E008958093BB0084E88093BC000E94A2
:1016A000380B882321F08091B900887F089580E06D
:1016B00008951F93CF93DF931F92CDB7DEB7182FF6
:1016C00084EA8093BC0069830E94380B6981811190
:1016D00004C094E99093BC0014C0812F880F662346
:1016E00031F08F5F0E944A0B883451F404C00E948D
:1016F0004A0B803229F484E98093BC0080E001C069
:1017000081E00F90DF91CF911F910895CF93DF93E8
:10171000C82FD62F60E00E94590B882391F08D2F9F
:101720000E944A0B882369F084E98093BC0061E041
:101730008C2F0E94590B882321F0DF91CF910C94BC
:101740002A0B80E0DF91CF910895CF93DF93D62FBE
:10175000C42F60E00E94590B811102C080E00EC0CE
:101760008D2F0E944A0B8823C9F38C2F0E944A0BAD
:101770008823A1F384E98093BC0081E0DF91CF91BD
:101780000895CF93DF9300D01F92CDB7DEB74B8380
:101790006A8389830E94190B94EA9093BC00898123
:1017A0006A814B819091BC0097FFFCCF90E59093AC
:1017B000BB0094E89093BC009091BC0097FFFCCFD5
:1017C0009091B900987F903229F484E98093BC000D
:1017D00080E029C091E09093BB0094E89093BC0016
:1017E0009091BC0097FFFCCF8093BB0084E880936E
:1017F000BC008091BC0087FFFCCF6093BB0084E8F5
:101800008093BC008091BC0087FFFCCF4093BB005D
:1018100084E88093BC008091BC0087FFFCCF84E902
:101820008093BC0081E00F900F900F90DF91CF91DB
:10183000089524EA2093BC002091BC0027FFFCCF30
:1018400021E52093BB0024E82093BC002091BC003C
:1018500027FFFCCF2091B900287F2834A9F024EC81
:101860002093BC002091BC0027FFFCCF2091BB003F
:1018700026130AC0FC0120E030E0772767FD709551
:101880006150710944EC0EC084E98093BC0080E093
:1018900008955091BC0057FFFCCF5091BB0051936D
:1018A0002F5F3F4F261737071CF44093BC00F1CF42
:1018B00044E84093BC004091BC0047FFFCCF4091FE
:1018C000BB00FC01E20FF31F408384E98093BC005E
:1018D00081E00895F89494EA9093BC009091BC0044
:1018E00097FFFCCF90E59093BB0094E89093BC00E9
:1018F0009091BC0097FFFCCF9091B900987F9032F7
:1019000031F484E98093BC00789480E0089593E0FA
:101910009093BB0094E89093BC009091BC0097FF1B
:10192000FCCF8093BB0084E88093BC008091BC0016
:1019300087FFFCCFFB01552747FD509524E8CF01D9
:10194000861B970B8417950754F481918093BB00F5
:101950002093BC008091BC0087FFFCCFF0CF84E9CE
:101960008093BC00789481E008958091E80080FF26
:10197000FCCF089581E08093D70080EA8093D8005F
:1019800082E189BD09B400FEFDCF80E98093D800D3
:101990001092E00010921401109211018CE08093DB
:1019A000E200789408958091140108959FB7F89407
:1019B00080911401882339F083E08093E9008091BD
:1019C000E80085FD03C09FBF8FEF08958091F1006F
:1019D0002091E80025FD03C02BE62093E8009FBF7F
:1019E00008959FB7F89480911401882331F083E023
:1019F0008093E9008091F20001C080E09FBF0895CC
:101A000080911401882371F08FB7F89493E090933C
:101A1000E9002BE69091E80095FF03C02093E800D1
:101A2000F9CF8FBF089590911401992371F09FB75A
:101A3000F89424E02093E90020911201222349F038
:101A40002091E80025FD03C09FBF8FEF08951092FD
:101A500012012091E400275E34E04091E80045FD4A
:101A600012C09FBF9091E400921304C081E0809364
:101A70001201EBCF90911401992339F39FB7F89499
:101A80003093E900EACF8093F1008091E80085FD72
:101A900003C08AE38093E80085E0809313019FBF31
:101AA00080E00895909114019923D1F09FB7F894A4
:101AB00024E02093E9002091E80025FD02C09FBFAB
:101AC0000FC08093F1008091E80085FD03C08AE398
:101AD0008093E80085E0809313019FBF80E0089524
:101AE0008FEF0895EF92FF921F93CF93DF937C01C6
:101AF000CB0120911401222371F0AFB7F89424E0B8
:101B00002093E90020911201222349F02091E8005E
:101B100025FD03C0AFBF8FEF42C210921201B4E0A7
:101B2000C0E4DAE315E0009709F437C22091E4003D
:101B3000275E3091E80035FD12C0AFBF3091E40060
:101B4000321304C081E080931201E5CF309114017B
:101B5000332309F3AFB7F894B093E900EACF2091AB
:101B6000F2004C2F421B242F30E08217930708F419
:101B7000482F841B910950E04134510508F0FDC104
:101B80004A5A5F4FFA010C945B18F70120812093A9
:101B9000F10097012F5F3F4F7901F70120812093DA
:101BA000F10097012F5F3F4F7901F70120812093CA
:101BB000F10097012F5F3F4F7901F70120812093BA
:101BC000F10097012F5F3F4F7901F70120812093AA
:101BD000F10097012F5F3F4F7901F701208120939A
:101BE000F10097012F5F3F4F7901F701208120938A
:101BF000F10097012F5F3F4F7901F701208120937A
:101C0000F10097012F5F3F4F7901F7012081209369
:101C1000F10097012F5F3F4F7901F7012081209359
:101C2000F10097012F5F3F4F7901F7012081209349
:101C3000F10097012F5F3F4F7901F7012081209339
:101C4000F10097012F5F3F4F7901F7012081209329
:101C5000F10097012F5F3F4F7901F7012081209319
:101C6000F10097012F5F3F4F7901F7012081209309
:101C7000F10097012F5F3F4F7901F70120812093F9
:101C8000F10097012F5F3F4F7901F70120812093E9
:101C9000F10097012F5F3F4F7901F70120812093D9
:101CA000F10097012F5F3F4F7901F70120812093C9
:101CB000F10097012F5F3F4F7901F70120812093B9
:101CC000F10097012F5F3F4F7901F70120812093A9
:101CD000F10097012F5F3F4F7901F7012081209399
:101CE000F10097012F5F3F4F7901F7012081209389
:101CF000F10097012F5F3F4F7901F7012081209379
:101D0000F10097012F5F3F4F7901F7012081209368
:101D1000F10097012F5F3F4F7901F7012081209358
:101D2000F10097012F5F3F4F7901F7012081209348
:101D3000F10097012F5F3F4F7901F7012081209338
:101D4000F10097012F5F3F4F7901F7012081209328
:101D5000F10097012F5F3F4F7901F7012081209318
:101D6000F10097012F5F3F4F7901F7012081209308
:101D7000F10097012F5F3F4F7901F70120812093F8
:101D8000F10097012F5F3F4F7901F70120812093E8
:101D9000F10097012F5F3F4F7901F70120812093D8
:101DA000F10097012F5F3F4F7901F70120812093C8
:101DB000F10097012F5F3F4F7901F70120812093B8
:101DC000F10097012F5F3F4F7901F70120812093A8
:101DD000F10097012F5F3F4F7901F7012081209398
:101DE000F10097012F5F3F4F7901F7012081209388
:101DF000F10097012F5F3F4F7901F7012081209378
:101E0000F10097012F5F3F4F7901F7012081209367
:101E1000F10097012F5F3F4F7901F7012081209357
:101E2000F10097012F5F3F4F7901F7012081209347
:101E3000F10097012F5F3F4F7901F7012081209337
:101E4000F10097012F5F3F4F7901F7012081209327
:101E5000F10097012F5F3F4F7901F7012081209317
:101E6000F10097012F5F3F4F7901F7012081209307
:101E7000F10097012F5F3F4F7901F70120812093F7
:101E8000F10097012F5F3F4F7901F70120812093E7
:101E9000F10097012F5F3F4F7901F70120812093D7
:101EA000F10097012F5F3F4F7901F70120812093C7
:101EB000F10097012F5F3F4F7901F70120812093B7
:101EC000F10097012F5F3F4F7901F70120812093A7
:101ED000F10097012F5F3F4F7901F7012081209397
:101EE000F10097012F5F3F4F7901F7012081209387
:101EF000F10097012F5F3F4F7901F7012081209377
:101F0000F10097012F5F3F4F7901F7012081209366
:101F1000F10097012F5F3F4F7901F7012081209356
:101F2000F10097012F5F3F4F7901F7012081209346
:101F3000F10097012F5F3F4F7901F7012081209336
:101F4000F10097012F5F3F4F7901F7012081209326
:101F5000F10097012F5F3F4F7901F7012081209316
:101F6000F10097012F5F3F4F7901F7012081209306
:101F7000F10097012F5F3F4F7901F70120812093F6
:101F8000F10097012F5F3F4F79012091E80025FF75
:101F9000D093E80010931301C6CDAFBF80E0DF916E
:101FA000CF911F91FF90EF9008958FB7F894909183
:101FB0001301992341F094E09093E9009AE3909300
:101FC000E800109213018FBF089580910C010895CD
:101FD00080910D01089580910E0108958091110165
:101FE00008959FB7F89420911401222339F022E03C
:101FF0002093E9003091E80035FD03C09FBF8FEFCB
:10200000089531EA3093F10030E23093F1001092FC
:10201000F1001092F1001092F1001092F100209363
:10202000F1001092F1008093F1001092F1008AE328
:102030008093E8009FBF80E008951F920F920FB633
:102040000F9211248F939F938091E1001092E100F1
:1020500083FF11C01092E90091E09093EB00109281
:10206000EC0092E19093ED0098E09093F0001092D4
:1020700014011092110182FF13C080911401882372
:1020800079F080911301882359F0815080931301D6
:10209000811106C084E08093E9008AE38093E80020
:1020A0009F918F910F900FBE0F901F9018951F92C8
:1020B0000F920FB60F921124EF92FF920F931F937E
:1020C0002F933F934F935F936F937F938F939F9340
:1020D000AF93BF93EF93FF93CF93DF931F92CDB74F
:1020E000DEB71092E9008091E80083FF14C190915F
:1020F000F1008091F1003091F1002091F100E32E88
:10210000F12CF22A0091F1002091F10010E0122B45
:102110002091F1006091F10032EF3093E8008630B9
:1021200009F046C036E082E991E0FC014591549106
:102130004E155F0539F4FC013296459154914017D4
:10214000510721F00796315081F7E5C0FC01349624
:1021500045915491FC013696849130E0362B2F3F07
:10216000310519F010F02FEF30E0281708F4822F16
:102170003EEF9091E800292F2570D9F392FDCEC053
:10218000982F813108F090E1FA01292F222331F0B4
:1021900064916093F10021503196F8CF490F511DA1
:1021A000891B3093E8008111E4CF903111F3B6C060
:1021B000853051F48EEF8093E8000E94B50C8E2D8F
:1021C00080688093E300AAC0893059F5911180C0DE
:1021D000E092140110921101109213018EEF80937E
:1021E000E80041E08BE392E04093E9009C012F5F1F
:1021F0003F4FFC0154915093EB00552359F0F901E6
:1022000024912093EC009C012D5F3F4F31968491E7
:102210008093ED004F5F453011F0C901E5CF8EE1AD
:1022200075C0883051F4903809F052C00E94B50C46
:10223000809114018093F10047C0813279F4913A82
:1022400009F046C00E94B50CE8E0F1E0819180936E
:10225000F10081E0EF30F807C9F736C0803299F419
:102260009132B1F58091E80082FFFCCFE8E0F1E027
:102270008091F100819381E0EF30F807C9F78BEF8F
:102280008093E80021C0823241F4913209F043C0CA
:10229000E09211010E94B50C17C0811119C09983F9
:1022A0000E94B50C9981923851F40093E900809115
:1022B000EB0085FB882780F91092E90001C080E0DF
:1022C0008093F1001092F1008EEF8093E80026C019
:1022D000282F2D7F2130F9F49230E9F4EF28D9F43A
:1022E0000F779FEF900F9430B0F49EEF9093E8003B
:1022F0000093E900833079F089E18093EB0081E07D
:1023000090E0002E01C0880F0A94EAF78093EA005B
:102310001092EA0003C081E28093EB000F90DF91FE
:10232000CF91FF91EF91BF91AF919F918F917F914D
:102330006F915F914F913F912F911F910F91FF905E
:10234000EF900F900FBE0F901F9018951F93CF9393
:10235000DF93EC01FE011491112351F01A3019F4AE
:102360008DE00E94130D812F0E94130D2196F2CF54
:10237000DF91CF911F9108958A3010F490E301C04E
:1023800097E3890F0C94130DCF93C82F82958F700C
:102390000E94BC118C2F8F70CF910C94BC11CF93E5
:1023A000C82F892F0E94C4118C2FCF910C94C41177
:1023B0000C94C411EF92FF920F931F93CF93DF936E
:1023C000CDB7DEB727970FB6F894DEBF0FBECDBFEF
:1023D0008E010F5F1F4F27E0F80111922A95E9F750
:1023E0004AE0B8010E9461187E01F8E0EF0EF11C8E
:1023F000F80181918F0181110E94130D0E151F05A7
:10240000B9F727960FB6F894DEBF0FBECDBFDF91A8
:10241000CF911F910F91FF90EF900895EF92FF924F
:102420000F931F93CF93DF9300D000D000D0CDB790
:10243000DEB78E010F5F1F4F26E0F80111922A953B
:10244000E9F74AE0B8010E949D187E01F6E0EF0E20
:10245000F11CF80181918F0181110E94130D0E155D
:102460001F05B9F726960FB6F894DEBF0FBECDBF95
:10247000DF91CF911F910F91FF90EF900895EF9210
:10248000FF920F931F93CF93DF93CDB7DEB72B97B8
:102490000FB6F894DEBF0FBECDBF8E010F5F1F4F8A
:1024A0002BE0F80111922A95E9F72AE0A8010E9491
:1024B0006C187E01FCE0EF0EF11CF80181918F0198
:1024C00081110E94130D0E151F05B9F72B960FB63B
:1024D000F894DEBF0FBECDBFDF91CF911F910F915A
:1024E000FF90EF900895EF92FF920F931F93CF9379
:1024F000DF93CDB7DEB72B970FB6F894DEBF0FBED4
:10250000CDBF8E010F5F1F4F2BE0F80111922A956E
:10251000E9F72AE0A8010E947B187E01FBE0EF0E9C
:10252000F11CF80181918F0181110E94130D0E158C
:102530001F05B9F72B960FB6F894DEBF0FBECDBFBF
:10254000DF91CF911F910F91FF90EF90089520E0C0
:1025500030E08091BC0087FD06C02F5F3F4F293ED1
:1025600083E03807B1F781E0283E334009F480E08A
:1025700008958093BB0084E88093BC000E94A7125A
:10258000882319F08091B900887F0895CF93C82FD0
:1025900084EA8093BC000E94A712882361F08C2FEC
:1025A000880F0E94B912803229F484E98093BC001C
:1025B00080E001C081E0CF9108950E94190B88E569
:1025C0000E94C612811102C080E0089580E30E943B
:1025D000B9128823C9F381E00E94B9128823A1F3BC
:1025E00084E98093BC008FE39CE90197F1F700C078
:1025F000000088E50E94C612882331F380E00E9423
:10260000B912882309F380E00E94B9128823E1F20D
:1026100080E00E94B9128823B9F280E00E94B912CA
:10262000882391F280E00E94B912882369F280E049
:102630000E94B912882341F280E00E94B9128823D7
:1026400019F280E90E94B912882309F4BDCF84E908
:102650008093BC008FE39CE90197F1F700C0000074
:1026600088E50E94C612882309F4AECF87E00E9455
:10267000B912882309F4A8CF80E00E94B9128823F8
:1026800009F4A2CF81E40E94B912882309F49CCFF7
:1026900084E98093BC008FE39CE90197F1F700C0C7
:1026A000000088E50E94C612882309F48DCF8AE1D4
:1026B0000E94B912882309F487CF80E40E94B912DE
:1026C000882309F481CF80E00E94B912882309F49D
:1026D0007BCF84E98093BC008FE39CE90197F1F7FD
:1026E00000C0000088E50E94C612882309F46CCF60
:1026F00083E30E94B912882309F466CF83E00E9425
:10270000B912882309F460CF84E98093BC008FE379
:102710009CE90197F1F700C0000088E50E94C6120D
:10272000882309F451CF80E30E94B912882309F469
:102730004BCF88E00E94B912882309F445CF84E981
:102740008093BC008FE39CE90197F1F700C0000083
:1027500081E00895CF93C82F84EA8093BC000E9443
:10276000A712882369F08C2F880F8F5F0E94B912FF
:10277000883429F484E98093BC0080E001C081E0C2
:10278000CF910895EF92FF920F931F93CF93DF9312
:10279000CDB7DEB760970FB6F894DEBF0FBECDBFE2
:1027A0007C018E010F5F1F4F80E1F80111928A9525
:1027B000E9F788E50E94C612811102C080E05EC080
:1027C00086E30E94B9128823C9F384E98093BC0090
:1027D000F5E8FA95F1F7000088E50E94AA1388232E
:1027E00069F3F8019E01205F3F4F94EC9093BC0089
:1027F0008091BC0087FFFCCF8091BB008193E217E2
:10280000F307A1F784E88093BC008091BC0087FFA8
:10281000FCCF8091BB00888B84E98093BC00DE01F3
:10282000149687016C91762F7073AD014250510957
:10283000FA01808190E0F0E17F9F800D911D1124CD
:10284000F80191838083762F707C4F5F5F4FFA0190
:10285000808190E0F4E07F9F800D911D1124F801AC
:10286000938382836F70862F90E095838483139681
:102870000A5F1F4FA217B307A9F681E060960FB653
:10288000F894DEBF0FBECDBFDF91CF911F910F91A6
:10289000FF90EF90089584E98093BC0008958091A3
:1028A000380190E0FC01E05AF109E730F10508F049
:1028B00048C0E956FF4F0C945B180E94DB0A0E9447
:1028C000060B813061F4469A2FEF83ED90E321509F
:1028D00080409040E1F700C00000469808950E94B3
:1028E000060B823071F5479A2FEF83ED90E321506C
:1028F00080409040E1F700C00000479808950E9492
:10290000DB0A0E94060B992787FD9095909343015F
:10291000809342018130910511F4469A03C00297D9
:1029200009F4479A81E080930F010895809139015D
:1029300080931E0180913A0180931D0108951092A9
:102940000F0108951F920F920FB60F92112428982D
:102950002D982E980F900FBE0F901F9018951F92D4
:102960000F920FB60F921124289A2D9A2E9A0F903B
:102970000FBE0F901F9018951F920F920FB60F92D7
:1029800011242F933F934F935F936F937F938F9374
:102990009F93AF93BF93EF93FF936AE088E391E037
:1029A0000E94190C0E944F14FF91EF91BF91AF91BB
:1029B0009F918F917F916F915F914F913F912F9157
:1029C0000F900FBE0F901F9018950E949A020E94C0
:1029D00042013E9A3F9A80E88093610084E08093B0
:1029E000610080E090E020910F01222359F0892BB3
:1029F00049F40E94DB0A6FEE7FEF8AE690E00E94C6
:102A00005D01F1CF80E090E008955058BB27AA27E0
:102A10000ED027C2F0D130F0F5D120F031F49F3F35
:102A200011F41EF4C0C10EF4E095E7FBB6C1E92F26
:102A30003AD280F3BA17620773078407950718F034
:102A400071F49EF552C20EF4E0950B2EBA2FA02D14
:102A50000B01B90190010C01CA01A0011124FF274B
:102A6000591B99F0593F50F4503E68F11A16F04046
:102A7000A22F232F342F4427585FF3CF4695379545
:102A80002795A795F0405395C9F77EF41F16BA0B0A
:102A9000620B730B840BBAF09150A1F0FF0FBB1FB8
:102AA000661F771F881FC2F70EC0BA0F621F731F01
:102AB000841F48F4879577956795B795F7959E3F5E
:102AC00008F0B3CF9395880F08F09927EE0F9795EC
:102AD0008795089590D158F080E891E009F49EEF31
:102AE00091D128F040E851E059F45EEF09C05BC194
:102AF000FCC1E92FE078D7D168F3092E052AC1F38C
:102B0000261737074807590738F00E2E07F8E02533
:102B100069F0E025E0640AC0EF6307F8009407FA63
:102B2000DB01B9019D01DC01CA01AD01EF934AD07F
:102B300098D10AD05F91552331F02BED3FE049E465
:102B400050FD49EC63CF0895DF93DD27B92FBF77A0
:102B500040E85FE31616170648075B0710F4D92F05
:102B6000CFD19F938F937F936F937CD2ECE3F1E06F
:102B70001DD177D12F913F914F915F91D4D1DD231A
:102B800049F09058A2EA2AED3FE049EC5FE3D078A3
:102B90005D274DDFDF9165C1DCD008F481E0089549
:102BA00039D1E3956FC10CD05CC12CD140F023D159
:102BB00030F021F45F3F19F0F0C0511197C1F3C01C
:102BC00072D198F39923C9F35523B1F3951B550B93
:102BD000BB27AA2762177307840738F09F5F5F4FF0
:102BE000220F331F441FAA1FA9F333D00E2E3AF031
:102BF000E0E830D091505040E695001CCAF729D04B
:102C0000FE2F27D0660F771F881FBB1F2617370799
:102C10004807AB07B0E809F0BB0B802DBF01FF27C9
:102C200093585F4F2AF09E3F510568F0B6C05EC1D1
:102C30005F3FECF3983EDCF3869577956795B79503
:102C4000F7959F5FC9F7880F911D9695879597F91E
:102C50000895E1E0660F771F881FBB1F6217730797
:102C60008407BA0720F0621B730B840BBA0BEE1FAC
:102C700088F7E095089504D06894B11137C108959C
:102C80001AD188F09F5790F0B92F9927B751A0F02B
:102C9000D1F0660F771F881F991F1AF0BA95C9F7F0
:102CA00012C0B13081F021D1B1E008951EC1672F6B
:102CB000782F8827B85F39F0B93FCCF386957795A0
:102CC0006795B395D9F73EF4909580957095619589
:102CD0007F4F8F4F9F4F0895E89409C097FB3EF4B4
:102CE00090958095709561957F4F8F4F9F4F992359
:102CF000A9F0F92F96E9BB279395F69587957795D7
:102D00006795B795F111F8CFFAF4BB0F11F460FF96
:102D10001BC06F5F7F4F8F4F9F4F16C0882311F0EE
:102D200096E911C0772321F09EE8872F762F05C002
:102D3000662371F096E8862F70E060E02AF09A959D
:102D4000660F771F881FDAF7880F9695879597F992
:102D50000895990F0008550FAA0BE0E8FEEF16162C
:102D60001706E807F907C0F012161306E407F5077F
:102D700098F0621B730B840B950B39F40A2661F0F3
:102D8000232B242B252B21F408950A2609F4A14096
:102D9000A6958FEF811D811D089597F99F6780E8A3
:102DA00070E060E008959FEF80EC0895DF93CF938B
:102DB0001F930F93FF92EF92DF927B018C01689437
:102DC00005C0DA2EEF01AFD0FE01E894A591259160
:102DD000359145915591AEF3EF0129DEFE01970142
:102DE000A801DA9479F7DF90EF90FF900F911F918F
:102DF000CF91DF91089500240A941616170618063D
:102E00000906089500240A941216130614060506EE
:102E10000895C9CF50D0E8F3E894E0E0BB279F576E
:102E2000F0F02AED3FE049EC06C0EE0FBB0F661F45
:102E3000771F881F28F0B23A62077307840728F0CB
:102E4000B25A620B730B840BE3959A9572F7803834
:102E500030F49A95BB0F661F771F881FD2F79048F2
:102E600006C1092E0394000C11F4882352F0BB0F05
:102E700040F4BF2B11F460FF04C06F5F7F4F8F4F92
:102E80009F4F0895EF93E0FF06C0A2EA2AED3FE0CE
:102E900049EC5FEBCCDDE5DF0F90039401FC90582B
:102EA000E9E6F1E0F7C057FD9058440F551F59F07F
:102EB0005F3F71F04795880F97FB991F61F09F3F27
:102EC00079F087950895121613061406551FF2CF50
:102ED0004695F1DF08C0161617061806991FF1CFA0
:102EE00086957105610508940895E894BB276627C7
:102EF0007727CB0197F908952CDF08F48FEF089519
:102F00009B01AC0160E070E080E89FE34CCE0BD009
:102F1000A8CF71DF28F076DF18F0952309F03DCFB8
:102F200042CF1124E3CFBFDFA0F3959FD1F3950FDC
:102F300050E0551F629FF001729FBB27F00DB11D3D
:102F4000639FAA27F00DB11DAA1F649F6627B00DCD
:102F5000A11D661F829F2227B00DA11D621F739FB6
:102F6000B00DA11D621F839FA00D611D221F749FC4
:102F70003327A00D611D231F849F600D211D822F0B
:102F8000762F6A2F11249F5750408AF0E1F0882352
:102F90004AF0EE0FFF1FBB1F661F771F881F91505F
:102FA0005040A9F79E3F510570F0F7CE9FCF5F3F8D
:102FB000ECF3983EDCF3869577956795B795F79592
:102FC000E7959F5FC1F7FE2B880F911D969587951A
:102FD00097F908959F931EDF0F9007FCEE5F52CF85
:102FE00011F40EF4E0CE41C066DFD0F39923D9F39B
:102FF000CEF39F57550B87FF46D00024A0E640EA4A
:10300000900180585695979528F4805C660F771F3D
:10301000881F20F026173707480730F4621B730B10
:10302000840B202931294A2BA69517940794202533
:1030300031254A2758F7660F771F881F20F026177B
:103040003707480730F4620B730B840B200D311DDA
:10305000411DA09581F7B901842F9158880F96954D
:10306000879508959B01AC0152CF9F3F31F091505D
:1030700020F4879577956795B795880F911D96955C
:10308000879597F9089591505040660F771F881FD4
:10309000D2F708959F938F937F936F93FF93EF934E
:1030A0009B01AC0134DFEF91FF9180DE2F913F91C6
:1030B0004F915F912CCFEE0FFF1F0590F491E02D03
:1030C0000994BB274A3031F4992322F4BDE290954C
:1030D00081959F4F0C949E18BB272A3051F4992359
:1030E00042F4BDE290958095709561957F4F8F4F2A
:1030F0009F4F0C947C18BB27FA01A62F621771050D
:1031000081059105330B30FB66F0AA27660F771F08
:10311000881F991FAA1FA21710F0A21B6395385091
:10312000A9F7A05DAA3308F0A95DA19336F7B11104
:10313000B1931082CA010C94B718BB27FB01552725
:10314000AA27880F991FAA1FA41710F0A41B839504
:103150005051B9F7A05DAA3308F0A95DA19300977B
:1031600079F7B111B1931192CB010C94B718DC012E
:10317000FC01672F71917723E1F7329704C07C91AE
:103180006D9370836291AE17BF07C8F30895F894EA
:02319000FFCF6F
:1031920052B89E3ED00F494000E1000000000801F5
:00000001FF
