:100000000C9425010C9442010C9442010C94F214BE
:100010000C9442010C9442010C9442010C94420154
:100020000C9442010C9442010C943D100C947710F6
:100030000C9442010C9442010C9442010C94420134
:100040000C9442010C94D8140C94E5140C944201C5
:100050000C9442010C9442010C9442010C94420114
:100060000C9442010C9442010C9442010C94420104
:100070000C9442010C9442010C9442010C944201F4
:100080000C9442010C9442010C9442010C944201E4
:100090000C9442010C9442010C9442010C944201D4
:1000A0000C9442010C9442010C944201E50FDD0FC7
:1000B000D50FCD0FC50FBD0FB50FAD0FA50F9D0F00
:1000C000950F8D0F850F7D0F750F6D0F650F5D0FF0
:1000D000550F4D0F450F3D0F350F2D0F250F1D0FE0
:1000E000150F0D0F050FFD0EF50EED0EE50EDD0ED5
:1000F000D50ECD0EC50EBD0EB50EAD0EA50E9D0EC8
:10010000950E8D0E850E7D0E750E6D0E650E5D0EB7
:10011000550E4D0E450E3D0E350E2D0E250E1D0EA7
:10012000150E0D0E050EFD0DF50DED0DE50D7D14F5
:10013000A014CC14CC14D514D514D514084AD73B2C
:100140003BCE016E84BCBFFDC12F3D6C74319ABDA6
:1001500056833DDA3D00C77F11BED9E4BB4C3E91CA
:100160006BAAAABE000000803F05A84CCDB2D44EB9
:10017000B93836A9020C50B9918688083CA6AAAABB
:100180002ABE000000803F000A00430044004100F6
:1001900042000A00000100002B021200020000E8E9
:1001A000014300030000E4010401030904D001122B
:1001B00002030904C8010603030904BE0108080379
:1001C000340031003000000006034D003200000012
:1001D00012034A002E0020004600690065006E00F0
:1001E000650000000403090409024300020100C085
:1001F000320904000001020201000524001001057B
:1002000024010101042402060524060001070582D9
:100210000310004009040100020A00000007050362
:1002200002400000070584024000001201000202A3
:10023000000010C0167A040001010203010001C190
:100240001201803601813661000011241FBECFEFFC
:10025000DAE0DEBFCDBF11E0A0E0B1E0E8E1F2E31B
:1002600002C005900D92A031B107D9F721E0A0E1BD
:10027000B1E001C01D92A434B207E1F70E9421153C
:100280000C940A190C940000209A219A229A08953D
:10029000299A2A9A2C982B98089529982A982C9A6A
:1002A0002B9A089529982A9A2C9A2B980895299A7E
:1002B0002A982C982B9A089528982E9808956F9232
:1002C0007F928F929F92AF92BF92CF92DF92EF92E6
:1002D000FF920F931F93CF93DF9300D000D0CDB741
:1002E000DEB700911A0110911B01081B190B6090D9
:1002F000180170901901661A770AB801882777FDEE
:100300008095982F0E94B1169B01AC01B3018827FC
:1003100077FD8095982F29833A834B835C830E94D5
:10032000B11629813A814B815C810E94BC1529EF6D
:100330003FE049EC5FE30E9448156B017C0129EF27
:100340003FE049E450EC0E940F1687FF0AC029EFF6
:100350003FE049EC50E4C701B6010E9449156B012A
:100360007C018090140190901501A0901601B0902E
:100370001701075F1F4F0331110560F489E0680E14
:10038000711CE3E16E16710428F40E945C0181E0A7
:1003900090E026C0A7019601C501B4010E9448154E
:1003A00020E030E040E05FE30E94BF1718161CF425
:1003B0000E94520113C0A5019401C701B6010E9419
:1003C000481520E030E040E05FE30E94BF171816B8
:1003D0001CF40E94570102C00E94480180E090E096
:1003E0000F900F900F900F90DF91CF911F910F9171
:1003F000FF90EF90DF90CF90BF90AF909F908F9045
:100400007F906F9008950E94FD12892B19F46E9AC7
:100410007698FDCF6E9A769A08954AE068E181E079
:100420000C94E10B209A219A229A239A249A259AD5
:10043000269AE1E8F0E08081806180838081886095
:100440008083A0E8B0E08C9182608C938C91816075
:100450008C9380818B7F808380818D7F808380815E
:10046000816080838C9180628C938C9180618C936D
:10047000EFE6F0E080818260808380818460808309
:1004800080E197E2909389008093880080ED90E26C
:1004900090938B0080938A0008950E94DA0C0E944A
:1004A000390B78940E9403020E940D020C941202F0
:1004B0004F925F926F927F928F929F92AF92BF9274
:1004C000CF92DF92EF92FF920F931F93CF93DF9320
:1004D000CDB7DEB760970FB6F894DEBF0FBECDBFC5
:1004E0006B0159013701481B590BBA01882777FD69
:1004F0008095982F0E94B1169B01AC01B5016C1933
:100500007D09882777FD8095982F2D873E874F8717
:10051000588B0E94B1162D853E854F8558890E94C3
:10052000BC154B015C01C0900401D0900501E09026
:100530000601F090070120E030E040E05FE3C701F2
:10054000B6010E94CA1769837A838B839C839B01BF
:10055000AC01C501B4010E9448154B015C01D701F3
:10056000C601B0588D839E83AF83B8879C01AD01CF
:10057000C501B4010E940F1687FD09C080921401C5
:1005800090921501A0921601B092170114C0A70114
:100590009601C701B6010E9449159B01AC01C50136
:1005A000B4010E9449156093140170931501809362
:1005B000160190931701B301882777FD8095982F36
:1005C0000E94B11669877A878B879C87B801882734
:1005D00077FD8095982F0E94B1162B013C0129854B
:1005E0003A854B855C850E94BC15905829813A81DB
:1005F0004B815C810E9448154B015C012D813E813D
:100600004F8158850E940F1687FF0EC0A7019601E3
:10061000C701B6010E9449159B01AC01C501B40197
:100620000E9449154B015C0120E030E040E251E4BA
:10063000C301B2010E9416162B013C0120E030E0FC
:1006400040E251E469857A858B859C850E94161667
:1006500069837A838B839C83A3019201C301B201D6
:100660000E94CA172B013C0129813A814B815C8190
:10067000CA01B9010E94CA179B01AC01C301B201B2
:100680000E9449150E94371820E030E040E251E412
:100690000E94CA172B013C01A5019401609114012D
:1006A0007091150180911601909117010E944815D3
:1006B000A70196010E9448154B015C012D813E81E6
:1006C0004F8158850E940F1687FF0EC0A701960123
:1006D000C701B6010E9449159B01AC01C501B401D7
:1006E0000E9449154B015C01C501B4010E9413161B
:1006F0009B01AC01C0900001D0900101E09002018B
:10070000F0900301C301B2010E94CA17A70196012C
:100710000E94CA170E947E167195619571097093A7
:100720001B0160931A01C501B4010E942D189B01A1
:10073000AC01C301B2010E94CA17A70196010E9431
:10074000CA170E947E1671956195710970931901FF
:100750006093180160960FB6F894DEBF0FBECDBF50
:10076000DF91CF911F910F91FF90EF90DF90CF908D
:10077000BF90AF909F908F907F906F905F904F90C1
:1007800008952F923F924F925F926F927F928F9235
:100790009F92AF92BF92CF92DF92EF92FF920F9310
:1007A0001F93CF93DF93CDB7DEB760970FB6F89462
:1007B000DEBF0FBECDBF1C017A876987FC01A28115
:1007C000B38120813181AD01421B530BFB010280BB
:1007D000F381E02DFE83ED83FB01C080D1808D810C
:1007E0009E818C199D09449F4001459F900C900C5F
:1007F0001124889FA001899F500D500D1124840E53
:10080000951EAA2497FCA094BA2CF101448155812D
:100810007A01E21AF30AFB010480F581E02DFC87DE
:10082000EB878F010C191D09EE9CB001EF9C700D38
:10083000700D1124009F7001019FF00CF00C112429
:100840006E0D7F1D2B01662457FC6094762CF10100
:10085000668177817B01E21AF30AE985FA852681B0
:10086000378189010C191D09EE9CC001EF9C900D88
:10087000900D1124009F7001019FF00CF00C1124C9
:100880008E0D9F1D7C010027F7FC0095102FE9823B
:10089000FA820B831C837A01EA1AFB0A0B851C85FA
:1008A0008D819E81081B190BEE9C6001EF9CD00C82
:1008B000D00C1124009F7001019FF00CF00C11244A
:1008C000CE0CDF1CEE24D7FCE094FE2CFB01EA1BCF
:1008D000FB0BC9010D811E81801B910BEE9F8001D6
:1008E000EF9F100D100D1124889FD001899FB00D2E
:1008F000B00D11240A0F1B1FC801AA2797FDA09550
:10090000BA2F8D839E83AF83B887641B750BAB852D
:10091000BC852A1B3B0B669FC001679F900D900D05
:100920001124229FA001239F500D500D1124840FEC
:10093000951F8C01222717FD2095322F0D871E87CA
:100940002F87388BF42DE52D962D872D48145904CB
:100950006A047B0424F4F82DE92D9A2D8B2D4F2F5A
:100960005E2F692F782F89819A81AB81BC814817CE
:1009700059076A077B0714F4AC01BD014C155D05EE
:100980006E057F0514F4B701A6010D811E812F812C
:100990003885401751076207730714F4B901A8019D
:1009A0008D859E85AF85B889481759076A077B07EB
:1009B00014F4AC01BD01942D852DF62DE72D841482
:1009C0009504A604B70424F4982D892DFA2DEB2D57
:1009D000092F182F2F2F3E2F89819A81AB81BC813F
:1009E00080179107A207B30714F48C019D01D90168
:1009F000C801C016D106E206F30614F4D701C601F9
:100A00008C019D018D819E81AF81B88580179107F2
:100A1000A207B30714F48C019D01D901C8010D850B
:100A20001E852F853889081719072A073B0714F4F4
:100A3000D901C801481559056A057B05A1F484153B
:100A40009505A605B70519F421E030E091C029818C
:100A50003A814B815C8182179307A407B507A1F304
:100A600020E030E03EC04415550566057705A1F449
:100A700088159905AA05BB0519F422E030E078C075
:100A8000E980FA800B811C818E159F05A007B107B4
:100A9000A1F320E030E05DC009811A812B813C8107
:100AA000401751076207730781F484159505A60561
:100AB000B70519F423E030E05BC088159905AA0555
:100AC000BB05C1F320E030E04EC04C155D056E055E
:100AD0007F05B1F488159905AA05BB0529F422E024
:100AE00030E081E090E046C02D813E814F81588505
:100AF00082179307A407B50791F321E030E029C0DE
:100B00000D811E812F8138854017510762077307B9
:100B100081F488159905AA05BB0519F423E030E096
:100B2000E0CF8C159D05AE05BF05C1F321E030E097
:100B30001AC00D851E852F85388940175107620719
:100B40007307A1F484159505A605B70529F423E0DC
:100B500030E082E090E00EC08C159D05AE05BF052B
:100B6000B1F322E030E083E090E004C020E030E028
:100B700080E090E0BC01660F771FF101E60FF71FE0
:100B800080819181220F331FF101E20FF31F408119
:100B90005181E985FA85E60FF71F60817181E9854A
:100BA000FA85E20FF31F208131817B01E20EF31EF3
:100BB000F7FE03C01FEFE11AF10AF594E7948C01E8
:100BC000040F151F17FF02C00F5F1F4F15950795E4
:100BD0000E94580260960FB6F894DEBF0FBECDBFDC
:100BE000DF91CF911F910F91FF90EF90DF90CF9009
:100BF000BF90AF909F908F907F906F905F904F903D
:100C00003F902F9008952F923F924F925F926F9254
:100C10007F928F929F92AF92BF92CF92DF92EF928C
:100C2000FF920F931F93CF93DF93CDB7DEB76297F9
:100C30000FB6F894DEBF0FBECDBF1C017E836D835F
:100C4000DC0112966D917C911397ED91FC91F88BDC
:100C5000EF878B010E1B1F0BAD81BE8112962D916C
:100C60003C911397ED91FC91FA8BE98BA9014E1BF6
:100C70005F0B009FC001019F900D900D1124449FB8
:100C8000F001459FF00DF00D11248E0F9F1F7C0188
:100C90000027F7FC0095102FE982FA820B831C8352
:100CA000D10114960D911C9115977801EF85F88963
:100CB000EE1AFF0AAD81BE8114964D915C91159795
:100CC000DA01E989FA89AE1BBF0BEE9CC001EF9CEB
:100CD000900D900D1124AA9FF001AB9FF00DF00D27
:100CE00011248E0F9F1F2C01662457FC6094762CD4
:100CF000F801E61BF70B421B530BEE9FC001EF9F61
:100D0000900D900D1124449F9001459F300D300DA2
:100D10001124820F931F7C010027F7FC0095102FF0
:100D2000EF82F88609871A87342D252D962D872D79
:100D3000E980FA800B811C814E145F046006710605
:100D400024F439812A819B818C81832E922EA92EB5
:100D5000B82EEF80F88409851A858E149F04A006AA
:100D6000B10614F447015801342D252D962D872DF9
:100D7000E980FA800B811C81E414F504060517054F
:100D800024F439812A819B818C81C32ED22EE92EB5
:100D9000F82E0F81188529853A850C151D052E051D
:100DA0003F0514F468017901C501B4010E94B11630
:100DB0006B877C878D879E87C701B6010E94B1161D
:100DC0009B01AC016B857C858D859E850E941616E6
:100DD0006B877C878D879E8720E030E040E050E481
:100DE0000E940F1687FF4AC129813A814B815C819D
:100DF00082169306A406B50651F4C414D504E6047D
:100E0000F70479F500E010E081E090E02EC0841452
:100E10009504A604B70471F449815A816B817C81E1
:100E2000C416D506E606F70619F500E010E082E0E4
:100E300090E022C06F81788589859A85861697060D
:100E4000A806B906E1F489819A81AB81BC81C816F4
:100E5000D906EA06FB06C1F401E010E082E090E06A
:100E600017C001E010E080E090E022E030E012C026
:100E700002E010E080E090E021E030E00BC000E014
:100E800010E080E090E004C002E010E081E090E03B
:100E900020E030E07C01EE0CFF1CF101EE0DFF1DA7
:100EA000C080D180D901AA0FBB1FBA83A983B60124
:100EB000882777FD8095982F0E94B1164B015C0121
:100EC000E981FA81E20DF31D80819181B601681BF1
:100ED000790B882777FD8095982F0E94B11622EA1A
:100EE00035E446E05FE30E94CA179B01AC01C501EF
:100EF000B4010E9449150E947E164B015C01ED81F0
:100F0000FE81EE0DFF1DE080F180B701882777FD9F
:100F10008095982F0E94B1162B013C01A981BA81BE
:100F2000ED81FE81AE0FBF1F8D919C91B701681BB3
:100F3000790B882777FD8095982F0E94B11622EAB9
:100F400035E446E05FE30E94CA179B01AC01C30190
:100F5000B2010E9449150E947E1669837A838B83B1
:100F60009C83000F111F200E311ED1010D90BC91EA
:100F7000A02DB887AF83B401882777FD8095982F7F
:100F80000E94B1166B017C012F813885B901882739
:100F900077FD8095982F0E94B1162B013C016F813F
:100FA000788568197909882777FD8095982F0E94A0
:100FB000B11628EA36EC4BE85EE30E94CA179B01A3
:100FC000AC01C301B2010E9449159B01AC01C701EC
:100FD000B6010E9448150E947E164B015C01ED800F
:100FE000FE800E0D1F1DD8010D90BC91A02DBE835B
:100FF000AD8380E991E00E94C611E981FA81BF01C9
:10100000882777FD8095982F0E94B1166B017C018F
:101010002D813E81B901882777FD8095982F0E9408
:10102000B1162B013C016D817E8149815A81641B7F
:10103000750B882777FD8095982F0E94B11628EAB6
:1010400036EC4BE85EE30E94CA179B01AC01C3017A
:10105000B2010E9449159B01AC01C701B6010E9473
:1010600048150E947E16D8012D913C91F1014081D6
:1010700051817B018401B401C4014BC220E030E006
:1010800040E850E46B857C858D859E850E94BF1766
:1010900018160CF076C009811A812B813C818016CC
:1010A0009106A206B30641F4C414D504E604F7047D
:1010B00029F501E010E02CC084149504A604B704BF
:1010C00061F429813A814B815C81C216D306E40622
:1010D000F506B9F402E010E01BC04F815885698520
:1010E0007A8584169506A606B70681F4C414D5043D
:1010F000E604F70481F401E010E005C000E010E030
:101100000CC000E010E082E090E009C000E010E0D8
:1011100080E090E004C002E010E081E090E06C012B
:10112000CC0CDD1C41018C0C9D1C5801AA0CBB1C75
:101130002A0C3B1CD4012D913C91F10180819181BD
:10114000280F391F37FF02C02F5F3F4F89011595C8
:101150000795ED80FE80CE0CDF1CAE0CBF1CD601C7
:10116000ED90FC90F50180819181E80EF91EF7FE6B
:1011700003C0FFEFEF1AFF0AF594E7948EE891E0C1
:10118000BAC12DEC3CEC4CE450E46B857C858D853C
:101190009E850E940F1609811A812B813C8187FF51
:1011A00039C180169106A206B30651F4C414D504C1
:1011B000E604F70489F580E090E002E010E041C029
:1011C00084149504A604B70471F429813A814B81F3
:1011D0005C81C216D306E406F50619F580E090E0BE
:1011E00001E010E016C04F81588569857A85841624
:1011F0009506A606B706D1F469817A818B819C8118
:10120000C616D706E806F906C1F481E090E000E0D2
:1012100010E022E030E017C081E090E002E010E052
:1012200009C082E090E001E010E004C080E090E0BE
:1012300000E010E020E030E006C082E090E000E056
:1012400010E021E030E05C01AA0CBB1CF101EA0DCA
:10125000FB1D808091807901EE0CFF1CFA82E982EF
:10126000B401882777FD8095982F0E94B1166B01F5
:101270007C01E981FA81E20DF31D80819181881A58
:10128000990AB401882777FD8095982F0E94B1169E
:1012900022EA35E446E05FE30E94CA179B01AC01F5
:1012A000C701B6010E9449150E947E166B017C01A0
:1012B000ED81FE81EA0DFB1DA080B180B50188277C
:1012C00077FD8095982F0E94B1162B013C01A981D2
:1012D000BA812D813E81A20FB31F8D919C91A81AD6
:1012E000B90AB501882777FD8095982F0E94B1161D
:1012F00022EA35E446E05FE30E94CA179B01AC0195
:10130000C301B2010E9449150E947E1669837A8347
:101310008B839C83000F111FF101E00FF11F2080D0
:101320003180B601882777FD8095982F0E94B116ED
:101330004B015C01B101882777FD8095982F0E94B1
:10134000B1162B013C01B1016C197D09882777FD8D
:101350008095982F0E94B1162FED3FE44DEC5FE38E
:101360000E94CA179B01AC01C301B2010E9449153A
:101370009B01AC01C501B4010E9448150E947E1674
:101380004B015C01ED81FE81E00FF11F00811181B5
:1013900049815A81BA01882777FD8095982F0E944C
:1013A000B1166B017C01B801882777FD8095982FD5
:1013B0000E94B1162B013C01B80189819A81681BFA
:1013C000790B882777FD8095982F0E94B1162FED15
:1013D0003FE44DEC5FE30E94CA179B01AC01C301DF
:1013E000B2010E9449159B01AC01C701B6010E94E0
:1013F00048150E947E167B01840129893A894F8510
:101400005889B401C4010E9458028CE891E00E94FE
:10141000C61181C080169106A206B30641F4C41419
:10142000D504E604F70429F501E010E02CC084148B
:101430009504A604B70461F429813A814B815C814B
:10144000C216D306E406F506B9F402E010E01BC0AC
:101450004F81588569857A8584169506A606B70654
:1014600081F4C414D504E604F70481F401E010E02B
:1014700005C000E010E00CC000E010E082E090E069
:1014800009C000E010E080E090E004C002E010E05D
:1014900081E090E06C01CC0CDD1C41018C0C9D1CAA
:1014A0005801AA0CBB1C2A0C3B1CD4012D913C9169
:1014B000F10180819181280F391F37FF02C02F5F12
:1014C0003F4F890115950795ED80FE80CE0CDF1CFE
:1014D000AE0CBF1CD601ED90FC90F501808191818E
:1014E000E80EF91EF7FE03C0FFEFEF1AFF0AF594AE
:1014F000E7948AE891E00E94C611D5012D913C91B4
:10150000F10140815181D6016D917C91F40180817E
:1015100091810E94580288E891E062960FB6F89493
:10152000DEBF0FBECDBFDF91CF911F910F91FF9016
:10153000EF90DF90CF90BF90AF909F908F907F9073
:101540006F905F904F903F902F900C94C611CF9367
:10155000DF93CDB7DEB760970FB6F894DEBF0FBE4E
:10156000CDBFE0E2F1E080E090E0408151814F3F6B
:1015700023E05207D1F0228133812F3F63E0360709
:10158000A1F0DC01AA0FBB1F61E070E06C0F7D1FB2
:10159000A60FB71F4751524019965C934E93189768
:1015A0002C5731402D933C930196369671E0E833E9
:1015B000F707D9F68430910541F4BE016F5F7F4F84
:1015C000CE0109960E94C1030DC0039759F4BE01D4
:1015D0006F5F7F4FCE0109960E94030682E991E07A
:1015E0000E94C61160960FB6F894DEBF0FBECDBF45
:1015F000DF91CF91089580E291E00E94E213809301
:101600001F0181110E94A70A80911F0108958091F6
:101610001A0190911B018D589F4F089580911801D8
:1016200090911901CC96089520E030E048EC52E406
:10163000609114017091150180911601909117012C
:101640000E94CA170E948316CB01089580911A0147
:1016500090911B019C012E583F4F2237310528F0F5
:101660008337910524F482E0089581E0089580E0B5
:101670000895589A599A5A9A8CE08093B800E9E6EE
:10168000F0E080818062808380818F7E8083EA9A0F
:101690007894089584E88093BC008091BC0087FF13
:1016A000FCCF8091BB00089584E98093BC0008952D
:1016B00020E030E08091BC0087FD06C02F5F3F4FE7
:1016C000293E83E03807B1F781E0283E334009F432
:1016D00080E008958093BB0084E88093BC000E9462
:1016E000580B882321F08091B900887F089580E00D
:1016F00008951F93CF93DF931F92CDB7DEB7182FB6
:1017000084EA8093BC0069830E94580B698181112F
:1017100004C094E99093BC0014C0812F880F662305
:1017200031F08F5F0E946A0B883451F404C00E942C
:101730006A0B803229F484E98093BC0080E001C008
:1017400081E00F90DF91CF911F910895CF93DF93A8
:10175000C82FD62F60E00E94790B882391F08D2F3F
:101760000E946A0B882369F084E98093BC0061E0E1
:101770008C2F0E94790B882321F0DF91CF910C945C
:101780004A0B80E0DF91CF910895CF93DF93D62F5E
:10179000C42F60E00E94790B811102C080E00EC06E
:1017A0008D2F0E946A0B8823C9F38C2F0E946A0B2D
:1017B0008823A1F384E98093BC0081E0DF91CF917D
:1017C0000895CF93DF9300D01F92CDB7DEB74B8340
:1017D0006A8389830E94390B94EA9093BC008981C3
:1017E0006A814B819091BC0097FFFCCF90E590936C
:1017F000BB0094E89093BC009091BC0097FFFCCF95
:101800009091B900987F903229F484E98093BC00CC
:1018100080E029C091E09093BB0094E89093BC00D5
:101820009091BC0097FFFCCF8093BB0084E880932D
:10183000BC008091BC0087FFFCCF6093BB0084E8B4
:101840008093BC008091BC0087FFFCCF4093BB001D
:1018500084E88093BC008091BC0087FFFCCF84E9C2
:101860008093BC0081E00F900F900F90DF91CF919B
:10187000089524EA2093BC002091BC0027FFFCCFF0
:1018800021E52093BB0024E82093BC002091BC00FC
:1018900027FFFCCF2091B900287F2834A9F024EC41
:1018A0002093BC002091BC0027FFFCCF2091BB00FF
:1018B00026130AC0FC0120E030E0772767FD709511
:1018C0006150710944EC0EC084E98093BC0080E053
:1018D00008955091BC0057FFFCCF5091BB0051932D
:1018E0002F5F3F4F261737071CF44093BC00F1CF02
:1018F00044E84093BC004091BC0047FFFCCF4091BE
:10190000BB00FC01E20FF31F408384E98093BC001D
:1019100081E00895F89494EA9093BC009091BC0003
:1019200097FFFCCF90E59093BB0094E89093BC00A8
:101930009091BC0097FFFCCF9091B900987F9032B6
:1019400031F484E98093BC00789480E0089593E0BA
:101950009093BB0094E89093BC009091BC0097FFDB
:10196000FCCF8093BB0084E88093BC008091BC00D6
:1019700087FFFCCFFB01552747FD509524E8CF0199
:10198000861B970B8417950754F481918093BB00B5
:101990002093BC008091BC0087FFFCCFF0CF84E98E
:1019A0008093BC00789481E008958091E80080FFE6
:1019B000FCCF089581E08093D70080EA8093D8001F
:1019C00082E189BD09B400FEFDCF80E98093D80093
:1019D0001092E00010921301109210018CE080939D
:1019E000E200789408958091130108959FB7F894C8
:1019F00080911301882339F083E08093E90080917E
:101A0000E80085FD03C09FBF8FEF08958091F1002E
:101A10002091E80025FD03C02BE62093E8009FBF3E
:101A200008959FB7F89480911301882331F083E0E3
:101A30008093E9008091F20001C080E09FBF08958B
:101A400080911301882371F08FB7F89493E09093FD
:101A5000E9002BE69091E80095FF03C02093E80091
:101A6000F9CF8FBF089590911301992371F09FB71B
:101A7000F89424E02093E90020911101222349F0F9
:101A80002091E80025FD03C09FBF8FEF08951092BD
:101A900011012091E400275E34E04091E80045FD0B
:101AA00012C09FBF9091E400921304C081E0809324
:101AB0001101EBCF90911301992339F39FB7F8945B
:101AC0003093E900EACF8093F1008091E80085FD32
:101AD00003C08AE38093E80085E0809312019FBFF2
:101AE00080E00895909113019923D1F09FB7F89465
:101AF00024E02093E9002091E80025FD02C09FBF6B
:101B00000FC08093F1008091E80085FD03C08AE357
:101B10008093E80085E0809312019FBF80E00895E4
:101B20008FEF0895EF92FF921F93CF93DF937C0185
:101B3000CB0120911301222371F0AFB7F89424E078
:101B40002093E90020911101222349F02091E8001F
:101B500025FD03C0AFBF8FEF42C210921101B4E068
:101B6000C0E4DAE315E0009709F437C22091E400FD
:101B7000275E3091E80035FD12C0AFBF3091E40020
:101B8000321304C081E080931101E5CF309113013D
:101B9000332309F3AFB7F894B093E900EACF20916B
:101BA000F2004C2F421B242F30E08217930708F4D9
:101BB000482F841B910950E04134510508F0FDC1C4
:101BC0004A5A5F4FFA010C949E18F7012081209326
:101BD000F10097012F5F3F4F7901F701208120939A
:101BE000F10097012F5F3F4F7901F701208120938A
:101BF000F10097012F5F3F4F7901F701208120937A
:101C0000F10097012F5F3F4F7901F7012081209369
:101C1000F10097012F5F3F4F7901F7012081209359
:101C2000F10097012F5F3F4F7901F7012081209349
:101C3000F10097012F5F3F4F7901F7012081209339
:101C4000F10097012F5F3F4F7901F7012081209329
:101C5000F10097012F5F3F4F7901F7012081209319
:101C6000F10097012F5F3F4F7901F7012081209309
:101C7000F10097012F5F3F4F7901F70120812093F9
:101C8000F10097012F5F3F4F7901F70120812093E9
:101C9000F10097012F5F3F4F7901F70120812093D9
:101CA000F10097012F5F3F4F7901F70120812093C9
:101CB000F10097012F5F3F4F7901F70120812093B9
:101CC000F10097012F5F3F4F7901F70120812093A9
:101CD000F10097012F5F3F4F7901F7012081209399
:101CE000F10097012F5F3F4F7901F7012081209389
:101CF000F10097012F5F3F4F7901F7012081209379
:101D0000F10097012F5F3F4F7901F7012081209368
:101D1000F10097012F5F3F4F7901F7012081209358
:101D2000F10097012F5F3F4F7901F7012081209348
:101D3000F10097012F5F3F4F7901F7012081209338
:101D4000F10097012F5F3F4F7901F7012081209328
:101D5000F10097012F5F3F4F7901F7012081209318
:101D6000F10097012F5F3F4F7901F7012081209308
:101D7000F10097012F5F3F4F7901F70120812093F8
:101D8000F10097012F5F3F4F7901F70120812093E8
:101D9000F10097012F5F3F4F7901F70120812093D8
:101DA000F10097012F5F3F4F7901F70120812093C8
:101DB000F10097012F5F3F4F7901F70120812093B8
:101DC000F10097012F5F3F4F7901F70120812093A8
:101DD000F10097012F5F3F4F7901F7012081209398
:101DE000F10097012F5F3F4F7901F7012081209388
:101DF000F10097012F5F3F4F7901F7012081209378
:101E0000F10097012F5F3F4F7901F7012081209367
:101E1000F10097012F5F3F4F7901F7012081209357
:101E2000F10097012F5F3F4F7901F7012081209347
:101E3000F10097012F5F3F4F7901F7012081209337
:101E4000F10097012F5F3F4F7901F7012081209327
:101E5000F10097012F5F3F4F7901F7012081209317
:101E6000F10097012F5F3F4F7901F7012081209307
:101E7000F10097012F5F3F4F7901F70120812093F7
:101E8000F10097012F5F3F4F7901F70120812093E7
:101E9000F10097012F5F3F4F7901F70120812093D7
:101EA000F10097012F5F3F4F7901F70120812093C7
:101EB000F10097012F5F3F4F7901F70120812093B7
:101EC000F10097012F5F3F4F7901F70120812093A7
:101ED000F10097012F5F3F4F7901F7012081209397
:101EE000F10097012F5F3F4F7901F7012081209387
:101EF000F10097012F5F3F4F7901F7012081209377
:101F0000F10097012F5F3F4F7901F7012081209366
:101F1000F10097012F5F3F4F7901F7012081209356
:101F2000F10097012F5F3F4F7901F7012081209346
:101F3000F10097012F5F3F4F7901F7012081209336
:101F4000F10097012F5F3F4F7901F7012081209326
:101F5000F10097012F5F3F4F7901F7012081209316
:101F6000F10097012F5F3F4F7901F7012081209306
:101F7000F10097012F5F3F4F7901F70120812093F6
:101F8000F10097012F5F3F4F7901F70120812093E6
:101F9000F10097012F5F3F4F7901F70120812093D6
:101FA000F10097012F5F3F4F7901F70120812093C6
:101FB000F10097012F5F3F4F7901F70120812093B6
:101FC000F10097012F5F3F4F79012091E80025FF35
:101FD000D093E80010931201C6CDAFBF80E0DF912F
:101FE000CF911F91FF90EF9008958FB7F894909143
:101FF0001201992341F094E09093E9009AE39093C1
:10200000E800109212018FBF089580910C0108958D
:1020100080910D01089580910E0108958091100125
:1020200008959FB7F89420911301222339F022E0FC
:102030002093E9003091E80035FD03C09FBF8FEF8A
:10204000089531EA3093F10030E23093F1001092BC
:10205000F1001092F1001092F1001092F100209323
:10206000F1001092F1008093F1001092F1008AE3E8
:102070008093E8009FBF80E008951F920F920FB6F3
:102080000F9211248F939F938091E1001092E100B1
:1020900083FF11C01092E90091E09093EB00109241
:1020A000EC0092E19093ED0098E09093F000109294
:1020B00013011092100182FF13C080911301882335
:1020C00079F080911201882359F081508093120198
:1020D000811106C084E08093E9008AE38093E800E0
:1020E0009F918F910F900FBE0F901F9018951F9288
:1020F0000F920FB60F921124EF92FF920F931F933E
:102100002F933F934F935F936F937F938F939F93FF
:10211000AF93BF93EF93FF93CF93DF931F92CDB70E
:10212000DEB71092E9008091E80083FF14C190911E
:10213000F1008091F1003091F1002091F100E32E47
:10214000F12CF22A0091F1002091F10010E0122B05
:102150002091F1006091F10032EF3093E800863079
:1021600009F046C036E084E991E0FC0145915491C4
:102170004E155F0539F4FC01329645915491401794
:10218000510721F00796315081F7E5C0FC013496E4
:1021900045915491FC013696849130E0362B2F3FC7
:1021A000310519F010F02FEF30E0281708F4822FD6
:1021B0003EEF9091E800292F2570D9F392FDCEC013
:1021C000982F813108F090E1FA01292F222331F074
:1021D00064916093F10021503196F8CF490F511D61
:1021E000891B3093E8008111E4CF903111F3B6C020
:1021F000853051F48EEF8093E8000E94D50C8E2D2F
:1022000080688093E300AAC0893059F5911180C09D
:10221000E092130110921001109212018EEF809340
:10222000E80041E08DE392E04093E9009C012F5FDC
:102230003F4FFC0154915093EB00552359F0F901A5
:1022400024912093EC009C012D5F3F4F31968491A7
:102250008093ED004F5F453011F0C901E5CF8EE16D
:1022600075C0883051F4903809F052C00E94D50CE6
:10227000809113018093F10047C0813279F4913A43
:1022800009F046C00E94D50CE8E0F1E0819180930E
:10229000F10081E0EF30F807C9F736C0803299F4D9
:1022A0009132B1F58091E80082FFFCCFE8E0F1E0E7
:1022B0008091F100819381E0EF30F807C9F78BEF4F
:1022C0008093E80021C0823241F4913209F043C08A
:1022D000E09210010E94D50C17C0811119C099839A
:1022E0000E94D50C9981923851F40093E9008091B5
:1022F000EB0085FB882780F91092E90001C080E09F
:102300008093F1001092F1008EEF8093E80026C0D8
:10231000282F2D7F2130F9F49230E9F4EF28D9F4F9
:102320000F779FEF900F9430B0F49EEF9093E800FA
:102330000093E900833079F089E18093EB0081E03C
:1023400090E0002E01C0880F0A94EAF78093EA001B
:102350001092EA0003C081E28093EB000F90DF91BE
:10236000CF91FF91EF91BF91AF919F918F917F910D
:102370006F915F914F913F912F911F910F91FF901E
:10238000EF900F900FBE0F901F9018951F93CF9353
:10239000DF93EC01FE011491112351F01A3019F46E
:1023A0008DE00E94330D812F0E94330D2196F2CFD4
:1023B000DF91CF911F9108958A3010F490E301C00E
:1023C00097E3890F0C94330DCF93C82F82958F70AC
:1023D0000E94DC118C2F8F70CF910C94DC11CF9365
:1023E000C82F892F0E94E4118C2FCF910C94E411F7
:1023F0000C94E411EF92FF920F931F93CF93DF930E
:10240000CDB7DEB727970FB6F894DEBF0FBECDBFAE
:102410008E010F5F1F4F27E0F80111922A95E9F70F
:102420004AE0B8010E94A4187E01F8E0EF0EF11C0A
:10243000F80181918F0181110E94330D0E151F0546
:10244000B9F727960FB6F894DEBF0FBECDBFDF9168
:10245000CF911F910F91FF90EF900895EF92FF920F
:102460000F931F93CF93DF9300D000D000D0CDB750
:10247000DEB78E010F5F1F4F26E0F80111922A95FB
:10248000E9F74AE0B8010E94E0187E01F6E0EF0E9D
:10249000F11CF80181918F0181110E94330D0E15FD
:1024A0001F05B9F726960FB6F894DEBF0FBECDBF55
:1024B000DF91CF911F910F91FF90EF900895EF92D0
:1024C000FF920F931F93CF93DF93CDB7DEB72B9778
:1024D0000FB6F894DEBF0FBECDBF8E010F5F1F4F4A
:1024E0002BE0F80111922A95E9F72AE0A8010E9451
:1024F000AF187E01FCE0EF0EF11CF80181918F0115
:1025000081110E94330D0E151F05B9F72B960FB6DA
:10251000F894DEBF0FBECDBFDF91CF911F910F9119
:10252000FF90EF900895EF92FF920F931F93CF9338
:10253000DF93CDB7DEB72B970FB6F894DEBF0FBE93
:10254000CDBF8E010F5F1F4F2BE0F80111922A952E
:10255000E9F72AE0A8010E94BE187E01FBE0EF0E19
:10256000F11CF80181918F0181110E94330D0E152C
:102570001F05B9F72B960FB6F894DEBF0FBECDBF7F
:10258000DF91CF911F910F91FF90EF90089520E080
:1025900030E08091BC0087FD06C02F5F3F4F293E91
:1025A00083E03807B1F781E0283E334009F480E04A
:1025B00008958093BB0084E88093BC000E94C712FA
:1025C000882319F08091B900887F0895CF93C82F90
:1025D00084EA8093BC000E94C712882361F08C2F8C
:1025E000880F0E94D912803229F484E98093BC00BC
:1025F00080E001C081E0CF9108950E94390B88E509
:102600000E94E612811102C080E0089580E30E94DA
:10261000D9128823C9F381E00E94D9128823A1F33B
:1026200084E98093BC008FE39CE90197F1F700C037
:10263000000088E50E94E612882331F380E00E94C2
:10264000D912882309F380E00E94D9128823E1F28D
:1026500080E00E94D9128823B9F280E00E94D9124A
:10266000882391F280E00E94D912882369F280E0E9
:102670000E94D912882341F280E00E94D912882357
:1026800019F280E90E94D912882309F4BDCF84E9A8
:102690008093BC008FE39CE90197F1F700C0000034
:1026A00088E50E94E612882309F4AECF87E00E94F5
:1026B000D912882309F4A8CF80E00E94D912882378
:1026C00009F4A2CF81E40E94D912882309F49CCF97
:1026D00084E98093BC008FE39CE90197F1F700C087
:1026E000000088E50E94E612882309F48DCF8AE174
:1026F0000E94D912882309F487CF80E40E94D9125E
:10270000882309F481CF80E00E94D912882309F43C
:102710007BCF84E98093BC008FE39CE90197F1F7BC
:1027200000C0000088E50E94E612882309F46CCFFF
:1027300083E30E94D912882309F466CF83E00E94C4
:10274000D912882309F460CF84E98093BC008FE319
:102750009CE90197F1F700C0000088E50E94E612AD
:10276000882309F451CF80E30E94D912882309F409
:102770004BCF88E00E94D912882309F445CF84E921
:102780008093BC008FE39CE90197F1F700C0000043
:1027900081E00895CF93C82F84EA8093BC000E9403
:1027A000C712882369F08C2F880F8F5F0E94D9127F
:1027B000883429F484E98093BC0080E001C081E082
:1027C000CF910895EF92FF920F931F93CF93DF93D2
:1027D000CDB7DEB760970FB6F894DEBF0FBECDBFA2
:1027E0007C018E010F5F1F4F80E1F80111928A95E5
:1027F000E9F788E50E94E612811102C080E05EC020
:1028000086E30E94D9128823C9F384E98093BC002F
:10281000F5E8FA95F1F7000088E50E94CA138823CD
:1028200069F3F8019E01205F3F4F94EC9093BC0048
:102830008091BC0087FFFCCF8091BB008193E217A1
:10284000F307A1F784E88093BC008091BC0087FF68
:10285000FCCF8091BB00888B84E98093BC00DE01B3
:10286000149687016C91762F7073AD014250510917
:10287000FA01808190E0F0E17F9F800D911D11248D
:10288000F80191838083762F707C4F5F5F4FFA0150
:10289000808190E0F4E07F9F800D911D1124F8016C
:1028A000938382836F70862F90E095838483139641
:1028B0000A5F1F4FA217B307A9F681E060960FB613
:1028C000F894DEBF0FBECDBFDF91CF911F910F9166
:1028D000FF90EF90089584E98093BC000895809163
:1028E000380190E0FC01E05AF109E730F10508F009
:1028F0005EC0E956FF4F0C949E180E94FB0A0E948E
:10290000260B813061F4469A2FEF80E792E0215048
:1029100080409040E1F700C00000469808950E9472
:10292000260B823009F043C0479A2FEF80E792E0F0
:10293000215080409040E1F700C000004798089582
:102940000E94FB0A0E94260B992787FD9095909381
:10295000430180934201019711F4469A01C0479ABE
:102960000E9448012FEF89E698E121508040904075
:10297000E1F700C000000E944D012FEF89E698E1C9
:10298000215080409040E1F700C000000E945C01AF
:1029900081E080931C0108958091390180931E018C
:1029A00080913A0180931D01089510921C010895B1
:1029B0001F920F920FB60F92112428982D982E98DF
:1029C0000F900FBE0F901F9018951F920F920FB689
:1029D0000F921124289A2D9A2E9A0F900FBE0F90C5
:1029E0001F9018951F920F920FB60F9211242F93DC
:1029F0003F934F935F936F937F938F939F93AF9387
:102A0000BF93EF93FF9387E492E00E94C6110E9468
:102A1000F50F6AE088E391E00E94390C0E946F1480
:102A2000FF91EF91BF91AF919F918F917F916F91A6
:102A30005F914F913F912F910F900FBE0F901F907C
:102A400018950E944D020E9444013E9A3F9A80E8E8
:102A50008093610084E08093610080E090E02091A9
:102A60001C01222359F0892B49F40E94FB0A6FEEC6
:102A70007FEF8AE690E00E945F01F1CF80911C0118
:102A8000811103C00E945C01F9CF80E090E00895BD
:102A90005058BB27AA270ED027C2F0D130F0F5D16D
:102AA00020F031F49F3F11F41EF4C0C10EF4E09504
:102AB000E7FBB6C1E92F3AD280F3BA176207730772
:102AC0008407950718F071F49EF552C20EF4E09554
:102AD0000B2EBA2FA02D0B01B90190010C01CA01D8
:102AE000A0011124FF27591B99F0593F50F4503E83
:102AF00068F11A16F040A22F232F342F4427585F75
:102B0000F3CF469537952795A795F0405395C9F78C
:102B10007EF41F16BA0B620B730B840BBAF0915044
:102B2000A1F0FF0FBB1F661F771F881FC2F70EC0E3
:102B3000BA0F621F731F841F48F4879577956795B6
:102B4000B795F7959E3F08F0B3CF9395880F08F09F
:102B50009927EE0F97958795089590D158F080E8C2
:102B600091E009F49EEF91D128F040E851E059F44A
:102B70005EEF09C05BC1FCC1E92FE078D7D168F3F3
:102B8000092E052AC1F3261737074807590738F0D9
:102B90000E2E07F8E02569F0E025E0640AC0EF6337
:102BA00007F8009407FADB01B9019D01DC01CA01B5
:102BB000AD01EF934AD098D10AD05F91552331F0FF
:102BC0002BED3FE049E450FD49EC63CF0895DF93DE
:102BD000DD27B92FBF7740E85FE3161617064807D1
:102BE0005B0710F4D92FCFD19F938F937F936F936F
:102BF0007CD2ECE3F1E01DD177D12F913F914F9141
:102C00005F91D4D1DD2349F09058A2EA2AED3FE04C
:102C100049EC5FE3D0785D274DDFDF9165C1DCD003
:102C200008F481E0089539D1E3956FC10CD05CC1FF
:102C30002CD140F023D130F021F45F3F19F0F0C0E7
:102C4000511197C1F3C072D198F39923C9F3552359
:102C5000B1F3951B550BBB27AA276217730784078F
:102C600038F09F5F5F4F220F331F441FAA1FA9F345
:102C700033D00E2E3AF0E0E830D091505040E69537
:102C8000001CCAF729D0FE2F27D0660F771F881F98
:102C9000BB1F261737074807AB07B0E809F0BB0B87
:102CA000802DBF01FF2793585F4F2AF09E3F5105AB
:102CB00068F0B6C05EC15F3FECF3983EDCF38695EA
:102CC00077956795B795F7959F5FC9F7880F911D21
:102CD0009695879597F90895E1E0660F771F881F0D
:102CE000BB1F621773078407BA0720F0621B730BC0
:102CF000840BBA0BEE1F88F7E095089504D0689412
:102D0000B11137C108951AD188F09F5790F0B92FAB
:102D10009927B751A0F0D1F0660F771F881F991F30
:102D20001AF0BA95C9F712C0B13081F021D1B1E0E3
:102D300008951EC1672F782F8827B85F39F0B93FF3
:102D4000CCF3869577956795B395D9F73EF4909532
:102D50008095709561957F4F8F4F9F4F0895E894B0
:102D600009C097FB3EF490958095709561957F4FD3
:102D70008F4F9F4F9923A9F0F92F96E9BB27939581
:102D8000F695879577956795B795F111F8CFFAF491
:102D9000BB0F11F460FF1BC06F5F7F4F8F4F9F4FC2
:102DA00016C0882311F096E911C0772321F09EE820
:102DB000872F762F05C0662371F096E8862F70E086
:102DC00060E02AF09A95660F771F881FDAF7880F60
:102DD0009695879597F90895990F0008550FAA0BB6
:102DE000E0E8FEEF16161706E807F907C0F012161E
:102DF0001306E407F50798F0621B730B840B950B21
:102E000039F40A2661F0232B242B252B21F4089575
:102E10000A2609F4A140A6958FEF811D811D089512
:102E200097F99F6780E870E060E008959FEF80EC7D
:102E30000895DF93CF931F930F93FF92EF92DF924A
:102E40007B018C01689405C0DA2EEF01AFD0FE0142
:102E5000E894A5912591359145915591AEF3EF01F7
:102E600029DEFE019701A801DA9479F7DF90EF904F
:102E7000FF900F911F91CF91DF91089500240A9444
:102E80001616170618060906089500240A94121645
:102E90001306140605060895C9CF50D0E8F3E89448
:102EA000E0E0BB279F57F0F02AED3FE049EC06C079
:102EB000EE0FBB0F661F771F881F28F0B23A62071C
:102EC0007307840728F0B25A620B730B840BE395E7
:102ED0009A9572F7803830F49A95BB0F661F771F6A
:102EE000881FD2F7904806C1092E0394000C11F4F4
:102EF000882352F0BB0F40F4BF2B11F460FF04C0D5
:102F00006F5F7F4F8F4F9F4F0895EF93E0FF06C095
:102F1000A2EA2AED3FE049EC5FEBCCDDE5DF0F9064
:102F2000039401FC9058E9E6F1E0F7C057FD905892
:102F3000440F551F59F05F3F71F04795880F97FB7D
:102F4000991F61F09F3F79F0879508951216130637
:102F50001406551FF2CF4695F1DF08C01616170666
:102F60001806991FF1CF869571056105089408959B
:102F7000E894BB2766277727CB0197F908952CDFC4
:102F800008F48FEF08959B01AC0160E070E080E8E9
:102F90009FE34CCE0BD0A8CF71DF28F076DF18F07E
:102FA000952309F03DCF42CF1124E3CFBFDFA0F33B
:102FB000959FD1F3950F50E0551F629FF001729FCE
:102FC000BB27F00DB11D639FAA27F00DB11DAA1FED
:102FD000649F6627B00DA11D661F829F2227B00D3A
:102FE000A11D621F739FB00DA11D621F839FA00DC5
:102FF000611D221F749F3327A00D611D231F849F15
:10300000600D211D822F762F6A2F11249F5750406B
:103010008AF0E1F088234AF0EE0FFF1FBB1F661F06
:10302000771F881F91505040A9F79E3F510570F0BF
:10303000F7CE9FCF5F3FECF3983EDCF38695779514
:103040006795B795F795E7959F5FC1F7FE2B880FBA
:10305000911D9695879597F908959F931EDF0F9080
:1030600007FCEE5F52CF11F40EF4E0CE41C066DFF4
:10307000D0F39923D9F3CEF39F57550B87FF46D052
:103080000024A0E640EA900180585695979528F4D0
:10309000805C660F771F881F20F0261737074807C8
:1030A00030F4621B730B840B202931294A2BA6951F
:1030B00017940794202531254A2758F7660F771F64
:1030C000881F20F026173707480730F4620B730B70
:1030D000840B200D311D411DA09581F7B901842F6E
:1030E0009158880F9695879508959B01AC0152CF12
:1030F0009F3F31F0915020F4879577956795B7956C
:10310000880F911D9695879597F908959150504095
:10311000660F771F881FD2F708959F938F937F9331
:103120006F93FF93EF939B01AC0134DFEF91FF911D
:1031300080DE2F913F914F915F912CCFEE0FFF1FBB
:103140000590F491E02D0994BB274A3031F499237E
:1031500022F4BDE2909581959F4F0C94E118BB2716
:103160002A3051F4992342F4BDE2909580957095F0
:1031700061957F4F8F4F9F4F0C94BF18BB27FA016B
:10318000A62F6217710581059105330B30FB66F0A0
:10319000AA27660F771F881F991FAA1FA21710F072
:1031A000A21B63953850A9F7A05DAA3308F0A95D6A
:1031B000A19336F7B111B1931082CA010C94FA1899
:1031C000BB27FB015527AA27880F991FAA1FA41701
:1031D00010F0A41B83955051B9F7A05DAA3308F0F5
:1031E000A95DA193009779F7B111B1931192CB0129
:1031F0000C94FA18DC01FC01672F71917723E1F739
:10320000329704C07C916D9370836291AE17BF07B3
:08321000C8F30895F894FFCF04
:1032180052B89E3ED00F494000E10000000008006F
:00000001FF
